{
	"data": {
		"bytecode": {
			"linkReferences": {},
			"object": "608060405234801562000010575f80fd5b506040518060600160405280602a815260200162006786602a91396040518060400160405280600481526020017f50495441000000000000000000000000000000000000000000000000000000008152508160039081620000729190620005fd565b508060049081620000849190620005fd565b5050506001600581905550620000a730651cb3950c7000620000eb60201b60201c565b651cb3950c700060068190555042600981905550670de0b6b3a7640000600881905550670de0b6b3a764000060078190555064141dd76000601f819055506200080d565b5f73ffffffffffffffffffffffffffffffffffffffff168273ffffffffffffffffffffffffffffffffffffffff16036200015e575f6040517fec442f0500000000000000000000000000000000000000000000000000000000815260040162000155919062000724565b60405180910390fd5b620001715f83836200017560201b60201c565b5050565b5f73ffffffffffffffffffffffffffffffffffffffff168373ffffffffffffffffffffffffffffffffffffffff1603620001c9578060025f828254620001bc91906200076c565b925050819055506200029a565b5f805f8573ffffffffffffffffffffffffffffffffffffffff1673ffffffffffffffffffffffffffffffffffffffff1681526020019081526020015f205490508181101562000255578381836040517fe450d38c0000000000000000000000000000000000000000000000000000000081526004016200024c93929190620007b7565b60405180910390fd5b8181035f808673ffffffffffffffffffffffffffffffffffffffff1673ffffffffffffffffffffffffffffffffffffffff1681526020019081526020015f2081905550505b5f73ffffffffffffffffffffffffffffffffffffffff168273ffffffffffffffffffffffffffffffffffffffff1603620002e3578060025f82825403925050819055506200032d565b805f808473ffffffffffffffffffffffffffffffffffffffff1673ffffffffffffffffffffffffffffffffffffffff1681526020019081526020015f205f82825401925050819055505b8173ffffffffffffffffffffffffffffffffffffffff168373ffffffffffffffffffffffffffffffffffffffff167fddf252ad1be2c89b69c2b068fc378daa952ba7f163c4a11628f55a4df523b3ef836040516200038c9190620007f2565b60405180910390a3505050565b5f81519050919050565b7f4e487b71000000000000000000000000000000000000000000000000000000005f52604160045260245ffd5b7f4e487b71000000000000000000000000000000000000000000000000000000005f52602260045260245ffd5b5f60028204905060018216806200041557607f821691505b6020821081036200042b576200042a620003d0565b5b50919050565b5f819050815f5260205f209050919050565b5f6020601f8301049050919050565b5f82821b905092915050565b5f600883026200048f7fffffffffffffffffffffffffffffffffffffffffffffffffffffffffffffffff8262000452565b6200049b868362000452565b95508019841693508086168417925050509392505050565b5f819050919050565b5f819050919050565b5f620004e5620004df620004d984620004b3565b620004bc565b620004b3565b9050919050565b5f819050919050565b6200050083620004c5565b620005186200050f82620004ec565b8484546200045e565b825550505050565b5f90565b6200052e62000520565b6200053b818484620004f5565b505050565b5b818110156200056257620005565f8262000524565b60018101905062000541565b5050565b601f821115620005b1576200057b8162000431565b620005868462000443565b8101602085101562000596578190505b620005ae620005a58562000443565b83018262000540565b50505b505050565b5f82821c905092915050565b5f620005d35f1984600802620005b6565b1980831691505092915050565b5f620005ed8383620005c2565b9150826002028217905092915050565b620006088262000399565b67ffffffffffffffff811115620006245762000623620003a3565b5b620006308254620003fd565b6200063d82828562000566565b5f60209050601f83116001811462000673575f84156200065e578287015190505b6200066a8582620005e0565b865550620006d9565b601f198416620006838662000431565b5f5b82811015620006ac5784890151825560018201915060208501945060208101905062000685565b86831015620006cc5784890151620006c8601f891682620005c2565b8355505b6001600288020188555050505b505050505050565b5f73ffffffffffffffffffffffffffffffffffffffff82169050919050565b5f6200070c82620006e1565b9050919050565b6200071e8162000700565b82525050565b5f602082019050620007395f83018462000713565b92915050565b7f4e487b71000000000000000000000000000000000000000000000000000000005f52601160045260245ffd5b5f6200077882620004b3565b91506200078583620004b3565b9250828201905080821115620007a0576200079f6200073f565b5b92915050565b620007b181620004b3565b82525050565b5f606082019050620007cc5f83018662000713565b620007db6020830185620007a6565b620007ea6040830184620007a6565b949350505050565b5f602082019050620008075f830184620007a6565b92915050565b615f6b806200081b5f395ff3fe608060405234801561000f575f80fd5b506004361061030a575f3560e01c8063803bc87f1161019b578063ae3492c6116100e7578063e2a99c46116100a0578063f07e96b31161007a578063f07e96b314610a19578063f430406414610a49578063f4598cfd14610a79578063fcb4888e14610a975761030a565b8063e2a99c46146109ad578063e41c8398146109cb578063ef7e235b146109fb5761030a565b8063ae3492c6146108c0578063af8818d0146108f0578063c27849431461090e578063db4038661461093e578063dd62ed3e14610948578063de74e57b146109785761030a565b8063952eff6511610154578063965afa891161012e578063965afa8914610838578063a3976a0114610854578063a9059cbb14610872578063a9b07c26146108a25761030a565b8063952eff65146107ba57806395d89b41146107ea57806395dc7c7f146108085761030a565b8063803bc87f1461070a5780638201db18146107285780638a59d847146107585780638caa0083146107765780638d5f3c111461079457806391cd695d146107b05761030a565b8063313dab201161025a57806349de2b1a116102135780635da544ad116101ed5780635da544ad14610670578063601108fc1461068c57806370a08231146106bc578063728e9ecc146106ec5761030a565b806349de2b1a146105ef578063515a50d31461061f578063520c6838146106525761030a565b8063313dab20146104de57806331c536f6146104fc5780633ed2b77a1461052c5780634202d2141461055f57806344b50bfc1461058f57806348a37817146105bf5761030a565b8063166bab95116102c75780632131c68c116102a15780632131c68c1461045657806323b872dd146104745780632f7c88f5146104a4578063313ce567146104c05761030a565b8063166bab95146103fe57806318160ddd146104085780631c67211d146104265761030a565b806306f4fb0d1461030e57806306fdde031461033e578063075f150c1461035c578063095ea7b31461038f5780630d893b1a146103bf57806310ee294e146103f4575b5f80fd5b6103286004803603810190610323919061498d565b610ab3565b60405161033591906149d0565b60405180910390f35b610346610ac8565b6040516103539190614a73565b60405180910390f35b61037660048036038101906103719190614abd565b610b58565b6040516103869493929190614b15565b60405180910390f35b6103a960048036038101906103a49190614abd565b610baa565b6040516103b69190614b58565b60405180910390f35b6103d960048036038101906103d49190614ba4565b610bcc565b6040516103eb96959493929190614bed565b60405180910390f35b6103fc610c2f565b005b610406610da8565b005b610410610ef9565b60405161041d91906149d0565b60405180910390f35b610440600480360381019061043b919061498d565b610f02565b60405161044d9190614b58565b60405180910390f35b61045e610f1f565b60405161046b9190614c4c565b60405180910390f35b61048e60048036038101906104899190614c65565b610f44565b60405161049b9190614b58565b60405180910390f35b6104be60048036038101906104b9919061498d565b610f72565b005b6104c86111a1565b6040516104d59190614cd0565b60405180910390f35b6104e66111a9565b6040516104f391906149d0565b60405180910390f35b6105166004803603810190610511919061498d565b6111af565b60405161052391906149d0565b60405180910390f35b61054660048036038101906105419190614ce9565b6111c4565b6040516105569493929190614b15565b60405180910390f35b6105796004803603810190610574919061498d565b6111fc565b6040516105869190614b58565b60405180910390f35b6105a960048036038101906105a4919061498d565b611219565b6040516105b691906149d0565b60405180910390f35b6105d960048036038101906105d4919061498d565b61122e565b6040516105e691906149d0565b60405180910390f35b61060960048036038101906106049190614d14565b6112d6565b6040516106169190614d78565b60405180910390f35b61063960048036038101906106349190614abd565b61144d565b6040516106499493929190614b15565b60405180910390f35b61065a61149f565b60405161066791906149d0565b60405180910390f35b61068a60048036038101906106859190614dbb565b6114a5565b005b6106a660048036038101906106a19190614e0b565b61184b565b6040516106b391906149d0565b60405180910390f35b6106d660048036038101906106d1919061498d565b6119fd565b6040516106e391906149d0565b60405180910390f35b6106f4611a42565b60405161070191906149d0565b60405180910390f35b610712611a48565b60405161071f91906149d0565b60405180910390f35b610742600480360381019061073d919061498d565b611a4e565b60405161074f91906149d0565b60405180910390f35b610760611a63565b60405161076d91906149d0565b60405180910390f35b61077e611c9c565b60405161078b91906149d0565b60405180910390f35b6107ae60048036038101906107a99190614ebc565b611ca2565b005b6107b8611e8f565b005b6107d460048036038101906107cf9190614ce9565b6120e2565b6040516107e19190614c4c565b60405180910390f35b6107f261211d565b6040516107ff9190614a73565b60405180910390f35b610822600480360381019061081d919061498d565b6121ad565b60405161082f91906149d0565b60405180910390f35b610852600480360381019061084d919061498d565b6121c2565b005b61085c612273565b60405161086991906149d0565b60405180910390f35b61088c60048036038101906108879190614abd565b61227d565b6040516108999190614b58565b60405180910390f35b6108aa61229f565b6040516108b791906149d0565b60405180910390f35b6108da60048036038101906108d59190614ce9565b6122a5565b6040516108e79190614c4c565b60405180910390f35b6108f86122d5565b60405161090591906149d0565b60405180910390f35b6109286004803603810190610923919061498d565b6122de565b60405161093591906149d0565b60405180910390f35b6109466123b2565b005b610962600480360381019061095d9190614f4d565b612672565b60405161096f91906149d0565b60405180910390f35b610992600480360381019061098d9190614ce9565b6126f4565b6040516109a496959493929190614f8b565b60405180910390f35b6109b5612745565b6040516109c291906149d0565b60405180910390f35b6109e560048036038101906109e09190614ebc565b61274b565b6040516109f29190614b58565b60405180910390f35b610a0361285c565b604051610a1091906149d0565b60405180910390f35b610a336004803603810190610a2e919061498d565b612862565b604051610a4091906149d0565b60405180910390f35b610a636004803603810190610a5e919061498d565b612877565b604051610a7091906149d0565b60405180910390f35b610a8161288c565b604051610a8e91906149d0565b60405180910390f35b610ab16004803603810190610aac919061498d565b612892565b005b601c602052805f5260405f205f915090505481565b606060038054610ad790615017565b80601f0160208091040260200160405190810160405280929190818152602001828054610b0390615017565b8015610b4e5780601f10610b2557610100808354040283529160200191610b4e565b820191905f5260205f20905b815481529060010190602001808311610b3157829003601f168201915b5050505050905090565b600c602052815f5260405f208181548110610b71575f80fd5b905f5260205f2090600402015f9150915050805f015490806001015490806002015490806003015f9054906101000a900460ff16905084565b5f80610bb4612b20565b9050610bc1818585612b27565b600191505092915050565b6019602052805f5260405f205f91509050805f015490806001015f9054906101000a900473ffffffffffffffffffffffffffffffffffffffff1690806002015490806003015490806004015f9054906101000a900460ff16908060050154905086565b610c3833612b39565b610c77576040517f08c379a0000000000000000000000000000000000000000000000000000000008152600401610c6e90615091565b60405180910390fd5b6301e187f9600954610c8991906150dc565b421015610ccb576040517f08c379a0000000000000000000000000000000000000000000000000000000008152600401610cc290615159565b60405180910390fd5b66038d7ea4c68000651cb3950c7000610ce2610ef9565b610cec91906150dc565b1115610d2d576040517f08c379a0000000000000000000000000000000000000000000000000000000008152600401610d24906151c1565b60405180910390fd5b5f80601d5414610d5b576003601d546401b984112f610d4c91906151df565b610d5691906151df565b610d63565b651cb3950c70005b9050806006541015610da557610d7f30651cb3950c7000612c92565b651cb3950c700060065f828254610d9691906150dc565b92505081905550426009819055505b50565b610db133612b39565b610df0576040517f08c379a0000000000000000000000000000000000000000000000000000000008152600401610de790615091565b60405180910390fd5b5f601d54601f54610e0191906151df565b90505f600654610e0f610ef9565b610e199190615220565b9050818110610e5d576040517f08c379a0000000000000000000000000000000000000000000000000000000008152600401610e549061529d565b60405180910390fd5b5f8183610e6a9190615220565b9050600654811115610eb1576040517f08c379a0000000000000000000000000000000000000000000000000000000008152600401610ea890615305565b60405180910390fd5b8060065f828254610ec29190615220565b92505081905550610ef460125f9054906101000a900473ffffffffffffffffffffffffffffffffffffffff1682612c92565b505050565b5f600254905090565b600d602052805f5260405f205f915054906101000a900460ff1681565b60125f9054906101000a900473ffffffffffffffffffffffffffffffffffffffff1681565b5f80610f4e612b20565b9050610f5b858285612d11565b610f66858585612da4565b60019150509392505050565b610f7b33612b39565b610fba576040517f08c379a0000000000000000000000000000000000000000000000000000000008152600401610fb190615091565b60405180910390fd5b601b5f8273ffffffffffffffffffffffffffffffffffffffff1673ffffffffffffffffffffffffffffffffffffffff1681526020019081526020015f205f9054906101000a900460ff1661115c576001601b5f8373ffffffffffffffffffffffffffffffffffffffff1673ffffffffffffffffffffffffffffffffffffffff1681526020019081526020015f205f6101000a81548160ff02191690831515021790555080600e5f601d5481526020019081526020015f205f6101000a81548173ffffffffffffffffffffffffffffffffffffffff021916908373ffffffffffffffffffffffffffffffffffffffff160217905550601d54600f5f8373ffffffffffffffffffffffffffffffffffffffff1673ffffffffffffffffffffffffffffffffffffffff1681526020019081526020015f2081905550601d5f81548092919061110490615323565b9190505550600115158173ffffffffffffffffffffffffffffffffffffffff167ffe95b7566a64915a53f97c4006299b7121549cae0faa5cf597d710f6ccaff1104260405161115391906149d0565b60405180910390a35b4260185f8373ffffffffffffffffffffffffffffffffffffffff1673ffffffffffffffffffffffffffffffffffffffff1681526020019081526020015f208190555050565b5f6012905090565b60065481565b6011602052805f5260405f205f915090505481565b6013602052805f5260405f205f91509050805f015490806002015490806003015490806004015f9054906101000a900460ff16905084565b601b602052805f5260405f205f915054906101000a900460ff1681565b601a602052805f5260405f205f915090505481565b5f80600a5f8473ffffffffffffffffffffffffffffffffffffffff1673ffffffffffffffffffffffffffffffffffffffff1681526020019081526020015f2054905060018110156112b4576040517f08c379a00000000000000000000000000000000000000000000000000000000081526004016112ab906153b4565b60405180910390fd5b606481601f546112c491906151df565b6112ce91906153ff565b915050919050565b5f826112e1336119fd565b1015611322576040517f08c379a000000000000000000000000000000000000000000000000000000000815260040161131990615479565b60405180910390fd5b5f8585854260405160200161133a949392919061551c565b6040516020818303038152906040528051906020012090506040518060c001604052808781526020018673ffffffffffffffffffffffffffffffffffffffff1681526020018581526020014281526020015f151581526020018481525060195f8381526020019081526020015f205f820151815f01556020820151816001015f6101000a81548173ffffffffffffffffffffffffffffffffffffffff021916908373ffffffffffffffffffffffffffffffffffffffff16021790555060408201518160020155606082015181600301556080820151816004015f6101000a81548160ff02191690831515021790555060a08201518160050155905050611441333086612da4565b80915050949350505050565b600b602052815f5260405f208181548110611466575f80fd5b905f5260205f2090600402015f9150915050805f015490806001015490806002015490806003015f9054906101000a900460ff16905084565b601f5481565b600d5f3373ffffffffffffffffffffffffffffffffffffffff1673ffffffffffffffffffffffffffffffffffffffff1681526020019081526020015f205f9054906101000a900460ff1661152e576040517f08c379a0000000000000000000000000000000000000000000000000000000008152600401611525906155b3565b60405180910390fd5b5f6115383361122e565b90508115611781576103e8601f5461155091906153ff565b841015611592576040517f08c379a00000000000000000000000000000000000000000000000000000000081526004016115899061561b565b60405180910390fd5b60646019826115a191906151df565b6115ab91906153ff565b8411156115ed576040517f08c379a00000000000000000000000000000000000000000000000000000000081526004016115e490615683565b60405180910390fd5b80846115f8336122de565b61160291906150dc565b1115611643576040517f08c379a000000000000000000000000000000000000000000000000000000000815260040161163a906156eb565b60405180910390fd5b5f670de0b6b3a7640000848661165991906151df565b61166391906153ff565b905080601c5f3373ffffffffffffffffffffffffffffffffffffffff1673ffffffffffffffffffffffffffffffffffffffff1681526020019081526020015f205f8282546116b191906150dc565b92505081905550600b5f3373ffffffffffffffffffffffffffffffffffffffff1673ffffffffffffffffffffffffffffffffffffffff1681526020019081526020015f2060405180608001604052808781526020018681526020014281526020015f1515815250908060018154018082558091505060019003905f5260205f2090600402015f909190919091505f820151815f015560208201518160010155604082015181600201556060820151816003015f6101000a81548160ff021916908315150217905550505050611845565b600c5f3373ffffffffffffffffffffffffffffffffffffffff1673ffffffffffffffffffffffffffffffffffffffff1681526020019081526020015f2060405180608001604052808681526020018581526020014281526020015f1515815250908060018154018082558091505060019003905f5260205f2090600402015f909190919091505f820151815f015560208201518160010155604082015181600201556060820151816003015f6101000a81548160ff02191690831515021790555050505b50505050565b5f60135f8581526020019081526020015f206004015f9054906101000a900460ff166118ac576040517f08c379a00000000000000000000000000000000000000000000000000000000081526004016118a390615753565b60405180910390fd5b8360175f3373ffffffffffffffffffffffffffffffffffffffff1673ffffffffffffffffffffffffffffffffffffffff1681526020019081526020015f20541461192b576040517f08c379a0000000000000000000000000000000000000000000000000000000008152600401611922906157bb565b60405180910390fd5b60165f81548092919061193d90615323565b91905055506040518060c0016040528060165481526020018581526020018481526020018381526020015f151581526020016001151581525060145f60165481526020019081526020015f205f820151815f01556020820151816001015560408201518160020155606082015181600301556080820151816004015f6101000a81548160ff02191690831515021790555060a08201518160040160016101000a81548160ff02191690831515021790555090505060165490509392505050565b5f805f8373ffffffffffffffffffffffffffffffffffffffff1673ffffffffffffffffffffffffffffffffffffffff1681526020019081526020015f20549050919050565b601d5481565b60095481565b600f602052805f5260405f205f915090505481565b5f8060175f3373ffffffffffffffffffffffffffffffffffffffff1673ffffffffffffffffffffffffffffffffffffffff1681526020019081526020015f205414611ae3576040517f08c379a0000000000000000000000000000000000000000000000000000000008152600401611ada90615823565b60405180910390fd5b60155f815480929190611af590615323565b91905055506040518060a0016040528060155481526020015f67ffffffffffffffff811115611b2757611b26615841565b5b604051908082528060200260200182016040528015611b555781602001602082028036833780820191505090505b5081526020015f81526020014281526020016001151581525060135f60155481526020019081526020015f205f820151815f01556020820151816001019080519060200190611ba5929190614863565b5060408201518160020155606082015181600301556080820151816004015f6101000a81548160ff02191690831515021790555090505060135f60155481526020019081526020015f2060010133908060018154018082558091505060019003905f5260205f20015f9091909190916101000a81548173ffffffffffffffffffffffffffffffffffffffff021916908373ffffffffffffffffffffffffffffffffffffffff16021790555060155460175f3373ffffffffffffffffffffffffffffffffffffffff1673ffffffffffffffffffffffffffffffffffffffff1681526020019081526020015f2081905550601554905090565b60155481565b611caf858585858561274b565b611cee576040517f08c379a0000000000000000000000000000000000000000000000000000000008152600401611ce5906158b8565b60405180910390fd5b5f60195f8781526020019081526020015f209050806004015f9054906101000a900460ff1615611d53576040517f08c379a0000000000000000000000000000000000000000000000000000000008152600401611d4a90615920565b60405180910390fd5b628e62008160030154611d6691906150dc565b421115611da8576040517f08c379a0000000000000000000000000000000000000000000000000000000008152600401611d9f90615988565b60405180910390fd5b806001015f9054906101000a900473ffffffffffffffffffffffffffffffffffffffff1673ffffffffffffffffffffffffffffffffffffffff163373ffffffffffffffffffffffffffffffffffffffff1614611e39576040517f08c379a0000000000000000000000000000000000000000000000000000000008152600401611e30906159f0565b60405180910390fd5b6001816004015f6101000a81548160ff021916908315150217905550611e8730826001015f9054906101000a900473ffffffffffffffffffffffffffffffffffffffff168360020154612da4565b505050505050565b611e9833612b39565b611ed7576040517f08c379a0000000000000000000000000000000000000000000000000000000008152600401611ece90615091565b60405180910390fd5b62015180601e54611ee891906150dc565b421015611f2a576040517f08c379a0000000000000000000000000000000000000000000000000000000008152600401611f2190615159565b60405180910390fd5b62127500601e54611f3b91906150dc565b4210611f4a57611f49612e94565b5b5f670de0b6b3a764000090505f600754118015611f6857505f600854115b15611fd4575f670de0b6b3a764000090505f600754670de0b6b3a7640000600854611f9391906151df565b611f9d91906153ff565b905081811015611fcd57670de0b6b3a76400008182611fbc91906151df565b611fc691906153ff565b9250611fd1565b8092505b50505b5f670de0b6b3a7640000826401b984112f611fef91906151df565b611ff991906153ff565b90505f601d548261200a91906151df565b90505f64174876e8006401b984112f8361202491906151df565b61202e91906153ff565b90505f818361203d91906150dc565b905064141dd7600081101561207a575f8164141dd7600061205e9190615220565b90508060065f82825461207191906150dc565b92505081905550505b60085460078190555061208c84613153565b80601f819055507f58c3fe4f561c8c51a47f84938c2043649a09ae6f2132c7047b9a3668c3917c8e601f546040516120c491906149d0565b60405180910390a16120d4613247565b42601e819055505050505050565b601081815481106120f1575f80fd5b905f5260205f20015f915054906101000a900473ffffffffffffffffffffffffffffffffffffffff1681565b60606004805461212c90615017565b80601f016020809104026020016040519081016040528092919081815260200182805461215890615017565b80156121a35780601f1061217a576101008083540402835291602001916121a3565b820191905f5260205f20905b81548152906001019060200180831161218657829003601f168201915b5050505050905090565b6017602052805f5260405f205f915090505481565b5f73ffffffffffffffffffffffffffffffffffffffff168173ffffffffffffffffffffffffffffffffffffffff1603612230576040517f08c379a000000000000000000000000000000000000000000000000000000000815260040161222790615a58565b60405180910390fd5b8060125f6101000a81548173ffffffffffffffffffffffffffffffffffffffff021916908373ffffffffffffffffffffffffffffffffffffffff16021790555050565b651cb3950c700081565b5f80612287612b20565b9050612294818585612da4565b600191505092915050565b60165481565b600e602052805f5260405f205f915054906101000a900473ffffffffffffffffffffffffffffffffffffffff1681565b64141dd7600081565b5f805f90505f600b5f8573ffffffffffffffffffffffffffffffffffffffff1673ffffffffffffffffffffffffffffffffffffffff1681526020019081526020015f2090505f5b81805490508110156123a75781818154811061234457612343615a76565b5b905f5260205f2090600402016003015f9054906101000a900460ff166123945781818154811061237757612376615a76565b5b905f5260205f2090600402015f01548361239191906150dc565b92505b808061239f90615323565b915050612325565b508192505050919050565b5f601d54146123f6576040517f08c379a00000000000000000000000000000000000000000000000000000000081526004016123ed90615aed565b60405180910390fd5b601033908060018154018082558091505060019003905f5260205f20015f9091909190916101000a81548173ffffffffffffffffffffffffffffffffffffffff021916908373ffffffffffffffffffffffffffffffffffffffff1602179055505f60115f3373ffffffffffffffffffffffffffffffffffffffff1673ffffffffffffffffffffffffffffffffffffffff1681526020019081526020015f20819055506001600d5f3373ffffffffffffffffffffffffffffffffffffffff1673ffffffffffffffffffffffffffffffffffffffff1681526020019081526020015f205f6101000a81548160ff0219169083151502179055506001600a5f3373ffffffffffffffffffffffffffffffffffffffff1673ffffffffffffffffffffffffffffffffffffffff1681526020019081526020015f20819055506001601b5f3373ffffffffffffffffffffffffffffffffffffffff1673ffffffffffffffffffffffffffffffffffffffff1681526020019081526020015f205f6101000a81548160ff02191690831515021790555033600e5f8081526020019081526020015f205f6101000a81548173ffffffffffffffffffffffffffffffffffffffff021916908373ffffffffffffffffffffffffffffffffffffffff1602179055505f600f5f3373ffffffffffffffffffffffffffffffffffffffff1673ffffffffffffffffffffffffffffffffffffffff1681526020019081526020015f20819055506001601d81905550600115153373ffffffffffffffffffffffffffffffffffffffff167ffe95b7566a64915a53f97c4006299b7121549cae0faa5cf597d710f6ccaff1104260405161266891906149d0565b60405180910390a3565b5f60015f8473ffffffffffffffffffffffffffffffffffffffff1673ffffffffffffffffffffffffffffffffffffffff1681526020019081526020015f205f8373ffffffffffffffffffffffffffffffffffffffff1673ffffffffffffffffffffffffffffffffffffffff1681526020019081526020015f2054905092915050565b6014602052805f5260405f205f91509050805f015490806001015490806002015490806003015490806004015f9054906101000a900460ff16908060040160019054906101000a900460ff16905086565b60085481565b5f8060195f8881526020019081526020015f2090505f801b816005015414158015612791575080600501548484604051612786929190615b47565b604051809103902014155b1561279f575f915050612853565b5f8785856040516020016127b593929190615b5f565b604051602081830303815290604052805190602001209050815f015461282788888080601f0160208091040260200160405190810160405280939291908181526020018383808284375f81840152601f19601f820116905080830192505050505050508361337790919063ffffffff16565b6040516020016128379190615b88565b6040516020818303038152906040528051906020012014925050505b95945050505050565b60075481565b6018602052805f5260405f205f915090505481565b600a602052805f5260405f205f915090505481565b601e5481565b61289b336133a1565b6128da576040517f08c379a00000000000000000000000000000000000000000000000000000000081526004016128d190615bec565b60405180910390fd5b6001600d5f8373ffffffffffffffffffffffffffffffffffffffff1673ffffffffffffffffffffffffffffffffffffffff1681526020019081526020015f205f6101000a81548160ff0219169083151502179055506001600a5f8373ffffffffffffffffffffffffffffffffffffffff1673ffffffffffffffffffffffffffffffffffffffff1681526020019081526020015f208190555061297b81610f72565b601b5f8273ffffffffffffffffffffffffffffffffffffffff1673ffffffffffffffffffffffffffffffffffffffff1681526020019081526020015f205f9054906101000a900460ff16612b1d576001601b5f8373ffffffffffffffffffffffffffffffffffffffff1673ffffffffffffffffffffffffffffffffffffffff1681526020019081526020015f205f6101000a81548160ff02191690831515021790555080600e5f601d5481526020019081526020015f205f6101000a81548173ffffffffffffffffffffffffffffffffffffffff021916908373ffffffffffffffffffffffffffffffffffffffff160217905550601d54600f5f8373ffffffffffffffffffffffffffffffffffffffff1673ffffffffffffffffffffffffffffffffffffffff1681526020019081526020015f2081905550601d5f815480929190612ac590615323565b9190505550600115158173ffffffffffffffffffffffffffffffffffffffff167ffe95b7566a64915a53f97c4006299b7121549cae0faa5cf597d710f6ccaff11042604051612b1491906149d0565b60405180910390a35b50565b5f33905090565b612b348383836001613465565b505050565b5f601b5f8373ffffffffffffffffffffffffffffffffffffffff1673ffffffffffffffffffffffffffffffffffffffff1681526020019081526020015f205f9054906101000a900460ff16612bc3576040517f08c379a0000000000000000000000000000000000000000000000000000000008152600401612bba90615c54565b60405180910390fd5b5f805b601d54811015612c67575f600a5f600e5f8581526020019081526020015f205f9054906101000a900473ffffffffffffffffffffffffffffffffffffffff1673ffffffffffffffffffffffffffffffffffffffff1673ffffffffffffffffffffffffffffffffffffffff1681526020019081526020015f20541115612c54578180612c5090615323565b9250505b8080612c5f90615323565b915050612bc6565b50620a2c2a601d54620f424083612c7e91906151df565b612c8891906153ff565b1015915050919050565b5f73ffffffffffffffffffffffffffffffffffffffff168273ffffffffffffffffffffffffffffffffffffffff1603612d02575f6040517fec442f05000000000000000000000000000000000000000000000000000000008152600401612cf99190614c4c565b60405180910390fd5b612d0d5f8383613634565b5050565b5f612d1c8484612672565b90507fffffffffffffffffffffffffffffffffffffffffffffffffffffffffffffffff811015612d9e5781811015612d8f578281836040517ffb8f41b2000000000000000000000000000000000000000000000000000000008152600401612d8693929190615c72565b60405180910390fd5b612d9d84848484035f613465565b5b50505050565b5f73ffffffffffffffffffffffffffffffffffffffff168373ffffffffffffffffffffffffffffffffffffffff1603612e14575f6040517f96c6fd1e000000000000000000000000000000000000000000000000000000008152600401612e0b9190614c4c565b60405180910390fd5b5f73ffffffffffffffffffffffffffffffffffffffff168273ffffffffffffffffffffffffffffffffffffffff1603612e84575f6040517fec442f05000000000000000000000000000000000000000000000000000000008152600401612e7b9190614c4c565b60405180910390fd5b612e8f838383613634565b505050565b5f5b601d54811015613149575f600e5f8381526020019081526020015f205f9054906101000a900473ffffffffffffffffffffffffffffffffffffffff1690506212750042612ee39190615220565b60185f8373ffffffffffffffffffffffffffffffffffffffff1673ffffffffffffffffffffffffffffffffffffffff1681526020019081526020015f20541015613134575f6001601d54612f379190615220565b90505f600e5f8381526020019081526020015f205f9054906101000a900473ffffffffffffffffffffffffffffffffffffffff16905080600e5f8681526020019081526020015f205f6101000a81548173ffffffffffffffffffffffffffffffffffffffff021916908373ffffffffffffffffffffffffffffffffffffffff16021790555083600f5f8373ffffffffffffffffffffffffffffffffffffffff1673ffffffffffffffffffffffffffffffffffffffff1681526020019081526020015f2081905550600e5f8381526020019081526020015f205f6101000a81549073ffffffffffffffffffffffffffffffffffffffff0219169055600f5f8473ffffffffffffffffffffffffffffffffffffffff1673ffffffffffffffffffffffffffffffffffffffff1681526020019081526020015f205f90555f601b5f8573ffffffffffffffffffffffffffffffffffffffff1673ffffffffffffffffffffffffffffffffffffffff1681526020019081526020015f205f6101000a81548160ff021916908315150217905550601d5f8154809291906130d790615ca7565b91905055505f15158373ffffffffffffffffffffffffffffffffffffffff167ffe95b7566a64915a53f97c4006299b7121549cae0faa5cf597d710f6ccaff1104260405161312591906149d0565b60405180910390a35050613143565b818061313f90615323565b9250505b50612e96565b5042601e81905550565b5f5b601d54811015613243575f600e5f8381526020019081526020015f205f9054906101000a900473ffffffffffffffffffffffffffffffffffffffff169050601b5f8273ffffffffffffffffffffffffffffffffffffffff1673ffffffffffffffffffffffffffffffffffffffff1681526020019081526020015f205f9054906101000a900460ff161561322f576131ec8184612c92565b42601a5f8373ffffffffffffffffffffffffffffffffffffffff1673ffffffffffffffffffffffffffffffffffffffff1681526020019081526020015f20819055505b50808061323b90615323565b915050613155565b5050565b61325033612b39565b61328f576040517f08c379a000000000000000000000000000000000000000000000000000000000815260040161328690615091565b60405180910390fd5b610e1062015180426132a19190615cce565b11156132e2576040517f08c379a00000000000000000000000000000000000000000000000000000000081526004016132d990615d48565b60405180910390fd5b5f64174876e8006401b984112f601f546132fc91906151df565b61330691906153ff565b90506133118161384d565b61331a81613ab2565b5f613323613c00565b90505f61332e613db3565b905061333982613ee9565b7f3478244af5961cc56eefb1d3486a4e3c4d1051e49100fb0efc408aa68a17b152828260405161336a929190615d66565b60405180910390a1505050565b5f805f806133858686614057565b92509250925061339582826140ac565b82935050505092915050565b5f8060115f8473ffffffffffffffffffffffffffffffffffffffff1673ffffffffffffffffffffffffffffffffffffffff1681526020019081526020015f205490506010805490508110801561345d57508273ffffffffffffffffffffffffffffffffffffffff166010828154811061341d5761341c615a76565b5b905f5260205f20015f9054906101000a900473ffffffffffffffffffffffffffffffffffffffff1673ffffffffffffffffffffffffffffffffffffffff16145b915050919050565b5f73ffffffffffffffffffffffffffffffffffffffff168473ffffffffffffffffffffffffffffffffffffffff16036134d5575f6040517fe602df050000000000000000000000000000000000000000000000000000000081526004016134cc9190614c4c565b60405180910390fd5b5f73ffffffffffffffffffffffffffffffffffffffff168373ffffffffffffffffffffffffffffffffffffffff1603613545575f6040517f94280d6200000000000000000000000000000000000000000000000000000000815260040161353c9190614c4c565b60405180910390fd5b8160015f8673ffffffffffffffffffffffffffffffffffffffff1673ffffffffffffffffffffffffffffffffffffffff1681526020019081526020015f205f8573ffffffffffffffffffffffffffffffffffffffff1673ffffffffffffffffffffffffffffffffffffffff1681526020019081526020015f2081905550801561362e578273ffffffffffffffffffffffffffffffffffffffff168473ffffffffffffffffffffffffffffffffffffffff167f8c5be1e5ebec7d5bd14f71427d1e84f3dd0314c0f7b2291e5b200ac8c7c3b9258460405161362591906149d0565b60405180910390a35b50505050565b5f73ffffffffffffffffffffffffffffffffffffffff168373ffffffffffffffffffffffffffffffffffffffff1603613684578060025f82825461367891906150dc565b92505081905550613752565b5f805f8573ffffffffffffffffffffffffffffffffffffffff1673ffffffffffffffffffffffffffffffffffffffff1681526020019081526020015f205490508181101561370d578381836040517fe450d38c00000000000000000000000000000000000000000000000000000000815260040161370493929190615c72565b60405180910390fd5b8181035f808673ffffffffffffffffffffffffffffffffffffffff1673ffffffffffffffffffffffffffffffffffffffff1681526020019081526020015f2081905550505b5f73ffffffffffffffffffffffffffffffffffffffff168273ffffffffffffffffffffffffffffffffffffffff1603613799578060025f82825403925050819055506137e3565b805f808473ffffffffffffffffffffffffffffffffffffffff1673ffffffffffffffffffffffffffffffffffffffff1681526020019081526020015f205f82825401925050819055505b8173ffffffffffffffffffffffffffffffffffffffff168373ffffffffffffffffffffffffffffffffffffffff167fddf252ad1be2c89b69c2b068fc378daa952ba7f163c4a11628f55a4df523b3ef8360405161384091906149d0565b60405180910390a3505050565b5f805b601080549050811015613aad575f6010828154811061387257613871615a76565b5b905f5260205f20015f9054906101000a900473ffffffffffffffffffffffffffffffffffffffff1690505f600b5f8373ffffffffffffffffffffffffffffffffffffffff1673ffffffffffffffffffffffffffffffffffffffff1681526020019081526020015f2090505f5b8180549050811015613a97578181815481106138fd576138fc615a76565b5b905f5260205f2090600402016003015f9054906101000a900460ff1615801561395257508582828154811061393557613934615a76565b5b905f5260205f2090600402015f01548661394f91906150dc565b11155b15613a8457600182828154811061396c5761396b615a76565b5b905f5260205f2090600402016003015f6101000a81548160ff0219169083151502179055508181815481106139a4576139a3615a76565b5b905f5260205f2090600402015f0154856139be91906150dc565b94506139ec30848484815481106139d8576139d7615a76565b5b905f5260205f2090600402015f0154612da4565b600115158373ffffffffffffffffffffffffffffffffffffffff167f9e7fd281b1dce2314e2103ce01aebc9ab4b6c9407341a2df5b9fa74d32900c44848481548110613a3b57613a3a615a76565b5b905f5260205f2090600402015f0154858581548110613a5d57613a5c615a76565b5b905f5260205f20906004020160010154604051613a7b929190615d66565b60405180910390a35b8080613a8f90615323565b9150506138de565b5050508080613aa590615323565b915050613850565b505050565b5f8190505f613abf61420e565b9050613aca816144a0565b5f5b815181108015613adb57505f83115b15613bfa575f83838381518110613af557613af4615a76565b5b60200260200101515f015110613b0b5783613b2a565b828281518110613b1e57613b1d615a76565b5b60200260200101515f01515b90505f613b50848481518110613b4357613b42615a76565b5b60200260200101516145d8565b90505f821115613be5578185613b669190615220565b9450613b73308284612da4565b5f15158173ffffffffffffffffffffffffffffffffffffffff167f9e7fd281b1dce2314e2103ce01aebc9ab4b6c9407341a2df5b9fa74d32900c4484878781518110613bc257613bc1615a76565b5b602002602001015160200151604051613bdc929190615d66565b60405180910390a35b50508080613bf290615323565b915050613acc565b50505050565b5f805f90505f805b601080549050811015613d8b575f60108281548110613c2a57613c29615a76565b5b905f5260205f20015f9054906101000a900473ffffffffffffffffffffffffffffffffffffffff1690505f600b5f8373ffffffffffffffffffffffffffffffffffffffff1673ffffffffffffffffffffffffffffffffffffffff1681526020019081526020015f2090505f5b8180549050811015613d7557818181548110613cb557613cb4615a76565b5b905f5260205f2090600402016003015f9054906101000a900460ff1615613d6257818181548110613ce957613ce8615a76565b5b905f5260205f20906004020160010154828281548110613d0c57613d0b615a76565b5b905f5260205f2090600402015f0154613d2591906151df565b86613d3091906150dc565b9550818181548110613d4557613d44615a76565b5b905f5260205f2090600402015f015485613d5f91906150dc565b94505b8080613d6d90615323565b915050613c96565b5050508080613d8390615323565b915050613c08565b505f8103613d9f5760085492505050613db0565b8082613dab91906153ff565b925050505b90565b5f805f90505f5b601080549050811015613ee1575f60108281548110613ddc57613ddb615a76565b5b905f5260205f20015f9054906101000a900473ffffffffffffffffffffffffffffffffffffffff1690505f600b5f8373ffffffffffffffffffffffffffffffffffffffff1673ffffffffffffffffffffffffffffffffffffffff1681526020019081526020015f2090505f5b8180549050811015613ecb57818181548110613e6757613e66615a76565b5b905f5260205f2090600402016003015f9054906101000a900460ff1615613eb857818181548110613e9b57613e9a615a76565b5b905f5260205f2090600402015f015485613eb591906150dc565b94505b8080613ec390615323565b915050613e48565b5050508080613ed990615323565b915050613dba565b508091505090565b613ef233612b39565b613f31576040517f08c379a0000000000000000000000000000000000000000000000000000000008152600401613f2890615091565b60405180910390fd5b5f8111613f73576040517f08c379a0000000000000000000000000000000000000000000000000000000008152600401613f6a90615dd7565b60405180910390fd5b5f600754111561400d575f600754620f42406007548411613fa15783600754613f9c9190615220565b613fb0565b60075484613faf9190615220565b5b613fba91906151df565b613fc491906153ff565b90506123f081111561400b576040517f08c379a000000000000000000000000000000000000000000000000000000000815260040161400290615e3f565b60405180910390fd5b505b600854600781905550806008819055507f66cbca4f3c64fecf1dcb9ce094abcf7f68c3450a1d4e3a8e917dd621edb4ebe08160405161404c91906149d0565b60405180910390a150565b5f805f6041845103614097575f805f602087015192506040870151915060608701515f1a90506140898882858561477c565b9550955095505050506140a5565b5f600285515f1b9250925092505b9250925092565b5f60038111156140bf576140be615e5d565b5b8260038111156140d2576140d1615e5d565b5b031561420a57600160038111156140ec576140eb615e5d565b5b8260038111156140ff576140fe615e5d565b5b03614136576040517ff645eedf00000000000000000000000000000000000000000000000000000000815260040160405180910390fd5b6002600381111561414a57614149615e5d565b5b82600381111561415d5761415c615e5d565b5b036141a157805f1c6040517ffce698f700000000000000000000000000000000000000000000000000000000815260040161419891906149d0565b60405180910390fd5b6003808111156141b4576141b3615e5d565b5b8260038111156141c7576141c6615e5d565b5b0361420957806040517fd78bce0c0000000000000000000000000000000000000000000000000000000081526004016142009190614d78565b60405180910390fd5b5b5050565b60605f805b6010805490508110156142bc57600c5f6010838154811061423757614236615a76565b5b905f5260205f20015f9054906101000a900473ffffffffffffffffffffffffffffffffffffffff1673ffffffffffffffffffffffffffffffffffffffff1673ffffffffffffffffffffffffffffffffffffffff1681526020019081526020015f2080549050826142a791906150dc565b915080806142b490615323565b915050614213565b505f8167ffffffffffffffff8111156142d8576142d7615841565b5b60405190808252806020026020018201604052801561431157816020015b6142fe6148ea565b8152602001906001900390816142f65790505b5090505f805b601080549050811015614496575f600c5f6010848154811061433c5761433b615a76565b5b905f5260205f20015f9054906101000a900473ffffffffffffffffffffffffffffffffffffffff1673ffffffffffffffffffffffffffffffffffffffff1673ffffffffffffffffffffffffffffffffffffffff1681526020019081526020015f2090505f5b8180549050811015614481578181815481106143c0576143bf615a76565b5b905f5260205f2090600402016003015f9054906101000a900460ff1661446e578181815481106143f3576143f2615a76565b5b905f5260205f2090600402016040518060800160405290815f82015481526020016001820154815260200160028201548152602001600382015f9054906101000a900460ff16151515158152505085858151811061445457614453615a76565b5b6020026020010181905250838061446a90615323565b9450505b808061447990615323565b9150506143a1565b5050808061448e90615323565b915050614317565b5081935050505090565b5f5b81518110156145d4575f5b60018284516144bc9190615220565b6144c69190615220565b8110156145c057826001826144db91906150dc565b815181106144ec576144eb615a76565b5b60200260200101516020015183828151811061450b5761450a615a76565b5b60200260200101516020015110156145ad575f83828151811061453157614530615a76565b5b602002602001015190508360018361454991906150dc565b8151811061455a57614559615a76565b5b602002602001015184838151811061457557614574615a76565b5b6020026020010181905250808460018461458f91906150dc565b815181106145a05761459f615a76565b5b6020026020010181905250505b80806145b890615323565b9150506144ad565b5080806145cc90615323565b9150506144a2565b5050565b5f805f90505b60108054905081101561473b575f60108281548110614600576145ff615a76565b5b905f5260205f20015f9054906101000a900473ffffffffffffffffffffffffffffffffffffffff1690505f600c5f8373ffffffffffffffffffffffffffffffffffffffff1673ffffffffffffffffffffffffffffffffffffffff1681526020019081526020015f2090505f5b81805490508110156147255785604001518282815481106146905761468f615a76565b5b905f5260205f209060040201600201541480156146d05750855f01518282815481106146bf576146be615a76565b5b905f5260205f2090600402015f0154145b8015614701575085602001518282815481106146ef576146ee615a76565b5b905f5260205f20906004020160010154145b156147125782945050505050614777565b808061471d90615323565b91505061466c565b505050808061473390615323565b9150506145de565b506040517f08c379a000000000000000000000000000000000000000000000000000000000815260040161476e90615ed4565b60405180910390fd5b919050565b5f805f7f7fffffffffffffffffffffffffffffff5d576e7357a4501ddfe92f46681b20a0845f1c11156147b8575f600385925092509250614859565b5f6001888888886040515f81526020016040526040516147db9493929190615ef2565b6020604051602081039080840390855afa1580156147fb573d5f803e3d5ffd5b5050506020604051035190505f73ffffffffffffffffffffffffffffffffffffffff168173ffffffffffffffffffffffffffffffffffffffff160361484c575f60015f801b93509350935050614859565b805f805f1b935093509350505b9450945094915050565b828054828255905f5260205f209081019282156148d9579160200282015b828111156148d8578251825f6101000a81548173ffffffffffffffffffffffffffffffffffffffff021916908373ffffffffffffffffffffffffffffffffffffffff16021790555091602001919060010190614881565b5b5090506148e69190614910565b5090565b60405180608001604052805f81526020015f81526020015f81526020015f151581525090565b5b80821115614927575f815f905550600101614911565b5090565b5f80fd5b5f80fd5b5f73ffffffffffffffffffffffffffffffffffffffff82169050919050565b5f61495c82614933565b9050919050565b61496c81614952565b8114614976575f80fd5b50565b5f8135905061498781614963565b92915050565b5f602082840312156149a2576149a161492b565b5b5f6149af84828501614979565b91505092915050565b5f819050919050565b6149ca816149b8565b82525050565b5f6020820190506149e35f8301846149c1565b92915050565b5f81519050919050565b5f82825260208201905092915050565b5f5b83811015614a20578082015181840152602081019050614a05565b5f8484015250505050565b5f601f19601f8301169050919050565b5f614a45826149e9565b614a4f81856149f3565b9350614a5f818560208601614a03565b614a6881614a2b565b840191505092915050565b5f6020820190508181035f830152614a8b8184614a3b565b905092915050565b614a9c816149b8565b8114614aa6575f80fd5b50565b5f81359050614ab781614a93565b92915050565b5f8060408385031215614ad357614ad261492b565b5b5f614ae085828601614979565b9250506020614af185828601614aa9565b9150509250929050565b5f8115159050919050565b614b0f81614afb565b82525050565b5f608082019050614b285f8301876149c1565b614b3560208301866149c1565b614b4260408301856149c1565b614b4f6060830184614b06565b95945050505050565b5f602082019050614b6b5f830184614b06565b92915050565b5f819050919050565b614b8381614b71565b8114614b8d575f80fd5b50565b5f81359050614b9e81614b7a565b92915050565b5f60208284031215614bb957614bb861492b565b5b5f614bc684828501614b90565b91505092915050565b614bd881614b71565b82525050565b614be781614952565b82525050565b5f60c082019050614c005f830189614bcf565b614c0d6020830188614bde565b614c1a60408301876149c1565b614c2760608301866149c1565b614c346080830185614b06565b614c4160a0830184614bcf565b979650505050505050565b5f602082019050614c5f5f830184614bde565b92915050565b5f805f60608486031215614c7c57614c7b61492b565b5b5f614c8986828701614979565b9350506020614c9a86828701614979565b9250506040614cab86828701614aa9565b9150509250925092565b5f60ff82169050919050565b614cca81614cb5565b82525050565b5f602082019050614ce35f830184614cc1565b92915050565b5f60208284031215614cfe57614cfd61492b565b5b5f614d0b84828501614aa9565b91505092915050565b5f805f8060808587031215614d2c57614d2b61492b565b5b5f614d3987828801614b90565b9450506020614d4a87828801614979565b9350506040614d5b87828801614aa9565b9250506060614d6c87828801614b90565b91505092959194509250565b5f602082019050614d8b5f830184614bcf565b92915050565b614d9a81614afb565b8114614da4575f80fd5b50565b5f81359050614db581614d91565b92915050565b5f805f60608486031215614dd257614dd161492b565b5b5f614ddf86828701614aa9565b9350506020614df086828701614aa9565b9250506040614e0186828701614da7565b9150509250925092565b5f805f60608486031215614e2257614e2161492b565b5b5f614e2f86828701614aa9565b9350506020614e4086828701614aa9565b9250506040614e5186828701614aa9565b9150509250925092565b5f80fd5b5f80fd5b5f80fd5b5f8083601f840112614e7c57614e7b614e5b565b5b8235905067ffffffffffffffff811115614e9957614e98614e5f565b5b602083019150836001820283011115614eb557614eb4614e63565b5b9250929050565b5f805f805f60608688031215614ed557614ed461492b565b5b5f614ee288828901614b90565b955050602086013567ffffffffffffffff811115614f0357614f0261492f565b5b614f0f88828901614e67565b9450945050604086013567ffffffffffffffff811115614f3257614f3161492f565b5b614f3e88828901614e67565b92509250509295509295909350565b5f8060408385031215614f6357614f6261492b565b5b5f614f7085828601614979565b9250506020614f8185828601614979565b9150509250929050565b5f60c082019050614f9e5f8301896149c1565b614fab60208301886149c1565b614fb860408301876149c1565b614fc560608301866149c1565b614fd26080830185614b06565b614fdf60a0830184614b06565b979650505050505050565b7f4e487b71000000000000000000000000000000000000000000000000000000005f52602260045260245ffd5b5f600282049050600182168061502e57607f821691505b60208210810361504157615040614fea565b5b50919050565b7f51756f72756d206e6f74206163686965766564000000000000000000000000005f82015250565b5f61507b6013836149f3565b915061508682615047565b602082019050919050565b5f6020820190508181035f8301526150a88161506f565b9050919050565b7f4e487b71000000000000000000000000000000000000000000000000000000005f52601160045260245ffd5b5f6150e6826149b8565b91506150f1836149b8565b9250828201905080821115615109576151086150af565b5b92915050565b7f546f6f206561726c7900000000000000000000000000000000000000000000005f82015250565b5f6151436009836149f3565b915061514e8261510f565b602082019050919050565b5f6020820190508181035f83015261517081615137565b9050919050565b7f537570706c7920636170207265616368656400000000000000000000000000005f82015250565b5f6151ab6012836149f3565b91506151b682615177565b602082019050919050565b5f6020820190508181035f8301526151d88161519f565b9050919050565b5f6151e9826149b8565b91506151f4836149b8565b9250828202615202816149b8565b91508282048414831517615219576152186150af565b5b5092915050565b5f61522a826149b8565b9150615235836149b8565b925082820390508181111561524d5761524c6150af565b5b92915050565b7f53756666696369656e7420737570706c792065786973747300000000000000005f82015250565b5f6152876018836149f3565b915061529282615253565b602082019050919050565b5f6020820190508181035f8301526152b48161527b565b9050919050565b7f496e73756666696369656e7420747265617375727900000000000000000000005f82015250565b5f6152ef6015836149f3565b91506152fa826152bb565b602082019050919050565b5f6020820190508181035f83015261531c816152e3565b9050919050565b5f61532d826149b8565b91507fffffffffffffffffffffffffffffffffffffffffffffffffffffffffffffffff820361535f5761535e6150af565b5b600182019050919050565b7f42656c6f77203125206d696e696d756d000000000000000000000000000000005f82015250565b5f61539e6010836149f3565b91506153a98261536a565b602082019050919050565b5f6020820190508181035f8301526153cb81615392565b9050919050565b7f4e487b71000000000000000000000000000000000000000000000000000000005f52601260045260245ffd5b5f615409826149b8565b9150615414836149b8565b925082615424576154236153d2565b5b828204905092915050565b7f496e73756666696369656e742062616c616e63650000000000000000000000005f82015250565b5f6154636014836149f3565b915061546e8261542f565b602082019050919050565b5f6020820190508181035f83015261549081615457565b9050919050565b5f819050919050565b6154b16154ac82614b71565b615497565b82525050565b5f8160601b9050919050565b5f6154cd826154b7565b9050919050565b5f6154de826154c3565b9050919050565b6154f66154f182614952565b6154d4565b82525050565b5f819050919050565b615516615511826149b8565b6154fc565b82525050565b5f61552782876154a0565b60208201915061553782866154e5565b6014820191506155478285615505565b6020820191506155578284615505565b60208201915081905095945050505050565b7f4e6f742044414f206d656d6265720000000000000000000000000000000000005f82015250565b5f61559d600e836149f3565b91506155a882615569565b602082019050919050565b5f6020820190508181035f8301526155ca81615591565b9050919050565b7f42696420746f6f20736d616c6c000000000000000000000000000000000000005f82015250565b5f615605600d836149f3565b9150615610826155d1565b602082019050919050565b5f6020820190508181035f830152615632816155f9565b9050919050565b7f4578636565647320323525206c696d69740000000000000000000000000000005f82015250565b5f61566d6011836149f3565b915061567882615639565b602082019050919050565b5f6020820190508181035f83015261569a81615661565b9050919050565b7f457863656564732044414f206c696d69740000000000000000000000000000005f82015250565b5f6156d56011836149f3565b91506156e0826156a1565b602082019050919050565b5f6020820190508181035f830152615702816156c9565b9050919050565b7f5465616d20696e616374697665000000000000000000000000000000000000005f82015250565b5f61573d600d836149f3565b915061574882615709565b602082019050919050565b5f6020820190508181035f83015261576a81615731565b9050919050565b7f4e6f74207465616d206d656d62657200000000000000000000000000000000005f82015250565b5f6157a5600f836149f3565b91506157b082615771565b602082019050919050565b5f6020820190508181035f8301526157d281615799565b9050919050565b7f416c726561647920696e207465616d00000000000000000000000000000000005f82015250565b5f61580d600f836149f3565b9150615818826157d9565b602082019050919050565b5f6020820190508181035f83015261583a81615801565b9050919050565b7f4e487b71000000000000000000000000000000000000000000000000000000005f52604160045260245ffd5b7f496e76616c696420636c61696d000000000000000000000000000000000000005f82015250565b5f6158a2600d836149f3565b91506158ad8261586e565b602082019050919050565b5f6020820190508181035f8301526158cf81615896565b9050919050565b7f416c726561647920636c61696d656400000000000000000000000000000000005f82015250565b5f61590a600f836149f3565b9150615915826158d6565b602082019050919050565b5f6020820190508181035f830152615937816158fe565b9050919050565b7f45787069726564000000000000000000000000000000000000000000000000005f82015250565b5f6159726007836149f3565b915061597d8261593e565b602082019050919050565b5f6020820190508181035f83015261599f81615966565b9050919050565b7f4e6f7420726563697069656e74000000000000000000000000000000000000005f82015250565b5f6159da600d836149f3565b91506159e5826159a6565b602082019050919050565b5f6020820190508181035f830152615a07816159ce565b9050919050565b7f496e76616c69642044414f2061646472657373000000000000000000000000005f82015250565b5f615a426013836149f3565b9150615a4d82615a0e565b602082019050919050565b5f6020820190508181035f830152615a6f81615a36565b9050919050565b7f4e487b71000000000000000000000000000000000000000000000000000000005f52603260045260245ffd5b7f416c726561647920696e697469616c697a6564000000000000000000000000005f82015250565b5f615ad76013836149f3565b9150615ae282615aa3565b602082019050919050565b5f6020820190508181035f830152615b0481615acb565b9050919050565b5f81905092915050565b828183375f83830152505050565b5f615b2e8385615b0b565b9350615b3b838584615b15565b82840190509392505050565b5f615b53828486615b23565b91508190509392505050565b5f615b6a82866154a0565b602082019150615b7b828486615b23565b9150819050949350505050565b5f615b9382846154e5565b60148201915081905092915050565b7f4e6f7420616e206163746976652044414f0000000000000000000000000000005f82015250565b5f615bd66011836149f3565b9150615be182615ba2565b602082019050919050565b5f6020820190508181035f830152615c0381615bca565b9050919050565b7f50726f706f736572206e6f7420616374697665000000000000000000000000005f82015250565b5f615c3e6013836149f3565b9150615c4982615c0a565b602082019050919050565b5f6020820190508181035f830152615c6b81615c32565b9050919050565b5f606082019050615c855f830186614bde565b615c9260208301856149c1565b615c9f60408301846149c1565b949350505050565b5f615cb1826149b8565b91505f8203615cc357615cc26150af565b5b600182039050919050565b5f615cd8826149b8565b9150615ce3836149b8565b925082615cf357615cf26153d2565b5b828206905092915050565b7f4f75747369646520736574746c656d656e742077696e646f77000000000000005f82015250565b5f615d326019836149f3565b9150615d3d82615cfe565b602082019050919050565b5f6020820190508181035f830152615d5f81615d26565b9050919050565b5f604082019050615d795f8301856149c1565b615d8660208301846149c1565b9392505050565b7f496e76616c6964207072696365000000000000000000000000000000000000005f82015250565b5f615dc1600d836149f3565b9150615dcc82615d8d565b602082019050919050565b5f6020820190508181035f830152615dee81615db5565b9050919050565b7f5072696365206368616e676520746f6f206c61726765000000000000000000005f82015250565b5f615e296016836149f3565b9150615e3482615df5565b602082019050919050565b5f6020820190508181035f830152615e5681615e1d565b9050919050565b7f4e487b71000000000000000000000000000000000000000000000000000000005f52602160045260245ffd5b7f4269642044414f206e6f7420666f756e640000000000000000000000000000005f82015250565b5f615ebe6011836149f3565b9150615ec982615e8a565b602082019050919050565b5f6020820190508181035f830152615eeb81615eb2565b9050919050565b5f608082019050615f055f830187614bcf565b615f126020830186614cc1565b615f1f6040830185614bcf565b615f2c6060830184614bcf565b9594505050505056fea26469706673582212205f5410124106603e28e504dd82d3fb0cadd2ad5a429f2300b31deb029401c3d564736f6c6343000814003350617274696369706174696f6e20496e63656e7469766520546f6b656e20417263686974656374757265",
			"opcodes": "PUSH1 0x80 PUSH1 0x40 MSTORE CALLVALUE DUP1 ISZERO PUSH3 0x10 JUMPI PUSH0 DUP1 REVERT JUMPDEST POP PUSH1 0x40 MLOAD DUP1 PUSH1 0x60 ADD PUSH1 0x40 MSTORE DUP1 PUSH1 0x2A DUP2 MSTORE PUSH1 0x20 ADD PUSH3 0x6786 PUSH1 0x2A SWAP2 CODECOPY PUSH1 0x40 MLOAD DUP1 PUSH1 0x40 ADD PUSH1 0x40 MSTORE DUP1 PUSH1 0x4 DUP2 MSTORE PUSH1 0x20 ADD PUSH32 0x5049544100000000000000000000000000000000000000000000000000000000 DUP2 MSTORE POP DUP2 PUSH1 0x3 SWAP1 DUP2 PUSH3 0x72 SWAP2 SWAP1 PUSH3 0x5FD JUMP JUMPDEST POP DUP1 PUSH1 0x4 SWAP1 DUP2 PUSH3 0x84 SWAP2 SWAP1 PUSH3 0x5FD JUMP JUMPDEST POP POP POP PUSH1 0x1 PUSH1 0x5 DUP2 SWAP1 SSTORE POP PUSH3 0xA7 ADDRESS PUSH6 0x1CB3950C7000 PUSH3 0xEB PUSH1 0x20 SHL PUSH1 0x20 SHR JUMP JUMPDEST PUSH6 0x1CB3950C7000 PUSH1 0x6 DUP2 SWAP1 SSTORE POP TIMESTAMP PUSH1 0x9 DUP2 SWAP1 SSTORE POP PUSH8 0xDE0B6B3A7640000 PUSH1 0x8 DUP2 SWAP1 SSTORE POP PUSH8 0xDE0B6B3A7640000 PUSH1 0x7 DUP2 SWAP1 SSTORE POP PUSH5 0x141DD76000 PUSH1 0x1F DUP2 SWAP1 SSTORE POP PUSH3 0x80D JUMP JUMPDEST PUSH0 PUSH20 0xFFFFFFFFFFFFFFFFFFFFFFFFFFFFFFFFFFFFFFFF AND DUP3 PUSH20 0xFFFFFFFFFFFFFFFFFFFFFFFFFFFFFFFFFFFFFFFF AND SUB PUSH3 0x15E JUMPI PUSH0 PUSH1 0x40 MLOAD PUSH32 0xEC442F0500000000000000000000000000000000000000000000000000000000 DUP2 MSTORE PUSH1 0x4 ADD PUSH3 0x155 SWAP2 SWAP1 PUSH3 0x724 JUMP JUMPDEST PUSH1 0x40 MLOAD DUP1 SWAP2 SUB SWAP1 REVERT JUMPDEST PUSH3 0x171 PUSH0 DUP4 DUP4 PUSH3 0x175 PUSH1 0x20 SHL PUSH1 0x20 SHR JUMP JUMPDEST POP POP JUMP JUMPDEST PUSH0 PUSH20 0xFFFFFFFFFFFFFFFFFFFFFFFFFFFFFFFFFFFFFFFF AND DUP4 PUSH20 0xFFFFFFFFFFFFFFFFFFFFFFFFFFFFFFFFFFFFFFFF AND SUB PUSH3 0x1C9 JUMPI DUP1 PUSH1 0x2 PUSH0 DUP3 DUP3 SLOAD PUSH3 0x1BC SWAP2 SWAP1 PUSH3 0x76C JUMP JUMPDEST SWAP3 POP POP DUP2 SWAP1 SSTORE POP PUSH3 0x29A JUMP JUMPDEST PUSH0 DUP1 PUSH0 DUP6 PUSH20 0xFFFFFFFFFFFFFFFFFFFFFFFFFFFFFFFFFFFFFFFF AND PUSH20 0xFFFFFFFFFFFFFFFFFFFFFFFFFFFFFFFFFFFFFFFF AND DUP2 MSTORE PUSH1 0x20 ADD SWAP1 DUP2 MSTORE PUSH1 0x20 ADD PUSH0 KECCAK256 SLOAD SWAP1 POP DUP2 DUP2 LT ISZERO PUSH3 0x255 JUMPI DUP4 DUP2 DUP4 PUSH1 0x40 MLOAD PUSH32 0xE450D38C00000000000000000000000000000000000000000000000000000000 DUP2 MSTORE PUSH1 0x4 ADD PUSH3 0x24C SWAP4 SWAP3 SWAP2 SWAP1 PUSH3 0x7B7 JUMP JUMPDEST PUSH1 0x40 MLOAD DUP1 SWAP2 SUB SWAP1 REVERT JUMPDEST DUP2 DUP2 SUB PUSH0 DUP1 DUP7 PUSH20 0xFFFFFFFFFFFFFFFFFFFFFFFFFFFFFFFFFFFFFFFF AND PUSH20 0xFFFFFFFFFFFFFFFFFFFFFFFFFFFFFFFFFFFFFFFF AND DUP2 MSTORE PUSH1 0x20 ADD SWAP1 DUP2 MSTORE PUSH1 0x20 ADD PUSH0 KECCAK256 DUP2 SWAP1 SSTORE POP POP JUMPDEST PUSH0 PUSH20 0xFFFFFFFFFFFFFFFFFFFFFFFFFFFFFFFFFFFFFFFF AND DUP3 PUSH20 0xFFFFFFFFFFFFFFFFFFFFFFFFFFFFFFFFFFFFFFFF AND SUB PUSH3 0x2E3 JUMPI DUP1 PUSH1 0x2 PUSH0 DUP3 DUP3 SLOAD SUB SWAP3 POP POP DUP2 SWAP1 SSTORE POP PUSH3 0x32D JUMP JUMPDEST DUP1 PUSH0 DUP1 DUP5 PUSH20 0xFFFFFFFFFFFFFFFFFFFFFFFFFFFFFFFFFFFFFFFF AND PUSH20 0xFFFFFFFFFFFFFFFFFFFFFFFFFFFFFFFFFFFFFFFF AND DUP2 MSTORE PUSH1 0x20 ADD SWAP1 DUP2 MSTORE PUSH1 0x20 ADD PUSH0 KECCAK256 PUSH0 DUP3 DUP3 SLOAD ADD SWAP3 POP POP DUP2 SWAP1 SSTORE POP JUMPDEST DUP2 PUSH20 0xFFFFFFFFFFFFFFFFFFFFFFFFFFFFFFFFFFFFFFFF AND DUP4 PUSH20 0xFFFFFFFFFFFFFFFFFFFFFFFFFFFFFFFFFFFFFFFF AND PUSH32 0xDDF252AD1BE2C89B69C2B068FC378DAA952BA7F163C4A11628F55A4DF523B3EF DUP4 PUSH1 0x40 MLOAD PUSH3 0x38C SWAP2 SWAP1 PUSH3 0x7F2 JUMP JUMPDEST PUSH1 0x40 MLOAD DUP1 SWAP2 SUB SWAP1 LOG3 POP POP POP JUMP JUMPDEST PUSH0 DUP2 MLOAD SWAP1 POP SWAP2 SWAP1 POP JUMP JUMPDEST PUSH32 0x4E487B7100000000000000000000000000000000000000000000000000000000 PUSH0 MSTORE PUSH1 0x41 PUSH1 0x4 MSTORE PUSH1 0x24 PUSH0 REVERT JUMPDEST PUSH32 0x4E487B7100000000000000000000000000000000000000000000000000000000 PUSH0 MSTORE PUSH1 0x22 PUSH1 0x4 MSTORE PUSH1 0x24 PUSH0 REVERT JUMPDEST PUSH0 PUSH1 0x2 DUP3 DIV SWAP1 POP PUSH1 0x1 DUP3 AND DUP1 PUSH3 0x415 JUMPI PUSH1 0x7F DUP3 AND SWAP2 POP JUMPDEST PUSH1 0x20 DUP3 LT DUP2 SUB PUSH3 0x42B JUMPI PUSH3 0x42A PUSH3 0x3D0 JUMP JUMPDEST JUMPDEST POP SWAP2 SWAP1 POP JUMP JUMPDEST PUSH0 DUP2 SWAP1 POP DUP2 PUSH0 MSTORE PUSH1 0x20 PUSH0 KECCAK256 SWAP1 POP SWAP2 SWAP1 POP JUMP JUMPDEST PUSH0 PUSH1 0x20 PUSH1 0x1F DUP4 ADD DIV SWAP1 POP SWAP2 SWAP1 POP JUMP JUMPDEST PUSH0 DUP3 DUP3 SHL SWAP1 POP SWAP3 SWAP2 POP POP JUMP JUMPDEST PUSH0 PUSH1 0x8 DUP4 MUL PUSH3 0x48F PUSH32 0xFFFFFFFFFFFFFFFFFFFFFFFFFFFFFFFFFFFFFFFFFFFFFFFFFFFFFFFFFFFFFFFF DUP3 PUSH3 0x452 JUMP JUMPDEST PUSH3 0x49B DUP7 DUP4 PUSH3 0x452 JUMP JUMPDEST SWAP6 POP DUP1 NOT DUP5 AND SWAP4 POP DUP1 DUP7 AND DUP5 OR SWAP3 POP POP POP SWAP4 SWAP3 POP POP POP JUMP JUMPDEST PUSH0 DUP2 SWAP1 POP SWAP2 SWAP1 POP JUMP JUMPDEST PUSH0 DUP2 SWAP1 POP SWAP2 SWAP1 POP JUMP JUMPDEST PUSH0 PUSH3 0x4E5 PUSH3 0x4DF PUSH3 0x4D9 DUP5 PUSH3 0x4B3 JUMP JUMPDEST PUSH3 0x4BC JUMP JUMPDEST PUSH3 0x4B3 JUMP JUMPDEST SWAP1 POP SWAP2 SWAP1 POP JUMP JUMPDEST PUSH0 DUP2 SWAP1 POP SWAP2 SWAP1 POP JUMP JUMPDEST PUSH3 0x500 DUP4 PUSH3 0x4C5 JUMP JUMPDEST PUSH3 0x518 PUSH3 0x50F DUP3 PUSH3 0x4EC JUMP JUMPDEST DUP5 DUP5 SLOAD PUSH3 0x45E JUMP JUMPDEST DUP3 SSTORE POP POP POP POP JUMP JUMPDEST PUSH0 SWAP1 JUMP JUMPDEST PUSH3 0x52E PUSH3 0x520 JUMP JUMPDEST PUSH3 0x53B DUP2 DUP5 DUP5 PUSH3 0x4F5 JUMP JUMPDEST POP POP POP JUMP JUMPDEST JUMPDEST DUP2 DUP2 LT ISZERO PUSH3 0x562 JUMPI PUSH3 0x556 PUSH0 DUP3 PUSH3 0x524 JUMP JUMPDEST PUSH1 0x1 DUP2 ADD SWAP1 POP PUSH3 0x541 JUMP JUMPDEST POP POP JUMP JUMPDEST PUSH1 0x1F DUP3 GT ISZERO PUSH3 0x5B1 JUMPI PUSH3 0x57B DUP2 PUSH3 0x431 JUMP JUMPDEST PUSH3 0x586 DUP5 PUSH3 0x443 JUMP JUMPDEST DUP2 ADD PUSH1 0x20 DUP6 LT ISZERO PUSH3 0x596 JUMPI DUP2 SWAP1 POP JUMPDEST PUSH3 0x5AE PUSH3 0x5A5 DUP6 PUSH3 0x443 JUMP JUMPDEST DUP4 ADD DUP3 PUSH3 0x540 JUMP JUMPDEST POP POP JUMPDEST POP POP POP JUMP JUMPDEST PUSH0 DUP3 DUP3 SHR SWAP1 POP SWAP3 SWAP2 POP POP JUMP JUMPDEST PUSH0 PUSH3 0x5D3 PUSH0 NOT DUP5 PUSH1 0x8 MUL PUSH3 0x5B6 JUMP JUMPDEST NOT DUP1 DUP4 AND SWAP2 POP POP SWAP3 SWAP2 POP POP JUMP JUMPDEST PUSH0 PUSH3 0x5ED DUP4 DUP4 PUSH3 0x5C2 JUMP JUMPDEST SWAP2 POP DUP3 PUSH1 0x2 MUL DUP3 OR SWAP1 POP SWAP3 SWAP2 POP POP JUMP JUMPDEST PUSH3 0x608 DUP3 PUSH3 0x399 JUMP JUMPDEST PUSH8 0xFFFFFFFFFFFFFFFF DUP2 GT ISZERO PUSH3 0x624 JUMPI PUSH3 0x623 PUSH3 0x3A3 JUMP JUMPDEST JUMPDEST PUSH3 0x630 DUP3 SLOAD PUSH3 0x3FD JUMP JUMPDEST PUSH3 0x63D DUP3 DUP3 DUP6 PUSH3 0x566 JUMP JUMPDEST PUSH0 PUSH1 0x20 SWAP1 POP PUSH1 0x1F DUP4 GT PUSH1 0x1 DUP2 EQ PUSH3 0x673 JUMPI PUSH0 DUP5 ISZERO PUSH3 0x65E JUMPI DUP3 DUP8 ADD MLOAD SWAP1 POP JUMPDEST PUSH3 0x66A DUP6 DUP3 PUSH3 0x5E0 JUMP JUMPDEST DUP7 SSTORE POP PUSH3 0x6D9 JUMP JUMPDEST PUSH1 0x1F NOT DUP5 AND PUSH3 0x683 DUP7 PUSH3 0x431 JUMP JUMPDEST PUSH0 JUMPDEST DUP3 DUP2 LT ISZERO PUSH3 0x6AC JUMPI DUP5 DUP10 ADD MLOAD DUP3 SSTORE PUSH1 0x1 DUP3 ADD SWAP2 POP PUSH1 0x20 DUP6 ADD SWAP5 POP PUSH1 0x20 DUP2 ADD SWAP1 POP PUSH3 0x685 JUMP JUMPDEST DUP7 DUP4 LT ISZERO PUSH3 0x6CC JUMPI DUP5 DUP10 ADD MLOAD PUSH3 0x6C8 PUSH1 0x1F DUP10 AND DUP3 PUSH3 0x5C2 JUMP JUMPDEST DUP4 SSTORE POP JUMPDEST PUSH1 0x1 PUSH1 0x2 DUP9 MUL ADD DUP9 SSTORE POP POP POP JUMPDEST POP POP POP POP POP POP JUMP JUMPDEST PUSH0 PUSH20 0xFFFFFFFFFFFFFFFFFFFFFFFFFFFFFFFFFFFFFFFF DUP3 AND SWAP1 POP SWAP2 SWAP1 POP JUMP JUMPDEST PUSH0 PUSH3 0x70C DUP3 PUSH3 0x6E1 JUMP JUMPDEST SWAP1 POP SWAP2 SWAP1 POP JUMP JUMPDEST PUSH3 0x71E DUP2 PUSH3 0x700 JUMP JUMPDEST DUP3 MSTORE POP POP JUMP JUMPDEST PUSH0 PUSH1 0x20 DUP3 ADD SWAP1 POP PUSH3 0x739 PUSH0 DUP4 ADD DUP5 PUSH3 0x713 JUMP JUMPDEST SWAP3 SWAP2 POP POP JUMP JUMPDEST PUSH32 0x4E487B7100000000000000000000000000000000000000000000000000000000 PUSH0 MSTORE PUSH1 0x11 PUSH1 0x4 MSTORE PUSH1 0x24 PUSH0 REVERT JUMPDEST PUSH0 PUSH3 0x778 DUP3 PUSH3 0x4B3 JUMP JUMPDEST SWAP2 POP PUSH3 0x785 DUP4 PUSH3 0x4B3 JUMP JUMPDEST SWAP3 POP DUP3 DUP3 ADD SWAP1 POP DUP1 DUP3 GT ISZERO PUSH3 0x7A0 JUMPI PUSH3 0x79F PUSH3 0x73F JUMP JUMPDEST JUMPDEST SWAP3 SWAP2 POP POP JUMP JUMPDEST PUSH3 0x7B1 DUP2 PUSH3 0x4B3 JUMP JUMPDEST DUP3 MSTORE POP POP JUMP JUMPDEST PUSH0 PUSH1 0x60 DUP3 ADD SWAP1 POP PUSH3 0x7CC PUSH0 DUP4 ADD DUP7 PUSH3 0x713 JUMP JUMPDEST PUSH3 0x7DB PUSH1 0x20 DUP4 ADD DUP6 PUSH3 0x7A6 JUMP JUMPDEST PUSH3 0x7EA PUSH1 0x40 DUP4 ADD DUP5 PUSH3 0x7A6 JUMP JUMPDEST SWAP5 SWAP4 POP POP POP POP JUMP JUMPDEST PUSH0 PUSH1 0x20 DUP3 ADD SWAP1 POP PUSH3 0x807 PUSH0 DUP4 ADD DUP5 PUSH3 0x7A6 JUMP JUMPDEST SWAP3 SWAP2 POP POP JUMP JUMPDEST PUSH2 0x5F6B DUP1 PUSH3 0x81B PUSH0 CODECOPY PUSH0 RETURN INVALID PUSH1 0x80 PUSH1 0x40 MSTORE CALLVALUE DUP1 ISZERO PUSH2 0xF JUMPI PUSH0 DUP1 REVERT JUMPDEST POP PUSH1 0x4 CALLDATASIZE LT PUSH2 0x30A JUMPI PUSH0 CALLDATALOAD PUSH1 0xE0 SHR DUP1 PUSH4 0x803BC87F GT PUSH2 0x19B JUMPI DUP1 PUSH4 0xAE3492C6 GT PUSH2 0xE7 JUMPI DUP1 PUSH4 0xE2A99C46 GT PUSH2 0xA0 JUMPI DUP1 PUSH4 0xF07E96B3 GT PUSH2 0x7A JUMPI DUP1 PUSH4 0xF07E96B3 EQ PUSH2 0xA19 JUMPI DUP1 PUSH4 0xF4304064 EQ PUSH2 0xA49 JUMPI DUP1 PUSH4 0xF4598CFD EQ PUSH2 0xA79 JUMPI DUP1 PUSH4 0xFCB4888E EQ PUSH2 0xA97 JUMPI PUSH2 0x30A JUMP JUMPDEST DUP1 PUSH4 0xE2A99C46 EQ PUSH2 0x9AD JUMPI DUP1 PUSH4 0xE41C8398 EQ PUSH2 0x9CB JUMPI DUP1 PUSH4 0xEF7E235B EQ PUSH2 0x9FB JUMPI PUSH2 0x30A JUMP JUMPDEST DUP1 PUSH4 0xAE3492C6 EQ PUSH2 0x8C0 JUMPI DUP1 PUSH4 0xAF8818D0 EQ PUSH2 0x8F0 JUMPI DUP1 PUSH4 0xC2784943 EQ PUSH2 0x90E JUMPI DUP1 PUSH4 0xDB403866 EQ PUSH2 0x93E JUMPI DUP1 PUSH4 0xDD62ED3E EQ PUSH2 0x948 JUMPI DUP1 PUSH4 0xDE74E57B EQ PUSH2 0x978 JUMPI PUSH2 0x30A JUMP JUMPDEST DUP1 PUSH4 0x952EFF65 GT PUSH2 0x154 JUMPI DUP1 PUSH4 0x965AFA89 GT PUSH2 0x12E JUMPI DUP1 PUSH4 0x965AFA89 EQ PUSH2 0x838 JUMPI DUP1 PUSH4 0xA3976A01 EQ PUSH2 0x854 JUMPI DUP1 PUSH4 0xA9059CBB EQ PUSH2 0x872 JUMPI DUP1 PUSH4 0xA9B07C26 EQ PUSH2 0x8A2 JUMPI PUSH2 0x30A JUMP JUMPDEST DUP1 PUSH4 0x952EFF65 EQ PUSH2 0x7BA JUMPI DUP1 PUSH4 0x95D89B41 EQ PUSH2 0x7EA JUMPI DUP1 PUSH4 0x95DC7C7F EQ PUSH2 0x808 JUMPI PUSH2 0x30A JUMP JUMPDEST DUP1 PUSH4 0x803BC87F EQ PUSH2 0x70A JUMPI DUP1 PUSH4 0x8201DB18 EQ PUSH2 0x728 JUMPI DUP1 PUSH4 0x8A59D847 EQ PUSH2 0x758 JUMPI DUP1 PUSH4 0x8CAA0083 EQ PUSH2 0x776 JUMPI DUP1 PUSH4 0x8D5F3C11 EQ PUSH2 0x794 JUMPI DUP1 PUSH4 0x91CD695D EQ PUSH2 0x7B0 JUMPI PUSH2 0x30A JUMP JUMPDEST DUP1 PUSH4 0x313DAB20 GT PUSH2 0x25A JUMPI DUP1 PUSH4 0x49DE2B1A GT PUSH2 0x213 JUMPI DUP1 PUSH4 0x5DA544AD GT PUSH2 0x1ED JUMPI DUP1 PUSH4 0x5DA544AD EQ PUSH2 0x670 JUMPI DUP1 PUSH4 0x601108FC EQ PUSH2 0x68C JUMPI DUP1 PUSH4 0x70A08231 EQ PUSH2 0x6BC JUMPI DUP1 PUSH4 0x728E9ECC EQ PUSH2 0x6EC JUMPI PUSH2 0x30A JUMP JUMPDEST DUP1 PUSH4 0x49DE2B1A EQ PUSH2 0x5EF JUMPI DUP1 PUSH4 0x515A50D3 EQ PUSH2 0x61F JUMPI DUP1 PUSH4 0x520C6838 EQ PUSH2 0x652 JUMPI PUSH2 0x30A JUMP JUMPDEST DUP1 PUSH4 0x313DAB20 EQ PUSH2 0x4DE JUMPI DUP1 PUSH4 0x31C536F6 EQ PUSH2 0x4FC JUMPI DUP1 PUSH4 0x3ED2B77A EQ PUSH2 0x52C JUMPI DUP1 PUSH4 0x4202D214 EQ PUSH2 0x55F JUMPI DUP1 PUSH4 0x44B50BFC EQ PUSH2 0x58F JUMPI DUP1 PUSH4 0x48A37817 EQ PUSH2 0x5BF JUMPI PUSH2 0x30A JUMP JUMPDEST DUP1 PUSH4 0x166BAB95 GT PUSH2 0x2C7 JUMPI DUP1 PUSH4 0x2131C68C GT PUSH2 0x2A1 JUMPI DUP1 PUSH4 0x2131C68C EQ PUSH2 0x456 JUMPI DUP1 PUSH4 0x23B872DD EQ PUSH2 0x474 JUMPI DUP1 PUSH4 0x2F7C88F5 EQ PUSH2 0x4A4 JUMPI DUP1 PUSH4 0x313CE567 EQ PUSH2 0x4C0 JUMPI PUSH2 0x30A JUMP JUMPDEST DUP1 PUSH4 0x166BAB95 EQ PUSH2 0x3FE JUMPI DUP1 PUSH4 0x18160DDD EQ PUSH2 0x408 JUMPI DUP1 PUSH4 0x1C67211D EQ PUSH2 0x426 JUMPI PUSH2 0x30A JUMP JUMPDEST DUP1 PUSH4 0x6F4FB0D EQ PUSH2 0x30E JUMPI DUP1 PUSH4 0x6FDDE03 EQ PUSH2 0x33E JUMPI DUP1 PUSH4 0x75F150C EQ PUSH2 0x35C JUMPI DUP1 PUSH4 0x95EA7B3 EQ PUSH2 0x38F JUMPI DUP1 PUSH4 0xD893B1A EQ PUSH2 0x3BF JUMPI DUP1 PUSH4 0x10EE294E EQ PUSH2 0x3F4 JUMPI JUMPDEST PUSH0 DUP1 REVERT JUMPDEST PUSH2 0x328 PUSH1 0x4 DUP1 CALLDATASIZE SUB DUP2 ADD SWAP1 PUSH2 0x323 SWAP2 SWAP1 PUSH2 0x498D JUMP JUMPDEST PUSH2 0xAB3 JUMP JUMPDEST PUSH1 0x40 MLOAD PUSH2 0x335 SWAP2 SWAP1 PUSH2 0x49D0 JUMP JUMPDEST PUSH1 0x40 MLOAD DUP1 SWAP2 SUB SWAP1 RETURN JUMPDEST PUSH2 0x346 PUSH2 0xAC8 JUMP JUMPDEST PUSH1 0x40 MLOAD PUSH2 0x353 SWAP2 SWAP1 PUSH2 0x4A73 JUMP JUMPDEST PUSH1 0x40 MLOAD DUP1 SWAP2 SUB SWAP1 RETURN JUMPDEST PUSH2 0x376 PUSH1 0x4 DUP1 CALLDATASIZE SUB DUP2 ADD SWAP1 PUSH2 0x371 SWAP2 SWAP1 PUSH2 0x4ABD JUMP JUMPDEST PUSH2 0xB58 JUMP JUMPDEST PUSH1 0x40 MLOAD PUSH2 0x386 SWAP5 SWAP4 SWAP3 SWAP2 SWAP1 PUSH2 0x4B15 JUMP JUMPDEST PUSH1 0x40 MLOAD DUP1 SWAP2 SUB SWAP1 RETURN JUMPDEST PUSH2 0x3A9 PUSH1 0x4 DUP1 CALLDATASIZE SUB DUP2 ADD SWAP1 PUSH2 0x3A4 SWAP2 SWAP1 PUSH2 0x4ABD JUMP JUMPDEST PUSH2 0xBAA JUMP JUMPDEST PUSH1 0x40 MLOAD PUSH2 0x3B6 SWAP2 SWAP1 PUSH2 0x4B58 JUMP JUMPDEST PUSH1 0x40 MLOAD DUP1 SWAP2 SUB SWAP1 RETURN JUMPDEST PUSH2 0x3D9 PUSH1 0x4 DUP1 CALLDATASIZE SUB DUP2 ADD SWAP1 PUSH2 0x3D4 SWAP2 SWAP1 PUSH2 0x4BA4 JUMP JUMPDEST PUSH2 0xBCC JUMP JUMPDEST PUSH1 0x40 MLOAD PUSH2 0x3EB SWAP7 SWAP6 SWAP5 SWAP4 SWAP3 SWAP2 SWAP1 PUSH2 0x4BED JUMP JUMPDEST PUSH1 0x40 MLOAD DUP1 SWAP2 SUB SWAP1 RETURN JUMPDEST PUSH2 0x3FC PUSH2 0xC2F JUMP JUMPDEST STOP JUMPDEST PUSH2 0x406 PUSH2 0xDA8 JUMP JUMPDEST STOP JUMPDEST PUSH2 0x410 PUSH2 0xEF9 JUMP JUMPDEST PUSH1 0x40 MLOAD PUSH2 0x41D SWAP2 SWAP1 PUSH2 0x49D0 JUMP JUMPDEST PUSH1 0x40 MLOAD DUP1 SWAP2 SUB SWAP1 RETURN JUMPDEST PUSH2 0x440 PUSH1 0x4 DUP1 CALLDATASIZE SUB DUP2 ADD SWAP1 PUSH2 0x43B SWAP2 SWAP1 PUSH2 0x498D JUMP JUMPDEST PUSH2 0xF02 JUMP JUMPDEST PUSH1 0x40 MLOAD PUSH2 0x44D SWAP2 SWAP1 PUSH2 0x4B58 JUMP JUMPDEST PUSH1 0x40 MLOAD DUP1 SWAP2 SUB SWAP1 RETURN JUMPDEST PUSH2 0x45E PUSH2 0xF1F JUMP JUMPDEST PUSH1 0x40 MLOAD PUSH2 0x46B SWAP2 SWAP1 PUSH2 0x4C4C JUMP JUMPDEST PUSH1 0x40 MLOAD DUP1 SWAP2 SUB SWAP1 RETURN JUMPDEST PUSH2 0x48E PUSH1 0x4 DUP1 CALLDATASIZE SUB DUP2 ADD SWAP1 PUSH2 0x489 SWAP2 SWAP1 PUSH2 0x4C65 JUMP JUMPDEST PUSH2 0xF44 JUMP JUMPDEST PUSH1 0x40 MLOAD PUSH2 0x49B SWAP2 SWAP1 PUSH2 0x4B58 JUMP JUMPDEST PUSH1 0x40 MLOAD DUP1 SWAP2 SUB SWAP1 RETURN JUMPDEST PUSH2 0x4BE PUSH1 0x4 DUP1 CALLDATASIZE SUB DUP2 ADD SWAP1 PUSH2 0x4B9 SWAP2 SWAP1 PUSH2 0x498D JUMP JUMPDEST PUSH2 0xF72 JUMP JUMPDEST STOP JUMPDEST PUSH2 0x4C8 PUSH2 0x11A1 JUMP JUMPDEST PUSH1 0x40 MLOAD PUSH2 0x4D5 SWAP2 SWAP1 PUSH2 0x4CD0 JUMP JUMPDEST PUSH1 0x40 MLOAD DUP1 SWAP2 SUB SWAP1 RETURN JUMPDEST PUSH2 0x4E6 PUSH2 0x11A9 JUMP JUMPDEST PUSH1 0x40 MLOAD PUSH2 0x4F3 SWAP2 SWAP1 PUSH2 0x49D0 JUMP JUMPDEST PUSH1 0x40 MLOAD DUP1 SWAP2 SUB SWAP1 RETURN JUMPDEST PUSH2 0x516 PUSH1 0x4 DUP1 CALLDATASIZE SUB DUP2 ADD SWAP1 PUSH2 0x511 SWAP2 SWAP1 PUSH2 0x498D JUMP JUMPDEST PUSH2 0x11AF JUMP JUMPDEST PUSH1 0x40 MLOAD PUSH2 0x523 SWAP2 SWAP1 PUSH2 0x49D0 JUMP JUMPDEST PUSH1 0x40 MLOAD DUP1 SWAP2 SUB SWAP1 RETURN JUMPDEST PUSH2 0x546 PUSH1 0x4 DUP1 CALLDATASIZE SUB DUP2 ADD SWAP1 PUSH2 0x541 SWAP2 SWAP1 PUSH2 0x4CE9 JUMP JUMPDEST PUSH2 0x11C4 JUMP JUMPDEST PUSH1 0x40 MLOAD PUSH2 0x556 SWAP5 SWAP4 SWAP3 SWAP2 SWAP1 PUSH2 0x4B15 JUMP JUMPDEST PUSH1 0x40 MLOAD DUP1 SWAP2 SUB SWAP1 RETURN JUMPDEST PUSH2 0x579 PUSH1 0x4 DUP1 CALLDATASIZE SUB DUP2 ADD SWAP1 PUSH2 0x574 SWAP2 SWAP1 PUSH2 0x498D JUMP JUMPDEST PUSH2 0x11FC JUMP JUMPDEST PUSH1 0x40 MLOAD PUSH2 0x586 SWAP2 SWAP1 PUSH2 0x4B58 JUMP JUMPDEST PUSH1 0x40 MLOAD DUP1 SWAP2 SUB SWAP1 RETURN JUMPDEST PUSH2 0x5A9 PUSH1 0x4 DUP1 CALLDATASIZE SUB DUP2 ADD SWAP1 PUSH2 0x5A4 SWAP2 SWAP1 PUSH2 0x498D JUMP JUMPDEST PUSH2 0x1219 JUMP JUMPDEST PUSH1 0x40 MLOAD PUSH2 0x5B6 SWAP2 SWAP1 PUSH2 0x49D0 JUMP JUMPDEST PUSH1 0x40 MLOAD DUP1 SWAP2 SUB SWAP1 RETURN JUMPDEST PUSH2 0x5D9 PUSH1 0x4 DUP1 CALLDATASIZE SUB DUP2 ADD SWAP1 PUSH2 0x5D4 SWAP2 SWAP1 PUSH2 0x498D JUMP JUMPDEST PUSH2 0x122E JUMP JUMPDEST PUSH1 0x40 MLOAD PUSH2 0x5E6 SWAP2 SWAP1 PUSH2 0x49D0 JUMP JUMPDEST PUSH1 0x40 MLOAD DUP1 SWAP2 SUB SWAP1 RETURN JUMPDEST PUSH2 0x609 PUSH1 0x4 DUP1 CALLDATASIZE SUB DUP2 ADD SWAP1 PUSH2 0x604 SWAP2 SWAP1 PUSH2 0x4D14 JUMP JUMPDEST PUSH2 0x12D6 JUMP JUMPDEST PUSH1 0x40 MLOAD PUSH2 0x616 SWAP2 SWAP1 PUSH2 0x4D78 JUMP JUMPDEST PUSH1 0x40 MLOAD DUP1 SWAP2 SUB SWAP1 RETURN JUMPDEST PUSH2 0x639 PUSH1 0x4 DUP1 CALLDATASIZE SUB DUP2 ADD SWAP1 PUSH2 0x634 SWAP2 SWAP1 PUSH2 0x4ABD JUMP JUMPDEST PUSH2 0x144D JUMP JUMPDEST PUSH1 0x40 MLOAD PUSH2 0x649 SWAP5 SWAP4 SWAP3 SWAP2 SWAP1 PUSH2 0x4B15 JUMP JUMPDEST PUSH1 0x40 MLOAD DUP1 SWAP2 SUB SWAP1 RETURN JUMPDEST PUSH2 0x65A PUSH2 0x149F JUMP JUMPDEST PUSH1 0x40 MLOAD PUSH2 0x667 SWAP2 SWAP1 PUSH2 0x49D0 JUMP JUMPDEST PUSH1 0x40 MLOAD DUP1 SWAP2 SUB SWAP1 RETURN JUMPDEST PUSH2 0x68A PUSH1 0x4 DUP1 CALLDATASIZE SUB DUP2 ADD SWAP1 PUSH2 0x685 SWAP2 SWAP1 PUSH2 0x4DBB JUMP JUMPDEST PUSH2 0x14A5 JUMP JUMPDEST STOP JUMPDEST PUSH2 0x6A6 PUSH1 0x4 DUP1 CALLDATASIZE SUB DUP2 ADD SWAP1 PUSH2 0x6A1 SWAP2 SWAP1 PUSH2 0x4E0B JUMP JUMPDEST PUSH2 0x184B JUMP JUMPDEST PUSH1 0x40 MLOAD PUSH2 0x6B3 SWAP2 SWAP1 PUSH2 0x49D0 JUMP JUMPDEST PUSH1 0x40 MLOAD DUP1 SWAP2 SUB SWAP1 RETURN JUMPDEST PUSH2 0x6D6 PUSH1 0x4 DUP1 CALLDATASIZE SUB DUP2 ADD SWAP1 PUSH2 0x6D1 SWAP2 SWAP1 PUSH2 0x498D JUMP JUMPDEST PUSH2 0x19FD JUMP JUMPDEST PUSH1 0x40 MLOAD PUSH2 0x6E3 SWAP2 SWAP1 PUSH2 0x49D0 JUMP JUMPDEST PUSH1 0x40 MLOAD DUP1 SWAP2 SUB SWAP1 RETURN JUMPDEST PUSH2 0x6F4 PUSH2 0x1A42 JUMP JUMPDEST PUSH1 0x40 MLOAD PUSH2 0x701 SWAP2 SWAP1 PUSH2 0x49D0 JUMP JUMPDEST PUSH1 0x40 MLOAD DUP1 SWAP2 SUB SWAP1 RETURN JUMPDEST PUSH2 0x712 PUSH2 0x1A48 JUMP JUMPDEST PUSH1 0x40 MLOAD PUSH2 0x71F SWAP2 SWAP1 PUSH2 0x49D0 JUMP JUMPDEST PUSH1 0x40 MLOAD DUP1 SWAP2 SUB SWAP1 RETURN JUMPDEST PUSH2 0x742 PUSH1 0x4 DUP1 CALLDATASIZE SUB DUP2 ADD SWAP1 PUSH2 0x73D SWAP2 SWAP1 PUSH2 0x498D JUMP JUMPDEST PUSH2 0x1A4E JUMP JUMPDEST PUSH1 0x40 MLOAD PUSH2 0x74F SWAP2 SWAP1 PUSH2 0x49D0 JUMP JUMPDEST PUSH1 0x40 MLOAD DUP1 SWAP2 SUB SWAP1 RETURN JUMPDEST PUSH2 0x760 PUSH2 0x1A63 JUMP JUMPDEST PUSH1 0x40 MLOAD PUSH2 0x76D SWAP2 SWAP1 PUSH2 0x49D0 JUMP JUMPDEST PUSH1 0x40 MLOAD DUP1 SWAP2 SUB SWAP1 RETURN JUMPDEST PUSH2 0x77E PUSH2 0x1C9C JUMP JUMPDEST PUSH1 0x40 MLOAD PUSH2 0x78B SWAP2 SWAP1 PUSH2 0x49D0 JUMP JUMPDEST PUSH1 0x40 MLOAD DUP1 SWAP2 SUB SWAP1 RETURN JUMPDEST PUSH2 0x7AE PUSH1 0x4 DUP1 CALLDATASIZE SUB DUP2 ADD SWAP1 PUSH2 0x7A9 SWAP2 SWAP1 PUSH2 0x4EBC JUMP JUMPDEST PUSH2 0x1CA2 JUMP JUMPDEST STOP JUMPDEST PUSH2 0x7B8 PUSH2 0x1E8F JUMP JUMPDEST STOP JUMPDEST PUSH2 0x7D4 PUSH1 0x4 DUP1 CALLDATASIZE SUB DUP2 ADD SWAP1 PUSH2 0x7CF SWAP2 SWAP1 PUSH2 0x4CE9 JUMP JUMPDEST PUSH2 0x20E2 JUMP JUMPDEST PUSH1 0x40 MLOAD PUSH2 0x7E1 SWAP2 SWAP1 PUSH2 0x4C4C JUMP JUMPDEST PUSH1 0x40 MLOAD DUP1 SWAP2 SUB SWAP1 RETURN JUMPDEST PUSH2 0x7F2 PUSH2 0x211D JUMP JUMPDEST PUSH1 0x40 MLOAD PUSH2 0x7FF SWAP2 SWAP1 PUSH2 0x4A73 JUMP JUMPDEST PUSH1 0x40 MLOAD DUP1 SWAP2 SUB SWAP1 RETURN JUMPDEST PUSH2 0x822 PUSH1 0x4 DUP1 CALLDATASIZE SUB DUP2 ADD SWAP1 PUSH2 0x81D SWAP2 SWAP1 PUSH2 0x498D JUMP JUMPDEST PUSH2 0x21AD JUMP JUMPDEST PUSH1 0x40 MLOAD PUSH2 0x82F SWAP2 SWAP1 PUSH2 0x49D0 JUMP JUMPDEST PUSH1 0x40 MLOAD DUP1 SWAP2 SUB SWAP1 RETURN JUMPDEST PUSH2 0x852 PUSH1 0x4 DUP1 CALLDATASIZE SUB DUP2 ADD SWAP1 PUSH2 0x84D SWAP2 SWAP1 PUSH2 0x498D JUMP JUMPDEST PUSH2 0x21C2 JUMP JUMPDEST STOP JUMPDEST PUSH2 0x85C PUSH2 0x2273 JUMP JUMPDEST PUSH1 0x40 MLOAD PUSH2 0x869 SWAP2 SWAP1 PUSH2 0x49D0 JUMP JUMPDEST PUSH1 0x40 MLOAD DUP1 SWAP2 SUB SWAP1 RETURN JUMPDEST PUSH2 0x88C PUSH1 0x4 DUP1 CALLDATASIZE SUB DUP2 ADD SWAP1 PUSH2 0x887 SWAP2 SWAP1 PUSH2 0x4ABD JUMP JUMPDEST PUSH2 0x227D JUMP JUMPDEST PUSH1 0x40 MLOAD PUSH2 0x899 SWAP2 SWAP1 PUSH2 0x4B58 JUMP JUMPDEST PUSH1 0x40 MLOAD DUP1 SWAP2 SUB SWAP1 RETURN JUMPDEST PUSH2 0x8AA PUSH2 0x229F JUMP JUMPDEST PUSH1 0x40 MLOAD PUSH2 0x8B7 SWAP2 SWAP1 PUSH2 0x49D0 JUMP JUMPDEST PUSH1 0x40 MLOAD DUP1 SWAP2 SUB SWAP1 RETURN JUMPDEST PUSH2 0x8DA PUSH1 0x4 DUP1 CALLDATASIZE SUB DUP2 ADD SWAP1 PUSH2 0x8D5 SWAP2 SWAP1 PUSH2 0x4CE9 JUMP JUMPDEST PUSH2 0x22A5 JUMP JUMPDEST PUSH1 0x40 MLOAD PUSH2 0x8E7 SWAP2 SWAP1 PUSH2 0x4C4C JUMP JUMPDEST PUSH1 0x40 MLOAD DUP1 SWAP2 SUB SWAP1 RETURN JUMPDEST PUSH2 0x8F8 PUSH2 0x22D5 JUMP JUMPDEST PUSH1 0x40 MLOAD PUSH2 0x905 SWAP2 SWAP1 PUSH2 0x49D0 JUMP JUMPDEST PUSH1 0x40 MLOAD DUP1 SWAP2 SUB SWAP1 RETURN JUMPDEST PUSH2 0x928 PUSH1 0x4 DUP1 CALLDATASIZE SUB DUP2 ADD SWAP1 PUSH2 0x923 SWAP2 SWAP1 PUSH2 0x498D JUMP JUMPDEST PUSH2 0x22DE JUMP JUMPDEST PUSH1 0x40 MLOAD PUSH2 0x935 SWAP2 SWAP1 PUSH2 0x49D0 JUMP JUMPDEST PUSH1 0x40 MLOAD DUP1 SWAP2 SUB SWAP1 RETURN JUMPDEST PUSH2 0x946 PUSH2 0x23B2 JUMP JUMPDEST STOP JUMPDEST PUSH2 0x962 PUSH1 0x4 DUP1 CALLDATASIZE SUB DUP2 ADD SWAP1 PUSH2 0x95D SWAP2 SWAP1 PUSH2 0x4F4D JUMP JUMPDEST PUSH2 0x2672 JUMP JUMPDEST PUSH1 0x40 MLOAD PUSH2 0x96F SWAP2 SWAP1 PUSH2 0x49D0 JUMP JUMPDEST PUSH1 0x40 MLOAD DUP1 SWAP2 SUB SWAP1 RETURN JUMPDEST PUSH2 0x992 PUSH1 0x4 DUP1 CALLDATASIZE SUB DUP2 ADD SWAP1 PUSH2 0x98D SWAP2 SWAP1 PUSH2 0x4CE9 JUMP JUMPDEST PUSH2 0x26F4 JUMP JUMPDEST PUSH1 0x40 MLOAD PUSH2 0x9A4 SWAP7 SWAP6 SWAP5 SWAP4 SWAP3 SWAP2 SWAP1 PUSH2 0x4F8B JUMP JUMPDEST PUSH1 0x40 MLOAD DUP1 SWAP2 SUB SWAP1 RETURN JUMPDEST PUSH2 0x9B5 PUSH2 0x2745 JUMP JUMPDEST PUSH1 0x40 MLOAD PUSH2 0x9C2 SWAP2 SWAP1 PUSH2 0x49D0 JUMP JUMPDEST PUSH1 0x40 MLOAD DUP1 SWAP2 SUB SWAP1 RETURN JUMPDEST PUSH2 0x9E5 PUSH1 0x4 DUP1 CALLDATASIZE SUB DUP2 ADD SWAP1 PUSH2 0x9E0 SWAP2 SWAP1 PUSH2 0x4EBC JUMP JUMPDEST PUSH2 0x274B JUMP JUMPDEST PUSH1 0x40 MLOAD PUSH2 0x9F2 SWAP2 SWAP1 PUSH2 0x4B58 JUMP JUMPDEST PUSH1 0x40 MLOAD DUP1 SWAP2 SUB SWAP1 RETURN JUMPDEST PUSH2 0xA03 PUSH2 0x285C JUMP JUMPDEST PUSH1 0x40 MLOAD PUSH2 0xA10 SWAP2 SWAP1 PUSH2 0x49D0 JUMP JUMPDEST PUSH1 0x40 MLOAD DUP1 SWAP2 SUB SWAP1 RETURN JUMPDEST PUSH2 0xA33 PUSH1 0x4 DUP1 CALLDATASIZE SUB DUP2 ADD SWAP1 PUSH2 0xA2E SWAP2 SWAP1 PUSH2 0x498D JUMP JUMPDEST PUSH2 0x2862 JUMP JUMPDEST PUSH1 0x40 MLOAD PUSH2 0xA40 SWAP2 SWAP1 PUSH2 0x49D0 JUMP JUMPDEST PUSH1 0x40 MLOAD DUP1 SWAP2 SUB SWAP1 RETURN JUMPDEST PUSH2 0xA63 PUSH1 0x4 DUP1 CALLDATASIZE SUB DUP2 ADD SWAP1 PUSH2 0xA5E SWAP2 SWAP1 PUSH2 0x498D JUMP JUMPDEST PUSH2 0x2877 JUMP JUMPDEST PUSH1 0x40 MLOAD PUSH2 0xA70 SWAP2 SWAP1 PUSH2 0x49D0 JUMP JUMPDEST PUSH1 0x40 MLOAD DUP1 SWAP2 SUB SWAP1 RETURN JUMPDEST PUSH2 0xA81 PUSH2 0x288C JUMP JUMPDEST PUSH1 0x40 MLOAD PUSH2 0xA8E SWAP2 SWAP1 PUSH2 0x49D0 JUMP JUMPDEST PUSH1 0x40 MLOAD DUP1 SWAP2 SUB SWAP1 RETURN JUMPDEST PUSH2 0xAB1 PUSH1 0x4 DUP1 CALLDATASIZE SUB DUP2 ADD SWAP1 PUSH2 0xAAC SWAP2 SWAP1 PUSH2 0x498D JUMP JUMPDEST PUSH2 0x2892 JUMP JUMPDEST STOP JUMPDEST PUSH1 0x1C PUSH1 0x20 MSTORE DUP1 PUSH0 MSTORE PUSH1 0x40 PUSH0 KECCAK256 PUSH0 SWAP2 POP SWAP1 POP SLOAD DUP2 JUMP JUMPDEST PUSH1 0x60 PUSH1 0x3 DUP1 SLOAD PUSH2 0xAD7 SWAP1 PUSH2 0x5017 JUMP JUMPDEST DUP1 PUSH1 0x1F ADD PUSH1 0x20 DUP1 SWAP2 DIV MUL PUSH1 0x20 ADD PUSH1 0x40 MLOAD SWAP1 DUP2 ADD PUSH1 0x40 MSTORE DUP1 SWAP3 SWAP2 SWAP1 DUP2 DUP2 MSTORE PUSH1 0x20 ADD DUP3 DUP1 SLOAD PUSH2 0xB03 SWAP1 PUSH2 0x5017 JUMP JUMPDEST DUP1 ISZERO PUSH2 0xB4E JUMPI DUP1 PUSH1 0x1F LT PUSH2 0xB25 JUMPI PUSH2 0x100 DUP1 DUP4 SLOAD DIV MUL DUP4 MSTORE SWAP2 PUSH1 0x20 ADD SWAP2 PUSH2 0xB4E JUMP JUMPDEST DUP3 ADD SWAP2 SWAP1 PUSH0 MSTORE PUSH1 0x20 PUSH0 KECCAK256 SWAP1 JUMPDEST DUP2 SLOAD DUP2 MSTORE SWAP1 PUSH1 0x1 ADD SWAP1 PUSH1 0x20 ADD DUP1 DUP4 GT PUSH2 0xB31 JUMPI DUP3 SWAP1 SUB PUSH1 0x1F AND DUP3 ADD SWAP2 JUMPDEST POP POP POP POP POP SWAP1 POP SWAP1 JUMP JUMPDEST PUSH1 0xC PUSH1 0x20 MSTORE DUP2 PUSH0 MSTORE PUSH1 0x40 PUSH0 KECCAK256 DUP2 DUP2 SLOAD DUP2 LT PUSH2 0xB71 JUMPI PUSH0 DUP1 REVERT JUMPDEST SWAP1 PUSH0 MSTORE PUSH1 0x20 PUSH0 KECCAK256 SWAP1 PUSH1 0x4 MUL ADD PUSH0 SWAP2 POP SWAP2 POP POP DUP1 PUSH0 ADD SLOAD SWAP1 DUP1 PUSH1 0x1 ADD SLOAD SWAP1 DUP1 PUSH1 0x2 ADD SLOAD SWAP1 DUP1 PUSH1 0x3 ADD PUSH0 SWAP1 SLOAD SWAP1 PUSH2 0x100 EXP SWAP1 DIV PUSH1 0xFF AND SWAP1 POP DUP5 JUMP JUMPDEST PUSH0 DUP1 PUSH2 0xBB4 PUSH2 0x2B20 JUMP JUMPDEST SWAP1 POP PUSH2 0xBC1 DUP2 DUP6 DUP6 PUSH2 0x2B27 JUMP JUMPDEST PUSH1 0x1 SWAP2 POP POP SWAP3 SWAP2 POP POP JUMP JUMPDEST PUSH1 0x19 PUSH1 0x20 MSTORE DUP1 PUSH0 MSTORE PUSH1 0x40 PUSH0 KECCAK256 PUSH0 SWAP2 POP SWAP1 POP DUP1 PUSH0 ADD SLOAD SWAP1 DUP1 PUSH1 0x1 ADD PUSH0 SWAP1 SLOAD SWAP1 PUSH2 0x100 EXP SWAP1 DIV PUSH20 0xFFFFFFFFFFFFFFFFFFFFFFFFFFFFFFFFFFFFFFFF AND SWAP1 DUP1 PUSH1 0x2 ADD SLOAD SWAP1 DUP1 PUSH1 0x3 ADD SLOAD SWAP1 DUP1 PUSH1 0x4 ADD PUSH0 SWAP1 SLOAD SWAP1 PUSH2 0x100 EXP SWAP1 DIV PUSH1 0xFF AND SWAP1 DUP1 PUSH1 0x5 ADD SLOAD SWAP1 POP DUP7 JUMP JUMPDEST PUSH2 0xC38 CALLER PUSH2 0x2B39 JUMP JUMPDEST PUSH2 0xC77 JUMPI PUSH1 0x40 MLOAD PUSH32 0x8C379A000000000000000000000000000000000000000000000000000000000 DUP2 MSTORE PUSH1 0x4 ADD PUSH2 0xC6E SWAP1 PUSH2 0x5091 JUMP JUMPDEST PUSH1 0x40 MLOAD DUP1 SWAP2 SUB SWAP1 REVERT JUMPDEST PUSH4 0x1E187F9 PUSH1 0x9 SLOAD PUSH2 0xC89 SWAP2 SWAP1 PUSH2 0x50DC JUMP JUMPDEST TIMESTAMP LT ISZERO PUSH2 0xCCB JUMPI PUSH1 0x40 MLOAD PUSH32 0x8C379A000000000000000000000000000000000000000000000000000000000 DUP2 MSTORE PUSH1 0x4 ADD PUSH2 0xCC2 SWAP1 PUSH2 0x5159 JUMP JUMPDEST PUSH1 0x40 MLOAD DUP1 SWAP2 SUB SWAP1 REVERT JUMPDEST PUSH7 0x38D7EA4C68000 PUSH6 0x1CB3950C7000 PUSH2 0xCE2 PUSH2 0xEF9 JUMP JUMPDEST PUSH2 0xCEC SWAP2 SWAP1 PUSH2 0x50DC JUMP JUMPDEST GT ISZERO PUSH2 0xD2D JUMPI PUSH1 0x40 MLOAD PUSH32 0x8C379A000000000000000000000000000000000000000000000000000000000 DUP2 MSTORE PUSH1 0x4 ADD PUSH2 0xD24 SWAP1 PUSH2 0x51C1 JUMP JUMPDEST PUSH1 0x40 MLOAD DUP1 SWAP2 SUB SWAP1 REVERT JUMPDEST PUSH0 DUP1 PUSH1 0x1D SLOAD EQ PUSH2 0xD5B JUMPI PUSH1 0x3 PUSH1 0x1D SLOAD PUSH5 0x1B984112F PUSH2 0xD4C SWAP2 SWAP1 PUSH2 0x51DF JUMP JUMPDEST PUSH2 0xD56 SWAP2 SWAP1 PUSH2 0x51DF JUMP JUMPDEST PUSH2 0xD63 JUMP JUMPDEST PUSH6 0x1CB3950C7000 JUMPDEST SWAP1 POP DUP1 PUSH1 0x6 SLOAD LT ISZERO PUSH2 0xDA5 JUMPI PUSH2 0xD7F ADDRESS PUSH6 0x1CB3950C7000 PUSH2 0x2C92 JUMP JUMPDEST PUSH6 0x1CB3950C7000 PUSH1 0x6 PUSH0 DUP3 DUP3 SLOAD PUSH2 0xD96 SWAP2 SWAP1 PUSH2 0x50DC JUMP JUMPDEST SWAP3 POP POP DUP2 SWAP1 SSTORE POP TIMESTAMP PUSH1 0x9 DUP2 SWAP1 SSTORE POP JUMPDEST POP JUMP JUMPDEST PUSH2 0xDB1 CALLER PUSH2 0x2B39 JUMP JUMPDEST PUSH2 0xDF0 JUMPI PUSH1 0x40 MLOAD PUSH32 0x8C379A000000000000000000000000000000000000000000000000000000000 DUP2 MSTORE PUSH1 0x4 ADD PUSH2 0xDE7 SWAP1 PUSH2 0x5091 JUMP JUMPDEST PUSH1 0x40 MLOAD DUP1 SWAP2 SUB SWAP1 REVERT JUMPDEST PUSH0 PUSH1 0x1D SLOAD PUSH1 0x1F SLOAD PUSH2 0xE01 SWAP2 SWAP1 PUSH2 0x51DF JUMP JUMPDEST SWAP1 POP PUSH0 PUSH1 0x6 SLOAD PUSH2 0xE0F PUSH2 0xEF9 JUMP JUMPDEST PUSH2 0xE19 SWAP2 SWAP1 PUSH2 0x5220 JUMP JUMPDEST SWAP1 POP DUP2 DUP2 LT PUSH2 0xE5D JUMPI PUSH1 0x40 MLOAD PUSH32 0x8C379A000000000000000000000000000000000000000000000000000000000 DUP2 MSTORE PUSH1 0x4 ADD PUSH2 0xE54 SWAP1 PUSH2 0x529D JUMP JUMPDEST PUSH1 0x40 MLOAD DUP1 SWAP2 SUB SWAP1 REVERT JUMPDEST PUSH0 DUP2 DUP4 PUSH2 0xE6A SWAP2 SWAP1 PUSH2 0x5220 JUMP JUMPDEST SWAP1 POP PUSH1 0x6 SLOAD DUP2 GT ISZERO PUSH2 0xEB1 JUMPI PUSH1 0x40 MLOAD PUSH32 0x8C379A000000000000000000000000000000000000000000000000000000000 DUP2 MSTORE PUSH1 0x4 ADD PUSH2 0xEA8 SWAP1 PUSH2 0x5305 JUMP JUMPDEST PUSH1 0x40 MLOAD DUP1 SWAP2 SUB SWAP1 REVERT JUMPDEST DUP1 PUSH1 0x6 PUSH0 DUP3 DUP3 SLOAD PUSH2 0xEC2 SWAP2 SWAP1 PUSH2 0x5220 JUMP JUMPDEST SWAP3 POP POP DUP2 SWAP1 SSTORE POP PUSH2 0xEF4 PUSH1 0x12 PUSH0 SWAP1 SLOAD SWAP1 PUSH2 0x100 EXP SWAP1 DIV PUSH20 0xFFFFFFFFFFFFFFFFFFFFFFFFFFFFFFFFFFFFFFFF AND DUP3 PUSH2 0x2C92 JUMP JUMPDEST POP POP POP JUMP JUMPDEST PUSH0 PUSH1 0x2 SLOAD SWAP1 POP SWAP1 JUMP JUMPDEST PUSH1 0xD PUSH1 0x20 MSTORE DUP1 PUSH0 MSTORE PUSH1 0x40 PUSH0 KECCAK256 PUSH0 SWAP2 POP SLOAD SWAP1 PUSH2 0x100 EXP SWAP1 DIV PUSH1 0xFF AND DUP2 JUMP JUMPDEST PUSH1 0x12 PUSH0 SWAP1 SLOAD SWAP1 PUSH2 0x100 EXP SWAP1 DIV PUSH20 0xFFFFFFFFFFFFFFFFFFFFFFFFFFFFFFFFFFFFFFFF AND DUP2 JUMP JUMPDEST PUSH0 DUP1 PUSH2 0xF4E PUSH2 0x2B20 JUMP JUMPDEST SWAP1 POP PUSH2 0xF5B DUP6 DUP3 DUP6 PUSH2 0x2D11 JUMP JUMPDEST PUSH2 0xF66 DUP6 DUP6 DUP6 PUSH2 0x2DA4 JUMP JUMPDEST PUSH1 0x1 SWAP2 POP POP SWAP4 SWAP3 POP POP POP JUMP JUMPDEST PUSH2 0xF7B CALLER PUSH2 0x2B39 JUMP JUMPDEST PUSH2 0xFBA JUMPI PUSH1 0x40 MLOAD PUSH32 0x8C379A000000000000000000000000000000000000000000000000000000000 DUP2 MSTORE PUSH1 0x4 ADD PUSH2 0xFB1 SWAP1 PUSH2 0x5091 JUMP JUMPDEST PUSH1 0x40 MLOAD DUP1 SWAP2 SUB SWAP1 REVERT JUMPDEST PUSH1 0x1B PUSH0 DUP3 PUSH20 0xFFFFFFFFFFFFFFFFFFFFFFFFFFFFFFFFFFFFFFFF AND PUSH20 0xFFFFFFFFFFFFFFFFFFFFFFFFFFFFFFFFFFFFFFFF AND DUP2 MSTORE PUSH1 0x20 ADD SWAP1 DUP2 MSTORE PUSH1 0x20 ADD PUSH0 KECCAK256 PUSH0 SWAP1 SLOAD SWAP1 PUSH2 0x100 EXP SWAP1 DIV PUSH1 0xFF AND PUSH2 0x115C JUMPI PUSH1 0x1 PUSH1 0x1B PUSH0 DUP4 PUSH20 0xFFFFFFFFFFFFFFFFFFFFFFFFFFFFFFFFFFFFFFFF AND PUSH20 0xFFFFFFFFFFFFFFFFFFFFFFFFFFFFFFFFFFFFFFFF AND DUP2 MSTORE PUSH1 0x20 ADD SWAP1 DUP2 MSTORE PUSH1 0x20 ADD PUSH0 KECCAK256 PUSH0 PUSH2 0x100 EXP DUP2 SLOAD DUP2 PUSH1 0xFF MUL NOT AND SWAP1 DUP4 ISZERO ISZERO MUL OR SWAP1 SSTORE POP DUP1 PUSH1 0xE PUSH0 PUSH1 0x1D SLOAD DUP2 MSTORE PUSH1 0x20 ADD SWAP1 DUP2 MSTORE PUSH1 0x20 ADD PUSH0 KECCAK256 PUSH0 PUSH2 0x100 EXP DUP2 SLOAD DUP2 PUSH20 0xFFFFFFFFFFFFFFFFFFFFFFFFFFFFFFFFFFFFFFFF MUL NOT AND SWAP1 DUP4 PUSH20 0xFFFFFFFFFFFFFFFFFFFFFFFFFFFFFFFFFFFFFFFF AND MUL OR SWAP1 SSTORE POP PUSH1 0x1D SLOAD PUSH1 0xF PUSH0 DUP4 PUSH20 0xFFFFFFFFFFFFFFFFFFFFFFFFFFFFFFFFFFFFFFFF AND PUSH20 0xFFFFFFFFFFFFFFFFFFFFFFFFFFFFFFFFFFFFFFFF AND DUP2 MSTORE PUSH1 0x20 ADD SWAP1 DUP2 MSTORE PUSH1 0x20 ADD PUSH0 KECCAK256 DUP2 SWAP1 SSTORE POP PUSH1 0x1D PUSH0 DUP2 SLOAD DUP1 SWAP3 SWAP2 SWAP1 PUSH2 0x1104 SWAP1 PUSH2 0x5323 JUMP JUMPDEST SWAP2 SWAP1 POP SSTORE POP PUSH1 0x1 ISZERO ISZERO DUP2 PUSH20 0xFFFFFFFFFFFFFFFFFFFFFFFFFFFFFFFFFFFFFFFF AND PUSH32 0xFE95B7566A64915A53F97C4006299B7121549CAE0FAA5CF597D710F6CCAFF110 TIMESTAMP PUSH1 0x40 MLOAD PUSH2 0x1153 SWAP2 SWAP1 PUSH2 0x49D0 JUMP JUMPDEST PUSH1 0x40 MLOAD DUP1 SWAP2 SUB SWAP1 LOG3 JUMPDEST TIMESTAMP PUSH1 0x18 PUSH0 DUP4 PUSH20 0xFFFFFFFFFFFFFFFFFFFFFFFFFFFFFFFFFFFFFFFF AND PUSH20 0xFFFFFFFFFFFFFFFFFFFFFFFFFFFFFFFFFFFFFFFF AND DUP2 MSTORE PUSH1 0x20 ADD SWAP1 DUP2 MSTORE PUSH1 0x20 ADD PUSH0 KECCAK256 DUP2 SWAP1 SSTORE POP POP JUMP JUMPDEST PUSH0 PUSH1 0x12 SWAP1 POP SWAP1 JUMP JUMPDEST PUSH1 0x6 SLOAD DUP2 JUMP JUMPDEST PUSH1 0x11 PUSH1 0x20 MSTORE DUP1 PUSH0 MSTORE PUSH1 0x40 PUSH0 KECCAK256 PUSH0 SWAP2 POP SWAP1 POP SLOAD DUP2 JUMP JUMPDEST PUSH1 0x13 PUSH1 0x20 MSTORE DUP1 PUSH0 MSTORE PUSH1 0x40 PUSH0 KECCAK256 PUSH0 SWAP2 POP SWAP1 POP DUP1 PUSH0 ADD SLOAD SWAP1 DUP1 PUSH1 0x2 ADD SLOAD SWAP1 DUP1 PUSH1 0x3 ADD SLOAD SWAP1 DUP1 PUSH1 0x4 ADD PUSH0 SWAP1 SLOAD SWAP1 PUSH2 0x100 EXP SWAP1 DIV PUSH1 0xFF AND SWAP1 POP DUP5 JUMP JUMPDEST PUSH1 0x1B PUSH1 0x20 MSTORE DUP1 PUSH0 MSTORE PUSH1 0x40 PUSH0 KECCAK256 PUSH0 SWAP2 POP SLOAD SWAP1 PUSH2 0x100 EXP SWAP1 DIV PUSH1 0xFF AND DUP2 JUMP JUMPDEST PUSH1 0x1A PUSH1 0x20 MSTORE DUP1 PUSH0 MSTORE PUSH1 0x40 PUSH0 KECCAK256 PUSH0 SWAP2 POP SWAP1 POP SLOAD DUP2 JUMP JUMPDEST PUSH0 DUP1 PUSH1 0xA PUSH0 DUP5 PUSH20 0xFFFFFFFFFFFFFFFFFFFFFFFFFFFFFFFFFFFFFFFF AND PUSH20 0xFFFFFFFFFFFFFFFFFFFFFFFFFFFFFFFFFFFFFFFF AND DUP2 MSTORE PUSH1 0x20 ADD SWAP1 DUP2 MSTORE PUSH1 0x20 ADD PUSH0 KECCAK256 SLOAD SWAP1 POP PUSH1 0x1 DUP2 LT ISZERO PUSH2 0x12B4 JUMPI PUSH1 0x40 MLOAD PUSH32 0x8C379A000000000000000000000000000000000000000000000000000000000 DUP2 MSTORE PUSH1 0x4 ADD PUSH2 0x12AB SWAP1 PUSH2 0x53B4 JUMP JUMPDEST PUSH1 0x40 MLOAD DUP1 SWAP2 SUB SWAP1 REVERT JUMPDEST PUSH1 0x64 DUP2 PUSH1 0x1F SLOAD PUSH2 0x12C4 SWAP2 SWAP1 PUSH2 0x51DF JUMP JUMPDEST PUSH2 0x12CE SWAP2 SWAP1 PUSH2 0x53FF JUMP JUMPDEST SWAP2 POP POP SWAP2 SWAP1 POP JUMP JUMPDEST PUSH0 DUP3 PUSH2 0x12E1 CALLER PUSH2 0x19FD JUMP JUMPDEST LT ISZERO PUSH2 0x1322 JUMPI PUSH1 0x40 MLOAD PUSH32 0x8C379A000000000000000000000000000000000000000000000000000000000 DUP2 MSTORE PUSH1 0x4 ADD PUSH2 0x1319 SWAP1 PUSH2 0x5479 JUMP JUMPDEST PUSH1 0x40 MLOAD DUP1 SWAP2 SUB SWAP1 REVERT JUMPDEST PUSH0 DUP6 DUP6 DUP6 TIMESTAMP PUSH1 0x40 MLOAD PUSH1 0x20 ADD PUSH2 0x133A SWAP5 SWAP4 SWAP3 SWAP2 SWAP1 PUSH2 0x551C JUMP JUMPDEST PUSH1 0x40 MLOAD PUSH1 0x20 DUP2 DUP4 SUB SUB DUP2 MSTORE SWAP1 PUSH1 0x40 MSTORE DUP1 MLOAD SWAP1 PUSH1 0x20 ADD KECCAK256 SWAP1 POP PUSH1 0x40 MLOAD DUP1 PUSH1 0xC0 ADD PUSH1 0x40 MSTORE DUP1 DUP8 DUP2 MSTORE PUSH1 0x20 ADD DUP7 PUSH20 0xFFFFFFFFFFFFFFFFFFFFFFFFFFFFFFFFFFFFFFFF AND DUP2 MSTORE PUSH1 0x20 ADD DUP6 DUP2 MSTORE PUSH1 0x20 ADD TIMESTAMP DUP2 MSTORE PUSH1 0x20 ADD PUSH0 ISZERO ISZERO DUP2 MSTORE PUSH1 0x20 ADD DUP5 DUP2 MSTORE POP PUSH1 0x19 PUSH0 DUP4 DUP2 MSTORE PUSH1 0x20 ADD SWAP1 DUP2 MSTORE PUSH1 0x20 ADD PUSH0 KECCAK256 PUSH0 DUP3 ADD MLOAD DUP2 PUSH0 ADD SSTORE PUSH1 0x20 DUP3 ADD MLOAD DUP2 PUSH1 0x1 ADD PUSH0 PUSH2 0x100 EXP DUP2 SLOAD DUP2 PUSH20 0xFFFFFFFFFFFFFFFFFFFFFFFFFFFFFFFFFFFFFFFF MUL NOT AND SWAP1 DUP4 PUSH20 0xFFFFFFFFFFFFFFFFFFFFFFFFFFFFFFFFFFFFFFFF AND MUL OR SWAP1 SSTORE POP PUSH1 0x40 DUP3 ADD MLOAD DUP2 PUSH1 0x2 ADD SSTORE PUSH1 0x60 DUP3 ADD MLOAD DUP2 PUSH1 0x3 ADD SSTORE PUSH1 0x80 DUP3 ADD MLOAD DUP2 PUSH1 0x4 ADD PUSH0 PUSH2 0x100 EXP DUP2 SLOAD DUP2 PUSH1 0xFF MUL NOT AND SWAP1 DUP4 ISZERO ISZERO MUL OR SWAP1 SSTORE POP PUSH1 0xA0 DUP3 ADD MLOAD DUP2 PUSH1 0x5 ADD SSTORE SWAP1 POP POP PUSH2 0x1441 CALLER ADDRESS DUP7 PUSH2 0x2DA4 JUMP JUMPDEST DUP1 SWAP2 POP POP SWAP5 SWAP4 POP POP POP POP JUMP JUMPDEST PUSH1 0xB PUSH1 0x20 MSTORE DUP2 PUSH0 MSTORE PUSH1 0x40 PUSH0 KECCAK256 DUP2 DUP2 SLOAD DUP2 LT PUSH2 0x1466 JUMPI PUSH0 DUP1 REVERT JUMPDEST SWAP1 PUSH0 MSTORE PUSH1 0x20 PUSH0 KECCAK256 SWAP1 PUSH1 0x4 MUL ADD PUSH0 SWAP2 POP SWAP2 POP POP DUP1 PUSH0 ADD SLOAD SWAP1 DUP1 PUSH1 0x1 ADD SLOAD SWAP1 DUP1 PUSH1 0x2 ADD SLOAD SWAP1 DUP1 PUSH1 0x3 ADD PUSH0 SWAP1 SLOAD SWAP1 PUSH2 0x100 EXP SWAP1 DIV PUSH1 0xFF AND SWAP1 POP DUP5 JUMP JUMPDEST PUSH1 0x1F SLOAD DUP2 JUMP JUMPDEST PUSH1 0xD PUSH0 CALLER PUSH20 0xFFFFFFFFFFFFFFFFFFFFFFFFFFFFFFFFFFFFFFFF AND PUSH20 0xFFFFFFFFFFFFFFFFFFFFFFFFFFFFFFFFFFFFFFFF AND DUP2 MSTORE PUSH1 0x20 ADD SWAP1 DUP2 MSTORE PUSH1 0x20 ADD PUSH0 KECCAK256 PUSH0 SWAP1 SLOAD SWAP1 PUSH2 0x100 EXP SWAP1 DIV PUSH1 0xFF AND PUSH2 0x152E JUMPI PUSH1 0x40 MLOAD PUSH32 0x8C379A000000000000000000000000000000000000000000000000000000000 DUP2 MSTORE PUSH1 0x4 ADD PUSH2 0x1525 SWAP1 PUSH2 0x55B3 JUMP JUMPDEST PUSH1 0x40 MLOAD DUP1 SWAP2 SUB SWAP1 REVERT JUMPDEST PUSH0 PUSH2 0x1538 CALLER PUSH2 0x122E JUMP JUMPDEST SWAP1 POP DUP2 ISZERO PUSH2 0x1781 JUMPI PUSH2 0x3E8 PUSH1 0x1F SLOAD PUSH2 0x1550 SWAP2 SWAP1 PUSH2 0x53FF JUMP JUMPDEST DUP5 LT ISZERO PUSH2 0x1592 JUMPI PUSH1 0x40 MLOAD PUSH32 0x8C379A000000000000000000000000000000000000000000000000000000000 DUP2 MSTORE PUSH1 0x4 ADD PUSH2 0x1589 SWAP1 PUSH2 0x561B JUMP JUMPDEST PUSH1 0x40 MLOAD DUP1 SWAP2 SUB SWAP1 REVERT JUMPDEST PUSH1 0x64 PUSH1 0x19 DUP3 PUSH2 0x15A1 SWAP2 SWAP1 PUSH2 0x51DF JUMP JUMPDEST PUSH2 0x15AB SWAP2 SWAP1 PUSH2 0x53FF JUMP JUMPDEST DUP5 GT ISZERO PUSH2 0x15ED JUMPI PUSH1 0x40 MLOAD PUSH32 0x8C379A000000000000000000000000000000000000000000000000000000000 DUP2 MSTORE PUSH1 0x4 ADD PUSH2 0x15E4 SWAP1 PUSH2 0x5683 JUMP JUMPDEST PUSH1 0x40 MLOAD DUP1 SWAP2 SUB SWAP1 REVERT JUMPDEST DUP1 DUP5 PUSH2 0x15F8 CALLER PUSH2 0x22DE JUMP JUMPDEST PUSH2 0x1602 SWAP2 SWAP1 PUSH2 0x50DC JUMP JUMPDEST GT ISZERO PUSH2 0x1643 JUMPI PUSH1 0x40 MLOAD PUSH32 0x8C379A000000000000000000000000000000000000000000000000000000000 DUP2 MSTORE PUSH1 0x4 ADD PUSH2 0x163A SWAP1 PUSH2 0x56EB JUMP JUMPDEST PUSH1 0x40 MLOAD DUP1 SWAP2 SUB SWAP1 REVERT JUMPDEST PUSH0 PUSH8 0xDE0B6B3A7640000 DUP5 DUP7 PUSH2 0x1659 SWAP2 SWAP1 PUSH2 0x51DF JUMP JUMPDEST PUSH2 0x1663 SWAP2 SWAP1 PUSH2 0x53FF JUMP JUMPDEST SWAP1 POP DUP1 PUSH1 0x1C PUSH0 CALLER PUSH20 0xFFFFFFFFFFFFFFFFFFFFFFFFFFFFFFFFFFFFFFFF AND PUSH20 0xFFFFFFFFFFFFFFFFFFFFFFFFFFFFFFFFFFFFFFFF AND DUP2 MSTORE PUSH1 0x20 ADD SWAP1 DUP2 MSTORE PUSH1 0x20 ADD PUSH0 KECCAK256 PUSH0 DUP3 DUP3 SLOAD PUSH2 0x16B1 SWAP2 SWAP1 PUSH2 0x50DC JUMP JUMPDEST SWAP3 POP POP DUP2 SWAP1 SSTORE POP PUSH1 0xB PUSH0 CALLER PUSH20 0xFFFFFFFFFFFFFFFFFFFFFFFFFFFFFFFFFFFFFFFF AND PUSH20 0xFFFFFFFFFFFFFFFFFFFFFFFFFFFFFFFFFFFFFFFF AND DUP2 MSTORE PUSH1 0x20 ADD SWAP1 DUP2 MSTORE PUSH1 0x20 ADD PUSH0 KECCAK256 PUSH1 0x40 MLOAD DUP1 PUSH1 0x80 ADD PUSH1 0x40 MSTORE DUP1 DUP8 DUP2 MSTORE PUSH1 0x20 ADD DUP7 DUP2 MSTORE PUSH1 0x20 ADD TIMESTAMP DUP2 MSTORE PUSH1 0x20 ADD PUSH0 ISZERO ISZERO DUP2 MSTORE POP SWAP1 DUP1 PUSH1 0x1 DUP2 SLOAD ADD DUP1 DUP3 SSTORE DUP1 SWAP2 POP POP PUSH1 0x1 SWAP1 SUB SWAP1 PUSH0 MSTORE PUSH1 0x20 PUSH0 KECCAK256 SWAP1 PUSH1 0x4 MUL ADD PUSH0 SWAP1 SWAP2 SWAP1 SWAP2 SWAP1 SWAP2 POP PUSH0 DUP3 ADD MLOAD DUP2 PUSH0 ADD SSTORE PUSH1 0x20 DUP3 ADD MLOAD DUP2 PUSH1 0x1 ADD SSTORE PUSH1 0x40 DUP3 ADD MLOAD DUP2 PUSH1 0x2 ADD SSTORE PUSH1 0x60 DUP3 ADD MLOAD DUP2 PUSH1 0x3 ADD PUSH0 PUSH2 0x100 EXP DUP2 SLOAD DUP2 PUSH1 0xFF MUL NOT AND SWAP1 DUP4 ISZERO ISZERO MUL OR SWAP1 SSTORE POP POP POP POP PUSH2 0x1845 JUMP JUMPDEST PUSH1 0xC PUSH0 CALLER PUSH20 0xFFFFFFFFFFFFFFFFFFFFFFFFFFFFFFFFFFFFFFFF AND PUSH20 0xFFFFFFFFFFFFFFFFFFFFFFFFFFFFFFFFFFFFFFFF AND DUP2 MSTORE PUSH1 0x20 ADD SWAP1 DUP2 MSTORE PUSH1 0x20 ADD PUSH0 KECCAK256 PUSH1 0x40 MLOAD DUP1 PUSH1 0x80 ADD PUSH1 0x40 MSTORE DUP1 DUP7 DUP2 MSTORE PUSH1 0x20 ADD DUP6 DUP2 MSTORE PUSH1 0x20 ADD TIMESTAMP DUP2 MSTORE PUSH1 0x20 ADD PUSH0 ISZERO ISZERO DUP2 MSTORE POP SWAP1 DUP1 PUSH1 0x1 DUP2 SLOAD ADD DUP1 DUP3 SSTORE DUP1 SWAP2 POP POP PUSH1 0x1 SWAP1 SUB SWAP1 PUSH0 MSTORE PUSH1 0x20 PUSH0 KECCAK256 SWAP1 PUSH1 0x4 MUL ADD PUSH0 SWAP1 SWAP2 SWAP1 SWAP2 SWAP1 SWAP2 POP PUSH0 DUP3 ADD MLOAD DUP2 PUSH0 ADD SSTORE PUSH1 0x20 DUP3 ADD MLOAD DUP2 PUSH1 0x1 ADD SSTORE PUSH1 0x40 DUP3 ADD MLOAD DUP2 PUSH1 0x2 ADD SSTORE PUSH1 0x60 DUP3 ADD MLOAD DUP2 PUSH1 0x3 ADD PUSH0 PUSH2 0x100 EXP DUP2 SLOAD DUP2 PUSH1 0xFF MUL NOT AND SWAP1 DUP4 ISZERO ISZERO MUL OR SWAP1 SSTORE POP POP POP JUMPDEST POP POP POP POP JUMP JUMPDEST PUSH0 PUSH1 0x13 PUSH0 DUP6 DUP2 MSTORE PUSH1 0x20 ADD SWAP1 DUP2 MSTORE PUSH1 0x20 ADD PUSH0 KECCAK256 PUSH1 0x4 ADD PUSH0 SWAP1 SLOAD SWAP1 PUSH2 0x100 EXP SWAP1 DIV PUSH1 0xFF AND PUSH2 0x18AC JUMPI PUSH1 0x40 MLOAD PUSH32 0x8C379A000000000000000000000000000000000000000000000000000000000 DUP2 MSTORE PUSH1 0x4 ADD PUSH2 0x18A3 SWAP1 PUSH2 0x5753 JUMP JUMPDEST PUSH1 0x40 MLOAD DUP1 SWAP2 SUB SWAP1 REVERT JUMPDEST DUP4 PUSH1 0x17 PUSH0 CALLER PUSH20 0xFFFFFFFFFFFFFFFFFFFFFFFFFFFFFFFFFFFFFFFF AND PUSH20 0xFFFFFFFFFFFFFFFFFFFFFFFFFFFFFFFFFFFFFFFF AND DUP2 MSTORE PUSH1 0x20 ADD SWAP1 DUP2 MSTORE PUSH1 0x20 ADD PUSH0 KECCAK256 SLOAD EQ PUSH2 0x192B JUMPI PUSH1 0x40 MLOAD PUSH32 0x8C379A000000000000000000000000000000000000000000000000000000000 DUP2 MSTORE PUSH1 0x4 ADD PUSH2 0x1922 SWAP1 PUSH2 0x57BB JUMP JUMPDEST PUSH1 0x40 MLOAD DUP1 SWAP2 SUB SWAP1 REVERT JUMPDEST PUSH1 0x16 PUSH0 DUP2 SLOAD DUP1 SWAP3 SWAP2 SWAP1 PUSH2 0x193D SWAP1 PUSH2 0x5323 JUMP JUMPDEST SWAP2 SWAP1 POP SSTORE POP PUSH1 0x40 MLOAD DUP1 PUSH1 0xC0 ADD PUSH1 0x40 MSTORE DUP1 PUSH1 0x16 SLOAD DUP2 MSTORE PUSH1 0x20 ADD DUP6 DUP2 MSTORE PUSH1 0x20 ADD DUP5 DUP2 MSTORE PUSH1 0x20 ADD DUP4 DUP2 MSTORE PUSH1 0x20 ADD PUSH0 ISZERO ISZERO DUP2 MSTORE PUSH1 0x20 ADD PUSH1 0x1 ISZERO ISZERO DUP2 MSTORE POP PUSH1 0x14 PUSH0 PUSH1 0x16 SLOAD DUP2 MSTORE PUSH1 0x20 ADD SWAP1 DUP2 MSTORE PUSH1 0x20 ADD PUSH0 KECCAK256 PUSH0 DUP3 ADD MLOAD DUP2 PUSH0 ADD SSTORE PUSH1 0x20 DUP3 ADD MLOAD DUP2 PUSH1 0x1 ADD SSTORE PUSH1 0x40 DUP3 ADD MLOAD DUP2 PUSH1 0x2 ADD SSTORE PUSH1 0x60 DUP3 ADD MLOAD DUP2 PUSH1 0x3 ADD SSTORE PUSH1 0x80 DUP3 ADD MLOAD DUP2 PUSH1 0x4 ADD PUSH0 PUSH2 0x100 EXP DUP2 SLOAD DUP2 PUSH1 0xFF MUL NOT AND SWAP1 DUP4 ISZERO ISZERO MUL OR SWAP1 SSTORE POP PUSH1 0xA0 DUP3 ADD MLOAD DUP2 PUSH1 0x4 ADD PUSH1 0x1 PUSH2 0x100 EXP DUP2 SLOAD DUP2 PUSH1 0xFF MUL NOT AND SWAP1 DUP4 ISZERO ISZERO MUL OR SWAP1 SSTORE POP SWAP1 POP POP PUSH1 0x16 SLOAD SWAP1 POP SWAP4 SWAP3 POP POP POP JUMP JUMPDEST PUSH0 DUP1 PUSH0 DUP4 PUSH20 0xFFFFFFFFFFFFFFFFFFFFFFFFFFFFFFFFFFFFFFFF AND PUSH20 0xFFFFFFFFFFFFFFFFFFFFFFFFFFFFFFFFFFFFFFFF AND DUP2 MSTORE PUSH1 0x20 ADD SWAP1 DUP2 MSTORE PUSH1 0x20 ADD PUSH0 KECCAK256 SLOAD SWAP1 POP SWAP2 SWAP1 POP JUMP JUMPDEST PUSH1 0x1D SLOAD DUP2 JUMP JUMPDEST PUSH1 0x9 SLOAD DUP2 JUMP JUMPDEST PUSH1 0xF PUSH1 0x20 MSTORE DUP1 PUSH0 MSTORE PUSH1 0x40 PUSH0 KECCAK256 PUSH0 SWAP2 POP SWAP1 POP SLOAD DUP2 JUMP JUMPDEST PUSH0 DUP1 PUSH1 0x17 PUSH0 CALLER PUSH20 0xFFFFFFFFFFFFFFFFFFFFFFFFFFFFFFFFFFFFFFFF AND PUSH20 0xFFFFFFFFFFFFFFFFFFFFFFFFFFFFFFFFFFFFFFFF AND DUP2 MSTORE PUSH1 0x20 ADD SWAP1 DUP2 MSTORE PUSH1 0x20 ADD PUSH0 KECCAK256 SLOAD EQ PUSH2 0x1AE3 JUMPI PUSH1 0x40 MLOAD PUSH32 0x8C379A000000000000000000000000000000000000000000000000000000000 DUP2 MSTORE PUSH1 0x4 ADD PUSH2 0x1ADA SWAP1 PUSH2 0x5823 JUMP JUMPDEST PUSH1 0x40 MLOAD DUP1 SWAP2 SUB SWAP1 REVERT JUMPDEST PUSH1 0x15 PUSH0 DUP2 SLOAD DUP1 SWAP3 SWAP2 SWAP1 PUSH2 0x1AF5 SWAP1 PUSH2 0x5323 JUMP JUMPDEST SWAP2 SWAP1 POP SSTORE POP PUSH1 0x40 MLOAD DUP1 PUSH1 0xA0 ADD PUSH1 0x40 MSTORE DUP1 PUSH1 0x15 SLOAD DUP2 MSTORE PUSH1 0x20 ADD PUSH0 PUSH8 0xFFFFFFFFFFFFFFFF DUP2 GT ISZERO PUSH2 0x1B27 JUMPI PUSH2 0x1B26 PUSH2 0x5841 JUMP JUMPDEST JUMPDEST PUSH1 0x40 MLOAD SWAP1 DUP1 DUP3 MSTORE DUP1 PUSH1 0x20 MUL PUSH1 0x20 ADD DUP3 ADD PUSH1 0x40 MSTORE DUP1 ISZERO PUSH2 0x1B55 JUMPI DUP2 PUSH1 0x20 ADD PUSH1 0x20 DUP3 MUL DUP1 CALLDATASIZE DUP4 CALLDATACOPY DUP1 DUP3 ADD SWAP2 POP POP SWAP1 POP JUMPDEST POP DUP2 MSTORE PUSH1 0x20 ADD PUSH0 DUP2 MSTORE PUSH1 0x20 ADD TIMESTAMP DUP2 MSTORE PUSH1 0x20 ADD PUSH1 0x1 ISZERO ISZERO DUP2 MSTORE POP PUSH1 0x13 PUSH0 PUSH1 0x15 SLOAD DUP2 MSTORE PUSH1 0x20 ADD SWAP1 DUP2 MSTORE PUSH1 0x20 ADD PUSH0 KECCAK256 PUSH0 DUP3 ADD MLOAD DUP2 PUSH0 ADD SSTORE PUSH1 0x20 DUP3 ADD MLOAD DUP2 PUSH1 0x1 ADD SWAP1 DUP1 MLOAD SWAP1 PUSH1 0x20 ADD SWAP1 PUSH2 0x1BA5 SWAP3 SWAP2 SWAP1 PUSH2 0x4863 JUMP JUMPDEST POP PUSH1 0x40 DUP3 ADD MLOAD DUP2 PUSH1 0x2 ADD SSTORE PUSH1 0x60 DUP3 ADD MLOAD DUP2 PUSH1 0x3 ADD SSTORE PUSH1 0x80 DUP3 ADD MLOAD DUP2 PUSH1 0x4 ADD PUSH0 PUSH2 0x100 EXP DUP2 SLOAD DUP2 PUSH1 0xFF MUL NOT AND SWAP1 DUP4 ISZERO ISZERO MUL OR SWAP1 SSTORE POP SWAP1 POP POP PUSH1 0x13 PUSH0 PUSH1 0x15 SLOAD DUP2 MSTORE PUSH1 0x20 ADD SWAP1 DUP2 MSTORE PUSH1 0x20 ADD PUSH0 KECCAK256 PUSH1 0x1 ADD CALLER SWAP1 DUP1 PUSH1 0x1 DUP2 SLOAD ADD DUP1 DUP3 SSTORE DUP1 SWAP2 POP POP PUSH1 0x1 SWAP1 SUB SWAP1 PUSH0 MSTORE PUSH1 0x20 PUSH0 KECCAK256 ADD PUSH0 SWAP1 SWAP2 SWAP1 SWAP2 SWAP1 SWAP2 PUSH2 0x100 EXP DUP2 SLOAD DUP2 PUSH20 0xFFFFFFFFFFFFFFFFFFFFFFFFFFFFFFFFFFFFFFFF MUL NOT AND SWAP1 DUP4 PUSH20 0xFFFFFFFFFFFFFFFFFFFFFFFFFFFFFFFFFFFFFFFF AND MUL OR SWAP1 SSTORE POP PUSH1 0x15 SLOAD PUSH1 0x17 PUSH0 CALLER PUSH20 0xFFFFFFFFFFFFFFFFFFFFFFFFFFFFFFFFFFFFFFFF AND PUSH20 0xFFFFFFFFFFFFFFFFFFFFFFFFFFFFFFFFFFFFFFFF AND DUP2 MSTORE PUSH1 0x20 ADD SWAP1 DUP2 MSTORE PUSH1 0x20 ADD PUSH0 KECCAK256 DUP2 SWAP1 SSTORE POP PUSH1 0x15 SLOAD SWAP1 POP SWAP1 JUMP JUMPDEST PUSH1 0x15 SLOAD DUP2 JUMP JUMPDEST PUSH2 0x1CAF DUP6 DUP6 DUP6 DUP6 DUP6 PUSH2 0x274B JUMP JUMPDEST PUSH2 0x1CEE JUMPI PUSH1 0x40 MLOAD PUSH32 0x8C379A000000000000000000000000000000000000000000000000000000000 DUP2 MSTORE PUSH1 0x4 ADD PUSH2 0x1CE5 SWAP1 PUSH2 0x58B8 JUMP JUMPDEST PUSH1 0x40 MLOAD DUP1 SWAP2 SUB SWAP1 REVERT JUMPDEST PUSH0 PUSH1 0x19 PUSH0 DUP8 DUP2 MSTORE PUSH1 0x20 ADD SWAP1 DUP2 MSTORE PUSH1 0x20 ADD PUSH0 KECCAK256 SWAP1 POP DUP1 PUSH1 0x4 ADD PUSH0 SWAP1 SLOAD SWAP1 PUSH2 0x100 EXP SWAP1 DIV PUSH1 0xFF AND ISZERO PUSH2 0x1D53 JUMPI PUSH1 0x40 MLOAD PUSH32 0x8C379A000000000000000000000000000000000000000000000000000000000 DUP2 MSTORE PUSH1 0x4 ADD PUSH2 0x1D4A SWAP1 PUSH2 0x5920 JUMP JUMPDEST PUSH1 0x40 MLOAD DUP1 SWAP2 SUB SWAP1 REVERT JUMPDEST PUSH3 0x8E6200 DUP2 PUSH1 0x3 ADD SLOAD PUSH2 0x1D66 SWAP2 SWAP1 PUSH2 0x50DC JUMP JUMPDEST TIMESTAMP GT ISZERO PUSH2 0x1DA8 JUMPI PUSH1 0x40 MLOAD PUSH32 0x8C379A000000000000000000000000000000000000000000000000000000000 DUP2 MSTORE PUSH1 0x4 ADD PUSH2 0x1D9F SWAP1 PUSH2 0x5988 JUMP JUMPDEST PUSH1 0x40 MLOAD DUP1 SWAP2 SUB SWAP1 REVERT JUMPDEST DUP1 PUSH1 0x1 ADD PUSH0 SWAP1 SLOAD SWAP1 PUSH2 0x100 EXP SWAP1 DIV PUSH20 0xFFFFFFFFFFFFFFFFFFFFFFFFFFFFFFFFFFFFFFFF AND PUSH20 0xFFFFFFFFFFFFFFFFFFFFFFFFFFFFFFFFFFFFFFFF AND CALLER PUSH20 0xFFFFFFFFFFFFFFFFFFFFFFFFFFFFFFFFFFFFFFFF AND EQ PUSH2 0x1E39 JUMPI PUSH1 0x40 MLOAD PUSH32 0x8C379A000000000000000000000000000000000000000000000000000000000 DUP2 MSTORE PUSH1 0x4 ADD PUSH2 0x1E30 SWAP1 PUSH2 0x59F0 JUMP JUMPDEST PUSH1 0x40 MLOAD DUP1 SWAP2 SUB SWAP1 REVERT JUMPDEST PUSH1 0x1 DUP2 PUSH1 0x4 ADD PUSH0 PUSH2 0x100 EXP DUP2 SLOAD DUP2 PUSH1 0xFF MUL NOT AND SWAP1 DUP4 ISZERO ISZERO MUL OR SWAP1 SSTORE POP PUSH2 0x1E87 ADDRESS DUP3 PUSH1 0x1 ADD PUSH0 SWAP1 SLOAD SWAP1 PUSH2 0x100 EXP SWAP1 DIV PUSH20 0xFFFFFFFFFFFFFFFFFFFFFFFFFFFFFFFFFFFFFFFF AND DUP4 PUSH1 0x2 ADD SLOAD PUSH2 0x2DA4 JUMP JUMPDEST POP POP POP POP POP POP JUMP JUMPDEST PUSH2 0x1E98 CALLER PUSH2 0x2B39 JUMP JUMPDEST PUSH2 0x1ED7 JUMPI PUSH1 0x40 MLOAD PUSH32 0x8C379A000000000000000000000000000000000000000000000000000000000 DUP2 MSTORE PUSH1 0x4 ADD PUSH2 0x1ECE SWAP1 PUSH2 0x5091 JUMP JUMPDEST PUSH1 0x40 MLOAD DUP1 SWAP2 SUB SWAP1 REVERT JUMPDEST PUSH3 0x15180 PUSH1 0x1E SLOAD PUSH2 0x1EE8 SWAP2 SWAP1 PUSH2 0x50DC JUMP JUMPDEST TIMESTAMP LT ISZERO PUSH2 0x1F2A JUMPI PUSH1 0x40 MLOAD PUSH32 0x8C379A000000000000000000000000000000000000000000000000000000000 DUP2 MSTORE PUSH1 0x4 ADD PUSH2 0x1F21 SWAP1 PUSH2 0x5159 JUMP JUMPDEST PUSH1 0x40 MLOAD DUP1 SWAP2 SUB SWAP1 REVERT JUMPDEST PUSH3 0x127500 PUSH1 0x1E SLOAD PUSH2 0x1F3B SWAP2 SWAP1 PUSH2 0x50DC JUMP JUMPDEST TIMESTAMP LT PUSH2 0x1F4A JUMPI PUSH2 0x1F49 PUSH2 0x2E94 JUMP JUMPDEST JUMPDEST PUSH0 PUSH8 0xDE0B6B3A7640000 SWAP1 POP PUSH0 PUSH1 0x7 SLOAD GT DUP1 ISZERO PUSH2 0x1F68 JUMPI POP PUSH0 PUSH1 0x8 SLOAD GT JUMPDEST ISZERO PUSH2 0x1FD4 JUMPI PUSH0 PUSH8 0xDE0B6B3A7640000 SWAP1 POP PUSH0 PUSH1 0x7 SLOAD PUSH8 0xDE0B6B3A7640000 PUSH1 0x8 SLOAD PUSH2 0x1F93 SWAP2 SWAP1 PUSH2 0x51DF JUMP JUMPDEST PUSH2 0x1F9D SWAP2 SWAP1 PUSH2 0x53FF JUMP JUMPDEST SWAP1 POP DUP2 DUP2 LT ISZERO PUSH2 0x1FCD JUMPI PUSH8 0xDE0B6B3A7640000 DUP2 DUP3 PUSH2 0x1FBC SWAP2 SWAP1 PUSH2 0x51DF JUMP JUMPDEST PUSH2 0x1FC6 SWAP2 SWAP1 PUSH2 0x53FF JUMP JUMPDEST SWAP3 POP PUSH2 0x1FD1 JUMP JUMPDEST DUP1 SWAP3 POP JUMPDEST POP POP JUMPDEST PUSH0 PUSH8 0xDE0B6B3A7640000 DUP3 PUSH5 0x1B984112F PUSH2 0x1FEF SWAP2 SWAP1 PUSH2 0x51DF JUMP JUMPDEST PUSH2 0x1FF9 SWAP2 SWAP1 PUSH2 0x53FF JUMP JUMPDEST SWAP1 POP PUSH0 PUSH1 0x1D SLOAD DUP3 PUSH2 0x200A SWAP2 SWAP1 PUSH2 0x51DF JUMP JUMPDEST SWAP1 POP PUSH0 PUSH5 0x174876E800 PUSH5 0x1B984112F DUP4 PUSH2 0x2024 SWAP2 SWAP1 PUSH2 0x51DF JUMP JUMPDEST PUSH2 0x202E SWAP2 SWAP1 PUSH2 0x53FF JUMP JUMPDEST SWAP1 POP PUSH0 DUP2 DUP4 PUSH2 0x203D SWAP2 SWAP1 PUSH2 0x50DC JUMP JUMPDEST SWAP1 POP PUSH5 0x141DD76000 DUP2 LT ISZERO PUSH2 0x207A JUMPI PUSH0 DUP2 PUSH5 0x141DD76000 PUSH2 0x205E SWAP2 SWAP1 PUSH2 0x5220 JUMP JUMPDEST SWAP1 POP DUP1 PUSH1 0x6 PUSH0 DUP3 DUP3 SLOAD PUSH2 0x2071 SWAP2 SWAP1 PUSH2 0x50DC JUMP JUMPDEST SWAP3 POP POP DUP2 SWAP1 SSTORE POP POP JUMPDEST PUSH1 0x8 SLOAD PUSH1 0x7 DUP2 SWAP1 SSTORE POP PUSH2 0x208C DUP5 PUSH2 0x3153 JUMP JUMPDEST DUP1 PUSH1 0x1F DUP2 SWAP1 SSTORE POP PUSH32 0x58C3FE4F561C8C51A47F84938C2043649A09AE6F2132C7047B9A3668C3917C8E PUSH1 0x1F SLOAD PUSH1 0x40 MLOAD PUSH2 0x20C4 SWAP2 SWAP1 PUSH2 0x49D0 JUMP JUMPDEST PUSH1 0x40 MLOAD DUP1 SWAP2 SUB SWAP1 LOG1 PUSH2 0x20D4 PUSH2 0x3247 JUMP JUMPDEST TIMESTAMP PUSH1 0x1E DUP2 SWAP1 SSTORE POP POP POP POP POP POP JUMP JUMPDEST PUSH1 0x10 DUP2 DUP2 SLOAD DUP2 LT PUSH2 0x20F1 JUMPI PUSH0 DUP1 REVERT JUMPDEST SWAP1 PUSH0 MSTORE PUSH1 0x20 PUSH0 KECCAK256 ADD PUSH0 SWAP2 POP SLOAD SWAP1 PUSH2 0x100 EXP SWAP1 DIV PUSH20 0xFFFFFFFFFFFFFFFFFFFFFFFFFFFFFFFFFFFFFFFF AND DUP2 JUMP JUMPDEST PUSH1 0x60 PUSH1 0x4 DUP1 SLOAD PUSH2 0x212C SWAP1 PUSH2 0x5017 JUMP JUMPDEST DUP1 PUSH1 0x1F ADD PUSH1 0x20 DUP1 SWAP2 DIV MUL PUSH1 0x20 ADD PUSH1 0x40 MLOAD SWAP1 DUP2 ADD PUSH1 0x40 MSTORE DUP1 SWAP3 SWAP2 SWAP1 DUP2 DUP2 MSTORE PUSH1 0x20 ADD DUP3 DUP1 SLOAD PUSH2 0x2158 SWAP1 PUSH2 0x5017 JUMP JUMPDEST DUP1 ISZERO PUSH2 0x21A3 JUMPI DUP1 PUSH1 0x1F LT PUSH2 0x217A JUMPI PUSH2 0x100 DUP1 DUP4 SLOAD DIV MUL DUP4 MSTORE SWAP2 PUSH1 0x20 ADD SWAP2 PUSH2 0x21A3 JUMP JUMPDEST DUP3 ADD SWAP2 SWAP1 PUSH0 MSTORE PUSH1 0x20 PUSH0 KECCAK256 SWAP1 JUMPDEST DUP2 SLOAD DUP2 MSTORE SWAP1 PUSH1 0x1 ADD SWAP1 PUSH1 0x20 ADD DUP1 DUP4 GT PUSH2 0x2186 JUMPI DUP3 SWAP1 SUB PUSH1 0x1F AND DUP3 ADD SWAP2 JUMPDEST POP POP POP POP POP SWAP1 POP SWAP1 JUMP JUMPDEST PUSH1 0x17 PUSH1 0x20 MSTORE DUP1 PUSH0 MSTORE PUSH1 0x40 PUSH0 KECCAK256 PUSH0 SWAP2 POP SWAP1 POP SLOAD DUP2 JUMP JUMPDEST PUSH0 PUSH20 0xFFFFFFFFFFFFFFFFFFFFFFFFFFFFFFFFFFFFFFFF AND DUP2 PUSH20 0xFFFFFFFFFFFFFFFFFFFFFFFFFFFFFFFFFFFFFFFF AND SUB PUSH2 0x2230 JUMPI PUSH1 0x40 MLOAD PUSH32 0x8C379A000000000000000000000000000000000000000000000000000000000 DUP2 MSTORE PUSH1 0x4 ADD PUSH2 0x2227 SWAP1 PUSH2 0x5A58 JUMP JUMPDEST PUSH1 0x40 MLOAD DUP1 SWAP2 SUB SWAP1 REVERT JUMPDEST DUP1 PUSH1 0x12 PUSH0 PUSH2 0x100 EXP DUP2 SLOAD DUP2 PUSH20 0xFFFFFFFFFFFFFFFFFFFFFFFFFFFFFFFFFFFFFFFF MUL NOT AND SWAP1 DUP4 PUSH20 0xFFFFFFFFFFFFFFFFFFFFFFFFFFFFFFFFFFFFFFFF AND MUL OR SWAP1 SSTORE POP POP JUMP JUMPDEST PUSH6 0x1CB3950C7000 DUP2 JUMP JUMPDEST PUSH0 DUP1 PUSH2 0x2287 PUSH2 0x2B20 JUMP JUMPDEST SWAP1 POP PUSH2 0x2294 DUP2 DUP6 DUP6 PUSH2 0x2DA4 JUMP JUMPDEST PUSH1 0x1 SWAP2 POP POP SWAP3 SWAP2 POP POP JUMP JUMPDEST PUSH1 0x16 SLOAD DUP2 JUMP JUMPDEST PUSH1 0xE PUSH1 0x20 MSTORE DUP1 PUSH0 MSTORE PUSH1 0x40 PUSH0 KECCAK256 PUSH0 SWAP2 POP SLOAD SWAP1 PUSH2 0x100 EXP SWAP1 DIV PUSH20 0xFFFFFFFFFFFFFFFFFFFFFFFFFFFFFFFFFFFFFFFF AND DUP2 JUMP JUMPDEST PUSH5 0x141DD76000 DUP2 JUMP JUMPDEST PUSH0 DUP1 PUSH0 SWAP1 POP PUSH0 PUSH1 0xB PUSH0 DUP6 PUSH20 0xFFFFFFFFFFFFFFFFFFFFFFFFFFFFFFFFFFFFFFFF AND PUSH20 0xFFFFFFFFFFFFFFFFFFFFFFFFFFFFFFFFFFFFFFFF AND DUP2 MSTORE PUSH1 0x20 ADD SWAP1 DUP2 MSTORE PUSH1 0x20 ADD PUSH0 KECCAK256 SWAP1 POP PUSH0 JUMPDEST DUP2 DUP1 SLOAD SWAP1 POP DUP2 LT ISZERO PUSH2 0x23A7 JUMPI DUP2 DUP2 DUP2 SLOAD DUP2 LT PUSH2 0x2344 JUMPI PUSH2 0x2343 PUSH2 0x5A76 JUMP JUMPDEST JUMPDEST SWAP1 PUSH0 MSTORE PUSH1 0x20 PUSH0 KECCAK256 SWAP1 PUSH1 0x4 MUL ADD PUSH1 0x3 ADD PUSH0 SWAP1 SLOAD SWAP1 PUSH2 0x100 EXP SWAP1 DIV PUSH1 0xFF AND PUSH2 0x2394 JUMPI DUP2 DUP2 DUP2 SLOAD DUP2 LT PUSH2 0x2377 JUMPI PUSH2 0x2376 PUSH2 0x5A76 JUMP JUMPDEST JUMPDEST SWAP1 PUSH0 MSTORE PUSH1 0x20 PUSH0 KECCAK256 SWAP1 PUSH1 0x4 MUL ADD PUSH0 ADD SLOAD DUP4 PUSH2 0x2391 SWAP2 SWAP1 PUSH2 0x50DC JUMP JUMPDEST SWAP3 POP JUMPDEST DUP1 DUP1 PUSH2 0x239F SWAP1 PUSH2 0x5323 JUMP JUMPDEST SWAP2 POP POP PUSH2 0x2325 JUMP JUMPDEST POP DUP2 SWAP3 POP POP POP SWAP2 SWAP1 POP JUMP JUMPDEST PUSH0 PUSH1 0x1D SLOAD EQ PUSH2 0x23F6 JUMPI PUSH1 0x40 MLOAD PUSH32 0x8C379A000000000000000000000000000000000000000000000000000000000 DUP2 MSTORE PUSH1 0x4 ADD PUSH2 0x23ED SWAP1 PUSH2 0x5AED JUMP JUMPDEST PUSH1 0x40 MLOAD DUP1 SWAP2 SUB SWAP1 REVERT JUMPDEST PUSH1 0x10 CALLER SWAP1 DUP1 PUSH1 0x1 DUP2 SLOAD ADD DUP1 DUP3 SSTORE DUP1 SWAP2 POP POP PUSH1 0x1 SWAP1 SUB SWAP1 PUSH0 MSTORE PUSH1 0x20 PUSH0 KECCAK256 ADD PUSH0 SWAP1 SWAP2 SWAP1 SWAP2 SWAP1 SWAP2 PUSH2 0x100 EXP DUP2 SLOAD DUP2 PUSH20 0xFFFFFFFFFFFFFFFFFFFFFFFFFFFFFFFFFFFFFFFF MUL NOT AND SWAP1 DUP4 PUSH20 0xFFFFFFFFFFFFFFFFFFFFFFFFFFFFFFFFFFFFFFFF AND MUL OR SWAP1 SSTORE POP PUSH0 PUSH1 0x11 PUSH0 CALLER PUSH20 0xFFFFFFFFFFFFFFFFFFFFFFFFFFFFFFFFFFFFFFFF AND PUSH20 0xFFFFFFFFFFFFFFFFFFFFFFFFFFFFFFFFFFFFFFFF AND DUP2 MSTORE PUSH1 0x20 ADD SWAP1 DUP2 MSTORE PUSH1 0x20 ADD PUSH0 KECCAK256 DUP2 SWAP1 SSTORE POP PUSH1 0x1 PUSH1 0xD PUSH0 CALLER PUSH20 0xFFFFFFFFFFFFFFFFFFFFFFFFFFFFFFFFFFFFFFFF AND PUSH20 0xFFFFFFFFFFFFFFFFFFFFFFFFFFFFFFFFFFFFFFFF AND DUP2 MSTORE PUSH1 0x20 ADD SWAP1 DUP2 MSTORE PUSH1 0x20 ADD PUSH0 KECCAK256 PUSH0 PUSH2 0x100 EXP DUP2 SLOAD DUP2 PUSH1 0xFF MUL NOT AND SWAP1 DUP4 ISZERO ISZERO MUL OR SWAP1 SSTORE POP PUSH1 0x1 PUSH1 0xA PUSH0 CALLER PUSH20 0xFFFFFFFFFFFFFFFFFFFFFFFFFFFFFFFFFFFFFFFF AND PUSH20 0xFFFFFFFFFFFFFFFFFFFFFFFFFFFFFFFFFFFFFFFF AND DUP2 MSTORE PUSH1 0x20 ADD SWAP1 DUP2 MSTORE PUSH1 0x20 ADD PUSH0 KECCAK256 DUP2 SWAP1 SSTORE POP PUSH1 0x1 PUSH1 0x1B PUSH0 CALLER PUSH20 0xFFFFFFFFFFFFFFFFFFFFFFFFFFFFFFFFFFFFFFFF AND PUSH20 0xFFFFFFFFFFFFFFFFFFFFFFFFFFFFFFFFFFFFFFFF AND DUP2 MSTORE PUSH1 0x20 ADD SWAP1 DUP2 MSTORE PUSH1 0x20 ADD PUSH0 KECCAK256 PUSH0 PUSH2 0x100 EXP DUP2 SLOAD DUP2 PUSH1 0xFF MUL NOT AND SWAP1 DUP4 ISZERO ISZERO MUL OR SWAP1 SSTORE POP CALLER PUSH1 0xE PUSH0 DUP1 DUP2 MSTORE PUSH1 0x20 ADD SWAP1 DUP2 MSTORE PUSH1 0x20 ADD PUSH0 KECCAK256 PUSH0 PUSH2 0x100 EXP DUP2 SLOAD DUP2 PUSH20 0xFFFFFFFFFFFFFFFFFFFFFFFFFFFFFFFFFFFFFFFF MUL NOT AND SWAP1 DUP4 PUSH20 0xFFFFFFFFFFFFFFFFFFFFFFFFFFFFFFFFFFFFFFFF AND MUL OR SWAP1 SSTORE POP PUSH0 PUSH1 0xF PUSH0 CALLER PUSH20 0xFFFFFFFFFFFFFFFFFFFFFFFFFFFFFFFFFFFFFFFF AND PUSH20 0xFFFFFFFFFFFFFFFFFFFFFFFFFFFFFFFFFFFFFFFF AND DUP2 MSTORE PUSH1 0x20 ADD SWAP1 DUP2 MSTORE PUSH1 0x20 ADD PUSH0 KECCAK256 DUP2 SWAP1 SSTORE POP PUSH1 0x1 PUSH1 0x1D DUP2 SWAP1 SSTORE POP PUSH1 0x1 ISZERO ISZERO CALLER PUSH20 0xFFFFFFFFFFFFFFFFFFFFFFFFFFFFFFFFFFFFFFFF AND PUSH32 0xFE95B7566A64915A53F97C4006299B7121549CAE0FAA5CF597D710F6CCAFF110 TIMESTAMP PUSH1 0x40 MLOAD PUSH2 0x2668 SWAP2 SWAP1 PUSH2 0x49D0 JUMP JUMPDEST PUSH1 0x40 MLOAD DUP1 SWAP2 SUB SWAP1 LOG3 JUMP JUMPDEST PUSH0 PUSH1 0x1 PUSH0 DUP5 PUSH20 0xFFFFFFFFFFFFFFFFFFFFFFFFFFFFFFFFFFFFFFFF AND PUSH20 0xFFFFFFFFFFFFFFFFFFFFFFFFFFFFFFFFFFFFFFFF AND DUP2 MSTORE PUSH1 0x20 ADD SWAP1 DUP2 MSTORE PUSH1 0x20 ADD PUSH0 KECCAK256 PUSH0 DUP4 PUSH20 0xFFFFFFFFFFFFFFFFFFFFFFFFFFFFFFFFFFFFFFFF AND PUSH20 0xFFFFFFFFFFFFFFFFFFFFFFFFFFFFFFFFFFFFFFFF AND DUP2 MSTORE PUSH1 0x20 ADD SWAP1 DUP2 MSTORE PUSH1 0x20 ADD PUSH0 KECCAK256 SLOAD SWAP1 POP SWAP3 SWAP2 POP POP JUMP JUMPDEST PUSH1 0x14 PUSH1 0x20 MSTORE DUP1 PUSH0 MSTORE PUSH1 0x40 PUSH0 KECCAK256 PUSH0 SWAP2 POP SWAP1 POP DUP1 PUSH0 ADD SLOAD SWAP1 DUP1 PUSH1 0x1 ADD SLOAD SWAP1 DUP1 PUSH1 0x2 ADD SLOAD SWAP1 DUP1 PUSH1 0x3 ADD SLOAD SWAP1 DUP1 PUSH1 0x4 ADD PUSH0 SWAP1 SLOAD SWAP1 PUSH2 0x100 EXP SWAP1 DIV PUSH1 0xFF AND SWAP1 DUP1 PUSH1 0x4 ADD PUSH1 0x1 SWAP1 SLOAD SWAP1 PUSH2 0x100 EXP SWAP1 DIV PUSH1 0xFF AND SWAP1 POP DUP7 JUMP JUMPDEST PUSH1 0x8 SLOAD DUP2 JUMP JUMPDEST PUSH0 DUP1 PUSH1 0x19 PUSH0 DUP9 DUP2 MSTORE PUSH1 0x20 ADD SWAP1 DUP2 MSTORE PUSH1 0x20 ADD PUSH0 KECCAK256 SWAP1 POP PUSH0 DUP1 SHL DUP2 PUSH1 0x5 ADD SLOAD EQ ISZERO DUP1 ISZERO PUSH2 0x2791 JUMPI POP DUP1 PUSH1 0x5 ADD SLOAD DUP5 DUP5 PUSH1 0x40 MLOAD PUSH2 0x2786 SWAP3 SWAP2 SWAP1 PUSH2 0x5B47 JUMP JUMPDEST PUSH1 0x40 MLOAD DUP1 SWAP2 SUB SWAP1 KECCAK256 EQ ISZERO JUMPDEST ISZERO PUSH2 0x279F JUMPI PUSH0 SWAP2 POP POP PUSH2 0x2853 JUMP JUMPDEST PUSH0 DUP8 DUP6 DUP6 PUSH1 0x40 MLOAD PUSH1 0x20 ADD PUSH2 0x27B5 SWAP4 SWAP3 SWAP2 SWAP1 PUSH2 0x5B5F JUMP JUMPDEST PUSH1 0x40 MLOAD PUSH1 0x20 DUP2 DUP4 SUB SUB DUP2 MSTORE SWAP1 PUSH1 0x40 MSTORE DUP1 MLOAD SWAP1 PUSH1 0x20 ADD KECCAK256 SWAP1 POP DUP2 PUSH0 ADD SLOAD PUSH2 0x2827 DUP9 DUP9 DUP1 DUP1 PUSH1 0x1F ADD PUSH1 0x20 DUP1 SWAP2 DIV MUL PUSH1 0x20 ADD PUSH1 0x40 MLOAD SWAP1 DUP2 ADD PUSH1 0x40 MSTORE DUP1 SWAP4 SWAP3 SWAP2 SWAP1 DUP2 DUP2 MSTORE PUSH1 0x20 ADD DUP4 DUP4 DUP1 DUP3 DUP5 CALLDATACOPY PUSH0 DUP2 DUP5 ADD MSTORE PUSH1 0x1F NOT PUSH1 0x1F DUP3 ADD AND SWAP1 POP DUP1 DUP4 ADD SWAP3 POP POP POP POP POP POP POP DUP4 PUSH2 0x3377 SWAP1 SWAP2 SWAP1 PUSH4 0xFFFFFFFF AND JUMP JUMPDEST PUSH1 0x40 MLOAD PUSH1 0x20 ADD PUSH2 0x2837 SWAP2 SWAP1 PUSH2 0x5B88 JUMP JUMPDEST PUSH1 0x40 MLOAD PUSH1 0x20 DUP2 DUP4 SUB SUB DUP2 MSTORE SWAP1 PUSH1 0x40 MSTORE DUP1 MLOAD SWAP1 PUSH1 0x20 ADD KECCAK256 EQ SWAP3 POP POP POP JUMPDEST SWAP6 SWAP5 POP POP POP POP POP JUMP JUMPDEST PUSH1 0x7 SLOAD DUP2 JUMP JUMPDEST PUSH1 0x18 PUSH1 0x20 MSTORE DUP1 PUSH0 MSTORE PUSH1 0x40 PUSH0 KECCAK256 PUSH0 SWAP2 POP SWAP1 POP SLOAD DUP2 JUMP JUMPDEST PUSH1 0xA PUSH1 0x20 MSTORE DUP1 PUSH0 MSTORE PUSH1 0x40 PUSH0 KECCAK256 PUSH0 SWAP2 POP SWAP1 POP SLOAD DUP2 JUMP JUMPDEST PUSH1 0x1E SLOAD DUP2 JUMP JUMPDEST PUSH2 0x289B CALLER PUSH2 0x33A1 JUMP JUMPDEST PUSH2 0x28DA JUMPI PUSH1 0x40 MLOAD PUSH32 0x8C379A000000000000000000000000000000000000000000000000000000000 DUP2 MSTORE PUSH1 0x4 ADD PUSH2 0x28D1 SWAP1 PUSH2 0x5BEC JUMP JUMPDEST PUSH1 0x40 MLOAD DUP1 SWAP2 SUB SWAP1 REVERT JUMPDEST PUSH1 0x1 PUSH1 0xD PUSH0 DUP4 PUSH20 0xFFFFFFFFFFFFFFFFFFFFFFFFFFFFFFFFFFFFFFFF AND PUSH20 0xFFFFFFFFFFFFFFFFFFFFFFFFFFFFFFFFFFFFFFFF AND DUP2 MSTORE PUSH1 0x20 ADD SWAP1 DUP2 MSTORE PUSH1 0x20 ADD PUSH0 KECCAK256 PUSH0 PUSH2 0x100 EXP DUP2 SLOAD DUP2 PUSH1 0xFF MUL NOT AND SWAP1 DUP4 ISZERO ISZERO MUL OR SWAP1 SSTORE POP PUSH1 0x1 PUSH1 0xA PUSH0 DUP4 PUSH20 0xFFFFFFFFFFFFFFFFFFFFFFFFFFFFFFFFFFFFFFFF AND PUSH20 0xFFFFFFFFFFFFFFFFFFFFFFFFFFFFFFFFFFFFFFFF AND DUP2 MSTORE PUSH1 0x20 ADD SWAP1 DUP2 MSTORE PUSH1 0x20 ADD PUSH0 KECCAK256 DUP2 SWAP1 SSTORE POP PUSH2 0x297B DUP2 PUSH2 0xF72 JUMP JUMPDEST PUSH1 0x1B PUSH0 DUP3 PUSH20 0xFFFFFFFFFFFFFFFFFFFFFFFFFFFFFFFFFFFFFFFF AND PUSH20 0xFFFFFFFFFFFFFFFFFFFFFFFFFFFFFFFFFFFFFFFF AND DUP2 MSTORE PUSH1 0x20 ADD SWAP1 DUP2 MSTORE PUSH1 0x20 ADD PUSH0 KECCAK256 PUSH0 SWAP1 SLOAD SWAP1 PUSH2 0x100 EXP SWAP1 DIV PUSH1 0xFF AND PUSH2 0x2B1D JUMPI PUSH1 0x1 PUSH1 0x1B PUSH0 DUP4 PUSH20 0xFFFFFFFFFFFFFFFFFFFFFFFFFFFFFFFFFFFFFFFF AND PUSH20 0xFFFFFFFFFFFFFFFFFFFFFFFFFFFFFFFFFFFFFFFF AND DUP2 MSTORE PUSH1 0x20 ADD SWAP1 DUP2 MSTORE PUSH1 0x20 ADD PUSH0 KECCAK256 PUSH0 PUSH2 0x100 EXP DUP2 SLOAD DUP2 PUSH1 0xFF MUL NOT AND SWAP1 DUP4 ISZERO ISZERO MUL OR SWAP1 SSTORE POP DUP1 PUSH1 0xE PUSH0 PUSH1 0x1D SLOAD DUP2 MSTORE PUSH1 0x20 ADD SWAP1 DUP2 MSTORE PUSH1 0x20 ADD PUSH0 KECCAK256 PUSH0 PUSH2 0x100 EXP DUP2 SLOAD DUP2 PUSH20 0xFFFFFFFFFFFFFFFFFFFFFFFFFFFFFFFFFFFFFFFF MUL NOT AND SWAP1 DUP4 PUSH20 0xFFFFFFFFFFFFFFFFFFFFFFFFFFFFFFFFFFFFFFFF AND MUL OR SWAP1 SSTORE POP PUSH1 0x1D SLOAD PUSH1 0xF PUSH0 DUP4 PUSH20 0xFFFFFFFFFFFFFFFFFFFFFFFFFFFFFFFFFFFFFFFF AND PUSH20 0xFFFFFFFFFFFFFFFFFFFFFFFFFFFFFFFFFFFFFFFF AND DUP2 MSTORE PUSH1 0x20 ADD SWAP1 DUP2 MSTORE PUSH1 0x20 ADD PUSH0 KECCAK256 DUP2 SWAP1 SSTORE POP PUSH1 0x1D PUSH0 DUP2 SLOAD DUP1 SWAP3 SWAP2 SWAP1 PUSH2 0x2AC5 SWAP1 PUSH2 0x5323 JUMP JUMPDEST SWAP2 SWAP1 POP SSTORE POP PUSH1 0x1 ISZERO ISZERO DUP2 PUSH20 0xFFFFFFFFFFFFFFFFFFFFFFFFFFFFFFFFFFFFFFFF AND PUSH32 0xFE95B7566A64915A53F97C4006299B7121549CAE0FAA5CF597D710F6CCAFF110 TIMESTAMP PUSH1 0x40 MLOAD PUSH2 0x2B14 SWAP2 SWAP1 PUSH2 0x49D0 JUMP JUMPDEST PUSH1 0x40 MLOAD DUP1 SWAP2 SUB SWAP1 LOG3 JUMPDEST POP JUMP JUMPDEST PUSH0 CALLER SWAP1 POP SWAP1 JUMP JUMPDEST PUSH2 0x2B34 DUP4 DUP4 DUP4 PUSH1 0x1 PUSH2 0x3465 JUMP JUMPDEST POP POP POP JUMP JUMPDEST PUSH0 PUSH1 0x1B PUSH0 DUP4 PUSH20 0xFFFFFFFFFFFFFFFFFFFFFFFFFFFFFFFFFFFFFFFF AND PUSH20 0xFFFFFFFFFFFFFFFFFFFFFFFFFFFFFFFFFFFFFFFF AND DUP2 MSTORE PUSH1 0x20 ADD SWAP1 DUP2 MSTORE PUSH1 0x20 ADD PUSH0 KECCAK256 PUSH0 SWAP1 SLOAD SWAP1 PUSH2 0x100 EXP SWAP1 DIV PUSH1 0xFF AND PUSH2 0x2BC3 JUMPI PUSH1 0x40 MLOAD PUSH32 0x8C379A000000000000000000000000000000000000000000000000000000000 DUP2 MSTORE PUSH1 0x4 ADD PUSH2 0x2BBA SWAP1 PUSH2 0x5C54 JUMP JUMPDEST PUSH1 0x40 MLOAD DUP1 SWAP2 SUB SWAP1 REVERT JUMPDEST PUSH0 DUP1 JUMPDEST PUSH1 0x1D SLOAD DUP2 LT ISZERO PUSH2 0x2C67 JUMPI PUSH0 PUSH1 0xA PUSH0 PUSH1 0xE PUSH0 DUP6 DUP2 MSTORE PUSH1 0x20 ADD SWAP1 DUP2 MSTORE PUSH1 0x20 ADD PUSH0 KECCAK256 PUSH0 SWAP1 SLOAD SWAP1 PUSH2 0x100 EXP SWAP1 DIV PUSH20 0xFFFFFFFFFFFFFFFFFFFFFFFFFFFFFFFFFFFFFFFF AND PUSH20 0xFFFFFFFFFFFFFFFFFFFFFFFFFFFFFFFFFFFFFFFF AND PUSH20 0xFFFFFFFFFFFFFFFFFFFFFFFFFFFFFFFFFFFFFFFF AND DUP2 MSTORE PUSH1 0x20 ADD SWAP1 DUP2 MSTORE PUSH1 0x20 ADD PUSH0 KECCAK256 SLOAD GT ISZERO PUSH2 0x2C54 JUMPI DUP2 DUP1 PUSH2 0x2C50 SWAP1 PUSH2 0x5323 JUMP JUMPDEST SWAP3 POP POP JUMPDEST DUP1 DUP1 PUSH2 0x2C5F SWAP1 PUSH2 0x5323 JUMP JUMPDEST SWAP2 POP POP PUSH2 0x2BC6 JUMP JUMPDEST POP PUSH3 0xA2C2A PUSH1 0x1D SLOAD PUSH3 0xF4240 DUP4 PUSH2 0x2C7E SWAP2 SWAP1 PUSH2 0x51DF JUMP JUMPDEST PUSH2 0x2C88 SWAP2 SWAP1 PUSH2 0x53FF JUMP JUMPDEST LT ISZERO SWAP2 POP POP SWAP2 SWAP1 POP JUMP JUMPDEST PUSH0 PUSH20 0xFFFFFFFFFFFFFFFFFFFFFFFFFFFFFFFFFFFFFFFF AND DUP3 PUSH20 0xFFFFFFFFFFFFFFFFFFFFFFFFFFFFFFFFFFFFFFFF AND SUB PUSH2 0x2D02 JUMPI PUSH0 PUSH1 0x40 MLOAD PUSH32 0xEC442F0500000000000000000000000000000000000000000000000000000000 DUP2 MSTORE PUSH1 0x4 ADD PUSH2 0x2CF9 SWAP2 SWAP1 PUSH2 0x4C4C JUMP JUMPDEST PUSH1 0x40 MLOAD DUP1 SWAP2 SUB SWAP1 REVERT JUMPDEST PUSH2 0x2D0D PUSH0 DUP4 DUP4 PUSH2 0x3634 JUMP JUMPDEST POP POP JUMP JUMPDEST PUSH0 PUSH2 0x2D1C DUP5 DUP5 PUSH2 0x2672 JUMP JUMPDEST SWAP1 POP PUSH32 0xFFFFFFFFFFFFFFFFFFFFFFFFFFFFFFFFFFFFFFFFFFFFFFFFFFFFFFFFFFFFFFFF DUP2 LT ISZERO PUSH2 0x2D9E JUMPI DUP2 DUP2 LT ISZERO PUSH2 0x2D8F JUMPI DUP3 DUP2 DUP4 PUSH1 0x40 MLOAD PUSH32 0xFB8F41B200000000000000000000000000000000000000000000000000000000 DUP2 MSTORE PUSH1 0x4 ADD PUSH2 0x2D86 SWAP4 SWAP3 SWAP2 SWAP1 PUSH2 0x5C72 JUMP JUMPDEST PUSH1 0x40 MLOAD DUP1 SWAP2 SUB SWAP1 REVERT JUMPDEST PUSH2 0x2D9D DUP5 DUP5 DUP5 DUP5 SUB PUSH0 PUSH2 0x3465 JUMP JUMPDEST JUMPDEST POP POP POP POP JUMP JUMPDEST PUSH0 PUSH20 0xFFFFFFFFFFFFFFFFFFFFFFFFFFFFFFFFFFFFFFFF AND DUP4 PUSH20 0xFFFFFFFFFFFFFFFFFFFFFFFFFFFFFFFFFFFFFFFF AND SUB PUSH2 0x2E14 JUMPI PUSH0 PUSH1 0x40 MLOAD PUSH32 0x96C6FD1E00000000000000000000000000000000000000000000000000000000 DUP2 MSTORE PUSH1 0x4 ADD PUSH2 0x2E0B SWAP2 SWAP1 PUSH2 0x4C4C JUMP JUMPDEST PUSH1 0x40 MLOAD DUP1 SWAP2 SUB SWAP1 REVERT JUMPDEST PUSH0 PUSH20 0xFFFFFFFFFFFFFFFFFFFFFFFFFFFFFFFFFFFFFFFF AND DUP3 PUSH20 0xFFFFFFFFFFFFFFFFFFFFFFFFFFFFFFFFFFFFFFFF AND SUB PUSH2 0x2E84 JUMPI PUSH0 PUSH1 0x40 MLOAD PUSH32 0xEC442F0500000000000000000000000000000000000000000000000000000000 DUP2 MSTORE PUSH1 0x4 ADD PUSH2 0x2E7B SWAP2 SWAP1 PUSH2 0x4C4C JUMP JUMPDEST PUSH1 0x40 MLOAD DUP1 SWAP2 SUB SWAP1 REVERT JUMPDEST PUSH2 0x2E8F DUP4 DUP4 DUP4 PUSH2 0x3634 JUMP JUMPDEST POP POP POP JUMP JUMPDEST PUSH0 JUMPDEST PUSH1 0x1D SLOAD DUP2 LT ISZERO PUSH2 0x3149 JUMPI PUSH0 PUSH1 0xE PUSH0 DUP4 DUP2 MSTORE PUSH1 0x20 ADD SWAP1 DUP2 MSTORE PUSH1 0x20 ADD PUSH0 KECCAK256 PUSH0 SWAP1 SLOAD SWAP1 PUSH2 0x100 EXP SWAP1 DIV PUSH20 0xFFFFFFFFFFFFFFFFFFFFFFFFFFFFFFFFFFFFFFFF AND SWAP1 POP PUSH3 0x127500 TIMESTAMP PUSH2 0x2EE3 SWAP2 SWAP1 PUSH2 0x5220 JUMP JUMPDEST PUSH1 0x18 PUSH0 DUP4 PUSH20 0xFFFFFFFFFFFFFFFFFFFFFFFFFFFFFFFFFFFFFFFF AND PUSH20 0xFFFFFFFFFFFFFFFFFFFFFFFFFFFFFFFFFFFFFFFF AND DUP2 MSTORE PUSH1 0x20 ADD SWAP1 DUP2 MSTORE PUSH1 0x20 ADD PUSH0 KECCAK256 SLOAD LT ISZERO PUSH2 0x3134 JUMPI PUSH0 PUSH1 0x1 PUSH1 0x1D SLOAD PUSH2 0x2F37 SWAP2 SWAP1 PUSH2 0x5220 JUMP JUMPDEST SWAP1 POP PUSH0 PUSH1 0xE PUSH0 DUP4 DUP2 MSTORE PUSH1 0x20 ADD SWAP1 DUP2 MSTORE PUSH1 0x20 ADD PUSH0 KECCAK256 PUSH0 SWAP1 SLOAD SWAP1 PUSH2 0x100 EXP SWAP1 DIV PUSH20 0xFFFFFFFFFFFFFFFFFFFFFFFFFFFFFFFFFFFFFFFF AND SWAP1 POP DUP1 PUSH1 0xE PUSH0 DUP7 DUP2 MSTORE PUSH1 0x20 ADD SWAP1 DUP2 MSTORE PUSH1 0x20 ADD PUSH0 KECCAK256 PUSH0 PUSH2 0x100 EXP DUP2 SLOAD DUP2 PUSH20 0xFFFFFFFFFFFFFFFFFFFFFFFFFFFFFFFFFFFFFFFF MUL NOT AND SWAP1 DUP4 PUSH20 0xFFFFFFFFFFFFFFFFFFFFFFFFFFFFFFFFFFFFFFFF AND MUL OR SWAP1 SSTORE POP DUP4 PUSH1 0xF PUSH0 DUP4 PUSH20 0xFFFFFFFFFFFFFFFFFFFFFFFFFFFFFFFFFFFFFFFF AND PUSH20 0xFFFFFFFFFFFFFFFFFFFFFFFFFFFFFFFFFFFFFFFF AND DUP2 MSTORE PUSH1 0x20 ADD SWAP1 DUP2 MSTORE PUSH1 0x20 ADD PUSH0 KECCAK256 DUP2 SWAP1 SSTORE POP PUSH1 0xE PUSH0 DUP4 DUP2 MSTORE PUSH1 0x20 ADD SWAP1 DUP2 MSTORE PUSH1 0x20 ADD PUSH0 KECCAK256 PUSH0 PUSH2 0x100 EXP DUP2 SLOAD SWAP1 PUSH20 0xFFFFFFFFFFFFFFFFFFFFFFFFFFFFFFFFFFFFFFFF MUL NOT AND SWAP1 SSTORE PUSH1 0xF PUSH0 DUP5 PUSH20 0xFFFFFFFFFFFFFFFFFFFFFFFFFFFFFFFFFFFFFFFF AND PUSH20 0xFFFFFFFFFFFFFFFFFFFFFFFFFFFFFFFFFFFFFFFF AND DUP2 MSTORE PUSH1 0x20 ADD SWAP1 DUP2 MSTORE PUSH1 0x20 ADD PUSH0 KECCAK256 PUSH0 SWAP1 SSTORE PUSH0 PUSH1 0x1B PUSH0 DUP6 PUSH20 0xFFFFFFFFFFFFFFFFFFFFFFFFFFFFFFFFFFFFFFFF AND PUSH20 0xFFFFFFFFFFFFFFFFFFFFFFFFFFFFFFFFFFFFFFFF AND DUP2 MSTORE PUSH1 0x20 ADD SWAP1 DUP2 MSTORE PUSH1 0x20 ADD PUSH0 KECCAK256 PUSH0 PUSH2 0x100 EXP DUP2 SLOAD DUP2 PUSH1 0xFF MUL NOT AND SWAP1 DUP4 ISZERO ISZERO MUL OR SWAP1 SSTORE POP PUSH1 0x1D PUSH0 DUP2 SLOAD DUP1 SWAP3 SWAP2 SWAP1 PUSH2 0x30D7 SWAP1 PUSH2 0x5CA7 JUMP JUMPDEST SWAP2 SWAP1 POP SSTORE POP PUSH0 ISZERO ISZERO DUP4 PUSH20 0xFFFFFFFFFFFFFFFFFFFFFFFFFFFFFFFFFFFFFFFF AND PUSH32 0xFE95B7566A64915A53F97C4006299B7121549CAE0FAA5CF597D710F6CCAFF110 TIMESTAMP PUSH1 0x40 MLOAD PUSH2 0x3125 SWAP2 SWAP1 PUSH2 0x49D0 JUMP JUMPDEST PUSH1 0x40 MLOAD DUP1 SWAP2 SUB SWAP1 LOG3 POP POP PUSH2 0x3143 JUMP JUMPDEST DUP2 DUP1 PUSH2 0x313F SWAP1 PUSH2 0x5323 JUMP JUMPDEST SWAP3 POP POP JUMPDEST POP PUSH2 0x2E96 JUMP JUMPDEST POP TIMESTAMP PUSH1 0x1E DUP2 SWAP1 SSTORE POP JUMP JUMPDEST PUSH0 JUMPDEST PUSH1 0x1D SLOAD DUP2 LT ISZERO PUSH2 0x3243 JUMPI PUSH0 PUSH1 0xE PUSH0 DUP4 DUP2 MSTORE PUSH1 0x20 ADD SWAP1 DUP2 MSTORE PUSH1 0x20 ADD PUSH0 KECCAK256 PUSH0 SWAP1 SLOAD SWAP1 PUSH2 0x100 EXP SWAP1 DIV PUSH20 0xFFFFFFFFFFFFFFFFFFFFFFFFFFFFFFFFFFFFFFFF AND SWAP1 POP PUSH1 0x1B PUSH0 DUP3 PUSH20 0xFFFFFFFFFFFFFFFFFFFFFFFFFFFFFFFFFFFFFFFF AND PUSH20 0xFFFFFFFFFFFFFFFFFFFFFFFFFFFFFFFFFFFFFFFF AND DUP2 MSTORE PUSH1 0x20 ADD SWAP1 DUP2 MSTORE PUSH1 0x20 ADD PUSH0 KECCAK256 PUSH0 SWAP1 SLOAD SWAP1 PUSH2 0x100 EXP SWAP1 DIV PUSH1 0xFF AND ISZERO PUSH2 0x322F JUMPI PUSH2 0x31EC DUP2 DUP5 PUSH2 0x2C92 JUMP JUMPDEST TIMESTAMP PUSH1 0x1A PUSH0 DUP4 PUSH20 0xFFFFFFFFFFFFFFFFFFFFFFFFFFFFFFFFFFFFFFFF AND PUSH20 0xFFFFFFFFFFFFFFFFFFFFFFFFFFFFFFFFFFFFFFFF AND DUP2 MSTORE PUSH1 0x20 ADD SWAP1 DUP2 MSTORE PUSH1 0x20 ADD PUSH0 KECCAK256 DUP2 SWAP1 SSTORE POP JUMPDEST POP DUP1 DUP1 PUSH2 0x323B SWAP1 PUSH2 0x5323 JUMP JUMPDEST SWAP2 POP POP PUSH2 0x3155 JUMP JUMPDEST POP POP JUMP JUMPDEST PUSH2 0x3250 CALLER PUSH2 0x2B39 JUMP JUMPDEST PUSH2 0x328F JUMPI PUSH1 0x40 MLOAD PUSH32 0x8C379A000000000000000000000000000000000000000000000000000000000 DUP2 MSTORE PUSH1 0x4 ADD PUSH2 0x3286 SWAP1 PUSH2 0x5091 JUMP JUMPDEST PUSH1 0x40 MLOAD DUP1 SWAP2 SUB SWAP1 REVERT JUMPDEST PUSH2 0xE10 PUSH3 0x15180 TIMESTAMP PUSH2 0x32A1 SWAP2 SWAP1 PUSH2 0x5CCE JUMP JUMPDEST GT ISZERO PUSH2 0x32E2 JUMPI PUSH1 0x40 MLOAD PUSH32 0x8C379A000000000000000000000000000000000000000000000000000000000 DUP2 MSTORE PUSH1 0x4 ADD PUSH2 0x32D9 SWAP1 PUSH2 0x5D48 JUMP JUMPDEST PUSH1 0x40 MLOAD DUP1 SWAP2 SUB SWAP1 REVERT JUMPDEST PUSH0 PUSH5 0x174876E800 PUSH5 0x1B984112F PUSH1 0x1F SLOAD PUSH2 0x32FC SWAP2 SWAP1 PUSH2 0x51DF JUMP JUMPDEST PUSH2 0x3306 SWAP2 SWAP1 PUSH2 0x53FF JUMP JUMPDEST SWAP1 POP PUSH2 0x3311 DUP2 PUSH2 0x384D JUMP JUMPDEST PUSH2 0x331A DUP2 PUSH2 0x3AB2 JUMP JUMPDEST PUSH0 PUSH2 0x3323 PUSH2 0x3C00 JUMP JUMPDEST SWAP1 POP PUSH0 PUSH2 0x332E PUSH2 0x3DB3 JUMP JUMPDEST SWAP1 POP PUSH2 0x3339 DUP3 PUSH2 0x3EE9 JUMP JUMPDEST PUSH32 0x3478244AF5961CC56EEFB1D3486A4E3C4D1051E49100FB0EFC408AA68A17B152 DUP3 DUP3 PUSH1 0x40 MLOAD PUSH2 0x336A SWAP3 SWAP2 SWAP1 PUSH2 0x5D66 JUMP JUMPDEST PUSH1 0x40 MLOAD DUP1 SWAP2 SUB SWAP1 LOG1 POP POP POP JUMP JUMPDEST PUSH0 DUP1 PUSH0 DUP1 PUSH2 0x3385 DUP7 DUP7 PUSH2 0x4057 JUMP JUMPDEST SWAP3 POP SWAP3 POP SWAP3 POP PUSH2 0x3395 DUP3 DUP3 PUSH2 0x40AC JUMP JUMPDEST DUP3 SWAP4 POP POP POP POP SWAP3 SWAP2 POP POP JUMP JUMPDEST PUSH0 DUP1 PUSH1 0x11 PUSH0 DUP5 PUSH20 0xFFFFFFFFFFFFFFFFFFFFFFFFFFFFFFFFFFFFFFFF AND PUSH20 0xFFFFFFFFFFFFFFFFFFFFFFFFFFFFFFFFFFFFFFFF AND DUP2 MSTORE PUSH1 0x20 ADD SWAP1 DUP2 MSTORE PUSH1 0x20 ADD PUSH0 KECCAK256 SLOAD SWAP1 POP PUSH1 0x10 DUP1 SLOAD SWAP1 POP DUP2 LT DUP1 ISZERO PUSH2 0x345D JUMPI POP DUP3 PUSH20 0xFFFFFFFFFFFFFFFFFFFFFFFFFFFFFFFFFFFFFFFF AND PUSH1 0x10 DUP3 DUP2 SLOAD DUP2 LT PUSH2 0x341D JUMPI PUSH2 0x341C PUSH2 0x5A76 JUMP JUMPDEST JUMPDEST SWAP1 PUSH0 MSTORE PUSH1 0x20 PUSH0 KECCAK256 ADD PUSH0 SWAP1 SLOAD SWAP1 PUSH2 0x100 EXP SWAP1 DIV PUSH20 0xFFFFFFFFFFFFFFFFFFFFFFFFFFFFFFFFFFFFFFFF AND PUSH20 0xFFFFFFFFFFFFFFFFFFFFFFFFFFFFFFFFFFFFFFFF AND EQ JUMPDEST SWAP2 POP POP SWAP2 SWAP1 POP JUMP JUMPDEST PUSH0 PUSH20 0xFFFFFFFFFFFFFFFFFFFFFFFFFFFFFFFFFFFFFFFF AND DUP5 PUSH20 0xFFFFFFFFFFFFFFFFFFFFFFFFFFFFFFFFFFFFFFFF AND SUB PUSH2 0x34D5 JUMPI PUSH0 PUSH1 0x40 MLOAD PUSH32 0xE602DF0500000000000000000000000000000000000000000000000000000000 DUP2 MSTORE PUSH1 0x4 ADD PUSH2 0x34CC SWAP2 SWAP1 PUSH2 0x4C4C JUMP JUMPDEST PUSH1 0x40 MLOAD DUP1 SWAP2 SUB SWAP1 REVERT JUMPDEST PUSH0 PUSH20 0xFFFFFFFFFFFFFFFFFFFFFFFFFFFFFFFFFFFFFFFF AND DUP4 PUSH20 0xFFFFFFFFFFFFFFFFFFFFFFFFFFFFFFFFFFFFFFFF AND SUB PUSH2 0x3545 JUMPI PUSH0 PUSH1 0x40 MLOAD PUSH32 0x94280D6200000000000000000000000000000000000000000000000000000000 DUP2 MSTORE PUSH1 0x4 ADD PUSH2 0x353C SWAP2 SWAP1 PUSH2 0x4C4C JUMP JUMPDEST PUSH1 0x40 MLOAD DUP1 SWAP2 SUB SWAP1 REVERT JUMPDEST DUP2 PUSH1 0x1 PUSH0 DUP7 PUSH20 0xFFFFFFFFFFFFFFFFFFFFFFFFFFFFFFFFFFFFFFFF AND PUSH20 0xFFFFFFFFFFFFFFFFFFFFFFFFFFFFFFFFFFFFFFFF AND DUP2 MSTORE PUSH1 0x20 ADD SWAP1 DUP2 MSTORE PUSH1 0x20 ADD PUSH0 KECCAK256 PUSH0 DUP6 PUSH20 0xFFFFFFFFFFFFFFFFFFFFFFFFFFFFFFFFFFFFFFFF AND PUSH20 0xFFFFFFFFFFFFFFFFFFFFFFFFFFFFFFFFFFFFFFFF AND DUP2 MSTORE PUSH1 0x20 ADD SWAP1 DUP2 MSTORE PUSH1 0x20 ADD PUSH0 KECCAK256 DUP2 SWAP1 SSTORE POP DUP1 ISZERO PUSH2 0x362E JUMPI DUP3 PUSH20 0xFFFFFFFFFFFFFFFFFFFFFFFFFFFFFFFFFFFFFFFF AND DUP5 PUSH20 0xFFFFFFFFFFFFFFFFFFFFFFFFFFFFFFFFFFFFFFFF AND PUSH32 0x8C5BE1E5EBEC7D5BD14F71427D1E84F3DD0314C0F7B2291E5B200AC8C7C3B925 DUP5 PUSH1 0x40 MLOAD PUSH2 0x3625 SWAP2 SWAP1 PUSH2 0x49D0 JUMP JUMPDEST PUSH1 0x40 MLOAD DUP1 SWAP2 SUB SWAP1 LOG3 JUMPDEST POP POP POP POP JUMP JUMPDEST PUSH0 PUSH20 0xFFFFFFFFFFFFFFFFFFFFFFFFFFFFFFFFFFFFFFFF AND DUP4 PUSH20 0xFFFFFFFFFFFFFFFFFFFFFFFFFFFFFFFFFFFFFFFF AND SUB PUSH2 0x3684 JUMPI DUP1 PUSH1 0x2 PUSH0 DUP3 DUP3 SLOAD PUSH2 0x3678 SWAP2 SWAP1 PUSH2 0x50DC JUMP JUMPDEST SWAP3 POP POP DUP2 SWAP1 SSTORE POP PUSH2 0x3752 JUMP JUMPDEST PUSH0 DUP1 PUSH0 DUP6 PUSH20 0xFFFFFFFFFFFFFFFFFFFFFFFFFFFFFFFFFFFFFFFF AND PUSH20 0xFFFFFFFFFFFFFFFFFFFFFFFFFFFFFFFFFFFFFFFF AND DUP2 MSTORE PUSH1 0x20 ADD SWAP1 DUP2 MSTORE PUSH1 0x20 ADD PUSH0 KECCAK256 SLOAD SWAP1 POP DUP2 DUP2 LT ISZERO PUSH2 0x370D JUMPI DUP4 DUP2 DUP4 PUSH1 0x40 MLOAD PUSH32 0xE450D38C00000000000000000000000000000000000000000000000000000000 DUP2 MSTORE PUSH1 0x4 ADD PUSH2 0x3704 SWAP4 SWAP3 SWAP2 SWAP1 PUSH2 0x5C72 JUMP JUMPDEST PUSH1 0x40 MLOAD DUP1 SWAP2 SUB SWAP1 REVERT JUMPDEST DUP2 DUP2 SUB PUSH0 DUP1 DUP7 PUSH20 0xFFFFFFFFFFFFFFFFFFFFFFFFFFFFFFFFFFFFFFFF AND PUSH20 0xFFFFFFFFFFFFFFFFFFFFFFFFFFFFFFFFFFFFFFFF AND DUP2 MSTORE PUSH1 0x20 ADD SWAP1 DUP2 MSTORE PUSH1 0x20 ADD PUSH0 KECCAK256 DUP2 SWAP1 SSTORE POP POP JUMPDEST PUSH0 PUSH20 0xFFFFFFFFFFFFFFFFFFFFFFFFFFFFFFFFFFFFFFFF AND DUP3 PUSH20 0xFFFFFFFFFFFFFFFFFFFFFFFFFFFFFFFFFFFFFFFF AND SUB PUSH2 0x3799 JUMPI DUP1 PUSH1 0x2 PUSH0 DUP3 DUP3 SLOAD SUB SWAP3 POP POP DUP2 SWAP1 SSTORE POP PUSH2 0x37E3 JUMP JUMPDEST DUP1 PUSH0 DUP1 DUP5 PUSH20 0xFFFFFFFFFFFFFFFFFFFFFFFFFFFFFFFFFFFFFFFF AND PUSH20 0xFFFFFFFFFFFFFFFFFFFFFFFFFFFFFFFFFFFFFFFF AND DUP2 MSTORE PUSH1 0x20 ADD SWAP1 DUP2 MSTORE PUSH1 0x20 ADD PUSH0 KECCAK256 PUSH0 DUP3 DUP3 SLOAD ADD SWAP3 POP POP DUP2 SWAP1 SSTORE POP JUMPDEST DUP2 PUSH20 0xFFFFFFFFFFFFFFFFFFFFFFFFFFFFFFFFFFFFFFFF AND DUP4 PUSH20 0xFFFFFFFFFFFFFFFFFFFFFFFFFFFFFFFFFFFFFFFF AND PUSH32 0xDDF252AD1BE2C89B69C2B068FC378DAA952BA7F163C4A11628F55A4DF523B3EF DUP4 PUSH1 0x40 MLOAD PUSH2 0x3840 SWAP2 SWAP1 PUSH2 0x49D0 JUMP JUMPDEST PUSH1 0x40 MLOAD DUP1 SWAP2 SUB SWAP1 LOG3 POP POP POP JUMP JUMPDEST PUSH0 DUP1 JUMPDEST PUSH1 0x10 DUP1 SLOAD SWAP1 POP DUP2 LT ISZERO PUSH2 0x3AAD JUMPI PUSH0 PUSH1 0x10 DUP3 DUP2 SLOAD DUP2 LT PUSH2 0x3872 JUMPI PUSH2 0x3871 PUSH2 0x5A76 JUMP JUMPDEST JUMPDEST SWAP1 PUSH0 MSTORE PUSH1 0x20 PUSH0 KECCAK256 ADD PUSH0 SWAP1 SLOAD SWAP1 PUSH2 0x100 EXP SWAP1 DIV PUSH20 0xFFFFFFFFFFFFFFFFFFFFFFFFFFFFFFFFFFFFFFFF AND SWAP1 POP PUSH0 PUSH1 0xB PUSH0 DUP4 PUSH20 0xFFFFFFFFFFFFFFFFFFFFFFFFFFFFFFFFFFFFFFFF AND PUSH20 0xFFFFFFFFFFFFFFFFFFFFFFFFFFFFFFFFFFFFFFFF AND DUP2 MSTORE PUSH1 0x20 ADD SWAP1 DUP2 MSTORE PUSH1 0x20 ADD PUSH0 KECCAK256 SWAP1 POP PUSH0 JUMPDEST DUP2 DUP1 SLOAD SWAP1 POP DUP2 LT ISZERO PUSH2 0x3A97 JUMPI DUP2 DUP2 DUP2 SLOAD DUP2 LT PUSH2 0x38FD JUMPI PUSH2 0x38FC PUSH2 0x5A76 JUMP JUMPDEST JUMPDEST SWAP1 PUSH0 MSTORE PUSH1 0x20 PUSH0 KECCAK256 SWAP1 PUSH1 0x4 MUL ADD PUSH1 0x3 ADD PUSH0 SWAP1 SLOAD SWAP1 PUSH2 0x100 EXP SWAP1 DIV PUSH1 0xFF AND ISZERO DUP1 ISZERO PUSH2 0x3952 JUMPI POP DUP6 DUP3 DUP3 DUP2 SLOAD DUP2 LT PUSH2 0x3935 JUMPI PUSH2 0x3934 PUSH2 0x5A76 JUMP JUMPDEST JUMPDEST SWAP1 PUSH0 MSTORE PUSH1 0x20 PUSH0 KECCAK256 SWAP1 PUSH1 0x4 MUL ADD PUSH0 ADD SLOAD DUP7 PUSH2 0x394F SWAP2 SWAP1 PUSH2 0x50DC JUMP JUMPDEST GT ISZERO JUMPDEST ISZERO PUSH2 0x3A84 JUMPI PUSH1 0x1 DUP3 DUP3 DUP2 SLOAD DUP2 LT PUSH2 0x396C JUMPI PUSH2 0x396B PUSH2 0x5A76 JUMP JUMPDEST JUMPDEST SWAP1 PUSH0 MSTORE PUSH1 0x20 PUSH0 KECCAK256 SWAP1 PUSH1 0x4 MUL ADD PUSH1 0x3 ADD PUSH0 PUSH2 0x100 EXP DUP2 SLOAD DUP2 PUSH1 0xFF MUL NOT AND SWAP1 DUP4 ISZERO ISZERO MUL OR SWAP1 SSTORE POP DUP2 DUP2 DUP2 SLOAD DUP2 LT PUSH2 0x39A4 JUMPI PUSH2 0x39A3 PUSH2 0x5A76 JUMP JUMPDEST JUMPDEST SWAP1 PUSH0 MSTORE PUSH1 0x20 PUSH0 KECCAK256 SWAP1 PUSH1 0x4 MUL ADD PUSH0 ADD SLOAD DUP6 PUSH2 0x39BE SWAP2 SWAP1 PUSH2 0x50DC JUMP JUMPDEST SWAP5 POP PUSH2 0x39EC ADDRESS DUP5 DUP5 DUP5 DUP2 SLOAD DUP2 LT PUSH2 0x39D8 JUMPI PUSH2 0x39D7 PUSH2 0x5A76 JUMP JUMPDEST JUMPDEST SWAP1 PUSH0 MSTORE PUSH1 0x20 PUSH0 KECCAK256 SWAP1 PUSH1 0x4 MUL ADD PUSH0 ADD SLOAD PUSH2 0x2DA4 JUMP JUMPDEST PUSH1 0x1 ISZERO ISZERO DUP4 PUSH20 0xFFFFFFFFFFFFFFFFFFFFFFFFFFFFFFFFFFFFFFFF AND PUSH32 0x9E7FD281B1DCE2314E2103CE01AEBC9AB4B6C9407341A2DF5B9FA74D32900C44 DUP5 DUP5 DUP2 SLOAD DUP2 LT PUSH2 0x3A3B JUMPI PUSH2 0x3A3A PUSH2 0x5A76 JUMP JUMPDEST JUMPDEST SWAP1 PUSH0 MSTORE PUSH1 0x20 PUSH0 KECCAK256 SWAP1 PUSH1 0x4 MUL ADD PUSH0 ADD SLOAD DUP6 DUP6 DUP2 SLOAD DUP2 LT PUSH2 0x3A5D JUMPI PUSH2 0x3A5C PUSH2 0x5A76 JUMP JUMPDEST JUMPDEST SWAP1 PUSH0 MSTORE PUSH1 0x20 PUSH0 KECCAK256 SWAP1 PUSH1 0x4 MUL ADD PUSH1 0x1 ADD SLOAD PUSH1 0x40 MLOAD PUSH2 0x3A7B SWAP3 SWAP2 SWAP1 PUSH2 0x5D66 JUMP JUMPDEST PUSH1 0x40 MLOAD DUP1 SWAP2 SUB SWAP1 LOG3 JUMPDEST DUP1 DUP1 PUSH2 0x3A8F SWAP1 PUSH2 0x5323 JUMP JUMPDEST SWAP2 POP POP PUSH2 0x38DE JUMP JUMPDEST POP POP POP DUP1 DUP1 PUSH2 0x3AA5 SWAP1 PUSH2 0x5323 JUMP JUMPDEST SWAP2 POP POP PUSH2 0x3850 JUMP JUMPDEST POP POP POP JUMP JUMPDEST PUSH0 DUP2 SWAP1 POP PUSH0 PUSH2 0x3ABF PUSH2 0x420E JUMP JUMPDEST SWAP1 POP PUSH2 0x3ACA DUP2 PUSH2 0x44A0 JUMP JUMPDEST PUSH0 JUMPDEST DUP2 MLOAD DUP2 LT DUP1 ISZERO PUSH2 0x3ADB JUMPI POP PUSH0 DUP4 GT JUMPDEST ISZERO PUSH2 0x3BFA JUMPI PUSH0 DUP4 DUP4 DUP4 DUP2 MLOAD DUP2 LT PUSH2 0x3AF5 JUMPI PUSH2 0x3AF4 PUSH2 0x5A76 JUMP JUMPDEST JUMPDEST PUSH1 0x20 MUL PUSH1 0x20 ADD ADD MLOAD PUSH0 ADD MLOAD LT PUSH2 0x3B0B JUMPI DUP4 PUSH2 0x3B2A JUMP JUMPDEST DUP3 DUP3 DUP2 MLOAD DUP2 LT PUSH2 0x3B1E JUMPI PUSH2 0x3B1D PUSH2 0x5A76 JUMP JUMPDEST JUMPDEST PUSH1 0x20 MUL PUSH1 0x20 ADD ADD MLOAD PUSH0 ADD MLOAD JUMPDEST SWAP1 POP PUSH0 PUSH2 0x3B50 DUP5 DUP5 DUP2 MLOAD DUP2 LT PUSH2 0x3B43 JUMPI PUSH2 0x3B42 PUSH2 0x5A76 JUMP JUMPDEST JUMPDEST PUSH1 0x20 MUL PUSH1 0x20 ADD ADD MLOAD PUSH2 0x45D8 JUMP JUMPDEST SWAP1 POP PUSH0 DUP3 GT ISZERO PUSH2 0x3BE5 JUMPI DUP2 DUP6 PUSH2 0x3B66 SWAP2 SWAP1 PUSH2 0x5220 JUMP JUMPDEST SWAP5 POP PUSH2 0x3B73 ADDRESS DUP3 DUP5 PUSH2 0x2DA4 JUMP JUMPDEST PUSH0 ISZERO ISZERO DUP2 PUSH20 0xFFFFFFFFFFFFFFFFFFFFFFFFFFFFFFFFFFFFFFFF AND PUSH32 0x9E7FD281B1DCE2314E2103CE01AEBC9AB4B6C9407341A2DF5B9FA74D32900C44 DUP5 DUP8 DUP8 DUP2 MLOAD DUP2 LT PUSH2 0x3BC2 JUMPI PUSH2 0x3BC1 PUSH2 0x5A76 JUMP JUMPDEST JUMPDEST PUSH1 0x20 MUL PUSH1 0x20 ADD ADD MLOAD PUSH1 0x20 ADD MLOAD PUSH1 0x40 MLOAD PUSH2 0x3BDC SWAP3 SWAP2 SWAP1 PUSH2 0x5D66 JUMP JUMPDEST PUSH1 0x40 MLOAD DUP1 SWAP2 SUB SWAP1 LOG3 JUMPDEST POP POP DUP1 DUP1 PUSH2 0x3BF2 SWAP1 PUSH2 0x5323 JUMP JUMPDEST SWAP2 POP POP PUSH2 0x3ACC JUMP JUMPDEST POP POP POP POP JUMP JUMPDEST PUSH0 DUP1 PUSH0 SWAP1 POP PUSH0 DUP1 JUMPDEST PUSH1 0x10 DUP1 SLOAD SWAP1 POP DUP2 LT ISZERO PUSH2 0x3D8B JUMPI PUSH0 PUSH1 0x10 DUP3 DUP2 SLOAD DUP2 LT PUSH2 0x3C2A JUMPI PUSH2 0x3C29 PUSH2 0x5A76 JUMP JUMPDEST JUMPDEST SWAP1 PUSH0 MSTORE PUSH1 0x20 PUSH0 KECCAK256 ADD PUSH0 SWAP1 SLOAD SWAP1 PUSH2 0x100 EXP SWAP1 DIV PUSH20 0xFFFFFFFFFFFFFFFFFFFFFFFFFFFFFFFFFFFFFFFF AND SWAP1 POP PUSH0 PUSH1 0xB PUSH0 DUP4 PUSH20 0xFFFFFFFFFFFFFFFFFFFFFFFFFFFFFFFFFFFFFFFF AND PUSH20 0xFFFFFFFFFFFFFFFFFFFFFFFFFFFFFFFFFFFFFFFF AND DUP2 MSTORE PUSH1 0x20 ADD SWAP1 DUP2 MSTORE PUSH1 0x20 ADD PUSH0 KECCAK256 SWAP1 POP PUSH0 JUMPDEST DUP2 DUP1 SLOAD SWAP1 POP DUP2 LT ISZERO PUSH2 0x3D75 JUMPI DUP2 DUP2 DUP2 SLOAD DUP2 LT PUSH2 0x3CB5 JUMPI PUSH2 0x3CB4 PUSH2 0x5A76 JUMP JUMPDEST JUMPDEST SWAP1 PUSH0 MSTORE PUSH1 0x20 PUSH0 KECCAK256 SWAP1 PUSH1 0x4 MUL ADD PUSH1 0x3 ADD PUSH0 SWAP1 SLOAD SWAP1 PUSH2 0x100 EXP SWAP1 DIV PUSH1 0xFF AND ISZERO PUSH2 0x3D62 JUMPI DUP2 DUP2 DUP2 SLOAD DUP2 LT PUSH2 0x3CE9 JUMPI PUSH2 0x3CE8 PUSH2 0x5A76 JUMP JUMPDEST JUMPDEST SWAP1 PUSH0 MSTORE PUSH1 0x20 PUSH0 KECCAK256 SWAP1 PUSH1 0x4 MUL ADD PUSH1 0x1 ADD SLOAD DUP3 DUP3 DUP2 SLOAD DUP2 LT PUSH2 0x3D0C JUMPI PUSH2 0x3D0B PUSH2 0x5A76 JUMP JUMPDEST JUMPDEST SWAP1 PUSH0 MSTORE PUSH1 0x20 PUSH0 KECCAK256 SWAP1 PUSH1 0x4 MUL ADD PUSH0 ADD SLOAD PUSH2 0x3D25 SWAP2 SWAP1 PUSH2 0x51DF JUMP JUMPDEST DUP7 PUSH2 0x3D30 SWAP2 SWAP1 PUSH2 0x50DC JUMP JUMPDEST SWAP6 POP DUP2 DUP2 DUP2 SLOAD DUP2 LT PUSH2 0x3D45 JUMPI PUSH2 0x3D44 PUSH2 0x5A76 JUMP JUMPDEST JUMPDEST SWAP1 PUSH0 MSTORE PUSH1 0x20 PUSH0 KECCAK256 SWAP1 PUSH1 0x4 MUL ADD PUSH0 ADD SLOAD DUP6 PUSH2 0x3D5F SWAP2 SWAP1 PUSH2 0x50DC JUMP JUMPDEST SWAP5 POP JUMPDEST DUP1 DUP1 PUSH2 0x3D6D SWAP1 PUSH2 0x5323 JUMP JUMPDEST SWAP2 POP POP PUSH2 0x3C96 JUMP JUMPDEST POP POP POP DUP1 DUP1 PUSH2 0x3D83 SWAP1 PUSH2 0x5323 JUMP JUMPDEST SWAP2 POP POP PUSH2 0x3C08 JUMP JUMPDEST POP PUSH0 DUP2 SUB PUSH2 0x3D9F JUMPI PUSH1 0x8 SLOAD SWAP3 POP POP POP PUSH2 0x3DB0 JUMP JUMPDEST DUP1 DUP3 PUSH2 0x3DAB SWAP2 SWAP1 PUSH2 0x53FF JUMP JUMPDEST SWAP3 POP POP POP JUMPDEST SWAP1 JUMP JUMPDEST PUSH0 DUP1 PUSH0 SWAP1 POP PUSH0 JUMPDEST PUSH1 0x10 DUP1 SLOAD SWAP1 POP DUP2 LT ISZERO PUSH2 0x3EE1 JUMPI PUSH0 PUSH1 0x10 DUP3 DUP2 SLOAD DUP2 LT PUSH2 0x3DDC JUMPI PUSH2 0x3DDB PUSH2 0x5A76 JUMP JUMPDEST JUMPDEST SWAP1 PUSH0 MSTORE PUSH1 0x20 PUSH0 KECCAK256 ADD PUSH0 SWAP1 SLOAD SWAP1 PUSH2 0x100 EXP SWAP1 DIV PUSH20 0xFFFFFFFFFFFFFFFFFFFFFFFFFFFFFFFFFFFFFFFF AND SWAP1 POP PUSH0 PUSH1 0xB PUSH0 DUP4 PUSH20 0xFFFFFFFFFFFFFFFFFFFFFFFFFFFFFFFFFFFFFFFF AND PUSH20 0xFFFFFFFFFFFFFFFFFFFFFFFFFFFFFFFFFFFFFFFF AND DUP2 MSTORE PUSH1 0x20 ADD SWAP1 DUP2 MSTORE PUSH1 0x20 ADD PUSH0 KECCAK256 SWAP1 POP PUSH0 JUMPDEST DUP2 DUP1 SLOAD SWAP1 POP DUP2 LT ISZERO PUSH2 0x3ECB JUMPI DUP2 DUP2 DUP2 SLOAD DUP2 LT PUSH2 0x3E67 JUMPI PUSH2 0x3E66 PUSH2 0x5A76 JUMP JUMPDEST JUMPDEST SWAP1 PUSH0 MSTORE PUSH1 0x20 PUSH0 KECCAK256 SWAP1 PUSH1 0x4 MUL ADD PUSH1 0x3 ADD PUSH0 SWAP1 SLOAD SWAP1 PUSH2 0x100 EXP SWAP1 DIV PUSH1 0xFF AND ISZERO PUSH2 0x3EB8 JUMPI DUP2 DUP2 DUP2 SLOAD DUP2 LT PUSH2 0x3E9B JUMPI PUSH2 0x3E9A PUSH2 0x5A76 JUMP JUMPDEST JUMPDEST SWAP1 PUSH0 MSTORE PUSH1 0x20 PUSH0 KECCAK256 SWAP1 PUSH1 0x4 MUL ADD PUSH0 ADD SLOAD DUP6 PUSH2 0x3EB5 SWAP2 SWAP1 PUSH2 0x50DC JUMP JUMPDEST SWAP5 POP JUMPDEST DUP1 DUP1 PUSH2 0x3EC3 SWAP1 PUSH2 0x5323 JUMP JUMPDEST SWAP2 POP POP PUSH2 0x3E48 JUMP JUMPDEST POP POP POP DUP1 DUP1 PUSH2 0x3ED9 SWAP1 PUSH2 0x5323 JUMP JUMPDEST SWAP2 POP POP PUSH2 0x3DBA JUMP JUMPDEST POP DUP1 SWAP2 POP POP SWAP1 JUMP JUMPDEST PUSH2 0x3EF2 CALLER PUSH2 0x2B39 JUMP JUMPDEST PUSH2 0x3F31 JUMPI PUSH1 0x40 MLOAD PUSH32 0x8C379A000000000000000000000000000000000000000000000000000000000 DUP2 MSTORE PUSH1 0x4 ADD PUSH2 0x3F28 SWAP1 PUSH2 0x5091 JUMP JUMPDEST PUSH1 0x40 MLOAD DUP1 SWAP2 SUB SWAP1 REVERT JUMPDEST PUSH0 DUP2 GT PUSH2 0x3F73 JUMPI PUSH1 0x40 MLOAD PUSH32 0x8C379A000000000000000000000000000000000000000000000000000000000 DUP2 MSTORE PUSH1 0x4 ADD PUSH2 0x3F6A SWAP1 PUSH2 0x5DD7 JUMP JUMPDEST PUSH1 0x40 MLOAD DUP1 SWAP2 SUB SWAP1 REVERT JUMPDEST PUSH0 PUSH1 0x7 SLOAD GT ISZERO PUSH2 0x400D JUMPI PUSH0 PUSH1 0x7 SLOAD PUSH3 0xF4240 PUSH1 0x7 SLOAD DUP5 GT PUSH2 0x3FA1 JUMPI DUP4 PUSH1 0x7 SLOAD PUSH2 0x3F9C SWAP2 SWAP1 PUSH2 0x5220 JUMP JUMPDEST PUSH2 0x3FB0 JUMP JUMPDEST PUSH1 0x7 SLOAD DUP5 PUSH2 0x3FAF SWAP2 SWAP1 PUSH2 0x5220 JUMP JUMPDEST JUMPDEST PUSH2 0x3FBA SWAP2 SWAP1 PUSH2 0x51DF JUMP JUMPDEST PUSH2 0x3FC4 SWAP2 SWAP1 PUSH2 0x53FF JUMP JUMPDEST SWAP1 POP PUSH2 0x23F0 DUP2 GT ISZERO PUSH2 0x400B JUMPI PUSH1 0x40 MLOAD PUSH32 0x8C379A000000000000000000000000000000000000000000000000000000000 DUP2 MSTORE PUSH1 0x4 ADD PUSH2 0x4002 SWAP1 PUSH2 0x5E3F JUMP JUMPDEST PUSH1 0x40 MLOAD DUP1 SWAP2 SUB SWAP1 REVERT JUMPDEST POP JUMPDEST PUSH1 0x8 SLOAD PUSH1 0x7 DUP2 SWAP1 SSTORE POP DUP1 PUSH1 0x8 DUP2 SWAP1 SSTORE POP PUSH32 0x66CBCA4F3C64FECF1DCB9CE094ABCF7F68C3450A1D4E3A8E917DD621EDB4EBE0 DUP2 PUSH1 0x40 MLOAD PUSH2 0x404C SWAP2 SWAP1 PUSH2 0x49D0 JUMP JUMPDEST PUSH1 0x40 MLOAD DUP1 SWAP2 SUB SWAP1 LOG1 POP JUMP JUMPDEST PUSH0 DUP1 PUSH0 PUSH1 0x41 DUP5 MLOAD SUB PUSH2 0x4097 JUMPI PUSH0 DUP1 PUSH0 PUSH1 0x20 DUP8 ADD MLOAD SWAP3 POP PUSH1 0x40 DUP8 ADD MLOAD SWAP2 POP PUSH1 0x60 DUP8 ADD MLOAD PUSH0 BYTE SWAP1 POP PUSH2 0x4089 DUP9 DUP3 DUP6 DUP6 PUSH2 0x477C JUMP JUMPDEST SWAP6 POP SWAP6 POP SWAP6 POP POP POP POP PUSH2 0x40A5 JUMP JUMPDEST PUSH0 PUSH1 0x2 DUP6 MLOAD PUSH0 SHL SWAP3 POP SWAP3 POP SWAP3 POP JUMPDEST SWAP3 POP SWAP3 POP SWAP3 JUMP JUMPDEST PUSH0 PUSH1 0x3 DUP2 GT ISZERO PUSH2 0x40BF JUMPI PUSH2 0x40BE PUSH2 0x5E5D JUMP JUMPDEST JUMPDEST DUP3 PUSH1 0x3 DUP2 GT ISZERO PUSH2 0x40D2 JUMPI PUSH2 0x40D1 PUSH2 0x5E5D JUMP JUMPDEST JUMPDEST SUB ISZERO PUSH2 0x420A JUMPI PUSH1 0x1 PUSH1 0x3 DUP2 GT ISZERO PUSH2 0x40EC JUMPI PUSH2 0x40EB PUSH2 0x5E5D JUMP JUMPDEST JUMPDEST DUP3 PUSH1 0x3 DUP2 GT ISZERO PUSH2 0x40FF JUMPI PUSH2 0x40FE PUSH2 0x5E5D JUMP JUMPDEST JUMPDEST SUB PUSH2 0x4136 JUMPI PUSH1 0x40 MLOAD PUSH32 0xF645EEDF00000000000000000000000000000000000000000000000000000000 DUP2 MSTORE PUSH1 0x4 ADD PUSH1 0x40 MLOAD DUP1 SWAP2 SUB SWAP1 REVERT JUMPDEST PUSH1 0x2 PUSH1 0x3 DUP2 GT ISZERO PUSH2 0x414A JUMPI PUSH2 0x4149 PUSH2 0x5E5D JUMP JUMPDEST JUMPDEST DUP3 PUSH1 0x3 DUP2 GT ISZERO PUSH2 0x415D JUMPI PUSH2 0x415C PUSH2 0x5E5D JUMP JUMPDEST JUMPDEST SUB PUSH2 0x41A1 JUMPI DUP1 PUSH0 SHR PUSH1 0x40 MLOAD PUSH32 0xFCE698F700000000000000000000000000000000000000000000000000000000 DUP2 MSTORE PUSH1 0x4 ADD PUSH2 0x4198 SWAP2 SWAP1 PUSH2 0x49D0 JUMP JUMPDEST PUSH1 0x40 MLOAD DUP1 SWAP2 SUB SWAP1 REVERT JUMPDEST PUSH1 0x3 DUP1 DUP2 GT ISZERO PUSH2 0x41B4 JUMPI PUSH2 0x41B3 PUSH2 0x5E5D JUMP JUMPDEST JUMPDEST DUP3 PUSH1 0x3 DUP2 GT ISZERO PUSH2 0x41C7 JUMPI PUSH2 0x41C6 PUSH2 0x5E5D JUMP JUMPDEST JUMPDEST SUB PUSH2 0x4209 JUMPI DUP1 PUSH1 0x40 MLOAD PUSH32 0xD78BCE0C00000000000000000000000000000000000000000000000000000000 DUP2 MSTORE PUSH1 0x4 ADD PUSH2 0x4200 SWAP2 SWAP1 PUSH2 0x4D78 JUMP JUMPDEST PUSH1 0x40 MLOAD DUP1 SWAP2 SUB SWAP1 REVERT JUMPDEST JUMPDEST POP POP JUMP JUMPDEST PUSH1 0x60 PUSH0 DUP1 JUMPDEST PUSH1 0x10 DUP1 SLOAD SWAP1 POP DUP2 LT ISZERO PUSH2 0x42BC JUMPI PUSH1 0xC PUSH0 PUSH1 0x10 DUP4 DUP2 SLOAD DUP2 LT PUSH2 0x4237 JUMPI PUSH2 0x4236 PUSH2 0x5A76 JUMP JUMPDEST JUMPDEST SWAP1 PUSH0 MSTORE PUSH1 0x20 PUSH0 KECCAK256 ADD PUSH0 SWAP1 SLOAD SWAP1 PUSH2 0x100 EXP SWAP1 DIV PUSH20 0xFFFFFFFFFFFFFFFFFFFFFFFFFFFFFFFFFFFFFFFF AND PUSH20 0xFFFFFFFFFFFFFFFFFFFFFFFFFFFFFFFFFFFFFFFF AND PUSH20 0xFFFFFFFFFFFFFFFFFFFFFFFFFFFFFFFFFFFFFFFF AND DUP2 MSTORE PUSH1 0x20 ADD SWAP1 DUP2 MSTORE PUSH1 0x20 ADD PUSH0 KECCAK256 DUP1 SLOAD SWAP1 POP DUP3 PUSH2 0x42A7 SWAP2 SWAP1 PUSH2 0x50DC JUMP JUMPDEST SWAP2 POP DUP1 DUP1 PUSH2 0x42B4 SWAP1 PUSH2 0x5323 JUMP JUMPDEST SWAP2 POP POP PUSH2 0x4213 JUMP JUMPDEST POP PUSH0 DUP2 PUSH8 0xFFFFFFFFFFFFFFFF DUP2 GT ISZERO PUSH2 0x42D8 JUMPI PUSH2 0x42D7 PUSH2 0x5841 JUMP JUMPDEST JUMPDEST PUSH1 0x40 MLOAD SWAP1 DUP1 DUP3 MSTORE DUP1 PUSH1 0x20 MUL PUSH1 0x20 ADD DUP3 ADD PUSH1 0x40 MSTORE DUP1 ISZERO PUSH2 0x4311 JUMPI DUP2 PUSH1 0x20 ADD JUMPDEST PUSH2 0x42FE PUSH2 0x48EA JUMP JUMPDEST DUP2 MSTORE PUSH1 0x20 ADD SWAP1 PUSH1 0x1 SWAP1 SUB SWAP1 DUP2 PUSH2 0x42F6 JUMPI SWAP1 POP JUMPDEST POP SWAP1 POP PUSH0 DUP1 JUMPDEST PUSH1 0x10 DUP1 SLOAD SWAP1 POP DUP2 LT ISZERO PUSH2 0x4496 JUMPI PUSH0 PUSH1 0xC PUSH0 PUSH1 0x10 DUP5 DUP2 SLOAD DUP2 LT PUSH2 0x433C JUMPI PUSH2 0x433B PUSH2 0x5A76 JUMP JUMPDEST JUMPDEST SWAP1 PUSH0 MSTORE PUSH1 0x20 PUSH0 KECCAK256 ADD PUSH0 SWAP1 SLOAD SWAP1 PUSH2 0x100 EXP SWAP1 DIV PUSH20 0xFFFFFFFFFFFFFFFFFFFFFFFFFFFFFFFFFFFFFFFF AND PUSH20 0xFFFFFFFFFFFFFFFFFFFFFFFFFFFFFFFFFFFFFFFF AND PUSH20 0xFFFFFFFFFFFFFFFFFFFFFFFFFFFFFFFFFFFFFFFF AND DUP2 MSTORE PUSH1 0x20 ADD SWAP1 DUP2 MSTORE PUSH1 0x20 ADD PUSH0 KECCAK256 SWAP1 POP PUSH0 JUMPDEST DUP2 DUP1 SLOAD SWAP1 POP DUP2 LT ISZERO PUSH2 0x4481 JUMPI DUP2 DUP2 DUP2 SLOAD DUP2 LT PUSH2 0x43C0 JUMPI PUSH2 0x43BF PUSH2 0x5A76 JUMP JUMPDEST JUMPDEST SWAP1 PUSH0 MSTORE PUSH1 0x20 PUSH0 KECCAK256 SWAP1 PUSH1 0x4 MUL ADD PUSH1 0x3 ADD PUSH0 SWAP1 SLOAD SWAP1 PUSH2 0x100 EXP SWAP1 DIV PUSH1 0xFF AND PUSH2 0x446E JUMPI DUP2 DUP2 DUP2 SLOAD DUP2 LT PUSH2 0x43F3 JUMPI PUSH2 0x43F2 PUSH2 0x5A76 JUMP JUMPDEST JUMPDEST SWAP1 PUSH0 MSTORE PUSH1 0x20 PUSH0 KECCAK256 SWAP1 PUSH1 0x4 MUL ADD PUSH1 0x40 MLOAD DUP1 PUSH1 0x80 ADD PUSH1 0x40 MSTORE SWAP1 DUP2 PUSH0 DUP3 ADD SLOAD DUP2 MSTORE PUSH1 0x20 ADD PUSH1 0x1 DUP3 ADD SLOAD DUP2 MSTORE PUSH1 0x20 ADD PUSH1 0x2 DUP3 ADD SLOAD DUP2 MSTORE PUSH1 0x20 ADD PUSH1 0x3 DUP3 ADD PUSH0 SWAP1 SLOAD SWAP1 PUSH2 0x100 EXP SWAP1 DIV PUSH1 0xFF AND ISZERO ISZERO ISZERO ISZERO DUP2 MSTORE POP POP DUP6 DUP6 DUP2 MLOAD DUP2 LT PUSH2 0x4454 JUMPI PUSH2 0x4453 PUSH2 0x5A76 JUMP JUMPDEST JUMPDEST PUSH1 0x20 MUL PUSH1 0x20 ADD ADD DUP2 SWAP1 MSTORE POP DUP4 DUP1 PUSH2 0x446A SWAP1 PUSH2 0x5323 JUMP JUMPDEST SWAP5 POP POP JUMPDEST DUP1 DUP1 PUSH2 0x4479 SWAP1 PUSH2 0x5323 JUMP JUMPDEST SWAP2 POP POP PUSH2 0x43A1 JUMP JUMPDEST POP POP DUP1 DUP1 PUSH2 0x448E SWAP1 PUSH2 0x5323 JUMP JUMPDEST SWAP2 POP POP PUSH2 0x4317 JUMP JUMPDEST POP DUP2 SWAP4 POP POP POP POP SWAP1 JUMP JUMPDEST PUSH0 JUMPDEST DUP2 MLOAD DUP2 LT ISZERO PUSH2 0x45D4 JUMPI PUSH0 JUMPDEST PUSH1 0x1 DUP3 DUP5 MLOAD PUSH2 0x44BC SWAP2 SWAP1 PUSH2 0x5220 JUMP JUMPDEST PUSH2 0x44C6 SWAP2 SWAP1 PUSH2 0x5220 JUMP JUMPDEST DUP2 LT ISZERO PUSH2 0x45C0 JUMPI DUP3 PUSH1 0x1 DUP3 PUSH2 0x44DB SWAP2 SWAP1 PUSH2 0x50DC JUMP JUMPDEST DUP2 MLOAD DUP2 LT PUSH2 0x44EC JUMPI PUSH2 0x44EB PUSH2 0x5A76 JUMP JUMPDEST JUMPDEST PUSH1 0x20 MUL PUSH1 0x20 ADD ADD MLOAD PUSH1 0x20 ADD MLOAD DUP4 DUP3 DUP2 MLOAD DUP2 LT PUSH2 0x450B JUMPI PUSH2 0x450A PUSH2 0x5A76 JUMP JUMPDEST JUMPDEST PUSH1 0x20 MUL PUSH1 0x20 ADD ADD MLOAD PUSH1 0x20 ADD MLOAD LT ISZERO PUSH2 0x45AD JUMPI PUSH0 DUP4 DUP3 DUP2 MLOAD DUP2 LT PUSH2 0x4531 JUMPI PUSH2 0x4530 PUSH2 0x5A76 JUMP JUMPDEST JUMPDEST PUSH1 0x20 MUL PUSH1 0x20 ADD ADD MLOAD SWAP1 POP DUP4 PUSH1 0x1 DUP4 PUSH2 0x4549 SWAP2 SWAP1 PUSH2 0x50DC JUMP JUMPDEST DUP2 MLOAD DUP2 LT PUSH2 0x455A JUMPI PUSH2 0x4559 PUSH2 0x5A76 JUMP JUMPDEST JUMPDEST PUSH1 0x20 MUL PUSH1 0x20 ADD ADD MLOAD DUP5 DUP4 DUP2 MLOAD DUP2 LT PUSH2 0x4575 JUMPI PUSH2 0x4574 PUSH2 0x5A76 JUMP JUMPDEST JUMPDEST PUSH1 0x20 MUL PUSH1 0x20 ADD ADD DUP2 SWAP1 MSTORE POP DUP1 DUP5 PUSH1 0x1 DUP5 PUSH2 0x458F SWAP2 SWAP1 PUSH2 0x50DC JUMP JUMPDEST DUP2 MLOAD DUP2 LT PUSH2 0x45A0 JUMPI PUSH2 0x459F PUSH2 0x5A76 JUMP JUMPDEST JUMPDEST PUSH1 0x20 MUL PUSH1 0x20 ADD ADD DUP2 SWAP1 MSTORE POP POP JUMPDEST DUP1 DUP1 PUSH2 0x45B8 SWAP1 PUSH2 0x5323 JUMP JUMPDEST SWAP2 POP POP PUSH2 0x44AD JUMP JUMPDEST POP DUP1 DUP1 PUSH2 0x45CC SWAP1 PUSH2 0x5323 JUMP JUMPDEST SWAP2 POP POP PUSH2 0x44A2 JUMP JUMPDEST POP POP JUMP JUMPDEST PUSH0 DUP1 PUSH0 SWAP1 POP JUMPDEST PUSH1 0x10 DUP1 SLOAD SWAP1 POP DUP2 LT ISZERO PUSH2 0x473B JUMPI PUSH0 PUSH1 0x10 DUP3 DUP2 SLOAD DUP2 LT PUSH2 0x4600 JUMPI PUSH2 0x45FF PUSH2 0x5A76 JUMP JUMPDEST JUMPDEST SWAP1 PUSH0 MSTORE PUSH1 0x20 PUSH0 KECCAK256 ADD PUSH0 SWAP1 SLOAD SWAP1 PUSH2 0x100 EXP SWAP1 DIV PUSH20 0xFFFFFFFFFFFFFFFFFFFFFFFFFFFFFFFFFFFFFFFF AND SWAP1 POP PUSH0 PUSH1 0xC PUSH0 DUP4 PUSH20 0xFFFFFFFFFFFFFFFFFFFFFFFFFFFFFFFFFFFFFFFF AND PUSH20 0xFFFFFFFFFFFFFFFFFFFFFFFFFFFFFFFFFFFFFFFF AND DUP2 MSTORE PUSH1 0x20 ADD SWAP1 DUP2 MSTORE PUSH1 0x20 ADD PUSH0 KECCAK256 SWAP1 POP PUSH0 JUMPDEST DUP2 DUP1 SLOAD SWAP1 POP DUP2 LT ISZERO PUSH2 0x4725 JUMPI DUP6 PUSH1 0x40 ADD MLOAD DUP3 DUP3 DUP2 SLOAD DUP2 LT PUSH2 0x4690 JUMPI PUSH2 0x468F PUSH2 0x5A76 JUMP JUMPDEST JUMPDEST SWAP1 PUSH0 MSTORE PUSH1 0x20 PUSH0 KECCAK256 SWAP1 PUSH1 0x4 MUL ADD PUSH1 0x2 ADD SLOAD EQ DUP1 ISZERO PUSH2 0x46D0 JUMPI POP DUP6 PUSH0 ADD MLOAD DUP3 DUP3 DUP2 SLOAD DUP2 LT PUSH2 0x46BF JUMPI PUSH2 0x46BE PUSH2 0x5A76 JUMP JUMPDEST JUMPDEST SWAP1 PUSH0 MSTORE PUSH1 0x20 PUSH0 KECCAK256 SWAP1 PUSH1 0x4 MUL ADD PUSH0 ADD SLOAD EQ JUMPDEST DUP1 ISZERO PUSH2 0x4701 JUMPI POP DUP6 PUSH1 0x20 ADD MLOAD DUP3 DUP3 DUP2 SLOAD DUP2 LT PUSH2 0x46EF JUMPI PUSH2 0x46EE PUSH2 0x5A76 JUMP JUMPDEST JUMPDEST SWAP1 PUSH0 MSTORE PUSH1 0x20 PUSH0 KECCAK256 SWAP1 PUSH1 0x4 MUL ADD PUSH1 0x1 ADD SLOAD EQ JUMPDEST ISZERO PUSH2 0x4712 JUMPI DUP3 SWAP5 POP POP POP POP POP PUSH2 0x4777 JUMP JUMPDEST DUP1 DUP1 PUSH2 0x471D SWAP1 PUSH2 0x5323 JUMP JUMPDEST SWAP2 POP POP PUSH2 0x466C JUMP JUMPDEST POP POP POP DUP1 DUP1 PUSH2 0x4733 SWAP1 PUSH2 0x5323 JUMP JUMPDEST SWAP2 POP POP PUSH2 0x45DE JUMP JUMPDEST POP PUSH1 0x40 MLOAD PUSH32 0x8C379A000000000000000000000000000000000000000000000000000000000 DUP2 MSTORE PUSH1 0x4 ADD PUSH2 0x476E SWAP1 PUSH2 0x5ED4 JUMP JUMPDEST PUSH1 0x40 MLOAD DUP1 SWAP2 SUB SWAP1 REVERT JUMPDEST SWAP2 SWAP1 POP JUMP JUMPDEST PUSH0 DUP1 PUSH0 PUSH32 0x7FFFFFFFFFFFFFFFFFFFFFFFFFFFFFFF5D576E7357A4501DDFE92F46681B20A0 DUP5 PUSH0 SHR GT ISZERO PUSH2 0x47B8 JUMPI PUSH0 PUSH1 0x3 DUP6 SWAP3 POP SWAP3 POP SWAP3 POP PUSH2 0x4859 JUMP JUMPDEST PUSH0 PUSH1 0x1 DUP9 DUP9 DUP9 DUP9 PUSH1 0x40 MLOAD PUSH0 DUP2 MSTORE PUSH1 0x20 ADD PUSH1 0x40 MSTORE PUSH1 0x40 MLOAD PUSH2 0x47DB SWAP5 SWAP4 SWAP3 SWAP2 SWAP1 PUSH2 0x5EF2 JUMP JUMPDEST PUSH1 0x20 PUSH1 0x40 MLOAD PUSH1 0x20 DUP2 SUB SWAP1 DUP1 DUP5 SUB SWAP1 DUP6 GAS STATICCALL ISZERO DUP1 ISZERO PUSH2 0x47FB JUMPI RETURNDATASIZE PUSH0 DUP1 RETURNDATACOPY RETURNDATASIZE PUSH0 REVERT JUMPDEST POP POP POP PUSH1 0x20 PUSH1 0x40 MLOAD SUB MLOAD SWAP1 POP PUSH0 PUSH20 0xFFFFFFFFFFFFFFFFFFFFFFFFFFFFFFFFFFFFFFFF AND DUP2 PUSH20 0xFFFFFFFFFFFFFFFFFFFFFFFFFFFFFFFFFFFFFFFF AND SUB PUSH2 0x484C JUMPI PUSH0 PUSH1 0x1 PUSH0 DUP1 SHL SWAP4 POP SWAP4 POP SWAP4 POP POP PUSH2 0x4859 JUMP JUMPDEST DUP1 PUSH0 DUP1 PUSH0 SHL SWAP4 POP SWAP4 POP SWAP4 POP POP JUMPDEST SWAP5 POP SWAP5 POP SWAP5 SWAP2 POP POP JUMP JUMPDEST DUP3 DUP1 SLOAD DUP3 DUP3 SSTORE SWAP1 PUSH0 MSTORE PUSH1 0x20 PUSH0 KECCAK256 SWAP1 DUP2 ADD SWAP3 DUP3 ISZERO PUSH2 0x48D9 JUMPI SWAP2 PUSH1 0x20 MUL DUP3 ADD JUMPDEST DUP3 DUP2 GT ISZERO PUSH2 0x48D8 JUMPI DUP3 MLOAD DUP3 PUSH0 PUSH2 0x100 EXP DUP2 SLOAD DUP2 PUSH20 0xFFFFFFFFFFFFFFFFFFFFFFFFFFFFFFFFFFFFFFFF MUL NOT AND SWAP1 DUP4 PUSH20 0xFFFFFFFFFFFFFFFFFFFFFFFFFFFFFFFFFFFFFFFF AND MUL OR SWAP1 SSTORE POP SWAP2 PUSH1 0x20 ADD SWAP2 SWAP1 PUSH1 0x1 ADD SWAP1 PUSH2 0x4881 JUMP JUMPDEST JUMPDEST POP SWAP1 POP PUSH2 0x48E6 SWAP2 SWAP1 PUSH2 0x4910 JUMP JUMPDEST POP SWAP1 JUMP JUMPDEST PUSH1 0x40 MLOAD DUP1 PUSH1 0x80 ADD PUSH1 0x40 MSTORE DUP1 PUSH0 DUP2 MSTORE PUSH1 0x20 ADD PUSH0 DUP2 MSTORE PUSH1 0x20 ADD PUSH0 DUP2 MSTORE PUSH1 0x20 ADD PUSH0 ISZERO ISZERO DUP2 MSTORE POP SWAP1 JUMP JUMPDEST JUMPDEST DUP1 DUP3 GT ISZERO PUSH2 0x4927 JUMPI PUSH0 DUP2 PUSH0 SWAP1 SSTORE POP PUSH1 0x1 ADD PUSH2 0x4911 JUMP JUMPDEST POP SWAP1 JUMP JUMPDEST PUSH0 DUP1 REVERT JUMPDEST PUSH0 DUP1 REVERT JUMPDEST PUSH0 PUSH20 0xFFFFFFFFFFFFFFFFFFFFFFFFFFFFFFFFFFFFFFFF DUP3 AND SWAP1 POP SWAP2 SWAP1 POP JUMP JUMPDEST PUSH0 PUSH2 0x495C DUP3 PUSH2 0x4933 JUMP JUMPDEST SWAP1 POP SWAP2 SWAP1 POP JUMP JUMPDEST PUSH2 0x496C DUP2 PUSH2 0x4952 JUMP JUMPDEST DUP2 EQ PUSH2 0x4976 JUMPI PUSH0 DUP1 REVERT JUMPDEST POP JUMP JUMPDEST PUSH0 DUP2 CALLDATALOAD SWAP1 POP PUSH2 0x4987 DUP2 PUSH2 0x4963 JUMP JUMPDEST SWAP3 SWAP2 POP POP JUMP JUMPDEST PUSH0 PUSH1 0x20 DUP3 DUP5 SUB SLT ISZERO PUSH2 0x49A2 JUMPI PUSH2 0x49A1 PUSH2 0x492B JUMP JUMPDEST JUMPDEST PUSH0 PUSH2 0x49AF DUP5 DUP3 DUP6 ADD PUSH2 0x4979 JUMP JUMPDEST SWAP2 POP POP SWAP3 SWAP2 POP POP JUMP JUMPDEST PUSH0 DUP2 SWAP1 POP SWAP2 SWAP1 POP JUMP JUMPDEST PUSH2 0x49CA DUP2 PUSH2 0x49B8 JUMP JUMPDEST DUP3 MSTORE POP POP JUMP JUMPDEST PUSH0 PUSH1 0x20 DUP3 ADD SWAP1 POP PUSH2 0x49E3 PUSH0 DUP4 ADD DUP5 PUSH2 0x49C1 JUMP JUMPDEST SWAP3 SWAP2 POP POP JUMP JUMPDEST PUSH0 DUP2 MLOAD SWAP1 POP SWAP2 SWAP1 POP JUMP JUMPDEST PUSH0 DUP3 DUP3 MSTORE PUSH1 0x20 DUP3 ADD SWAP1 POP SWAP3 SWAP2 POP POP JUMP JUMPDEST PUSH0 JUMPDEST DUP4 DUP2 LT ISZERO PUSH2 0x4A20 JUMPI DUP1 DUP3 ADD MLOAD DUP2 DUP5 ADD MSTORE PUSH1 0x20 DUP2 ADD SWAP1 POP PUSH2 0x4A05 JUMP JUMPDEST PUSH0 DUP5 DUP5 ADD MSTORE POP POP POP POP JUMP JUMPDEST PUSH0 PUSH1 0x1F NOT PUSH1 0x1F DUP4 ADD AND SWAP1 POP SWAP2 SWAP1 POP JUMP JUMPDEST PUSH0 PUSH2 0x4A45 DUP3 PUSH2 0x49E9 JUMP JUMPDEST PUSH2 0x4A4F DUP2 DUP6 PUSH2 0x49F3 JUMP JUMPDEST SWAP4 POP PUSH2 0x4A5F DUP2 DUP6 PUSH1 0x20 DUP7 ADD PUSH2 0x4A03 JUMP JUMPDEST PUSH2 0x4A68 DUP2 PUSH2 0x4A2B JUMP JUMPDEST DUP5 ADD SWAP2 POP POP SWAP3 SWAP2 POP POP JUMP JUMPDEST PUSH0 PUSH1 0x20 DUP3 ADD SWAP1 POP DUP2 DUP2 SUB PUSH0 DUP4 ADD MSTORE PUSH2 0x4A8B DUP2 DUP5 PUSH2 0x4A3B JUMP JUMPDEST SWAP1 POP SWAP3 SWAP2 POP POP JUMP JUMPDEST PUSH2 0x4A9C DUP2 PUSH2 0x49B8 JUMP JUMPDEST DUP2 EQ PUSH2 0x4AA6 JUMPI PUSH0 DUP1 REVERT JUMPDEST POP JUMP JUMPDEST PUSH0 DUP2 CALLDATALOAD SWAP1 POP PUSH2 0x4AB7 DUP2 PUSH2 0x4A93 JUMP JUMPDEST SWAP3 SWAP2 POP POP JUMP JUMPDEST PUSH0 DUP1 PUSH1 0x40 DUP4 DUP6 SUB SLT ISZERO PUSH2 0x4AD3 JUMPI PUSH2 0x4AD2 PUSH2 0x492B JUMP JUMPDEST JUMPDEST PUSH0 PUSH2 0x4AE0 DUP6 DUP3 DUP7 ADD PUSH2 0x4979 JUMP JUMPDEST SWAP3 POP POP PUSH1 0x20 PUSH2 0x4AF1 DUP6 DUP3 DUP7 ADD PUSH2 0x4AA9 JUMP JUMPDEST SWAP2 POP POP SWAP3 POP SWAP3 SWAP1 POP JUMP JUMPDEST PUSH0 DUP2 ISZERO ISZERO SWAP1 POP SWAP2 SWAP1 POP JUMP JUMPDEST PUSH2 0x4B0F DUP2 PUSH2 0x4AFB JUMP JUMPDEST DUP3 MSTORE POP POP JUMP JUMPDEST PUSH0 PUSH1 0x80 DUP3 ADD SWAP1 POP PUSH2 0x4B28 PUSH0 DUP4 ADD DUP8 PUSH2 0x49C1 JUMP JUMPDEST PUSH2 0x4B35 PUSH1 0x20 DUP4 ADD DUP7 PUSH2 0x49C1 JUMP JUMPDEST PUSH2 0x4B42 PUSH1 0x40 DUP4 ADD DUP6 PUSH2 0x49C1 JUMP JUMPDEST PUSH2 0x4B4F PUSH1 0x60 DUP4 ADD DUP5 PUSH2 0x4B06 JUMP JUMPDEST SWAP6 SWAP5 POP POP POP POP POP JUMP JUMPDEST PUSH0 PUSH1 0x20 DUP3 ADD SWAP1 POP PUSH2 0x4B6B PUSH0 DUP4 ADD DUP5 PUSH2 0x4B06 JUMP JUMPDEST SWAP3 SWAP2 POP POP JUMP JUMPDEST PUSH0 DUP2 SWAP1 POP SWAP2 SWAP1 POP JUMP JUMPDEST PUSH2 0x4B83 DUP2 PUSH2 0x4B71 JUMP JUMPDEST DUP2 EQ PUSH2 0x4B8D JUMPI PUSH0 DUP1 REVERT JUMPDEST POP JUMP JUMPDEST PUSH0 DUP2 CALLDATALOAD SWAP1 POP PUSH2 0x4B9E DUP2 PUSH2 0x4B7A JUMP JUMPDEST SWAP3 SWAP2 POP POP JUMP JUMPDEST PUSH0 PUSH1 0x20 DUP3 DUP5 SUB SLT ISZERO PUSH2 0x4BB9 JUMPI PUSH2 0x4BB8 PUSH2 0x492B JUMP JUMPDEST JUMPDEST PUSH0 PUSH2 0x4BC6 DUP5 DUP3 DUP6 ADD PUSH2 0x4B90 JUMP JUMPDEST SWAP2 POP POP SWAP3 SWAP2 POP POP JUMP JUMPDEST PUSH2 0x4BD8 DUP2 PUSH2 0x4B71 JUMP JUMPDEST DUP3 MSTORE POP POP JUMP JUMPDEST PUSH2 0x4BE7 DUP2 PUSH2 0x4952 JUMP JUMPDEST DUP3 MSTORE POP POP JUMP JUMPDEST PUSH0 PUSH1 0xC0 DUP3 ADD SWAP1 POP PUSH2 0x4C00 PUSH0 DUP4 ADD DUP10 PUSH2 0x4BCF JUMP JUMPDEST PUSH2 0x4C0D PUSH1 0x20 DUP4 ADD DUP9 PUSH2 0x4BDE JUMP JUMPDEST PUSH2 0x4C1A PUSH1 0x40 DUP4 ADD DUP8 PUSH2 0x49C1 JUMP JUMPDEST PUSH2 0x4C27 PUSH1 0x60 DUP4 ADD DUP7 PUSH2 0x49C1 JUMP JUMPDEST PUSH2 0x4C34 PUSH1 0x80 DUP4 ADD DUP6 PUSH2 0x4B06 JUMP JUMPDEST PUSH2 0x4C41 PUSH1 0xA0 DUP4 ADD DUP5 PUSH2 0x4BCF JUMP JUMPDEST SWAP8 SWAP7 POP POP POP POP POP POP POP JUMP JUMPDEST PUSH0 PUSH1 0x20 DUP3 ADD SWAP1 POP PUSH2 0x4C5F PUSH0 DUP4 ADD DUP5 PUSH2 0x4BDE JUMP JUMPDEST SWAP3 SWAP2 POP POP JUMP JUMPDEST PUSH0 DUP1 PUSH0 PUSH1 0x60 DUP5 DUP7 SUB SLT ISZERO PUSH2 0x4C7C JUMPI PUSH2 0x4C7B PUSH2 0x492B JUMP JUMPDEST JUMPDEST PUSH0 PUSH2 0x4C89 DUP7 DUP3 DUP8 ADD PUSH2 0x4979 JUMP JUMPDEST SWAP4 POP POP PUSH1 0x20 PUSH2 0x4C9A DUP7 DUP3 DUP8 ADD PUSH2 0x4979 JUMP JUMPDEST SWAP3 POP POP PUSH1 0x40 PUSH2 0x4CAB DUP7 DUP3 DUP8 ADD PUSH2 0x4AA9 JUMP JUMPDEST SWAP2 POP POP SWAP3 POP SWAP3 POP SWAP3 JUMP JUMPDEST PUSH0 PUSH1 0xFF DUP3 AND SWAP1 POP SWAP2 SWAP1 POP JUMP JUMPDEST PUSH2 0x4CCA DUP2 PUSH2 0x4CB5 JUMP JUMPDEST DUP3 MSTORE POP POP JUMP JUMPDEST PUSH0 PUSH1 0x20 DUP3 ADD SWAP1 POP PUSH2 0x4CE3 PUSH0 DUP4 ADD DUP5 PUSH2 0x4CC1 JUMP JUMPDEST SWAP3 SWAP2 POP POP JUMP JUMPDEST PUSH0 PUSH1 0x20 DUP3 DUP5 SUB SLT ISZERO PUSH2 0x4CFE JUMPI PUSH2 0x4CFD PUSH2 0x492B JUMP JUMPDEST JUMPDEST PUSH0 PUSH2 0x4D0B DUP5 DUP3 DUP6 ADD PUSH2 0x4AA9 JUMP JUMPDEST SWAP2 POP POP SWAP3 SWAP2 POP POP JUMP JUMPDEST PUSH0 DUP1 PUSH0 DUP1 PUSH1 0x80 DUP6 DUP8 SUB SLT ISZERO PUSH2 0x4D2C JUMPI PUSH2 0x4D2B PUSH2 0x492B JUMP JUMPDEST JUMPDEST PUSH0 PUSH2 0x4D39 DUP8 DUP3 DUP9 ADD PUSH2 0x4B90 JUMP JUMPDEST SWAP5 POP POP PUSH1 0x20 PUSH2 0x4D4A DUP8 DUP3 DUP9 ADD PUSH2 0x4979 JUMP JUMPDEST SWAP4 POP POP PUSH1 0x40 PUSH2 0x4D5B DUP8 DUP3 DUP9 ADD PUSH2 0x4AA9 JUMP JUMPDEST SWAP3 POP POP PUSH1 0x60 PUSH2 0x4D6C DUP8 DUP3 DUP9 ADD PUSH2 0x4B90 JUMP JUMPDEST SWAP2 POP POP SWAP3 SWAP6 SWAP2 SWAP5 POP SWAP3 POP JUMP JUMPDEST PUSH0 PUSH1 0x20 DUP3 ADD SWAP1 POP PUSH2 0x4D8B PUSH0 DUP4 ADD DUP5 PUSH2 0x4BCF JUMP JUMPDEST SWAP3 SWAP2 POP POP JUMP JUMPDEST PUSH2 0x4D9A DUP2 PUSH2 0x4AFB JUMP JUMPDEST DUP2 EQ PUSH2 0x4DA4 JUMPI PUSH0 DUP1 REVERT JUMPDEST POP JUMP JUMPDEST PUSH0 DUP2 CALLDATALOAD SWAP1 POP PUSH2 0x4DB5 DUP2 PUSH2 0x4D91 JUMP JUMPDEST SWAP3 SWAP2 POP POP JUMP JUMPDEST PUSH0 DUP1 PUSH0 PUSH1 0x60 DUP5 DUP7 SUB SLT ISZERO PUSH2 0x4DD2 JUMPI PUSH2 0x4DD1 PUSH2 0x492B JUMP JUMPDEST JUMPDEST PUSH0 PUSH2 0x4DDF DUP7 DUP3 DUP8 ADD PUSH2 0x4AA9 JUMP JUMPDEST SWAP4 POP POP PUSH1 0x20 PUSH2 0x4DF0 DUP7 DUP3 DUP8 ADD PUSH2 0x4AA9 JUMP JUMPDEST SWAP3 POP POP PUSH1 0x40 PUSH2 0x4E01 DUP7 DUP3 DUP8 ADD PUSH2 0x4DA7 JUMP JUMPDEST SWAP2 POP POP SWAP3 POP SWAP3 POP SWAP3 JUMP JUMPDEST PUSH0 DUP1 PUSH0 PUSH1 0x60 DUP5 DUP7 SUB SLT ISZERO PUSH2 0x4E22 JUMPI PUSH2 0x4E21 PUSH2 0x492B JUMP JUMPDEST JUMPDEST PUSH0 PUSH2 0x4E2F DUP7 DUP3 DUP8 ADD PUSH2 0x4AA9 JUMP JUMPDEST SWAP4 POP POP PUSH1 0x20 PUSH2 0x4E40 DUP7 DUP3 DUP8 ADD PUSH2 0x4AA9 JUMP JUMPDEST SWAP3 POP POP PUSH1 0x40 PUSH2 0x4E51 DUP7 DUP3 DUP8 ADD PUSH2 0x4AA9 JUMP JUMPDEST SWAP2 POP POP SWAP3 POP SWAP3 POP SWAP3 JUMP JUMPDEST PUSH0 DUP1 REVERT JUMPDEST PUSH0 DUP1 REVERT JUMPDEST PUSH0 DUP1 REVERT JUMPDEST PUSH0 DUP1 DUP4 PUSH1 0x1F DUP5 ADD SLT PUSH2 0x4E7C JUMPI PUSH2 0x4E7B PUSH2 0x4E5B JUMP JUMPDEST JUMPDEST DUP3 CALLDATALOAD SWAP1 POP PUSH8 0xFFFFFFFFFFFFFFFF DUP2 GT ISZERO PUSH2 0x4E99 JUMPI PUSH2 0x4E98 PUSH2 0x4E5F JUMP JUMPDEST JUMPDEST PUSH1 0x20 DUP4 ADD SWAP2 POP DUP4 PUSH1 0x1 DUP3 MUL DUP4 ADD GT ISZERO PUSH2 0x4EB5 JUMPI PUSH2 0x4EB4 PUSH2 0x4E63 JUMP JUMPDEST JUMPDEST SWAP3 POP SWAP3 SWAP1 POP JUMP JUMPDEST PUSH0 DUP1 PUSH0 DUP1 PUSH0 PUSH1 0x60 DUP7 DUP9 SUB SLT ISZERO PUSH2 0x4ED5 JUMPI PUSH2 0x4ED4 PUSH2 0x492B JUMP JUMPDEST JUMPDEST PUSH0 PUSH2 0x4EE2 DUP9 DUP3 DUP10 ADD PUSH2 0x4B90 JUMP JUMPDEST SWAP6 POP POP PUSH1 0x20 DUP7 ADD CALLDATALOAD PUSH8 0xFFFFFFFFFFFFFFFF DUP2 GT ISZERO PUSH2 0x4F03 JUMPI PUSH2 0x4F02 PUSH2 0x492F JUMP JUMPDEST JUMPDEST PUSH2 0x4F0F DUP9 DUP3 DUP10 ADD PUSH2 0x4E67 JUMP JUMPDEST SWAP5 POP SWAP5 POP POP PUSH1 0x40 DUP7 ADD CALLDATALOAD PUSH8 0xFFFFFFFFFFFFFFFF DUP2 GT ISZERO PUSH2 0x4F32 JUMPI PUSH2 0x4F31 PUSH2 0x492F JUMP JUMPDEST JUMPDEST PUSH2 0x4F3E DUP9 DUP3 DUP10 ADD PUSH2 0x4E67 JUMP JUMPDEST SWAP3 POP SWAP3 POP POP SWAP3 SWAP6 POP SWAP3 SWAP6 SWAP1 SWAP4 POP JUMP JUMPDEST PUSH0 DUP1 PUSH1 0x40 DUP4 DUP6 SUB SLT ISZERO PUSH2 0x4F63 JUMPI PUSH2 0x4F62 PUSH2 0x492B JUMP JUMPDEST JUMPDEST PUSH0 PUSH2 0x4F70 DUP6 DUP3 DUP7 ADD PUSH2 0x4979 JUMP JUMPDEST SWAP3 POP POP PUSH1 0x20 PUSH2 0x4F81 DUP6 DUP3 DUP7 ADD PUSH2 0x4979 JUMP JUMPDEST SWAP2 POP POP SWAP3 POP SWAP3 SWAP1 POP JUMP JUMPDEST PUSH0 PUSH1 0xC0 DUP3 ADD SWAP1 POP PUSH2 0x4F9E PUSH0 DUP4 ADD DUP10 PUSH2 0x49C1 JUMP JUMPDEST PUSH2 0x4FAB PUSH1 0x20 DUP4 ADD DUP9 PUSH2 0x49C1 JUMP JUMPDEST PUSH2 0x4FB8 PUSH1 0x40 DUP4 ADD DUP8 PUSH2 0x49C1 JUMP JUMPDEST PUSH2 0x4FC5 PUSH1 0x60 DUP4 ADD DUP7 PUSH2 0x49C1 JUMP JUMPDEST PUSH2 0x4FD2 PUSH1 0x80 DUP4 ADD DUP6 PUSH2 0x4B06 JUMP JUMPDEST PUSH2 0x4FDF PUSH1 0xA0 DUP4 ADD DUP5 PUSH2 0x4B06 JUMP JUMPDEST SWAP8 SWAP7 POP POP POP POP POP POP POP JUMP JUMPDEST PUSH32 0x4E487B7100000000000000000000000000000000000000000000000000000000 PUSH0 MSTORE PUSH1 0x22 PUSH1 0x4 MSTORE PUSH1 0x24 PUSH0 REVERT JUMPDEST PUSH0 PUSH1 0x2 DUP3 DIV SWAP1 POP PUSH1 0x1 DUP3 AND DUP1 PUSH2 0x502E JUMPI PUSH1 0x7F DUP3 AND SWAP2 POP JUMPDEST PUSH1 0x20 DUP3 LT DUP2 SUB PUSH2 0x5041 JUMPI PUSH2 0x5040 PUSH2 0x4FEA JUMP JUMPDEST JUMPDEST POP SWAP2 SWAP1 POP JUMP JUMPDEST PUSH32 0x51756F72756D206E6F7420616368696576656400000000000000000000000000 PUSH0 DUP3 ADD MSTORE POP JUMP JUMPDEST PUSH0 PUSH2 0x507B PUSH1 0x13 DUP4 PUSH2 0x49F3 JUMP JUMPDEST SWAP2 POP PUSH2 0x5086 DUP3 PUSH2 0x5047 JUMP JUMPDEST PUSH1 0x20 DUP3 ADD SWAP1 POP SWAP2 SWAP1 POP JUMP JUMPDEST PUSH0 PUSH1 0x20 DUP3 ADD SWAP1 POP DUP2 DUP2 SUB PUSH0 DUP4 ADD MSTORE PUSH2 0x50A8 DUP2 PUSH2 0x506F JUMP JUMPDEST SWAP1 POP SWAP2 SWAP1 POP JUMP JUMPDEST PUSH32 0x4E487B7100000000000000000000000000000000000000000000000000000000 PUSH0 MSTORE PUSH1 0x11 PUSH1 0x4 MSTORE PUSH1 0x24 PUSH0 REVERT JUMPDEST PUSH0 PUSH2 0x50E6 DUP3 PUSH2 0x49B8 JUMP JUMPDEST SWAP2 POP PUSH2 0x50F1 DUP4 PUSH2 0x49B8 JUMP JUMPDEST SWAP3 POP DUP3 DUP3 ADD SWAP1 POP DUP1 DUP3 GT ISZERO PUSH2 0x5109 JUMPI PUSH2 0x5108 PUSH2 0x50AF JUMP JUMPDEST JUMPDEST SWAP3 SWAP2 POP POP JUMP JUMPDEST PUSH32 0x546F6F206561726C790000000000000000000000000000000000000000000000 PUSH0 DUP3 ADD MSTORE POP JUMP JUMPDEST PUSH0 PUSH2 0x5143 PUSH1 0x9 DUP4 PUSH2 0x49F3 JUMP JUMPDEST SWAP2 POP PUSH2 0x514E DUP3 PUSH2 0x510F JUMP JUMPDEST PUSH1 0x20 DUP3 ADD SWAP1 POP SWAP2 SWAP1 POP JUMP JUMPDEST PUSH0 PUSH1 0x20 DUP3 ADD SWAP1 POP DUP2 DUP2 SUB PUSH0 DUP4 ADD MSTORE PUSH2 0x5170 DUP2 PUSH2 0x5137 JUMP JUMPDEST SWAP1 POP SWAP2 SWAP1 POP JUMP JUMPDEST PUSH32 0x537570706C792063617020726561636865640000000000000000000000000000 PUSH0 DUP3 ADD MSTORE POP JUMP JUMPDEST PUSH0 PUSH2 0x51AB PUSH1 0x12 DUP4 PUSH2 0x49F3 JUMP JUMPDEST SWAP2 POP PUSH2 0x51B6 DUP3 PUSH2 0x5177 JUMP JUMPDEST PUSH1 0x20 DUP3 ADD SWAP1 POP SWAP2 SWAP1 POP JUMP JUMPDEST PUSH0 PUSH1 0x20 DUP3 ADD SWAP1 POP DUP2 DUP2 SUB PUSH0 DUP4 ADD MSTORE PUSH2 0x51D8 DUP2 PUSH2 0x519F JUMP JUMPDEST SWAP1 POP SWAP2 SWAP1 POP JUMP JUMPDEST PUSH0 PUSH2 0x51E9 DUP3 PUSH2 0x49B8 JUMP JUMPDEST SWAP2 POP PUSH2 0x51F4 DUP4 PUSH2 0x49B8 JUMP JUMPDEST SWAP3 POP DUP3 DUP3 MUL PUSH2 0x5202 DUP2 PUSH2 0x49B8 JUMP JUMPDEST SWAP2 POP DUP3 DUP3 DIV DUP5 EQ DUP4 ISZERO OR PUSH2 0x5219 JUMPI PUSH2 0x5218 PUSH2 0x50AF JUMP JUMPDEST JUMPDEST POP SWAP3 SWAP2 POP POP JUMP JUMPDEST PUSH0 PUSH2 0x522A DUP3 PUSH2 0x49B8 JUMP JUMPDEST SWAP2 POP PUSH2 0x5235 DUP4 PUSH2 0x49B8 JUMP JUMPDEST SWAP3 POP DUP3 DUP3 SUB SWAP1 POP DUP2 DUP2 GT ISZERO PUSH2 0x524D JUMPI PUSH2 0x524C PUSH2 0x50AF JUMP JUMPDEST JUMPDEST SWAP3 SWAP2 POP POP JUMP JUMPDEST PUSH32 0x53756666696369656E7420737570706C79206578697374730000000000000000 PUSH0 DUP3 ADD MSTORE POP JUMP JUMPDEST PUSH0 PUSH2 0x5287 PUSH1 0x18 DUP4 PUSH2 0x49F3 JUMP JUMPDEST SWAP2 POP PUSH2 0x5292 DUP3 PUSH2 0x5253 JUMP JUMPDEST PUSH1 0x20 DUP3 ADD SWAP1 POP SWAP2 SWAP1 POP JUMP JUMPDEST PUSH0 PUSH1 0x20 DUP3 ADD SWAP1 POP DUP2 DUP2 SUB PUSH0 DUP4 ADD MSTORE PUSH2 0x52B4 DUP2 PUSH2 0x527B JUMP JUMPDEST SWAP1 POP SWAP2 SWAP1 POP JUMP JUMPDEST PUSH32 0x496E73756666696369656E742074726561737572790000000000000000000000 PUSH0 DUP3 ADD MSTORE POP JUMP JUMPDEST PUSH0 PUSH2 0x52EF PUSH1 0x15 DUP4 PUSH2 0x49F3 JUMP JUMPDEST SWAP2 POP PUSH2 0x52FA DUP3 PUSH2 0x52BB JUMP JUMPDEST PUSH1 0x20 DUP3 ADD SWAP1 POP SWAP2 SWAP1 POP JUMP JUMPDEST PUSH0 PUSH1 0x20 DUP3 ADD SWAP1 POP DUP2 DUP2 SUB PUSH0 DUP4 ADD MSTORE PUSH2 0x531C DUP2 PUSH2 0x52E3 JUMP JUMPDEST SWAP1 POP SWAP2 SWAP1 POP JUMP JUMPDEST PUSH0 PUSH2 0x532D DUP3 PUSH2 0x49B8 JUMP JUMPDEST SWAP2 POP PUSH32 0xFFFFFFFFFFFFFFFFFFFFFFFFFFFFFFFFFFFFFFFFFFFFFFFFFFFFFFFFFFFFFFFF DUP3 SUB PUSH2 0x535F JUMPI PUSH2 0x535E PUSH2 0x50AF JUMP JUMPDEST JUMPDEST PUSH1 0x1 DUP3 ADD SWAP1 POP SWAP2 SWAP1 POP JUMP JUMPDEST PUSH32 0x42656C6F77203125206D696E696D756D00000000000000000000000000000000 PUSH0 DUP3 ADD MSTORE POP JUMP JUMPDEST PUSH0 PUSH2 0x539E PUSH1 0x10 DUP4 PUSH2 0x49F3 JUMP JUMPDEST SWAP2 POP PUSH2 0x53A9 DUP3 PUSH2 0x536A JUMP JUMPDEST PUSH1 0x20 DUP3 ADD SWAP1 POP SWAP2 SWAP1 POP JUMP JUMPDEST PUSH0 PUSH1 0x20 DUP3 ADD SWAP1 POP DUP2 DUP2 SUB PUSH0 DUP4 ADD MSTORE PUSH2 0x53CB DUP2 PUSH2 0x5392 JUMP JUMPDEST SWAP1 POP SWAP2 SWAP1 POP JUMP JUMPDEST PUSH32 0x4E487B7100000000000000000000000000000000000000000000000000000000 PUSH0 MSTORE PUSH1 0x12 PUSH1 0x4 MSTORE PUSH1 0x24 PUSH0 REVERT JUMPDEST PUSH0 PUSH2 0x5409 DUP3 PUSH2 0x49B8 JUMP JUMPDEST SWAP2 POP PUSH2 0x5414 DUP4 PUSH2 0x49B8 JUMP JUMPDEST SWAP3 POP DUP3 PUSH2 0x5424 JUMPI PUSH2 0x5423 PUSH2 0x53D2 JUMP JUMPDEST JUMPDEST DUP3 DUP3 DIV SWAP1 POP SWAP3 SWAP2 POP POP JUMP JUMPDEST PUSH32 0x496E73756666696369656E742062616C616E6365000000000000000000000000 PUSH0 DUP3 ADD MSTORE POP JUMP JUMPDEST PUSH0 PUSH2 0x5463 PUSH1 0x14 DUP4 PUSH2 0x49F3 JUMP JUMPDEST SWAP2 POP PUSH2 0x546E DUP3 PUSH2 0x542F JUMP JUMPDEST PUSH1 0x20 DUP3 ADD SWAP1 POP SWAP2 SWAP1 POP JUMP JUMPDEST PUSH0 PUSH1 0x20 DUP3 ADD SWAP1 POP DUP2 DUP2 SUB PUSH0 DUP4 ADD MSTORE PUSH2 0x5490 DUP2 PUSH2 0x5457 JUMP JUMPDEST SWAP1 POP SWAP2 SWAP1 POP JUMP JUMPDEST PUSH0 DUP2 SWAP1 POP SWAP2 SWAP1 POP JUMP JUMPDEST PUSH2 0x54B1 PUSH2 0x54AC DUP3 PUSH2 0x4B71 JUMP JUMPDEST PUSH2 0x5497 JUMP JUMPDEST DUP3 MSTORE POP POP JUMP JUMPDEST PUSH0 DUP2 PUSH1 0x60 SHL SWAP1 POP SWAP2 SWAP1 POP JUMP JUMPDEST PUSH0 PUSH2 0x54CD DUP3 PUSH2 0x54B7 JUMP JUMPDEST SWAP1 POP SWAP2 SWAP1 POP JUMP JUMPDEST PUSH0 PUSH2 0x54DE DUP3 PUSH2 0x54C3 JUMP JUMPDEST SWAP1 POP SWAP2 SWAP1 POP JUMP JUMPDEST PUSH2 0x54F6 PUSH2 0x54F1 DUP3 PUSH2 0x4952 JUMP JUMPDEST PUSH2 0x54D4 JUMP JUMPDEST DUP3 MSTORE POP POP JUMP JUMPDEST PUSH0 DUP2 SWAP1 POP SWAP2 SWAP1 POP JUMP JUMPDEST PUSH2 0x5516 PUSH2 0x5511 DUP3 PUSH2 0x49B8 JUMP JUMPDEST PUSH2 0x54FC JUMP JUMPDEST DUP3 MSTORE POP POP JUMP JUMPDEST PUSH0 PUSH2 0x5527 DUP3 DUP8 PUSH2 0x54A0 JUMP JUMPDEST PUSH1 0x20 DUP3 ADD SWAP2 POP PUSH2 0x5537 DUP3 DUP7 PUSH2 0x54E5 JUMP JUMPDEST PUSH1 0x14 DUP3 ADD SWAP2 POP PUSH2 0x5547 DUP3 DUP6 PUSH2 0x5505 JUMP JUMPDEST PUSH1 0x20 DUP3 ADD SWAP2 POP PUSH2 0x5557 DUP3 DUP5 PUSH2 0x5505 JUMP JUMPDEST PUSH1 0x20 DUP3 ADD SWAP2 POP DUP2 SWAP1 POP SWAP6 SWAP5 POP POP POP POP POP JUMP JUMPDEST PUSH32 0x4E6F742044414F206D656D626572000000000000000000000000000000000000 PUSH0 DUP3 ADD MSTORE POP JUMP JUMPDEST PUSH0 PUSH2 0x559D PUSH1 0xE DUP4 PUSH2 0x49F3 JUMP JUMPDEST SWAP2 POP PUSH2 0x55A8 DUP3 PUSH2 0x5569 JUMP JUMPDEST PUSH1 0x20 DUP3 ADD SWAP1 POP SWAP2 SWAP1 POP JUMP JUMPDEST PUSH0 PUSH1 0x20 DUP3 ADD SWAP1 POP DUP2 DUP2 SUB PUSH0 DUP4 ADD MSTORE PUSH2 0x55CA DUP2 PUSH2 0x5591 JUMP JUMPDEST SWAP1 POP SWAP2 SWAP1 POP JUMP JUMPDEST PUSH32 0x42696420746F6F20736D616C6C00000000000000000000000000000000000000 PUSH0 DUP3 ADD MSTORE POP JUMP JUMPDEST PUSH0 PUSH2 0x5605 PUSH1 0xD DUP4 PUSH2 0x49F3 JUMP JUMPDEST SWAP2 POP PUSH2 0x5610 DUP3 PUSH2 0x55D1 JUMP JUMPDEST PUSH1 0x20 DUP3 ADD SWAP1 POP SWAP2 SWAP1 POP JUMP JUMPDEST PUSH0 PUSH1 0x20 DUP3 ADD SWAP1 POP DUP2 DUP2 SUB PUSH0 DUP4 ADD MSTORE PUSH2 0x5632 DUP2 PUSH2 0x55F9 JUMP JUMPDEST SWAP1 POP SWAP2 SWAP1 POP JUMP JUMPDEST PUSH32 0x4578636565647320323525206C696D6974000000000000000000000000000000 PUSH0 DUP3 ADD MSTORE POP JUMP JUMPDEST PUSH0 PUSH2 0x566D PUSH1 0x11 DUP4 PUSH2 0x49F3 JUMP JUMPDEST SWAP2 POP PUSH2 0x5678 DUP3 PUSH2 0x5639 JUMP JUMPDEST PUSH1 0x20 DUP3 ADD SWAP1 POP SWAP2 SWAP1 POP JUMP JUMPDEST PUSH0 PUSH1 0x20 DUP3 ADD SWAP1 POP DUP2 DUP2 SUB PUSH0 DUP4 ADD MSTORE PUSH2 0x569A DUP2 PUSH2 0x5661 JUMP JUMPDEST SWAP1 POP SWAP2 SWAP1 POP JUMP JUMPDEST PUSH32 0x457863656564732044414F206C696D6974000000000000000000000000000000 PUSH0 DUP3 ADD MSTORE POP JUMP JUMPDEST PUSH0 PUSH2 0x56D5 PUSH1 0x11 DUP4 PUSH2 0x49F3 JUMP JUMPDEST SWAP2 POP PUSH2 0x56E0 DUP3 PUSH2 0x56A1 JUMP JUMPDEST PUSH1 0x20 DUP3 ADD SWAP1 POP SWAP2 SWAP1 POP JUMP JUMPDEST PUSH0 PUSH1 0x20 DUP3 ADD SWAP1 POP DUP2 DUP2 SUB PUSH0 DUP4 ADD MSTORE PUSH2 0x5702 DUP2 PUSH2 0x56C9 JUMP JUMPDEST SWAP1 POP SWAP2 SWAP1 POP JUMP JUMPDEST PUSH32 0x5465616D20696E61637469766500000000000000000000000000000000000000 PUSH0 DUP3 ADD MSTORE POP JUMP JUMPDEST PUSH0 PUSH2 0x573D PUSH1 0xD DUP4 PUSH2 0x49F3 JUMP JUMPDEST SWAP2 POP PUSH2 0x5748 DUP3 PUSH2 0x5709 JUMP JUMPDEST PUSH1 0x20 DUP3 ADD SWAP1 POP SWAP2 SWAP1 POP JUMP JUMPDEST PUSH0 PUSH1 0x20 DUP3 ADD SWAP1 POP DUP2 DUP2 SUB PUSH0 DUP4 ADD MSTORE PUSH2 0x576A DUP2 PUSH2 0x5731 JUMP JUMPDEST SWAP1 POP SWAP2 SWAP1 POP JUMP JUMPDEST PUSH32 0x4E6F74207465616D206D656D6265720000000000000000000000000000000000 PUSH0 DUP3 ADD MSTORE POP JUMP JUMPDEST PUSH0 PUSH2 0x57A5 PUSH1 0xF DUP4 PUSH2 0x49F3 JUMP JUMPDEST SWAP2 POP PUSH2 0x57B0 DUP3 PUSH2 0x5771 JUMP JUMPDEST PUSH1 0x20 DUP3 ADD SWAP1 POP SWAP2 SWAP1 POP JUMP JUMPDEST PUSH0 PUSH1 0x20 DUP3 ADD SWAP1 POP DUP2 DUP2 SUB PUSH0 DUP4 ADD MSTORE PUSH2 0x57D2 DUP2 PUSH2 0x5799 JUMP JUMPDEST SWAP1 POP SWAP2 SWAP1 POP JUMP JUMPDEST PUSH32 0x416C726561647920696E207465616D0000000000000000000000000000000000 PUSH0 DUP3 ADD MSTORE POP JUMP JUMPDEST PUSH0 PUSH2 0x580D PUSH1 0xF DUP4 PUSH2 0x49F3 JUMP JUMPDEST SWAP2 POP PUSH2 0x5818 DUP3 PUSH2 0x57D9 JUMP JUMPDEST PUSH1 0x20 DUP3 ADD SWAP1 POP SWAP2 SWAP1 POP JUMP JUMPDEST PUSH0 PUSH1 0x20 DUP3 ADD SWAP1 POP DUP2 DUP2 SUB PUSH0 DUP4 ADD MSTORE PUSH2 0x583A DUP2 PUSH2 0x5801 JUMP JUMPDEST SWAP1 POP SWAP2 SWAP1 POP JUMP JUMPDEST PUSH32 0x4E487B7100000000000000000000000000000000000000000000000000000000 PUSH0 MSTORE PUSH1 0x41 PUSH1 0x4 MSTORE PUSH1 0x24 PUSH0 REVERT JUMPDEST PUSH32 0x496E76616C696420636C61696D00000000000000000000000000000000000000 PUSH0 DUP3 ADD MSTORE POP JUMP JUMPDEST PUSH0 PUSH2 0x58A2 PUSH1 0xD DUP4 PUSH2 0x49F3 JUMP JUMPDEST SWAP2 POP PUSH2 0x58AD DUP3 PUSH2 0x586E JUMP JUMPDEST PUSH1 0x20 DUP3 ADD SWAP1 POP SWAP2 SWAP1 POP JUMP JUMPDEST PUSH0 PUSH1 0x20 DUP3 ADD SWAP1 POP DUP2 DUP2 SUB PUSH0 DUP4 ADD MSTORE PUSH2 0x58CF DUP2 PUSH2 0x5896 JUMP JUMPDEST SWAP1 POP SWAP2 SWAP1 POP JUMP JUMPDEST PUSH32 0x416C726561647920636C61696D65640000000000000000000000000000000000 PUSH0 DUP3 ADD MSTORE POP JUMP JUMPDEST PUSH0 PUSH2 0x590A PUSH1 0xF DUP4 PUSH2 0x49F3 JUMP JUMPDEST SWAP2 POP PUSH2 0x5915 DUP3 PUSH2 0x58D6 JUMP JUMPDEST PUSH1 0x20 DUP3 ADD SWAP1 POP SWAP2 SWAP1 POP JUMP JUMPDEST PUSH0 PUSH1 0x20 DUP3 ADD SWAP1 POP DUP2 DUP2 SUB PUSH0 DUP4 ADD MSTORE PUSH2 0x5937 DUP2 PUSH2 0x58FE JUMP JUMPDEST SWAP1 POP SWAP2 SWAP1 POP JUMP JUMPDEST PUSH32 0x4578706972656400000000000000000000000000000000000000000000000000 PUSH0 DUP3 ADD MSTORE POP JUMP JUMPDEST PUSH0 PUSH2 0x5972 PUSH1 0x7 DUP4 PUSH2 0x49F3 JUMP JUMPDEST SWAP2 POP PUSH2 0x597D DUP3 PUSH2 0x593E JUMP JUMPDEST PUSH1 0x20 DUP3 ADD SWAP1 POP SWAP2 SWAP1 POP JUMP JUMPDEST PUSH0 PUSH1 0x20 DUP3 ADD SWAP1 POP DUP2 DUP2 SUB PUSH0 DUP4 ADD MSTORE PUSH2 0x599F DUP2 PUSH2 0x5966 JUMP JUMPDEST SWAP1 POP SWAP2 SWAP1 POP JUMP JUMPDEST PUSH32 0x4E6F7420726563697069656E7400000000000000000000000000000000000000 PUSH0 DUP3 ADD MSTORE POP JUMP JUMPDEST PUSH0 PUSH2 0x59DA PUSH1 0xD DUP4 PUSH2 0x49F3 JUMP JUMPDEST SWAP2 POP PUSH2 0x59E5 DUP3 PUSH2 0x59A6 JUMP JUMPDEST PUSH1 0x20 DUP3 ADD SWAP1 POP SWAP2 SWAP1 POP JUMP JUMPDEST PUSH0 PUSH1 0x20 DUP3 ADD SWAP1 POP DUP2 DUP2 SUB PUSH0 DUP4 ADD MSTORE PUSH2 0x5A07 DUP2 PUSH2 0x59CE JUMP JUMPDEST SWAP1 POP SWAP2 SWAP1 POP JUMP JUMPDEST PUSH32 0x496E76616C69642044414F206164647265737300000000000000000000000000 PUSH0 DUP3 ADD MSTORE POP JUMP JUMPDEST PUSH0 PUSH2 0x5A42 PUSH1 0x13 DUP4 PUSH2 0x49F3 JUMP JUMPDEST SWAP2 POP PUSH2 0x5A4D DUP3 PUSH2 0x5A0E JUMP JUMPDEST PUSH1 0x20 DUP3 ADD SWAP1 POP SWAP2 SWAP1 POP JUMP JUMPDEST PUSH0 PUSH1 0x20 DUP3 ADD SWAP1 POP DUP2 DUP2 SUB PUSH0 DUP4 ADD MSTORE PUSH2 0x5A6F DUP2 PUSH2 0x5A36 JUMP JUMPDEST SWAP1 POP SWAP2 SWAP1 POP JUMP JUMPDEST PUSH32 0x4E487B7100000000000000000000000000000000000000000000000000000000 PUSH0 MSTORE PUSH1 0x32 PUSH1 0x4 MSTORE PUSH1 0x24 PUSH0 REVERT JUMPDEST PUSH32 0x416C726561647920696E697469616C697A656400000000000000000000000000 PUSH0 DUP3 ADD MSTORE POP JUMP JUMPDEST PUSH0 PUSH2 0x5AD7 PUSH1 0x13 DUP4 PUSH2 0x49F3 JUMP JUMPDEST SWAP2 POP PUSH2 0x5AE2 DUP3 PUSH2 0x5AA3 JUMP JUMPDEST PUSH1 0x20 DUP3 ADD SWAP1 POP SWAP2 SWAP1 POP JUMP JUMPDEST PUSH0 PUSH1 0x20 DUP3 ADD SWAP1 POP DUP2 DUP2 SUB PUSH0 DUP4 ADD MSTORE PUSH2 0x5B04 DUP2 PUSH2 0x5ACB JUMP JUMPDEST SWAP1 POP SWAP2 SWAP1 POP JUMP JUMPDEST PUSH0 DUP2 SWAP1 POP SWAP3 SWAP2 POP POP JUMP JUMPDEST DUP3 DUP2 DUP4 CALLDATACOPY PUSH0 DUP4 DUP4 ADD MSTORE POP POP POP JUMP JUMPDEST PUSH0 PUSH2 0x5B2E DUP4 DUP6 PUSH2 0x5B0B JUMP JUMPDEST SWAP4 POP PUSH2 0x5B3B DUP4 DUP6 DUP5 PUSH2 0x5B15 JUMP JUMPDEST DUP3 DUP5 ADD SWAP1 POP SWAP4 SWAP3 POP POP POP JUMP JUMPDEST PUSH0 PUSH2 0x5B53 DUP3 DUP5 DUP7 PUSH2 0x5B23 JUMP JUMPDEST SWAP2 POP DUP2 SWAP1 POP SWAP4 SWAP3 POP POP POP JUMP JUMPDEST PUSH0 PUSH2 0x5B6A DUP3 DUP7 PUSH2 0x54A0 JUMP JUMPDEST PUSH1 0x20 DUP3 ADD SWAP2 POP PUSH2 0x5B7B DUP3 DUP5 DUP7 PUSH2 0x5B23 JUMP JUMPDEST SWAP2 POP DUP2 SWAP1 POP SWAP5 SWAP4 POP POP POP POP JUMP JUMPDEST PUSH0 PUSH2 0x5B93 DUP3 DUP5 PUSH2 0x54E5 JUMP JUMPDEST PUSH1 0x14 DUP3 ADD SWAP2 POP DUP2 SWAP1 POP SWAP3 SWAP2 POP POP JUMP JUMPDEST PUSH32 0x4E6F7420616E206163746976652044414F000000000000000000000000000000 PUSH0 DUP3 ADD MSTORE POP JUMP JUMPDEST PUSH0 PUSH2 0x5BD6 PUSH1 0x11 DUP4 PUSH2 0x49F3 JUMP JUMPDEST SWAP2 POP PUSH2 0x5BE1 DUP3 PUSH2 0x5BA2 JUMP JUMPDEST PUSH1 0x20 DUP3 ADD SWAP1 POP SWAP2 SWAP1 POP JUMP JUMPDEST PUSH0 PUSH1 0x20 DUP3 ADD SWAP1 POP DUP2 DUP2 SUB PUSH0 DUP4 ADD MSTORE PUSH2 0x5C03 DUP2 PUSH2 0x5BCA JUMP JUMPDEST SWAP1 POP SWAP2 SWAP1 POP JUMP JUMPDEST PUSH32 0x50726F706F736572206E6F742061637469766500000000000000000000000000 PUSH0 DUP3 ADD MSTORE POP JUMP JUMPDEST PUSH0 PUSH2 0x5C3E PUSH1 0x13 DUP4 PUSH2 0x49F3 JUMP JUMPDEST SWAP2 POP PUSH2 0x5C49 DUP3 PUSH2 0x5C0A JUMP JUMPDEST PUSH1 0x20 DUP3 ADD SWAP1 POP SWAP2 SWAP1 POP JUMP JUMPDEST PUSH0 PUSH1 0x20 DUP3 ADD SWAP1 POP DUP2 DUP2 SUB PUSH0 DUP4 ADD MSTORE PUSH2 0x5C6B DUP2 PUSH2 0x5C32 JUMP JUMPDEST SWAP1 POP SWAP2 SWAP1 POP JUMP JUMPDEST PUSH0 PUSH1 0x60 DUP3 ADD SWAP1 POP PUSH2 0x5C85 PUSH0 DUP4 ADD DUP7 PUSH2 0x4BDE JUMP JUMPDEST PUSH2 0x5C92 PUSH1 0x20 DUP4 ADD DUP6 PUSH2 0x49C1 JUMP JUMPDEST PUSH2 0x5C9F PUSH1 0x40 DUP4 ADD DUP5 PUSH2 0x49C1 JUMP JUMPDEST SWAP5 SWAP4 POP POP POP POP JUMP JUMPDEST PUSH0 PUSH2 0x5CB1 DUP3 PUSH2 0x49B8 JUMP JUMPDEST SWAP2 POP PUSH0 DUP3 SUB PUSH2 0x5CC3 JUMPI PUSH2 0x5CC2 PUSH2 0x50AF JUMP JUMPDEST JUMPDEST PUSH1 0x1 DUP3 SUB SWAP1 POP SWAP2 SWAP1 POP JUMP JUMPDEST PUSH0 PUSH2 0x5CD8 DUP3 PUSH2 0x49B8 JUMP JUMPDEST SWAP2 POP PUSH2 0x5CE3 DUP4 PUSH2 0x49B8 JUMP JUMPDEST SWAP3 POP DUP3 PUSH2 0x5CF3 JUMPI PUSH2 0x5CF2 PUSH2 0x53D2 JUMP JUMPDEST JUMPDEST DUP3 DUP3 MOD SWAP1 POP SWAP3 SWAP2 POP POP JUMP JUMPDEST PUSH32 0x4F75747369646520736574746C656D656E742077696E646F7700000000000000 PUSH0 DUP3 ADD MSTORE POP JUMP JUMPDEST PUSH0 PUSH2 0x5D32 PUSH1 0x19 DUP4 PUSH2 0x49F3 JUMP JUMPDEST SWAP2 POP PUSH2 0x5D3D DUP3 PUSH2 0x5CFE JUMP JUMPDEST PUSH1 0x20 DUP3 ADD SWAP1 POP SWAP2 SWAP1 POP JUMP JUMPDEST PUSH0 PUSH1 0x20 DUP3 ADD SWAP1 POP DUP2 DUP2 SUB PUSH0 DUP4 ADD MSTORE PUSH2 0x5D5F DUP2 PUSH2 0x5D26 JUMP JUMPDEST SWAP1 POP SWAP2 SWAP1 POP JUMP JUMPDEST PUSH0 PUSH1 0x40 DUP3 ADD SWAP1 POP PUSH2 0x5D79 PUSH0 DUP4 ADD DUP6 PUSH2 0x49C1 JUMP JUMPDEST PUSH2 0x5D86 PUSH1 0x20 DUP4 ADD DUP5 PUSH2 0x49C1 JUMP JUMPDEST SWAP4 SWAP3 POP POP POP JUMP JUMPDEST PUSH32 0x496E76616C696420707269636500000000000000000000000000000000000000 PUSH0 DUP3 ADD MSTORE POP JUMP JUMPDEST PUSH0 PUSH2 0x5DC1 PUSH1 0xD DUP4 PUSH2 0x49F3 JUMP JUMPDEST SWAP2 POP PUSH2 0x5DCC DUP3 PUSH2 0x5D8D JUMP JUMPDEST PUSH1 0x20 DUP3 ADD SWAP1 POP SWAP2 SWAP1 POP JUMP JUMPDEST PUSH0 PUSH1 0x20 DUP3 ADD SWAP1 POP DUP2 DUP2 SUB PUSH0 DUP4 ADD MSTORE PUSH2 0x5DEE DUP2 PUSH2 0x5DB5 JUMP JUMPDEST SWAP1 POP SWAP2 SWAP1 POP JUMP JUMPDEST PUSH32 0x5072696365206368616E676520746F6F206C6172676500000000000000000000 PUSH0 DUP3 ADD MSTORE POP JUMP JUMPDEST PUSH0 PUSH2 0x5E29 PUSH1 0x16 DUP4 PUSH2 0x49F3 JUMP JUMPDEST SWAP2 POP PUSH2 0x5E34 DUP3 PUSH2 0x5DF5 JUMP JUMPDEST PUSH1 0x20 DUP3 ADD SWAP1 POP SWAP2 SWAP1 POP JUMP JUMPDEST PUSH0 PUSH1 0x20 DUP3 ADD SWAP1 POP DUP2 DUP2 SUB PUSH0 DUP4 ADD MSTORE PUSH2 0x5E56 DUP2 PUSH2 0x5E1D JUMP JUMPDEST SWAP1 POP SWAP2 SWAP1 POP JUMP JUMPDEST PUSH32 0x4E487B7100000000000000000000000000000000000000000000000000000000 PUSH0 MSTORE PUSH1 0x21 PUSH1 0x4 MSTORE PUSH1 0x24 PUSH0 REVERT JUMPDEST PUSH32 0x4269642044414F206E6F7420666F756E64000000000000000000000000000000 PUSH0 DUP3 ADD MSTORE POP JUMP JUMPDEST PUSH0 PUSH2 0x5EBE PUSH1 0x11 DUP4 PUSH2 0x49F3 JUMP JUMPDEST SWAP2 POP PUSH2 0x5EC9 DUP3 PUSH2 0x5E8A JUMP JUMPDEST PUSH1 0x20 DUP3 ADD SWAP1 POP SWAP2 SWAP1 POP JUMP JUMPDEST PUSH0 PUSH1 0x20 DUP3 ADD SWAP1 POP DUP2 DUP2 SUB PUSH0 DUP4 ADD MSTORE PUSH2 0x5EEB DUP2 PUSH2 0x5EB2 JUMP JUMPDEST SWAP1 POP SWAP2 SWAP1 POP JUMP JUMPDEST PUSH0 PUSH1 0x80 DUP3 ADD SWAP1 POP PUSH2 0x5F05 PUSH0 DUP4 ADD DUP8 PUSH2 0x4BCF JUMP JUMPDEST PUSH2 0x5F12 PUSH1 0x20 DUP4 ADD DUP7 PUSH2 0x4CC1 JUMP JUMPDEST PUSH2 0x5F1F PUSH1 0x40 DUP4 ADD DUP6 PUSH2 0x4BCF JUMP JUMPDEST PUSH2 0x5F2C PUSH1 0x60 DUP4 ADD DUP5 PUSH2 0x4BCF JUMP JUMPDEST SWAP6 SWAP5 POP POP POP POP POP JUMP INVALID LOG2 PUSH5 0x6970667358 0x22 SLT KECCAK256 PUSH0 SLOAD LT SLT COINBASE MOD PUSH1 0x3E 0x28 0xE5 DIV 0xDD DUP3 0xD3 0xFB 0xC 0xAD 0xD2 0xAD GAS TIMESTAMP SWAP16 0x23 STOP 0xB3 SAR 0xEB MUL SWAP5 ADD 0xC3 0xD5 PUSH5 0x736F6C6343 STOP ADDMOD EQ STOP CALLER POP PUSH2 0x7274 PUSH10 0x6369706174696F6E2049 PUSH15 0x63656E7469766520546F6B656E2041 PUSH19 0x63686974656374757265000000000000000000 "
		},
		"gasEstimates": {
			"creation": {
				"codeDepositCost": "4885400",
				"executionCost": "infinite",
				"totalCost": "infinite"
			},
			"external": {
				"ANNUAL_SUPPLY()": "414",
				"DAILY_SUPPLY()": "392",
				"activeDaoList(uint256)": "5012",
				"activeUserCount()": "2558",
				"activeUserIndex(uint256)": "2872",
				"activeUserPosition(address)": "2870",
				"allowance(address,address)": "infinite",
				"anonymousTransactions(bytes32)": "infinite",
				"approve(address,uint256)": "infinite",
				"balanceOf(address)": "2940",
				"calculateDailyAllocation()": "infinite",
				"claimAnonymousTransaction(bytes32,bytes,bytes)": "infinite",
				"contributionCeiling(address)": "2849",
				"createAnonymousTransaction(bytes32,address,uint256,bytes32)": "infinite",
				"createMarketplaceListing(uint256,uint256,uint256)": "infinite",
				"createTeam()": "infinite",
				"currentDailyPrice()": "2492",
				"dailyAllocation()": "2537",
				"daoAddress()": "2576",
				"daoBiddingShares(address)": "2890",
				"daoPosInList(address)": "2870",
				"decimals()": "472",
				"getDaoLimit(address)": "infinite",
				"getTotalDaoBids(address)": "infinite",
				"initializeAdmin()": "180467",
				"isActiveUser(address)": "2945",
				"isDaoMember(address)": "2946",
				"lastActivity(address)": "2868",
				"lastAnnualMint()": "2471",
				"lastDailyPrice()": "2536",
				"lastDistribution(address)": "2936",
				"lastUserBaseCalculation()": "2535",
				"listingCount()": "2558",
				"listings(uint256)": "infinite",
				"name()": "infinite",
				"performAnnualMint()": "infinite",
				"permanentBids(address,uint256)": "infinite",
				"placeBid(uint256,uint256,bool)": "infinite",
				"recordActivity(address)": "infinite",
				"registerMember(address)": "infinite",
				"setDAOAddress(address)": "24816",
				"symbol()": "infinite",
				"teamCount()": "2537",
				"teams(uint256)": "infinite",
				"temporaryBids(address,uint256)": "infinite",
				"totalSupply()": "2523",
				"transfer(address,uint256)": "infinite",
				"transferFrom(address,address,uint256)": "infinite",
				"treasuryBalance()": "2471",
				"userTeams(address)": "2914",
				"verifyTransactionClaim(bytes32,bytes,bytes)": "infinite",
				"withdrawTreasury()": "infinite"
			},
			"internal": {
				"_distributeTokens(uint256)": "infinite",
				"calculateSettlementPrice()": "infinite",
				"getAllTemporaryBids()": "infinite",
				"getBidDao(struct DAOToken.BidInfo memory)": "infinite",
				"getTotalSettledVolume()": "infinite",
				"isActiveDAO(address)": "8704",
				"isQuorumAchieved(address)": "infinite",
				"resetInactiveUsers()": "infinite",
				"settleDailyBids()": "infinite",
				"settlePermanentBids(uint256)": "infinite",
				"settleTemporaryBids(uint256)": "infinite",
				"sortBidsByPrice(struct DAOToken.BidInfo memory[] memory)": "infinite",
				"updateDailyPrice(uint256)": "infinite"
			}
		},
		"methodIdentifiers": {
			"ANNUAL_SUPPLY()": "a3976a01",
			"DAILY_SUPPLY()": "af8818d0",
			"activeDaoList(uint256)": "952eff65",
			"activeUserCount()": "728e9ecc",
			"activeUserIndex(uint256)": "ae3492c6",
			"activeUserPosition(address)": "8201db18",
			"allowance(address,address)": "dd62ed3e",
			"anonymousTransactions(bytes32)": "0d893b1a",
			"approve(address,uint256)": "095ea7b3",
			"balanceOf(address)": "70a08231",
			"calculateDailyAllocation()": "91cd695d",
			"claimAnonymousTransaction(bytes32,bytes,bytes)": "8d5f3c11",
			"contributionCeiling(address)": "06f4fb0d",
			"createAnonymousTransaction(bytes32,address,uint256,bytes32)": "49de2b1a",
			"createMarketplaceListing(uint256,uint256,uint256)": "601108fc",
			"createTeam()": "8a59d847",
			"currentDailyPrice()": "e2a99c46",
			"dailyAllocation()": "520c6838",
			"daoAddress()": "2131c68c",
			"daoBiddingShares(address)": "f4304064",
			"daoPosInList(address)": "31c536f6",
			"decimals()": "313ce567",
			"getDaoLimit(address)": "48a37817",
			"getTotalDaoBids(address)": "c2784943",
			"initializeAdmin()": "db403866",
			"isActiveUser(address)": "4202d214",
			"isDaoMember(address)": "1c67211d",
			"lastActivity(address)": "f07e96b3",
			"lastAnnualMint()": "803bc87f",
			"lastDailyPrice()": "ef7e235b",
			"lastDistribution(address)": "44b50bfc",
			"lastUserBaseCalculation()": "f4598cfd",
			"listingCount()": "a9b07c26",
			"listings(uint256)": "de74e57b",
			"name()": "06fdde03",
			"performAnnualMint()": "10ee294e",
			"permanentBids(address,uint256)": "515a50d3",
			"placeBid(uint256,uint256,bool)": "5da544ad",
			"recordActivity(address)": "2f7c88f5",
			"registerMember(address)": "fcb4888e",
			"setDAOAddress(address)": "965afa89",
			"symbol()": "95d89b41",
			"teamCount()": "8caa0083",
			"teams(uint256)": "3ed2b77a",
			"temporaryBids(address,uint256)": "075f150c",
			"totalSupply()": "18160ddd",
			"transfer(address,uint256)": "a9059cbb",
			"transferFrom(address,address,uint256)": "23b872dd",
			"treasuryBalance()": "313dab20",
			"userTeams(address)": "95dc7c7f",
			"verifyTransactionClaim(bytes32,bytes,bytes)": "e41c8398",
			"withdrawTreasury()": "166bab95"
		}
	},
	"abi": [
		{
			"inputs": [],
			"stateMutability": "nonpayable",
			"type": "constructor"
		},
		{
			"inputs": [],
			"name": "ECDSAInvalidSignature",
			"type": "error"
		},
		{
			"inputs": [
				{
					"internalType": "uint256",
					"name": "length",
					"type": "uint256"
				}
			],
			"name": "ECDSAInvalidSignatureLength",
			"type": "error"
		},
		{
			"inputs": [
				{
					"internalType": "bytes32",
					"name": "s",
					"type": "bytes32"
				}
			],
			"name": "ECDSAInvalidSignatureS",
			"type": "error"
		},
		{
			"inputs": [
				{
					"internalType": "address",
					"name": "spender",
					"type": "address"
				},
				{
					"internalType": "uint256",
					"name": "allowance",
					"type": "uint256"
				},
				{
					"internalType": "uint256",
					"name": "needed",
					"type": "uint256"
				}
			],
			"name": "ERC20InsufficientAllowance",
			"type": "error"
		},
		{
			"inputs": [
				{
					"internalType": "address",
					"name": "sender",
					"type": "address"
				},
				{
					"internalType": "uint256",
					"name": "balance",
					"type": "uint256"
				},
				{
					"internalType": "uint256",
					"name": "needed",
					"type": "uint256"
				}
			],
			"name": "ERC20InsufficientBalance",
			"type": "error"
		},
		{
			"inputs": [
				{
					"internalType": "address",
					"name": "approver",
					"type": "address"
				}
			],
			"name": "ERC20InvalidApprover",
			"type": "error"
		},
		{
			"inputs": [
				{
					"internalType": "address",
					"name": "receiver",
					"type": "address"
				}
			],
			"name": "ERC20InvalidReceiver",
			"type": "error"
		},
		{
			"inputs": [
				{
					"internalType": "address",
					"name": "sender",
					"type": "address"
				}
			],
			"name": "ERC20InvalidSender",
			"type": "error"
		},
		{
			"inputs": [
				{
					"internalType": "address",
					"name": "spender",
					"type": "address"
				}
			],
			"name": "ERC20InvalidSpender",
			"type": "error"
		},
		{
			"anonymous": false,
			"inputs": [
				{
					"indexed": true,
					"internalType": "address",
					"name": "owner",
					"type": "address"
				},
				{
					"indexed": true,
					"internalType": "address",
					"name": "spender",
					"type": "address"
				},
				{
					"indexed": false,
					"internalType": "uint256",
					"name": "value",
					"type": "uint256"
				}
			],
			"name": "Approval",
			"type": "event"
		},
		{
			"anonymous": false,
			"inputs": [
				{
					"indexed": true,
					"internalType": "address",
					"name": "dao",
					"type": "address"
				},
				{
					"indexed": true,
					"internalType": "bool",
					"name": "isPermanent",
					"type": "bool"
				},
				{
					"indexed": false,
					"internalType": "uint256",
					"name": "amount",
					"type": "uint256"
				},
				{
					"indexed": false,
					"internalType": "uint256",
					"name": "price",
					"type": "uint256"
				}
			],
			"name": "BidSettled",
			"type": "event"
		},
		{
			"anonymous": false,
			"inputs": [
				{
					"indexed": false,
					"internalType": "uint256",
					"name": "allocation",
					"type": "uint256"
				}
			],
			"name": "DailyAllocationUpdated",
			"type": "event"
		},
		{
			"anonymous": false,
			"inputs": [
				{
					"indexed": false,
					"internalType": "uint256",
					"name": "settlementPrice",
					"type": "uint256"
				},
				{
					"indexed": false,
					"internalType": "uint256",
					"name": "totalVolume",
					"type": "uint256"
				}
			],
			"name": "DailySettlementCompleted",
			"type": "event"
		},
		{
			"anonymous": false,
			"inputs": [
				{
					"indexed": false,
					"internalType": "uint256",
					"name": "newPrice",
					"type": "uint256"
				}
			],
			"name": "PriceUpdated",
			"type": "event"
		},
		{
			"anonymous": false,
			"inputs": [
				{
					"indexed": true,
					"internalType": "address",
					"name": "from",
					"type": "address"
				},
				{
					"indexed": true,
					"internalType": "address",
					"name": "to",
					"type": "address"
				},
				{
					"indexed": false,
					"internalType": "uint256",
					"name": "value",
					"type": "uint256"
				}
			],
			"name": "Transfer",
			"type": "event"
		},
		{
			"anonymous": false,
			"inputs": [
				{
					"indexed": true,
					"internalType": "address",
					"name": "user",
					"type": "address"
				},
				{
					"indexed": true,
					"internalType": "bool",
					"name": "isActive",
					"type": "bool"
				},
				{
					"indexed": false,
					"internalType": "uint256",
					"name": "timestamp",
					"type": "uint256"
				}
			],
			"name": "UserStatusChanged",
			"type": "event"
		},
		{
			"inputs": [],
			"name": "ANNUAL_SUPPLY",
			"outputs": [
				{
					"internalType": "uint256",
					"name": "",
					"type": "uint256"
				}
			],
			"stateMutability": "view",
			"type": "function"
		},
		{
			"inputs": [],
			"name": "DAILY_SUPPLY",
			"outputs": [
				{
					"internalType": "uint256",
					"name": "",
					"type": "uint256"
				}
			],
			"stateMutability": "view",
			"type": "function"
		},
		{
			"inputs": [
				{
					"internalType": "uint256",
					"name": "",
					"type": "uint256"
				}
			],
			"name": "activeDaoList",
			"outputs": [
				{
					"internalType": "address",
					"name": "",
					"type": "address"
				}
			],
			"stateMutability": "view",
			"type": "function"
		},
		{
			"inputs": [],
			"name": "activeUserCount",
			"outputs": [
				{
					"internalType": "uint256",
					"name": "",
					"type": "uint256"
				}
			],
			"stateMutability": "view",
			"type": "function"
		},
		{
			"inputs": [
				{
					"internalType": "uint256",
					"name": "",
					"type": "uint256"
				}
			],
			"name": "activeUserIndex",
			"outputs": [
				{
					"internalType": "address",
					"name": "",
					"type": "address"
				}
			],
			"stateMutability": "view",
			"type": "function"
		},
		{
			"inputs": [
				{
					"internalType": "address",
					"name": "",
					"type": "address"
				}
			],
			"name": "activeUserPosition",
			"outputs": [
				{
					"internalType": "uint256",
					"name": "",
					"type": "uint256"
				}
			],
			"stateMutability": "view",
			"type": "function"
		},
		{
			"inputs": [
				{
					"internalType": "address",
					"name": "owner",
					"type": "address"
				},
				{
					"internalType": "address",
					"name": "spender",
					"type": "address"
				}
			],
			"name": "allowance",
			"outputs": [
				{
					"internalType": "uint256",
					"name": "",
					"type": "uint256"
				}
			],
			"stateMutability": "view",
			"type": "function"
		},
		{
			"inputs": [
				{
					"internalType": "bytes32",
					"name": "",
					"type": "bytes32"
				}
			],
			"name": "anonymousTransactions",
			"outputs": [
				{
					"internalType": "bytes32",
					"name": "publicKeyHash",
					"type": "bytes32"
				},
				{
					"internalType": "address",
					"name": "recipient",
					"type": "address"
				},
				{
					"internalType": "uint256",
					"name": "amount",
					"type": "uint256"
				},
				{
					"internalType": "uint256",
					"name": "creationTime",
					"type": "uint256"
				},
				{
					"internalType": "bool",
					"name": "claimed",
					"type": "bool"
				},
				{
					"internalType": "bytes32",
					"name": "conditionHash",
					"type": "bytes32"
				}
			],
			"stateMutability": "view",
			"type": "function"
		},
		{
			"inputs": [
				{
					"internalType": "address",
					"name": "spender",
					"type": "address"
				},
				{
					"internalType": "uint256",
					"name": "value",
					"type": "uint256"
				}
			],
			"name": "approve",
			"outputs": [
				{
					"internalType": "bool",
					"name": "",
					"type": "bool"
				}
			],
			"stateMutability": "nonpayable",
			"type": "function"
		},
		{
			"inputs": [
				{
					"internalType": "address",
					"name": "account",
					"type": "address"
				}
			],
			"name": "balanceOf",
			"outputs": [
				{
					"internalType": "uint256",
					"name": "",
					"type": "uint256"
				}
			],
			"stateMutability": "view",
			"type": "function"
		},
		{
			"inputs": [],
			"name": "calculateDailyAllocation",
			"outputs": [],
			"stateMutability": "nonpayable",
			"type": "function"
		},
		{
			"inputs": [
				{
					"internalType": "bytes32",
					"name": "txHash",
					"type": "bytes32"
				},
				{
					"internalType": "bytes",
					"name": "signature",
					"type": "bytes"
				},
				{
					"internalType": "bytes",
					"name": "condition",
					"type": "bytes"
				}
			],
			"name": "claimAnonymousTransaction",
			"outputs": [],
			"stateMutability": "nonpayable",
			"type": "function"
		},
		{
			"inputs": [
				{
					"internalType": "address",
					"name": "",
					"type": "address"
				}
			],
			"name": "contributionCeiling",
			"outputs": [
				{
					"internalType": "uint256",
					"name": "",
					"type": "uint256"
				}
			],
			"stateMutability": "view",
			"type": "function"
		},
		{
			"inputs": [
				{
					"internalType": "bytes32",
					"name": "publicKeyHash",
					"type": "bytes32"
				},
				{
					"internalType": "address",
					"name": "recipient",
					"type": "address"
				},
				{
					"internalType": "uint256",
					"name": "amount",
					"type": "uint256"
				},
				{
					"internalType": "bytes32",
					"name": "conditionHash",
					"type": "bytes32"
				}
			],
			"name": "createAnonymousTransaction",
			"outputs": [
				{
					"internalType": "bytes32",
					"name": "",
					"type": "bytes32"
				}
			],
			"stateMutability": "nonpayable",
			"type": "function"
		},
		{
			"inputs": [
				{
					"internalType": "uint256",
					"name": "teamId",
					"type": "uint256"
				},
				{
					"internalType": "uint256",
					"name": "daoId",
					"type": "uint256"
				},
				{
					"internalType": "uint256",
					"name": "price",
					"type": "uint256"
				}
			],
			"name": "createMarketplaceListing",
			"outputs": [
				{
					"internalType": "uint256",
					"name": "",
					"type": "uint256"
				}
			],
			"stateMutability": "nonpayable",
			"type": "function"
		},
		{
			"inputs": [],
			"name": "createTeam",
			"outputs": [
				{
					"internalType": "uint256",
					"name": "",
					"type": "uint256"
				}
			],
			"stateMutability": "nonpayable",
			"type": "function"
		},
		{
			"inputs": [],
			"name": "currentDailyPrice",
			"outputs": [
				{
					"internalType": "uint256",
					"name": "",
					"type": "uint256"
				}
			],
			"stateMutability": "view",
			"type": "function"
		},
		{
			"inputs": [],
			"name": "dailyAllocation",
			"outputs": [
				{
					"internalType": "uint256",
					"name": "",
					"type": "uint256"
				}
			],
			"stateMutability": "view",
			"type": "function"
		},
		{
			"inputs": [],
			"name": "daoAddress",
			"outputs": [
				{
					"internalType": "address",
					"name": "",
					"type": "address"
				}
			],
			"stateMutability": "view",
			"type": "function"
		},
		{
			"inputs": [
				{
					"internalType": "address",
					"name": "",
					"type": "address"
				}
			],
			"name": "daoBiddingShares",
			"outputs": [
				{
					"internalType": "uint256",
					"name": "",
					"type": "uint256"
				}
			],
			"stateMutability": "view",
			"type": "function"
		},
		{
			"inputs": [
				{
					"internalType": "address",
					"name": "",
					"type": "address"
				}
			],
			"name": "daoPosInList",
			"outputs": [
				{
					"internalType": "uint256",
					"name": "",
					"type": "uint256"
				}
			],
			"stateMutability": "view",
			"type": "function"
		},
		{
			"inputs": [],
			"name": "decimals",
			"outputs": [
				{
					"internalType": "uint8",
					"name": "",
					"type": "uint8"
				}
			],
			"stateMutability": "view",
			"type": "function"
		},
		{
			"inputs": [
				{
					"internalType": "address",
					"name": "dao",
					"type": "address"
				}
			],
			"name": "getDaoLimit",
			"outputs": [
				{
					"internalType": "uint256",
					"name": "",
					"type": "uint256"
				}
			],
			"stateMutability": "view",
			"type": "function"
		},
		{
			"inputs": [
				{
					"internalType": "address",
					"name": "dao",
					"type": "address"
				}
			],
			"name": "getTotalDaoBids",
			"outputs": [
				{
					"internalType": "uint256",
					"name": "",
					"type": "uint256"
				}
			],
			"stateMutability": "view",
			"type": "function"
		},
		{
			"inputs": [],
			"name": "initializeAdmin",
			"outputs": [],
			"stateMutability": "nonpayable",
			"type": "function"
		},
		{
			"inputs": [
				{
					"internalType": "address",
					"name": "",
					"type": "address"
				}
			],
			"name": "isActiveUser",
			"outputs": [
				{
					"internalType": "bool",
					"name": "",
					"type": "bool"
				}
			],
			"stateMutability": "view",
			"type": "function"
		},
		{
			"inputs": [
				{
					"internalType": "address",
					"name": "",
					"type": "address"
				}
			],
			"name": "isDaoMember",
			"outputs": [
				{
					"internalType": "bool",
					"name": "",
					"type": "bool"
				}
			],
			"stateMutability": "view",
			"type": "function"
		},
		{
			"inputs": [
				{
					"internalType": "address",
					"name": "",
					"type": "address"
				}
			],
			"name": "lastActivity",
			"outputs": [
				{
					"internalType": "uint256",
					"name": "",
					"type": "uint256"
				}
			],
			"stateMutability": "view",
			"type": "function"
		},
		{
			"inputs": [],
			"name": "lastAnnualMint",
			"outputs": [
				{
					"internalType": "uint256",
					"name": "",
					"type": "uint256"
				}
			],
			"stateMutability": "view",
			"type": "function"
		},
		{
			"inputs": [],
			"name": "lastDailyPrice",
			"outputs": [
				{
					"internalType": "uint256",
					"name": "",
					"type": "uint256"
				}
			],
			"stateMutability": "view",
			"type": "function"
		},
		{
			"inputs": [
				{
					"internalType": "address",
					"name": "",
					"type": "address"
				}
			],
			"name": "lastDistribution",
			"outputs": [
				{
					"internalType": "uint256",
					"name": "",
					"type": "uint256"
				}
			],
			"stateMutability": "view",
			"type": "function"
		},
		{
			"inputs": [],
			"name": "lastUserBaseCalculation",
			"outputs": [
				{
					"internalType": "uint256",
					"name": "",
					"type": "uint256"
				}
			],
			"stateMutability": "view",
			"type": "function"
		},
		{
			"inputs": [],
			"name": "listingCount",
			"outputs": [
				{
					"internalType": "uint256",
					"name": "",
					"type": "uint256"
				}
			],
			"stateMutability": "view",
			"type": "function"
		},
		{
			"inputs": [
				{
					"internalType": "uint256",
					"name": "",
					"type": "uint256"
				}
			],
			"name": "listings",
			"outputs": [
				{
					"internalType": "uint256",
					"name": "id",
					"type": "uint256"
				},
				{
					"internalType": "uint256",
					"name": "teamId",
					"type": "uint256"
				},
				{
					"internalType": "uint256",
					"name": "daoId",
					"type": "uint256"
				},
				{
					"internalType": "uint256",
					"name": "price",
					"type": "uint256"
				},
				{
					"internalType": "bool",
					"name": "approved",
					"type": "bool"
				},
				{
					"internalType": "bool",
					"name": "active",
					"type": "bool"
				}
			],
			"stateMutability": "view",
			"type": "function"
		},
		{
			"inputs": [],
			"name": "name",
			"outputs": [
				{
					"internalType": "string",
					"name": "",
					"type": "string"
				}
			],
			"stateMutability": "view",
			"type": "function"
		},
		{
			"inputs": [],
			"name": "performAnnualMint",
			"outputs": [],
			"stateMutability": "nonpayable",
			"type": "function"
		},
		{
			"inputs": [
				{
					"internalType": "address",
					"name": "",
					"type": "address"
				},
				{
					"internalType": "uint256",
					"name": "",
					"type": "uint256"
				}
			],
			"name": "permanentBids",
			"outputs": [
				{
					"internalType": "uint256",
					"name": "amount",
					"type": "uint256"
				},
				{
					"internalType": "uint256",
					"name": "price",
					"type": "uint256"
				},
				{
					"internalType": "uint256",
					"name": "timestamp",
					"type": "uint256"
				},
				{
					"internalType": "bool",
					"name": "isSettled",
					"type": "bool"
				}
			],
			"stateMutability": "view",
			"type": "function"
		},
		{
			"inputs": [
				{
					"internalType": "uint256",
					"name": "amount",
					"type": "uint256"
				},
				{
					"internalType": "uint256",
					"name": "price",
					"type": "uint256"
				},
				{
					"internalType": "bool",
					"name": "isPermanent",
					"type": "bool"
				}
			],
			"name": "placeBid",
			"outputs": [],
			"stateMutability": "nonpayable",
			"type": "function"
		},
		{
			"inputs": [
				{
					"internalType": "address",
					"name": "user",
					"type": "address"
				}
			],
			"name": "recordActivity",
			"outputs": [],
			"stateMutability": "nonpayable",
			"type": "function"
		},
		{
			"inputs": [
				{
					"internalType": "address",
					"name": "member",
					"type": "address"
				}
			],
			"name": "registerMember",
			"outputs": [],
			"stateMutability": "nonpayable",
			"type": "function"
		},
		{
			"inputs": [
				{
					"internalType": "address",
					"name": "_daoAddress",
					"type": "address"
				}
			],
			"name": "setDAOAddress",
			"outputs": [],
			"stateMutability": "nonpayable",
			"type": "function"
		},
		{
			"inputs": [],
			"name": "symbol",
			"outputs": [
				{
					"internalType": "string",
					"name": "",
					"type": "string"
				}
			],
			"stateMutability": "view",
			"type": "function"
		},
		{
			"inputs": [],
			"name": "teamCount",
			"outputs": [
				{
					"internalType": "uint256",
					"name": "",
					"type": "uint256"
				}
			],
			"stateMutability": "view",
			"type": "function"
		},
		{
			"inputs": [
				{
					"internalType": "uint256",
					"name": "",
					"type": "uint256"
				}
			],
			"name": "teams",
			"outputs": [
				{
					"internalType": "uint256",
					"name": "id",
					"type": "uint256"
				},
				{
					"internalType": "uint256",
					"name": "valueCreated",
					"type": "uint256"
				},
				{
					"internalType": "uint256",
					"name": "lastActivityTimestamp",
					"type": "uint256"
				},
				{
					"internalType": "bool",
					"name": "active",
					"type": "bool"
				}
			],
			"stateMutability": "view",
			"type": "function"
		},
		{
			"inputs": [
				{
					"internalType": "address",
					"name": "",
					"type": "address"
				},
				{
					"internalType": "uint256",
					"name": "",
					"type": "uint256"
				}
			],
			"name": "temporaryBids",
			"outputs": [
				{
					"internalType": "uint256",
					"name": "amount",
					"type": "uint256"
				},
				{
					"internalType": "uint256",
					"name": "price",
					"type": "uint256"
				},
				{
					"internalType": "uint256",
					"name": "timestamp",
					"type": "uint256"
				},
				{
					"internalType": "bool",
					"name": "isSettled",
					"type": "bool"
				}
			],
			"stateMutability": "view",
			"type": "function"
		},
		{
			"inputs": [],
			"name": "totalSupply",
			"outputs": [
				{
					"internalType": "uint256",
					"name": "",
					"type": "uint256"
				}
			],
			"stateMutability": "view",
			"type": "function"
		},
		{
			"inputs": [
				{
					"internalType": "address",
					"name": "to",
					"type": "address"
				},
				{
					"internalType": "uint256",
					"name": "value",
					"type": "uint256"
				}
			],
			"name": "transfer",
			"outputs": [
				{
					"internalType": "bool",
					"name": "",
					"type": "bool"
				}
			],
			"stateMutability": "nonpayable",
			"type": "function"
		},
		{
			"inputs": [
				{
					"internalType": "address",
					"name": "from",
					"type": "address"
				},
				{
					"internalType": "address",
					"name": "to",
					"type": "address"
				},
				{
					"internalType": "uint256",
					"name": "value",
					"type": "uint256"
				}
			],
			"name": "transferFrom",
			"outputs": [
				{
					"internalType": "bool",
					"name": "",
					"type": "bool"
				}
			],
			"stateMutability": "nonpayable",
			"type": "function"
		},
		{
			"inputs": [],
			"name": "treasuryBalance",
			"outputs": [
				{
					"internalType": "uint256",
					"name": "",
					"type": "uint256"
				}
			],
			"stateMutability": "view",
			"type": "function"
		},
		{
			"inputs": [
				{
					"internalType": "address",
					"name": "",
					"type": "address"
				}
			],
			"name": "userTeams",
			"outputs": [
				{
					"internalType": "uint256",
					"name": "",
					"type": "uint256"
				}
			],
			"stateMutability": "view",
			"type": "function"
		},
		{
			"inputs": [
				{
					"internalType": "bytes32",
					"name": "txHash",
					"type": "bytes32"
				},
				{
					"internalType": "bytes",
					"name": "signature",
					"type": "bytes"
				},
				{
					"internalType": "bytes",
					"name": "condition",
					"type": "bytes"
				}
			],
			"name": "verifyTransactionClaim",
			"outputs": [
				{
					"internalType": "bool",
					"name": "",
					"type": "bool"
				}
			],
			"stateMutability": "view",
			"type": "function"
		},
		{
			"inputs": [],
			"name": "withdrawTreasury",
			"outputs": [],
			"stateMutability": "nonpayable",
			"type": "function"
		}
	]
}