{
	"data": {
		"bytecode": {
			"linkReferences": {},
			"object": "608060405234801562000010575f80fd5b50620000255f801b336200002c60201b60201c565b5062000191565b5f6200003f83836200012760201b60201c565b6200011d5760015f808581526020019081526020015f205f015f8473ffffffffffffffffffffffffffffffffffffffff1673ffffffffffffffffffffffffffffffffffffffff1681526020019081526020015f205f6101000a81548160ff021916908315150217905550620000b96200018a60201b60201c565b73ffffffffffffffffffffffffffffffffffffffff168273ffffffffffffffffffffffffffffffffffffffff16847f2f8788117e7eff1d82e926ec794901d17c78024a50270940304540a733656f0d60405160405180910390a46001905062000121565b5f90505b92915050565b5f805f8481526020019081526020015f205f015f8373ffffffffffffffffffffffffffffffffffffffff1673ffffffffffffffffffffffffffffffffffffffff1681526020019081526020015f205f9054906101000a900460ff16905092915050565b5f33905090565b612cf8806200019f5f395ff3fe608060405234801561000f575f80fd5b506004361061020f575f3560e01c806345eb762a11610123578063a217fddf116100ab578063d9b92f051161007a578063d9b92f0514610753578063dc78650814610783578063e7f83ed3146107b3578063f026dc12146107e3578063f5251dc3146108135761020f565b8063a217fddf146106b9578063c9a24be7146106d7578063ca4fac4614610707578063d547741f146107375761020f565b80637c53ea62116100f25780637c53ea62146105c957806387ba92a1146105f957806391d148541461062957806397a182b514610659578063a1c411b7146106895761020f565b806345eb762a1461051b5780634d44992e1461054b57806354fd4d501461057b5780637439dff2146105995761020f565b80632b4c8690116101a657806337c427c41161017557806337c427c41461042b57806338d04d381461045b57806339da595b1461048b5780633fd012fd146104bb57806342a7a9d4146104eb5761020f565b80632b4c8690146103935780632b722668146103c35780632f2ff15d146103f357806336568abe1461040f5761020f565b806323a8b6c8116101e257806323a8b6c8146102d3578063248a9ca314610303578063260c45dd1461033357806328cd1d6e146103635761020f565b806301ffc9a7146102135780630633aeed146102435780630977c705146102735780631dccb4bb146102a3575b5f80fd5b61022d600480360381019061022891906118bb565b610843565b60405161023a9190611900565b60405180910390f35b61025d6004803603810190610258919061194c565b6108bc565b60405161026a9190611900565b60405180910390f35b61028d6004803603810190610288919061194c565b6108d7565b60405161029a9190611999565b60405180910390f35b6102bd60048036038101906102b89190611a36565b61090d565b6040516102ca9190611900565b60405180910390f35b6102ed60048036038101906102e89190611c30565b6109e8565b6040516102fa9190611900565b60405180910390f35b61031d60048036038101906103189190611c77565b6109f6565b60405161032a9190611cb1565b60405180910390f35b61034d60048036038101906103489190611e4a565b610a12565b60405161035a9190611900565b60405180910390f35b61037d60048036038101906103789190611ec0565b610ade565b60405161038a9190611900565b60405180910390f35b6103ad60048036038101906103a89190611f10565b610b01565b6040516103ba919061204f565b60405180910390f35b6103dd60048036038101906103d89190611ec0565b610cff565b6040516103ea9190611900565b60405180910390f35b61040d6004803603810190610408919061206f565b610d25565b005b6104296004803603810190610424919061206f565b610d47565b005b6104456004803603810190610440919061216d565b610dc2565b6040516104529190611999565b60405180910390f35b61047560048036038101906104709190612225565b610ef5565b6040516104829190611900565b60405180910390f35b6104a560048036038101906104a0919061227f565b610f12565b6040516104b29190611900565b60405180910390f35b6104d560048036038101906104d0919061194c565b610f9c565b6040516104e29190611900565b60405180910390f35b610505600480360381019061050091906122e3565b610fb4565b6040516105129190611900565b60405180910390f35b61053560048036038101906105309190611ec0565b61101a565b6040516105429190611999565b60405180910390f35b6105656004803603810190610560919061194c565b61103b565b6040516105729190611900565b60405180910390f35b61058361105f565b60405161059091906123ad565b60405180910390f35b6105b360048036038101906105ae91906124ae565b61109c565b6040516105c091906125a3565b60405180910390f35b6105e360048036038101906105de9190611ec0565b61115c565b6040516105f09190611900565b60405180910390f35b610613600480360381019061060e91906125bc565b611180565b6040516106209190611900565b60405180910390f35b610643600480360381019061063e919061206f565b6111f3565b6040516106509190611900565b60405180910390f35b610673600480360381019061066e91906125fa565b611256565b6040516106809190611900565b60405180910390f35b6106a3600480360381019061069e919061194c565b6112e2565b6040516106b09190611900565b60405180910390f35b6106c1611326565b6040516106ce9190611cb1565b60405180910390f35b6106f160048036038101906106ec919061227f565b61132c565b6040516106fe9190611900565b60405180910390f35b610721600480360381019061071c91906126e8565b611369565b60405161072e9190611900565b60405180910390f35b610751600480360381019061074c919061206f565b611384565b005b61076d60048036038101906107689190612742565b6113a6565b60405161077a9190611900565b60405180910390f35b61079d60048036038101906107989190612780565b6113c0565b6040516107aa9190611900565b60405180910390f35b6107cd60048036038101906107c891906127d0565b6113d7565b6040516107da9190611900565b60405180910390f35b6107fd60048036038101906107f89190612859565b611455565b60405161080a9190611900565b60405180910390f35b61082d6004803603810190610828919061194c565b611529565b60405161083a9190611999565b60405180910390f35b5f7f7965db0b000000000000000000000000000000000000000000000000000000007bffffffffffffffffffffffffffffffffffffffffffffffffffffffff1916827bffffffffffffffffffffffffffffffffffffffffffffffffffffffff191614806108b557506108b48261158c565b5b9050919050565b5f62015180836108cc91906128cd565b821015905092915050565b5f62278d008311156109035760646005836108f29190612900565b6108fc919061296e565b9050610907565b5f90505b92915050565b5f8073ffffffffffffffffffffffffffffffffffffffff168473ffffffffffffffffffffffffffffffffffffffff1603610949575f90506109df565b5f73ffffffffffffffffffffffffffffffffffffffff168573ffffffffffffffffffffffffffffffffffffffff1603610984575f90506109df565b5f8303610993575f90506109df565b8473ffffffffffffffffffffffffffffffffffffffff168673ffffffffffffffffffffffffffffffffffffffff16141580156109cd575081155b156109da575f90506109df565b600190505b95945050505050565b5f6002825110159050919050565b5f805f8381526020019081526020015f20600101549050919050565b5f80835103610a23575f9050610ad8565b8151835114610a34575f9050610ad8565b5f5b8351811015610ad2575f73ffffffffffffffffffffffffffffffffffffffff16848281518110610a6957610a6861299e565b5b602002602001015173ffffffffffffffffffffffffffffffffffffffff1603610a95575f915050610ad8565b5f838281518110610aa957610aa861299e565b5b602002602001015103610abf575f915050610ad8565b8080610aca906129cb565b915050610a36565b50600190505b92915050565b5f8084118015610aed57505f83115b8015610af857505f82115b90509392505050565b60608251845114610b47576040517f08c379a0000000000000000000000000000000000000000000000000000000008152600401610b3e90612a5c565b60405180910390fd5b5f845167ffffffffffffffff811115610b6357610b62611ac1565b5b604051908082528060200260200182016040528015610b915781602001602082028036833780820191505090505b5090505f5b8551811015610cf3578315610c0957848181518110610bb857610bb761299e565b5b6020026020010151868281518110610bd357610bd261299e565b5b6020026020010151610be591906128cd565b828281518110610bf857610bf761299e565b5b602002602001018181525050610ce0565b848181518110610c1c57610c1b61299e565b5b6020026020010151868281518110610c3757610c3661299e565b5b60200260200101511015610c80576040517f08c379a0000000000000000000000000000000000000000000000000000000008152600401610c7790612ac4565b60405180910390fd5b848181518110610c9357610c9261299e565b5b6020026020010151868281518110610cae57610cad61299e565b5b6020026020010151610cc09190612ae2565b828281518110610cd357610cd261299e565b5b6020026020010181815250505b8080610ceb906129cb565b915050610b96565b50809150509392505050565b5f606c84108015610d105750600183145b8015610d1c5750606c82105b90509392505050565b610d2e826109f6565b610d37816115f5565b610d418383611609565b50505050565b610d4f6116f2565b73ffffffffffffffffffffffffffffffffffffffff168173ffffffffffffffffffffffffffffffffffffffff1614610db3576040517f6697b23200000000000000000000000000000000000000000000000000000000815260040160405180910390fd5b610dbd82826116f9565b505050565b5f808590505f5b8551811015610ee8575f6002878381518110610de857610de761299e565b5b6020026020010151610dfa9190612900565b9050858281518110610e0f57610e0e61299e565b5b60200260200101518015610e3a5750848281518110610e3157610e3061299e565b5b60200260200101515b15610e5f576002600382610e4e9190612900565b610e589190612900565b9050610ec5565b858281518110610e7257610e7161299e565b5b602002602001015115610e9357600381610e8c9190612900565b9050610ec4565b848281518110610ea657610ea561299e565b5b602002602001015115610ec357600281610ec09190612900565b90505b5b5b806064610ed291906128cd565b9250508080610ee0906129cb565b915050610dc9565b5080915050949350505050565b5f805f1b8314158015610f0a57506002825110155b905092915050565b5f808468056bc75e2d63100000610f299190612900565b905060038411610f4757600a81610f40919061296e565b9050610f80565b60068411610f6357600581610f5c919061296e565b9050610f7f565b600a600382610f729190612900565b610f7c919061296e565b90505b5b808610158015610f91575060328310155b915050949350505050565b5f8083118015610fac5750818311155b905092915050565b5f8073ffffffffffffffffffffffffffffffffffffffff168473ffffffffffffffffffffffffffffffffffffffff1603610ff0575f9050611013565b5f8303610fff575f9050611013565b5f820361100e575f9050611013565b600190505b9392505050565b5f8282856110289190612900565b611032919061296e565b90509392505050565b5f808211801561104a57505f83115b80156110575750606c8311155b905092915050565b60606040518060400160405280600581526020017f312e302e30000000000000000000000000000000000000000000000000000000815250905090565b6110a4611833565b5f8390505f606c846110b69190612b15565b905060405180606001604052808284895f600381106110d8576110d761299e565b5b60200201516110e79190612b45565b6110f19190612bbb565b815260200182848960016003811061110c5761110b61299e565b5b602002015161111b9190612b45565b6111259190612bfc565b8152602001838860026003811061113f5761113e61299e565b5b602002015161114e9190612b45565b815250925050509392505050565b5f808411801561116b57505f82115b80156111775750838311155b90509392505050565b5f7fffffffffffffffffffffffffffffffffffffffffffffffffffffffffffffffa683121580156111b25750605a8313155b80156111de57507fffffffffffffffffffffffffffffffffffffffffffffffffffffffffffffff4c8212155b80156111eb575060b48213155b905092915050565b5f805f8481526020019081526020015f205f015f8373ffffffffffffffffffffffffffffffffffffffff1673ffffffffffffffffffffffffffffffffffffffff1681526020019081526020015f205f9054906101000a900460ff16905092915050565b5f80633b9aca0063373082268461126d9190612900565b611277919061296e565b9050808460026003811061128e5761128d61299e565b5b6020020151856001600381106112a7576112a661299e565b5b6020020151865f600381106112bf576112be61299e565b5b60200201516112ce9190612bbb565b6112d89190612bbb565b1491505092915050565b5f80600160096001866112f59190612ae2565b6112ff9190612b15565b61130991906128cd565b9050600c831115801561131d575060098111155b91505092915050565b5f801b81565b5f808511801561133d5750606c8511155b80156113495750600984105b801561135457505f83115b801561135f57505f82115b9050949350505050565b5f80825111801561137c57505f801b8314155b905092915050565b61138d826109f6565b611396816115f5565b6113a083836116f9565b50505050565b5f805f1b83141580156113b857505f82115b905092915050565b5f8180156113ce5750828410155b90509392505050565b5f8083036113e7575f905061144b565b5f600a670de0b6b3a7640000856113fe9190612900565b611408919061296e565b90505f60038511611419578461141c565b60035b90506003841161142b57600190505b81891015801561143b5750808610155b801561144657508688115b925050505b9695505050505050565b5f80826040516020016114689190612c76565b6040516020818303038152906040528051906020012090507f9c6e946312c1ed1ff35f417af781df237ad04671cdb7c9b87430e63bb0c6fbc38114806114cd57507f2abb082c1b23ea79fce2a9e934ecb19ce15738b1483c365d0125f47e8ccc7dfc81145b806114f757507f9599d5e4e43121196cadfeaea326e46f58d9db74299decfd64bd3b700350ccd981145b8061152157507fb57dd00b0a8b2aad812b2c5318e4e11f83447e0eef3e5eeef5d971fd155cdbbf81145b915050919050565b5f8064174876e8006401b984112f846115429190612900565b61154c919061296e565b9050808161155a9190612900565b84670de0b6b3a76400008661156f9190612900565b6115799190612900565b611583919061296e565b91505092915050565b5f7f01ffc9a7000000000000000000000000000000000000000000000000000000007bffffffffffffffffffffffffffffffffffffffffffffffffffffffff1916827bffffffffffffffffffffffffffffffffffffffffffffffffffffffff1916149050919050565b611606816116016116f2565b6117e2565b50565b5f61161483836111f3565b6116e85760015f808581526020019081526020015f205f015f8473ffffffffffffffffffffffffffffffffffffffff1673ffffffffffffffffffffffffffffffffffffffff1681526020019081526020015f205f6101000a81548160ff0219169083151502179055506116856116f2565b73ffffffffffffffffffffffffffffffffffffffff168273ffffffffffffffffffffffffffffffffffffffff16847f2f8788117e7eff1d82e926ec794901d17c78024a50270940304540a733656f0d60405160405180910390a4600190506116ec565b5f90505b92915050565b5f33905090565b5f61170483836111f3565b156117d8575f805f8581526020019081526020015f205f015f8473ffffffffffffffffffffffffffffffffffffffff1673ffffffffffffffffffffffffffffffffffffffff1681526020019081526020015f205f6101000a81548160ff0219169083151502179055506117756116f2565b73ffffffffffffffffffffffffffffffffffffffff168273ffffffffffffffffffffffffffffffffffffffff16847ff6391f5c32d9c69d2a47ea670b442974b53935d1edc7fd64eb21e047a839171b60405160405180910390a4600190506117dc565b5f90505b92915050565b6117ec82826111f3565b61182f5780826040517fe2517d3f000000000000000000000000000000000000000000000000000000008152600401611826929190612c9b565b60405180910390fd5b5050565b6040518060600160405280600390602082028036833780820191505090505090565b5f604051905090565b5f80fd5b5f80fd5b5f7fffffffff0000000000000000000000000000000000000000000000000000000082169050919050565b61189a81611866565b81146118a4575f80fd5b50565b5f813590506118b581611891565b92915050565b5f602082840312156118d0576118cf61185e565b5b5f6118dd848285016118a7565b91505092915050565b5f8115159050919050565b6118fa816118e6565b82525050565b5f6020820190506119135f8301846118f1565b92915050565b5f819050919050565b61192b81611919565b8114611935575f80fd5b50565b5f8135905061194681611922565b92915050565b5f80604083850312156119625761196161185e565b5b5f61196f85828601611938565b925050602061198085828601611938565b9150509250929050565b61199381611919565b82525050565b5f6020820190506119ac5f83018461198a565b92915050565b5f73ffffffffffffffffffffffffffffffffffffffff82169050919050565b5f6119db826119b2565b9050919050565b6119eb816119d1565b81146119f5575f80fd5b50565b5f81359050611a06816119e2565b92915050565b611a15816118e6565b8114611a1f575f80fd5b50565b5f81359050611a3081611a0c565b92915050565b5f805f805f60a08688031215611a4f57611a4e61185e565b5b5f611a5c888289016119f8565b9550506020611a6d888289016119f8565b9450506040611a7e888289016119f8565b9350506060611a8f88828901611938565b9250506080611aa088828901611a22565b9150509295509295909350565b5f80fd5b5f601f19601f8301169050919050565b7f4e487b71000000000000000000000000000000000000000000000000000000005f52604160045260245ffd5b611af782611ab1565b810181811067ffffffffffffffff82111715611b1657611b15611ac1565b5b80604052505050565b5f611b28611855565b9050611b348282611aee565b919050565b5f67ffffffffffffffff821115611b5357611b52611ac1565b5b602082029050602081019050919050565b5f80fd5b5f819050919050565b611b7a81611b68565b8114611b84575f80fd5b50565b5f81359050611b9581611b71565b92915050565b5f611bad611ba884611b39565b611b1f565b90508083825260208201905060208402830185811115611bd057611bcf611b64565b5b835b81811015611bf95780611be58882611b87565b845260208401935050602081019050611bd2565b5050509392505050565b5f82601f830112611c1757611c16611aad565b5b8135611c27848260208601611b9b565b91505092915050565b5f60208284031215611c4557611c4461185e565b5b5f82013567ffffffffffffffff811115611c6257611c61611862565b5b611c6e84828501611c03565b91505092915050565b5f60208284031215611c8c57611c8b61185e565b5b5f611c9984828501611b87565b91505092915050565b611cab81611b68565b82525050565b5f602082019050611cc45f830184611ca2565b92915050565b5f67ffffffffffffffff821115611ce457611ce3611ac1565b5b602082029050602081019050919050565b5f611d07611d0284611cca565b611b1f565b90508083825260208201905060208402830185811115611d2a57611d29611b64565b5b835b81811015611d535780611d3f88826119f8565b845260208401935050602081019050611d2c565b5050509392505050565b5f82601f830112611d7157611d70611aad565b5b8135611d81848260208601611cf5565b91505092915050565b5f67ffffffffffffffff821115611da457611da3611ac1565b5b602082029050602081019050919050565b5f611dc7611dc284611d8a565b611b1f565b90508083825260208201905060208402830185811115611dea57611de9611b64565b5b835b81811015611e135780611dff8882611938565b845260208401935050602081019050611dec565b5050509392505050565b5f82601f830112611e3157611e30611aad565b5b8135611e41848260208601611db5565b91505092915050565b5f8060408385031215611e6057611e5f61185e565b5b5f83013567ffffffffffffffff811115611e7d57611e7c611862565b5b611e8985828601611d5d565b925050602083013567ffffffffffffffff811115611eaa57611ea9611862565b5b611eb685828601611e1d565b9150509250929050565b5f805f60608486031215611ed757611ed661185e565b5b5f611ee486828701611938565b9350506020611ef586828701611938565b9250506040611f0686828701611938565b9150509250925092565b5f805f60608486031215611f2757611f2661185e565b5b5f84013567ffffffffffffffff811115611f4457611f43611862565b5b611f5086828701611e1d565b935050602084013567ffffffffffffffff811115611f7157611f70611862565b5b611f7d86828701611e1d565b9250506040611f8e86828701611a22565b9150509250925092565b5f81519050919050565b5f82825260208201905092915050565b5f819050602082019050919050565b611fca81611919565b82525050565b5f611fdb8383611fc1565b60208301905092915050565b5f602082019050919050565b5f611ffd82611f98565b6120078185611fa2565b935061201283611fb2565b805f5b838110156120425781516120298882611fd0565b975061203483611fe7565b925050600181019050612015565b5085935050505092915050565b5f6020820190508181035f8301526120678184611ff3565b905092915050565b5f80604083850312156120855761208461185e565b5b5f61209285828601611b87565b92505060206120a3858286016119f8565b9150509250929050565b5f67ffffffffffffffff8211156120c7576120c6611ac1565b5b602082029050602081019050919050565b5f6120ea6120e5846120ad565b611b1f565b9050808382526020820190506020840283018581111561210d5761210c611b64565b5b835b8181101561213657806121228882611a22565b84526020840193505060208101905061210f565b5050509392505050565b5f82601f83011261215457612153611aad565b5b81356121648482602086016120d8565b91505092915050565b5f805f80608085870312156121855761218461185e565b5b5f61219287828801611938565b945050602085013567ffffffffffffffff8111156121b3576121b2611862565b5b6121bf87828801611e1d565b935050604085013567ffffffffffffffff8111156121e0576121df611862565b5b6121ec87828801612140565b925050606085013567ffffffffffffffff81111561220d5761220c611862565b5b61221987828801612140565b91505092959194509250565b5f806040838503121561223b5761223a61185e565b5b5f61224885828601611b87565b925050602083013567ffffffffffffffff81111561226957612268611862565b5b61227585828601611c03565b9150509250929050565b5f805f80608085870312156122975761229661185e565b5b5f6122a487828801611938565b94505060206122b587828801611938565b93505060406122c687828801611938565b92505060606122d787828801611938565b91505092959194509250565b5f805f606084860312156122fa576122f961185e565b5b5f612307868287016119f8565b935050602061231886828701611938565b925050604061232986828701611938565b9150509250925092565b5f81519050919050565b5f82825260208201905092915050565b5f5b8381101561236a57808201518184015260208101905061234f565b5f8484015250505050565b5f61237f82612333565b612389818561233d565b935061239981856020860161234d565b6123a281611ab1565b840191505092915050565b5f6020820190508181035f8301526123c58184612375565b905092915050565b5f67ffffffffffffffff8211156123e7576123e6611ac1565b5b602082029050919050565b5f819050919050565b612404816123f2565b811461240e575f80fd5b50565b5f8135905061241f816123fb565b92915050565b5f612437612432846123cd565b611b1f565b9050806020840283018581111561245157612450611b64565b5b835b8181101561247a57806124668882612411565b845260208401935050602081019050612453565b5050509392505050565b5f82601f83011261249857612497611aad565b5b60036124a5848285612425565b91505092915050565b5f805f60a084860312156124c5576124c461185e565b5b5f6124d286828701612484565b93505060606124e386828701611938565b92505060806124f486828701611938565b9150509250925092565b5f60039050919050565b5f81905092915050565b5f819050919050565b612524816123f2565b82525050565b5f612535838361251b565b60208301905092915050565b5f602082019050919050565b612556816124fe565b6125608184612508565b925061256b82612512565b805f5b8381101561259b578151612582878261252a565b965061258d83612541565b92505060018101905061256e565b505050505050565b5f6060820190506125b65f83018461254d565b92915050565b5f80604083850312156125d2576125d161185e565b5b5f6125df85828601612411565b92505060206125f085828601612411565b9150509250929050565b5f80608083850312156126105761260f61185e565b5b5f61261d85828601612484565b925050606061262e85828601611938565b9150509250929050565b5f80fd5b5f67ffffffffffffffff82111561265657612655611ac1565b5b61265f82611ab1565b9050602081019050919050565b828183375f83830152505050565b5f61268c6126878461263c565b611b1f565b9050828152602081018484840111156126a8576126a7612638565b5b6126b384828561266c565b509392505050565b5f82601f8301126126cf576126ce611aad565b5b81356126df84826020860161267a565b91505092915050565b5f80604083850312156126fe576126fd61185e565b5b5f61270b85828601611b87565b925050602083013567ffffffffffffffff81111561272c5761272b611862565b5b612738858286016126bb565b9150509250929050565b5f80604083850312156127585761275761185e565b5b5f61276585828601611b87565b925050602061277685828601611938565b9150509250929050565b5f805f606084860312156127975761279661185e565b5b5f6127a486828701611938565b93505060206127b586828701611938565b92505060406127c686828701611a22565b9150509250925092565b5f805f805f8060c087890312156127ea576127e961185e565b5b5f6127f789828a01611938565b965050602061280889828a01611938565b955050604061281989828a01611938565b945050606061282a89828a01611938565b935050608061283b89828a01611938565b92505060a061284c89828a01611938565b9150509295509295509295565b5f6020828403121561286e5761286d61185e565b5b5f82013567ffffffffffffffff81111561288b5761288a611862565b5b612897848285016126bb565b91505092915050565b7f4e487b71000000000000000000000000000000000000000000000000000000005f52601160045260245ffd5b5f6128d782611919565b91506128e283611919565b92508282019050808211156128fa576128f96128a0565b5b92915050565b5f61290a82611919565b915061291583611919565b925082820261292381611919565b9150828204841483151761293a576129396128a0565b5b5092915050565b7f4e487b71000000000000000000000000000000000000000000000000000000005f52601260045260245ffd5b5f61297882611919565b915061298383611919565b92508261299357612992612941565b5b828204905092915050565b7f4e487b71000000000000000000000000000000000000000000000000000000005f52603260045260245ffd5b5f6129d582611919565b91507fffffffffffffffffffffffffffffffffffffffffffffffffffffffffffffffff8203612a0757612a066128a0565b5b600182019050919050565b7f4c656e677468206d69736d6174636800000000000000000000000000000000005f82015250565b5f612a46600f8361233d565b9150612a5182612a12565b602082019050919050565b5f6020820190508181035f830152612a7381612a3a565b9050919050565b7f496e73756666696369656e742062616c616e63650000000000000000000000005f82015250565b5f612aae60148361233d565b9150612ab982612a7a565b602082019050919050565b5f6020820190508181035f830152612adb81612aa2565b9050919050565b5f612aec82611919565b9150612af783611919565b9250828203905081811115612b0f57612b0e6128a0565b5b92915050565b5f612b1f82611919565b9150612b2a83611919565b925082612b3a57612b39612941565b5b828206905092915050565b5f612b4f826123f2565b9150612b5a836123f2565b9250828202612b68816123f2565b91507f800000000000000000000000000000000000000000000000000000000000000084145f84121615612b9f57612b9e6128a0565b5b8282058414831517612bb457612bb36128a0565b5b5092915050565b5f612bc5826123f2565b9150612bd0836123f2565b92508282019050828112155f8312168382125f841215161715612bf657612bf56128a0565b5b92915050565b5f612c06826123f2565b9150612c11836123f2565b925082820390508181125f8412168282135f851215161715612c3657612c356128a0565b5b92915050565b5f81905092915050565b5f612c5082612333565b612c5a8185612c3c565b9350612c6a81856020860161234d565b80840191505092915050565b5f612c818284612c46565b915081905092915050565b612c95816119d1565b82525050565b5f604082019050612cae5f830185612c8c565b612cbb6020830184611ca2565b939250505056fea264697066735822122011097438596d836bf21af78788fc38d74a442b90347843e04949d1ada563886d64736f6c63430008140033",
			"opcodes": "PUSH1 0x80 PUSH1 0x40 MSTORE CALLVALUE DUP1 ISZERO PUSH3 0x10 JUMPI PUSH0 DUP1 REVERT JUMPDEST POP PUSH3 0x25 PUSH0 DUP1 SHL CALLER PUSH3 0x2C PUSH1 0x20 SHL PUSH1 0x20 SHR JUMP JUMPDEST POP PUSH3 0x191 JUMP JUMPDEST PUSH0 PUSH3 0x3F DUP4 DUP4 PUSH3 0x127 PUSH1 0x20 SHL PUSH1 0x20 SHR JUMP JUMPDEST PUSH3 0x11D JUMPI PUSH1 0x1 PUSH0 DUP1 DUP6 DUP2 MSTORE PUSH1 0x20 ADD SWAP1 DUP2 MSTORE PUSH1 0x20 ADD PUSH0 KECCAK256 PUSH0 ADD PUSH0 DUP5 PUSH20 0xFFFFFFFFFFFFFFFFFFFFFFFFFFFFFFFFFFFFFFFF AND PUSH20 0xFFFFFFFFFFFFFFFFFFFFFFFFFFFFFFFFFFFFFFFF AND DUP2 MSTORE PUSH1 0x20 ADD SWAP1 DUP2 MSTORE PUSH1 0x20 ADD PUSH0 KECCAK256 PUSH0 PUSH2 0x100 EXP DUP2 SLOAD DUP2 PUSH1 0xFF MUL NOT AND SWAP1 DUP4 ISZERO ISZERO MUL OR SWAP1 SSTORE POP PUSH3 0xB9 PUSH3 0x18A PUSH1 0x20 SHL PUSH1 0x20 SHR JUMP JUMPDEST PUSH20 0xFFFFFFFFFFFFFFFFFFFFFFFFFFFFFFFFFFFFFFFF AND DUP3 PUSH20 0xFFFFFFFFFFFFFFFFFFFFFFFFFFFFFFFFFFFFFFFF AND DUP5 PUSH32 0x2F8788117E7EFF1D82E926EC794901D17C78024A50270940304540A733656F0D PUSH1 0x40 MLOAD PUSH1 0x40 MLOAD DUP1 SWAP2 SUB SWAP1 LOG4 PUSH1 0x1 SWAP1 POP PUSH3 0x121 JUMP JUMPDEST PUSH0 SWAP1 POP JUMPDEST SWAP3 SWAP2 POP POP JUMP JUMPDEST PUSH0 DUP1 PUSH0 DUP5 DUP2 MSTORE PUSH1 0x20 ADD SWAP1 DUP2 MSTORE PUSH1 0x20 ADD PUSH0 KECCAK256 PUSH0 ADD PUSH0 DUP4 PUSH20 0xFFFFFFFFFFFFFFFFFFFFFFFFFFFFFFFFFFFFFFFF AND PUSH20 0xFFFFFFFFFFFFFFFFFFFFFFFFFFFFFFFFFFFFFFFF AND DUP2 MSTORE PUSH1 0x20 ADD SWAP1 DUP2 MSTORE PUSH1 0x20 ADD PUSH0 KECCAK256 PUSH0 SWAP1 SLOAD SWAP1 PUSH2 0x100 EXP SWAP1 DIV PUSH1 0xFF AND SWAP1 POP SWAP3 SWAP2 POP POP JUMP JUMPDEST PUSH0 CALLER SWAP1 POP SWAP1 JUMP JUMPDEST PUSH2 0x2CF8 DUP1 PUSH3 0x19F PUSH0 CODECOPY PUSH0 RETURN INVALID PUSH1 0x80 PUSH1 0x40 MSTORE CALLVALUE DUP1 ISZERO PUSH2 0xF JUMPI PUSH0 DUP1 REVERT JUMPDEST POP PUSH1 0x4 CALLDATASIZE LT PUSH2 0x20F JUMPI PUSH0 CALLDATALOAD PUSH1 0xE0 SHR DUP1 PUSH4 0x45EB762A GT PUSH2 0x123 JUMPI DUP1 PUSH4 0xA217FDDF GT PUSH2 0xAB JUMPI DUP1 PUSH4 0xD9B92F05 GT PUSH2 0x7A JUMPI DUP1 PUSH4 0xD9B92F05 EQ PUSH2 0x753 JUMPI DUP1 PUSH4 0xDC786508 EQ PUSH2 0x783 JUMPI DUP1 PUSH4 0xE7F83ED3 EQ PUSH2 0x7B3 JUMPI DUP1 PUSH4 0xF026DC12 EQ PUSH2 0x7E3 JUMPI DUP1 PUSH4 0xF5251DC3 EQ PUSH2 0x813 JUMPI PUSH2 0x20F JUMP JUMPDEST DUP1 PUSH4 0xA217FDDF EQ PUSH2 0x6B9 JUMPI DUP1 PUSH4 0xC9A24BE7 EQ PUSH2 0x6D7 JUMPI DUP1 PUSH4 0xCA4FAC46 EQ PUSH2 0x707 JUMPI DUP1 PUSH4 0xD547741F EQ PUSH2 0x737 JUMPI PUSH2 0x20F JUMP JUMPDEST DUP1 PUSH4 0x7C53EA62 GT PUSH2 0xF2 JUMPI DUP1 PUSH4 0x7C53EA62 EQ PUSH2 0x5C9 JUMPI DUP1 PUSH4 0x87BA92A1 EQ PUSH2 0x5F9 JUMPI DUP1 PUSH4 0x91D14854 EQ PUSH2 0x629 JUMPI DUP1 PUSH4 0x97A182B5 EQ PUSH2 0x659 JUMPI DUP1 PUSH4 0xA1C411B7 EQ PUSH2 0x689 JUMPI PUSH2 0x20F JUMP JUMPDEST DUP1 PUSH4 0x45EB762A EQ PUSH2 0x51B JUMPI DUP1 PUSH4 0x4D44992E EQ PUSH2 0x54B JUMPI DUP1 PUSH4 0x54FD4D50 EQ PUSH2 0x57B JUMPI DUP1 PUSH4 0x7439DFF2 EQ PUSH2 0x599 JUMPI PUSH2 0x20F JUMP JUMPDEST DUP1 PUSH4 0x2B4C8690 GT PUSH2 0x1A6 JUMPI DUP1 PUSH4 0x37C427C4 GT PUSH2 0x175 JUMPI DUP1 PUSH4 0x37C427C4 EQ PUSH2 0x42B JUMPI DUP1 PUSH4 0x38D04D38 EQ PUSH2 0x45B JUMPI DUP1 PUSH4 0x39DA595B EQ PUSH2 0x48B JUMPI DUP1 PUSH4 0x3FD012FD EQ PUSH2 0x4BB JUMPI DUP1 PUSH4 0x42A7A9D4 EQ PUSH2 0x4EB JUMPI PUSH2 0x20F JUMP JUMPDEST DUP1 PUSH4 0x2B4C8690 EQ PUSH2 0x393 JUMPI DUP1 PUSH4 0x2B722668 EQ PUSH2 0x3C3 JUMPI DUP1 PUSH4 0x2F2FF15D EQ PUSH2 0x3F3 JUMPI DUP1 PUSH4 0x36568ABE EQ PUSH2 0x40F JUMPI PUSH2 0x20F JUMP JUMPDEST DUP1 PUSH4 0x23A8B6C8 GT PUSH2 0x1E2 JUMPI DUP1 PUSH4 0x23A8B6C8 EQ PUSH2 0x2D3 JUMPI DUP1 PUSH4 0x248A9CA3 EQ PUSH2 0x303 JUMPI DUP1 PUSH4 0x260C45DD EQ PUSH2 0x333 JUMPI DUP1 PUSH4 0x28CD1D6E EQ PUSH2 0x363 JUMPI PUSH2 0x20F JUMP JUMPDEST DUP1 PUSH4 0x1FFC9A7 EQ PUSH2 0x213 JUMPI DUP1 PUSH4 0x633AEED EQ PUSH2 0x243 JUMPI DUP1 PUSH4 0x977C705 EQ PUSH2 0x273 JUMPI DUP1 PUSH4 0x1DCCB4BB EQ PUSH2 0x2A3 JUMPI JUMPDEST PUSH0 DUP1 REVERT JUMPDEST PUSH2 0x22D PUSH1 0x4 DUP1 CALLDATASIZE SUB DUP2 ADD SWAP1 PUSH2 0x228 SWAP2 SWAP1 PUSH2 0x18BB JUMP JUMPDEST PUSH2 0x843 JUMP JUMPDEST PUSH1 0x40 MLOAD PUSH2 0x23A SWAP2 SWAP1 PUSH2 0x1900 JUMP JUMPDEST PUSH1 0x40 MLOAD DUP1 SWAP2 SUB SWAP1 RETURN JUMPDEST PUSH2 0x25D PUSH1 0x4 DUP1 CALLDATASIZE SUB DUP2 ADD SWAP1 PUSH2 0x258 SWAP2 SWAP1 PUSH2 0x194C JUMP JUMPDEST PUSH2 0x8BC JUMP JUMPDEST PUSH1 0x40 MLOAD PUSH2 0x26A SWAP2 SWAP1 PUSH2 0x1900 JUMP JUMPDEST PUSH1 0x40 MLOAD DUP1 SWAP2 SUB SWAP1 RETURN JUMPDEST PUSH2 0x28D PUSH1 0x4 DUP1 CALLDATASIZE SUB DUP2 ADD SWAP1 PUSH2 0x288 SWAP2 SWAP1 PUSH2 0x194C JUMP JUMPDEST PUSH2 0x8D7 JUMP JUMPDEST PUSH1 0x40 MLOAD PUSH2 0x29A SWAP2 SWAP1 PUSH2 0x1999 JUMP JUMPDEST PUSH1 0x40 MLOAD DUP1 SWAP2 SUB SWAP1 RETURN JUMPDEST PUSH2 0x2BD PUSH1 0x4 DUP1 CALLDATASIZE SUB DUP2 ADD SWAP1 PUSH2 0x2B8 SWAP2 SWAP1 PUSH2 0x1A36 JUMP JUMPDEST PUSH2 0x90D JUMP JUMPDEST PUSH1 0x40 MLOAD PUSH2 0x2CA SWAP2 SWAP1 PUSH2 0x1900 JUMP JUMPDEST PUSH1 0x40 MLOAD DUP1 SWAP2 SUB SWAP1 RETURN JUMPDEST PUSH2 0x2ED PUSH1 0x4 DUP1 CALLDATASIZE SUB DUP2 ADD SWAP1 PUSH2 0x2E8 SWAP2 SWAP1 PUSH2 0x1C30 JUMP JUMPDEST PUSH2 0x9E8 JUMP JUMPDEST PUSH1 0x40 MLOAD PUSH2 0x2FA SWAP2 SWAP1 PUSH2 0x1900 JUMP JUMPDEST PUSH1 0x40 MLOAD DUP1 SWAP2 SUB SWAP1 RETURN JUMPDEST PUSH2 0x31D PUSH1 0x4 DUP1 CALLDATASIZE SUB DUP2 ADD SWAP1 PUSH2 0x318 SWAP2 SWAP1 PUSH2 0x1C77 JUMP JUMPDEST PUSH2 0x9F6 JUMP JUMPDEST PUSH1 0x40 MLOAD PUSH2 0x32A SWAP2 SWAP1 PUSH2 0x1CB1 JUMP JUMPDEST PUSH1 0x40 MLOAD DUP1 SWAP2 SUB SWAP1 RETURN JUMPDEST PUSH2 0x34D PUSH1 0x4 DUP1 CALLDATASIZE SUB DUP2 ADD SWAP1 PUSH2 0x348 SWAP2 SWAP1 PUSH2 0x1E4A JUMP JUMPDEST PUSH2 0xA12 JUMP JUMPDEST PUSH1 0x40 MLOAD PUSH2 0x35A SWAP2 SWAP1 PUSH2 0x1900 JUMP JUMPDEST PUSH1 0x40 MLOAD DUP1 SWAP2 SUB SWAP1 RETURN JUMPDEST PUSH2 0x37D PUSH1 0x4 DUP1 CALLDATASIZE SUB DUP2 ADD SWAP1 PUSH2 0x378 SWAP2 SWAP1 PUSH2 0x1EC0 JUMP JUMPDEST PUSH2 0xADE JUMP JUMPDEST PUSH1 0x40 MLOAD PUSH2 0x38A SWAP2 SWAP1 PUSH2 0x1900 JUMP JUMPDEST PUSH1 0x40 MLOAD DUP1 SWAP2 SUB SWAP1 RETURN JUMPDEST PUSH2 0x3AD PUSH1 0x4 DUP1 CALLDATASIZE SUB DUP2 ADD SWAP1 PUSH2 0x3A8 SWAP2 SWAP1 PUSH2 0x1F10 JUMP JUMPDEST PUSH2 0xB01 JUMP JUMPDEST PUSH1 0x40 MLOAD PUSH2 0x3BA SWAP2 SWAP1 PUSH2 0x204F JUMP JUMPDEST PUSH1 0x40 MLOAD DUP1 SWAP2 SUB SWAP1 RETURN JUMPDEST PUSH2 0x3DD PUSH1 0x4 DUP1 CALLDATASIZE SUB DUP2 ADD SWAP1 PUSH2 0x3D8 SWAP2 SWAP1 PUSH2 0x1EC0 JUMP JUMPDEST PUSH2 0xCFF JUMP JUMPDEST PUSH1 0x40 MLOAD PUSH2 0x3EA SWAP2 SWAP1 PUSH2 0x1900 JUMP JUMPDEST PUSH1 0x40 MLOAD DUP1 SWAP2 SUB SWAP1 RETURN JUMPDEST PUSH2 0x40D PUSH1 0x4 DUP1 CALLDATASIZE SUB DUP2 ADD SWAP1 PUSH2 0x408 SWAP2 SWAP1 PUSH2 0x206F JUMP JUMPDEST PUSH2 0xD25 JUMP JUMPDEST STOP JUMPDEST PUSH2 0x429 PUSH1 0x4 DUP1 CALLDATASIZE SUB DUP2 ADD SWAP1 PUSH2 0x424 SWAP2 SWAP1 PUSH2 0x206F JUMP JUMPDEST PUSH2 0xD47 JUMP JUMPDEST STOP JUMPDEST PUSH2 0x445 PUSH1 0x4 DUP1 CALLDATASIZE SUB DUP2 ADD SWAP1 PUSH2 0x440 SWAP2 SWAP1 PUSH2 0x216D JUMP JUMPDEST PUSH2 0xDC2 JUMP JUMPDEST PUSH1 0x40 MLOAD PUSH2 0x452 SWAP2 SWAP1 PUSH2 0x1999 JUMP JUMPDEST PUSH1 0x40 MLOAD DUP1 SWAP2 SUB SWAP1 RETURN JUMPDEST PUSH2 0x475 PUSH1 0x4 DUP1 CALLDATASIZE SUB DUP2 ADD SWAP1 PUSH2 0x470 SWAP2 SWAP1 PUSH2 0x2225 JUMP JUMPDEST PUSH2 0xEF5 JUMP JUMPDEST PUSH1 0x40 MLOAD PUSH2 0x482 SWAP2 SWAP1 PUSH2 0x1900 JUMP JUMPDEST PUSH1 0x40 MLOAD DUP1 SWAP2 SUB SWAP1 RETURN JUMPDEST PUSH2 0x4A5 PUSH1 0x4 DUP1 CALLDATASIZE SUB DUP2 ADD SWAP1 PUSH2 0x4A0 SWAP2 SWAP1 PUSH2 0x227F JUMP JUMPDEST PUSH2 0xF12 JUMP JUMPDEST PUSH1 0x40 MLOAD PUSH2 0x4B2 SWAP2 SWAP1 PUSH2 0x1900 JUMP JUMPDEST PUSH1 0x40 MLOAD DUP1 SWAP2 SUB SWAP1 RETURN JUMPDEST PUSH2 0x4D5 PUSH1 0x4 DUP1 CALLDATASIZE SUB DUP2 ADD SWAP1 PUSH2 0x4D0 SWAP2 SWAP1 PUSH2 0x194C JUMP JUMPDEST PUSH2 0xF9C JUMP JUMPDEST PUSH1 0x40 MLOAD PUSH2 0x4E2 SWAP2 SWAP1 PUSH2 0x1900 JUMP JUMPDEST PUSH1 0x40 MLOAD DUP1 SWAP2 SUB SWAP1 RETURN JUMPDEST PUSH2 0x505 PUSH1 0x4 DUP1 CALLDATASIZE SUB DUP2 ADD SWAP1 PUSH2 0x500 SWAP2 SWAP1 PUSH2 0x22E3 JUMP JUMPDEST PUSH2 0xFB4 JUMP JUMPDEST PUSH1 0x40 MLOAD PUSH2 0x512 SWAP2 SWAP1 PUSH2 0x1900 JUMP JUMPDEST PUSH1 0x40 MLOAD DUP1 SWAP2 SUB SWAP1 RETURN JUMPDEST PUSH2 0x535 PUSH1 0x4 DUP1 CALLDATASIZE SUB DUP2 ADD SWAP1 PUSH2 0x530 SWAP2 SWAP1 PUSH2 0x1EC0 JUMP JUMPDEST PUSH2 0x101A JUMP JUMPDEST PUSH1 0x40 MLOAD PUSH2 0x542 SWAP2 SWAP1 PUSH2 0x1999 JUMP JUMPDEST PUSH1 0x40 MLOAD DUP1 SWAP2 SUB SWAP1 RETURN JUMPDEST PUSH2 0x565 PUSH1 0x4 DUP1 CALLDATASIZE SUB DUP2 ADD SWAP1 PUSH2 0x560 SWAP2 SWAP1 PUSH2 0x194C JUMP JUMPDEST PUSH2 0x103B JUMP JUMPDEST PUSH1 0x40 MLOAD PUSH2 0x572 SWAP2 SWAP1 PUSH2 0x1900 JUMP JUMPDEST PUSH1 0x40 MLOAD DUP1 SWAP2 SUB SWAP1 RETURN JUMPDEST PUSH2 0x583 PUSH2 0x105F JUMP JUMPDEST PUSH1 0x40 MLOAD PUSH2 0x590 SWAP2 SWAP1 PUSH2 0x23AD JUMP JUMPDEST PUSH1 0x40 MLOAD DUP1 SWAP2 SUB SWAP1 RETURN JUMPDEST PUSH2 0x5B3 PUSH1 0x4 DUP1 CALLDATASIZE SUB DUP2 ADD SWAP1 PUSH2 0x5AE SWAP2 SWAP1 PUSH2 0x24AE JUMP JUMPDEST PUSH2 0x109C JUMP JUMPDEST PUSH1 0x40 MLOAD PUSH2 0x5C0 SWAP2 SWAP1 PUSH2 0x25A3 JUMP JUMPDEST PUSH1 0x40 MLOAD DUP1 SWAP2 SUB SWAP1 RETURN JUMPDEST PUSH2 0x5E3 PUSH1 0x4 DUP1 CALLDATASIZE SUB DUP2 ADD SWAP1 PUSH2 0x5DE SWAP2 SWAP1 PUSH2 0x1EC0 JUMP JUMPDEST PUSH2 0x115C JUMP JUMPDEST PUSH1 0x40 MLOAD PUSH2 0x5F0 SWAP2 SWAP1 PUSH2 0x1900 JUMP JUMPDEST PUSH1 0x40 MLOAD DUP1 SWAP2 SUB SWAP1 RETURN JUMPDEST PUSH2 0x613 PUSH1 0x4 DUP1 CALLDATASIZE SUB DUP2 ADD SWAP1 PUSH2 0x60E SWAP2 SWAP1 PUSH2 0x25BC JUMP JUMPDEST PUSH2 0x1180 JUMP JUMPDEST PUSH1 0x40 MLOAD PUSH2 0x620 SWAP2 SWAP1 PUSH2 0x1900 JUMP JUMPDEST PUSH1 0x40 MLOAD DUP1 SWAP2 SUB SWAP1 RETURN JUMPDEST PUSH2 0x643 PUSH1 0x4 DUP1 CALLDATASIZE SUB DUP2 ADD SWAP1 PUSH2 0x63E SWAP2 SWAP1 PUSH2 0x206F JUMP JUMPDEST PUSH2 0x11F3 JUMP JUMPDEST PUSH1 0x40 MLOAD PUSH2 0x650 SWAP2 SWAP1 PUSH2 0x1900 JUMP JUMPDEST PUSH1 0x40 MLOAD DUP1 SWAP2 SUB SWAP1 RETURN JUMPDEST PUSH2 0x673 PUSH1 0x4 DUP1 CALLDATASIZE SUB DUP2 ADD SWAP1 PUSH2 0x66E SWAP2 SWAP1 PUSH2 0x25FA JUMP JUMPDEST PUSH2 0x1256 JUMP JUMPDEST PUSH1 0x40 MLOAD PUSH2 0x680 SWAP2 SWAP1 PUSH2 0x1900 JUMP JUMPDEST PUSH1 0x40 MLOAD DUP1 SWAP2 SUB SWAP1 RETURN JUMPDEST PUSH2 0x6A3 PUSH1 0x4 DUP1 CALLDATASIZE SUB DUP2 ADD SWAP1 PUSH2 0x69E SWAP2 SWAP1 PUSH2 0x194C JUMP JUMPDEST PUSH2 0x12E2 JUMP JUMPDEST PUSH1 0x40 MLOAD PUSH2 0x6B0 SWAP2 SWAP1 PUSH2 0x1900 JUMP JUMPDEST PUSH1 0x40 MLOAD DUP1 SWAP2 SUB SWAP1 RETURN JUMPDEST PUSH2 0x6C1 PUSH2 0x1326 JUMP JUMPDEST PUSH1 0x40 MLOAD PUSH2 0x6CE SWAP2 SWAP1 PUSH2 0x1CB1 JUMP JUMPDEST PUSH1 0x40 MLOAD DUP1 SWAP2 SUB SWAP1 RETURN JUMPDEST PUSH2 0x6F1 PUSH1 0x4 DUP1 CALLDATASIZE SUB DUP2 ADD SWAP1 PUSH2 0x6EC SWAP2 SWAP1 PUSH2 0x227F JUMP JUMPDEST PUSH2 0x132C JUMP JUMPDEST PUSH1 0x40 MLOAD PUSH2 0x6FE SWAP2 SWAP1 PUSH2 0x1900 JUMP JUMPDEST PUSH1 0x40 MLOAD DUP1 SWAP2 SUB SWAP1 RETURN JUMPDEST PUSH2 0x721 PUSH1 0x4 DUP1 CALLDATASIZE SUB DUP2 ADD SWAP1 PUSH2 0x71C SWAP2 SWAP1 PUSH2 0x26E8 JUMP JUMPDEST PUSH2 0x1369 JUMP JUMPDEST PUSH1 0x40 MLOAD PUSH2 0x72E SWAP2 SWAP1 PUSH2 0x1900 JUMP JUMPDEST PUSH1 0x40 MLOAD DUP1 SWAP2 SUB SWAP1 RETURN JUMPDEST PUSH2 0x751 PUSH1 0x4 DUP1 CALLDATASIZE SUB DUP2 ADD SWAP1 PUSH2 0x74C SWAP2 SWAP1 PUSH2 0x206F JUMP JUMPDEST PUSH2 0x1384 JUMP JUMPDEST STOP JUMPDEST PUSH2 0x76D PUSH1 0x4 DUP1 CALLDATASIZE SUB DUP2 ADD SWAP1 PUSH2 0x768 SWAP2 SWAP1 PUSH2 0x2742 JUMP JUMPDEST PUSH2 0x13A6 JUMP JUMPDEST PUSH1 0x40 MLOAD PUSH2 0x77A SWAP2 SWAP1 PUSH2 0x1900 JUMP JUMPDEST PUSH1 0x40 MLOAD DUP1 SWAP2 SUB SWAP1 RETURN JUMPDEST PUSH2 0x79D PUSH1 0x4 DUP1 CALLDATASIZE SUB DUP2 ADD SWAP1 PUSH2 0x798 SWAP2 SWAP1 PUSH2 0x2780 JUMP JUMPDEST PUSH2 0x13C0 JUMP JUMPDEST PUSH1 0x40 MLOAD PUSH2 0x7AA SWAP2 SWAP1 PUSH2 0x1900 JUMP JUMPDEST PUSH1 0x40 MLOAD DUP1 SWAP2 SUB SWAP1 RETURN JUMPDEST PUSH2 0x7CD PUSH1 0x4 DUP1 CALLDATASIZE SUB DUP2 ADD SWAP1 PUSH2 0x7C8 SWAP2 SWAP1 PUSH2 0x27D0 JUMP JUMPDEST PUSH2 0x13D7 JUMP JUMPDEST PUSH1 0x40 MLOAD PUSH2 0x7DA SWAP2 SWAP1 PUSH2 0x1900 JUMP JUMPDEST PUSH1 0x40 MLOAD DUP1 SWAP2 SUB SWAP1 RETURN JUMPDEST PUSH2 0x7FD PUSH1 0x4 DUP1 CALLDATASIZE SUB DUP2 ADD SWAP1 PUSH2 0x7F8 SWAP2 SWAP1 PUSH2 0x2859 JUMP JUMPDEST PUSH2 0x1455 JUMP JUMPDEST PUSH1 0x40 MLOAD PUSH2 0x80A SWAP2 SWAP1 PUSH2 0x1900 JUMP JUMPDEST PUSH1 0x40 MLOAD DUP1 SWAP2 SUB SWAP1 RETURN JUMPDEST PUSH2 0x82D PUSH1 0x4 DUP1 CALLDATASIZE SUB DUP2 ADD SWAP1 PUSH2 0x828 SWAP2 SWAP1 PUSH2 0x194C JUMP JUMPDEST PUSH2 0x1529 JUMP JUMPDEST PUSH1 0x40 MLOAD PUSH2 0x83A SWAP2 SWAP1 PUSH2 0x1999 JUMP JUMPDEST PUSH1 0x40 MLOAD DUP1 SWAP2 SUB SWAP1 RETURN JUMPDEST PUSH0 PUSH32 0x7965DB0B00000000000000000000000000000000000000000000000000000000 PUSH28 0xFFFFFFFFFFFFFFFFFFFFFFFFFFFFFFFFFFFFFFFFFFFFFFFFFFFFFFFF NOT AND DUP3 PUSH28 0xFFFFFFFFFFFFFFFFFFFFFFFFFFFFFFFFFFFFFFFFFFFFFFFFFFFFFFFF NOT AND EQ DUP1 PUSH2 0x8B5 JUMPI POP PUSH2 0x8B4 DUP3 PUSH2 0x158C JUMP JUMPDEST JUMPDEST SWAP1 POP SWAP2 SWAP1 POP JUMP JUMPDEST PUSH0 PUSH3 0x15180 DUP4 PUSH2 0x8CC SWAP2 SWAP1 PUSH2 0x28CD JUMP JUMPDEST DUP3 LT ISZERO SWAP1 POP SWAP3 SWAP2 POP POP JUMP JUMPDEST PUSH0 PUSH3 0x278D00 DUP4 GT ISZERO PUSH2 0x903 JUMPI PUSH1 0x64 PUSH1 0x5 DUP4 PUSH2 0x8F2 SWAP2 SWAP1 PUSH2 0x2900 JUMP JUMPDEST PUSH2 0x8FC SWAP2 SWAP1 PUSH2 0x296E JUMP JUMPDEST SWAP1 POP PUSH2 0x907 JUMP JUMPDEST PUSH0 SWAP1 POP JUMPDEST SWAP3 SWAP2 POP POP JUMP JUMPDEST PUSH0 DUP1 PUSH20 0xFFFFFFFFFFFFFFFFFFFFFFFFFFFFFFFFFFFFFFFF AND DUP5 PUSH20 0xFFFFFFFFFFFFFFFFFFFFFFFFFFFFFFFFFFFFFFFF AND SUB PUSH2 0x949 JUMPI PUSH0 SWAP1 POP PUSH2 0x9DF JUMP JUMPDEST PUSH0 PUSH20 0xFFFFFFFFFFFFFFFFFFFFFFFFFFFFFFFFFFFFFFFF AND DUP6 PUSH20 0xFFFFFFFFFFFFFFFFFFFFFFFFFFFFFFFFFFFFFFFF AND SUB PUSH2 0x984 JUMPI PUSH0 SWAP1 POP PUSH2 0x9DF JUMP JUMPDEST PUSH0 DUP4 SUB PUSH2 0x993 JUMPI PUSH0 SWAP1 POP PUSH2 0x9DF JUMP JUMPDEST DUP5 PUSH20 0xFFFFFFFFFFFFFFFFFFFFFFFFFFFFFFFFFFFFFFFF AND DUP7 PUSH20 0xFFFFFFFFFFFFFFFFFFFFFFFFFFFFFFFFFFFFFFFF AND EQ ISZERO DUP1 ISZERO PUSH2 0x9CD JUMPI POP DUP2 ISZERO JUMPDEST ISZERO PUSH2 0x9DA JUMPI PUSH0 SWAP1 POP PUSH2 0x9DF JUMP JUMPDEST PUSH1 0x1 SWAP1 POP JUMPDEST SWAP6 SWAP5 POP POP POP POP POP JUMP JUMPDEST PUSH0 PUSH1 0x2 DUP3 MLOAD LT ISZERO SWAP1 POP SWAP2 SWAP1 POP JUMP JUMPDEST PUSH0 DUP1 PUSH0 DUP4 DUP2 MSTORE PUSH1 0x20 ADD SWAP1 DUP2 MSTORE PUSH1 0x20 ADD PUSH0 KECCAK256 PUSH1 0x1 ADD SLOAD SWAP1 POP SWAP2 SWAP1 POP JUMP JUMPDEST PUSH0 DUP1 DUP4 MLOAD SUB PUSH2 0xA23 JUMPI PUSH0 SWAP1 POP PUSH2 0xAD8 JUMP JUMPDEST DUP2 MLOAD DUP4 MLOAD EQ PUSH2 0xA34 JUMPI PUSH0 SWAP1 POP PUSH2 0xAD8 JUMP JUMPDEST PUSH0 JUMPDEST DUP4 MLOAD DUP2 LT ISZERO PUSH2 0xAD2 JUMPI PUSH0 PUSH20 0xFFFFFFFFFFFFFFFFFFFFFFFFFFFFFFFFFFFFFFFF AND DUP5 DUP3 DUP2 MLOAD DUP2 LT PUSH2 0xA69 JUMPI PUSH2 0xA68 PUSH2 0x299E JUMP JUMPDEST JUMPDEST PUSH1 0x20 MUL PUSH1 0x20 ADD ADD MLOAD PUSH20 0xFFFFFFFFFFFFFFFFFFFFFFFFFFFFFFFFFFFFFFFF AND SUB PUSH2 0xA95 JUMPI PUSH0 SWAP2 POP POP PUSH2 0xAD8 JUMP JUMPDEST PUSH0 DUP4 DUP3 DUP2 MLOAD DUP2 LT PUSH2 0xAA9 JUMPI PUSH2 0xAA8 PUSH2 0x299E JUMP JUMPDEST JUMPDEST PUSH1 0x20 MUL PUSH1 0x20 ADD ADD MLOAD SUB PUSH2 0xABF JUMPI PUSH0 SWAP2 POP POP PUSH2 0xAD8 JUMP JUMPDEST DUP1 DUP1 PUSH2 0xACA SWAP1 PUSH2 0x29CB JUMP JUMPDEST SWAP2 POP POP PUSH2 0xA36 JUMP JUMPDEST POP PUSH1 0x1 SWAP1 POP JUMPDEST SWAP3 SWAP2 POP POP JUMP JUMPDEST PUSH0 DUP1 DUP5 GT DUP1 ISZERO PUSH2 0xAED JUMPI POP PUSH0 DUP4 GT JUMPDEST DUP1 ISZERO PUSH2 0xAF8 JUMPI POP PUSH0 DUP3 GT JUMPDEST SWAP1 POP SWAP4 SWAP3 POP POP POP JUMP JUMPDEST PUSH1 0x60 DUP3 MLOAD DUP5 MLOAD EQ PUSH2 0xB47 JUMPI PUSH1 0x40 MLOAD PUSH32 0x8C379A000000000000000000000000000000000000000000000000000000000 DUP2 MSTORE PUSH1 0x4 ADD PUSH2 0xB3E SWAP1 PUSH2 0x2A5C JUMP JUMPDEST PUSH1 0x40 MLOAD DUP1 SWAP2 SUB SWAP1 REVERT JUMPDEST PUSH0 DUP5 MLOAD PUSH8 0xFFFFFFFFFFFFFFFF DUP2 GT ISZERO PUSH2 0xB63 JUMPI PUSH2 0xB62 PUSH2 0x1AC1 JUMP JUMPDEST JUMPDEST PUSH1 0x40 MLOAD SWAP1 DUP1 DUP3 MSTORE DUP1 PUSH1 0x20 MUL PUSH1 0x20 ADD DUP3 ADD PUSH1 0x40 MSTORE DUP1 ISZERO PUSH2 0xB91 JUMPI DUP2 PUSH1 0x20 ADD PUSH1 0x20 DUP3 MUL DUP1 CALLDATASIZE DUP4 CALLDATACOPY DUP1 DUP3 ADD SWAP2 POP POP SWAP1 POP JUMPDEST POP SWAP1 POP PUSH0 JUMPDEST DUP6 MLOAD DUP2 LT ISZERO PUSH2 0xCF3 JUMPI DUP4 ISZERO PUSH2 0xC09 JUMPI DUP5 DUP2 DUP2 MLOAD DUP2 LT PUSH2 0xBB8 JUMPI PUSH2 0xBB7 PUSH2 0x299E JUMP JUMPDEST JUMPDEST PUSH1 0x20 MUL PUSH1 0x20 ADD ADD MLOAD DUP7 DUP3 DUP2 MLOAD DUP2 LT PUSH2 0xBD3 JUMPI PUSH2 0xBD2 PUSH2 0x299E JUMP JUMPDEST JUMPDEST PUSH1 0x20 MUL PUSH1 0x20 ADD ADD MLOAD PUSH2 0xBE5 SWAP2 SWAP1 PUSH2 0x28CD JUMP JUMPDEST DUP3 DUP3 DUP2 MLOAD DUP2 LT PUSH2 0xBF8 JUMPI PUSH2 0xBF7 PUSH2 0x299E JUMP JUMPDEST JUMPDEST PUSH1 0x20 MUL PUSH1 0x20 ADD ADD DUP2 DUP2 MSTORE POP POP PUSH2 0xCE0 JUMP JUMPDEST DUP5 DUP2 DUP2 MLOAD DUP2 LT PUSH2 0xC1C JUMPI PUSH2 0xC1B PUSH2 0x299E JUMP JUMPDEST JUMPDEST PUSH1 0x20 MUL PUSH1 0x20 ADD ADD MLOAD DUP7 DUP3 DUP2 MLOAD DUP2 LT PUSH2 0xC37 JUMPI PUSH2 0xC36 PUSH2 0x299E JUMP JUMPDEST JUMPDEST PUSH1 0x20 MUL PUSH1 0x20 ADD ADD MLOAD LT ISZERO PUSH2 0xC80 JUMPI PUSH1 0x40 MLOAD PUSH32 0x8C379A000000000000000000000000000000000000000000000000000000000 DUP2 MSTORE PUSH1 0x4 ADD PUSH2 0xC77 SWAP1 PUSH2 0x2AC4 JUMP JUMPDEST PUSH1 0x40 MLOAD DUP1 SWAP2 SUB SWAP1 REVERT JUMPDEST DUP5 DUP2 DUP2 MLOAD DUP2 LT PUSH2 0xC93 JUMPI PUSH2 0xC92 PUSH2 0x299E JUMP JUMPDEST JUMPDEST PUSH1 0x20 MUL PUSH1 0x20 ADD ADD MLOAD DUP7 DUP3 DUP2 MLOAD DUP2 LT PUSH2 0xCAE JUMPI PUSH2 0xCAD PUSH2 0x299E JUMP JUMPDEST JUMPDEST PUSH1 0x20 MUL PUSH1 0x20 ADD ADD MLOAD PUSH2 0xCC0 SWAP2 SWAP1 PUSH2 0x2AE2 JUMP JUMPDEST DUP3 DUP3 DUP2 MLOAD DUP2 LT PUSH2 0xCD3 JUMPI PUSH2 0xCD2 PUSH2 0x299E JUMP JUMPDEST JUMPDEST PUSH1 0x20 MUL PUSH1 0x20 ADD ADD DUP2 DUP2 MSTORE POP POP JUMPDEST DUP1 DUP1 PUSH2 0xCEB SWAP1 PUSH2 0x29CB JUMP JUMPDEST SWAP2 POP POP PUSH2 0xB96 JUMP JUMPDEST POP DUP1 SWAP2 POP POP SWAP4 SWAP3 POP POP POP JUMP JUMPDEST PUSH0 PUSH1 0x6C DUP5 LT DUP1 ISZERO PUSH2 0xD10 JUMPI POP PUSH1 0x1 DUP4 EQ JUMPDEST DUP1 ISZERO PUSH2 0xD1C JUMPI POP PUSH1 0x6C DUP3 LT JUMPDEST SWAP1 POP SWAP4 SWAP3 POP POP POP JUMP JUMPDEST PUSH2 0xD2E DUP3 PUSH2 0x9F6 JUMP JUMPDEST PUSH2 0xD37 DUP2 PUSH2 0x15F5 JUMP JUMPDEST PUSH2 0xD41 DUP4 DUP4 PUSH2 0x1609 JUMP JUMPDEST POP POP POP POP JUMP JUMPDEST PUSH2 0xD4F PUSH2 0x16F2 JUMP JUMPDEST PUSH20 0xFFFFFFFFFFFFFFFFFFFFFFFFFFFFFFFFFFFFFFFF AND DUP2 PUSH20 0xFFFFFFFFFFFFFFFFFFFFFFFFFFFFFFFFFFFFFFFF AND EQ PUSH2 0xDB3 JUMPI PUSH1 0x40 MLOAD PUSH32 0x6697B23200000000000000000000000000000000000000000000000000000000 DUP2 MSTORE PUSH1 0x4 ADD PUSH1 0x40 MLOAD DUP1 SWAP2 SUB SWAP1 REVERT JUMPDEST PUSH2 0xDBD DUP3 DUP3 PUSH2 0x16F9 JUMP JUMPDEST POP POP POP JUMP JUMPDEST PUSH0 DUP1 DUP6 SWAP1 POP PUSH0 JUMPDEST DUP6 MLOAD DUP2 LT ISZERO PUSH2 0xEE8 JUMPI PUSH0 PUSH1 0x2 DUP8 DUP4 DUP2 MLOAD DUP2 LT PUSH2 0xDE8 JUMPI PUSH2 0xDE7 PUSH2 0x299E JUMP JUMPDEST JUMPDEST PUSH1 0x20 MUL PUSH1 0x20 ADD ADD MLOAD PUSH2 0xDFA SWAP2 SWAP1 PUSH2 0x2900 JUMP JUMPDEST SWAP1 POP DUP6 DUP3 DUP2 MLOAD DUP2 LT PUSH2 0xE0F JUMPI PUSH2 0xE0E PUSH2 0x299E JUMP JUMPDEST JUMPDEST PUSH1 0x20 MUL PUSH1 0x20 ADD ADD MLOAD DUP1 ISZERO PUSH2 0xE3A JUMPI POP DUP5 DUP3 DUP2 MLOAD DUP2 LT PUSH2 0xE31 JUMPI PUSH2 0xE30 PUSH2 0x299E JUMP JUMPDEST JUMPDEST PUSH1 0x20 MUL PUSH1 0x20 ADD ADD MLOAD JUMPDEST ISZERO PUSH2 0xE5F JUMPI PUSH1 0x2 PUSH1 0x3 DUP3 PUSH2 0xE4E SWAP2 SWAP1 PUSH2 0x2900 JUMP JUMPDEST PUSH2 0xE58 SWAP2 SWAP1 PUSH2 0x2900 JUMP JUMPDEST SWAP1 POP PUSH2 0xEC5 JUMP JUMPDEST DUP6 DUP3 DUP2 MLOAD DUP2 LT PUSH2 0xE72 JUMPI PUSH2 0xE71 PUSH2 0x299E JUMP JUMPDEST JUMPDEST PUSH1 0x20 MUL PUSH1 0x20 ADD ADD MLOAD ISZERO PUSH2 0xE93 JUMPI PUSH1 0x3 DUP2 PUSH2 0xE8C SWAP2 SWAP1 PUSH2 0x2900 JUMP JUMPDEST SWAP1 POP PUSH2 0xEC4 JUMP JUMPDEST DUP5 DUP3 DUP2 MLOAD DUP2 LT PUSH2 0xEA6 JUMPI PUSH2 0xEA5 PUSH2 0x299E JUMP JUMPDEST JUMPDEST PUSH1 0x20 MUL PUSH1 0x20 ADD ADD MLOAD ISZERO PUSH2 0xEC3 JUMPI PUSH1 0x2 DUP2 PUSH2 0xEC0 SWAP2 SWAP1 PUSH2 0x2900 JUMP JUMPDEST SWAP1 POP JUMPDEST JUMPDEST JUMPDEST DUP1 PUSH1 0x64 PUSH2 0xED2 SWAP2 SWAP1 PUSH2 0x28CD JUMP JUMPDEST SWAP3 POP POP DUP1 DUP1 PUSH2 0xEE0 SWAP1 PUSH2 0x29CB JUMP JUMPDEST SWAP2 POP POP PUSH2 0xDC9 JUMP JUMPDEST POP DUP1 SWAP2 POP POP SWAP5 SWAP4 POP POP POP POP JUMP JUMPDEST PUSH0 DUP1 PUSH0 SHL DUP4 EQ ISZERO DUP1 ISZERO PUSH2 0xF0A JUMPI POP PUSH1 0x2 DUP3 MLOAD LT ISZERO JUMPDEST SWAP1 POP SWAP3 SWAP2 POP POP JUMP JUMPDEST PUSH0 DUP1 DUP5 PUSH9 0x56BC75E2D63100000 PUSH2 0xF29 SWAP2 SWAP1 PUSH2 0x2900 JUMP JUMPDEST SWAP1 POP PUSH1 0x3 DUP5 GT PUSH2 0xF47 JUMPI PUSH1 0xA DUP2 PUSH2 0xF40 SWAP2 SWAP1 PUSH2 0x296E JUMP JUMPDEST SWAP1 POP PUSH2 0xF80 JUMP JUMPDEST PUSH1 0x6 DUP5 GT PUSH2 0xF63 JUMPI PUSH1 0x5 DUP2 PUSH2 0xF5C SWAP2 SWAP1 PUSH2 0x296E JUMP JUMPDEST SWAP1 POP PUSH2 0xF7F JUMP JUMPDEST PUSH1 0xA PUSH1 0x3 DUP3 PUSH2 0xF72 SWAP2 SWAP1 PUSH2 0x2900 JUMP JUMPDEST PUSH2 0xF7C SWAP2 SWAP1 PUSH2 0x296E JUMP JUMPDEST SWAP1 POP JUMPDEST JUMPDEST DUP1 DUP7 LT ISZERO DUP1 ISZERO PUSH2 0xF91 JUMPI POP PUSH1 0x32 DUP4 LT ISZERO JUMPDEST SWAP2 POP POP SWAP5 SWAP4 POP POP POP POP JUMP JUMPDEST PUSH0 DUP1 DUP4 GT DUP1 ISZERO PUSH2 0xFAC JUMPI POP DUP2 DUP4 GT ISZERO JUMPDEST SWAP1 POP SWAP3 SWAP2 POP POP JUMP JUMPDEST PUSH0 DUP1 PUSH20 0xFFFFFFFFFFFFFFFFFFFFFFFFFFFFFFFFFFFFFFFF AND DUP5 PUSH20 0xFFFFFFFFFFFFFFFFFFFFFFFFFFFFFFFFFFFFFFFF AND SUB PUSH2 0xFF0 JUMPI PUSH0 SWAP1 POP PUSH2 0x1013 JUMP JUMPDEST PUSH0 DUP4 SUB PUSH2 0xFFF JUMPI PUSH0 SWAP1 POP PUSH2 0x1013 JUMP JUMPDEST PUSH0 DUP3 SUB PUSH2 0x100E JUMPI PUSH0 SWAP1 POP PUSH2 0x1013 JUMP JUMPDEST PUSH1 0x1 SWAP1 POP JUMPDEST SWAP4 SWAP3 POP POP POP JUMP JUMPDEST PUSH0 DUP3 DUP3 DUP6 PUSH2 0x1028 SWAP2 SWAP1 PUSH2 0x2900 JUMP JUMPDEST PUSH2 0x1032 SWAP2 SWAP1 PUSH2 0x296E JUMP JUMPDEST SWAP1 POP SWAP4 SWAP3 POP POP POP JUMP JUMPDEST PUSH0 DUP1 DUP3 GT DUP1 ISZERO PUSH2 0x104A JUMPI POP PUSH0 DUP4 GT JUMPDEST DUP1 ISZERO PUSH2 0x1057 JUMPI POP PUSH1 0x6C DUP4 GT ISZERO JUMPDEST SWAP1 POP SWAP3 SWAP2 POP POP JUMP JUMPDEST PUSH1 0x60 PUSH1 0x40 MLOAD DUP1 PUSH1 0x40 ADD PUSH1 0x40 MSTORE DUP1 PUSH1 0x5 DUP2 MSTORE PUSH1 0x20 ADD PUSH32 0x312E302E30000000000000000000000000000000000000000000000000000000 DUP2 MSTORE POP SWAP1 POP SWAP1 JUMP JUMPDEST PUSH2 0x10A4 PUSH2 0x1833 JUMP JUMPDEST PUSH0 DUP4 SWAP1 POP PUSH0 PUSH1 0x6C DUP5 PUSH2 0x10B6 SWAP2 SWAP1 PUSH2 0x2B15 JUMP JUMPDEST SWAP1 POP PUSH1 0x40 MLOAD DUP1 PUSH1 0x60 ADD PUSH1 0x40 MSTORE DUP1 DUP3 DUP5 DUP10 PUSH0 PUSH1 0x3 DUP2 LT PUSH2 0x10D8 JUMPI PUSH2 0x10D7 PUSH2 0x299E JUMP JUMPDEST JUMPDEST PUSH1 0x20 MUL ADD MLOAD PUSH2 0x10E7 SWAP2 SWAP1 PUSH2 0x2B45 JUMP JUMPDEST PUSH2 0x10F1 SWAP2 SWAP1 PUSH2 0x2BBB JUMP JUMPDEST DUP2 MSTORE PUSH1 0x20 ADD DUP3 DUP5 DUP10 PUSH1 0x1 PUSH1 0x3 DUP2 LT PUSH2 0x110C JUMPI PUSH2 0x110B PUSH2 0x299E JUMP JUMPDEST JUMPDEST PUSH1 0x20 MUL ADD MLOAD PUSH2 0x111B SWAP2 SWAP1 PUSH2 0x2B45 JUMP JUMPDEST PUSH2 0x1125 SWAP2 SWAP1 PUSH2 0x2BFC JUMP JUMPDEST DUP2 MSTORE PUSH1 0x20 ADD DUP4 DUP9 PUSH1 0x2 PUSH1 0x3 DUP2 LT PUSH2 0x113F JUMPI PUSH2 0x113E PUSH2 0x299E JUMP JUMPDEST JUMPDEST PUSH1 0x20 MUL ADD MLOAD PUSH2 0x114E SWAP2 SWAP1 PUSH2 0x2B45 JUMP JUMPDEST DUP2 MSTORE POP SWAP3 POP POP POP SWAP4 SWAP3 POP POP POP JUMP JUMPDEST PUSH0 DUP1 DUP5 GT DUP1 ISZERO PUSH2 0x116B JUMPI POP PUSH0 DUP3 GT JUMPDEST DUP1 ISZERO PUSH2 0x1177 JUMPI POP DUP4 DUP4 GT ISZERO JUMPDEST SWAP1 POP SWAP4 SWAP3 POP POP POP JUMP JUMPDEST PUSH0 PUSH32 0xFFFFFFFFFFFFFFFFFFFFFFFFFFFFFFFFFFFFFFFFFFFFFFFFFFFFFFFFFFFFFFA6 DUP4 SLT ISZERO DUP1 ISZERO PUSH2 0x11B2 JUMPI POP PUSH1 0x5A DUP4 SGT ISZERO JUMPDEST DUP1 ISZERO PUSH2 0x11DE JUMPI POP PUSH32 0xFFFFFFFFFFFFFFFFFFFFFFFFFFFFFFFFFFFFFFFFFFFFFFFFFFFFFFFFFFFFFF4C DUP3 SLT ISZERO JUMPDEST DUP1 ISZERO PUSH2 0x11EB JUMPI POP PUSH1 0xB4 DUP3 SGT ISZERO JUMPDEST SWAP1 POP SWAP3 SWAP2 POP POP JUMP JUMPDEST PUSH0 DUP1 PUSH0 DUP5 DUP2 MSTORE PUSH1 0x20 ADD SWAP1 DUP2 MSTORE PUSH1 0x20 ADD PUSH0 KECCAK256 PUSH0 ADD PUSH0 DUP4 PUSH20 0xFFFFFFFFFFFFFFFFFFFFFFFFFFFFFFFFFFFFFFFF AND PUSH20 0xFFFFFFFFFFFFFFFFFFFFFFFFFFFFFFFFFFFFFFFF AND DUP2 MSTORE PUSH1 0x20 ADD SWAP1 DUP2 MSTORE PUSH1 0x20 ADD PUSH0 KECCAK256 PUSH0 SWAP1 SLOAD SWAP1 PUSH2 0x100 EXP SWAP1 DIV PUSH1 0xFF AND SWAP1 POP SWAP3 SWAP2 POP POP JUMP JUMPDEST PUSH0 DUP1 PUSH4 0x3B9ACA00 PUSH4 0x37308226 DUP5 PUSH2 0x126D SWAP2 SWAP1 PUSH2 0x2900 JUMP JUMPDEST PUSH2 0x1277 SWAP2 SWAP1 PUSH2 0x296E JUMP JUMPDEST SWAP1 POP DUP1 DUP5 PUSH1 0x2 PUSH1 0x3 DUP2 LT PUSH2 0x128E JUMPI PUSH2 0x128D PUSH2 0x299E JUMP JUMPDEST JUMPDEST PUSH1 0x20 MUL ADD MLOAD DUP6 PUSH1 0x1 PUSH1 0x3 DUP2 LT PUSH2 0x12A7 JUMPI PUSH2 0x12A6 PUSH2 0x299E JUMP JUMPDEST JUMPDEST PUSH1 0x20 MUL ADD MLOAD DUP7 PUSH0 PUSH1 0x3 DUP2 LT PUSH2 0x12BF JUMPI PUSH2 0x12BE PUSH2 0x299E JUMP JUMPDEST JUMPDEST PUSH1 0x20 MUL ADD MLOAD PUSH2 0x12CE SWAP2 SWAP1 PUSH2 0x2BBB JUMP JUMPDEST PUSH2 0x12D8 SWAP2 SWAP1 PUSH2 0x2BBB JUMP JUMPDEST EQ SWAP2 POP POP SWAP3 SWAP2 POP POP JUMP JUMPDEST PUSH0 DUP1 PUSH1 0x1 PUSH1 0x9 PUSH1 0x1 DUP7 PUSH2 0x12F5 SWAP2 SWAP1 PUSH2 0x2AE2 JUMP JUMPDEST PUSH2 0x12FF SWAP2 SWAP1 PUSH2 0x2B15 JUMP JUMPDEST PUSH2 0x1309 SWAP2 SWAP1 PUSH2 0x28CD JUMP JUMPDEST SWAP1 POP PUSH1 0xC DUP4 GT ISZERO DUP1 ISZERO PUSH2 0x131D JUMPI POP PUSH1 0x9 DUP2 GT ISZERO JUMPDEST SWAP2 POP POP SWAP3 SWAP2 POP POP JUMP JUMPDEST PUSH0 DUP1 SHL DUP2 JUMP JUMPDEST PUSH0 DUP1 DUP6 GT DUP1 ISZERO PUSH2 0x133D JUMPI POP PUSH1 0x6C DUP6 GT ISZERO JUMPDEST DUP1 ISZERO PUSH2 0x1349 JUMPI POP PUSH1 0x9 DUP5 LT JUMPDEST DUP1 ISZERO PUSH2 0x1354 JUMPI POP PUSH0 DUP4 GT JUMPDEST DUP1 ISZERO PUSH2 0x135F JUMPI POP PUSH0 DUP3 GT JUMPDEST SWAP1 POP SWAP5 SWAP4 POP POP POP POP JUMP JUMPDEST PUSH0 DUP1 DUP3 MLOAD GT DUP1 ISZERO PUSH2 0x137C JUMPI POP PUSH0 DUP1 SHL DUP4 EQ ISZERO JUMPDEST SWAP1 POP SWAP3 SWAP2 POP POP JUMP JUMPDEST PUSH2 0x138D DUP3 PUSH2 0x9F6 JUMP JUMPDEST PUSH2 0x1396 DUP2 PUSH2 0x15F5 JUMP JUMPDEST PUSH2 0x13A0 DUP4 DUP4 PUSH2 0x16F9 JUMP JUMPDEST POP POP POP POP JUMP JUMPDEST PUSH0 DUP1 PUSH0 SHL DUP4 EQ ISZERO DUP1 ISZERO PUSH2 0x13B8 JUMPI POP PUSH0 DUP3 GT JUMPDEST SWAP1 POP SWAP3 SWAP2 POP POP JUMP JUMPDEST PUSH0 DUP2 DUP1 ISZERO PUSH2 0x13CE JUMPI POP DUP3 DUP5 LT ISZERO JUMPDEST SWAP1 POP SWAP4 SWAP3 POP POP POP JUMP JUMPDEST PUSH0 DUP1 DUP4 SUB PUSH2 0x13E7 JUMPI PUSH0 SWAP1 POP PUSH2 0x144B JUMP JUMPDEST PUSH0 PUSH1 0xA PUSH8 0xDE0B6B3A7640000 DUP6 PUSH2 0x13FE SWAP2 SWAP1 PUSH2 0x2900 JUMP JUMPDEST PUSH2 0x1408 SWAP2 SWAP1 PUSH2 0x296E JUMP JUMPDEST SWAP1 POP PUSH0 PUSH1 0x3 DUP6 GT PUSH2 0x1419 JUMPI DUP5 PUSH2 0x141C JUMP JUMPDEST PUSH1 0x3 JUMPDEST SWAP1 POP PUSH1 0x3 DUP5 GT PUSH2 0x142B JUMPI PUSH1 0x1 SWAP1 POP JUMPDEST DUP2 DUP10 LT ISZERO DUP1 ISZERO PUSH2 0x143B JUMPI POP DUP1 DUP7 LT ISZERO JUMPDEST DUP1 ISZERO PUSH2 0x1446 JUMPI POP DUP7 DUP9 GT JUMPDEST SWAP3 POP POP POP JUMPDEST SWAP7 SWAP6 POP POP POP POP POP POP JUMP JUMPDEST PUSH0 DUP1 DUP3 PUSH1 0x40 MLOAD PUSH1 0x20 ADD PUSH2 0x1468 SWAP2 SWAP1 PUSH2 0x2C76 JUMP JUMPDEST PUSH1 0x40 MLOAD PUSH1 0x20 DUP2 DUP4 SUB SUB DUP2 MSTORE SWAP1 PUSH1 0x40 MSTORE DUP1 MLOAD SWAP1 PUSH1 0x20 ADD KECCAK256 SWAP1 POP PUSH32 0x9C6E946312C1ED1FF35F417AF781DF237AD04671CDB7C9B87430E63BB0C6FBC3 DUP2 EQ DUP1 PUSH2 0x14CD JUMPI POP PUSH32 0x2ABB082C1B23EA79FCE2A9E934ECB19CE15738B1483C365D0125F47E8CCC7DFC DUP2 EQ JUMPDEST DUP1 PUSH2 0x14F7 JUMPI POP PUSH32 0x9599D5E4E43121196CADFEAEA326E46F58D9DB74299DECFD64BD3B700350CCD9 DUP2 EQ JUMPDEST DUP1 PUSH2 0x1521 JUMPI POP PUSH32 0xB57DD00B0A8B2AAD812B2C5318E4E11F83447E0EEF3E5EEEF5D971FD155CDBBF DUP2 EQ JUMPDEST SWAP2 POP POP SWAP2 SWAP1 POP JUMP JUMPDEST PUSH0 DUP1 PUSH5 0x174876E800 PUSH5 0x1B984112F DUP5 PUSH2 0x1542 SWAP2 SWAP1 PUSH2 0x2900 JUMP JUMPDEST PUSH2 0x154C SWAP2 SWAP1 PUSH2 0x296E JUMP JUMPDEST SWAP1 POP DUP1 DUP2 PUSH2 0x155A SWAP2 SWAP1 PUSH2 0x2900 JUMP JUMPDEST DUP5 PUSH8 0xDE0B6B3A7640000 DUP7 PUSH2 0x156F SWAP2 SWAP1 PUSH2 0x2900 JUMP JUMPDEST PUSH2 0x1579 SWAP2 SWAP1 PUSH2 0x2900 JUMP JUMPDEST PUSH2 0x1583 SWAP2 SWAP1 PUSH2 0x296E JUMP JUMPDEST SWAP2 POP POP SWAP3 SWAP2 POP POP JUMP JUMPDEST PUSH0 PUSH32 0x1FFC9A700000000000000000000000000000000000000000000000000000000 PUSH28 0xFFFFFFFFFFFFFFFFFFFFFFFFFFFFFFFFFFFFFFFFFFFFFFFFFFFFFFFF NOT AND DUP3 PUSH28 0xFFFFFFFFFFFFFFFFFFFFFFFFFFFFFFFFFFFFFFFFFFFFFFFFFFFFFFFF NOT AND EQ SWAP1 POP SWAP2 SWAP1 POP JUMP JUMPDEST PUSH2 0x1606 DUP2 PUSH2 0x1601 PUSH2 0x16F2 JUMP JUMPDEST PUSH2 0x17E2 JUMP JUMPDEST POP JUMP JUMPDEST PUSH0 PUSH2 0x1614 DUP4 DUP4 PUSH2 0x11F3 JUMP JUMPDEST PUSH2 0x16E8 JUMPI PUSH1 0x1 PUSH0 DUP1 DUP6 DUP2 MSTORE PUSH1 0x20 ADD SWAP1 DUP2 MSTORE PUSH1 0x20 ADD PUSH0 KECCAK256 PUSH0 ADD PUSH0 DUP5 PUSH20 0xFFFFFFFFFFFFFFFFFFFFFFFFFFFFFFFFFFFFFFFF AND PUSH20 0xFFFFFFFFFFFFFFFFFFFFFFFFFFFFFFFFFFFFFFFF AND DUP2 MSTORE PUSH1 0x20 ADD SWAP1 DUP2 MSTORE PUSH1 0x20 ADD PUSH0 KECCAK256 PUSH0 PUSH2 0x100 EXP DUP2 SLOAD DUP2 PUSH1 0xFF MUL NOT AND SWAP1 DUP4 ISZERO ISZERO MUL OR SWAP1 SSTORE POP PUSH2 0x1685 PUSH2 0x16F2 JUMP JUMPDEST PUSH20 0xFFFFFFFFFFFFFFFFFFFFFFFFFFFFFFFFFFFFFFFF AND DUP3 PUSH20 0xFFFFFFFFFFFFFFFFFFFFFFFFFFFFFFFFFFFFFFFF AND DUP5 PUSH32 0x2F8788117E7EFF1D82E926EC794901D17C78024A50270940304540A733656F0D PUSH1 0x40 MLOAD PUSH1 0x40 MLOAD DUP1 SWAP2 SUB SWAP1 LOG4 PUSH1 0x1 SWAP1 POP PUSH2 0x16EC JUMP JUMPDEST PUSH0 SWAP1 POP JUMPDEST SWAP3 SWAP2 POP POP JUMP JUMPDEST PUSH0 CALLER SWAP1 POP SWAP1 JUMP JUMPDEST PUSH0 PUSH2 0x1704 DUP4 DUP4 PUSH2 0x11F3 JUMP JUMPDEST ISZERO PUSH2 0x17D8 JUMPI PUSH0 DUP1 PUSH0 DUP6 DUP2 MSTORE PUSH1 0x20 ADD SWAP1 DUP2 MSTORE PUSH1 0x20 ADD PUSH0 KECCAK256 PUSH0 ADD PUSH0 DUP5 PUSH20 0xFFFFFFFFFFFFFFFFFFFFFFFFFFFFFFFFFFFFFFFF AND PUSH20 0xFFFFFFFFFFFFFFFFFFFFFFFFFFFFFFFFFFFFFFFF AND DUP2 MSTORE PUSH1 0x20 ADD SWAP1 DUP2 MSTORE PUSH1 0x20 ADD PUSH0 KECCAK256 PUSH0 PUSH2 0x100 EXP DUP2 SLOAD DUP2 PUSH1 0xFF MUL NOT AND SWAP1 DUP4 ISZERO ISZERO MUL OR SWAP1 SSTORE POP PUSH2 0x1775 PUSH2 0x16F2 JUMP JUMPDEST PUSH20 0xFFFFFFFFFFFFFFFFFFFFFFFFFFFFFFFFFFFFFFFF AND DUP3 PUSH20 0xFFFFFFFFFFFFFFFFFFFFFFFFFFFFFFFFFFFFFFFF AND DUP5 PUSH32 0xF6391F5C32D9C69D2A47EA670B442974B53935D1EDC7FD64EB21E047A839171B PUSH1 0x40 MLOAD PUSH1 0x40 MLOAD DUP1 SWAP2 SUB SWAP1 LOG4 PUSH1 0x1 SWAP1 POP PUSH2 0x17DC JUMP JUMPDEST PUSH0 SWAP1 POP JUMPDEST SWAP3 SWAP2 POP POP JUMP JUMPDEST PUSH2 0x17EC DUP3 DUP3 PUSH2 0x11F3 JUMP JUMPDEST PUSH2 0x182F JUMPI DUP1 DUP3 PUSH1 0x40 MLOAD PUSH32 0xE2517D3F00000000000000000000000000000000000000000000000000000000 DUP2 MSTORE PUSH1 0x4 ADD PUSH2 0x1826 SWAP3 SWAP2 SWAP1 PUSH2 0x2C9B JUMP JUMPDEST PUSH1 0x40 MLOAD DUP1 SWAP2 SUB SWAP1 REVERT JUMPDEST POP POP JUMP JUMPDEST PUSH1 0x40 MLOAD DUP1 PUSH1 0x60 ADD PUSH1 0x40 MSTORE DUP1 PUSH1 0x3 SWAP1 PUSH1 0x20 DUP3 MUL DUP1 CALLDATASIZE DUP4 CALLDATACOPY DUP1 DUP3 ADD SWAP2 POP POP SWAP1 POP POP SWAP1 JUMP JUMPDEST PUSH0 PUSH1 0x40 MLOAD SWAP1 POP SWAP1 JUMP JUMPDEST PUSH0 DUP1 REVERT JUMPDEST PUSH0 DUP1 REVERT JUMPDEST PUSH0 PUSH32 0xFFFFFFFF00000000000000000000000000000000000000000000000000000000 DUP3 AND SWAP1 POP SWAP2 SWAP1 POP JUMP JUMPDEST PUSH2 0x189A DUP2 PUSH2 0x1866 JUMP JUMPDEST DUP2 EQ PUSH2 0x18A4 JUMPI PUSH0 DUP1 REVERT JUMPDEST POP JUMP JUMPDEST PUSH0 DUP2 CALLDATALOAD SWAP1 POP PUSH2 0x18B5 DUP2 PUSH2 0x1891 JUMP JUMPDEST SWAP3 SWAP2 POP POP JUMP JUMPDEST PUSH0 PUSH1 0x20 DUP3 DUP5 SUB SLT ISZERO PUSH2 0x18D0 JUMPI PUSH2 0x18CF PUSH2 0x185E JUMP JUMPDEST JUMPDEST PUSH0 PUSH2 0x18DD DUP5 DUP3 DUP6 ADD PUSH2 0x18A7 JUMP JUMPDEST SWAP2 POP POP SWAP3 SWAP2 POP POP JUMP JUMPDEST PUSH0 DUP2 ISZERO ISZERO SWAP1 POP SWAP2 SWAP1 POP JUMP JUMPDEST PUSH2 0x18FA DUP2 PUSH2 0x18E6 JUMP JUMPDEST DUP3 MSTORE POP POP JUMP JUMPDEST PUSH0 PUSH1 0x20 DUP3 ADD SWAP1 POP PUSH2 0x1913 PUSH0 DUP4 ADD DUP5 PUSH2 0x18F1 JUMP JUMPDEST SWAP3 SWAP2 POP POP JUMP JUMPDEST PUSH0 DUP2 SWAP1 POP SWAP2 SWAP1 POP JUMP JUMPDEST PUSH2 0x192B DUP2 PUSH2 0x1919 JUMP JUMPDEST DUP2 EQ PUSH2 0x1935 JUMPI PUSH0 DUP1 REVERT JUMPDEST POP JUMP JUMPDEST PUSH0 DUP2 CALLDATALOAD SWAP1 POP PUSH2 0x1946 DUP2 PUSH2 0x1922 JUMP JUMPDEST SWAP3 SWAP2 POP POP JUMP JUMPDEST PUSH0 DUP1 PUSH1 0x40 DUP4 DUP6 SUB SLT ISZERO PUSH2 0x1962 JUMPI PUSH2 0x1961 PUSH2 0x185E JUMP JUMPDEST JUMPDEST PUSH0 PUSH2 0x196F DUP6 DUP3 DUP7 ADD PUSH2 0x1938 JUMP JUMPDEST SWAP3 POP POP PUSH1 0x20 PUSH2 0x1980 DUP6 DUP3 DUP7 ADD PUSH2 0x1938 JUMP JUMPDEST SWAP2 POP POP SWAP3 POP SWAP3 SWAP1 POP JUMP JUMPDEST PUSH2 0x1993 DUP2 PUSH2 0x1919 JUMP JUMPDEST DUP3 MSTORE POP POP JUMP JUMPDEST PUSH0 PUSH1 0x20 DUP3 ADD SWAP1 POP PUSH2 0x19AC PUSH0 DUP4 ADD DUP5 PUSH2 0x198A JUMP JUMPDEST SWAP3 SWAP2 POP POP JUMP JUMPDEST PUSH0 PUSH20 0xFFFFFFFFFFFFFFFFFFFFFFFFFFFFFFFFFFFFFFFF DUP3 AND SWAP1 POP SWAP2 SWAP1 POP JUMP JUMPDEST PUSH0 PUSH2 0x19DB DUP3 PUSH2 0x19B2 JUMP JUMPDEST SWAP1 POP SWAP2 SWAP1 POP JUMP JUMPDEST PUSH2 0x19EB DUP2 PUSH2 0x19D1 JUMP JUMPDEST DUP2 EQ PUSH2 0x19F5 JUMPI PUSH0 DUP1 REVERT JUMPDEST POP JUMP JUMPDEST PUSH0 DUP2 CALLDATALOAD SWAP1 POP PUSH2 0x1A06 DUP2 PUSH2 0x19E2 JUMP JUMPDEST SWAP3 SWAP2 POP POP JUMP JUMPDEST PUSH2 0x1A15 DUP2 PUSH2 0x18E6 JUMP JUMPDEST DUP2 EQ PUSH2 0x1A1F JUMPI PUSH0 DUP1 REVERT JUMPDEST POP JUMP JUMPDEST PUSH0 DUP2 CALLDATALOAD SWAP1 POP PUSH2 0x1A30 DUP2 PUSH2 0x1A0C JUMP JUMPDEST SWAP3 SWAP2 POP POP JUMP JUMPDEST PUSH0 DUP1 PUSH0 DUP1 PUSH0 PUSH1 0xA0 DUP7 DUP9 SUB SLT ISZERO PUSH2 0x1A4F JUMPI PUSH2 0x1A4E PUSH2 0x185E JUMP JUMPDEST JUMPDEST PUSH0 PUSH2 0x1A5C DUP9 DUP3 DUP10 ADD PUSH2 0x19F8 JUMP JUMPDEST SWAP6 POP POP PUSH1 0x20 PUSH2 0x1A6D DUP9 DUP3 DUP10 ADD PUSH2 0x19F8 JUMP JUMPDEST SWAP5 POP POP PUSH1 0x40 PUSH2 0x1A7E DUP9 DUP3 DUP10 ADD PUSH2 0x19F8 JUMP JUMPDEST SWAP4 POP POP PUSH1 0x60 PUSH2 0x1A8F DUP9 DUP3 DUP10 ADD PUSH2 0x1938 JUMP JUMPDEST SWAP3 POP POP PUSH1 0x80 PUSH2 0x1AA0 DUP9 DUP3 DUP10 ADD PUSH2 0x1A22 JUMP JUMPDEST SWAP2 POP POP SWAP3 SWAP6 POP SWAP3 SWAP6 SWAP1 SWAP4 POP JUMP JUMPDEST PUSH0 DUP1 REVERT JUMPDEST PUSH0 PUSH1 0x1F NOT PUSH1 0x1F DUP4 ADD AND SWAP1 POP SWAP2 SWAP1 POP JUMP JUMPDEST PUSH32 0x4E487B7100000000000000000000000000000000000000000000000000000000 PUSH0 MSTORE PUSH1 0x41 PUSH1 0x4 MSTORE PUSH1 0x24 PUSH0 REVERT JUMPDEST PUSH2 0x1AF7 DUP3 PUSH2 0x1AB1 JUMP JUMPDEST DUP2 ADD DUP2 DUP2 LT PUSH8 0xFFFFFFFFFFFFFFFF DUP3 GT OR ISZERO PUSH2 0x1B16 JUMPI PUSH2 0x1B15 PUSH2 0x1AC1 JUMP JUMPDEST JUMPDEST DUP1 PUSH1 0x40 MSTORE POP POP POP JUMP JUMPDEST PUSH0 PUSH2 0x1B28 PUSH2 0x1855 JUMP JUMPDEST SWAP1 POP PUSH2 0x1B34 DUP3 DUP3 PUSH2 0x1AEE JUMP JUMPDEST SWAP2 SWAP1 POP JUMP JUMPDEST PUSH0 PUSH8 0xFFFFFFFFFFFFFFFF DUP3 GT ISZERO PUSH2 0x1B53 JUMPI PUSH2 0x1B52 PUSH2 0x1AC1 JUMP JUMPDEST JUMPDEST PUSH1 0x20 DUP3 MUL SWAP1 POP PUSH1 0x20 DUP2 ADD SWAP1 POP SWAP2 SWAP1 POP JUMP JUMPDEST PUSH0 DUP1 REVERT JUMPDEST PUSH0 DUP2 SWAP1 POP SWAP2 SWAP1 POP JUMP JUMPDEST PUSH2 0x1B7A DUP2 PUSH2 0x1B68 JUMP JUMPDEST DUP2 EQ PUSH2 0x1B84 JUMPI PUSH0 DUP1 REVERT JUMPDEST POP JUMP JUMPDEST PUSH0 DUP2 CALLDATALOAD SWAP1 POP PUSH2 0x1B95 DUP2 PUSH2 0x1B71 JUMP JUMPDEST SWAP3 SWAP2 POP POP JUMP JUMPDEST PUSH0 PUSH2 0x1BAD PUSH2 0x1BA8 DUP5 PUSH2 0x1B39 JUMP JUMPDEST PUSH2 0x1B1F JUMP JUMPDEST SWAP1 POP DUP1 DUP4 DUP3 MSTORE PUSH1 0x20 DUP3 ADD SWAP1 POP PUSH1 0x20 DUP5 MUL DUP4 ADD DUP6 DUP2 GT ISZERO PUSH2 0x1BD0 JUMPI PUSH2 0x1BCF PUSH2 0x1B64 JUMP JUMPDEST JUMPDEST DUP4 JUMPDEST DUP2 DUP2 LT ISZERO PUSH2 0x1BF9 JUMPI DUP1 PUSH2 0x1BE5 DUP9 DUP3 PUSH2 0x1B87 JUMP JUMPDEST DUP5 MSTORE PUSH1 0x20 DUP5 ADD SWAP4 POP POP PUSH1 0x20 DUP2 ADD SWAP1 POP PUSH2 0x1BD2 JUMP JUMPDEST POP POP POP SWAP4 SWAP3 POP POP POP JUMP JUMPDEST PUSH0 DUP3 PUSH1 0x1F DUP4 ADD SLT PUSH2 0x1C17 JUMPI PUSH2 0x1C16 PUSH2 0x1AAD JUMP JUMPDEST JUMPDEST DUP2 CALLDATALOAD PUSH2 0x1C27 DUP5 DUP3 PUSH1 0x20 DUP7 ADD PUSH2 0x1B9B JUMP JUMPDEST SWAP2 POP POP SWAP3 SWAP2 POP POP JUMP JUMPDEST PUSH0 PUSH1 0x20 DUP3 DUP5 SUB SLT ISZERO PUSH2 0x1C45 JUMPI PUSH2 0x1C44 PUSH2 0x185E JUMP JUMPDEST JUMPDEST PUSH0 DUP3 ADD CALLDATALOAD PUSH8 0xFFFFFFFFFFFFFFFF DUP2 GT ISZERO PUSH2 0x1C62 JUMPI PUSH2 0x1C61 PUSH2 0x1862 JUMP JUMPDEST JUMPDEST PUSH2 0x1C6E DUP5 DUP3 DUP6 ADD PUSH2 0x1C03 JUMP JUMPDEST SWAP2 POP POP SWAP3 SWAP2 POP POP JUMP JUMPDEST PUSH0 PUSH1 0x20 DUP3 DUP5 SUB SLT ISZERO PUSH2 0x1C8C JUMPI PUSH2 0x1C8B PUSH2 0x185E JUMP JUMPDEST JUMPDEST PUSH0 PUSH2 0x1C99 DUP5 DUP3 DUP6 ADD PUSH2 0x1B87 JUMP JUMPDEST SWAP2 POP POP SWAP3 SWAP2 POP POP JUMP JUMPDEST PUSH2 0x1CAB DUP2 PUSH2 0x1B68 JUMP JUMPDEST DUP3 MSTORE POP POP JUMP JUMPDEST PUSH0 PUSH1 0x20 DUP3 ADD SWAP1 POP PUSH2 0x1CC4 PUSH0 DUP4 ADD DUP5 PUSH2 0x1CA2 JUMP JUMPDEST SWAP3 SWAP2 POP POP JUMP JUMPDEST PUSH0 PUSH8 0xFFFFFFFFFFFFFFFF DUP3 GT ISZERO PUSH2 0x1CE4 JUMPI PUSH2 0x1CE3 PUSH2 0x1AC1 JUMP JUMPDEST JUMPDEST PUSH1 0x20 DUP3 MUL SWAP1 POP PUSH1 0x20 DUP2 ADD SWAP1 POP SWAP2 SWAP1 POP JUMP JUMPDEST PUSH0 PUSH2 0x1D07 PUSH2 0x1D02 DUP5 PUSH2 0x1CCA JUMP JUMPDEST PUSH2 0x1B1F JUMP JUMPDEST SWAP1 POP DUP1 DUP4 DUP3 MSTORE PUSH1 0x20 DUP3 ADD SWAP1 POP PUSH1 0x20 DUP5 MUL DUP4 ADD DUP6 DUP2 GT ISZERO PUSH2 0x1D2A JUMPI PUSH2 0x1D29 PUSH2 0x1B64 JUMP JUMPDEST JUMPDEST DUP4 JUMPDEST DUP2 DUP2 LT ISZERO PUSH2 0x1D53 JUMPI DUP1 PUSH2 0x1D3F DUP9 DUP3 PUSH2 0x19F8 JUMP JUMPDEST DUP5 MSTORE PUSH1 0x20 DUP5 ADD SWAP4 POP POP PUSH1 0x20 DUP2 ADD SWAP1 POP PUSH2 0x1D2C JUMP JUMPDEST POP POP POP SWAP4 SWAP3 POP POP POP JUMP JUMPDEST PUSH0 DUP3 PUSH1 0x1F DUP4 ADD SLT PUSH2 0x1D71 JUMPI PUSH2 0x1D70 PUSH2 0x1AAD JUMP JUMPDEST JUMPDEST DUP2 CALLDATALOAD PUSH2 0x1D81 DUP5 DUP3 PUSH1 0x20 DUP7 ADD PUSH2 0x1CF5 JUMP JUMPDEST SWAP2 POP POP SWAP3 SWAP2 POP POP JUMP JUMPDEST PUSH0 PUSH8 0xFFFFFFFFFFFFFFFF DUP3 GT ISZERO PUSH2 0x1DA4 JUMPI PUSH2 0x1DA3 PUSH2 0x1AC1 JUMP JUMPDEST JUMPDEST PUSH1 0x20 DUP3 MUL SWAP1 POP PUSH1 0x20 DUP2 ADD SWAP1 POP SWAP2 SWAP1 POP JUMP JUMPDEST PUSH0 PUSH2 0x1DC7 PUSH2 0x1DC2 DUP5 PUSH2 0x1D8A JUMP JUMPDEST PUSH2 0x1B1F JUMP JUMPDEST SWAP1 POP DUP1 DUP4 DUP3 MSTORE PUSH1 0x20 DUP3 ADD SWAP1 POP PUSH1 0x20 DUP5 MUL DUP4 ADD DUP6 DUP2 GT ISZERO PUSH2 0x1DEA JUMPI PUSH2 0x1DE9 PUSH2 0x1B64 JUMP JUMPDEST JUMPDEST DUP4 JUMPDEST DUP2 DUP2 LT ISZERO PUSH2 0x1E13 JUMPI DUP1 PUSH2 0x1DFF DUP9 DUP3 PUSH2 0x1938 JUMP JUMPDEST DUP5 MSTORE PUSH1 0x20 DUP5 ADD SWAP4 POP POP PUSH1 0x20 DUP2 ADD SWAP1 POP PUSH2 0x1DEC JUMP JUMPDEST POP POP POP SWAP4 SWAP3 POP POP POP JUMP JUMPDEST PUSH0 DUP3 PUSH1 0x1F DUP4 ADD SLT PUSH2 0x1E31 JUMPI PUSH2 0x1E30 PUSH2 0x1AAD JUMP JUMPDEST JUMPDEST DUP2 CALLDATALOAD PUSH2 0x1E41 DUP5 DUP3 PUSH1 0x20 DUP7 ADD PUSH2 0x1DB5 JUMP JUMPDEST SWAP2 POP POP SWAP3 SWAP2 POP POP JUMP JUMPDEST PUSH0 DUP1 PUSH1 0x40 DUP4 DUP6 SUB SLT ISZERO PUSH2 0x1E60 JUMPI PUSH2 0x1E5F PUSH2 0x185E JUMP JUMPDEST JUMPDEST PUSH0 DUP4 ADD CALLDATALOAD PUSH8 0xFFFFFFFFFFFFFFFF DUP2 GT ISZERO PUSH2 0x1E7D JUMPI PUSH2 0x1E7C PUSH2 0x1862 JUMP JUMPDEST JUMPDEST PUSH2 0x1E89 DUP6 DUP3 DUP7 ADD PUSH2 0x1D5D JUMP JUMPDEST SWAP3 POP POP PUSH1 0x20 DUP4 ADD CALLDATALOAD PUSH8 0xFFFFFFFFFFFFFFFF DUP2 GT ISZERO PUSH2 0x1EAA JUMPI PUSH2 0x1EA9 PUSH2 0x1862 JUMP JUMPDEST JUMPDEST PUSH2 0x1EB6 DUP6 DUP3 DUP7 ADD PUSH2 0x1E1D JUMP JUMPDEST SWAP2 POP POP SWAP3 POP SWAP3 SWAP1 POP JUMP JUMPDEST PUSH0 DUP1 PUSH0 PUSH1 0x60 DUP5 DUP7 SUB SLT ISZERO PUSH2 0x1ED7 JUMPI PUSH2 0x1ED6 PUSH2 0x185E JUMP JUMPDEST JUMPDEST PUSH0 PUSH2 0x1EE4 DUP7 DUP3 DUP8 ADD PUSH2 0x1938 JUMP JUMPDEST SWAP4 POP POP PUSH1 0x20 PUSH2 0x1EF5 DUP7 DUP3 DUP8 ADD PUSH2 0x1938 JUMP JUMPDEST SWAP3 POP POP PUSH1 0x40 PUSH2 0x1F06 DUP7 DUP3 DUP8 ADD PUSH2 0x1938 JUMP JUMPDEST SWAP2 POP POP SWAP3 POP SWAP3 POP SWAP3 JUMP JUMPDEST PUSH0 DUP1 PUSH0 PUSH1 0x60 DUP5 DUP7 SUB SLT ISZERO PUSH2 0x1F27 JUMPI PUSH2 0x1F26 PUSH2 0x185E JUMP JUMPDEST JUMPDEST PUSH0 DUP5 ADD CALLDATALOAD PUSH8 0xFFFFFFFFFFFFFFFF DUP2 GT ISZERO PUSH2 0x1F44 JUMPI PUSH2 0x1F43 PUSH2 0x1862 JUMP JUMPDEST JUMPDEST PUSH2 0x1F50 DUP7 DUP3 DUP8 ADD PUSH2 0x1E1D JUMP JUMPDEST SWAP4 POP POP PUSH1 0x20 DUP5 ADD CALLDATALOAD PUSH8 0xFFFFFFFFFFFFFFFF DUP2 GT ISZERO PUSH2 0x1F71 JUMPI PUSH2 0x1F70 PUSH2 0x1862 JUMP JUMPDEST JUMPDEST PUSH2 0x1F7D DUP7 DUP3 DUP8 ADD PUSH2 0x1E1D JUMP JUMPDEST SWAP3 POP POP PUSH1 0x40 PUSH2 0x1F8E DUP7 DUP3 DUP8 ADD PUSH2 0x1A22 JUMP JUMPDEST SWAP2 POP POP SWAP3 POP SWAP3 POP SWAP3 JUMP JUMPDEST PUSH0 DUP2 MLOAD SWAP1 POP SWAP2 SWAP1 POP JUMP JUMPDEST PUSH0 DUP3 DUP3 MSTORE PUSH1 0x20 DUP3 ADD SWAP1 POP SWAP3 SWAP2 POP POP JUMP JUMPDEST PUSH0 DUP2 SWAP1 POP PUSH1 0x20 DUP3 ADD SWAP1 POP SWAP2 SWAP1 POP JUMP JUMPDEST PUSH2 0x1FCA DUP2 PUSH2 0x1919 JUMP JUMPDEST DUP3 MSTORE POP POP JUMP JUMPDEST PUSH0 PUSH2 0x1FDB DUP4 DUP4 PUSH2 0x1FC1 JUMP JUMPDEST PUSH1 0x20 DUP4 ADD SWAP1 POP SWAP3 SWAP2 POP POP JUMP JUMPDEST PUSH0 PUSH1 0x20 DUP3 ADD SWAP1 POP SWAP2 SWAP1 POP JUMP JUMPDEST PUSH0 PUSH2 0x1FFD DUP3 PUSH2 0x1F98 JUMP JUMPDEST PUSH2 0x2007 DUP2 DUP6 PUSH2 0x1FA2 JUMP JUMPDEST SWAP4 POP PUSH2 0x2012 DUP4 PUSH2 0x1FB2 JUMP JUMPDEST DUP1 PUSH0 JUMPDEST DUP4 DUP2 LT ISZERO PUSH2 0x2042 JUMPI DUP2 MLOAD PUSH2 0x2029 DUP9 DUP3 PUSH2 0x1FD0 JUMP JUMPDEST SWAP8 POP PUSH2 0x2034 DUP4 PUSH2 0x1FE7 JUMP JUMPDEST SWAP3 POP POP PUSH1 0x1 DUP2 ADD SWAP1 POP PUSH2 0x2015 JUMP JUMPDEST POP DUP6 SWAP4 POP POP POP POP SWAP3 SWAP2 POP POP JUMP JUMPDEST PUSH0 PUSH1 0x20 DUP3 ADD SWAP1 POP DUP2 DUP2 SUB PUSH0 DUP4 ADD MSTORE PUSH2 0x2067 DUP2 DUP5 PUSH2 0x1FF3 JUMP JUMPDEST SWAP1 POP SWAP3 SWAP2 POP POP JUMP JUMPDEST PUSH0 DUP1 PUSH1 0x40 DUP4 DUP6 SUB SLT ISZERO PUSH2 0x2085 JUMPI PUSH2 0x2084 PUSH2 0x185E JUMP JUMPDEST JUMPDEST PUSH0 PUSH2 0x2092 DUP6 DUP3 DUP7 ADD PUSH2 0x1B87 JUMP JUMPDEST SWAP3 POP POP PUSH1 0x20 PUSH2 0x20A3 DUP6 DUP3 DUP7 ADD PUSH2 0x19F8 JUMP JUMPDEST SWAP2 POP POP SWAP3 POP SWAP3 SWAP1 POP JUMP JUMPDEST PUSH0 PUSH8 0xFFFFFFFFFFFFFFFF DUP3 GT ISZERO PUSH2 0x20C7 JUMPI PUSH2 0x20C6 PUSH2 0x1AC1 JUMP JUMPDEST JUMPDEST PUSH1 0x20 DUP3 MUL SWAP1 POP PUSH1 0x20 DUP2 ADD SWAP1 POP SWAP2 SWAP1 POP JUMP JUMPDEST PUSH0 PUSH2 0x20EA PUSH2 0x20E5 DUP5 PUSH2 0x20AD JUMP JUMPDEST PUSH2 0x1B1F JUMP JUMPDEST SWAP1 POP DUP1 DUP4 DUP3 MSTORE PUSH1 0x20 DUP3 ADD SWAP1 POP PUSH1 0x20 DUP5 MUL DUP4 ADD DUP6 DUP2 GT ISZERO PUSH2 0x210D JUMPI PUSH2 0x210C PUSH2 0x1B64 JUMP JUMPDEST JUMPDEST DUP4 JUMPDEST DUP2 DUP2 LT ISZERO PUSH2 0x2136 JUMPI DUP1 PUSH2 0x2122 DUP9 DUP3 PUSH2 0x1A22 JUMP JUMPDEST DUP5 MSTORE PUSH1 0x20 DUP5 ADD SWAP4 POP POP PUSH1 0x20 DUP2 ADD SWAP1 POP PUSH2 0x210F JUMP JUMPDEST POP POP POP SWAP4 SWAP3 POP POP POP JUMP JUMPDEST PUSH0 DUP3 PUSH1 0x1F DUP4 ADD SLT PUSH2 0x2154 JUMPI PUSH2 0x2153 PUSH2 0x1AAD JUMP JUMPDEST JUMPDEST DUP2 CALLDATALOAD PUSH2 0x2164 DUP5 DUP3 PUSH1 0x20 DUP7 ADD PUSH2 0x20D8 JUMP JUMPDEST SWAP2 POP POP SWAP3 SWAP2 POP POP JUMP JUMPDEST PUSH0 DUP1 PUSH0 DUP1 PUSH1 0x80 DUP6 DUP8 SUB SLT ISZERO PUSH2 0x2185 JUMPI PUSH2 0x2184 PUSH2 0x185E JUMP JUMPDEST JUMPDEST PUSH0 PUSH2 0x2192 DUP8 DUP3 DUP9 ADD PUSH2 0x1938 JUMP JUMPDEST SWAP5 POP POP PUSH1 0x20 DUP6 ADD CALLDATALOAD PUSH8 0xFFFFFFFFFFFFFFFF DUP2 GT ISZERO PUSH2 0x21B3 JUMPI PUSH2 0x21B2 PUSH2 0x1862 JUMP JUMPDEST JUMPDEST PUSH2 0x21BF DUP8 DUP3 DUP9 ADD PUSH2 0x1E1D JUMP JUMPDEST SWAP4 POP POP PUSH1 0x40 DUP6 ADD CALLDATALOAD PUSH8 0xFFFFFFFFFFFFFFFF DUP2 GT ISZERO PUSH2 0x21E0 JUMPI PUSH2 0x21DF PUSH2 0x1862 JUMP JUMPDEST JUMPDEST PUSH2 0x21EC DUP8 DUP3 DUP9 ADD PUSH2 0x2140 JUMP JUMPDEST SWAP3 POP POP PUSH1 0x60 DUP6 ADD CALLDATALOAD PUSH8 0xFFFFFFFFFFFFFFFF DUP2 GT ISZERO PUSH2 0x220D JUMPI PUSH2 0x220C PUSH2 0x1862 JUMP JUMPDEST JUMPDEST PUSH2 0x2219 DUP8 DUP3 DUP9 ADD PUSH2 0x2140 JUMP JUMPDEST SWAP2 POP POP SWAP3 SWAP6 SWAP2 SWAP5 POP SWAP3 POP JUMP JUMPDEST PUSH0 DUP1 PUSH1 0x40 DUP4 DUP6 SUB SLT ISZERO PUSH2 0x223B JUMPI PUSH2 0x223A PUSH2 0x185E JUMP JUMPDEST JUMPDEST PUSH0 PUSH2 0x2248 DUP6 DUP3 DUP7 ADD PUSH2 0x1B87 JUMP JUMPDEST SWAP3 POP POP PUSH1 0x20 DUP4 ADD CALLDATALOAD PUSH8 0xFFFFFFFFFFFFFFFF DUP2 GT ISZERO PUSH2 0x2269 JUMPI PUSH2 0x2268 PUSH2 0x1862 JUMP JUMPDEST JUMPDEST PUSH2 0x2275 DUP6 DUP3 DUP7 ADD PUSH2 0x1C03 JUMP JUMPDEST SWAP2 POP POP SWAP3 POP SWAP3 SWAP1 POP JUMP JUMPDEST PUSH0 DUP1 PUSH0 DUP1 PUSH1 0x80 DUP6 DUP8 SUB SLT ISZERO PUSH2 0x2297 JUMPI PUSH2 0x2296 PUSH2 0x185E JUMP JUMPDEST JUMPDEST PUSH0 PUSH2 0x22A4 DUP8 DUP3 DUP9 ADD PUSH2 0x1938 JUMP JUMPDEST SWAP5 POP POP PUSH1 0x20 PUSH2 0x22B5 DUP8 DUP3 DUP9 ADD PUSH2 0x1938 JUMP JUMPDEST SWAP4 POP POP PUSH1 0x40 PUSH2 0x22C6 DUP8 DUP3 DUP9 ADD PUSH2 0x1938 JUMP JUMPDEST SWAP3 POP POP PUSH1 0x60 PUSH2 0x22D7 DUP8 DUP3 DUP9 ADD PUSH2 0x1938 JUMP JUMPDEST SWAP2 POP POP SWAP3 SWAP6 SWAP2 SWAP5 POP SWAP3 POP JUMP JUMPDEST PUSH0 DUP1 PUSH0 PUSH1 0x60 DUP5 DUP7 SUB SLT ISZERO PUSH2 0x22FA JUMPI PUSH2 0x22F9 PUSH2 0x185E JUMP JUMPDEST JUMPDEST PUSH0 PUSH2 0x2307 DUP7 DUP3 DUP8 ADD PUSH2 0x19F8 JUMP JUMPDEST SWAP4 POP POP PUSH1 0x20 PUSH2 0x2318 DUP7 DUP3 DUP8 ADD PUSH2 0x1938 JUMP JUMPDEST SWAP3 POP POP PUSH1 0x40 PUSH2 0x2329 DUP7 DUP3 DUP8 ADD PUSH2 0x1938 JUMP JUMPDEST SWAP2 POP POP SWAP3 POP SWAP3 POP SWAP3 JUMP JUMPDEST PUSH0 DUP2 MLOAD SWAP1 POP SWAP2 SWAP1 POP JUMP JUMPDEST PUSH0 DUP3 DUP3 MSTORE PUSH1 0x20 DUP3 ADD SWAP1 POP SWAP3 SWAP2 POP POP JUMP JUMPDEST PUSH0 JUMPDEST DUP4 DUP2 LT ISZERO PUSH2 0x236A JUMPI DUP1 DUP3 ADD MLOAD DUP2 DUP5 ADD MSTORE PUSH1 0x20 DUP2 ADD SWAP1 POP PUSH2 0x234F JUMP JUMPDEST PUSH0 DUP5 DUP5 ADD MSTORE POP POP POP POP JUMP JUMPDEST PUSH0 PUSH2 0x237F DUP3 PUSH2 0x2333 JUMP JUMPDEST PUSH2 0x2389 DUP2 DUP6 PUSH2 0x233D JUMP JUMPDEST SWAP4 POP PUSH2 0x2399 DUP2 DUP6 PUSH1 0x20 DUP7 ADD PUSH2 0x234D JUMP JUMPDEST PUSH2 0x23A2 DUP2 PUSH2 0x1AB1 JUMP JUMPDEST DUP5 ADD SWAP2 POP POP SWAP3 SWAP2 POP POP JUMP JUMPDEST PUSH0 PUSH1 0x20 DUP3 ADD SWAP1 POP DUP2 DUP2 SUB PUSH0 DUP4 ADD MSTORE PUSH2 0x23C5 DUP2 DUP5 PUSH2 0x2375 JUMP JUMPDEST SWAP1 POP SWAP3 SWAP2 POP POP JUMP JUMPDEST PUSH0 PUSH8 0xFFFFFFFFFFFFFFFF DUP3 GT ISZERO PUSH2 0x23E7 JUMPI PUSH2 0x23E6 PUSH2 0x1AC1 JUMP JUMPDEST JUMPDEST PUSH1 0x20 DUP3 MUL SWAP1 POP SWAP2 SWAP1 POP JUMP JUMPDEST PUSH0 DUP2 SWAP1 POP SWAP2 SWAP1 POP JUMP JUMPDEST PUSH2 0x2404 DUP2 PUSH2 0x23F2 JUMP JUMPDEST DUP2 EQ PUSH2 0x240E JUMPI PUSH0 DUP1 REVERT JUMPDEST POP JUMP JUMPDEST PUSH0 DUP2 CALLDATALOAD SWAP1 POP PUSH2 0x241F DUP2 PUSH2 0x23FB JUMP JUMPDEST SWAP3 SWAP2 POP POP JUMP JUMPDEST PUSH0 PUSH2 0x2437 PUSH2 0x2432 DUP5 PUSH2 0x23CD JUMP JUMPDEST PUSH2 0x1B1F JUMP JUMPDEST SWAP1 POP DUP1 PUSH1 0x20 DUP5 MUL DUP4 ADD DUP6 DUP2 GT ISZERO PUSH2 0x2451 JUMPI PUSH2 0x2450 PUSH2 0x1B64 JUMP JUMPDEST JUMPDEST DUP4 JUMPDEST DUP2 DUP2 LT ISZERO PUSH2 0x247A JUMPI DUP1 PUSH2 0x2466 DUP9 DUP3 PUSH2 0x2411 JUMP JUMPDEST DUP5 MSTORE PUSH1 0x20 DUP5 ADD SWAP4 POP POP PUSH1 0x20 DUP2 ADD SWAP1 POP PUSH2 0x2453 JUMP JUMPDEST POP POP POP SWAP4 SWAP3 POP POP POP JUMP JUMPDEST PUSH0 DUP3 PUSH1 0x1F DUP4 ADD SLT PUSH2 0x2498 JUMPI PUSH2 0x2497 PUSH2 0x1AAD JUMP JUMPDEST JUMPDEST PUSH1 0x3 PUSH2 0x24A5 DUP5 DUP3 DUP6 PUSH2 0x2425 JUMP JUMPDEST SWAP2 POP POP SWAP3 SWAP2 POP POP JUMP JUMPDEST PUSH0 DUP1 PUSH0 PUSH1 0xA0 DUP5 DUP7 SUB SLT ISZERO PUSH2 0x24C5 JUMPI PUSH2 0x24C4 PUSH2 0x185E JUMP JUMPDEST JUMPDEST PUSH0 PUSH2 0x24D2 DUP7 DUP3 DUP8 ADD PUSH2 0x2484 JUMP JUMPDEST SWAP4 POP POP PUSH1 0x60 PUSH2 0x24E3 DUP7 DUP3 DUP8 ADD PUSH2 0x1938 JUMP JUMPDEST SWAP3 POP POP PUSH1 0x80 PUSH2 0x24F4 DUP7 DUP3 DUP8 ADD PUSH2 0x1938 JUMP JUMPDEST SWAP2 POP POP SWAP3 POP SWAP3 POP SWAP3 JUMP JUMPDEST PUSH0 PUSH1 0x3 SWAP1 POP SWAP2 SWAP1 POP JUMP JUMPDEST PUSH0 DUP2 SWAP1 POP SWAP3 SWAP2 POP POP JUMP JUMPDEST PUSH0 DUP2 SWAP1 POP SWAP2 SWAP1 POP JUMP JUMPDEST PUSH2 0x2524 DUP2 PUSH2 0x23F2 JUMP JUMPDEST DUP3 MSTORE POP POP JUMP JUMPDEST PUSH0 PUSH2 0x2535 DUP4 DUP4 PUSH2 0x251B JUMP JUMPDEST PUSH1 0x20 DUP4 ADD SWAP1 POP SWAP3 SWAP2 POP POP JUMP JUMPDEST PUSH0 PUSH1 0x20 DUP3 ADD SWAP1 POP SWAP2 SWAP1 POP JUMP JUMPDEST PUSH2 0x2556 DUP2 PUSH2 0x24FE JUMP JUMPDEST PUSH2 0x2560 DUP2 DUP5 PUSH2 0x2508 JUMP JUMPDEST SWAP3 POP PUSH2 0x256B DUP3 PUSH2 0x2512 JUMP JUMPDEST DUP1 PUSH0 JUMPDEST DUP4 DUP2 LT ISZERO PUSH2 0x259B JUMPI DUP2 MLOAD PUSH2 0x2582 DUP8 DUP3 PUSH2 0x252A JUMP JUMPDEST SWAP7 POP PUSH2 0x258D DUP4 PUSH2 0x2541 JUMP JUMPDEST SWAP3 POP POP PUSH1 0x1 DUP2 ADD SWAP1 POP PUSH2 0x256E JUMP JUMPDEST POP POP POP POP POP POP JUMP JUMPDEST PUSH0 PUSH1 0x60 DUP3 ADD SWAP1 POP PUSH2 0x25B6 PUSH0 DUP4 ADD DUP5 PUSH2 0x254D JUMP JUMPDEST SWAP3 SWAP2 POP POP JUMP JUMPDEST PUSH0 DUP1 PUSH1 0x40 DUP4 DUP6 SUB SLT ISZERO PUSH2 0x25D2 JUMPI PUSH2 0x25D1 PUSH2 0x185E JUMP JUMPDEST JUMPDEST PUSH0 PUSH2 0x25DF DUP6 DUP3 DUP7 ADD PUSH2 0x2411 JUMP JUMPDEST SWAP3 POP POP PUSH1 0x20 PUSH2 0x25F0 DUP6 DUP3 DUP7 ADD PUSH2 0x2411 JUMP JUMPDEST SWAP2 POP POP SWAP3 POP SWAP3 SWAP1 POP JUMP JUMPDEST PUSH0 DUP1 PUSH1 0x80 DUP4 DUP6 SUB SLT ISZERO PUSH2 0x2610 JUMPI PUSH2 0x260F PUSH2 0x185E JUMP JUMPDEST JUMPDEST PUSH0 PUSH2 0x261D DUP6 DUP3 DUP7 ADD PUSH2 0x2484 JUMP JUMPDEST SWAP3 POP POP PUSH1 0x60 PUSH2 0x262E DUP6 DUP3 DUP7 ADD PUSH2 0x1938 JUMP JUMPDEST SWAP2 POP POP SWAP3 POP SWAP3 SWAP1 POP JUMP JUMPDEST PUSH0 DUP1 REVERT JUMPDEST PUSH0 PUSH8 0xFFFFFFFFFFFFFFFF DUP3 GT ISZERO PUSH2 0x2656 JUMPI PUSH2 0x2655 PUSH2 0x1AC1 JUMP JUMPDEST JUMPDEST PUSH2 0x265F DUP3 PUSH2 0x1AB1 JUMP JUMPDEST SWAP1 POP PUSH1 0x20 DUP2 ADD SWAP1 POP SWAP2 SWAP1 POP JUMP JUMPDEST DUP3 DUP2 DUP4 CALLDATACOPY PUSH0 DUP4 DUP4 ADD MSTORE POP POP POP JUMP JUMPDEST PUSH0 PUSH2 0x268C PUSH2 0x2687 DUP5 PUSH2 0x263C JUMP JUMPDEST PUSH2 0x1B1F JUMP JUMPDEST SWAP1 POP DUP3 DUP2 MSTORE PUSH1 0x20 DUP2 ADD DUP5 DUP5 DUP5 ADD GT ISZERO PUSH2 0x26A8 JUMPI PUSH2 0x26A7 PUSH2 0x2638 JUMP JUMPDEST JUMPDEST PUSH2 0x26B3 DUP5 DUP3 DUP6 PUSH2 0x266C JUMP JUMPDEST POP SWAP4 SWAP3 POP POP POP JUMP JUMPDEST PUSH0 DUP3 PUSH1 0x1F DUP4 ADD SLT PUSH2 0x26CF JUMPI PUSH2 0x26CE PUSH2 0x1AAD JUMP JUMPDEST JUMPDEST DUP2 CALLDATALOAD PUSH2 0x26DF DUP5 DUP3 PUSH1 0x20 DUP7 ADD PUSH2 0x267A JUMP JUMPDEST SWAP2 POP POP SWAP3 SWAP2 POP POP JUMP JUMPDEST PUSH0 DUP1 PUSH1 0x40 DUP4 DUP6 SUB SLT ISZERO PUSH2 0x26FE JUMPI PUSH2 0x26FD PUSH2 0x185E JUMP JUMPDEST JUMPDEST PUSH0 PUSH2 0x270B DUP6 DUP3 DUP7 ADD PUSH2 0x1B87 JUMP JUMPDEST SWAP3 POP POP PUSH1 0x20 DUP4 ADD CALLDATALOAD PUSH8 0xFFFFFFFFFFFFFFFF DUP2 GT ISZERO PUSH2 0x272C JUMPI PUSH2 0x272B PUSH2 0x1862 JUMP JUMPDEST JUMPDEST PUSH2 0x2738 DUP6 DUP3 DUP7 ADD PUSH2 0x26BB JUMP JUMPDEST SWAP2 POP POP SWAP3 POP SWAP3 SWAP1 POP JUMP JUMPDEST PUSH0 DUP1 PUSH1 0x40 DUP4 DUP6 SUB SLT ISZERO PUSH2 0x2758 JUMPI PUSH2 0x2757 PUSH2 0x185E JUMP JUMPDEST JUMPDEST PUSH0 PUSH2 0x2765 DUP6 DUP3 DUP7 ADD PUSH2 0x1B87 JUMP JUMPDEST SWAP3 POP POP PUSH1 0x20 PUSH2 0x2776 DUP6 DUP3 DUP7 ADD PUSH2 0x1938 JUMP JUMPDEST SWAP2 POP POP SWAP3 POP SWAP3 SWAP1 POP JUMP JUMPDEST PUSH0 DUP1 PUSH0 PUSH1 0x60 DUP5 DUP7 SUB SLT ISZERO PUSH2 0x2797 JUMPI PUSH2 0x2796 PUSH2 0x185E JUMP JUMPDEST JUMPDEST PUSH0 PUSH2 0x27A4 DUP7 DUP3 DUP8 ADD PUSH2 0x1938 JUMP JUMPDEST SWAP4 POP POP PUSH1 0x20 PUSH2 0x27B5 DUP7 DUP3 DUP8 ADD PUSH2 0x1938 JUMP JUMPDEST SWAP3 POP POP PUSH1 0x40 PUSH2 0x27C6 DUP7 DUP3 DUP8 ADD PUSH2 0x1A22 JUMP JUMPDEST SWAP2 POP POP SWAP3 POP SWAP3 POP SWAP3 JUMP JUMPDEST PUSH0 DUP1 PUSH0 DUP1 PUSH0 DUP1 PUSH1 0xC0 DUP8 DUP10 SUB SLT ISZERO PUSH2 0x27EA JUMPI PUSH2 0x27E9 PUSH2 0x185E JUMP JUMPDEST JUMPDEST PUSH0 PUSH2 0x27F7 DUP10 DUP3 DUP11 ADD PUSH2 0x1938 JUMP JUMPDEST SWAP7 POP POP PUSH1 0x20 PUSH2 0x2808 DUP10 DUP3 DUP11 ADD PUSH2 0x1938 JUMP JUMPDEST SWAP6 POP POP PUSH1 0x40 PUSH2 0x2819 DUP10 DUP3 DUP11 ADD PUSH2 0x1938 JUMP JUMPDEST SWAP5 POP POP PUSH1 0x60 PUSH2 0x282A DUP10 DUP3 DUP11 ADD PUSH2 0x1938 JUMP JUMPDEST SWAP4 POP POP PUSH1 0x80 PUSH2 0x283B DUP10 DUP3 DUP11 ADD PUSH2 0x1938 JUMP JUMPDEST SWAP3 POP POP PUSH1 0xA0 PUSH2 0x284C DUP10 DUP3 DUP11 ADD PUSH2 0x1938 JUMP JUMPDEST SWAP2 POP POP SWAP3 SWAP6 POP SWAP3 SWAP6 POP SWAP3 SWAP6 JUMP JUMPDEST PUSH0 PUSH1 0x20 DUP3 DUP5 SUB SLT ISZERO PUSH2 0x286E JUMPI PUSH2 0x286D PUSH2 0x185E JUMP JUMPDEST JUMPDEST PUSH0 DUP3 ADD CALLDATALOAD PUSH8 0xFFFFFFFFFFFFFFFF DUP2 GT ISZERO PUSH2 0x288B JUMPI PUSH2 0x288A PUSH2 0x1862 JUMP JUMPDEST JUMPDEST PUSH2 0x2897 DUP5 DUP3 DUP6 ADD PUSH2 0x26BB JUMP JUMPDEST SWAP2 POP POP SWAP3 SWAP2 POP POP JUMP JUMPDEST PUSH32 0x4E487B7100000000000000000000000000000000000000000000000000000000 PUSH0 MSTORE PUSH1 0x11 PUSH1 0x4 MSTORE PUSH1 0x24 PUSH0 REVERT JUMPDEST PUSH0 PUSH2 0x28D7 DUP3 PUSH2 0x1919 JUMP JUMPDEST SWAP2 POP PUSH2 0x28E2 DUP4 PUSH2 0x1919 JUMP JUMPDEST SWAP3 POP DUP3 DUP3 ADD SWAP1 POP DUP1 DUP3 GT ISZERO PUSH2 0x28FA JUMPI PUSH2 0x28F9 PUSH2 0x28A0 JUMP JUMPDEST JUMPDEST SWAP3 SWAP2 POP POP JUMP JUMPDEST PUSH0 PUSH2 0x290A DUP3 PUSH2 0x1919 JUMP JUMPDEST SWAP2 POP PUSH2 0x2915 DUP4 PUSH2 0x1919 JUMP JUMPDEST SWAP3 POP DUP3 DUP3 MUL PUSH2 0x2923 DUP2 PUSH2 0x1919 JUMP JUMPDEST SWAP2 POP DUP3 DUP3 DIV DUP5 EQ DUP4 ISZERO OR PUSH2 0x293A JUMPI PUSH2 0x2939 PUSH2 0x28A0 JUMP JUMPDEST JUMPDEST POP SWAP3 SWAP2 POP POP JUMP JUMPDEST PUSH32 0x4E487B7100000000000000000000000000000000000000000000000000000000 PUSH0 MSTORE PUSH1 0x12 PUSH1 0x4 MSTORE PUSH1 0x24 PUSH0 REVERT JUMPDEST PUSH0 PUSH2 0x2978 DUP3 PUSH2 0x1919 JUMP JUMPDEST SWAP2 POP PUSH2 0x2983 DUP4 PUSH2 0x1919 JUMP JUMPDEST SWAP3 POP DUP3 PUSH2 0x2993 JUMPI PUSH2 0x2992 PUSH2 0x2941 JUMP JUMPDEST JUMPDEST DUP3 DUP3 DIV SWAP1 POP SWAP3 SWAP2 POP POP JUMP JUMPDEST PUSH32 0x4E487B7100000000000000000000000000000000000000000000000000000000 PUSH0 MSTORE PUSH1 0x32 PUSH1 0x4 MSTORE PUSH1 0x24 PUSH0 REVERT JUMPDEST PUSH0 PUSH2 0x29D5 DUP3 PUSH2 0x1919 JUMP JUMPDEST SWAP2 POP PUSH32 0xFFFFFFFFFFFFFFFFFFFFFFFFFFFFFFFFFFFFFFFFFFFFFFFFFFFFFFFFFFFFFFFF DUP3 SUB PUSH2 0x2A07 JUMPI PUSH2 0x2A06 PUSH2 0x28A0 JUMP JUMPDEST JUMPDEST PUSH1 0x1 DUP3 ADD SWAP1 POP SWAP2 SWAP1 POP JUMP JUMPDEST PUSH32 0x4C656E677468206D69736D617463680000000000000000000000000000000000 PUSH0 DUP3 ADD MSTORE POP JUMP JUMPDEST PUSH0 PUSH2 0x2A46 PUSH1 0xF DUP4 PUSH2 0x233D JUMP JUMPDEST SWAP2 POP PUSH2 0x2A51 DUP3 PUSH2 0x2A12 JUMP JUMPDEST PUSH1 0x20 DUP3 ADD SWAP1 POP SWAP2 SWAP1 POP JUMP JUMPDEST PUSH0 PUSH1 0x20 DUP3 ADD SWAP1 POP DUP2 DUP2 SUB PUSH0 DUP4 ADD MSTORE PUSH2 0x2A73 DUP2 PUSH2 0x2A3A JUMP JUMPDEST SWAP1 POP SWAP2 SWAP1 POP JUMP JUMPDEST PUSH32 0x496E73756666696369656E742062616C616E6365000000000000000000000000 PUSH0 DUP3 ADD MSTORE POP JUMP JUMPDEST PUSH0 PUSH2 0x2AAE PUSH1 0x14 DUP4 PUSH2 0x233D JUMP JUMPDEST SWAP2 POP PUSH2 0x2AB9 DUP3 PUSH2 0x2A7A JUMP JUMPDEST PUSH1 0x20 DUP3 ADD SWAP1 POP SWAP2 SWAP1 POP JUMP JUMPDEST PUSH0 PUSH1 0x20 DUP3 ADD SWAP1 POP DUP2 DUP2 SUB PUSH0 DUP4 ADD MSTORE PUSH2 0x2ADB DUP2 PUSH2 0x2AA2 JUMP JUMPDEST SWAP1 POP SWAP2 SWAP1 POP JUMP JUMPDEST PUSH0 PUSH2 0x2AEC DUP3 PUSH2 0x1919 JUMP JUMPDEST SWAP2 POP PUSH2 0x2AF7 DUP4 PUSH2 0x1919 JUMP JUMPDEST SWAP3 POP DUP3 DUP3 SUB SWAP1 POP DUP2 DUP2 GT ISZERO PUSH2 0x2B0F JUMPI PUSH2 0x2B0E PUSH2 0x28A0 JUMP JUMPDEST JUMPDEST SWAP3 SWAP2 POP POP JUMP JUMPDEST PUSH0 PUSH2 0x2B1F DUP3 PUSH2 0x1919 JUMP JUMPDEST SWAP2 POP PUSH2 0x2B2A DUP4 PUSH2 0x1919 JUMP JUMPDEST SWAP3 POP DUP3 PUSH2 0x2B3A JUMPI PUSH2 0x2B39 PUSH2 0x2941 JUMP JUMPDEST JUMPDEST DUP3 DUP3 MOD SWAP1 POP SWAP3 SWAP2 POP POP JUMP JUMPDEST PUSH0 PUSH2 0x2B4F DUP3 PUSH2 0x23F2 JUMP JUMPDEST SWAP2 POP PUSH2 0x2B5A DUP4 PUSH2 0x23F2 JUMP JUMPDEST SWAP3 POP DUP3 DUP3 MUL PUSH2 0x2B68 DUP2 PUSH2 0x23F2 JUMP JUMPDEST SWAP2 POP PUSH32 0x8000000000000000000000000000000000000000000000000000000000000000 DUP5 EQ PUSH0 DUP5 SLT AND ISZERO PUSH2 0x2B9F JUMPI PUSH2 0x2B9E PUSH2 0x28A0 JUMP JUMPDEST JUMPDEST DUP3 DUP3 SDIV DUP5 EQ DUP4 ISZERO OR PUSH2 0x2BB4 JUMPI PUSH2 0x2BB3 PUSH2 0x28A0 JUMP JUMPDEST JUMPDEST POP SWAP3 SWAP2 POP POP JUMP JUMPDEST PUSH0 PUSH2 0x2BC5 DUP3 PUSH2 0x23F2 JUMP JUMPDEST SWAP2 POP PUSH2 0x2BD0 DUP4 PUSH2 0x23F2 JUMP JUMPDEST SWAP3 POP DUP3 DUP3 ADD SWAP1 POP DUP3 DUP2 SLT ISZERO PUSH0 DUP4 SLT AND DUP4 DUP3 SLT PUSH0 DUP5 SLT ISZERO AND OR ISZERO PUSH2 0x2BF6 JUMPI PUSH2 0x2BF5 PUSH2 0x28A0 JUMP JUMPDEST JUMPDEST SWAP3 SWAP2 POP POP JUMP JUMPDEST PUSH0 PUSH2 0x2C06 DUP3 PUSH2 0x23F2 JUMP JUMPDEST SWAP2 POP PUSH2 0x2C11 DUP4 PUSH2 0x23F2 JUMP JUMPDEST SWAP3 POP DUP3 DUP3 SUB SWAP1 POP DUP2 DUP2 SLT PUSH0 DUP5 SLT AND DUP3 DUP3 SGT PUSH0 DUP6 SLT ISZERO AND OR ISZERO PUSH2 0x2C36 JUMPI PUSH2 0x2C35 PUSH2 0x28A0 JUMP JUMPDEST JUMPDEST SWAP3 SWAP2 POP POP JUMP JUMPDEST PUSH0 DUP2 SWAP1 POP SWAP3 SWAP2 POP POP JUMP JUMPDEST PUSH0 PUSH2 0x2C50 DUP3 PUSH2 0x2333 JUMP JUMPDEST PUSH2 0x2C5A DUP2 DUP6 PUSH2 0x2C3C JUMP JUMPDEST SWAP4 POP PUSH2 0x2C6A DUP2 DUP6 PUSH1 0x20 DUP7 ADD PUSH2 0x234D JUMP JUMPDEST DUP1 DUP5 ADD SWAP2 POP POP SWAP3 SWAP2 POP POP JUMP JUMPDEST PUSH0 PUSH2 0x2C81 DUP3 DUP5 PUSH2 0x2C46 JUMP JUMPDEST SWAP2 POP DUP2 SWAP1 POP SWAP3 SWAP2 POP POP JUMP JUMPDEST PUSH2 0x2C95 DUP2 PUSH2 0x19D1 JUMP JUMPDEST DUP3 MSTORE POP POP JUMP JUMPDEST PUSH0 PUSH1 0x40 DUP3 ADD SWAP1 POP PUSH2 0x2CAE PUSH0 DUP4 ADD DUP6 PUSH2 0x2C8C JUMP JUMPDEST PUSH2 0x2CBB PUSH1 0x20 DUP4 ADD DUP5 PUSH2 0x1CA2 JUMP JUMPDEST SWAP4 SWAP3 POP POP POP JUMP INVALID LOG2 PUSH5 0x6970667358 0x22 SLT KECCAK256 GT MULMOD PUSH21 0x38596D836BF21AF78788FC38D74A442B90347843E0 0x49 0x49 0xD1 0xAD 0xA5 PUSH4 0x886D6473 PUSH16 0x6C634300081400330000000000000000 "
		},
		"gasEstimates": {
			"creation": {
				"codeDepositCost": "2302400",
				"executionCost": "infinite",
				"totalCost": "infinite"
			},
			"external": {
				"DEFAULT_ADMIN_ROLE()": "375",
				"calculateBatchBalances(uint256[],uint256[],bool)": "infinite",
				"calculateEnhancedQuorum(uint256,uint256,uint256,uint256)": "infinite",
				"calculateLiquidityReward(uint256,uint256,uint256)": "infinite",
				"calculateMarketImpact(uint256,uint256)": "infinite",
				"calculateReputation(uint256,uint256[],bool[],bool[])": "infinite",
				"calculateStakingBonus(uint256,uint256)": "infinite",
				"deriveChildConstituents(int256[3],uint256,uint256)": "infinite",
				"getRoleAdmin(bytes32)": "infinite",
				"grantRole(bytes32,address)": "infinite",
				"hasRole(bytes32,address)": "3211",
				"renounceRole(bytes32,address)": "infinite",
				"revokeRole(bytes32,address)": "infinite",
				"supportsInterface(bytes4)": "764",
				"validateAnalytics(uint256,uint256,uint256)": "infinite",
				"validateChironSlot(uint256,uint256,uint256,uint256)": "infinite",
				"validateChironStream(uint256,uint256)": "infinite",
				"validateConnection(uint256,uint256,uint256)": "infinite",
				"validateDAOTransaction(uint256,uint256,bool)": "infinite",
				"validateDailyAllocation(uint256,uint256)": "infinite",
				"validateFeatureConstituents(int256[3],uint256)": "infinite",
				"validateFeaturePosition(uint256,uint256)": "infinite",
				"validateLiquidityAmount(uint256,uint256)": "infinite",
				"validateLocationCoordinates(int256,int256)": "infinite",
				"validateMedia(bytes32,bytes32[])": "infinite",
				"validateMediaConsolidation(bytes32[])": "infinite",
				"validateMediaContent(bytes32,string)": "infinite",
				"validateMediaProcessing(bytes32,uint256)": "858",
				"validateMediaType(string)": "infinite",
				"validateNFTBatch(address[],uint256[])": "infinite",
				"validateNFTMint(address,uint256,uint256)": "infinite",
				"validateNFTTransfer(address,address,address,uint256,bool)": "infinite",
				"validateQuorum(uint256,uint256,uint256,uint256,uint256,uint256)": "infinite",
				"validateRootDAO(uint256,uint256,uint256)": "infinite",
				"version()": "infinite"
			}
		},
		"methodIdentifiers": {
			"DEFAULT_ADMIN_ROLE()": "a217fddf",
			"calculateBatchBalances(uint256[],uint256[],bool)": "2b4c8690",
			"calculateEnhancedQuorum(uint256,uint256,uint256,uint256)": "39da595b",
			"calculateLiquidityReward(uint256,uint256,uint256)": "45eb762a",
			"calculateMarketImpact(uint256,uint256)": "f5251dc3",
			"calculateReputation(uint256,uint256[],bool[],bool[])": "37c427c4",
			"calculateStakingBonus(uint256,uint256)": "0977c705",
			"deriveChildConstituents(int256[3],uint256,uint256)": "7439dff2",
			"getRoleAdmin(bytes32)": "248a9ca3",
			"grantRole(bytes32,address)": "2f2ff15d",
			"hasRole(bytes32,address)": "91d14854",
			"renounceRole(bytes32,address)": "36568abe",
			"revokeRole(bytes32,address)": "d547741f",
			"supportsInterface(bytes4)": "01ffc9a7",
			"validateAnalytics(uint256,uint256,uint256)": "28cd1d6e",
			"validateChironSlot(uint256,uint256,uint256,uint256)": "c9a24be7",
			"validateChironStream(uint256,uint256)": "4d44992e",
			"validateConnection(uint256,uint256,uint256)": "7c53ea62",
			"validateDAOTransaction(uint256,uint256,bool)": "dc786508",
			"validateDailyAllocation(uint256,uint256)": "0633aeed",
			"validateFeatureConstituents(int256[3],uint256)": "97a182b5",
			"validateFeaturePosition(uint256,uint256)": "a1c411b7",
			"validateLiquidityAmount(uint256,uint256)": "3fd012fd",
			"validateLocationCoordinates(int256,int256)": "87ba92a1",
			"validateMedia(bytes32,bytes32[])": "38d04d38",
			"validateMediaConsolidation(bytes32[])": "23a8b6c8",
			"validateMediaContent(bytes32,string)": "ca4fac46",
			"validateMediaProcessing(bytes32,uint256)": "d9b92f05",
			"validateMediaType(string)": "f026dc12",
			"validateNFTBatch(address[],uint256[])": "260c45dd",
			"validateNFTMint(address,uint256,uint256)": "42a7a9d4",
			"validateNFTTransfer(address,address,address,uint256,bool)": "1dccb4bb",
			"validateQuorum(uint256,uint256,uint256,uint256,uint256,uint256)": "e7f83ed3",
			"validateRootDAO(uint256,uint256,uint256)": "2b722668",
			"version()": "54fd4d50"
		}
	},
	"abi": [
		{
			"inputs": [],
			"stateMutability": "nonpayable",
			"type": "constructor"
		},
		{
			"inputs": [],
			"name": "AccessControlBadConfirmation",
			"type": "error"
		},
		{
			"inputs": [
				{
					"internalType": "address",
					"name": "account",
					"type": "address"
				},
				{
					"internalType": "bytes32",
					"name": "neededRole",
					"type": "bytes32"
				}
			],
			"name": "AccessControlUnauthorizedAccount",
			"type": "error"
		},
		{
			"anonymous": false,
			"inputs": [
				{
					"indexed": true,
					"internalType": "bytes32",
					"name": "role",
					"type": "bytes32"
				},
				{
					"indexed": true,
					"internalType": "bytes32",
					"name": "previousAdminRole",
					"type": "bytes32"
				},
				{
					"indexed": true,
					"internalType": "bytes32",
					"name": "newAdminRole",
					"type": "bytes32"
				}
			],
			"name": "RoleAdminChanged",
			"type": "event"
		},
		{
			"anonymous": false,
			"inputs": [
				{
					"indexed": true,
					"internalType": "bytes32",
					"name": "role",
					"type": "bytes32"
				},
				{
					"indexed": true,
					"internalType": "address",
					"name": "account",
					"type": "address"
				},
				{
					"indexed": true,
					"internalType": "address",
					"name": "sender",
					"type": "address"
				}
			],
			"name": "RoleGranted",
			"type": "event"
		},
		{
			"anonymous": false,
			"inputs": [
				{
					"indexed": true,
					"internalType": "bytes32",
					"name": "role",
					"type": "bytes32"
				},
				{
					"indexed": true,
					"internalType": "address",
					"name": "account",
					"type": "address"
				},
				{
					"indexed": true,
					"internalType": "address",
					"name": "sender",
					"type": "address"
				}
			],
			"name": "RoleRevoked",
			"type": "event"
		},
		{
			"inputs": [],
			"name": "DEFAULT_ADMIN_ROLE",
			"outputs": [
				{
					"internalType": "bytes32",
					"name": "",
					"type": "bytes32"
				}
			],
			"stateMutability": "view",
			"type": "function"
		},
		{
			"inputs": [
				{
					"internalType": "uint256[]",
					"name": "balances",
					"type": "uint256[]"
				},
				{
					"internalType": "uint256[]",
					"name": "amounts",
					"type": "uint256[]"
				},
				{
					"internalType": "bool",
					"name": "isAddition",
					"type": "bool"
				}
			],
			"name": "calculateBatchBalances",
			"outputs": [
				{
					"internalType": "uint256[]",
					"name": "",
					"type": "uint256[]"
				}
			],
			"stateMutability": "pure",
			"type": "function"
		},
		{
			"inputs": [
				{
					"internalType": "uint256",
					"name": "totalVotes",
					"type": "uint256"
				},
				{
					"internalType": "uint256",
					"name": "activeMemberCount",
					"type": "uint256"
				},
				{
					"internalType": "uint256",
					"name": "stage",
					"type": "uint256"
				},
				{
					"internalType": "uint256",
					"name": "memberReputation",
					"type": "uint256"
				}
			],
			"name": "calculateEnhancedQuorum",
			"outputs": [
				{
					"internalType": "bool",
					"name": "",
					"type": "bool"
				}
			],
			"stateMutability": "pure",
			"type": "function"
		},
		{
			"inputs": [
				{
					"internalType": "uint256",
					"name": "amount",
					"type": "uint256"
				},
				{
					"internalType": "uint256",
					"name": "totalLiquidity",
					"type": "uint256"
				},
				{
					"internalType": "uint256",
					"name": "rewardRate",
					"type": "uint256"
				}
			],
			"name": "calculateLiquidityReward",
			"outputs": [
				{
					"internalType": "uint256",
					"name": "",
					"type": "uint256"
				}
			],
			"stateMutability": "pure",
			"type": "function"
		},
		{
			"inputs": [
				{
					"internalType": "uint256",
					"name": "amount",
					"type": "uint256"
				},
				{
					"internalType": "uint256",
					"name": "dailyAllocation",
					"type": "uint256"
				}
			],
			"name": "calculateMarketImpact",
			"outputs": [
				{
					"internalType": "uint256",
					"name": "",
					"type": "uint256"
				}
			],
			"stateMutability": "pure",
			"type": "function"
		},
		{
			"inputs": [
				{
					"internalType": "uint256",
					"name": "baseScore",
					"type": "uint256"
				},
				{
					"internalType": "uint256[]",
					"name": "trustScores",
					"type": "uint256[]"
				},
				{
					"internalType": "bool[]",
					"name": "isFamilial",
					"type": "bool[]"
				},
				{
					"internalType": "bool[]",
					"name": "isInstitutional",
					"type": "bool[]"
				}
			],
			"name": "calculateReputation",
			"outputs": [
				{
					"internalType": "uint256",
					"name": "",
					"type": "uint256"
				}
			],
			"stateMutability": "pure",
			"type": "function"
		},
		{
			"inputs": [
				{
					"internalType": "uint256",
					"name": "stakeDuration",
					"type": "uint256"
				},
				{
					"internalType": "uint256",
					"name": "stakeAmount",
					"type": "uint256"
				}
			],
			"name": "calculateStakingBonus",
			"outputs": [
				{
					"internalType": "uint256",
					"name": "",
					"type": "uint256"
				}
			],
			"stateMutability": "pure",
			"type": "function"
		},
		{
			"inputs": [
				{
					"internalType": "int256[3]",
					"name": "rootPattern",
					"type": "int256[3]"
				},
				{
					"internalType": "uint256",
					"name": "level",
					"type": "uint256"
				},
				{
					"internalType": "uint256",
					"name": "childLocalId",
					"type": "uint256"
				}
			],
			"name": "deriveChildConstituents",
			"outputs": [
				{
					"internalType": "int256[3]",
					"name": "",
					"type": "int256[3]"
				}
			],
			"stateMutability": "pure",
			"type": "function"
		},
		{
			"inputs": [
				{
					"internalType": "bytes32",
					"name": "role",
					"type": "bytes32"
				}
			],
			"name": "getRoleAdmin",
			"outputs": [
				{
					"internalType": "bytes32",
					"name": "",
					"type": "bytes32"
				}
			],
			"stateMutability": "view",
			"type": "function"
		},
		{
			"inputs": [
				{
					"internalType": "bytes32",
					"name": "role",
					"type": "bytes32"
				},
				{
					"internalType": "address",
					"name": "account",
					"type": "address"
				}
			],
			"name": "grantRole",
			"outputs": [],
			"stateMutability": "nonpayable",
			"type": "function"
		},
		{
			"inputs": [
				{
					"internalType": "bytes32",
					"name": "role",
					"type": "bytes32"
				},
				{
					"internalType": "address",
					"name": "account",
					"type": "address"
				}
			],
			"name": "hasRole",
			"outputs": [
				{
					"internalType": "bool",
					"name": "",
					"type": "bool"
				}
			],
			"stateMutability": "view",
			"type": "function"
		},
		{
			"inputs": [
				{
					"internalType": "bytes32",
					"name": "role",
					"type": "bytes32"
				},
				{
					"internalType": "address",
					"name": "callerConfirmation",
					"type": "address"
				}
			],
			"name": "renounceRole",
			"outputs": [],
			"stateMutability": "nonpayable",
			"type": "function"
		},
		{
			"inputs": [
				{
					"internalType": "bytes32",
					"name": "role",
					"type": "bytes32"
				},
				{
					"internalType": "address",
					"name": "account",
					"type": "address"
				}
			],
			"name": "revokeRole",
			"outputs": [],
			"stateMutability": "nonpayable",
			"type": "function"
		},
		{
			"inputs": [
				{
					"internalType": "bytes4",
					"name": "interfaceId",
					"type": "bytes4"
				}
			],
			"name": "supportsInterface",
			"outputs": [
				{
					"internalType": "bool",
					"name": "",
					"type": "bool"
				}
			],
			"stateMutability": "view",
			"type": "function"
		},
		{
			"inputs": [
				{
					"internalType": "uint256",
					"name": "transactions",
					"type": "uint256"
				},
				{
					"internalType": "uint256",
					"name": "users",
					"type": "uint256"
				},
				{
					"internalType": "uint256",
					"name": "votes",
					"type": "uint256"
				}
			],
			"name": "validateAnalytics",
			"outputs": [
				{
					"internalType": "bool",
					"name": "",
					"type": "bool"
				}
			],
			"stateMutability": "pure",
			"type": "function"
		},
		{
			"inputs": [
				{
					"internalType": "uint256",
					"name": "locationId",
					"type": "uint256"
				},
				{
					"internalType": "uint256",
					"name": "slotId",
					"type": "uint256"
				},
				{
					"internalType": "uint256",
					"name": "patternValue",
					"type": "uint256"
				},
				{
					"internalType": "uint256",
					"name": "durationMs",
					"type": "uint256"
				}
			],
			"name": "validateChironSlot",
			"outputs": [
				{
					"internalType": "bool",
					"name": "",
					"type": "bool"
				}
			],
			"stateMutability": "pure",
			"type": "function"
		},
		{
			"inputs": [
				{
					"internalType": "uint256",
					"name": "locationId",
					"type": "uint256"
				},
				{
					"internalType": "uint256",
					"name": "timestamp",
					"type": "uint256"
				}
			],
			"name": "validateChironStream",
			"outputs": [
				{
					"internalType": "bool",
					"name": "",
					"type": "bool"
				}
			],
			"stateMutability": "pure",
			"type": "function"
		},
		{
			"inputs": [
				{
					"internalType": "uint256",
					"name": "targetConnections",
					"type": "uint256"
				},
				{
					"internalType": "uint256",
					"name": "currentConnections",
					"type": "uint256"
				},
				{
					"internalType": "uint256",
					"name": "timeframe",
					"type": "uint256"
				}
			],
			"name": "validateConnection",
			"outputs": [
				{
					"internalType": "bool",
					"name": "",
					"type": "bool"
				}
			],
			"stateMutability": "pure",
			"type": "function"
		},
		{
			"inputs": [
				{
					"internalType": "uint256",
					"name": "fromBalance",
					"type": "uint256"
				},
				{
					"internalType": "uint256",
					"name": "amount",
					"type": "uint256"
				},
				{
					"internalType": "bool",
					"name": "active",
					"type": "bool"
				}
			],
			"name": "validateDAOTransaction",
			"outputs": [
				{
					"internalType": "bool",
					"name": "",
					"type": "bool"
				}
			],
			"stateMutability": "pure",
			"type": "function"
		},
		{
			"inputs": [
				{
					"internalType": "uint256",
					"name": "lastReset",
					"type": "uint256"
				},
				{
					"internalType": "uint256",
					"name": "currentTime",
					"type": "uint256"
				}
			],
			"name": "validateDailyAllocation",
			"outputs": [
				{
					"internalType": "bool",
					"name": "",
					"type": "bool"
				}
			],
			"stateMutability": "pure",
			"type": "function"
		},
		{
			"inputs": [
				{
					"internalType": "int256[3]",
					"name": "constituents",
					"type": "int256[3]"
				},
				{
					"internalType": "uint256",
					"name": "featureId",
					"type": "uint256"
				}
			],
			"name": "validateFeatureConstituents",
			"outputs": [
				{
					"internalType": "bool",
					"name": "",
					"type": "bool"
				}
			],
			"stateMutability": "pure",
			"type": "function"
		},
		{
			"inputs": [
				{
					"internalType": "uint256",
					"name": "featureId",
					"type": "uint256"
				},
				{
					"internalType": "uint256",
					"name": "cycle",
					"type": "uint256"
				}
			],
			"name": "validateFeaturePosition",
			"outputs": [
				{
					"internalType": "bool",
					"name": "",
					"type": "bool"
				}
			],
			"stateMutability": "pure",
			"type": "function"
		},
		{
			"inputs": [
				{
					"internalType": "uint256",
					"name": "amount",
					"type": "uint256"
				},
				{
					"internalType": "uint256",
					"name": "userBalance",
					"type": "uint256"
				}
			],
			"name": "validateLiquidityAmount",
			"outputs": [
				{
					"internalType": "bool",
					"name": "",
					"type": "bool"
				}
			],
			"stateMutability": "pure",
			"type": "function"
		},
		{
			"inputs": [
				{
					"internalType": "int256",
					"name": "latitude",
					"type": "int256"
				},
				{
					"internalType": "int256",
					"name": "longitude",
					"type": "int256"
				}
			],
			"name": "validateLocationCoordinates",
			"outputs": [
				{
					"internalType": "bool",
					"name": "",
					"type": "bool"
				}
			],
			"stateMutability": "pure",
			"type": "function"
		},
		{
			"inputs": [
				{
					"internalType": "bytes32",
					"name": "contentHash",
					"type": "bytes32"
				},
				{
					"internalType": "bytes32[]",
					"name": "sourceHashes",
					"type": "bytes32[]"
				}
			],
			"name": "validateMedia",
			"outputs": [
				{
					"internalType": "bool",
					"name": "",
					"type": "bool"
				}
			],
			"stateMutability": "pure",
			"type": "function"
		},
		{
			"inputs": [
				{
					"internalType": "bytes32[]",
					"name": "sourceHashes",
					"type": "bytes32[]"
				}
			],
			"name": "validateMediaConsolidation",
			"outputs": [
				{
					"internalType": "bool",
					"name": "",
					"type": "bool"
				}
			],
			"stateMutability": "pure",
			"type": "function"
		},
		{
			"inputs": [
				{
					"internalType": "bytes32",
					"name": "contentHash",
					"type": "bytes32"
				},
				{
					"internalType": "string",
					"name": "mediaType",
					"type": "string"
				}
			],
			"name": "validateMediaContent",
			"outputs": [
				{
					"internalType": "bool",
					"name": "",
					"type": "bool"
				}
			],
			"stateMutability": "pure",
			"type": "function"
		},
		{
			"inputs": [
				{
					"internalType": "bytes32",
					"name": "contentHash",
					"type": "bytes32"
				},
				{
					"internalType": "uint256",
					"name": "timestamp",
					"type": "uint256"
				}
			],
			"name": "validateMediaProcessing",
			"outputs": [
				{
					"internalType": "bool",
					"name": "",
					"type": "bool"
				}
			],
			"stateMutability": "pure",
			"type": "function"
		},
		{
			"inputs": [
				{
					"internalType": "string",
					"name": "mediaType",
					"type": "string"
				}
			],
			"name": "validateMediaType",
			"outputs": [
				{
					"internalType": "bool",
					"name": "",
					"type": "bool"
				}
			],
			"stateMutability": "pure",
			"type": "function"
		},
		{
			"inputs": [
				{
					"internalType": "address[]",
					"name": "accounts",
					"type": "address[]"
				},
				{
					"internalType": "uint256[]",
					"name": "ids",
					"type": "uint256[]"
				}
			],
			"name": "validateNFTBatch",
			"outputs": [
				{
					"internalType": "bool",
					"name": "",
					"type": "bool"
				}
			],
			"stateMutability": "pure",
			"type": "function"
		},
		{
			"inputs": [
				{
					"internalType": "address",
					"name": "to",
					"type": "address"
				},
				{
					"internalType": "uint256",
					"name": "amount",
					"type": "uint256"
				},
				{
					"internalType": "uint256",
					"name": "tokenId",
					"type": "uint256"
				}
			],
			"name": "validateNFTMint",
			"outputs": [
				{
					"internalType": "bool",
					"name": "",
					"type": "bool"
				}
			],
			"stateMutability": "pure",
			"type": "function"
		},
		{
			"inputs": [
				{
					"internalType": "address",
					"name": "caller",
					"type": "address"
				},
				{
					"internalType": "address",
					"name": "from",
					"type": "address"
				},
				{
					"internalType": "address",
					"name": "to",
					"type": "address"
				},
				{
					"internalType": "uint256",
					"name": "amount",
					"type": "uint256"
				},
				{
					"internalType": "bool",
					"name": "isApprovedOperator",
					"type": "bool"
				}
			],
			"name": "validateNFTTransfer",
			"outputs": [
				{
					"internalType": "bool",
					"name": "",
					"type": "bool"
				}
			],
			"stateMutability": "pure",
			"type": "function"
		},
		{
			"inputs": [
				{
					"internalType": "uint256",
					"name": "totalVotes",
					"type": "uint256"
				},
				{
					"internalType": "uint256",
					"name": "forVotes",
					"type": "uint256"
				},
				{
					"internalType": "uint256",
					"name": "againstVotes",
					"type": "uint256"
				},
				{
					"internalType": "uint256",
					"name": "votedMembers",
					"type": "uint256"
				},
				{
					"internalType": "uint256",
					"name": "activeMemberCount",
					"type": "uint256"
				},
				{
					"internalType": "uint256",
					"name": "currentStage",
					"type": "uint256"
				}
			],
			"name": "validateQuorum",
			"outputs": [
				{
					"internalType": "bool",
					"name": "",
					"type": "bool"
				}
			],
			"stateMutability": "pure",
			"type": "function"
		},
		{
			"inputs": [
				{
					"internalType": "uint256",
					"name": "localId",
					"type": "uint256"
				},
				{
					"internalType": "uint256",
					"name": "level",
					"type": "uint256"
				},
				{
					"internalType": "uint256",
					"name": "countAtLevel",
					"type": "uint256"
				}
			],
			"name": "validateRootDAO",
			"outputs": [
				{
					"internalType": "bool",
					"name": "",
					"type": "bool"
				}
			],
			"stateMutability": "pure",
			"type": "function"
		},
		{
			"inputs": [],
			"name": "version",
			"outputs": [
				{
					"internalType": "string",
					"name": "",
					"type": "string"
				}
			],
			"stateMutability": "pure",
			"type": "function"
		}
	]
}