{
	"data": {
		"bytecode": {
			"linkReferences": {},
			"object": "6080806040523461001657610fe9908161001b8239f35b5f80fdfe608060409080825260049081361015610016575f80fd5b5f90813560e01c908163251f51b714610dec575080632737203c14610d215780632b5e12de14610c5557806352f1e7db14610b8e57806354fd4d5014610b175780637f4f95fa146109c55780638ee4d6fb146108df578063953eca4c14610817578063bbc4cfab14610758578063d4fc10ee1461053f578063d6f0cc8d14610485578063dfdb04e1146103a1578063e75c2ab2146102df578063f7438e8d146102185763f80323dc146100c7575f80fd5b3461018d578260031936011261018d576100df610ebe565b9060249081359385519382806020968781019063fe8a626560e01b8252898882015287815261010d81610eee565b5190845afa61011a610f3a565b90156101d65785818051810103126101d257839161013a87849301610f84565b9789518881019163056dec5960e41b83528882015287815261015b81610eee565b51915afa92610168610f3a565b9315610190575050828280518101031261018d57508101519083519215158352820152f35b80fd5b865162461bcd60e51b8152918201859052601b908201527f4661696c656420746f2066657463682073747265616d2074696d6500000000006044820152606490fd5b8380fd5b875162461bcd60e51b8152808401879052601d818701527f4661696c656420746f2066657463682073747265616d207374617475730000006044820152606490fd5b5082903461018d578160031936011261018d578080610235610ebe565b61023d610ed8565b8551637f021c5960e11b602082019081526001600160a01b03909216602480830191909152815261026d81610eee565b51915afa9261027a610f3a565b931561029c575060208380518101031261018d57506020809201519051908152f35b606490602084519162461bcd60e51b8352820152601a60248201527f4661696c656420746f2066657463682072657075746174696f6e0000000000006044820152fd5b503461018d578260031936011261018d57806102f9610ebe565b8451630665de9360e51b60208201908152602480358184015282529061031e81610eee565b51915afa9061032b610f3a565b911561036857610364836103488460208082518301019101610f91565b9251918252602082015290151560408201529081906060820190565b0390f35b606490602084519162461bcd60e51b835282015260136024820152724661696c656420746f2066657463682044414f60681b6044820152fd5b50919034610481576060366003190112610481576103bd610ebe565b9282519360208501630691314b60e41b81526024356024870152604435604487015260448652608086019580871067ffffffffffffffff88111761046e5785968495965251915afa9061040e610f3a565b911561042b57610364836103488460208082518301019101610f91565b606490602084519162461bcd60e51b8352820152601960248201527f4661696c656420746f20666574636820736c6f7420696e666f000000000000006044820152fd5b634e487b7160e01b845260418552602484fd5b8280fd5b5090346104f857826003193601126104f85781806104a1610ebe565b8551631a9f816f60e11b6020820190815260248035818401528252906104c681610eee565b51915afa906104d3610f3a565b91156104fc57506020818051810103126104f857602001519082519182526020820152f35b5080fd5b606490602085519162461bcd60e51b8352820152601f60248201527f4661696c656420746f20666574636820726573657276652062616c616e6365006044820152fd5b5090346104f857826003193601126104f857610559610ebe565b928051926020908080838701633851ca6160e11b815260249788358982015288815261058481610eee565b5190895afa91610592610f3a565b921561071757610100938484805181010312610481578184015190808501516105bd60608701610f84565b916105ca60808801610f84565b9360a08801519560c08901519760e08a01519960ff8b16809b036104f857818d9e9f8d829301519e875186810191630ecce30160e31b8352815261060d81610f1e565b51915afa610619610f3a565b90156106dc5782818051810103126104f8578201518590871561068b5750506002905b84519d60068310156106795750506101209d508c528b0152890152151560608801521515608087015260a086015260c085015260e0840152820152f35b634e487b7160e01b8252602181528f82fd5b881561069b57505060059061063c565b848110156106ab5750508061063c565b11806106ba575060019061063c565b8989116106ca575060039061063c565b156106d6578c9061063c565b8061063c565b50508b60158e60649386519362461bcd60e51b85528401528201527408cc2d2d8cac840e8de40cccae8c6d040cae0dec6d605b1b6044820152fd5b8460188760649387519362461bcd60e51b85528401528201527f4661696c656420746f2066657463682070726f706f73616c00000000000000006044820152fd5b503461018d578260031936011261018d5780610772610ebe565b61077a610ed8565b8551636265353360e01b602082019081526001600160a01b0390921660248083019190915281526107aa81610eee565b51915afa906107b7610f3a565b91156107d457610364836103488460208082518301019101610f91565b606490602084519162461bcd60e51b8352820152601f60248201527f4661696c656420746f20666574636820636f6e6e656374696f6e20696e666f006044820152fd5b509190346104815781600319360112610481578280610834610ebe565b845163b9e0db3560e01b60208201908152602480358184015282529061085981610eee565b51915afa90610866610f3a565b911561089c5750608081805181010312610481576060925081810151916080848301519201519181519384526020840152820152f35b606490602084519162461bcd60e51b8352820152601860248201527f4661696c656420746f206665746368206c6f636174696f6e00000000000000006044820152fd5b5091903461048157816003193601126104815782806108fc610ebe565b845163b695e2d160e01b60208201908152602480358184015282529061092181610eee565b51915afa9061092e610f3a565b911561098257506060818051810103126104815761094e60208201610f84565b916060818301519201519160018060a01b03831680930361097e5760609450815193151584526020840152820152f35b8480fd5b606490602084519162461bcd60e51b8352820152601a60248201527f4661696c656420746f206665746368206d6564696120696e666f0000000000006044820152fd5b5090346104f857826003193601126104f8576109df610ebe565b906109e8610ed8565b9284519160209382808686019763186e2d7760e21b895260018060a01b0316976024968988820152878152610a1c81610eee565b5190845afa610a29610f3a565b9015610ad55785818051810103126101d25783918683920151978951888101916318ebd13160e11b835288820152878152610a6381610eee565b51915afa92610a70610f3a565b9315610a93575050828280518101031261018d5750810151908351928352820152f35b865162461bcd60e51b81529182018590526017908201527f4661696c656420746f20666574636820726577617264730000000000000000006044820152606490fd5b875162461bcd60e51b8152808401879052601f818701527f4661696c656420746f206665746368207374616b696e672062616c616e6365006044820152606490fd5b5082346104f857816003193601126104f8578051610b3481610f1e565b60058152602090640312e302e360dc1b8282015282519382859384528251928382860152825b848110610b7857505050828201840152601f01601f19168101030190f35b8181018301518882018801528795508201610b5a565b5082903461018d578160031936011261018d578080610bab610ebe565b610bb3610ed8565b855163036996d560e61b602082019081526001600160a01b039092166024808301919091528152610be381610eee565b51915afa92610bf0610f3a565b9315610c12575060208380518101031261018d57506020809201519051908152f35b606490602084519162461bcd60e51b8352820152601860248201527f4661696c656420746f20666574636820616374697669747900000000000000006044820152fd5b503461018d578260031936011261018d578080610c70610ebe565b610c78610ed8565b865163604036db60e11b602082019081526001600160a01b039092166024808301919091528152610ca881610eee565b51915afa91610cb5610f3a565b9215610cde5750828280518101031261018d575081602082015191015182519182526020820152f35b606490602085519162461bcd60e51b8352820152601e60248201527f4661696c656420746f206665746368206c697175696469747920696e666f00006044820152fd5b509134610481576020366003190112610481578280610d3e610ebe565b8351631f345e0d60e21b6020820190815286825290610d5c81610f1e565b51915afa91610d69610f3a565b9215610daa57506080828051810103126104815760809250602082015191818101519184606083015192015192815194855260208501528301526060820152f35b6020606492519162461bcd60e51b8352820152601960248201527f4661696c656420746f20666574636820616e616c7974696373000000000000006044820152fd5b8484848093346104f857836003193601126104f8578190610e0b610ebe565b638ede6f9f60e01b60208301908152602480358185015283529091610e2f81610eee565b51915afa90610e3c610f3a565b9115610e7b57506060818051810103126104815760609250610e6060208201610f84565b91838183015192015191815193151584526020840152820152f35b606490602084519162461bcd60e51b8352820152601760248201527f4661696c656420746f20666574636820666561747572650000000000000000006044820152fd5b600435906001600160a01b0382168203610ed457565b5f80fd5b602435906001600160a01b0382168203610ed457565b6060810190811067ffffffffffffffff821117610f0a57604052565b634e487b7160e01b5f52604160045260245ffd5b6040810190811067ffffffffffffffff821117610f0a57604052565b3d15610f7f5767ffffffffffffffff903d828111610f0a5760405192601f8201601f19908116603f0116840190811184821017610f0a5760405282523d5f602084013e565b606090565b51908115158203610ed457565b90816060910312610ed457805191610fb0604060208401519301610f84565b9056fea264697066735822122095f29ef95e5684fffad27a62814ffb3e5ccdcee026417838d51af80df63a5aad64736f6c63430008140033",
			"opcodes": "PUSH1 0x80 DUP1 PUSH1 0x40 MSTORE CALLVALUE PUSH2 0x16 JUMPI PUSH2 0xFE9 SWAP1 DUP2 PUSH2 0x1B DUP3 CODECOPY RETURN JUMPDEST PUSH0 DUP1 REVERT INVALID PUSH1 0x80 PUSH1 0x40 SWAP1 DUP1 DUP3 MSTORE PUSH1 0x4 SWAP1 DUP2 CALLDATASIZE LT ISZERO PUSH2 0x16 JUMPI PUSH0 DUP1 REVERT JUMPDEST PUSH0 SWAP1 DUP2 CALLDATALOAD PUSH1 0xE0 SHR SWAP1 DUP2 PUSH4 0x251F51B7 EQ PUSH2 0xDEC JUMPI POP DUP1 PUSH4 0x2737203C EQ PUSH2 0xD21 JUMPI DUP1 PUSH4 0x2B5E12DE EQ PUSH2 0xC55 JUMPI DUP1 PUSH4 0x52F1E7DB EQ PUSH2 0xB8E JUMPI DUP1 PUSH4 0x54FD4D50 EQ PUSH2 0xB17 JUMPI DUP1 PUSH4 0x7F4F95FA EQ PUSH2 0x9C5 JUMPI DUP1 PUSH4 0x8EE4D6FB EQ PUSH2 0x8DF JUMPI DUP1 PUSH4 0x953ECA4C EQ PUSH2 0x817 JUMPI DUP1 PUSH4 0xBBC4CFAB EQ PUSH2 0x758 JUMPI DUP1 PUSH4 0xD4FC10EE EQ PUSH2 0x53F JUMPI DUP1 PUSH4 0xD6F0CC8D EQ PUSH2 0x485 JUMPI DUP1 PUSH4 0xDFDB04E1 EQ PUSH2 0x3A1 JUMPI DUP1 PUSH4 0xE75C2AB2 EQ PUSH2 0x2DF JUMPI DUP1 PUSH4 0xF7438E8D EQ PUSH2 0x218 JUMPI PUSH4 0xF80323DC EQ PUSH2 0xC7 JUMPI PUSH0 DUP1 REVERT JUMPDEST CALLVALUE PUSH2 0x18D JUMPI DUP3 PUSH1 0x3 NOT CALLDATASIZE ADD SLT PUSH2 0x18D JUMPI PUSH2 0xDF PUSH2 0xEBE JUMP JUMPDEST SWAP1 PUSH1 0x24 SWAP1 DUP2 CALLDATALOAD SWAP4 DUP6 MLOAD SWAP4 DUP3 DUP1 PUSH1 0x20 SWAP7 DUP8 DUP2 ADD SWAP1 PUSH4 0xFE8A6265 PUSH1 0xE0 SHL DUP3 MSTORE DUP10 DUP9 DUP3 ADD MSTORE DUP8 DUP2 MSTORE PUSH2 0x10D DUP2 PUSH2 0xEEE JUMP JUMPDEST MLOAD SWAP1 DUP5 GAS STATICCALL PUSH2 0x11A PUSH2 0xF3A JUMP JUMPDEST SWAP1 ISZERO PUSH2 0x1D6 JUMPI DUP6 DUP2 DUP1 MLOAD DUP2 ADD SUB SLT PUSH2 0x1D2 JUMPI DUP4 SWAP2 PUSH2 0x13A DUP8 DUP5 SWAP4 ADD PUSH2 0xF84 JUMP JUMPDEST SWAP8 DUP10 MLOAD DUP9 DUP2 ADD SWAP2 PUSH4 0x56DEC59 PUSH1 0xE4 SHL DUP4 MSTORE DUP9 DUP3 ADD MSTORE DUP8 DUP2 MSTORE PUSH2 0x15B DUP2 PUSH2 0xEEE JUMP JUMPDEST MLOAD SWAP2 GAS STATICCALL SWAP3 PUSH2 0x168 PUSH2 0xF3A JUMP JUMPDEST SWAP4 ISZERO PUSH2 0x190 JUMPI POP POP DUP3 DUP3 DUP1 MLOAD DUP2 ADD SUB SLT PUSH2 0x18D JUMPI POP DUP2 ADD MLOAD SWAP1 DUP4 MLOAD SWAP3 ISZERO ISZERO DUP4 MSTORE DUP3 ADD MSTORE RETURN JUMPDEST DUP1 REVERT JUMPDEST DUP7 MLOAD PUSH3 0x461BCD PUSH1 0xE5 SHL DUP2 MSTORE SWAP2 DUP3 ADD DUP6 SWAP1 MSTORE PUSH1 0x1B SWAP1 DUP3 ADD MSTORE PUSH32 0x4661696C656420746F2066657463682073747265616D2074696D650000000000 PUSH1 0x44 DUP3 ADD MSTORE PUSH1 0x64 SWAP1 REVERT JUMPDEST DUP4 DUP1 REVERT JUMPDEST DUP8 MLOAD PUSH3 0x461BCD PUSH1 0xE5 SHL DUP2 MSTORE DUP1 DUP5 ADD DUP8 SWAP1 MSTORE PUSH1 0x1D DUP2 DUP8 ADD MSTORE PUSH32 0x4661696C656420746F2066657463682073747265616D20737461747573000000 PUSH1 0x44 DUP3 ADD MSTORE PUSH1 0x64 SWAP1 REVERT JUMPDEST POP DUP3 SWAP1 CALLVALUE PUSH2 0x18D JUMPI DUP2 PUSH1 0x3 NOT CALLDATASIZE ADD SLT PUSH2 0x18D JUMPI DUP1 DUP1 PUSH2 0x235 PUSH2 0xEBE JUMP JUMPDEST PUSH2 0x23D PUSH2 0xED8 JUMP JUMPDEST DUP6 MLOAD PUSH4 0x7F021C59 PUSH1 0xE1 SHL PUSH1 0x20 DUP3 ADD SWAP1 DUP2 MSTORE PUSH1 0x1 PUSH1 0x1 PUSH1 0xA0 SHL SUB SWAP1 SWAP3 AND PUSH1 0x24 DUP1 DUP4 ADD SWAP2 SWAP1 SWAP2 MSTORE DUP2 MSTORE PUSH2 0x26D DUP2 PUSH2 0xEEE JUMP JUMPDEST MLOAD SWAP2 GAS STATICCALL SWAP3 PUSH2 0x27A PUSH2 0xF3A JUMP JUMPDEST SWAP4 ISZERO PUSH2 0x29C JUMPI POP PUSH1 0x20 DUP4 DUP1 MLOAD DUP2 ADD SUB SLT PUSH2 0x18D JUMPI POP PUSH1 0x20 DUP1 SWAP3 ADD MLOAD SWAP1 MLOAD SWAP1 DUP2 MSTORE RETURN JUMPDEST PUSH1 0x64 SWAP1 PUSH1 0x20 DUP5 MLOAD SWAP2 PUSH3 0x461BCD PUSH1 0xE5 SHL DUP4 MSTORE DUP3 ADD MSTORE PUSH1 0x1A PUSH1 0x24 DUP3 ADD MSTORE PUSH32 0x4661696C656420746F2066657463682072657075746174696F6E000000000000 PUSH1 0x44 DUP3 ADD MSTORE REVERT JUMPDEST POP CALLVALUE PUSH2 0x18D JUMPI DUP3 PUSH1 0x3 NOT CALLDATASIZE ADD SLT PUSH2 0x18D JUMPI DUP1 PUSH2 0x2F9 PUSH2 0xEBE JUMP JUMPDEST DUP5 MLOAD PUSH4 0x665DE93 PUSH1 0xE5 SHL PUSH1 0x20 DUP3 ADD SWAP1 DUP2 MSTORE PUSH1 0x24 DUP1 CALLDATALOAD DUP2 DUP5 ADD MSTORE DUP3 MSTORE SWAP1 PUSH2 0x31E DUP2 PUSH2 0xEEE JUMP JUMPDEST MLOAD SWAP2 GAS STATICCALL SWAP1 PUSH2 0x32B PUSH2 0xF3A JUMP JUMPDEST SWAP2 ISZERO PUSH2 0x368 JUMPI PUSH2 0x364 DUP4 PUSH2 0x348 DUP5 PUSH1 0x20 DUP1 DUP3 MLOAD DUP4 ADD ADD SWAP2 ADD PUSH2 0xF91 JUMP JUMPDEST SWAP3 MLOAD SWAP2 DUP3 MSTORE PUSH1 0x20 DUP3 ADD MSTORE SWAP1 ISZERO ISZERO PUSH1 0x40 DUP3 ADD MSTORE SWAP1 DUP2 SWAP1 PUSH1 0x60 DUP3 ADD SWAP1 JUMP JUMPDEST SUB SWAP1 RETURN JUMPDEST PUSH1 0x64 SWAP1 PUSH1 0x20 DUP5 MLOAD SWAP2 PUSH3 0x461BCD PUSH1 0xE5 SHL DUP4 MSTORE DUP3 ADD MSTORE PUSH1 0x13 PUSH1 0x24 DUP3 ADD MSTORE PUSH19 0x4661696C656420746F2066657463682044414F PUSH1 0x68 SHL PUSH1 0x44 DUP3 ADD MSTORE REVERT JUMPDEST POP SWAP2 SWAP1 CALLVALUE PUSH2 0x481 JUMPI PUSH1 0x60 CALLDATASIZE PUSH1 0x3 NOT ADD SLT PUSH2 0x481 JUMPI PUSH2 0x3BD PUSH2 0xEBE JUMP JUMPDEST SWAP3 DUP3 MLOAD SWAP4 PUSH1 0x20 DUP6 ADD PUSH4 0x691314B PUSH1 0xE4 SHL DUP2 MSTORE PUSH1 0x24 CALLDATALOAD PUSH1 0x24 DUP8 ADD MSTORE PUSH1 0x44 CALLDATALOAD PUSH1 0x44 DUP8 ADD MSTORE PUSH1 0x44 DUP7 MSTORE PUSH1 0x80 DUP7 ADD SWAP6 DUP1 DUP8 LT PUSH8 0xFFFFFFFFFFFFFFFF DUP9 GT OR PUSH2 0x46E JUMPI DUP6 SWAP7 DUP5 SWAP6 SWAP7 MSTORE MLOAD SWAP2 GAS STATICCALL SWAP1 PUSH2 0x40E PUSH2 0xF3A JUMP JUMPDEST SWAP2 ISZERO PUSH2 0x42B JUMPI PUSH2 0x364 DUP4 PUSH2 0x348 DUP5 PUSH1 0x20 DUP1 DUP3 MLOAD DUP4 ADD ADD SWAP2 ADD PUSH2 0xF91 JUMP JUMPDEST PUSH1 0x64 SWAP1 PUSH1 0x20 DUP5 MLOAD SWAP2 PUSH3 0x461BCD PUSH1 0xE5 SHL DUP4 MSTORE DUP3 ADD MSTORE PUSH1 0x19 PUSH1 0x24 DUP3 ADD MSTORE PUSH32 0x4661696C656420746F20666574636820736C6F7420696E666F00000000000000 PUSH1 0x44 DUP3 ADD MSTORE REVERT JUMPDEST PUSH4 0x4E487B71 PUSH1 0xE0 SHL DUP5 MSTORE PUSH1 0x41 DUP6 MSTORE PUSH1 0x24 DUP5 REVERT JUMPDEST DUP3 DUP1 REVERT JUMPDEST POP SWAP1 CALLVALUE PUSH2 0x4F8 JUMPI DUP3 PUSH1 0x3 NOT CALLDATASIZE ADD SLT PUSH2 0x4F8 JUMPI DUP2 DUP1 PUSH2 0x4A1 PUSH2 0xEBE JUMP JUMPDEST DUP6 MLOAD PUSH4 0x1A9F816F PUSH1 0xE1 SHL PUSH1 0x20 DUP3 ADD SWAP1 DUP2 MSTORE PUSH1 0x24 DUP1 CALLDATALOAD DUP2 DUP5 ADD MSTORE DUP3 MSTORE SWAP1 PUSH2 0x4C6 DUP2 PUSH2 0xEEE JUMP JUMPDEST MLOAD SWAP2 GAS STATICCALL SWAP1 PUSH2 0x4D3 PUSH2 0xF3A JUMP JUMPDEST SWAP2 ISZERO PUSH2 0x4FC JUMPI POP PUSH1 0x20 DUP2 DUP1 MLOAD DUP2 ADD SUB SLT PUSH2 0x4F8 JUMPI PUSH1 0x20 ADD MLOAD SWAP1 DUP3 MLOAD SWAP2 DUP3 MSTORE PUSH1 0x20 DUP3 ADD MSTORE RETURN JUMPDEST POP DUP1 REVERT JUMPDEST PUSH1 0x64 SWAP1 PUSH1 0x20 DUP6 MLOAD SWAP2 PUSH3 0x461BCD PUSH1 0xE5 SHL DUP4 MSTORE DUP3 ADD MSTORE PUSH1 0x1F PUSH1 0x24 DUP3 ADD MSTORE PUSH32 0x4661696C656420746F20666574636820726573657276652062616C616E636500 PUSH1 0x44 DUP3 ADD MSTORE REVERT JUMPDEST POP SWAP1 CALLVALUE PUSH2 0x4F8 JUMPI DUP3 PUSH1 0x3 NOT CALLDATASIZE ADD SLT PUSH2 0x4F8 JUMPI PUSH2 0x559 PUSH2 0xEBE JUMP JUMPDEST SWAP3 DUP1 MLOAD SWAP3 PUSH1 0x20 SWAP1 DUP1 DUP1 DUP4 DUP8 ADD PUSH4 0x3851CA61 PUSH1 0xE1 SHL DUP2 MSTORE PUSH1 0x24 SWAP8 DUP9 CALLDATALOAD DUP10 DUP3 ADD MSTORE DUP9 DUP2 MSTORE PUSH2 0x584 DUP2 PUSH2 0xEEE JUMP JUMPDEST MLOAD SWAP1 DUP10 GAS STATICCALL SWAP2 PUSH2 0x592 PUSH2 0xF3A JUMP JUMPDEST SWAP3 ISZERO PUSH2 0x717 JUMPI PUSH2 0x100 SWAP4 DUP5 DUP5 DUP1 MLOAD DUP2 ADD SUB SLT PUSH2 0x481 JUMPI DUP2 DUP5 ADD MLOAD SWAP1 DUP1 DUP6 ADD MLOAD PUSH2 0x5BD PUSH1 0x60 DUP8 ADD PUSH2 0xF84 JUMP JUMPDEST SWAP2 PUSH2 0x5CA PUSH1 0x80 DUP9 ADD PUSH2 0xF84 JUMP JUMPDEST SWAP4 PUSH1 0xA0 DUP9 ADD MLOAD SWAP6 PUSH1 0xC0 DUP10 ADD MLOAD SWAP8 PUSH1 0xE0 DUP11 ADD MLOAD SWAP10 PUSH1 0xFF DUP12 AND DUP1 SWAP12 SUB PUSH2 0x4F8 JUMPI DUP2 DUP14 SWAP15 SWAP16 DUP14 DUP3 SWAP4 ADD MLOAD SWAP15 DUP8 MLOAD DUP7 DUP2 ADD SWAP2 PUSH4 0xECCE301 PUSH1 0xE3 SHL DUP4 MSTORE DUP2 MSTORE PUSH2 0x60D DUP2 PUSH2 0xF1E JUMP JUMPDEST MLOAD SWAP2 GAS STATICCALL PUSH2 0x619 PUSH2 0xF3A JUMP JUMPDEST SWAP1 ISZERO PUSH2 0x6DC JUMPI DUP3 DUP2 DUP1 MLOAD DUP2 ADD SUB SLT PUSH2 0x4F8 JUMPI DUP3 ADD MLOAD DUP6 SWAP1 DUP8 ISZERO PUSH2 0x68B JUMPI POP POP PUSH1 0x2 SWAP1 JUMPDEST DUP5 MLOAD SWAP14 PUSH1 0x6 DUP4 LT ISZERO PUSH2 0x679 JUMPI POP POP PUSH2 0x120 SWAP14 POP DUP13 MSTORE DUP12 ADD MSTORE DUP10 ADD MSTORE ISZERO ISZERO PUSH1 0x60 DUP9 ADD MSTORE ISZERO ISZERO PUSH1 0x80 DUP8 ADD MSTORE PUSH1 0xA0 DUP7 ADD MSTORE PUSH1 0xC0 DUP6 ADD MSTORE PUSH1 0xE0 DUP5 ADD MSTORE DUP3 ADD MSTORE RETURN JUMPDEST PUSH4 0x4E487B71 PUSH1 0xE0 SHL DUP3 MSTORE PUSH1 0x21 DUP2 MSTORE DUP16 DUP3 REVERT JUMPDEST DUP9 ISZERO PUSH2 0x69B JUMPI POP POP PUSH1 0x5 SWAP1 PUSH2 0x63C JUMP JUMPDEST DUP5 DUP2 LT ISZERO PUSH2 0x6AB JUMPI POP POP DUP1 PUSH2 0x63C JUMP JUMPDEST GT DUP1 PUSH2 0x6BA JUMPI POP PUSH1 0x1 SWAP1 PUSH2 0x63C JUMP JUMPDEST DUP10 DUP10 GT PUSH2 0x6CA JUMPI POP PUSH1 0x3 SWAP1 PUSH2 0x63C JUMP JUMPDEST ISZERO PUSH2 0x6D6 JUMPI DUP13 SWAP1 PUSH2 0x63C JUMP JUMPDEST DUP1 PUSH2 0x63C JUMP JUMPDEST POP POP DUP12 PUSH1 0x15 DUP15 PUSH1 0x64 SWAP4 DUP7 MLOAD SWAP4 PUSH3 0x461BCD PUSH1 0xE5 SHL DUP6 MSTORE DUP5 ADD MSTORE DUP3 ADD MSTORE PUSH21 0x8CC2D2D8CAC840E8DE40CCCAE8C6D040CAE0DEC6D PUSH1 0x5B SHL PUSH1 0x44 DUP3 ADD MSTORE REVERT JUMPDEST DUP5 PUSH1 0x18 DUP8 PUSH1 0x64 SWAP4 DUP8 MLOAD SWAP4 PUSH3 0x461BCD PUSH1 0xE5 SHL DUP6 MSTORE DUP5 ADD MSTORE DUP3 ADD MSTORE PUSH32 0x4661696C656420746F2066657463682070726F706F73616C0000000000000000 PUSH1 0x44 DUP3 ADD MSTORE REVERT JUMPDEST POP CALLVALUE PUSH2 0x18D JUMPI DUP3 PUSH1 0x3 NOT CALLDATASIZE ADD SLT PUSH2 0x18D JUMPI DUP1 PUSH2 0x772 PUSH2 0xEBE JUMP JUMPDEST PUSH2 0x77A PUSH2 0xED8 JUMP JUMPDEST DUP6 MLOAD PUSH4 0x62653533 PUSH1 0xE0 SHL PUSH1 0x20 DUP3 ADD SWAP1 DUP2 MSTORE PUSH1 0x1 PUSH1 0x1 PUSH1 0xA0 SHL SUB SWAP1 SWAP3 AND PUSH1 0x24 DUP1 DUP4 ADD SWAP2 SWAP1 SWAP2 MSTORE DUP2 MSTORE PUSH2 0x7AA DUP2 PUSH2 0xEEE JUMP JUMPDEST MLOAD SWAP2 GAS STATICCALL SWAP1 PUSH2 0x7B7 PUSH2 0xF3A JUMP JUMPDEST SWAP2 ISZERO PUSH2 0x7D4 JUMPI PUSH2 0x364 DUP4 PUSH2 0x348 DUP5 PUSH1 0x20 DUP1 DUP3 MLOAD DUP4 ADD ADD SWAP2 ADD PUSH2 0xF91 JUMP JUMPDEST PUSH1 0x64 SWAP1 PUSH1 0x20 DUP5 MLOAD SWAP2 PUSH3 0x461BCD PUSH1 0xE5 SHL DUP4 MSTORE DUP3 ADD MSTORE PUSH1 0x1F PUSH1 0x24 DUP3 ADD MSTORE PUSH32 0x4661696C656420746F20666574636820636F6E6E656374696F6E20696E666F00 PUSH1 0x44 DUP3 ADD MSTORE REVERT JUMPDEST POP SWAP2 SWAP1 CALLVALUE PUSH2 0x481 JUMPI DUP2 PUSH1 0x3 NOT CALLDATASIZE ADD SLT PUSH2 0x481 JUMPI DUP3 DUP1 PUSH2 0x834 PUSH2 0xEBE JUMP JUMPDEST DUP5 MLOAD PUSH4 0xB9E0DB35 PUSH1 0xE0 SHL PUSH1 0x20 DUP3 ADD SWAP1 DUP2 MSTORE PUSH1 0x24 DUP1 CALLDATALOAD DUP2 DUP5 ADD MSTORE DUP3 MSTORE SWAP1 PUSH2 0x859 DUP2 PUSH2 0xEEE JUMP JUMPDEST MLOAD SWAP2 GAS STATICCALL SWAP1 PUSH2 0x866 PUSH2 0xF3A JUMP JUMPDEST SWAP2 ISZERO PUSH2 0x89C JUMPI POP PUSH1 0x80 DUP2 DUP1 MLOAD DUP2 ADD SUB SLT PUSH2 0x481 JUMPI PUSH1 0x60 SWAP3 POP DUP2 DUP2 ADD MLOAD SWAP2 PUSH1 0x80 DUP5 DUP4 ADD MLOAD SWAP3 ADD MLOAD SWAP2 DUP2 MLOAD SWAP4 DUP5 MSTORE PUSH1 0x20 DUP5 ADD MSTORE DUP3 ADD MSTORE RETURN JUMPDEST PUSH1 0x64 SWAP1 PUSH1 0x20 DUP5 MLOAD SWAP2 PUSH3 0x461BCD PUSH1 0xE5 SHL DUP4 MSTORE DUP3 ADD MSTORE PUSH1 0x18 PUSH1 0x24 DUP3 ADD MSTORE PUSH32 0x4661696C656420746F206665746368206C6F636174696F6E0000000000000000 PUSH1 0x44 DUP3 ADD MSTORE REVERT JUMPDEST POP SWAP2 SWAP1 CALLVALUE PUSH2 0x481 JUMPI DUP2 PUSH1 0x3 NOT CALLDATASIZE ADD SLT PUSH2 0x481 JUMPI DUP3 DUP1 PUSH2 0x8FC PUSH2 0xEBE JUMP JUMPDEST DUP5 MLOAD PUSH4 0xB695E2D1 PUSH1 0xE0 SHL PUSH1 0x20 DUP3 ADD SWAP1 DUP2 MSTORE PUSH1 0x24 DUP1 CALLDATALOAD DUP2 DUP5 ADD MSTORE DUP3 MSTORE SWAP1 PUSH2 0x921 DUP2 PUSH2 0xEEE JUMP JUMPDEST MLOAD SWAP2 GAS STATICCALL SWAP1 PUSH2 0x92E PUSH2 0xF3A JUMP JUMPDEST SWAP2 ISZERO PUSH2 0x982 JUMPI POP PUSH1 0x60 DUP2 DUP1 MLOAD DUP2 ADD SUB SLT PUSH2 0x481 JUMPI PUSH2 0x94E PUSH1 0x20 DUP3 ADD PUSH2 0xF84 JUMP JUMPDEST SWAP2 PUSH1 0x60 DUP2 DUP4 ADD MLOAD SWAP3 ADD MLOAD SWAP2 PUSH1 0x1 DUP1 PUSH1 0xA0 SHL SUB DUP4 AND DUP1 SWAP4 SUB PUSH2 0x97E JUMPI PUSH1 0x60 SWAP5 POP DUP2 MLOAD SWAP4 ISZERO ISZERO DUP5 MSTORE PUSH1 0x20 DUP5 ADD MSTORE DUP3 ADD MSTORE RETURN JUMPDEST DUP5 DUP1 REVERT JUMPDEST PUSH1 0x64 SWAP1 PUSH1 0x20 DUP5 MLOAD SWAP2 PUSH3 0x461BCD PUSH1 0xE5 SHL DUP4 MSTORE DUP3 ADD MSTORE PUSH1 0x1A PUSH1 0x24 DUP3 ADD MSTORE PUSH32 0x4661696C656420746F206665746368206D6564696120696E666F000000000000 PUSH1 0x44 DUP3 ADD MSTORE REVERT JUMPDEST POP SWAP1 CALLVALUE PUSH2 0x4F8 JUMPI DUP3 PUSH1 0x3 NOT CALLDATASIZE ADD SLT PUSH2 0x4F8 JUMPI PUSH2 0x9DF PUSH2 0xEBE JUMP JUMPDEST SWAP1 PUSH2 0x9E8 PUSH2 0xED8 JUMP JUMPDEST SWAP3 DUP5 MLOAD SWAP2 PUSH1 0x20 SWAP4 DUP3 DUP1 DUP7 DUP7 ADD SWAP8 PUSH4 0x186E2D77 PUSH1 0xE2 SHL DUP10 MSTORE PUSH1 0x1 DUP1 PUSH1 0xA0 SHL SUB AND SWAP8 PUSH1 0x24 SWAP7 DUP10 DUP9 DUP3 ADD MSTORE DUP8 DUP2 MSTORE PUSH2 0xA1C DUP2 PUSH2 0xEEE JUMP JUMPDEST MLOAD SWAP1 DUP5 GAS STATICCALL PUSH2 0xA29 PUSH2 0xF3A JUMP JUMPDEST SWAP1 ISZERO PUSH2 0xAD5 JUMPI DUP6 DUP2 DUP1 MLOAD DUP2 ADD SUB SLT PUSH2 0x1D2 JUMPI DUP4 SWAP2 DUP7 DUP4 SWAP3 ADD MLOAD SWAP8 DUP10 MLOAD DUP9 DUP2 ADD SWAP2 PUSH4 0x18EBD131 PUSH1 0xE1 SHL DUP4 MSTORE DUP9 DUP3 ADD MSTORE DUP8 DUP2 MSTORE PUSH2 0xA63 DUP2 PUSH2 0xEEE JUMP JUMPDEST MLOAD SWAP2 GAS STATICCALL SWAP3 PUSH2 0xA70 PUSH2 0xF3A JUMP JUMPDEST SWAP4 ISZERO PUSH2 0xA93 JUMPI POP POP DUP3 DUP3 DUP1 MLOAD DUP2 ADD SUB SLT PUSH2 0x18D JUMPI POP DUP2 ADD MLOAD SWAP1 DUP4 MLOAD SWAP3 DUP4 MSTORE DUP3 ADD MSTORE RETURN JUMPDEST DUP7 MLOAD PUSH3 0x461BCD PUSH1 0xE5 SHL DUP2 MSTORE SWAP2 DUP3 ADD DUP6 SWAP1 MSTORE PUSH1 0x17 SWAP1 DUP3 ADD MSTORE PUSH32 0x4661696C656420746F2066657463682072657761726473000000000000000000 PUSH1 0x44 DUP3 ADD MSTORE PUSH1 0x64 SWAP1 REVERT JUMPDEST DUP8 MLOAD PUSH3 0x461BCD PUSH1 0xE5 SHL DUP2 MSTORE DUP1 DUP5 ADD DUP8 SWAP1 MSTORE PUSH1 0x1F DUP2 DUP8 ADD MSTORE PUSH32 0x4661696C656420746F206665746368207374616B696E672062616C616E636500 PUSH1 0x44 DUP3 ADD MSTORE PUSH1 0x64 SWAP1 REVERT JUMPDEST POP DUP3 CALLVALUE PUSH2 0x4F8 JUMPI DUP2 PUSH1 0x3 NOT CALLDATASIZE ADD SLT PUSH2 0x4F8 JUMPI DUP1 MLOAD PUSH2 0xB34 DUP2 PUSH2 0xF1E JUMP JUMPDEST PUSH1 0x5 DUP2 MSTORE PUSH1 0x20 SWAP1 PUSH5 0x312E302E3 PUSH1 0xDC SHL DUP3 DUP3 ADD MSTORE DUP3 MLOAD SWAP4 DUP3 DUP6 SWAP4 DUP5 MSTORE DUP3 MLOAD SWAP3 DUP4 DUP3 DUP7 ADD MSTORE DUP3 JUMPDEST DUP5 DUP2 LT PUSH2 0xB78 JUMPI POP POP POP DUP3 DUP3 ADD DUP5 ADD MSTORE PUSH1 0x1F ADD PUSH1 0x1F NOT AND DUP2 ADD SUB ADD SWAP1 RETURN JUMPDEST DUP2 DUP2 ADD DUP4 ADD MLOAD DUP9 DUP3 ADD DUP9 ADD MSTORE DUP8 SWAP6 POP DUP3 ADD PUSH2 0xB5A JUMP JUMPDEST POP DUP3 SWAP1 CALLVALUE PUSH2 0x18D JUMPI DUP2 PUSH1 0x3 NOT CALLDATASIZE ADD SLT PUSH2 0x18D JUMPI DUP1 DUP1 PUSH2 0xBAB PUSH2 0xEBE JUMP JUMPDEST PUSH2 0xBB3 PUSH2 0xED8 JUMP JUMPDEST DUP6 MLOAD PUSH4 0x36996D5 PUSH1 0xE6 SHL PUSH1 0x20 DUP3 ADD SWAP1 DUP2 MSTORE PUSH1 0x1 PUSH1 0x1 PUSH1 0xA0 SHL SUB SWAP1 SWAP3 AND PUSH1 0x24 DUP1 DUP4 ADD SWAP2 SWAP1 SWAP2 MSTORE DUP2 MSTORE PUSH2 0xBE3 DUP2 PUSH2 0xEEE JUMP JUMPDEST MLOAD SWAP2 GAS STATICCALL SWAP3 PUSH2 0xBF0 PUSH2 0xF3A JUMP JUMPDEST SWAP4 ISZERO PUSH2 0xC12 JUMPI POP PUSH1 0x20 DUP4 DUP1 MLOAD DUP2 ADD SUB SLT PUSH2 0x18D JUMPI POP PUSH1 0x20 DUP1 SWAP3 ADD MLOAD SWAP1 MLOAD SWAP1 DUP2 MSTORE RETURN JUMPDEST PUSH1 0x64 SWAP1 PUSH1 0x20 DUP5 MLOAD SWAP2 PUSH3 0x461BCD PUSH1 0xE5 SHL DUP4 MSTORE DUP3 ADD MSTORE PUSH1 0x18 PUSH1 0x24 DUP3 ADD MSTORE PUSH32 0x4661696C656420746F2066657463682061637469766974790000000000000000 PUSH1 0x44 DUP3 ADD MSTORE REVERT JUMPDEST POP CALLVALUE PUSH2 0x18D JUMPI DUP3 PUSH1 0x3 NOT CALLDATASIZE ADD SLT PUSH2 0x18D JUMPI DUP1 DUP1 PUSH2 0xC70 PUSH2 0xEBE JUMP JUMPDEST PUSH2 0xC78 PUSH2 0xED8 JUMP JUMPDEST DUP7 MLOAD PUSH4 0x604036DB PUSH1 0xE1 SHL PUSH1 0x20 DUP3 ADD SWAP1 DUP2 MSTORE PUSH1 0x1 PUSH1 0x1 PUSH1 0xA0 SHL SUB SWAP1 SWAP3 AND PUSH1 0x24 DUP1 DUP4 ADD SWAP2 SWAP1 SWAP2 MSTORE DUP2 MSTORE PUSH2 0xCA8 DUP2 PUSH2 0xEEE JUMP JUMPDEST MLOAD SWAP2 GAS STATICCALL SWAP2 PUSH2 0xCB5 PUSH2 0xF3A JUMP JUMPDEST SWAP3 ISZERO PUSH2 0xCDE JUMPI POP DUP3 DUP3 DUP1 MLOAD DUP2 ADD SUB SLT PUSH2 0x18D JUMPI POP DUP2 PUSH1 0x20 DUP3 ADD MLOAD SWAP2 ADD MLOAD DUP3 MLOAD SWAP2 DUP3 MSTORE PUSH1 0x20 DUP3 ADD MSTORE RETURN JUMPDEST PUSH1 0x64 SWAP1 PUSH1 0x20 DUP6 MLOAD SWAP2 PUSH3 0x461BCD PUSH1 0xE5 SHL DUP4 MSTORE DUP3 ADD MSTORE PUSH1 0x1E PUSH1 0x24 DUP3 ADD MSTORE PUSH32 0x4661696C656420746F206665746368206C697175696469747920696E666F0000 PUSH1 0x44 DUP3 ADD MSTORE REVERT JUMPDEST POP SWAP2 CALLVALUE PUSH2 0x481 JUMPI PUSH1 0x20 CALLDATASIZE PUSH1 0x3 NOT ADD SLT PUSH2 0x481 JUMPI DUP3 DUP1 PUSH2 0xD3E PUSH2 0xEBE JUMP JUMPDEST DUP4 MLOAD PUSH4 0x1F345E0D PUSH1 0xE2 SHL PUSH1 0x20 DUP3 ADD SWAP1 DUP2 MSTORE DUP7 DUP3 MSTORE SWAP1 PUSH2 0xD5C DUP2 PUSH2 0xF1E JUMP JUMPDEST MLOAD SWAP2 GAS STATICCALL SWAP2 PUSH2 0xD69 PUSH2 0xF3A JUMP JUMPDEST SWAP3 ISZERO PUSH2 0xDAA JUMPI POP PUSH1 0x80 DUP3 DUP1 MLOAD DUP2 ADD SUB SLT PUSH2 0x481 JUMPI PUSH1 0x80 SWAP3 POP PUSH1 0x20 DUP3 ADD MLOAD SWAP2 DUP2 DUP2 ADD MLOAD SWAP2 DUP5 PUSH1 0x60 DUP4 ADD MLOAD SWAP3 ADD MLOAD SWAP3 DUP2 MLOAD SWAP5 DUP6 MSTORE PUSH1 0x20 DUP6 ADD MSTORE DUP4 ADD MSTORE PUSH1 0x60 DUP3 ADD MSTORE RETURN JUMPDEST PUSH1 0x20 PUSH1 0x64 SWAP3 MLOAD SWAP2 PUSH3 0x461BCD PUSH1 0xE5 SHL DUP4 MSTORE DUP3 ADD MSTORE PUSH1 0x19 PUSH1 0x24 DUP3 ADD MSTORE PUSH32 0x4661696C656420746F20666574636820616E616C797469637300000000000000 PUSH1 0x44 DUP3 ADD MSTORE REVERT JUMPDEST DUP5 DUP5 DUP5 DUP1 SWAP4 CALLVALUE PUSH2 0x4F8 JUMPI DUP4 PUSH1 0x3 NOT CALLDATASIZE ADD SLT PUSH2 0x4F8 JUMPI DUP2 SWAP1 PUSH2 0xE0B PUSH2 0xEBE JUMP JUMPDEST PUSH4 0x8EDE6F9F PUSH1 0xE0 SHL PUSH1 0x20 DUP4 ADD SWAP1 DUP2 MSTORE PUSH1 0x24 DUP1 CALLDATALOAD DUP2 DUP6 ADD MSTORE DUP4 MSTORE SWAP1 SWAP2 PUSH2 0xE2F DUP2 PUSH2 0xEEE JUMP JUMPDEST MLOAD SWAP2 GAS STATICCALL SWAP1 PUSH2 0xE3C PUSH2 0xF3A JUMP JUMPDEST SWAP2 ISZERO PUSH2 0xE7B JUMPI POP PUSH1 0x60 DUP2 DUP1 MLOAD DUP2 ADD SUB SLT PUSH2 0x481 JUMPI PUSH1 0x60 SWAP3 POP PUSH2 0xE60 PUSH1 0x20 DUP3 ADD PUSH2 0xF84 JUMP JUMPDEST SWAP2 DUP4 DUP2 DUP4 ADD MLOAD SWAP3 ADD MLOAD SWAP2 DUP2 MLOAD SWAP4 ISZERO ISZERO DUP5 MSTORE PUSH1 0x20 DUP5 ADD MSTORE DUP3 ADD MSTORE RETURN JUMPDEST PUSH1 0x64 SWAP1 PUSH1 0x20 DUP5 MLOAD SWAP2 PUSH3 0x461BCD PUSH1 0xE5 SHL DUP4 MSTORE DUP3 ADD MSTORE PUSH1 0x17 PUSH1 0x24 DUP3 ADD MSTORE PUSH32 0x4661696C656420746F2066657463682066656174757265000000000000000000 PUSH1 0x44 DUP3 ADD MSTORE REVERT JUMPDEST PUSH1 0x4 CALLDATALOAD SWAP1 PUSH1 0x1 PUSH1 0x1 PUSH1 0xA0 SHL SUB DUP3 AND DUP3 SUB PUSH2 0xED4 JUMPI JUMP JUMPDEST PUSH0 DUP1 REVERT JUMPDEST PUSH1 0x24 CALLDATALOAD SWAP1 PUSH1 0x1 PUSH1 0x1 PUSH1 0xA0 SHL SUB DUP3 AND DUP3 SUB PUSH2 0xED4 JUMPI JUMP JUMPDEST PUSH1 0x60 DUP2 ADD SWAP1 DUP2 LT PUSH8 0xFFFFFFFFFFFFFFFF DUP3 GT OR PUSH2 0xF0A JUMPI PUSH1 0x40 MSTORE JUMP JUMPDEST PUSH4 0x4E487B71 PUSH1 0xE0 SHL PUSH0 MSTORE PUSH1 0x41 PUSH1 0x4 MSTORE PUSH1 0x24 PUSH0 REVERT JUMPDEST PUSH1 0x40 DUP2 ADD SWAP1 DUP2 LT PUSH8 0xFFFFFFFFFFFFFFFF DUP3 GT OR PUSH2 0xF0A JUMPI PUSH1 0x40 MSTORE JUMP JUMPDEST RETURNDATASIZE ISZERO PUSH2 0xF7F JUMPI PUSH8 0xFFFFFFFFFFFFFFFF SWAP1 RETURNDATASIZE DUP3 DUP2 GT PUSH2 0xF0A JUMPI PUSH1 0x40 MLOAD SWAP3 PUSH1 0x1F DUP3 ADD PUSH1 0x1F NOT SWAP1 DUP2 AND PUSH1 0x3F ADD AND DUP5 ADD SWAP1 DUP2 GT DUP5 DUP3 LT OR PUSH2 0xF0A JUMPI PUSH1 0x40 MSTORE DUP3 MSTORE RETURNDATASIZE PUSH0 PUSH1 0x20 DUP5 ADD RETURNDATACOPY JUMP JUMPDEST PUSH1 0x60 SWAP1 JUMP JUMPDEST MLOAD SWAP1 DUP2 ISZERO ISZERO DUP3 SUB PUSH2 0xED4 JUMPI JUMP JUMPDEST SWAP1 DUP2 PUSH1 0x60 SWAP2 SUB SLT PUSH2 0xED4 JUMPI DUP1 MLOAD SWAP2 PUSH2 0xFB0 PUSH1 0x40 PUSH1 0x20 DUP5 ADD MLOAD SWAP4 ADD PUSH2 0xF84 JUMP JUMPDEST SWAP1 JUMP INVALID LOG2 PUSH5 0x6970667358 0x22 SLT KECCAK256 SWAP6 CALLCODE SWAP15 0xF9 0x5E JUMP DUP5 SELFDESTRUCT STATICCALL 0xD2 PUSH27 0x62814FFB3E5CCDCEE026417838D51AF80DF63A5AAD64736F6C6343 STOP ADDMOD EQ STOP CALLER "
		},
		"gasEstimates": {
			"creation": {
				"codeDepositCost": "814600",
				"executionCost": "859",
				"totalCost": "815459"
			},
			"external": {
				"getAnalytics(address)": "infinite",
				"getChironSlotInfo(address,uint256,uint256)": "infinite",
				"getChironStreamStatus(address,uint256)": "infinite",
				"getConnectionInfo(address,address)": "infinite",
				"getDAOInfo(address,uint256)": "infinite",
				"getFeatureInfo(address,uint256)": "infinite",
				"getLiquidityInfo(address,address)": "infinite",
				"getLocationInfo(address,uint256)": "infinite",
				"getMediaInfo(address,bytes32)": "infinite",
				"getMemberActivity(address,address)": "infinite",
				"getProposalState(address,uint256)": "infinite",
				"getReserveInfo(address,uint256)": "infinite",
				"getStakingInfo(address,address)": "infinite",
				"getUserReputation(address,address)": "infinite",
				"version()": "infinite"
			}
		},
		"methodIdentifiers": {
			"getAnalytics(address)": "2737203c",
			"getChironSlotInfo(address,uint256,uint256)": "dfdb04e1",
			"getChironStreamStatus(address,uint256)": "f80323dc",
			"getConnectionInfo(address,address)": "bbc4cfab",
			"getDAOInfo(address,uint256)": "e75c2ab2",
			"getFeatureInfo(address,uint256)": "251f51b7",
			"getLiquidityInfo(address,address)": "2b5e12de",
			"getLocationInfo(address,uint256)": "953eca4c",
			"getMediaInfo(address,bytes32)": "8ee4d6fb",
			"getMemberActivity(address,address)": "52f1e7db",
			"getProposalState(address,uint256)": "d4fc10ee",
			"getReserveInfo(address,uint256)": "d6f0cc8d",
			"getStakingInfo(address,address)": "7f4f95fa",
			"getUserReputation(address,address)": "f7438e8d",
			"version()": "54fd4d50"
		}
	},
	"abi": [
		{
			"inputs": [
				{
					"internalType": "address",
					"name": "stateContract",
					"type": "address"
				}
			],
			"name": "getAnalytics",
			"outputs": [
				{
					"internalType": "uint256",
					"name": "",
					"type": "uint256"
				},
				{
					"internalType": "uint256",
					"name": "",
					"type": "uint256"
				},
				{
					"internalType": "uint256",
					"name": "",
					"type": "uint256"
				},
				{
					"internalType": "uint256",
					"name": "",
					"type": "uint256"
				}
			],
			"stateMutability": "view",
			"type": "function"
		},
		{
			"inputs": [
				{
					"internalType": "address",
					"name": "stateContract",
					"type": "address"
				},
				{
					"internalType": "uint256",
					"name": "locationId",
					"type": "uint256"
				},
				{
					"internalType": "uint256",
					"name": "slotId",
					"type": "uint256"
				}
			],
			"name": "getChironSlotInfo",
			"outputs": [
				{
					"internalType": "uint256",
					"name": "",
					"type": "uint256"
				},
				{
					"internalType": "uint256",
					"name": "",
					"type": "uint256"
				},
				{
					"internalType": "bool",
					"name": "",
					"type": "bool"
				}
			],
			"stateMutability": "view",
			"type": "function"
		},
		{
			"inputs": [
				{
					"internalType": "address",
					"name": "stateContract",
					"type": "address"
				},
				{
					"internalType": "uint256",
					"name": "locationId",
					"type": "uint256"
				}
			],
			"name": "getChironStreamStatus",
			"outputs": [
				{
					"internalType": "bool",
					"name": "",
					"type": "bool"
				},
				{
					"internalType": "uint256",
					"name": "",
					"type": "uint256"
				}
			],
			"stateMutability": "view",
			"type": "function"
		},
		{
			"inputs": [
				{
					"internalType": "address",
					"name": "stateContract",
					"type": "address"
				},
				{
					"internalType": "address",
					"name": "user",
					"type": "address"
				}
			],
			"name": "getConnectionInfo",
			"outputs": [
				{
					"internalType": "uint256",
					"name": "",
					"type": "uint256"
				},
				{
					"internalType": "uint256",
					"name": "",
					"type": "uint256"
				},
				{
					"internalType": "bool",
					"name": "",
					"type": "bool"
				}
			],
			"stateMutability": "view",
			"type": "function"
		},
		{
			"inputs": [
				{
					"internalType": "address",
					"name": "stateContract",
					"type": "address"
				},
				{
					"internalType": "uint256",
					"name": "globalId",
					"type": "uint256"
				}
			],
			"name": "getDAOInfo",
			"outputs": [
				{
					"internalType": "uint256",
					"name": "",
					"type": "uint256"
				},
				{
					"internalType": "uint256",
					"name": "",
					"type": "uint256"
				},
				{
					"internalType": "bool",
					"name": "",
					"type": "bool"
				}
			],
			"stateMutability": "view",
			"type": "function"
		},
		{
			"inputs": [
				{
					"internalType": "address",
					"name": "stateContract",
					"type": "address"
				},
				{
					"internalType": "uint256",
					"name": "featureId",
					"type": "uint256"
				}
			],
			"name": "getFeatureInfo",
			"outputs": [
				{
					"internalType": "bool",
					"name": "",
					"type": "bool"
				},
				{
					"internalType": "uint256",
					"name": "",
					"type": "uint256"
				},
				{
					"internalType": "uint256",
					"name": "",
					"type": "uint256"
				}
			],
			"stateMutability": "view",
			"type": "function"
		},
		{
			"inputs": [
				{
					"internalType": "address",
					"name": "stateContract",
					"type": "address"
				},
				{
					"internalType": "address",
					"name": "user",
					"type": "address"
				}
			],
			"name": "getLiquidityInfo",
			"outputs": [
				{
					"internalType": "uint256",
					"name": "",
					"type": "uint256"
				},
				{
					"internalType": "uint256",
					"name": "",
					"type": "uint256"
				}
			],
			"stateMutability": "view",
			"type": "function"
		},
		{
			"inputs": [
				{
					"internalType": "address",
					"name": "stateContract",
					"type": "address"
				},
				{
					"internalType": "uint256",
					"name": "locationId",
					"type": "uint256"
				}
			],
			"name": "getLocationInfo",
			"outputs": [
				{
					"internalType": "bytes32",
					"name": "",
					"type": "bytes32"
				},
				{
					"internalType": "uint256",
					"name": "",
					"type": "uint256"
				},
				{
					"internalType": "uint256",
					"name": "",
					"type": "uint256"
				}
			],
			"stateMutability": "view",
			"type": "function"
		},
		{
			"inputs": [
				{
					"internalType": "address",
					"name": "stateContract",
					"type": "address"
				},
				{
					"internalType": "bytes32",
					"name": "contentHash",
					"type": "bytes32"
				}
			],
			"name": "getMediaInfo",
			"outputs": [
				{
					"internalType": "bool",
					"name": "",
					"type": "bool"
				},
				{
					"internalType": "uint256",
					"name": "",
					"type": "uint256"
				},
				{
					"internalType": "address",
					"name": "",
					"type": "address"
				}
			],
			"stateMutability": "view",
			"type": "function"
		},
		{
			"inputs": [
				{
					"internalType": "address",
					"name": "stateContract",
					"type": "address"
				},
				{
					"internalType": "address",
					"name": "member",
					"type": "address"
				}
			],
			"name": "getMemberActivity",
			"outputs": [
				{
					"internalType": "uint256",
					"name": "",
					"type": "uint256"
				}
			],
			"stateMutability": "view",
			"type": "function"
		},
		{
			"inputs": [
				{
					"internalType": "address",
					"name": "stateContract",
					"type": "address"
				},
				{
					"internalType": "uint256",
					"name": "proposalId",
					"type": "uint256"
				}
			],
			"name": "getProposalState",
			"outputs": [
				{
					"internalType": "enum ProposalLib.ProposalState",
					"name": "",
					"type": "uint8"
				},
				{
					"internalType": "uint256",
					"name": "startEpoch",
					"type": "uint256"
				},
				{
					"internalType": "uint256",
					"name": "endEpoch",
					"type": "uint256"
				},
				{
					"internalType": "bool",
					"name": "canceled",
					"type": "bool"
				},
				{
					"internalType": "bool",
					"name": "executed",
					"type": "bool"
				},
				{
					"internalType": "uint256",
					"name": "forVotes",
					"type": "uint256"
				},
				{
					"internalType": "uint256",
					"name": "againstVotes",
					"type": "uint256"
				},
				{
					"internalType": "uint8",
					"name": "stage",
					"type": "uint8"
				},
				{
					"internalType": "uint256",
					"name": "proposerReputation",
					"type": "uint256"
				}
			],
			"stateMutability": "view",
			"type": "function"
		},
		{
			"inputs": [
				{
					"internalType": "address",
					"name": "stateContract",
					"type": "address"
				},
				{
					"internalType": "uint256",
					"name": "daoId",
					"type": "uint256"
				}
			],
			"name": "getReserveInfo",
			"outputs": [
				{
					"internalType": "uint256",
					"name": "",
					"type": "uint256"
				},
				{
					"internalType": "uint256",
					"name": "",
					"type": "uint256"
				}
			],
			"stateMutability": "view",
			"type": "function"
		},
		{
			"inputs": [
				{
					"internalType": "address",
					"name": "stateContract",
					"type": "address"
				},
				{
					"internalType": "address",
					"name": "user",
					"type": "address"
				}
			],
			"name": "getStakingInfo",
			"outputs": [
				{
					"internalType": "uint256",
					"name": "balance",
					"type": "uint256"
				},
				{
					"internalType": "uint256",
					"name": "rewards",
					"type": "uint256"
				}
			],
			"stateMutability": "view",
			"type": "function"
		},
		{
			"inputs": [
				{
					"internalType": "address",
					"name": "stateContract",
					"type": "address"
				},
				{
					"internalType": "address",
					"name": "user",
					"type": "address"
				}
			],
			"name": "getUserReputation",
			"outputs": [
				{
					"internalType": "uint256",
					"name": "",
					"type": "uint256"
				}
			],
			"stateMutability": "view",
			"type": "function"
		},
		{
			"inputs": [],
			"name": "version",
			"outputs": [
				{
					"internalType": "string",
					"name": "",
					"type": "string"
				}
			],
			"stateMutability": "pure",
			"type": "function"
		}
	]
}