{
	"data": {
		"bytecode": {
			"linkReferences": {},
			"object": "60808060405234601557610cea908161001a8239f35b5f80fdfe6080806040526004361015610012575f80fd5b5f3560e01c63792ab6cb14610025575f80fd5b34610cb0576020366003190112610cb05760209060043564139e3e437b198114908115610ca0575b8115610c90575b8115610c80575b8115610c70575b8115610c60575b8115610c50575b8115610c40575b8115610c30575b8115610c20575b8115610c10575b8115610c00575b8115610bf0575b8115610be0575b8115610bd0575b8115610bc0575b8115610bb0575b8115610ba0575b8115610b90575b8115610b80575b8115610b70575b8115610b60575b8115610b50575b8115610b40575b8115610b30575b8115610b20575b8115610b10575b8115610b00575b8115610af0575b8115610ae0575b8115610ad0575b8115610ac0575b8115610ab0575b8115610aa0575b8115610a90575b8115610a80575b8115610a77575b8115610a69575b8115610a5b575b8115610a4d575b8115610a3f575b8115610a30575b8115610a21575b8115610a12575b8115610a03575b81156109f4575b81156109e5575b81156109d6575b81156109c7575b81156109b8575b81156109a9575b811561099a575b811561098b575b811561097c575b811561096d575b811561095e575b811561094f575b8115610940575b8115610931575b8115610922575b8115610913575b8115610904575b81156108f5575b81156108e6575b81156108d7575b81156108c8575b81156108b9575b81156108aa575b811561089b575b811561088c575b811561087d575b811561086e575b811561085f575b8115610850575b8115610841575b8115610832575b8115610823575b8115610814575b8115610805575b81156107f6575b81156107e7575b81156107d8575b81156107c9575b81156107ba575b81156107ab575b811561079c575b811561078d575b811561077e575b811561076f575b8115610760575b8115610751575b8115610742575b8115610733575b8115610724575b8115610715575b8115610706575b81156106f7575b81156106e8575b81156106d9575b81156106ca575b81156106bb575b81156106ac575b811561069d575b811561068e575b811561067f575b8115610670575b8115610661575b8115610652575b8115610643575b8115610634575b8115610625575b8115610616575b8115610607575b81156105f8575b81156105e9575b81156105da575b81156105cb575b81156105bc575b81156105ad575b811561059e575b811561058f575b8115610580575b8115610571575b8115610562575b8115610553575b8115610544575b8115610535575b8115610526575b8115610517575b8115610508575b81156104f9575b81156104ea575b81156104db575b81156104cc575b81156104bd575b81156104ae575b811561049f575b8115610490575b8115610481575b8115610472575b8115610463575b8115610454575b8115610445575b8115610436575b5015158152f35b64174876e8009150145f61042f565b6416da15e3b681149150610428565b6416a2e5618c81149150610421565b64166bb4df6c8114915061041a565b641634845d4281149150610413565b6415fd53db188114915061040c565b6415c62358f881149150610405565b64158ef2d6ce811491506103fe565b641557c254ae811491506103f7565b64152091d284811491506103f0565b6414e961505a811491506103e9565b6414b230ce3a811491506103e2565b64147b004c10811491506103db565b641443cfc9f0811491506103d4565b64140c9f47c6811491506103cd565b6413d56ec5a6811491506103c6565b64139e3e437c811491506103bf565b6413670dc152811491506103b8565b64132fdd3f32811491506103b1565b6412f8acbd08811491506103aa565b6412c17c3ae8811491506103a3565b64128a4bb8be8114915061039c565b6412531b369481149150610395565b64121beab4748114915061038e565b6411e4ba324a81149150610387565b6411ad89b02a81149150610380565b641176592e0081149150610379565b64113f28abd681149150610372565b641107f829b68114915061036b565b6410d0c7a78c81149150610364565b64109997256c8114915061035d565b64106266a34281149150610356565b64102b3621188114915061034f565b640ff4059ef881149150610348565b640fbcd51cce81149150610341565b640f85a49aae8114915061033a565b640f4e74188481149150610333565b640f1743965a8114915061032c565b640ee013143a81149150610325565b640ea8e292108114915061031e565b640e71b20ff081149150610317565b640e3a818dc681149150610310565b640e03510ba681149150610309565b640dcc20897c81149150610302565b640d94f00752811491506102fb565b640d5dbf8532811491506102f4565b640d268f0308811491506102ed565b640cef5e80e8811491506102e6565b640cb82dfebe811491506102df565b640c80fd7c94811491506102d8565b640c49ccfa74811491506102d1565b640c129c784a811491506102ca565b640bdb6bf62a811491506102c3565b640ba43b7400811491506102bc565b640b6d0af1d6811491506102b5565b640b35da6fb6811491506102ae565b640afea9ed8c811491506102a7565b640ac7796b6c811491506102a0565b640a9048e94281149150610299565b640a5918671881149150610292565b640a21e7e4f88114915061028b565b6409eab762ce81149150610284565b6409b386e0ae8114915061027d565b64097c565e8481149150610276565b64094525dc5a8114915061026f565b64090df55a3a81149150610268565b6408d6c4d81081149150610261565b64089f9455f08114915061025a565b64086863d3c681149150610253565b6408313351a68114915061024c565b6407fa02cf7c81149150610245565b6407c2d24d528114915061023e565b64078ba1cb3281149150610237565b64075471490881149150610230565b64071d40c6e881149150610229565b6406e61044be81149150610222565b6406aedfc2948114915061021b565b640677af407481149150610214565b6406407ebe4a8114915061020d565b6406094e3c2a81149150610206565b6405d21dba00811491506101ff565b64059aed37d6811491506101f8565b640563bcb5b6811491506101f1565b64052c8c338c811491506101ea565b6404f55bb16c811491506101e3565b6404be2b2f42811491506101dc565b640486faad18811491506101d5565b64044fca2af8811491506101ce565b64041899a8ce811491506101c7565b6403e16926ae811491506101c0565b6403aa38a484811491506101b9565b64037308225a811491506101b2565b64033bd7a03a811491506101ab565b640304a71e10811491506101a4565b6402cd769bf08114915061019d565b6402964619c681149150610196565b64025f1597a68114915061018f565b640227e5157b81149150610188565b6401f0b4935581149150610181565b6401b984112f8114915061017a565b640182538f0981149150610173565b64014b230ce48114915061016c565b640113f28abe81149150610165565b63dcc208988114915061015e565b63a591867281149150610157565b636e61044c81149150610150565b633730822681149150610149565b80159150610142565b640a59186717198114915061013b565b640a9048e9411981149150610134565b640ac7796b6b198114915061012d565b640afea9ed8b1981149150610126565b640b35da6fb5198114915061011f565b640b6d0af1d51981149150610118565b640ba43b73ff1981149150610111565b640bdb6bf629198114915061010a565b640c129c78491981149150610103565b640c49ccfa7319811491506100fc565b640c80fd7c9319811491506100f5565b640cb82dfebd19811491506100ee565b640cef5e80e719811491506100e7565b640d268f030719811491506100e0565b640d5dbf853119811491506100d9565b640d94f0075119811491506100d2565b640dcc20897b19811491506100cb565b640e03510ba519811491506100c4565b640e3a818dc519811491506100bd565b640ea8e2920f19811491506100b6565b640ee013143919811491506100af565b640f1743965919811491506100a8565b640f4e74188319811491506100a1565b640f85a49aad198114915061009a565b640fbcd51ccd1981149150610093565b640ff4059ef7198114915061008c565b64102b3621171981149150610085565b64106266a341198114915061007e565b64109997256b1981149150610077565b6410d0c7a78b1981149150610070565b641107f829b51981149150610069565b64113f28abd51981149150610062565b6411ad89b029198114915061005b565b6411e4ba32491981149150610054565b64132fdd3f31198114915061004d565b5f80fdfea2646970667358221220441fa004437b596c8b56c8c100d508ab5d17040eae5506e3db5a03a85d8f156564736f6c634300081a0033",
			"opcodes": "PUSH1 0x80 DUP1 PUSH1 0x40 MSTORE CALLVALUE PUSH1 0x15 JUMPI PUSH2 0xCEA SWAP1 DUP2 PUSH2 0x1A DUP3 CODECOPY RETURN JUMPDEST PUSH0 DUP1 REVERT INVALID PUSH1 0x80 DUP1 PUSH1 0x40 MSTORE PUSH1 0x4 CALLDATASIZE LT ISZERO PUSH2 0x12 JUMPI PUSH0 DUP1 REVERT JUMPDEST PUSH0 CALLDATALOAD PUSH1 0xE0 SHR PUSH4 0x792AB6CB EQ PUSH2 0x25 JUMPI PUSH0 DUP1 REVERT JUMPDEST CALLVALUE PUSH2 0xCB0 JUMPI PUSH1 0x20 CALLDATASIZE PUSH1 0x3 NOT ADD SLT PUSH2 0xCB0 JUMPI PUSH1 0x20 SWAP1 PUSH1 0x4 CALLDATALOAD PUSH5 0x139E3E437B NOT DUP2 EQ SWAP1 DUP2 ISZERO PUSH2 0xCA0 JUMPI JUMPDEST DUP2 ISZERO PUSH2 0xC90 JUMPI JUMPDEST DUP2 ISZERO PUSH2 0xC80 JUMPI JUMPDEST DUP2 ISZERO PUSH2 0xC70 JUMPI JUMPDEST DUP2 ISZERO PUSH2 0xC60 JUMPI JUMPDEST DUP2 ISZERO PUSH2 0xC50 JUMPI JUMPDEST DUP2 ISZERO PUSH2 0xC40 JUMPI JUMPDEST DUP2 ISZERO PUSH2 0xC30 JUMPI JUMPDEST DUP2 ISZERO PUSH2 0xC20 JUMPI JUMPDEST DUP2 ISZERO PUSH2 0xC10 JUMPI JUMPDEST DUP2 ISZERO PUSH2 0xC00 JUMPI JUMPDEST DUP2 ISZERO PUSH2 0xBF0 JUMPI JUMPDEST DUP2 ISZERO PUSH2 0xBE0 JUMPI JUMPDEST DUP2 ISZERO PUSH2 0xBD0 JUMPI JUMPDEST DUP2 ISZERO PUSH2 0xBC0 JUMPI JUMPDEST DUP2 ISZERO PUSH2 0xBB0 JUMPI JUMPDEST DUP2 ISZERO PUSH2 0xBA0 JUMPI JUMPDEST DUP2 ISZERO PUSH2 0xB90 JUMPI JUMPDEST DUP2 ISZERO PUSH2 0xB80 JUMPI JUMPDEST DUP2 ISZERO PUSH2 0xB70 JUMPI JUMPDEST DUP2 ISZERO PUSH2 0xB60 JUMPI JUMPDEST DUP2 ISZERO PUSH2 0xB50 JUMPI JUMPDEST DUP2 ISZERO PUSH2 0xB40 JUMPI JUMPDEST DUP2 ISZERO PUSH2 0xB30 JUMPI JUMPDEST DUP2 ISZERO PUSH2 0xB20 JUMPI JUMPDEST DUP2 ISZERO PUSH2 0xB10 JUMPI JUMPDEST DUP2 ISZERO PUSH2 0xB00 JUMPI JUMPDEST DUP2 ISZERO PUSH2 0xAF0 JUMPI JUMPDEST DUP2 ISZERO PUSH2 0xAE0 JUMPI JUMPDEST DUP2 ISZERO PUSH2 0xAD0 JUMPI JUMPDEST DUP2 ISZERO PUSH2 0xAC0 JUMPI JUMPDEST DUP2 ISZERO PUSH2 0xAB0 JUMPI JUMPDEST DUP2 ISZERO PUSH2 0xAA0 JUMPI JUMPDEST DUP2 ISZERO PUSH2 0xA90 JUMPI JUMPDEST DUP2 ISZERO PUSH2 0xA80 JUMPI JUMPDEST DUP2 ISZERO PUSH2 0xA77 JUMPI JUMPDEST DUP2 ISZERO PUSH2 0xA69 JUMPI JUMPDEST DUP2 ISZERO PUSH2 0xA5B JUMPI JUMPDEST DUP2 ISZERO PUSH2 0xA4D JUMPI JUMPDEST DUP2 ISZERO PUSH2 0xA3F JUMPI JUMPDEST DUP2 ISZERO PUSH2 0xA30 JUMPI JUMPDEST DUP2 ISZERO PUSH2 0xA21 JUMPI JUMPDEST DUP2 ISZERO PUSH2 0xA12 JUMPI JUMPDEST DUP2 ISZERO PUSH2 0xA03 JUMPI JUMPDEST DUP2 ISZERO PUSH2 0x9F4 JUMPI JUMPDEST DUP2 ISZERO PUSH2 0x9E5 JUMPI JUMPDEST DUP2 ISZERO PUSH2 0x9D6 JUMPI JUMPDEST DUP2 ISZERO PUSH2 0x9C7 JUMPI JUMPDEST DUP2 ISZERO PUSH2 0x9B8 JUMPI JUMPDEST DUP2 ISZERO PUSH2 0x9A9 JUMPI JUMPDEST DUP2 ISZERO PUSH2 0x99A JUMPI JUMPDEST DUP2 ISZERO PUSH2 0x98B JUMPI JUMPDEST DUP2 ISZERO PUSH2 0x97C JUMPI JUMPDEST DUP2 ISZERO PUSH2 0x96D JUMPI JUMPDEST DUP2 ISZERO PUSH2 0x95E JUMPI JUMPDEST DUP2 ISZERO PUSH2 0x94F JUMPI JUMPDEST DUP2 ISZERO PUSH2 0x940 JUMPI JUMPDEST DUP2 ISZERO PUSH2 0x931 JUMPI JUMPDEST DUP2 ISZERO PUSH2 0x922 JUMPI JUMPDEST DUP2 ISZERO PUSH2 0x913 JUMPI JUMPDEST DUP2 ISZERO PUSH2 0x904 JUMPI JUMPDEST DUP2 ISZERO PUSH2 0x8F5 JUMPI JUMPDEST DUP2 ISZERO PUSH2 0x8E6 JUMPI JUMPDEST DUP2 ISZERO PUSH2 0x8D7 JUMPI JUMPDEST DUP2 ISZERO PUSH2 0x8C8 JUMPI JUMPDEST DUP2 ISZERO PUSH2 0x8B9 JUMPI JUMPDEST DUP2 ISZERO PUSH2 0x8AA JUMPI JUMPDEST DUP2 ISZERO PUSH2 0x89B JUMPI JUMPDEST DUP2 ISZERO PUSH2 0x88C JUMPI JUMPDEST DUP2 ISZERO PUSH2 0x87D JUMPI JUMPDEST DUP2 ISZERO PUSH2 0x86E JUMPI JUMPDEST DUP2 ISZERO PUSH2 0x85F JUMPI JUMPDEST DUP2 ISZERO PUSH2 0x850 JUMPI JUMPDEST DUP2 ISZERO PUSH2 0x841 JUMPI JUMPDEST DUP2 ISZERO PUSH2 0x832 JUMPI JUMPDEST DUP2 ISZERO PUSH2 0x823 JUMPI JUMPDEST DUP2 ISZERO PUSH2 0x814 JUMPI JUMPDEST DUP2 ISZERO PUSH2 0x805 JUMPI JUMPDEST DUP2 ISZERO PUSH2 0x7F6 JUMPI JUMPDEST DUP2 ISZERO PUSH2 0x7E7 JUMPI JUMPDEST DUP2 ISZERO PUSH2 0x7D8 JUMPI JUMPDEST DUP2 ISZERO PUSH2 0x7C9 JUMPI JUMPDEST DUP2 ISZERO PUSH2 0x7BA JUMPI JUMPDEST DUP2 ISZERO PUSH2 0x7AB JUMPI JUMPDEST DUP2 ISZERO PUSH2 0x79C JUMPI JUMPDEST DUP2 ISZERO PUSH2 0x78D JUMPI JUMPDEST DUP2 ISZERO PUSH2 0x77E JUMPI JUMPDEST DUP2 ISZERO PUSH2 0x76F JUMPI JUMPDEST DUP2 ISZERO PUSH2 0x760 JUMPI JUMPDEST DUP2 ISZERO PUSH2 0x751 JUMPI JUMPDEST DUP2 ISZERO PUSH2 0x742 JUMPI JUMPDEST DUP2 ISZERO PUSH2 0x733 JUMPI JUMPDEST DUP2 ISZERO PUSH2 0x724 JUMPI JUMPDEST DUP2 ISZERO PUSH2 0x715 JUMPI JUMPDEST DUP2 ISZERO PUSH2 0x706 JUMPI JUMPDEST DUP2 ISZERO PUSH2 0x6F7 JUMPI JUMPDEST DUP2 ISZERO PUSH2 0x6E8 JUMPI JUMPDEST DUP2 ISZERO PUSH2 0x6D9 JUMPI JUMPDEST DUP2 ISZERO PUSH2 0x6CA JUMPI JUMPDEST DUP2 ISZERO PUSH2 0x6BB JUMPI JUMPDEST DUP2 ISZERO PUSH2 0x6AC JUMPI JUMPDEST DUP2 ISZERO PUSH2 0x69D JUMPI JUMPDEST DUP2 ISZERO PUSH2 0x68E JUMPI JUMPDEST DUP2 ISZERO PUSH2 0x67F JUMPI JUMPDEST DUP2 ISZERO PUSH2 0x670 JUMPI JUMPDEST DUP2 ISZERO PUSH2 0x661 JUMPI JUMPDEST DUP2 ISZERO PUSH2 0x652 JUMPI JUMPDEST DUP2 ISZERO PUSH2 0x643 JUMPI JUMPDEST DUP2 ISZERO PUSH2 0x634 JUMPI JUMPDEST DUP2 ISZERO PUSH2 0x625 JUMPI JUMPDEST DUP2 ISZERO PUSH2 0x616 JUMPI JUMPDEST DUP2 ISZERO PUSH2 0x607 JUMPI JUMPDEST DUP2 ISZERO PUSH2 0x5F8 JUMPI JUMPDEST DUP2 ISZERO PUSH2 0x5E9 JUMPI JUMPDEST DUP2 ISZERO PUSH2 0x5DA JUMPI JUMPDEST DUP2 ISZERO PUSH2 0x5CB JUMPI JUMPDEST DUP2 ISZERO PUSH2 0x5BC JUMPI JUMPDEST DUP2 ISZERO PUSH2 0x5AD JUMPI JUMPDEST DUP2 ISZERO PUSH2 0x59E JUMPI JUMPDEST DUP2 ISZERO PUSH2 0x58F JUMPI JUMPDEST DUP2 ISZERO PUSH2 0x580 JUMPI JUMPDEST DUP2 ISZERO PUSH2 0x571 JUMPI JUMPDEST DUP2 ISZERO PUSH2 0x562 JUMPI JUMPDEST DUP2 ISZERO PUSH2 0x553 JUMPI JUMPDEST DUP2 ISZERO PUSH2 0x544 JUMPI JUMPDEST DUP2 ISZERO PUSH2 0x535 JUMPI JUMPDEST DUP2 ISZERO PUSH2 0x526 JUMPI JUMPDEST DUP2 ISZERO PUSH2 0x517 JUMPI JUMPDEST DUP2 ISZERO PUSH2 0x508 JUMPI JUMPDEST DUP2 ISZERO PUSH2 0x4F9 JUMPI JUMPDEST DUP2 ISZERO PUSH2 0x4EA JUMPI JUMPDEST DUP2 ISZERO PUSH2 0x4DB JUMPI JUMPDEST DUP2 ISZERO PUSH2 0x4CC JUMPI JUMPDEST DUP2 ISZERO PUSH2 0x4BD JUMPI JUMPDEST DUP2 ISZERO PUSH2 0x4AE JUMPI JUMPDEST DUP2 ISZERO PUSH2 0x49F JUMPI JUMPDEST DUP2 ISZERO PUSH2 0x490 JUMPI JUMPDEST DUP2 ISZERO PUSH2 0x481 JUMPI JUMPDEST DUP2 ISZERO PUSH2 0x472 JUMPI JUMPDEST DUP2 ISZERO PUSH2 0x463 JUMPI JUMPDEST DUP2 ISZERO PUSH2 0x454 JUMPI JUMPDEST DUP2 ISZERO PUSH2 0x445 JUMPI JUMPDEST DUP2 ISZERO PUSH2 0x436 JUMPI JUMPDEST POP ISZERO ISZERO DUP2 MSTORE RETURN JUMPDEST PUSH5 0x174876E800 SWAP2 POP EQ PUSH0 PUSH2 0x42F JUMP JUMPDEST PUSH5 0x16DA15E3B6 DUP2 EQ SWAP2 POP PUSH2 0x428 JUMP JUMPDEST PUSH5 0x16A2E5618C DUP2 EQ SWAP2 POP PUSH2 0x421 JUMP JUMPDEST PUSH5 0x166BB4DF6C DUP2 EQ SWAP2 POP PUSH2 0x41A JUMP JUMPDEST PUSH5 0x1634845D42 DUP2 EQ SWAP2 POP PUSH2 0x413 JUMP JUMPDEST PUSH5 0x15FD53DB18 DUP2 EQ SWAP2 POP PUSH2 0x40C JUMP JUMPDEST PUSH5 0x15C62358F8 DUP2 EQ SWAP2 POP PUSH2 0x405 JUMP JUMPDEST PUSH5 0x158EF2D6CE DUP2 EQ SWAP2 POP PUSH2 0x3FE JUMP JUMPDEST PUSH5 0x1557C254AE DUP2 EQ SWAP2 POP PUSH2 0x3F7 JUMP JUMPDEST PUSH5 0x152091D284 DUP2 EQ SWAP2 POP PUSH2 0x3F0 JUMP JUMPDEST PUSH5 0x14E961505A DUP2 EQ SWAP2 POP PUSH2 0x3E9 JUMP JUMPDEST PUSH5 0x14B230CE3A DUP2 EQ SWAP2 POP PUSH2 0x3E2 JUMP JUMPDEST PUSH5 0x147B004C10 DUP2 EQ SWAP2 POP PUSH2 0x3DB JUMP JUMPDEST PUSH5 0x1443CFC9F0 DUP2 EQ SWAP2 POP PUSH2 0x3D4 JUMP JUMPDEST PUSH5 0x140C9F47C6 DUP2 EQ SWAP2 POP PUSH2 0x3CD JUMP JUMPDEST PUSH5 0x13D56EC5A6 DUP2 EQ SWAP2 POP PUSH2 0x3C6 JUMP JUMPDEST PUSH5 0x139E3E437C DUP2 EQ SWAP2 POP PUSH2 0x3BF JUMP JUMPDEST PUSH5 0x13670DC152 DUP2 EQ SWAP2 POP PUSH2 0x3B8 JUMP JUMPDEST PUSH5 0x132FDD3F32 DUP2 EQ SWAP2 POP PUSH2 0x3B1 JUMP JUMPDEST PUSH5 0x12F8ACBD08 DUP2 EQ SWAP2 POP PUSH2 0x3AA JUMP JUMPDEST PUSH5 0x12C17C3AE8 DUP2 EQ SWAP2 POP PUSH2 0x3A3 JUMP JUMPDEST PUSH5 0x128A4BB8BE DUP2 EQ SWAP2 POP PUSH2 0x39C JUMP JUMPDEST PUSH5 0x12531B3694 DUP2 EQ SWAP2 POP PUSH2 0x395 JUMP JUMPDEST PUSH5 0x121BEAB474 DUP2 EQ SWAP2 POP PUSH2 0x38E JUMP JUMPDEST PUSH5 0x11E4BA324A DUP2 EQ SWAP2 POP PUSH2 0x387 JUMP JUMPDEST PUSH5 0x11AD89B02A DUP2 EQ SWAP2 POP PUSH2 0x380 JUMP JUMPDEST PUSH5 0x1176592E00 DUP2 EQ SWAP2 POP PUSH2 0x379 JUMP JUMPDEST PUSH5 0x113F28ABD6 DUP2 EQ SWAP2 POP PUSH2 0x372 JUMP JUMPDEST PUSH5 0x1107F829B6 DUP2 EQ SWAP2 POP PUSH2 0x36B JUMP JUMPDEST PUSH5 0x10D0C7A78C DUP2 EQ SWAP2 POP PUSH2 0x364 JUMP JUMPDEST PUSH5 0x109997256C DUP2 EQ SWAP2 POP PUSH2 0x35D JUMP JUMPDEST PUSH5 0x106266A342 DUP2 EQ SWAP2 POP PUSH2 0x356 JUMP JUMPDEST PUSH5 0x102B362118 DUP2 EQ SWAP2 POP PUSH2 0x34F JUMP JUMPDEST PUSH5 0xFF4059EF8 DUP2 EQ SWAP2 POP PUSH2 0x348 JUMP JUMPDEST PUSH5 0xFBCD51CCE DUP2 EQ SWAP2 POP PUSH2 0x341 JUMP JUMPDEST PUSH5 0xF85A49AAE DUP2 EQ SWAP2 POP PUSH2 0x33A JUMP JUMPDEST PUSH5 0xF4E741884 DUP2 EQ SWAP2 POP PUSH2 0x333 JUMP JUMPDEST PUSH5 0xF1743965A DUP2 EQ SWAP2 POP PUSH2 0x32C JUMP JUMPDEST PUSH5 0xEE013143A DUP2 EQ SWAP2 POP PUSH2 0x325 JUMP JUMPDEST PUSH5 0xEA8E29210 DUP2 EQ SWAP2 POP PUSH2 0x31E JUMP JUMPDEST PUSH5 0xE71B20FF0 DUP2 EQ SWAP2 POP PUSH2 0x317 JUMP JUMPDEST PUSH5 0xE3A818DC6 DUP2 EQ SWAP2 POP PUSH2 0x310 JUMP JUMPDEST PUSH5 0xE03510BA6 DUP2 EQ SWAP2 POP PUSH2 0x309 JUMP JUMPDEST PUSH5 0xDCC20897C DUP2 EQ SWAP2 POP PUSH2 0x302 JUMP JUMPDEST PUSH5 0xD94F00752 DUP2 EQ SWAP2 POP PUSH2 0x2FB JUMP JUMPDEST PUSH5 0xD5DBF8532 DUP2 EQ SWAP2 POP PUSH2 0x2F4 JUMP JUMPDEST PUSH5 0xD268F0308 DUP2 EQ SWAP2 POP PUSH2 0x2ED JUMP JUMPDEST PUSH5 0xCEF5E80E8 DUP2 EQ SWAP2 POP PUSH2 0x2E6 JUMP JUMPDEST PUSH5 0xCB82DFEBE DUP2 EQ SWAP2 POP PUSH2 0x2DF JUMP JUMPDEST PUSH5 0xC80FD7C94 DUP2 EQ SWAP2 POP PUSH2 0x2D8 JUMP JUMPDEST PUSH5 0xC49CCFA74 DUP2 EQ SWAP2 POP PUSH2 0x2D1 JUMP JUMPDEST PUSH5 0xC129C784A DUP2 EQ SWAP2 POP PUSH2 0x2CA JUMP JUMPDEST PUSH5 0xBDB6BF62A DUP2 EQ SWAP2 POP PUSH2 0x2C3 JUMP JUMPDEST PUSH5 0xBA43B7400 DUP2 EQ SWAP2 POP PUSH2 0x2BC JUMP JUMPDEST PUSH5 0xB6D0AF1D6 DUP2 EQ SWAP2 POP PUSH2 0x2B5 JUMP JUMPDEST PUSH5 0xB35DA6FB6 DUP2 EQ SWAP2 POP PUSH2 0x2AE JUMP JUMPDEST PUSH5 0xAFEA9ED8C DUP2 EQ SWAP2 POP PUSH2 0x2A7 JUMP JUMPDEST PUSH5 0xAC7796B6C DUP2 EQ SWAP2 POP PUSH2 0x2A0 JUMP JUMPDEST PUSH5 0xA9048E942 DUP2 EQ SWAP2 POP PUSH2 0x299 JUMP JUMPDEST PUSH5 0xA59186718 DUP2 EQ SWAP2 POP PUSH2 0x292 JUMP JUMPDEST PUSH5 0xA21E7E4F8 DUP2 EQ SWAP2 POP PUSH2 0x28B JUMP JUMPDEST PUSH5 0x9EAB762CE DUP2 EQ SWAP2 POP PUSH2 0x284 JUMP JUMPDEST PUSH5 0x9B386E0AE DUP2 EQ SWAP2 POP PUSH2 0x27D JUMP JUMPDEST PUSH5 0x97C565E84 DUP2 EQ SWAP2 POP PUSH2 0x276 JUMP JUMPDEST PUSH5 0x94525DC5A DUP2 EQ SWAP2 POP PUSH2 0x26F JUMP JUMPDEST PUSH5 0x90DF55A3A DUP2 EQ SWAP2 POP PUSH2 0x268 JUMP JUMPDEST PUSH5 0x8D6C4D810 DUP2 EQ SWAP2 POP PUSH2 0x261 JUMP JUMPDEST PUSH5 0x89F9455F0 DUP2 EQ SWAP2 POP PUSH2 0x25A JUMP JUMPDEST PUSH5 0x86863D3C6 DUP2 EQ SWAP2 POP PUSH2 0x253 JUMP JUMPDEST PUSH5 0x8313351A6 DUP2 EQ SWAP2 POP PUSH2 0x24C JUMP JUMPDEST PUSH5 0x7FA02CF7C DUP2 EQ SWAP2 POP PUSH2 0x245 JUMP JUMPDEST PUSH5 0x7C2D24D52 DUP2 EQ SWAP2 POP PUSH2 0x23E JUMP JUMPDEST PUSH5 0x78BA1CB32 DUP2 EQ SWAP2 POP PUSH2 0x237 JUMP JUMPDEST PUSH5 0x754714908 DUP2 EQ SWAP2 POP PUSH2 0x230 JUMP JUMPDEST PUSH5 0x71D40C6E8 DUP2 EQ SWAP2 POP PUSH2 0x229 JUMP JUMPDEST PUSH5 0x6E61044BE DUP2 EQ SWAP2 POP PUSH2 0x222 JUMP JUMPDEST PUSH5 0x6AEDFC294 DUP2 EQ SWAP2 POP PUSH2 0x21B JUMP JUMPDEST PUSH5 0x677AF4074 DUP2 EQ SWAP2 POP PUSH2 0x214 JUMP JUMPDEST PUSH5 0x6407EBE4A DUP2 EQ SWAP2 POP PUSH2 0x20D JUMP JUMPDEST PUSH5 0x6094E3C2A DUP2 EQ SWAP2 POP PUSH2 0x206 JUMP JUMPDEST PUSH5 0x5D21DBA00 DUP2 EQ SWAP2 POP PUSH2 0x1FF JUMP JUMPDEST PUSH5 0x59AED37D6 DUP2 EQ SWAP2 POP PUSH2 0x1F8 JUMP JUMPDEST PUSH5 0x563BCB5B6 DUP2 EQ SWAP2 POP PUSH2 0x1F1 JUMP JUMPDEST PUSH5 0x52C8C338C DUP2 EQ SWAP2 POP PUSH2 0x1EA JUMP JUMPDEST PUSH5 0x4F55BB16C DUP2 EQ SWAP2 POP PUSH2 0x1E3 JUMP JUMPDEST PUSH5 0x4BE2B2F42 DUP2 EQ SWAP2 POP PUSH2 0x1DC JUMP JUMPDEST PUSH5 0x486FAAD18 DUP2 EQ SWAP2 POP PUSH2 0x1D5 JUMP JUMPDEST PUSH5 0x44FCA2AF8 DUP2 EQ SWAP2 POP PUSH2 0x1CE JUMP JUMPDEST PUSH5 0x41899A8CE DUP2 EQ SWAP2 POP PUSH2 0x1C7 JUMP JUMPDEST PUSH5 0x3E16926AE DUP2 EQ SWAP2 POP PUSH2 0x1C0 JUMP JUMPDEST PUSH5 0x3AA38A484 DUP2 EQ SWAP2 POP PUSH2 0x1B9 JUMP JUMPDEST PUSH5 0x37308225A DUP2 EQ SWAP2 POP PUSH2 0x1B2 JUMP JUMPDEST PUSH5 0x33BD7A03A DUP2 EQ SWAP2 POP PUSH2 0x1AB JUMP JUMPDEST PUSH5 0x304A71E10 DUP2 EQ SWAP2 POP PUSH2 0x1A4 JUMP JUMPDEST PUSH5 0x2CD769BF0 DUP2 EQ SWAP2 POP PUSH2 0x19D JUMP JUMPDEST PUSH5 0x2964619C6 DUP2 EQ SWAP2 POP PUSH2 0x196 JUMP JUMPDEST PUSH5 0x25F1597A6 DUP2 EQ SWAP2 POP PUSH2 0x18F JUMP JUMPDEST PUSH5 0x227E5157B DUP2 EQ SWAP2 POP PUSH2 0x188 JUMP JUMPDEST PUSH5 0x1F0B49355 DUP2 EQ SWAP2 POP PUSH2 0x181 JUMP JUMPDEST PUSH5 0x1B984112F DUP2 EQ SWAP2 POP PUSH2 0x17A JUMP JUMPDEST PUSH5 0x182538F09 DUP2 EQ SWAP2 POP PUSH2 0x173 JUMP JUMPDEST PUSH5 0x14B230CE4 DUP2 EQ SWAP2 POP PUSH2 0x16C JUMP JUMPDEST PUSH5 0x113F28ABE DUP2 EQ SWAP2 POP PUSH2 0x165 JUMP JUMPDEST PUSH4 0xDCC20898 DUP2 EQ SWAP2 POP PUSH2 0x15E JUMP JUMPDEST PUSH4 0xA5918672 DUP2 EQ SWAP2 POP PUSH2 0x157 JUMP JUMPDEST PUSH4 0x6E61044C DUP2 EQ SWAP2 POP PUSH2 0x150 JUMP JUMPDEST PUSH4 0x37308226 DUP2 EQ SWAP2 POP PUSH2 0x149 JUMP JUMPDEST DUP1 ISZERO SWAP2 POP PUSH2 0x142 JUMP JUMPDEST PUSH5 0xA59186717 NOT DUP2 EQ SWAP2 POP PUSH2 0x13B JUMP JUMPDEST PUSH5 0xA9048E941 NOT DUP2 EQ SWAP2 POP PUSH2 0x134 JUMP JUMPDEST PUSH5 0xAC7796B6B NOT DUP2 EQ SWAP2 POP PUSH2 0x12D JUMP JUMPDEST PUSH5 0xAFEA9ED8B NOT DUP2 EQ SWAP2 POP PUSH2 0x126 JUMP JUMPDEST PUSH5 0xB35DA6FB5 NOT DUP2 EQ SWAP2 POP PUSH2 0x11F JUMP JUMPDEST PUSH5 0xB6D0AF1D5 NOT DUP2 EQ SWAP2 POP PUSH2 0x118 JUMP JUMPDEST PUSH5 0xBA43B73FF NOT DUP2 EQ SWAP2 POP PUSH2 0x111 JUMP JUMPDEST PUSH5 0xBDB6BF629 NOT DUP2 EQ SWAP2 POP PUSH2 0x10A JUMP JUMPDEST PUSH5 0xC129C7849 NOT DUP2 EQ SWAP2 POP PUSH2 0x103 JUMP JUMPDEST PUSH5 0xC49CCFA73 NOT DUP2 EQ SWAP2 POP PUSH2 0xFC JUMP JUMPDEST PUSH5 0xC80FD7C93 NOT DUP2 EQ SWAP2 POP PUSH2 0xF5 JUMP JUMPDEST PUSH5 0xCB82DFEBD NOT DUP2 EQ SWAP2 POP PUSH2 0xEE JUMP JUMPDEST PUSH5 0xCEF5E80E7 NOT DUP2 EQ SWAP2 POP PUSH2 0xE7 JUMP JUMPDEST PUSH5 0xD268F0307 NOT DUP2 EQ SWAP2 POP PUSH2 0xE0 JUMP JUMPDEST PUSH5 0xD5DBF8531 NOT DUP2 EQ SWAP2 POP PUSH2 0xD9 JUMP JUMPDEST PUSH5 0xD94F00751 NOT DUP2 EQ SWAP2 POP PUSH2 0xD2 JUMP JUMPDEST PUSH5 0xDCC20897B NOT DUP2 EQ SWAP2 POP PUSH2 0xCB JUMP JUMPDEST PUSH5 0xE03510BA5 NOT DUP2 EQ SWAP2 POP PUSH2 0xC4 JUMP JUMPDEST PUSH5 0xE3A818DC5 NOT DUP2 EQ SWAP2 POP PUSH2 0xBD JUMP JUMPDEST PUSH5 0xEA8E2920F NOT DUP2 EQ SWAP2 POP PUSH2 0xB6 JUMP JUMPDEST PUSH5 0xEE0131439 NOT DUP2 EQ SWAP2 POP PUSH2 0xAF JUMP JUMPDEST PUSH5 0xF17439659 NOT DUP2 EQ SWAP2 POP PUSH2 0xA8 JUMP JUMPDEST PUSH5 0xF4E741883 NOT DUP2 EQ SWAP2 POP PUSH2 0xA1 JUMP JUMPDEST PUSH5 0xF85A49AAD NOT DUP2 EQ SWAP2 POP PUSH2 0x9A JUMP JUMPDEST PUSH5 0xFBCD51CCD NOT DUP2 EQ SWAP2 POP PUSH2 0x93 JUMP JUMPDEST PUSH5 0xFF4059EF7 NOT DUP2 EQ SWAP2 POP PUSH2 0x8C JUMP JUMPDEST PUSH5 0x102B362117 NOT DUP2 EQ SWAP2 POP PUSH2 0x85 JUMP JUMPDEST PUSH5 0x106266A341 NOT DUP2 EQ SWAP2 POP PUSH2 0x7E JUMP JUMPDEST PUSH5 0x109997256B NOT DUP2 EQ SWAP2 POP PUSH2 0x77 JUMP JUMPDEST PUSH5 0x10D0C7A78B NOT DUP2 EQ SWAP2 POP PUSH2 0x70 JUMP JUMPDEST PUSH5 0x1107F829B5 NOT DUP2 EQ SWAP2 POP PUSH2 0x69 JUMP JUMPDEST PUSH5 0x113F28ABD5 NOT DUP2 EQ SWAP2 POP PUSH2 0x62 JUMP JUMPDEST PUSH5 0x11AD89B029 NOT DUP2 EQ SWAP2 POP PUSH2 0x5B JUMP JUMPDEST PUSH5 0x11E4BA3249 NOT DUP2 EQ SWAP2 POP PUSH2 0x54 JUMP JUMPDEST PUSH5 0x132FDD3F31 NOT DUP2 EQ SWAP2 POP PUSH2 0x4D JUMP JUMPDEST PUSH0 DUP1 REVERT INVALID LOG2 PUSH5 0x6970667358 0x22 SLT KECCAK256 PREVRANDAO 0x1F LOG0 DIV NUMBER PUSH28 0x596C8B56C8C100D508AB5D17040EAE5506E3DB5A03A85D8F15656473 PUSH16 0x6C634300081A00330000000000000000 "
		},
		"gasEstimates": {
			"creation": {
				"codeDepositCost": "661200",
				"executionCost": "703",
				"totalCost": "661903"
			},
			"external": {
				"isValidConceptValue(int256)": "6848"
			}
		},
		"methodIdentifiers": {
			"isValidConceptValue(int256)": "792ab6cb"
		}
	},
	"abi": [
		{
			"inputs": [
				{
					"internalType": "int256",
					"name": "value",
					"type": "int256"
				}
			],
			"name": "isValidConceptValue",
			"outputs": [
				{
					"internalType": "bool",
					"name": "",
					"type": "bool"
				}
			],
			"stateMutability": "pure",
			"type": "function"
		}
	]
}