{
	"data": {
		"bytecode": {
			"linkReferences": {},
			"object": "60a060405234801562000010575f80fd5b5060405162005a8c38038062005a8c833981810160405281019062000036919062000257565b600180819055508073ffffffffffffffffffffffffffffffffffffffff1660808173ffffffffffffffffffffffffffffffffffffffff1681525050620000855f801b336200008d60201b60201c565b505062000287565b5f620000a083836200018860201b60201c565b6200017e5760015f808581526020019081526020015f205f015f8473ffffffffffffffffffffffffffffffffffffffff1673ffffffffffffffffffffffffffffffffffffffff1681526020019081526020015f205f6101000a81548160ff0219169083151502179055506200011a620001eb60201b60201c565b73ffffffffffffffffffffffffffffffffffffffff168273ffffffffffffffffffffffffffffffffffffffff16847f2f8788117e7eff1d82e926ec794901d17c78024a50270940304540a733656f0d60405160405180910390a46001905062000182565b5f90505b92915050565b5f805f8481526020019081526020015f205f015f8373ffffffffffffffffffffffffffffffffffffffff1673ffffffffffffffffffffffffffffffffffffffff1681526020019081526020015f205f9054906101000a900460ff16905092915050565b5f33905090565b5f80fd5b5f73ffffffffffffffffffffffffffffffffffffffff82169050919050565b5f6200022182620001f6565b9050919050565b620002338162000215565b81146200023e575f80fd5b50565b5f81519050620002518162000228565b92915050565b5f602082840312156200026f576200026e620001f2565b5b5f6200027e8482850162000241565b91505092915050565b6080516157ec620002a05f395f6133da01526157ec5ff3fe6080604052600436106102ad575f3560e01c80637667180811610174578063b9e0db35116100db578063da35c66411610094578063f5c91a081161006e578063f5c91a0814610b8f578063fc0c546a14610bb7578063fc41f0a914610be1578063fe0438b214610c1d576102ad565b8063da35c66414610aed578063da65b54014610b17578063f207f3b614610b53576102ad565b8063b9e0db35146109ca578063bc4d328614610a09578063cabaeeb314610a33578063ccbbd26014610a5b578063cdade36014610a9d578063d547741f14610ac5576102ad565b80638676950f1161012d5780638676950f146108ac57806391d14854146108d657806393f7320014610912578063958efd7a1461094e578063a217fddf14610964578063a37698001461098e576102ad565b80637667180814610779578063784cd42d146107a357806378db0c14146107cb5780637a65b551146108075780637cd17834146108465780637d4782d014610870576102ad565b806350eb4ff1116102185780636036e9e0116101d15780636036e9e01461062c578063626535331461065457806366caea1514610695578063691314b0146106bd57806370a394c2146106fb57806373b8869114610737576102ad565b806350eb4ff11461050957806354fd4d5014610545578063594426e11461056f57806359fa2a07146105995780635bf5d54c146105d85780635fb6c6ed14610602576102ad565b80632f2ff15d1161026a5780632f2ff15d146103fb57806336568abe146104235780633fbdf32c1461044b5780634250816c1461046757806343fd652a1461048f57806345ecd02f146104cd576102ad565b8063013cf08b146102b157806301ffc9a7146102f75780630d61b5191461033357806316934fc41461035b578063248a9ca3146103975780632a106c9b146103d3575b5f80fd5b3480156102bc575f80fd5b506102d760048036038101906102d29190613a14565b610c59565b6040516102ee9b9a99989796959493929190613ac2565b60405180910390f35b348015610302575f80fd5b5061031d60048036038101906103189190613bc0565b610cf4565b60405161032a9190613beb565b60405180910390f35b34801561033e575f80fd5b5061035960048036038101906103549190613a14565b610d6d565b005b348015610366575f80fd5b50610381600480360381019061037c9190613c2e565b610f4a565b60405161038e9190613c59565b60405180910390f35b3480156103a2575f80fd5b506103bd60048036038101906103b89190613ca5565b610f5f565b6040516103ca9190613cdf565b60405180910390f35b3480156103de575f80fd5b506103f960048036038101906103f49190613c2e565b610f7b565b005b348015610406575f80fd5b50610421600480360381019061041c9190613cf8565b61148b565b005b34801561042e575f80fd5b5061044960048036038101906104449190613cf8565b6114ad565b005b61046560048036038101906104609190613a14565b611528565b005b348015610472575f80fd5b5061048d60048036038101906104889190613d36565b611dbc565b005b34801561049a575f80fd5b506104b560048036038101906104b09190613c2e565b611e70565b6040516104c493929190613d9a565b60405180910390f35b3480156104d8575f80fd5b506104f360048036038101906104ee9190613c2e565b611ee9565b6040516105009190613beb565b60405180910390f35b348015610514575f80fd5b5061052f600480360381019061052a9190613dcf565b611f06565b60405161053c9190613c59565b60405180910390f35b348015610550575f80fd5b50610559611f26565b6040516105669190613e97565b60405180910390f35b34801561057a575f80fd5b50610583611f63565b6040516105909190613eb7565b60405180910390f35b3480156105a4575f80fd5b506105bf60048036038101906105ba9190613c2e565b611f88565b6040516105cf9493929190613ed0565b60405180910390f35b3480156105e3575f80fd5b506105ec611fce565b6040516105f99190613c59565b60405180910390f35b34801561060d575f80fd5b50610616611fd4565b6040516106239190613c59565b60405180910390f35b348015610637575f80fd5b50610652600480360381019061064d9190613f3d565b611fda565b005b34801561065f575f80fd5b5061067a60048036038101906106759190613c2e565b6125d5565b60405161068c96959493929190613f8d565b60405180910390f35b3480156106a0575f80fd5b506106bb60048036038101906106b69190613c2e565b612625565b005b3480156106c8575f80fd5b506106e360048036038101906106de9190613dcf565b6126e3565b6040516106f293929190613fec565b60405180910390f35b348015610706575f80fd5b50610721600480360381019061071c9190613a14565b612732565b60405161072e91906140ee565b60405180910390f35b348015610742575f80fd5b5061075d60048036038101906107589190613dcf565b6127f6565b6040516107709796959493929190614108565b60405180910390f35b348015610784575f80fd5b5061078d61284b565b60405161079a9190613c59565b60405180910390f35b3480156107ae575f80fd5b506107c960048036038101906107c49190614175565b612851565b005b3480156107d6575f80fd5b506107f160048036038101906107ec9190613a14565b612b5e565b6040516107fe9190613beb565b60405180910390f35b348015610812575f80fd5b5061082d600480360381019061082891906141d9565b612b7b565b60405161083d9493929190614217565b60405180910390f35b348015610851575f80fd5b5061085a612bf9565b6040516108679190613c59565b60405180910390f35b34801561087b575f80fd5b5061089660048036038101906108919190613a14565b612c04565b6040516108a39190613c59565b60405180910390f35b3480156108b7575f80fd5b506108c0612c19565b6040516108cd9190613c59565b60405180910390f35b3480156108e1575f80fd5b506108fc60048036038101906108f79190613cf8565b612c1f565b6040516109099190613beb565b60405180910390f35b34801561091d575f80fd5b50610938600480360381019061093391906143bb565b612c82565b6040516109459190613c59565b60405180910390f35b348015610959575f80fd5b50610962612fef565b005b34801561096f575f80fd5b50610978613049565b6040516109859190613cdf565b60405180910390f35b348015610999575f80fd5b506109b460048036038101906109af919061440b565b61304f565b6040516109c19190613beb565b60405180910390f35b3480156109d5575f80fd5b506109f060048036038101906109eb9190613a14565b613079565b604051610a009493929190614449565b60405180910390f35b348015610a14575f80fd5b50610a1d6130a5565b604051610a2a9190613c59565b60405180910390f35b348015610a3e575f80fd5b50610a596004803603810190610a54919061448c565b6130ab565b005b348015610a66575f80fd5b50610a816004803603810190610a7c9190613a14565b613157565b604051610a949796959493929190614503565b60405180910390f35b348015610aa8575f80fd5b50610ac36004803603810190610abe919061459a565b6131c0565b005b348015610ad0575f80fd5b50610aeb6004803603810190610ae69190613cf8565b613338565b005b348015610af8575f80fd5b50610b0161335a565b604051610b0e9190613c59565b60405180910390f35b348015610b22575f80fd5b50610b3d6004803603810190610b389190613c2e565b613360565b604051610b4a9190613c59565b60405180910390f35b348015610b5e575f80fd5b50610b796004803603810190610b749190613a14565b613375565b604051610b8691906145d8565b60405180910390f35b348015610b9a575f80fd5b50610bb56004803603810190610bb091906141d9565b613392565b005b348015610bc2575f80fd5b50610bcb6133d8565b604051610bd8919061464c565b60405180910390f35b348015610bec575f80fd5b50610c076004803603810190610c029190614665565b6133fc565b604051610c149190613c59565b60405180910390f35b348015610c28575f80fd5b50610c436004803603810190610c3e9190613c2e565b61357f565b604051610c509190613c59565b60405180910390f35b6003602052805f5260405f205f91509050805f015490806001015f9054906101000a900473ffffffffffffffffffffffffffffffffffffffff1690806002015490806003015490806004015490806005015490806006015490806007015f9054906101000a900460ff16908060070160019054906101000a900460ff16908060070160029054906101000a900460ff1690806008015490508b565b5f7f7965db0b000000000000000000000000000000000000000000000000000000007bffffffffffffffffffffffffffffffffffffffffffffffffffffffff1916827bffffffffffffffffffffffffffffffffffffffffffffffffffffffff19161480610d665750610d6582613594565b5b9050919050565b610d756135fd565b600f54811115610dba576040517f08c379a0000000000000000000000000000000000000000000000000000000008152600401610db190614713565b60405180910390fd5b5f60035f8381526020019081526020015f2090508060070160029054906101000a900460ff1615610e20576040517f08c379a0000000000000000000000000000000000000000000000000000000008152600401610e179061477b565b60405180910390fd5b60045f8381526020019081526020015f205f9054906101000a900460ff1615610e7e576040517f08c379a0000000000000000000000000000000000000000000000000000000008152600401610e75906147e3565b60405180910390fd5b806003015460105411610ec6576040517f08c379a0000000000000000000000000000000000000000000000000000000008152600401610ebd9061484b565b60405180910390fd5b60018160070160026101000a81548160ff0219169083151502179055503373ffffffffffffffffffffffffffffffffffffffff16827f68ab678db8d2ac30ade450d2f61b71d192fb3940bf122fb1748c4d0b4d1d68fa4284600401548560050154604051610f3693929190614869565b60405180910390a350610f4761364c565b50565b600d602052805f5260405f205f915090505481565b5f805f8381526020019081526020015f20600101549050919050565b60085f3373ffffffffffffffffffffffffffffffffffffffff1673ffffffffffffffffffffffffffffffffffffffff1681526020019081526020015f205f9054906101000a900460ff16611004576040517f08c379a0000000000000000000000000000000000000000000000000000000008152600401610ffb906148e8565b60405180910390fd5b60085f8273ffffffffffffffffffffffffffffffffffffffff1673ffffffffffffffffffffffffffffffffffffffff1681526020019081526020015f205f9054906101000a900460ff1661108d576040517f08c379a000000000000000000000000000000000000000000000000000000000815260040161108490614950565b60405180910390fd5b60165f3373ffffffffffffffffffffffffffffffffffffffff1673ffffffffffffffffffffffffffffffffffffffff1681526020019081526020015f205f8273ffffffffffffffffffffffffffffffffffffffff1673ffffffffffffffffffffffffffffffffffffffff1681526020019081526020015f205f9054906101000a900460ff1615611152576040517f08c379a0000000000000000000000000000000000000000000000000000000008152600401611149906149b8565b60405180910390fd5b8073ffffffffffffffffffffffffffffffffffffffff163373ffffffffffffffffffffffffffffffffffffffff16036111c0576040517f08c379a00000000000000000000000000000000000000000000000000000000081526004016111b790614a20565b60405180910390fd5b5f60155f8373ffffffffffffffffffffffffffffffffffffffff1673ffffffffffffffffffffffffffffffffffffffff1681526020019081526020015f209050806003015f9054906101000a900460ff1615611251576040517f08c379a000000000000000000000000000000000000000000000000000000000815260040161124890614a88565b60405180910390fd5b8060030160019054906101000a900460ff16156112a3576040517f08c379a000000000000000000000000000000000000000000000000000000000815260040161129a90614af0565b60405180910390fd5b60068160010154106112ea576040517f08c379a00000000000000000000000000000000000000000000000000000000081526004016112e190614b58565b60405180910390fd5b805f0133908060018154018082558091505060019003905f5260205f20015f9091909190916101000a81548173ffffffffffffffffffffffffffffffffffffffff021916908373ffffffffffffffffffffffffffffffffffffffff160217905550806001015f81548092919061135f90614ba3565b9190505550600160165f3373ffffffffffffffffffffffffffffffffffffffff1673ffffffffffffffffffffffffffffffffffffffff1681526020019081526020015f205f8473ffffffffffffffffffffffffffffffffffffffff1673ffffffffffffffffffffffffffffffffffffffff1681526020019081526020015f205f6101000a81548160ff021916908315150217905550600681600101540361141e5760018160030160016101000a81548160ff0219169083151502179055505b8173ffffffffffffffffffffffffffffffffffffffff163373ffffffffffffffffffffffffffffffffffffffff167f21c7331a96d9f58d8f980c8522d0a71df5bc401179192f4b2a9a4b5d2d6d2fe2836001015460405161147f9190613c59565b60405180910390a35050565b61149482610f5f565b61149d81613655565b6114a78383613669565b50505050565b6114b5613752565b73ffffffffffffffffffffffffffffffffffffffff168173ffffffffffffffffffffffffffffffffffffffff1614611519576040517f6697b23200000000000000000000000000000000000000000000000000000000815260040160405180910390fd5b6115238282613759565b505050565b6115306135fd565b5f60095f8381526020019081526020015f20905080600a015f9054906101000a900460ff16611594576040517f08c379a000000000000000000000000000000000000000000000000000000000815260040161158b90614c34565b60405180910390fd5b5f73ffffffffffffffffffffffffffffffffffffffff16816008015f9054906101000a900473ffffffffffffffffffffffffffffffffffffffff1673ffffffffffffffffffffffffffffffffffffffff1603611625576040517f08c379a000000000000000000000000000000000000000000000000000000000815260040161161c90614c9c565b60405180910390fd5b60085f3373ffffffffffffffffffffffffffffffffffffffff1673ffffffffffffffffffffffffffffffffffffffff1681526020019081526020015f205f9054906101000a900460ff16156116af576040517f08c379a00000000000000000000000000000000000000000000000000000000081526004016116a690614d04565b60405180910390fd5b5f670de0b6b3a76400009050803410156116fe576040517f08c379a00000000000000000000000000000000000000000000000000000000081526004016116f590614d6c565b60405180910390fd5b5f8190505f813461170f9190614d8a565b905081600d5f3373ffffffffffffffffffffffffffffffffffffffff1673ffffffffffffffffffffffffffffffffffffffff1681526020019081526020015f20819055505f811115611805575f3373ffffffffffffffffffffffffffffffffffffffff168260405161178090614dea565b5f6040518083038185875af1925050503d805f81146117ba576040519150601f19603f3d011682016040523d82523d5f602084013e6117bf565b606091505b5050905080611803576040517f08c379a00000000000000000000000000000000000000000000000000000000081526004016117fa90614e48565b60405180910390fd5b505b5f846008015f9054906101000a900473ffffffffffffffffffffffffffffffffffffffff1673ffffffffffffffffffffffffffffffffffffffff168360405161184d90614dea565b5f6040518083038185875af1925050503d805f8114611887576040519150601f19603f3d011682016040523d82523d5f602084013e61188c565b606091505b50509050806118d0576040517f08c379a00000000000000000000000000000000000000000000000000000000081526004016118c790614eb0565b60405180910390fd5b5f60155f3373ffffffffffffffffffffffffffffffffffffffff1673ffffffffffffffffffffffffffffffffffffffff1681526020019081526020015f2090505f815f018054905014611958576040517f08c379a000000000000000000000000000000000000000000000000000000000815260040161194f90614f18565b60405180910390fd5b5f67ffffffffffffffff8111156119725761197161425e565b5b6040519080825280602002602001820160405280156119a05781602001602082028036833780820191505090505b50815f0190805190602001906119b7929190613893565b505f81600101819055504281600201819055505f816003015f6101000a81548160ff0219169083151502179055505f8160030160016101000a81548160ff021916908315150217905550600160085f3373ffffffffffffffffffffffffffffffffffffffff1673ffffffffffffffffffffffffffffffffffffffff1681526020019081526020015f205f6101000a81548160ff02191690831515021790555060135f815480929190611a6890614ba3565b9190505550606460055f3373ffffffffffffffffffffffffffffffffffffffff1673ffffffffffffffffffffffffffffffffffffffff1681526020019081526020015f20819055504260175f3373ffffffffffffffffffffffffffffffffffffffff1673ffffffffffffffffffffffffffffffffffffffff1681526020019081526020015f208190555033601a5f601b5481526020019081526020015f205f6101000a81548173ffffffffffffffffffffffffffffffffffffffff021916908373ffffffffffffffffffffffffffffffffffffffff160217905550601b5f815480929190611b5590614ba3565b91905055505f600190505f60185f8381526020019081526020015f209050806002015f815480929190611b8790614ba3565b91905055506040518060c001604052805f1515815260200162278d0042611bae9190614f36565b8152602001600381526020015f815260200168056bc75e2d6310000081526020016001151581525060075f3373ffffffffffffffffffffffffffffffffffffffff1673ffffffffffffffffffffffffffffffffffffffff1681526020019081526020015f205f820151815f015f6101000a81548160ff0219169083151502179055506020820151816001015560408201518160020155606082015181600301556080820151816004015560a0820151816005015f6101000a81548160ff02191690831515021790555090505060145f015f815480929190611c8e90614ba3565b9190505550876008015f9054906101000a900473ffffffffffffffffffffffffffffffffffffffff1673ffffffffffffffffffffffffffffffffffffffff1663bb306f63335f6040518363ffffffff1660e01b8152600401611cf1929190614f69565b5f604051808303815f87803b158015611d08575f80fd5b505af1925050508015611d19575060015b611d58576040517f08c379a0000000000000000000000000000000000000000000000000000000008152600401611d4f90615000565b60405180910390fd5b883373ffffffffffffffffffffffffffffffffffffffff167f29328bed57d62a2b3ca4287bb17d531514f2e6a4068bbb2ec561854bd264f66f4289604051611da192919061501e565b60405180910390a35050505050505050611db961364c565b50565b611dc85f801b33612c1f565b611e07576040517f08c379a0000000000000000000000000000000000000000000000000000000008152600401611dfe9061508f565b60405180910390fd5b5f600e5f8681526020019081526020015f205f8581526020019081526020015f20905083815f01819055508281600101819055508181600201819055506001816003015f6101000a81548160ff0219169083151502179055504281600601819055505050505050565b5f805f8060155f8673ffffffffffffffffffffffffffffffffffffffff1673ffffffffffffffffffffffffffffffffffffffff1681526020019081526020015f2090508060010154816003015f9054906101000a900460ff168260030160019054906101000a900460ff16935093509350509193909250565b6008602052805f5260405f205f915054906101000a900460ff1681565b600a602052815f5260405f20602052805f5260405f205f91509150505481565b60606040518060400160405280600581526020017f312e302e30000000000000000000000000000000000000000000000000000000815250905090565b60025f9054906101000a900473ffffffffffffffffffffffffffffffffffffffff1681565b6015602052805f5260405f205f91509050806001015490806002015490806003015f9054906101000a900460ff16908060030160019054906101000a900460ff16905084565b60115481565b60135481565b611fe26135fd565b60085f3373ffffffffffffffffffffffffffffffffffffffff1673ffffffffffffffffffffffffffffffffffffffff1681526020019081526020015f205f9054906101000a900460ff1661206b576040517f08c379a0000000000000000000000000000000000000000000000000000000008152600401612062906150f7565b60405180910390fd5b5f60035f8581526020019081526020015f2090508060070160029054906101000a900460ff16156120d1576040517f08c379a00000000000000000000000000000000000000000000000000000000081526004016120c89061477b565b60405180910390fd5b60045f8581526020019081526020015f205f9054906101000a900460ff161561212f576040517f08c379a0000000000000000000000000000000000000000000000000000000008152600401612126906147e3565b60405180910390fd5b80600201546010541015801561214b5750806003015460105411155b61218a576040517f08c379a00000000000000000000000000000000000000000000000000000000081526004016121819061515f565b60405180910390fd5b806009015f3373ffffffffffffffffffffffffffffffffffffffff1673ffffffffffffffffffffffffffffffffffffffff1681526020019081526020015f205f015f9054906101000a900460ff1615612218576040517f08c379a000000000000000000000000000000000000000000000000000000000815260040161220f906151c7565b60405180910390fd5b5f816009015f3373ffffffffffffffffffffffffffffffffffffffff1673ffffffffffffffffffffffffffffffffffffffff1681526020019081526020015f205f015f9054906101000a900460ff16612281576001826006015461227c9190614f36565b612287565b81600601545b90505f60025f9054906101000a900473ffffffffffffffffffffffffffffffffffffffff1673ffffffffffffffffffffffffffffffffffffffff1663e7f83ed385856005015486600401546122dc9190614f36565b6122e69190614f36565b876122f5578560040154612306565b8686600401546123059190614f36565b5b886123205787876005015461231b9190614f36565b612326565b86600501545b866013546011546040518763ffffffff1660e01b815260040161234e969594939291906151e5565b602060405180830381865afa158015612369573d5f803e3d5ffd5b505050506040513d601f19601f8201168201806040525081019061238d9190615258565b9050806123cf576040517f08c379a00000000000000000000000000000000000000000000000000000000081526004016123c6906152cd565b60405180910390fd5b84156123f45783836004015f8282546123e89190614f36565b9250508190555061240f565b83836005015f8282546124079190614f36565b925050819055505b6001836009015f3373ffffffffffffffffffffffffffffffffffffffff1673ffffffffffffffffffffffffffffffffffffffff1681526020019081526020015f205f015f6101000a81548160ff02191690831515021790555084836009015f3373ffffffffffffffffffffffffffffffffffffffff1673ffffffffffffffffffffffffffffffffffffffff1681526020019081526020015f205f0160016101000a81548160ff02191690831515021790555083836009015f3373ffffffffffffffffffffffffffffffffffffffff1673ffffffffffffffffffffffffffffffffffffffff1681526020019081526020015f2060010181905550826009015f3373ffffffffffffffffffffffffffffffffffffffff1673ffffffffffffffffffffffffffffffffffffffff1681526020019081526020015f205f015f9054906101000a900460ff1661257457826006015f81548092919061256e90614ba3565b91905055505b3373ffffffffffffffffffffffffffffffffffffffff16867fcbdf6214089cba887ecbf35a0b6a734589959c9763342c756bb2a80ca2bc9f6e87876040516125bd9291906152eb565b60405180910390a35050506125d061364c565b505050565b6007602052805f5260405f205f91509050805f015f9054906101000a900460ff1690806001015490806002015490806003015490806004015490806005015f9054906101000a900460ff16905086565b5f801b61263181613655565b5f73ffffffffffffffffffffffffffffffffffffffff168273ffffffffffffffffffffffffffffffffffffffff160361269f576040517f08c379a00000000000000000000000000000000000000000000000000000000081526004016126969061535c565b60405180910390fd5b8160025f6101000a81548173ffffffffffffffffffffffffffffffffffffffff021916908373ffffffffffffffffffffffffffffffffffffffff1602179055505050565b5f805f80600e5f8781526020019081526020015f205f8681526020019081526020015f20905080600101548160020154826003015f9054906101000a900460ff16935093509350509250925092565b61273a61391a565b5f60035f8481526020019081526020015f209050604051806101000160405280826002015481526020018260030154815260200160045f8681526020019081526020015f205f9054906101000a900460ff16151581526020018260070160029054906101000a900460ff1615158152602001826004015481526020018260050154815260200160195f8681526020019081526020015f205f9054906101000a900460ff1660ff1681526020018260080154815250915050919050565b600e602052815f5260405f20602052805f5260405f205f9150915050805f015490806001015490806002015490806003015f9054906101000a900460ff16908060040154908060050154908060060154905087565b60105481565b60085f3373ffffffffffffffffffffffffffffffffffffffff1673ffffffffffffffffffffffffffffffffffffffff1681526020019081526020015f205f9054906101000a900460ff166128da576040517f08c379a00000000000000000000000000000000000000000000000000000000081526004016128d1906150f7565b60405180910390fd5b60085f8573ffffffffffffffffffffffffffffffffffffffff1673ffffffffffffffffffffffffffffffffffffffff1681526020019081526020015f205f9054906101000a900460ff16612963576040517f08c379a000000000000000000000000000000000000000000000000000000000815260040161295a906153c4565b60405180910390fd5b8373ffffffffffffffffffffffffffffffffffffffff163373ffffffffffffffffffffffffffffffffffffffff16036129d1576040517f08c379a00000000000000000000000000000000000000000000000000000000081526004016129c89061542c565b60405180910390fd5b5f60405180608001604052808673ffffffffffffffffffffffffffffffffffffffff1681526020018581526020018415158152602001831515815250905060065f3373ffffffffffffffffffffffffffffffffffffffff1673ffffffffffffffffffffffffffffffffffffffff1681526020019081526020015f2081908060018154018082558091505060019003905f5260205f2090600302015f909190919091505f820151815f015f6101000a81548173ffffffffffffffffffffffffffffffffffffffff021916908373ffffffffffffffffffffffffffffffffffffffff160217905550602082015181600101556040820151816002015f6101000a81548160ff02191690831515021790555060608201518160020160016101000a81548160ff021916908315150217905550505060075f3373ffffffffffffffffffffffffffffffffffffffff1673ffffffffffffffffffffffffffffffffffffffff1681526020019081526020015f206003015f815480929190612b5290614ba3565b91905055505050505050565b6004602052805f5260405f205f915054906101000a900460ff1681565b6006602052815f5260405f208181548110612b94575f80fd5b905f5260205f2090600302015f9150915050805f015f9054906101000a900473ffffffffffffffffffffffffffffffffffffffff1690806001015490806002015f9054906101000a900460ff16908060020160019054906101000a900460ff16905084565b6014805f0154905081565b600b602052805f5260405f205f915090505481565b60125481565b5f805f8481526020019081526020015f205f015f8373ffffffffffffffffffffffffffffffffffffffff1673ffffffffffffffffffffffffffffffffffffffff1681526020019081526020015f205f9054906101000a900460ff16905092915050565b5f805f1b612c8f81613655565b5f73ffffffffffffffffffffffffffffffffffffffff168573ffffffffffffffffffffffffffffffffffffffff1603612cfd576040517f08c379a0000000000000000000000000000000000000000000000000000000008152600401612cf490615494565b60405180910390fd5b5f84118015612d0d5750600c8411155b612d4c576040517f08c379a0000000000000000000000000000000000000000000000000000000008152600401612d43906154fc565b60405180910390fd5b5f600185148015612e18575060025f9054906101000a900473ffffffffffffffffffffffffffffffffffffffff1673ffffffffffffffffffffffffffffffffffffffff16632b722668600b5f8881526020019081526020015f205487600b5f8a81526020019081526020015f20546040518463ffffffff1660e01b8152600401612dd893929190614869565b602060405180830381865afa158015612df3573d5f803e3d5ffd5b505050506040513d601f19601f82011682018060405250810190612e179190615258565b5b90508080612e265750600185115b612e65576040517f08c379a0000000000000000000000000000000000000000000000000000000008152600401612e5c90615564565b60405180910390fd5b600c5f815480929190612e7790614ba3565b91905055505f6001600b5f8881526020019081526020015f2054612e9b9190614f36565b90505f60095f600c5481526020019081526020015f20905081815f0181905550600c5481600101819055508681600401819055508581600501906003612ee292919061395e565b5087816008015f6101000a81548173ffffffffffffffffffffffffffffffffffffffff021916908373ffffffffffffffffffffffffffffffffffffffff160217905550600181600a015f6101000a81548160ff021916908315150217905550600c54600a5f8981526020019081526020015f205f8481526020019081526020015f2081905550600b5f8881526020019081526020015f205f815480929190612f8990614ba3565b91905055508773ffffffffffffffffffffffffffffffffffffffff16600c547f30a9fd27d721361c991859bb305b103ce4b31ebadd084fc67dff1a08ee2897df89604051612fd79190613c59565b60405180910390a3600c549450505050509392505050565b5f801b612ffb81613655565b60105f81548092919061300d90614ba3565b91905055505f600960105461302291906155af565b0361303f5760115f81548092919061303990614ba3565b91905055505b4260128190555050565b5f801b81565b6016602052815f5260405f20602052805f5260405f205f915091509054906101000a900460ff1681565b6018602052805f5260405f205f91509050805f0154908060010154908060020154908060030154905084565b600c5481565b6130b75f801b33612c1f565b6130f6576040517f08c379a00000000000000000000000000000000000000000000000000000000081526004016130ed9061508f565b60405180910390fd5b5f600e5f8781526020019081526020015f205f8681526020019081526020015f20905083816001018190555082816002018190555081816003015f6101000a81548160ff021916908315150217905550428160060181905550505050505050565b6009602052805f5260405f205f91509050805f015490806001015490806002015490806003015490806004015490806008015f9054906101000a900473ffffffffffffffffffffffffffffffffffffffff169080600a015f9054906101000a900460ff16905087565b5f801b6131cc81613655565b600f54831115613211576040517f08c379a000000000000000000000000000000000000000000000000000000000815260040161320890614713565b60405180910390fd5b5f8260ff1611613256576040517f08c379a000000000000000000000000000000000000000000000000000000000815260040161324d90615629565b60405180910390fd5b5f60195f8581526020019081526020015f205f9054906101000a900460ff1690508260ff168160ff16036132bf576040517f08c379a00000000000000000000000000000000000000000000000000000000081526004016132b690615691565b60405180910390fd5b8260195f8681526020019081526020015f205f6101000a81548160ff021916908360ff1602179055506001436132f59190614d8a565b40847fa27742976efc6cba3c391a1286f4c2989ab827dbbb2f347c38835319d617d05483864260405161332a939291906156af565b60405180910390a350505050565b61334182610f5f565b61334a81613655565b6133548383613759565b50505050565b600f5481565b6017602052805f5260405f205f915090505481565b6019602052805f5260405f205f915054906101000a900460ff1681565b8060055f8473ffffffffffffffffffffffffffffffffffffffff1673ffffffffffffffffffffffffffffffffffffffff1681526020019081526020015f20819055505050565b7f000000000000000000000000000000000000000000000000000000000000000081565b5f600f5f81548092919061340f90614ba3565b91905055505f60035f600f5481526020019081526020015f209050600f54815f018190555085816001015f6101000a81548173ffffffffffffffffffffffffffffffffffffffff021916908373ffffffffffffffffffffffffffffffffffffffff16021790555083816002018190555082816003018190555084816007015f6101000a81548160ff021916908360ff16021790555060055f8773ffffffffffffffffffffffffffffffffffffffff1673ffffffffffffffffffffffffffffffffffffffff1681526020019081526020015f20548160080181905550600160195f600f5481526020019081526020015f205f6101000a81548160ff021916908360ff1602179055508573ffffffffffffffffffffffffffffffffffffffff16600f547fb9ceb5092b075c6e5838b80d6e1b0dbd84b2c12ab787ae5349c6b565a5c8ba67878787866008015460405161356994939291906156e4565b60405180910390a3600f54915050949350505050565b6005602052805f5260405f205f915090505481565b5f7f01ffc9a7000000000000000000000000000000000000000000000000000000007bffffffffffffffffffffffffffffffffffffffffffffffffffffffff1916827bffffffffffffffffffffffffffffffffffffffffffffffffffffffff1916149050919050565b600260015403613642576040517f08c379a000000000000000000000000000000000000000000000000000000000815260040161363990615771565b60405180910390fd5b6002600181905550565b60018081905550565b61366681613661613752565b613842565b50565b5f6136748383612c1f565b6137485760015f808581526020019081526020015f205f015f8473ffffffffffffffffffffffffffffffffffffffff1673ffffffffffffffffffffffffffffffffffffffff1681526020019081526020015f205f6101000a81548160ff0219169083151502179055506136e5613752565b73ffffffffffffffffffffffffffffffffffffffff168273ffffffffffffffffffffffffffffffffffffffff16847f2f8788117e7eff1d82e926ec794901d17c78024a50270940304540a733656f0d60405160405180910390a46001905061374c565b5f90505b92915050565b5f33905090565b5f6137648383612c1f565b15613838575f805f8581526020019081526020015f205f015f8473ffffffffffffffffffffffffffffffffffffffff1673ffffffffffffffffffffffffffffffffffffffff1681526020019081526020015f205f6101000a81548160ff0219169083151502179055506137d5613752565b73ffffffffffffffffffffffffffffffffffffffff168273ffffffffffffffffffffffffffffffffffffffff16847ff6391f5c32d9c69d2a47ea670b442974b53935d1edc7fd64eb21e047a839171b60405160405180910390a46001905061383c565b5f90505b92915050565b61384c8282612c1f565b61388f5780826040517fe2517d3f00000000000000000000000000000000000000000000000000000000815260040161388692919061578f565b60405180910390fd5b5050565b828054828255905f5260205f20908101928215613909579160200282015b82811115613908578251825f6101000a81548173ffffffffffffffffffffffffffffffffffffffff021916908373ffffffffffffffffffffffffffffffffffffffff160217905550916020019190600101906138b1565b5b509050613916919061399e565b5090565b6040518061010001604052805f81526020015f81526020015f151581526020015f151581526020015f81526020015f81526020015f60ff1681526020015f81525090565b826003810192821561398d579160200282015b8281111561398c578251825591602001919060010190613971565b5b50905061399a91906139b9565b5090565b5b808211156139b5575f815f90555060010161399f565b5090565b5b808211156139d0575f815f9055506001016139ba565b5090565b5f604051905090565b5f80fd5b5f819050919050565b6139f3816139e1565b81146139fd575f80fd5b50565b5f81359050613a0e816139ea565b92915050565b5f60208284031215613a2957613a286139dd565b5b5f613a3684828501613a00565b91505092915050565b613a48816139e1565b82525050565b5f73ffffffffffffffffffffffffffffffffffffffff82169050919050565b5f613a7782613a4e565b9050919050565b613a8781613a6d565b82525050565b5f60ff82169050919050565b613aa281613a8d565b82525050565b5f8115159050919050565b613abc81613aa8565b82525050565b5f61016082019050613ad65f83018e613a3f565b613ae3602083018d613a7e565b613af0604083018c613a3f565b613afd606083018b613a3f565b613b0a608083018a613a3f565b613b1760a0830189613a3f565b613b2460c0830188613a3f565b613b3160e0830187613a99565b613b3f610100830186613ab3565b613b4d610120830185613ab3565b613b5b610140830184613a3f565b9c9b505050505050505050505050565b5f7fffffffff0000000000000000000000000000000000000000000000000000000082169050919050565b613b9f81613b6b565b8114613ba9575f80fd5b50565b5f81359050613bba81613b96565b92915050565b5f60208284031215613bd557613bd46139dd565b5b5f613be284828501613bac565b91505092915050565b5f602082019050613bfe5f830184613ab3565b92915050565b613c0d81613a6d565b8114613c17575f80fd5b50565b5f81359050613c2881613c04565b92915050565b5f60208284031215613c4357613c426139dd565b5b5f613c5084828501613c1a565b91505092915050565b5f602082019050613c6c5f830184613a3f565b92915050565b5f819050919050565b613c8481613c72565b8114613c8e575f80fd5b50565b5f81359050613c9f81613c7b565b92915050565b5f60208284031215613cba57613cb96139dd565b5b5f613cc784828501613c91565b91505092915050565b613cd981613c72565b82525050565b5f602082019050613cf25f830184613cd0565b92915050565b5f8060408385031215613d0e57613d0d6139dd565b5b5f613d1b85828601613c91565b9250506020613d2c85828601613c1a565b9150509250929050565b5f805f8060808587031215613d4e57613d4d6139dd565b5b5f613d5b87828801613a00565b9450506020613d6c87828801613a00565b9350506040613d7d87828801613a00565b9250506060613d8e87828801613a00565b91505092959194509250565b5f606082019050613dad5f830186613a3f565b613dba6020830185613ab3565b613dc76040830184613ab3565b949350505050565b5f8060408385031215613de557613de46139dd565b5b5f613df285828601613a00565b9250506020613e0385828601613a00565b9150509250929050565b5f81519050919050565b5f82825260208201905092915050565b5f5b83811015613e44578082015181840152602081019050613e29565b5f8484015250505050565b5f601f19601f8301169050919050565b5f613e6982613e0d565b613e738185613e17565b9350613e83818560208601613e27565b613e8c81613e4f565b840191505092915050565b5f6020820190508181035f830152613eaf8184613e5f565b905092915050565b5f602082019050613eca5f830184613a7e565b92915050565b5f608082019050613ee35f830187613a3f565b613ef06020830186613a3f565b613efd6040830185613ab3565b613f0a6060830184613ab3565b95945050505050565b613f1c81613aa8565b8114613f26575f80fd5b50565b5f81359050613f3781613f13565b92915050565b5f805f60608486031215613f5457613f536139dd565b5b5f613f6186828701613a00565b9350506020613f7286828701613f29565b9250506040613f8386828701613a00565b9150509250925092565b5f60c082019050613fa05f830189613ab3565b613fad6020830188613a3f565b613fba6040830187613a3f565b613fc76060830186613a3f565b613fd46080830185613a3f565b613fe160a0830184613ab3565b979650505050505050565b5f606082019050613fff5f830186613a3f565b61400c6020830185613a3f565b6140196040830184613ab3565b949350505050565b61402a816139e1565b82525050565b61403981613aa8565b82525050565b61404881613a8d565b82525050565b61010082015f8201516140635f850182614021565b5060208201516140766020850182614021565b5060408201516140896040850182614030565b50606082015161409c6060850182614030565b5060808201516140af6080850182614021565b5060a08201516140c260a0850182614021565b5060c08201516140d560c085018261403f565b5060e08201516140e860e0850182614021565b50505050565b5f610100820190506141025f83018461404e565b92915050565b5f60e08201905061411b5f83018a613a3f565b6141286020830189613a3f565b6141356040830188613a3f565b6141426060830187613ab3565b61414f6080830186613cd0565b61415c60a0830185613cd0565b61416960c0830184613a3f565b98975050505050505050565b5f805f806080858703121561418d5761418c6139dd565b5b5f61419a87828801613c1a565b94505060206141ab87828801613a00565b93505060406141bc87828801613f29565b92505060606141cd87828801613f29565b91505092959194509250565b5f80604083850312156141ef576141ee6139dd565b5b5f6141fc85828601613c1a565b925050602061420d85828601613a00565b9150509250929050565b5f60808201905061422a5f830187613a7e565b6142376020830186613a3f565b6142446040830185613ab3565b6142516060830184613ab3565b95945050505050565b5f80fd5b7f4e487b71000000000000000000000000000000000000000000000000000000005f52604160045260245ffd5b61429482613e4f565b810181811067ffffffffffffffff821117156142b3576142b261425e565b5b80604052505050565b5f6142c56139d4565b90506142d1828261428b565b919050565b5f67ffffffffffffffff8211156142f0576142ef61425e565b5b602082029050919050565b5f80fd5b5f819050919050565b614311816142ff565b811461431b575f80fd5b50565b5f8135905061432c81614308565b92915050565b5f61434461433f846142d6565b6142bc565b9050806020840283018581111561435e5761435d6142fb565b5b835b818110156143875780614373888261431e565b845260208401935050602081019050614360565b5050509392505050565b5f82601f8301126143a5576143a461425a565b5b60036143b2848285614332565b91505092915050565b5f805f60a084860312156143d2576143d16139dd565b5b5f6143df86828701613c1a565b93505060206143f086828701613a00565b925050604061440186828701614391565b9150509250925092565b5f8060408385031215614421576144206139dd565b5b5f61442e85828601613c1a565b925050602061443f85828601613c1a565b9150509250929050565b5f60808201905061445c5f830187613a3f565b6144696020830186613cd0565b6144766040830185613a3f565b6144836060830184613a3f565b95945050505050565b5f805f805f60a086880312156144a5576144a46139dd565b5b5f6144b288828901613a00565b95505060206144c388828901613a00565b94505060406144d488828901613a00565b93505060606144e588828901613a00565b92505060806144f688828901613f29565b9150509295509295909350565b5f60e0820190506145165f83018a613a3f565b6145236020830189613a3f565b6145306040830188613a3f565b61453d6060830187613a3f565b61454a6080830186613a3f565b61455760a0830185613a7e565b61456460c0830184613ab3565b98975050505050505050565b61457981613a8d565b8114614583575f80fd5b50565b5f8135905061459481614570565b92915050565b5f80604083850312156145b0576145af6139dd565b5b5f6145bd85828601613a00565b92505060206145ce85828601614586565b9150509250929050565b5f6020820190506145eb5f830184613a99565b92915050565b5f819050919050565b5f61461461460f61460a84613a4e565b6145f1565b613a4e565b9050919050565b5f614625826145fa565b9050919050565b5f6146368261461b565b9050919050565b6146468161462c565b82525050565b5f60208201905061465f5f83018461463d565b92915050565b5f805f806080858703121561467d5761467c6139dd565b5b5f61468a87828801613c1a565b945050602061469b87828801614586565b93505060406146ac87828801613a00565b92505060606146bd87828801613a00565b91505092959194509250565b7f496e76616c69642070726f706f73616c204944000000000000000000000000005f82015250565b5f6146fd601383613e17565b9150614708826146c9565b602082019050919050565b5f6020820190508181035f83015261472a816146f1565b9050919050565b7f416c7265616479206578656375746564000000000000000000000000000000005f82015250565b5f614765601083613e17565b915061477082614731565b602082019050919050565b5f6020820190508181035f83015261479281614759565b9050919050565b7f50726f706f73616c2063616e63656c65640000000000000000000000000000005f82015250565b5f6147cd601183613e17565b91506147d882614799565b602082019050919050565b5f6020820190508181035f8301526147fa816147c1565b9050919050565b7f566f74696e6720706572696f64206e6f7420656e6465640000000000000000005f82015250565b5f614835601783613e17565b915061484082614801565b602082019050919050565b5f6020820190508181035f83015261486281614829565b9050919050565b5f60608201905061487c5f830186613a3f565b6148896020830185613a3f565b6148966040830184613a3f565b949350505050565b7f4e6f7420612044414f206d656d626572000000000000000000000000000000005f82015250565b5f6148d2601083613e17565b91506148dd8261489e565b602082019050919050565b5f6020820190508181035f8301526148ff816148c6565b9050919050565b7f546172676574206973206e6f742061206d656d626572000000000000000000005f82015250565b5f61493a601683613e17565b915061494582614906565b602082019050919050565b5f6020820190508181035f8301526149678161492e565b9050919050565b7f416c726561647920766f756368656400000000000000000000000000000000005f82015250565b5f6149a2600f83613e17565b91506149ad8261496e565b602082019050919050565b5f6020820190508181035f8301526149cf81614996565b9050919050565b7f43616e6e6f7420766f75636820666f722073656c6600000000000000000000005f82015250565b5f614a0a601583613e17565b9150614a15826149d6565b602082019050919050565b5f6020820190508181035f830152614a37816149fe565b9050919050565b7f43616e6e6f7420766f75636820666f722067656e65736973206163636f756e745f82015250565b5f614a72602083613e17565b9150614a7d82614a3e565b602082019050919050565b5f6020820190508181035f830152614a9f81614a66565b9050919050565b7f416c7265616479206861732066756c6c20616c6c6f636174696f6e00000000005f82015250565b5f614ada601b83613e17565b9150614ae582614aa6565b602082019050919050565b5f6020820190508181035f830152614b0781614ace565b9050919050565b7f416c726561647920686173206d6178696d756d20766f756368657300000000005f82015250565b5f614b42601b83613e17565b9150614b4d82614b0e565b602082019050919050565b5f6020820190508181035f830152614b6f81614b36565b9050919050565b7f4e487b71000000000000000000000000000000000000000000000000000000005f52601160045260245ffd5b5f614bad826139e1565b91507fffffffffffffffffffffffffffffffffffffffffffffffffffffffffffffffff8203614bdf57614bde614b76565b5b600182019050919050565b7f44414f206973206e6f74206163746976650000000000000000000000000000005f82015250565b5f614c1e601183613e17565b9150614c2982614bea565b602082019050919050565b5f6020820190508181035f830152614c4b81614c12565b9050919050565b7f44414f206e6f742070726f7065726c7920696e697469616c697a6564000000005f82015250565b5f614c86601c83613e17565b9150614c9182614c52565b602082019050919050565b5f6020820190508181035f830152614cb381614c7a565b9050919050565b7f416c726561647920612044414f206d656d6265720000000000000000000000005f82015250565b5f614cee601483613e17565b9150614cf982614cba565b602082019050919050565b5f6020820190508181035f830152614d1b81614ce2565b9050919050565b7f496e73756666696369656e7420504c532073656e7400000000000000000000005f82015250565b5f614d56601583613e17565b9150614d6182614d22565b602082019050919050565b5f6020820190508181035f830152614d8381614d4a565b9050919050565b5f614d94826139e1565b9150614d9f836139e1565b9250828203905081811115614db757614db6614b76565b5b92915050565b5f81905092915050565b50565b5f614dd55f83614dbd565b9150614de082614dc7565b5f82019050919050565b5f614df482614dca565b9150819050919050565b7f4661696c656420746f2072657475726e2065786365737320504c5300000000005f82015250565b5f614e32601b83613e17565b9150614e3d82614dfe565b602082019050919050565b5f6020820190508181035f830152614e5f81614e26565b9050919050565b7f4661696c656420746f207472616e73666572207374616b6520746f2044414f005f82015250565b5f614e9a601f83613e17565b9150614ea582614e66565b602082019050919050565b5f6020820190508181035f830152614ec781614e8e565b9050919050565b7f566f75636820696e666f20616c726561647920696e697469616c697a656400005f82015250565b5f614f02601e83613e17565b9150614f0d82614ece565b602082019050919050565b5f6020820190508181035f830152614f2f81614ef6565b9050919050565b5f614f40826139e1565b9150614f4b836139e1565b9250828201905080821115614f6357614f62614b76565b5b92915050565b5f604082019050614f7c5f830185613a7e565b614f896020830184613ab3565b9392505050565b7f4661696c656420746f20726567697374657220696e20746f6b656e20636f6e745f8201527f7261637400000000000000000000000000000000000000000000000000000000602082015250565b5f614fea602483613e17565b9150614ff582614f90565b604082019050919050565b5f6020820190508181035f83015261501781614fde565b9050919050565b5f6040820190506150315f830185613a3f565b61503e6020830184613a3f565b9392505050565b7f4e6f7420617574686f72697a65640000000000000000000000000000000000005f82015250565b5f615079600e83613e17565b915061508482615045565b602082019050919050565b5f6020820190508181035f8301526150a68161506d565b9050919050565b7f4e6f742061206d656d62657200000000000000000000000000000000000000005f82015250565b5f6150e1600c83613e17565b91506150ec826150ad565b602082019050919050565b5f6020820190508181035f83015261510e816150d5565b9050919050565b7f566f74696e6720636c6f736564000000000000000000000000000000000000005f82015250565b5f615149600d83613e17565b915061515482615115565b602082019050919050565b5f6020820190508181035f8301526151768161513d565b9050919050565b7f416c726561647920766f746564000000000000000000000000000000000000005f82015250565b5f6151b1600d83613e17565b91506151bc8261517d565b602082019050919050565b5f6020820190508181035f8301526151de816151a5565b9050919050565b5f60c0820190506151f85f830189613a3f565b6152056020830188613a3f565b6152126040830187613a3f565b61521f6060830186613a3f565b61522c6080830185613a3f565b61523960a0830184613a3f565b979650505050505050565b5f8151905061525281613f13565b92915050565b5f6020828403121561526d5761526c6139dd565b5b5f61527a84828501615244565b91505092915050565b7f496e76616c696420766f746500000000000000000000000000000000000000005f82015250565b5f6152b7600c83613e17565b91506152c282615283565b602082019050919050565b5f6020820190508181035f8301526152e4816152ab565b9050919050565b5f6040820190506152fe5f830185613ab3565b61530b6020830184613a3f565b9392505050565b7f496e76616c6964206c6f67696320636f6e7374697475656e74000000000000005f82015250565b5f615346601983613e17565b915061535182615312565b602082019050919050565b5f6020820190508181035f8301526153738161533a565b9050919050565b7f546172676574206e6f742061206d656d626572000000000000000000000000005f82015250565b5f6153ae601383613e17565b91506153b98261537a565b602082019050919050565b5f6020820190508181035f8301526153db816153a2565b9050919050565b7f43616e6e6f7420636f6e6e65637420746f2073656c66000000000000000000005f82015250565b5f615416601683613e17565b9150615421826153e2565b602082019050919050565b5f6020820190508181035f8301526154438161540a565b9050919050565b7f496e76616c69642044414f2061646472657373000000000000000000000000005f82015250565b5f61547e601383613e17565b91506154898261544a565b602082019050919050565b5f6020820190508181035f8301526154ab81615472565b9050919050565b7f496e76616c6964206c6576656c000000000000000000000000000000000000005f82015250565b5f6154e6600d83613e17565b91506154f1826154b2565b602082019050919050565b5f6020820190508181035f830152615513816154da565b9050919050565b7f496e76616c696420726f6f742044414f000000000000000000000000000000005f82015250565b5f61554e601083613e17565b91506155598261551a565b602082019050919050565b5f6020820190508181035f83015261557b81615542565b9050919050565b7f4e487b71000000000000000000000000000000000000000000000000000000005f52601260045260245ffd5b5f6155b9826139e1565b91506155c4836139e1565b9250826155d4576155d3615582565b5b828206905092915050565b7f496e76616c6964207374617465000000000000000000000000000000000000005f82015250565b5f615613600d83613e17565b915061561e826155df565b602082019050919050565b5f6020820190508181035f83015261564081615607565b9050919050565b7f537461746520756e6368616e67656400000000000000000000000000000000005f82015250565b5f61567b600f83613e17565b915061568682615647565b602082019050919050565b5f6020820190508181035f8301526156a88161566f565b9050919050565b5f6060820190506156c25f830186613a99565b6156cf6020830185613a99565b6156dc6040830184613a3f565b949350505050565b5f6080820190506156f75f830187613a99565b6157046020830186613a3f565b6157116040830185613a3f565b61571e6060830184613a3f565b95945050505050565b7f5265656e7472616e637947756172643a207265656e7472616e742063616c6c005f82015250565b5f61575b601f83613e17565b915061576682615727565b602082019050919050565b5f6020820190508181035f8301526157888161574f565b9050919050565b5f6040820190506157a25f830185613a7e565b6157af6020830184613cd0565b939250505056fea26469706673582212207d3f82d3f682cc0bb5c0bd056ee0ea4f85a6f4129de3ef9f04b243b2fa21c6e164736f6c63430008140033",
			"opcodes": "PUSH1 0xA0 PUSH1 0x40 MSTORE CALLVALUE DUP1 ISZERO PUSH3 0x10 JUMPI PUSH0 DUP1 REVERT JUMPDEST POP PUSH1 0x40 MLOAD PUSH3 0x5A8C CODESIZE SUB DUP1 PUSH3 0x5A8C DUP4 CODECOPY DUP2 DUP2 ADD PUSH1 0x40 MSTORE DUP2 ADD SWAP1 PUSH3 0x36 SWAP2 SWAP1 PUSH3 0x257 JUMP JUMPDEST PUSH1 0x1 DUP1 DUP2 SWAP1 SSTORE POP DUP1 PUSH20 0xFFFFFFFFFFFFFFFFFFFFFFFFFFFFFFFFFFFFFFFF AND PUSH1 0x80 DUP2 PUSH20 0xFFFFFFFFFFFFFFFFFFFFFFFFFFFFFFFFFFFFFFFF AND DUP2 MSTORE POP POP PUSH3 0x85 PUSH0 DUP1 SHL CALLER PUSH3 0x8D PUSH1 0x20 SHL PUSH1 0x20 SHR JUMP JUMPDEST POP POP PUSH3 0x287 JUMP JUMPDEST PUSH0 PUSH3 0xA0 DUP4 DUP4 PUSH3 0x188 PUSH1 0x20 SHL PUSH1 0x20 SHR JUMP JUMPDEST PUSH3 0x17E JUMPI PUSH1 0x1 PUSH0 DUP1 DUP6 DUP2 MSTORE PUSH1 0x20 ADD SWAP1 DUP2 MSTORE PUSH1 0x20 ADD PUSH0 KECCAK256 PUSH0 ADD PUSH0 DUP5 PUSH20 0xFFFFFFFFFFFFFFFFFFFFFFFFFFFFFFFFFFFFFFFF AND PUSH20 0xFFFFFFFFFFFFFFFFFFFFFFFFFFFFFFFFFFFFFFFF AND DUP2 MSTORE PUSH1 0x20 ADD SWAP1 DUP2 MSTORE PUSH1 0x20 ADD PUSH0 KECCAK256 PUSH0 PUSH2 0x100 EXP DUP2 SLOAD DUP2 PUSH1 0xFF MUL NOT AND SWAP1 DUP4 ISZERO ISZERO MUL OR SWAP1 SSTORE POP PUSH3 0x11A PUSH3 0x1EB PUSH1 0x20 SHL PUSH1 0x20 SHR JUMP JUMPDEST PUSH20 0xFFFFFFFFFFFFFFFFFFFFFFFFFFFFFFFFFFFFFFFF AND DUP3 PUSH20 0xFFFFFFFFFFFFFFFFFFFFFFFFFFFFFFFFFFFFFFFF AND DUP5 PUSH32 0x2F8788117E7EFF1D82E926EC794901D17C78024A50270940304540A733656F0D PUSH1 0x40 MLOAD PUSH1 0x40 MLOAD DUP1 SWAP2 SUB SWAP1 LOG4 PUSH1 0x1 SWAP1 POP PUSH3 0x182 JUMP JUMPDEST PUSH0 SWAP1 POP JUMPDEST SWAP3 SWAP2 POP POP JUMP JUMPDEST PUSH0 DUP1 PUSH0 DUP5 DUP2 MSTORE PUSH1 0x20 ADD SWAP1 DUP2 MSTORE PUSH1 0x20 ADD PUSH0 KECCAK256 PUSH0 ADD PUSH0 DUP4 PUSH20 0xFFFFFFFFFFFFFFFFFFFFFFFFFFFFFFFFFFFFFFFF AND PUSH20 0xFFFFFFFFFFFFFFFFFFFFFFFFFFFFFFFFFFFFFFFF AND DUP2 MSTORE PUSH1 0x20 ADD SWAP1 DUP2 MSTORE PUSH1 0x20 ADD PUSH0 KECCAK256 PUSH0 SWAP1 SLOAD SWAP1 PUSH2 0x100 EXP SWAP1 DIV PUSH1 0xFF AND SWAP1 POP SWAP3 SWAP2 POP POP JUMP JUMPDEST PUSH0 CALLER SWAP1 POP SWAP1 JUMP JUMPDEST PUSH0 DUP1 REVERT JUMPDEST PUSH0 PUSH20 0xFFFFFFFFFFFFFFFFFFFFFFFFFFFFFFFFFFFFFFFF DUP3 AND SWAP1 POP SWAP2 SWAP1 POP JUMP JUMPDEST PUSH0 PUSH3 0x221 DUP3 PUSH3 0x1F6 JUMP JUMPDEST SWAP1 POP SWAP2 SWAP1 POP JUMP JUMPDEST PUSH3 0x233 DUP2 PUSH3 0x215 JUMP JUMPDEST DUP2 EQ PUSH3 0x23E JUMPI PUSH0 DUP1 REVERT JUMPDEST POP JUMP JUMPDEST PUSH0 DUP2 MLOAD SWAP1 POP PUSH3 0x251 DUP2 PUSH3 0x228 JUMP JUMPDEST SWAP3 SWAP2 POP POP JUMP JUMPDEST PUSH0 PUSH1 0x20 DUP3 DUP5 SUB SLT ISZERO PUSH3 0x26F JUMPI PUSH3 0x26E PUSH3 0x1F2 JUMP JUMPDEST JUMPDEST PUSH0 PUSH3 0x27E DUP5 DUP3 DUP6 ADD PUSH3 0x241 JUMP JUMPDEST SWAP2 POP POP SWAP3 SWAP2 POP POP JUMP JUMPDEST PUSH1 0x80 MLOAD PUSH2 0x57EC PUSH3 0x2A0 PUSH0 CODECOPY PUSH0 PUSH2 0x33DA ADD MSTORE PUSH2 0x57EC PUSH0 RETURN INVALID PUSH1 0x80 PUSH1 0x40 MSTORE PUSH1 0x4 CALLDATASIZE LT PUSH2 0x2AD JUMPI PUSH0 CALLDATALOAD PUSH1 0xE0 SHR DUP1 PUSH4 0x76671808 GT PUSH2 0x174 JUMPI DUP1 PUSH4 0xB9E0DB35 GT PUSH2 0xDB JUMPI DUP1 PUSH4 0xDA35C664 GT PUSH2 0x94 JUMPI DUP1 PUSH4 0xF5C91A08 GT PUSH2 0x6E JUMPI DUP1 PUSH4 0xF5C91A08 EQ PUSH2 0xB8F JUMPI DUP1 PUSH4 0xFC0C546A EQ PUSH2 0xBB7 JUMPI DUP1 PUSH4 0xFC41F0A9 EQ PUSH2 0xBE1 JUMPI DUP1 PUSH4 0xFE0438B2 EQ PUSH2 0xC1D JUMPI PUSH2 0x2AD JUMP JUMPDEST DUP1 PUSH4 0xDA35C664 EQ PUSH2 0xAED JUMPI DUP1 PUSH4 0xDA65B540 EQ PUSH2 0xB17 JUMPI DUP1 PUSH4 0xF207F3B6 EQ PUSH2 0xB53 JUMPI PUSH2 0x2AD JUMP JUMPDEST DUP1 PUSH4 0xB9E0DB35 EQ PUSH2 0x9CA JUMPI DUP1 PUSH4 0xBC4D3286 EQ PUSH2 0xA09 JUMPI DUP1 PUSH4 0xCABAEEB3 EQ PUSH2 0xA33 JUMPI DUP1 PUSH4 0xCCBBD260 EQ PUSH2 0xA5B JUMPI DUP1 PUSH4 0xCDADE360 EQ PUSH2 0xA9D JUMPI DUP1 PUSH4 0xD547741F EQ PUSH2 0xAC5 JUMPI PUSH2 0x2AD JUMP JUMPDEST DUP1 PUSH4 0x8676950F GT PUSH2 0x12D JUMPI DUP1 PUSH4 0x8676950F EQ PUSH2 0x8AC JUMPI DUP1 PUSH4 0x91D14854 EQ PUSH2 0x8D6 JUMPI DUP1 PUSH4 0x93F73200 EQ PUSH2 0x912 JUMPI DUP1 PUSH4 0x958EFD7A EQ PUSH2 0x94E JUMPI DUP1 PUSH4 0xA217FDDF EQ PUSH2 0x964 JUMPI DUP1 PUSH4 0xA3769800 EQ PUSH2 0x98E JUMPI PUSH2 0x2AD JUMP JUMPDEST DUP1 PUSH4 0x76671808 EQ PUSH2 0x779 JUMPI DUP1 PUSH4 0x784CD42D EQ PUSH2 0x7A3 JUMPI DUP1 PUSH4 0x78DB0C14 EQ PUSH2 0x7CB JUMPI DUP1 PUSH4 0x7A65B551 EQ PUSH2 0x807 JUMPI DUP1 PUSH4 0x7CD17834 EQ PUSH2 0x846 JUMPI DUP1 PUSH4 0x7D4782D0 EQ PUSH2 0x870 JUMPI PUSH2 0x2AD JUMP JUMPDEST DUP1 PUSH4 0x50EB4FF1 GT PUSH2 0x218 JUMPI DUP1 PUSH4 0x6036E9E0 GT PUSH2 0x1D1 JUMPI DUP1 PUSH4 0x6036E9E0 EQ PUSH2 0x62C JUMPI DUP1 PUSH4 0x62653533 EQ PUSH2 0x654 JUMPI DUP1 PUSH4 0x66CAEA15 EQ PUSH2 0x695 JUMPI DUP1 PUSH4 0x691314B0 EQ PUSH2 0x6BD JUMPI DUP1 PUSH4 0x70A394C2 EQ PUSH2 0x6FB JUMPI DUP1 PUSH4 0x73B88691 EQ PUSH2 0x737 JUMPI PUSH2 0x2AD JUMP JUMPDEST DUP1 PUSH4 0x50EB4FF1 EQ PUSH2 0x509 JUMPI DUP1 PUSH4 0x54FD4D50 EQ PUSH2 0x545 JUMPI DUP1 PUSH4 0x594426E1 EQ PUSH2 0x56F JUMPI DUP1 PUSH4 0x59FA2A07 EQ PUSH2 0x599 JUMPI DUP1 PUSH4 0x5BF5D54C EQ PUSH2 0x5D8 JUMPI DUP1 PUSH4 0x5FB6C6ED EQ PUSH2 0x602 JUMPI PUSH2 0x2AD JUMP JUMPDEST DUP1 PUSH4 0x2F2FF15D GT PUSH2 0x26A JUMPI DUP1 PUSH4 0x2F2FF15D EQ PUSH2 0x3FB JUMPI DUP1 PUSH4 0x36568ABE EQ PUSH2 0x423 JUMPI DUP1 PUSH4 0x3FBDF32C EQ PUSH2 0x44B JUMPI DUP1 PUSH4 0x4250816C EQ PUSH2 0x467 JUMPI DUP1 PUSH4 0x43FD652A EQ PUSH2 0x48F JUMPI DUP1 PUSH4 0x45ECD02F EQ PUSH2 0x4CD JUMPI PUSH2 0x2AD JUMP JUMPDEST DUP1 PUSH4 0x13CF08B EQ PUSH2 0x2B1 JUMPI DUP1 PUSH4 0x1FFC9A7 EQ PUSH2 0x2F7 JUMPI DUP1 PUSH4 0xD61B519 EQ PUSH2 0x333 JUMPI DUP1 PUSH4 0x16934FC4 EQ PUSH2 0x35B JUMPI DUP1 PUSH4 0x248A9CA3 EQ PUSH2 0x397 JUMPI DUP1 PUSH4 0x2A106C9B EQ PUSH2 0x3D3 JUMPI JUMPDEST PUSH0 DUP1 REVERT JUMPDEST CALLVALUE DUP1 ISZERO PUSH2 0x2BC JUMPI PUSH0 DUP1 REVERT JUMPDEST POP PUSH2 0x2D7 PUSH1 0x4 DUP1 CALLDATASIZE SUB DUP2 ADD SWAP1 PUSH2 0x2D2 SWAP2 SWAP1 PUSH2 0x3A14 JUMP JUMPDEST PUSH2 0xC59 JUMP JUMPDEST PUSH1 0x40 MLOAD PUSH2 0x2EE SWAP12 SWAP11 SWAP10 SWAP9 SWAP8 SWAP7 SWAP6 SWAP5 SWAP4 SWAP3 SWAP2 SWAP1 PUSH2 0x3AC2 JUMP JUMPDEST PUSH1 0x40 MLOAD DUP1 SWAP2 SUB SWAP1 RETURN JUMPDEST CALLVALUE DUP1 ISZERO PUSH2 0x302 JUMPI PUSH0 DUP1 REVERT JUMPDEST POP PUSH2 0x31D PUSH1 0x4 DUP1 CALLDATASIZE SUB DUP2 ADD SWAP1 PUSH2 0x318 SWAP2 SWAP1 PUSH2 0x3BC0 JUMP JUMPDEST PUSH2 0xCF4 JUMP JUMPDEST PUSH1 0x40 MLOAD PUSH2 0x32A SWAP2 SWAP1 PUSH2 0x3BEB JUMP JUMPDEST PUSH1 0x40 MLOAD DUP1 SWAP2 SUB SWAP1 RETURN JUMPDEST CALLVALUE DUP1 ISZERO PUSH2 0x33E JUMPI PUSH0 DUP1 REVERT JUMPDEST POP PUSH2 0x359 PUSH1 0x4 DUP1 CALLDATASIZE SUB DUP2 ADD SWAP1 PUSH2 0x354 SWAP2 SWAP1 PUSH2 0x3A14 JUMP JUMPDEST PUSH2 0xD6D JUMP JUMPDEST STOP JUMPDEST CALLVALUE DUP1 ISZERO PUSH2 0x366 JUMPI PUSH0 DUP1 REVERT JUMPDEST POP PUSH2 0x381 PUSH1 0x4 DUP1 CALLDATASIZE SUB DUP2 ADD SWAP1 PUSH2 0x37C SWAP2 SWAP1 PUSH2 0x3C2E JUMP JUMPDEST PUSH2 0xF4A JUMP JUMPDEST PUSH1 0x40 MLOAD PUSH2 0x38E SWAP2 SWAP1 PUSH2 0x3C59 JUMP JUMPDEST PUSH1 0x40 MLOAD DUP1 SWAP2 SUB SWAP1 RETURN JUMPDEST CALLVALUE DUP1 ISZERO PUSH2 0x3A2 JUMPI PUSH0 DUP1 REVERT JUMPDEST POP PUSH2 0x3BD PUSH1 0x4 DUP1 CALLDATASIZE SUB DUP2 ADD SWAP1 PUSH2 0x3B8 SWAP2 SWAP1 PUSH2 0x3CA5 JUMP JUMPDEST PUSH2 0xF5F JUMP JUMPDEST PUSH1 0x40 MLOAD PUSH2 0x3CA SWAP2 SWAP1 PUSH2 0x3CDF JUMP JUMPDEST PUSH1 0x40 MLOAD DUP1 SWAP2 SUB SWAP1 RETURN JUMPDEST CALLVALUE DUP1 ISZERO PUSH2 0x3DE JUMPI PUSH0 DUP1 REVERT JUMPDEST POP PUSH2 0x3F9 PUSH1 0x4 DUP1 CALLDATASIZE SUB DUP2 ADD SWAP1 PUSH2 0x3F4 SWAP2 SWAP1 PUSH2 0x3C2E JUMP JUMPDEST PUSH2 0xF7B JUMP JUMPDEST STOP JUMPDEST CALLVALUE DUP1 ISZERO PUSH2 0x406 JUMPI PUSH0 DUP1 REVERT JUMPDEST POP PUSH2 0x421 PUSH1 0x4 DUP1 CALLDATASIZE SUB DUP2 ADD SWAP1 PUSH2 0x41C SWAP2 SWAP1 PUSH2 0x3CF8 JUMP JUMPDEST PUSH2 0x148B JUMP JUMPDEST STOP JUMPDEST CALLVALUE DUP1 ISZERO PUSH2 0x42E JUMPI PUSH0 DUP1 REVERT JUMPDEST POP PUSH2 0x449 PUSH1 0x4 DUP1 CALLDATASIZE SUB DUP2 ADD SWAP1 PUSH2 0x444 SWAP2 SWAP1 PUSH2 0x3CF8 JUMP JUMPDEST PUSH2 0x14AD JUMP JUMPDEST STOP JUMPDEST PUSH2 0x465 PUSH1 0x4 DUP1 CALLDATASIZE SUB DUP2 ADD SWAP1 PUSH2 0x460 SWAP2 SWAP1 PUSH2 0x3A14 JUMP JUMPDEST PUSH2 0x1528 JUMP JUMPDEST STOP JUMPDEST CALLVALUE DUP1 ISZERO PUSH2 0x472 JUMPI PUSH0 DUP1 REVERT JUMPDEST POP PUSH2 0x48D PUSH1 0x4 DUP1 CALLDATASIZE SUB DUP2 ADD SWAP1 PUSH2 0x488 SWAP2 SWAP1 PUSH2 0x3D36 JUMP JUMPDEST PUSH2 0x1DBC JUMP JUMPDEST STOP JUMPDEST CALLVALUE DUP1 ISZERO PUSH2 0x49A JUMPI PUSH0 DUP1 REVERT JUMPDEST POP PUSH2 0x4B5 PUSH1 0x4 DUP1 CALLDATASIZE SUB DUP2 ADD SWAP1 PUSH2 0x4B0 SWAP2 SWAP1 PUSH2 0x3C2E JUMP JUMPDEST PUSH2 0x1E70 JUMP JUMPDEST PUSH1 0x40 MLOAD PUSH2 0x4C4 SWAP4 SWAP3 SWAP2 SWAP1 PUSH2 0x3D9A JUMP JUMPDEST PUSH1 0x40 MLOAD DUP1 SWAP2 SUB SWAP1 RETURN JUMPDEST CALLVALUE DUP1 ISZERO PUSH2 0x4D8 JUMPI PUSH0 DUP1 REVERT JUMPDEST POP PUSH2 0x4F3 PUSH1 0x4 DUP1 CALLDATASIZE SUB DUP2 ADD SWAP1 PUSH2 0x4EE SWAP2 SWAP1 PUSH2 0x3C2E JUMP JUMPDEST PUSH2 0x1EE9 JUMP JUMPDEST PUSH1 0x40 MLOAD PUSH2 0x500 SWAP2 SWAP1 PUSH2 0x3BEB JUMP JUMPDEST PUSH1 0x40 MLOAD DUP1 SWAP2 SUB SWAP1 RETURN JUMPDEST CALLVALUE DUP1 ISZERO PUSH2 0x514 JUMPI PUSH0 DUP1 REVERT JUMPDEST POP PUSH2 0x52F PUSH1 0x4 DUP1 CALLDATASIZE SUB DUP2 ADD SWAP1 PUSH2 0x52A SWAP2 SWAP1 PUSH2 0x3DCF JUMP JUMPDEST PUSH2 0x1F06 JUMP JUMPDEST PUSH1 0x40 MLOAD PUSH2 0x53C SWAP2 SWAP1 PUSH2 0x3C59 JUMP JUMPDEST PUSH1 0x40 MLOAD DUP1 SWAP2 SUB SWAP1 RETURN JUMPDEST CALLVALUE DUP1 ISZERO PUSH2 0x550 JUMPI PUSH0 DUP1 REVERT JUMPDEST POP PUSH2 0x559 PUSH2 0x1F26 JUMP JUMPDEST PUSH1 0x40 MLOAD PUSH2 0x566 SWAP2 SWAP1 PUSH2 0x3E97 JUMP JUMPDEST PUSH1 0x40 MLOAD DUP1 SWAP2 SUB SWAP1 RETURN JUMPDEST CALLVALUE DUP1 ISZERO PUSH2 0x57A JUMPI PUSH0 DUP1 REVERT JUMPDEST POP PUSH2 0x583 PUSH2 0x1F63 JUMP JUMPDEST PUSH1 0x40 MLOAD PUSH2 0x590 SWAP2 SWAP1 PUSH2 0x3EB7 JUMP JUMPDEST PUSH1 0x40 MLOAD DUP1 SWAP2 SUB SWAP1 RETURN JUMPDEST CALLVALUE DUP1 ISZERO PUSH2 0x5A4 JUMPI PUSH0 DUP1 REVERT JUMPDEST POP PUSH2 0x5BF PUSH1 0x4 DUP1 CALLDATASIZE SUB DUP2 ADD SWAP1 PUSH2 0x5BA SWAP2 SWAP1 PUSH2 0x3C2E JUMP JUMPDEST PUSH2 0x1F88 JUMP JUMPDEST PUSH1 0x40 MLOAD PUSH2 0x5CF SWAP5 SWAP4 SWAP3 SWAP2 SWAP1 PUSH2 0x3ED0 JUMP JUMPDEST PUSH1 0x40 MLOAD DUP1 SWAP2 SUB SWAP1 RETURN JUMPDEST CALLVALUE DUP1 ISZERO PUSH2 0x5E3 JUMPI PUSH0 DUP1 REVERT JUMPDEST POP PUSH2 0x5EC PUSH2 0x1FCE JUMP JUMPDEST PUSH1 0x40 MLOAD PUSH2 0x5F9 SWAP2 SWAP1 PUSH2 0x3C59 JUMP JUMPDEST PUSH1 0x40 MLOAD DUP1 SWAP2 SUB SWAP1 RETURN JUMPDEST CALLVALUE DUP1 ISZERO PUSH2 0x60D JUMPI PUSH0 DUP1 REVERT JUMPDEST POP PUSH2 0x616 PUSH2 0x1FD4 JUMP JUMPDEST PUSH1 0x40 MLOAD PUSH2 0x623 SWAP2 SWAP1 PUSH2 0x3C59 JUMP JUMPDEST PUSH1 0x40 MLOAD DUP1 SWAP2 SUB SWAP1 RETURN JUMPDEST CALLVALUE DUP1 ISZERO PUSH2 0x637 JUMPI PUSH0 DUP1 REVERT JUMPDEST POP PUSH2 0x652 PUSH1 0x4 DUP1 CALLDATASIZE SUB DUP2 ADD SWAP1 PUSH2 0x64D SWAP2 SWAP1 PUSH2 0x3F3D JUMP JUMPDEST PUSH2 0x1FDA JUMP JUMPDEST STOP JUMPDEST CALLVALUE DUP1 ISZERO PUSH2 0x65F JUMPI PUSH0 DUP1 REVERT JUMPDEST POP PUSH2 0x67A PUSH1 0x4 DUP1 CALLDATASIZE SUB DUP2 ADD SWAP1 PUSH2 0x675 SWAP2 SWAP1 PUSH2 0x3C2E JUMP JUMPDEST PUSH2 0x25D5 JUMP JUMPDEST PUSH1 0x40 MLOAD PUSH2 0x68C SWAP7 SWAP6 SWAP5 SWAP4 SWAP3 SWAP2 SWAP1 PUSH2 0x3F8D JUMP JUMPDEST PUSH1 0x40 MLOAD DUP1 SWAP2 SUB SWAP1 RETURN JUMPDEST CALLVALUE DUP1 ISZERO PUSH2 0x6A0 JUMPI PUSH0 DUP1 REVERT JUMPDEST POP PUSH2 0x6BB PUSH1 0x4 DUP1 CALLDATASIZE SUB DUP2 ADD SWAP1 PUSH2 0x6B6 SWAP2 SWAP1 PUSH2 0x3C2E JUMP JUMPDEST PUSH2 0x2625 JUMP JUMPDEST STOP JUMPDEST CALLVALUE DUP1 ISZERO PUSH2 0x6C8 JUMPI PUSH0 DUP1 REVERT JUMPDEST POP PUSH2 0x6E3 PUSH1 0x4 DUP1 CALLDATASIZE SUB DUP2 ADD SWAP1 PUSH2 0x6DE SWAP2 SWAP1 PUSH2 0x3DCF JUMP JUMPDEST PUSH2 0x26E3 JUMP JUMPDEST PUSH1 0x40 MLOAD PUSH2 0x6F2 SWAP4 SWAP3 SWAP2 SWAP1 PUSH2 0x3FEC JUMP JUMPDEST PUSH1 0x40 MLOAD DUP1 SWAP2 SUB SWAP1 RETURN JUMPDEST CALLVALUE DUP1 ISZERO PUSH2 0x706 JUMPI PUSH0 DUP1 REVERT JUMPDEST POP PUSH2 0x721 PUSH1 0x4 DUP1 CALLDATASIZE SUB DUP2 ADD SWAP1 PUSH2 0x71C SWAP2 SWAP1 PUSH2 0x3A14 JUMP JUMPDEST PUSH2 0x2732 JUMP JUMPDEST PUSH1 0x40 MLOAD PUSH2 0x72E SWAP2 SWAP1 PUSH2 0x40EE JUMP JUMPDEST PUSH1 0x40 MLOAD DUP1 SWAP2 SUB SWAP1 RETURN JUMPDEST CALLVALUE DUP1 ISZERO PUSH2 0x742 JUMPI PUSH0 DUP1 REVERT JUMPDEST POP PUSH2 0x75D PUSH1 0x4 DUP1 CALLDATASIZE SUB DUP2 ADD SWAP1 PUSH2 0x758 SWAP2 SWAP1 PUSH2 0x3DCF JUMP JUMPDEST PUSH2 0x27F6 JUMP JUMPDEST PUSH1 0x40 MLOAD PUSH2 0x770 SWAP8 SWAP7 SWAP6 SWAP5 SWAP4 SWAP3 SWAP2 SWAP1 PUSH2 0x4108 JUMP JUMPDEST PUSH1 0x40 MLOAD DUP1 SWAP2 SUB SWAP1 RETURN JUMPDEST CALLVALUE DUP1 ISZERO PUSH2 0x784 JUMPI PUSH0 DUP1 REVERT JUMPDEST POP PUSH2 0x78D PUSH2 0x284B JUMP JUMPDEST PUSH1 0x40 MLOAD PUSH2 0x79A SWAP2 SWAP1 PUSH2 0x3C59 JUMP JUMPDEST PUSH1 0x40 MLOAD DUP1 SWAP2 SUB SWAP1 RETURN JUMPDEST CALLVALUE DUP1 ISZERO PUSH2 0x7AE JUMPI PUSH0 DUP1 REVERT JUMPDEST POP PUSH2 0x7C9 PUSH1 0x4 DUP1 CALLDATASIZE SUB DUP2 ADD SWAP1 PUSH2 0x7C4 SWAP2 SWAP1 PUSH2 0x4175 JUMP JUMPDEST PUSH2 0x2851 JUMP JUMPDEST STOP JUMPDEST CALLVALUE DUP1 ISZERO PUSH2 0x7D6 JUMPI PUSH0 DUP1 REVERT JUMPDEST POP PUSH2 0x7F1 PUSH1 0x4 DUP1 CALLDATASIZE SUB DUP2 ADD SWAP1 PUSH2 0x7EC SWAP2 SWAP1 PUSH2 0x3A14 JUMP JUMPDEST PUSH2 0x2B5E JUMP JUMPDEST PUSH1 0x40 MLOAD PUSH2 0x7FE SWAP2 SWAP1 PUSH2 0x3BEB JUMP JUMPDEST PUSH1 0x40 MLOAD DUP1 SWAP2 SUB SWAP1 RETURN JUMPDEST CALLVALUE DUP1 ISZERO PUSH2 0x812 JUMPI PUSH0 DUP1 REVERT JUMPDEST POP PUSH2 0x82D PUSH1 0x4 DUP1 CALLDATASIZE SUB DUP2 ADD SWAP1 PUSH2 0x828 SWAP2 SWAP1 PUSH2 0x41D9 JUMP JUMPDEST PUSH2 0x2B7B JUMP JUMPDEST PUSH1 0x40 MLOAD PUSH2 0x83D SWAP5 SWAP4 SWAP3 SWAP2 SWAP1 PUSH2 0x4217 JUMP JUMPDEST PUSH1 0x40 MLOAD DUP1 SWAP2 SUB SWAP1 RETURN JUMPDEST CALLVALUE DUP1 ISZERO PUSH2 0x851 JUMPI PUSH0 DUP1 REVERT JUMPDEST POP PUSH2 0x85A PUSH2 0x2BF9 JUMP JUMPDEST PUSH1 0x40 MLOAD PUSH2 0x867 SWAP2 SWAP1 PUSH2 0x3C59 JUMP JUMPDEST PUSH1 0x40 MLOAD DUP1 SWAP2 SUB SWAP1 RETURN JUMPDEST CALLVALUE DUP1 ISZERO PUSH2 0x87B JUMPI PUSH0 DUP1 REVERT JUMPDEST POP PUSH2 0x896 PUSH1 0x4 DUP1 CALLDATASIZE SUB DUP2 ADD SWAP1 PUSH2 0x891 SWAP2 SWAP1 PUSH2 0x3A14 JUMP JUMPDEST PUSH2 0x2C04 JUMP JUMPDEST PUSH1 0x40 MLOAD PUSH2 0x8A3 SWAP2 SWAP1 PUSH2 0x3C59 JUMP JUMPDEST PUSH1 0x40 MLOAD DUP1 SWAP2 SUB SWAP1 RETURN JUMPDEST CALLVALUE DUP1 ISZERO PUSH2 0x8B7 JUMPI PUSH0 DUP1 REVERT JUMPDEST POP PUSH2 0x8C0 PUSH2 0x2C19 JUMP JUMPDEST PUSH1 0x40 MLOAD PUSH2 0x8CD SWAP2 SWAP1 PUSH2 0x3C59 JUMP JUMPDEST PUSH1 0x40 MLOAD DUP1 SWAP2 SUB SWAP1 RETURN JUMPDEST CALLVALUE DUP1 ISZERO PUSH2 0x8E1 JUMPI PUSH0 DUP1 REVERT JUMPDEST POP PUSH2 0x8FC PUSH1 0x4 DUP1 CALLDATASIZE SUB DUP2 ADD SWAP1 PUSH2 0x8F7 SWAP2 SWAP1 PUSH2 0x3CF8 JUMP JUMPDEST PUSH2 0x2C1F JUMP JUMPDEST PUSH1 0x40 MLOAD PUSH2 0x909 SWAP2 SWAP1 PUSH2 0x3BEB JUMP JUMPDEST PUSH1 0x40 MLOAD DUP1 SWAP2 SUB SWAP1 RETURN JUMPDEST CALLVALUE DUP1 ISZERO PUSH2 0x91D JUMPI PUSH0 DUP1 REVERT JUMPDEST POP PUSH2 0x938 PUSH1 0x4 DUP1 CALLDATASIZE SUB DUP2 ADD SWAP1 PUSH2 0x933 SWAP2 SWAP1 PUSH2 0x43BB JUMP JUMPDEST PUSH2 0x2C82 JUMP JUMPDEST PUSH1 0x40 MLOAD PUSH2 0x945 SWAP2 SWAP1 PUSH2 0x3C59 JUMP JUMPDEST PUSH1 0x40 MLOAD DUP1 SWAP2 SUB SWAP1 RETURN JUMPDEST CALLVALUE DUP1 ISZERO PUSH2 0x959 JUMPI PUSH0 DUP1 REVERT JUMPDEST POP PUSH2 0x962 PUSH2 0x2FEF JUMP JUMPDEST STOP JUMPDEST CALLVALUE DUP1 ISZERO PUSH2 0x96F JUMPI PUSH0 DUP1 REVERT JUMPDEST POP PUSH2 0x978 PUSH2 0x3049 JUMP JUMPDEST PUSH1 0x40 MLOAD PUSH2 0x985 SWAP2 SWAP1 PUSH2 0x3CDF JUMP JUMPDEST PUSH1 0x40 MLOAD DUP1 SWAP2 SUB SWAP1 RETURN JUMPDEST CALLVALUE DUP1 ISZERO PUSH2 0x999 JUMPI PUSH0 DUP1 REVERT JUMPDEST POP PUSH2 0x9B4 PUSH1 0x4 DUP1 CALLDATASIZE SUB DUP2 ADD SWAP1 PUSH2 0x9AF SWAP2 SWAP1 PUSH2 0x440B JUMP JUMPDEST PUSH2 0x304F JUMP JUMPDEST PUSH1 0x40 MLOAD PUSH2 0x9C1 SWAP2 SWAP1 PUSH2 0x3BEB JUMP JUMPDEST PUSH1 0x40 MLOAD DUP1 SWAP2 SUB SWAP1 RETURN JUMPDEST CALLVALUE DUP1 ISZERO PUSH2 0x9D5 JUMPI PUSH0 DUP1 REVERT JUMPDEST POP PUSH2 0x9F0 PUSH1 0x4 DUP1 CALLDATASIZE SUB DUP2 ADD SWAP1 PUSH2 0x9EB SWAP2 SWAP1 PUSH2 0x3A14 JUMP JUMPDEST PUSH2 0x3079 JUMP JUMPDEST PUSH1 0x40 MLOAD PUSH2 0xA00 SWAP5 SWAP4 SWAP3 SWAP2 SWAP1 PUSH2 0x4449 JUMP JUMPDEST PUSH1 0x40 MLOAD DUP1 SWAP2 SUB SWAP1 RETURN JUMPDEST CALLVALUE DUP1 ISZERO PUSH2 0xA14 JUMPI PUSH0 DUP1 REVERT JUMPDEST POP PUSH2 0xA1D PUSH2 0x30A5 JUMP JUMPDEST PUSH1 0x40 MLOAD PUSH2 0xA2A SWAP2 SWAP1 PUSH2 0x3C59 JUMP JUMPDEST PUSH1 0x40 MLOAD DUP1 SWAP2 SUB SWAP1 RETURN JUMPDEST CALLVALUE DUP1 ISZERO PUSH2 0xA3E JUMPI PUSH0 DUP1 REVERT JUMPDEST POP PUSH2 0xA59 PUSH1 0x4 DUP1 CALLDATASIZE SUB DUP2 ADD SWAP1 PUSH2 0xA54 SWAP2 SWAP1 PUSH2 0x448C JUMP JUMPDEST PUSH2 0x30AB JUMP JUMPDEST STOP JUMPDEST CALLVALUE DUP1 ISZERO PUSH2 0xA66 JUMPI PUSH0 DUP1 REVERT JUMPDEST POP PUSH2 0xA81 PUSH1 0x4 DUP1 CALLDATASIZE SUB DUP2 ADD SWAP1 PUSH2 0xA7C SWAP2 SWAP1 PUSH2 0x3A14 JUMP JUMPDEST PUSH2 0x3157 JUMP JUMPDEST PUSH1 0x40 MLOAD PUSH2 0xA94 SWAP8 SWAP7 SWAP6 SWAP5 SWAP4 SWAP3 SWAP2 SWAP1 PUSH2 0x4503 JUMP JUMPDEST PUSH1 0x40 MLOAD DUP1 SWAP2 SUB SWAP1 RETURN JUMPDEST CALLVALUE DUP1 ISZERO PUSH2 0xAA8 JUMPI PUSH0 DUP1 REVERT JUMPDEST POP PUSH2 0xAC3 PUSH1 0x4 DUP1 CALLDATASIZE SUB DUP2 ADD SWAP1 PUSH2 0xABE SWAP2 SWAP1 PUSH2 0x459A JUMP JUMPDEST PUSH2 0x31C0 JUMP JUMPDEST STOP JUMPDEST CALLVALUE DUP1 ISZERO PUSH2 0xAD0 JUMPI PUSH0 DUP1 REVERT JUMPDEST POP PUSH2 0xAEB PUSH1 0x4 DUP1 CALLDATASIZE SUB DUP2 ADD SWAP1 PUSH2 0xAE6 SWAP2 SWAP1 PUSH2 0x3CF8 JUMP JUMPDEST PUSH2 0x3338 JUMP JUMPDEST STOP JUMPDEST CALLVALUE DUP1 ISZERO PUSH2 0xAF8 JUMPI PUSH0 DUP1 REVERT JUMPDEST POP PUSH2 0xB01 PUSH2 0x335A JUMP JUMPDEST PUSH1 0x40 MLOAD PUSH2 0xB0E SWAP2 SWAP1 PUSH2 0x3C59 JUMP JUMPDEST PUSH1 0x40 MLOAD DUP1 SWAP2 SUB SWAP1 RETURN JUMPDEST CALLVALUE DUP1 ISZERO PUSH2 0xB22 JUMPI PUSH0 DUP1 REVERT JUMPDEST POP PUSH2 0xB3D PUSH1 0x4 DUP1 CALLDATASIZE SUB DUP2 ADD SWAP1 PUSH2 0xB38 SWAP2 SWAP1 PUSH2 0x3C2E JUMP JUMPDEST PUSH2 0x3360 JUMP JUMPDEST PUSH1 0x40 MLOAD PUSH2 0xB4A SWAP2 SWAP1 PUSH2 0x3C59 JUMP JUMPDEST PUSH1 0x40 MLOAD DUP1 SWAP2 SUB SWAP1 RETURN JUMPDEST CALLVALUE DUP1 ISZERO PUSH2 0xB5E JUMPI PUSH0 DUP1 REVERT JUMPDEST POP PUSH2 0xB79 PUSH1 0x4 DUP1 CALLDATASIZE SUB DUP2 ADD SWAP1 PUSH2 0xB74 SWAP2 SWAP1 PUSH2 0x3A14 JUMP JUMPDEST PUSH2 0x3375 JUMP JUMPDEST PUSH1 0x40 MLOAD PUSH2 0xB86 SWAP2 SWAP1 PUSH2 0x45D8 JUMP JUMPDEST PUSH1 0x40 MLOAD DUP1 SWAP2 SUB SWAP1 RETURN JUMPDEST CALLVALUE DUP1 ISZERO PUSH2 0xB9A JUMPI PUSH0 DUP1 REVERT JUMPDEST POP PUSH2 0xBB5 PUSH1 0x4 DUP1 CALLDATASIZE SUB DUP2 ADD SWAP1 PUSH2 0xBB0 SWAP2 SWAP1 PUSH2 0x41D9 JUMP JUMPDEST PUSH2 0x3392 JUMP JUMPDEST STOP JUMPDEST CALLVALUE DUP1 ISZERO PUSH2 0xBC2 JUMPI PUSH0 DUP1 REVERT JUMPDEST POP PUSH2 0xBCB PUSH2 0x33D8 JUMP JUMPDEST PUSH1 0x40 MLOAD PUSH2 0xBD8 SWAP2 SWAP1 PUSH2 0x464C JUMP JUMPDEST PUSH1 0x40 MLOAD DUP1 SWAP2 SUB SWAP1 RETURN JUMPDEST CALLVALUE DUP1 ISZERO PUSH2 0xBEC JUMPI PUSH0 DUP1 REVERT JUMPDEST POP PUSH2 0xC07 PUSH1 0x4 DUP1 CALLDATASIZE SUB DUP2 ADD SWAP1 PUSH2 0xC02 SWAP2 SWAP1 PUSH2 0x4665 JUMP JUMPDEST PUSH2 0x33FC JUMP JUMPDEST PUSH1 0x40 MLOAD PUSH2 0xC14 SWAP2 SWAP1 PUSH2 0x3C59 JUMP JUMPDEST PUSH1 0x40 MLOAD DUP1 SWAP2 SUB SWAP1 RETURN JUMPDEST CALLVALUE DUP1 ISZERO PUSH2 0xC28 JUMPI PUSH0 DUP1 REVERT JUMPDEST POP PUSH2 0xC43 PUSH1 0x4 DUP1 CALLDATASIZE SUB DUP2 ADD SWAP1 PUSH2 0xC3E SWAP2 SWAP1 PUSH2 0x3C2E JUMP JUMPDEST PUSH2 0x357F JUMP JUMPDEST PUSH1 0x40 MLOAD PUSH2 0xC50 SWAP2 SWAP1 PUSH2 0x3C59 JUMP JUMPDEST PUSH1 0x40 MLOAD DUP1 SWAP2 SUB SWAP1 RETURN JUMPDEST PUSH1 0x3 PUSH1 0x20 MSTORE DUP1 PUSH0 MSTORE PUSH1 0x40 PUSH0 KECCAK256 PUSH0 SWAP2 POP SWAP1 POP DUP1 PUSH0 ADD SLOAD SWAP1 DUP1 PUSH1 0x1 ADD PUSH0 SWAP1 SLOAD SWAP1 PUSH2 0x100 EXP SWAP1 DIV PUSH20 0xFFFFFFFFFFFFFFFFFFFFFFFFFFFFFFFFFFFFFFFF AND SWAP1 DUP1 PUSH1 0x2 ADD SLOAD SWAP1 DUP1 PUSH1 0x3 ADD SLOAD SWAP1 DUP1 PUSH1 0x4 ADD SLOAD SWAP1 DUP1 PUSH1 0x5 ADD SLOAD SWAP1 DUP1 PUSH1 0x6 ADD SLOAD SWAP1 DUP1 PUSH1 0x7 ADD PUSH0 SWAP1 SLOAD SWAP1 PUSH2 0x100 EXP SWAP1 DIV PUSH1 0xFF AND SWAP1 DUP1 PUSH1 0x7 ADD PUSH1 0x1 SWAP1 SLOAD SWAP1 PUSH2 0x100 EXP SWAP1 DIV PUSH1 0xFF AND SWAP1 DUP1 PUSH1 0x7 ADD PUSH1 0x2 SWAP1 SLOAD SWAP1 PUSH2 0x100 EXP SWAP1 DIV PUSH1 0xFF AND SWAP1 DUP1 PUSH1 0x8 ADD SLOAD SWAP1 POP DUP12 JUMP JUMPDEST PUSH0 PUSH32 0x7965DB0B00000000000000000000000000000000000000000000000000000000 PUSH28 0xFFFFFFFFFFFFFFFFFFFFFFFFFFFFFFFFFFFFFFFFFFFFFFFFFFFFFFFF NOT AND DUP3 PUSH28 0xFFFFFFFFFFFFFFFFFFFFFFFFFFFFFFFFFFFFFFFFFFFFFFFFFFFFFFFF NOT AND EQ DUP1 PUSH2 0xD66 JUMPI POP PUSH2 0xD65 DUP3 PUSH2 0x3594 JUMP JUMPDEST JUMPDEST SWAP1 POP SWAP2 SWAP1 POP JUMP JUMPDEST PUSH2 0xD75 PUSH2 0x35FD JUMP JUMPDEST PUSH1 0xF SLOAD DUP2 GT ISZERO PUSH2 0xDBA JUMPI PUSH1 0x40 MLOAD PUSH32 0x8C379A000000000000000000000000000000000000000000000000000000000 DUP2 MSTORE PUSH1 0x4 ADD PUSH2 0xDB1 SWAP1 PUSH2 0x4713 JUMP JUMPDEST PUSH1 0x40 MLOAD DUP1 SWAP2 SUB SWAP1 REVERT JUMPDEST PUSH0 PUSH1 0x3 PUSH0 DUP4 DUP2 MSTORE PUSH1 0x20 ADD SWAP1 DUP2 MSTORE PUSH1 0x20 ADD PUSH0 KECCAK256 SWAP1 POP DUP1 PUSH1 0x7 ADD PUSH1 0x2 SWAP1 SLOAD SWAP1 PUSH2 0x100 EXP SWAP1 DIV PUSH1 0xFF AND ISZERO PUSH2 0xE20 JUMPI PUSH1 0x40 MLOAD PUSH32 0x8C379A000000000000000000000000000000000000000000000000000000000 DUP2 MSTORE PUSH1 0x4 ADD PUSH2 0xE17 SWAP1 PUSH2 0x477B JUMP JUMPDEST PUSH1 0x40 MLOAD DUP1 SWAP2 SUB SWAP1 REVERT JUMPDEST PUSH1 0x4 PUSH0 DUP4 DUP2 MSTORE PUSH1 0x20 ADD SWAP1 DUP2 MSTORE PUSH1 0x20 ADD PUSH0 KECCAK256 PUSH0 SWAP1 SLOAD SWAP1 PUSH2 0x100 EXP SWAP1 DIV PUSH1 0xFF AND ISZERO PUSH2 0xE7E JUMPI PUSH1 0x40 MLOAD PUSH32 0x8C379A000000000000000000000000000000000000000000000000000000000 DUP2 MSTORE PUSH1 0x4 ADD PUSH2 0xE75 SWAP1 PUSH2 0x47E3 JUMP JUMPDEST PUSH1 0x40 MLOAD DUP1 SWAP2 SUB SWAP1 REVERT JUMPDEST DUP1 PUSH1 0x3 ADD SLOAD PUSH1 0x10 SLOAD GT PUSH2 0xEC6 JUMPI PUSH1 0x40 MLOAD PUSH32 0x8C379A000000000000000000000000000000000000000000000000000000000 DUP2 MSTORE PUSH1 0x4 ADD PUSH2 0xEBD SWAP1 PUSH2 0x484B JUMP JUMPDEST PUSH1 0x40 MLOAD DUP1 SWAP2 SUB SWAP1 REVERT JUMPDEST PUSH1 0x1 DUP2 PUSH1 0x7 ADD PUSH1 0x2 PUSH2 0x100 EXP DUP2 SLOAD DUP2 PUSH1 0xFF MUL NOT AND SWAP1 DUP4 ISZERO ISZERO MUL OR SWAP1 SSTORE POP CALLER PUSH20 0xFFFFFFFFFFFFFFFFFFFFFFFFFFFFFFFFFFFFFFFF AND DUP3 PUSH32 0x68AB678DB8D2AC30ADE450D2F61B71D192FB3940BF122FB1748C4D0B4D1D68FA TIMESTAMP DUP5 PUSH1 0x4 ADD SLOAD DUP6 PUSH1 0x5 ADD SLOAD PUSH1 0x40 MLOAD PUSH2 0xF36 SWAP4 SWAP3 SWAP2 SWAP1 PUSH2 0x4869 JUMP JUMPDEST PUSH1 0x40 MLOAD DUP1 SWAP2 SUB SWAP1 LOG3 POP PUSH2 0xF47 PUSH2 0x364C JUMP JUMPDEST POP JUMP JUMPDEST PUSH1 0xD PUSH1 0x20 MSTORE DUP1 PUSH0 MSTORE PUSH1 0x40 PUSH0 KECCAK256 PUSH0 SWAP2 POP SWAP1 POP SLOAD DUP2 JUMP JUMPDEST PUSH0 DUP1 PUSH0 DUP4 DUP2 MSTORE PUSH1 0x20 ADD SWAP1 DUP2 MSTORE PUSH1 0x20 ADD PUSH0 KECCAK256 PUSH1 0x1 ADD SLOAD SWAP1 POP SWAP2 SWAP1 POP JUMP JUMPDEST PUSH1 0x8 PUSH0 CALLER PUSH20 0xFFFFFFFFFFFFFFFFFFFFFFFFFFFFFFFFFFFFFFFF AND PUSH20 0xFFFFFFFFFFFFFFFFFFFFFFFFFFFFFFFFFFFFFFFF AND DUP2 MSTORE PUSH1 0x20 ADD SWAP1 DUP2 MSTORE PUSH1 0x20 ADD PUSH0 KECCAK256 PUSH0 SWAP1 SLOAD SWAP1 PUSH2 0x100 EXP SWAP1 DIV PUSH1 0xFF AND PUSH2 0x1004 JUMPI PUSH1 0x40 MLOAD PUSH32 0x8C379A000000000000000000000000000000000000000000000000000000000 DUP2 MSTORE PUSH1 0x4 ADD PUSH2 0xFFB SWAP1 PUSH2 0x48E8 JUMP JUMPDEST PUSH1 0x40 MLOAD DUP1 SWAP2 SUB SWAP1 REVERT JUMPDEST PUSH1 0x8 PUSH0 DUP3 PUSH20 0xFFFFFFFFFFFFFFFFFFFFFFFFFFFFFFFFFFFFFFFF AND PUSH20 0xFFFFFFFFFFFFFFFFFFFFFFFFFFFFFFFFFFFFFFFF AND DUP2 MSTORE PUSH1 0x20 ADD SWAP1 DUP2 MSTORE PUSH1 0x20 ADD PUSH0 KECCAK256 PUSH0 SWAP1 SLOAD SWAP1 PUSH2 0x100 EXP SWAP1 DIV PUSH1 0xFF AND PUSH2 0x108D JUMPI PUSH1 0x40 MLOAD PUSH32 0x8C379A000000000000000000000000000000000000000000000000000000000 DUP2 MSTORE PUSH1 0x4 ADD PUSH2 0x1084 SWAP1 PUSH2 0x4950 JUMP JUMPDEST PUSH1 0x40 MLOAD DUP1 SWAP2 SUB SWAP1 REVERT JUMPDEST PUSH1 0x16 PUSH0 CALLER PUSH20 0xFFFFFFFFFFFFFFFFFFFFFFFFFFFFFFFFFFFFFFFF AND PUSH20 0xFFFFFFFFFFFFFFFFFFFFFFFFFFFFFFFFFFFFFFFF AND DUP2 MSTORE PUSH1 0x20 ADD SWAP1 DUP2 MSTORE PUSH1 0x20 ADD PUSH0 KECCAK256 PUSH0 DUP3 PUSH20 0xFFFFFFFFFFFFFFFFFFFFFFFFFFFFFFFFFFFFFFFF AND PUSH20 0xFFFFFFFFFFFFFFFFFFFFFFFFFFFFFFFFFFFFFFFF AND DUP2 MSTORE PUSH1 0x20 ADD SWAP1 DUP2 MSTORE PUSH1 0x20 ADD PUSH0 KECCAK256 PUSH0 SWAP1 SLOAD SWAP1 PUSH2 0x100 EXP SWAP1 DIV PUSH1 0xFF AND ISZERO PUSH2 0x1152 JUMPI PUSH1 0x40 MLOAD PUSH32 0x8C379A000000000000000000000000000000000000000000000000000000000 DUP2 MSTORE PUSH1 0x4 ADD PUSH2 0x1149 SWAP1 PUSH2 0x49B8 JUMP JUMPDEST PUSH1 0x40 MLOAD DUP1 SWAP2 SUB SWAP1 REVERT JUMPDEST DUP1 PUSH20 0xFFFFFFFFFFFFFFFFFFFFFFFFFFFFFFFFFFFFFFFF AND CALLER PUSH20 0xFFFFFFFFFFFFFFFFFFFFFFFFFFFFFFFFFFFFFFFF AND SUB PUSH2 0x11C0 JUMPI PUSH1 0x40 MLOAD PUSH32 0x8C379A000000000000000000000000000000000000000000000000000000000 DUP2 MSTORE PUSH1 0x4 ADD PUSH2 0x11B7 SWAP1 PUSH2 0x4A20 JUMP JUMPDEST PUSH1 0x40 MLOAD DUP1 SWAP2 SUB SWAP1 REVERT JUMPDEST PUSH0 PUSH1 0x15 PUSH0 DUP4 PUSH20 0xFFFFFFFFFFFFFFFFFFFFFFFFFFFFFFFFFFFFFFFF AND PUSH20 0xFFFFFFFFFFFFFFFFFFFFFFFFFFFFFFFFFFFFFFFF AND DUP2 MSTORE PUSH1 0x20 ADD SWAP1 DUP2 MSTORE PUSH1 0x20 ADD PUSH0 KECCAK256 SWAP1 POP DUP1 PUSH1 0x3 ADD PUSH0 SWAP1 SLOAD SWAP1 PUSH2 0x100 EXP SWAP1 DIV PUSH1 0xFF AND ISZERO PUSH2 0x1251 JUMPI PUSH1 0x40 MLOAD PUSH32 0x8C379A000000000000000000000000000000000000000000000000000000000 DUP2 MSTORE PUSH1 0x4 ADD PUSH2 0x1248 SWAP1 PUSH2 0x4A88 JUMP JUMPDEST PUSH1 0x40 MLOAD DUP1 SWAP2 SUB SWAP1 REVERT JUMPDEST DUP1 PUSH1 0x3 ADD PUSH1 0x1 SWAP1 SLOAD SWAP1 PUSH2 0x100 EXP SWAP1 DIV PUSH1 0xFF AND ISZERO PUSH2 0x12A3 JUMPI PUSH1 0x40 MLOAD PUSH32 0x8C379A000000000000000000000000000000000000000000000000000000000 DUP2 MSTORE PUSH1 0x4 ADD PUSH2 0x129A SWAP1 PUSH2 0x4AF0 JUMP JUMPDEST PUSH1 0x40 MLOAD DUP1 SWAP2 SUB SWAP1 REVERT JUMPDEST PUSH1 0x6 DUP2 PUSH1 0x1 ADD SLOAD LT PUSH2 0x12EA JUMPI PUSH1 0x40 MLOAD PUSH32 0x8C379A000000000000000000000000000000000000000000000000000000000 DUP2 MSTORE PUSH1 0x4 ADD PUSH2 0x12E1 SWAP1 PUSH2 0x4B58 JUMP JUMPDEST PUSH1 0x40 MLOAD DUP1 SWAP2 SUB SWAP1 REVERT JUMPDEST DUP1 PUSH0 ADD CALLER SWAP1 DUP1 PUSH1 0x1 DUP2 SLOAD ADD DUP1 DUP3 SSTORE DUP1 SWAP2 POP POP PUSH1 0x1 SWAP1 SUB SWAP1 PUSH0 MSTORE PUSH1 0x20 PUSH0 KECCAK256 ADD PUSH0 SWAP1 SWAP2 SWAP1 SWAP2 SWAP1 SWAP2 PUSH2 0x100 EXP DUP2 SLOAD DUP2 PUSH20 0xFFFFFFFFFFFFFFFFFFFFFFFFFFFFFFFFFFFFFFFF MUL NOT AND SWAP1 DUP4 PUSH20 0xFFFFFFFFFFFFFFFFFFFFFFFFFFFFFFFFFFFFFFFF AND MUL OR SWAP1 SSTORE POP DUP1 PUSH1 0x1 ADD PUSH0 DUP2 SLOAD DUP1 SWAP3 SWAP2 SWAP1 PUSH2 0x135F SWAP1 PUSH2 0x4BA3 JUMP JUMPDEST SWAP2 SWAP1 POP SSTORE POP PUSH1 0x1 PUSH1 0x16 PUSH0 CALLER PUSH20 0xFFFFFFFFFFFFFFFFFFFFFFFFFFFFFFFFFFFFFFFF AND PUSH20 0xFFFFFFFFFFFFFFFFFFFFFFFFFFFFFFFFFFFFFFFF AND DUP2 MSTORE PUSH1 0x20 ADD SWAP1 DUP2 MSTORE PUSH1 0x20 ADD PUSH0 KECCAK256 PUSH0 DUP5 PUSH20 0xFFFFFFFFFFFFFFFFFFFFFFFFFFFFFFFFFFFFFFFF AND PUSH20 0xFFFFFFFFFFFFFFFFFFFFFFFFFFFFFFFFFFFFFFFF AND DUP2 MSTORE PUSH1 0x20 ADD SWAP1 DUP2 MSTORE PUSH1 0x20 ADD PUSH0 KECCAK256 PUSH0 PUSH2 0x100 EXP DUP2 SLOAD DUP2 PUSH1 0xFF MUL NOT AND SWAP1 DUP4 ISZERO ISZERO MUL OR SWAP1 SSTORE POP PUSH1 0x6 DUP2 PUSH1 0x1 ADD SLOAD SUB PUSH2 0x141E JUMPI PUSH1 0x1 DUP2 PUSH1 0x3 ADD PUSH1 0x1 PUSH2 0x100 EXP DUP2 SLOAD DUP2 PUSH1 0xFF MUL NOT AND SWAP1 DUP4 ISZERO ISZERO MUL OR SWAP1 SSTORE POP JUMPDEST DUP2 PUSH20 0xFFFFFFFFFFFFFFFFFFFFFFFFFFFFFFFFFFFFFFFF AND CALLER PUSH20 0xFFFFFFFFFFFFFFFFFFFFFFFFFFFFFFFFFFFFFFFF AND PUSH32 0x21C7331A96D9F58D8F980C8522D0A71DF5BC401179192F4B2A9A4B5D2D6D2FE2 DUP4 PUSH1 0x1 ADD SLOAD PUSH1 0x40 MLOAD PUSH2 0x147F SWAP2 SWAP1 PUSH2 0x3C59 JUMP JUMPDEST PUSH1 0x40 MLOAD DUP1 SWAP2 SUB SWAP1 LOG3 POP POP JUMP JUMPDEST PUSH2 0x1494 DUP3 PUSH2 0xF5F JUMP JUMPDEST PUSH2 0x149D DUP2 PUSH2 0x3655 JUMP JUMPDEST PUSH2 0x14A7 DUP4 DUP4 PUSH2 0x3669 JUMP JUMPDEST POP POP POP POP JUMP JUMPDEST PUSH2 0x14B5 PUSH2 0x3752 JUMP JUMPDEST PUSH20 0xFFFFFFFFFFFFFFFFFFFFFFFFFFFFFFFFFFFFFFFF AND DUP2 PUSH20 0xFFFFFFFFFFFFFFFFFFFFFFFFFFFFFFFFFFFFFFFF AND EQ PUSH2 0x1519 JUMPI PUSH1 0x40 MLOAD PUSH32 0x6697B23200000000000000000000000000000000000000000000000000000000 DUP2 MSTORE PUSH1 0x4 ADD PUSH1 0x40 MLOAD DUP1 SWAP2 SUB SWAP1 REVERT JUMPDEST PUSH2 0x1523 DUP3 DUP3 PUSH2 0x3759 JUMP JUMPDEST POP POP POP JUMP JUMPDEST PUSH2 0x1530 PUSH2 0x35FD JUMP JUMPDEST PUSH0 PUSH1 0x9 PUSH0 DUP4 DUP2 MSTORE PUSH1 0x20 ADD SWAP1 DUP2 MSTORE PUSH1 0x20 ADD PUSH0 KECCAK256 SWAP1 POP DUP1 PUSH1 0xA ADD PUSH0 SWAP1 SLOAD SWAP1 PUSH2 0x100 EXP SWAP1 DIV PUSH1 0xFF AND PUSH2 0x1594 JUMPI PUSH1 0x40 MLOAD PUSH32 0x8C379A000000000000000000000000000000000000000000000000000000000 DUP2 MSTORE PUSH1 0x4 ADD PUSH2 0x158B SWAP1 PUSH2 0x4C34 JUMP JUMPDEST PUSH1 0x40 MLOAD DUP1 SWAP2 SUB SWAP1 REVERT JUMPDEST PUSH0 PUSH20 0xFFFFFFFFFFFFFFFFFFFFFFFFFFFFFFFFFFFFFFFF AND DUP2 PUSH1 0x8 ADD PUSH0 SWAP1 SLOAD SWAP1 PUSH2 0x100 EXP SWAP1 DIV PUSH20 0xFFFFFFFFFFFFFFFFFFFFFFFFFFFFFFFFFFFFFFFF AND PUSH20 0xFFFFFFFFFFFFFFFFFFFFFFFFFFFFFFFFFFFFFFFF AND SUB PUSH2 0x1625 JUMPI PUSH1 0x40 MLOAD PUSH32 0x8C379A000000000000000000000000000000000000000000000000000000000 DUP2 MSTORE PUSH1 0x4 ADD PUSH2 0x161C SWAP1 PUSH2 0x4C9C JUMP JUMPDEST PUSH1 0x40 MLOAD DUP1 SWAP2 SUB SWAP1 REVERT JUMPDEST PUSH1 0x8 PUSH0 CALLER PUSH20 0xFFFFFFFFFFFFFFFFFFFFFFFFFFFFFFFFFFFFFFFF AND PUSH20 0xFFFFFFFFFFFFFFFFFFFFFFFFFFFFFFFFFFFFFFFF AND DUP2 MSTORE PUSH1 0x20 ADD SWAP1 DUP2 MSTORE PUSH1 0x20 ADD PUSH0 KECCAK256 PUSH0 SWAP1 SLOAD SWAP1 PUSH2 0x100 EXP SWAP1 DIV PUSH1 0xFF AND ISZERO PUSH2 0x16AF JUMPI PUSH1 0x40 MLOAD PUSH32 0x8C379A000000000000000000000000000000000000000000000000000000000 DUP2 MSTORE PUSH1 0x4 ADD PUSH2 0x16A6 SWAP1 PUSH2 0x4D04 JUMP JUMPDEST PUSH1 0x40 MLOAD DUP1 SWAP2 SUB SWAP1 REVERT JUMPDEST PUSH0 PUSH8 0xDE0B6B3A7640000 SWAP1 POP DUP1 CALLVALUE LT ISZERO PUSH2 0x16FE JUMPI PUSH1 0x40 MLOAD PUSH32 0x8C379A000000000000000000000000000000000000000000000000000000000 DUP2 MSTORE PUSH1 0x4 ADD PUSH2 0x16F5 SWAP1 PUSH2 0x4D6C JUMP JUMPDEST PUSH1 0x40 MLOAD DUP1 SWAP2 SUB SWAP1 REVERT JUMPDEST PUSH0 DUP2 SWAP1 POP PUSH0 DUP2 CALLVALUE PUSH2 0x170F SWAP2 SWAP1 PUSH2 0x4D8A JUMP JUMPDEST SWAP1 POP DUP2 PUSH1 0xD PUSH0 CALLER PUSH20 0xFFFFFFFFFFFFFFFFFFFFFFFFFFFFFFFFFFFFFFFF AND PUSH20 0xFFFFFFFFFFFFFFFFFFFFFFFFFFFFFFFFFFFFFFFF AND DUP2 MSTORE PUSH1 0x20 ADD SWAP1 DUP2 MSTORE PUSH1 0x20 ADD PUSH0 KECCAK256 DUP2 SWAP1 SSTORE POP PUSH0 DUP2 GT ISZERO PUSH2 0x1805 JUMPI PUSH0 CALLER PUSH20 0xFFFFFFFFFFFFFFFFFFFFFFFFFFFFFFFFFFFFFFFF AND DUP3 PUSH1 0x40 MLOAD PUSH2 0x1780 SWAP1 PUSH2 0x4DEA JUMP JUMPDEST PUSH0 PUSH1 0x40 MLOAD DUP1 DUP4 SUB DUP2 DUP6 DUP8 GAS CALL SWAP3 POP POP POP RETURNDATASIZE DUP1 PUSH0 DUP2 EQ PUSH2 0x17BA JUMPI PUSH1 0x40 MLOAD SWAP2 POP PUSH1 0x1F NOT PUSH1 0x3F RETURNDATASIZE ADD AND DUP3 ADD PUSH1 0x40 MSTORE RETURNDATASIZE DUP3 MSTORE RETURNDATASIZE PUSH0 PUSH1 0x20 DUP5 ADD RETURNDATACOPY PUSH2 0x17BF JUMP JUMPDEST PUSH1 0x60 SWAP2 POP JUMPDEST POP POP SWAP1 POP DUP1 PUSH2 0x1803 JUMPI PUSH1 0x40 MLOAD PUSH32 0x8C379A000000000000000000000000000000000000000000000000000000000 DUP2 MSTORE PUSH1 0x4 ADD PUSH2 0x17FA SWAP1 PUSH2 0x4E48 JUMP JUMPDEST PUSH1 0x40 MLOAD DUP1 SWAP2 SUB SWAP1 REVERT JUMPDEST POP JUMPDEST PUSH0 DUP5 PUSH1 0x8 ADD PUSH0 SWAP1 SLOAD SWAP1 PUSH2 0x100 EXP SWAP1 DIV PUSH20 0xFFFFFFFFFFFFFFFFFFFFFFFFFFFFFFFFFFFFFFFF AND PUSH20 0xFFFFFFFFFFFFFFFFFFFFFFFFFFFFFFFFFFFFFFFF AND DUP4 PUSH1 0x40 MLOAD PUSH2 0x184D SWAP1 PUSH2 0x4DEA JUMP JUMPDEST PUSH0 PUSH1 0x40 MLOAD DUP1 DUP4 SUB DUP2 DUP6 DUP8 GAS CALL SWAP3 POP POP POP RETURNDATASIZE DUP1 PUSH0 DUP2 EQ PUSH2 0x1887 JUMPI PUSH1 0x40 MLOAD SWAP2 POP PUSH1 0x1F NOT PUSH1 0x3F RETURNDATASIZE ADD AND DUP3 ADD PUSH1 0x40 MSTORE RETURNDATASIZE DUP3 MSTORE RETURNDATASIZE PUSH0 PUSH1 0x20 DUP5 ADD RETURNDATACOPY PUSH2 0x188C JUMP JUMPDEST PUSH1 0x60 SWAP2 POP JUMPDEST POP POP SWAP1 POP DUP1 PUSH2 0x18D0 JUMPI PUSH1 0x40 MLOAD PUSH32 0x8C379A000000000000000000000000000000000000000000000000000000000 DUP2 MSTORE PUSH1 0x4 ADD PUSH2 0x18C7 SWAP1 PUSH2 0x4EB0 JUMP JUMPDEST PUSH1 0x40 MLOAD DUP1 SWAP2 SUB SWAP1 REVERT JUMPDEST PUSH0 PUSH1 0x15 PUSH0 CALLER PUSH20 0xFFFFFFFFFFFFFFFFFFFFFFFFFFFFFFFFFFFFFFFF AND PUSH20 0xFFFFFFFFFFFFFFFFFFFFFFFFFFFFFFFFFFFFFFFF AND DUP2 MSTORE PUSH1 0x20 ADD SWAP1 DUP2 MSTORE PUSH1 0x20 ADD PUSH0 KECCAK256 SWAP1 POP PUSH0 DUP2 PUSH0 ADD DUP1 SLOAD SWAP1 POP EQ PUSH2 0x1958 JUMPI PUSH1 0x40 MLOAD PUSH32 0x8C379A000000000000000000000000000000000000000000000000000000000 DUP2 MSTORE PUSH1 0x4 ADD PUSH2 0x194F SWAP1 PUSH2 0x4F18 JUMP JUMPDEST PUSH1 0x40 MLOAD DUP1 SWAP2 SUB SWAP1 REVERT JUMPDEST PUSH0 PUSH8 0xFFFFFFFFFFFFFFFF DUP2 GT ISZERO PUSH2 0x1972 JUMPI PUSH2 0x1971 PUSH2 0x425E JUMP JUMPDEST JUMPDEST PUSH1 0x40 MLOAD SWAP1 DUP1 DUP3 MSTORE DUP1 PUSH1 0x20 MUL PUSH1 0x20 ADD DUP3 ADD PUSH1 0x40 MSTORE DUP1 ISZERO PUSH2 0x19A0 JUMPI DUP2 PUSH1 0x20 ADD PUSH1 0x20 DUP3 MUL DUP1 CALLDATASIZE DUP4 CALLDATACOPY DUP1 DUP3 ADD SWAP2 POP POP SWAP1 POP JUMPDEST POP DUP2 PUSH0 ADD SWAP1 DUP1 MLOAD SWAP1 PUSH1 0x20 ADD SWAP1 PUSH2 0x19B7 SWAP3 SWAP2 SWAP1 PUSH2 0x3893 JUMP JUMPDEST POP PUSH0 DUP2 PUSH1 0x1 ADD DUP2 SWAP1 SSTORE POP TIMESTAMP DUP2 PUSH1 0x2 ADD DUP2 SWAP1 SSTORE POP PUSH0 DUP2 PUSH1 0x3 ADD PUSH0 PUSH2 0x100 EXP DUP2 SLOAD DUP2 PUSH1 0xFF MUL NOT AND SWAP1 DUP4 ISZERO ISZERO MUL OR SWAP1 SSTORE POP PUSH0 DUP2 PUSH1 0x3 ADD PUSH1 0x1 PUSH2 0x100 EXP DUP2 SLOAD DUP2 PUSH1 0xFF MUL NOT AND SWAP1 DUP4 ISZERO ISZERO MUL OR SWAP1 SSTORE POP PUSH1 0x1 PUSH1 0x8 PUSH0 CALLER PUSH20 0xFFFFFFFFFFFFFFFFFFFFFFFFFFFFFFFFFFFFFFFF AND PUSH20 0xFFFFFFFFFFFFFFFFFFFFFFFFFFFFFFFFFFFFFFFF AND DUP2 MSTORE PUSH1 0x20 ADD SWAP1 DUP2 MSTORE PUSH1 0x20 ADD PUSH0 KECCAK256 PUSH0 PUSH2 0x100 EXP DUP2 SLOAD DUP2 PUSH1 0xFF MUL NOT AND SWAP1 DUP4 ISZERO ISZERO MUL OR SWAP1 SSTORE POP PUSH1 0x13 PUSH0 DUP2 SLOAD DUP1 SWAP3 SWAP2 SWAP1 PUSH2 0x1A68 SWAP1 PUSH2 0x4BA3 JUMP JUMPDEST SWAP2 SWAP1 POP SSTORE POP PUSH1 0x64 PUSH1 0x5 PUSH0 CALLER PUSH20 0xFFFFFFFFFFFFFFFFFFFFFFFFFFFFFFFFFFFFFFFF AND PUSH20 0xFFFFFFFFFFFFFFFFFFFFFFFFFFFFFFFFFFFFFFFF AND DUP2 MSTORE PUSH1 0x20 ADD SWAP1 DUP2 MSTORE PUSH1 0x20 ADD PUSH0 KECCAK256 DUP2 SWAP1 SSTORE POP TIMESTAMP PUSH1 0x17 PUSH0 CALLER PUSH20 0xFFFFFFFFFFFFFFFFFFFFFFFFFFFFFFFFFFFFFFFF AND PUSH20 0xFFFFFFFFFFFFFFFFFFFFFFFFFFFFFFFFFFFFFFFF AND DUP2 MSTORE PUSH1 0x20 ADD SWAP1 DUP2 MSTORE PUSH1 0x20 ADD PUSH0 KECCAK256 DUP2 SWAP1 SSTORE POP CALLER PUSH1 0x1A PUSH0 PUSH1 0x1B SLOAD DUP2 MSTORE PUSH1 0x20 ADD SWAP1 DUP2 MSTORE PUSH1 0x20 ADD PUSH0 KECCAK256 PUSH0 PUSH2 0x100 EXP DUP2 SLOAD DUP2 PUSH20 0xFFFFFFFFFFFFFFFFFFFFFFFFFFFFFFFFFFFFFFFF MUL NOT AND SWAP1 DUP4 PUSH20 0xFFFFFFFFFFFFFFFFFFFFFFFFFFFFFFFFFFFFFFFF AND MUL OR SWAP1 SSTORE POP PUSH1 0x1B PUSH0 DUP2 SLOAD DUP1 SWAP3 SWAP2 SWAP1 PUSH2 0x1B55 SWAP1 PUSH2 0x4BA3 JUMP JUMPDEST SWAP2 SWAP1 POP SSTORE POP PUSH0 PUSH1 0x1 SWAP1 POP PUSH0 PUSH1 0x18 PUSH0 DUP4 DUP2 MSTORE PUSH1 0x20 ADD SWAP1 DUP2 MSTORE PUSH1 0x20 ADD PUSH0 KECCAK256 SWAP1 POP DUP1 PUSH1 0x2 ADD PUSH0 DUP2 SLOAD DUP1 SWAP3 SWAP2 SWAP1 PUSH2 0x1B87 SWAP1 PUSH2 0x4BA3 JUMP JUMPDEST SWAP2 SWAP1 POP SSTORE POP PUSH1 0x40 MLOAD DUP1 PUSH1 0xC0 ADD PUSH1 0x40 MSTORE DUP1 PUSH0 ISZERO ISZERO DUP2 MSTORE PUSH1 0x20 ADD PUSH3 0x278D00 TIMESTAMP PUSH2 0x1BAE SWAP2 SWAP1 PUSH2 0x4F36 JUMP JUMPDEST DUP2 MSTORE PUSH1 0x20 ADD PUSH1 0x3 DUP2 MSTORE PUSH1 0x20 ADD PUSH0 DUP2 MSTORE PUSH1 0x20 ADD PUSH9 0x56BC75E2D63100000 DUP2 MSTORE PUSH1 0x20 ADD PUSH1 0x1 ISZERO ISZERO DUP2 MSTORE POP PUSH1 0x7 PUSH0 CALLER PUSH20 0xFFFFFFFFFFFFFFFFFFFFFFFFFFFFFFFFFFFFFFFF AND PUSH20 0xFFFFFFFFFFFFFFFFFFFFFFFFFFFFFFFFFFFFFFFF AND DUP2 MSTORE PUSH1 0x20 ADD SWAP1 DUP2 MSTORE PUSH1 0x20 ADD PUSH0 KECCAK256 PUSH0 DUP3 ADD MLOAD DUP2 PUSH0 ADD PUSH0 PUSH2 0x100 EXP DUP2 SLOAD DUP2 PUSH1 0xFF MUL NOT AND SWAP1 DUP4 ISZERO ISZERO MUL OR SWAP1 SSTORE POP PUSH1 0x20 DUP3 ADD MLOAD DUP2 PUSH1 0x1 ADD SSTORE PUSH1 0x40 DUP3 ADD MLOAD DUP2 PUSH1 0x2 ADD SSTORE PUSH1 0x60 DUP3 ADD MLOAD DUP2 PUSH1 0x3 ADD SSTORE PUSH1 0x80 DUP3 ADD MLOAD DUP2 PUSH1 0x4 ADD SSTORE PUSH1 0xA0 DUP3 ADD MLOAD DUP2 PUSH1 0x5 ADD PUSH0 PUSH2 0x100 EXP DUP2 SLOAD DUP2 PUSH1 0xFF MUL NOT AND SWAP1 DUP4 ISZERO ISZERO MUL OR SWAP1 SSTORE POP SWAP1 POP POP PUSH1 0x14 PUSH0 ADD PUSH0 DUP2 SLOAD DUP1 SWAP3 SWAP2 SWAP1 PUSH2 0x1C8E SWAP1 PUSH2 0x4BA3 JUMP JUMPDEST SWAP2 SWAP1 POP SSTORE POP DUP8 PUSH1 0x8 ADD PUSH0 SWAP1 SLOAD SWAP1 PUSH2 0x100 EXP SWAP1 DIV PUSH20 0xFFFFFFFFFFFFFFFFFFFFFFFFFFFFFFFFFFFFFFFF AND PUSH20 0xFFFFFFFFFFFFFFFFFFFFFFFFFFFFFFFFFFFFFFFF AND PUSH4 0xBB306F63 CALLER PUSH0 PUSH1 0x40 MLOAD DUP4 PUSH4 0xFFFFFFFF AND PUSH1 0xE0 SHL DUP2 MSTORE PUSH1 0x4 ADD PUSH2 0x1CF1 SWAP3 SWAP2 SWAP1 PUSH2 0x4F69 JUMP JUMPDEST PUSH0 PUSH1 0x40 MLOAD DUP1 DUP4 SUB DUP2 PUSH0 DUP8 DUP1 EXTCODESIZE ISZERO DUP1 ISZERO PUSH2 0x1D08 JUMPI PUSH0 DUP1 REVERT JUMPDEST POP GAS CALL SWAP3 POP POP POP DUP1 ISZERO PUSH2 0x1D19 JUMPI POP PUSH1 0x1 JUMPDEST PUSH2 0x1D58 JUMPI PUSH1 0x40 MLOAD PUSH32 0x8C379A000000000000000000000000000000000000000000000000000000000 DUP2 MSTORE PUSH1 0x4 ADD PUSH2 0x1D4F SWAP1 PUSH2 0x5000 JUMP JUMPDEST PUSH1 0x40 MLOAD DUP1 SWAP2 SUB SWAP1 REVERT JUMPDEST DUP9 CALLER PUSH20 0xFFFFFFFFFFFFFFFFFFFFFFFFFFFFFFFFFFFFFFFF AND PUSH32 0x29328BED57D62A2B3CA4287BB17D531514F2E6A4068BBB2EC561854BD264F66F TIMESTAMP DUP10 PUSH1 0x40 MLOAD PUSH2 0x1DA1 SWAP3 SWAP2 SWAP1 PUSH2 0x501E JUMP JUMPDEST PUSH1 0x40 MLOAD DUP1 SWAP2 SUB SWAP1 LOG3 POP POP POP POP POP POP POP POP PUSH2 0x1DB9 PUSH2 0x364C JUMP JUMPDEST POP JUMP JUMPDEST PUSH2 0x1DC8 PUSH0 DUP1 SHL CALLER PUSH2 0x2C1F JUMP JUMPDEST PUSH2 0x1E07 JUMPI PUSH1 0x40 MLOAD PUSH32 0x8C379A000000000000000000000000000000000000000000000000000000000 DUP2 MSTORE PUSH1 0x4 ADD PUSH2 0x1DFE SWAP1 PUSH2 0x508F JUMP JUMPDEST PUSH1 0x40 MLOAD DUP1 SWAP2 SUB SWAP1 REVERT JUMPDEST PUSH0 PUSH1 0xE PUSH0 DUP7 DUP2 MSTORE PUSH1 0x20 ADD SWAP1 DUP2 MSTORE PUSH1 0x20 ADD PUSH0 KECCAK256 PUSH0 DUP6 DUP2 MSTORE PUSH1 0x20 ADD SWAP1 DUP2 MSTORE PUSH1 0x20 ADD PUSH0 KECCAK256 SWAP1 POP DUP4 DUP2 PUSH0 ADD DUP2 SWAP1 SSTORE POP DUP3 DUP2 PUSH1 0x1 ADD DUP2 SWAP1 SSTORE POP DUP2 DUP2 PUSH1 0x2 ADD DUP2 SWAP1 SSTORE POP PUSH1 0x1 DUP2 PUSH1 0x3 ADD PUSH0 PUSH2 0x100 EXP DUP2 SLOAD DUP2 PUSH1 0xFF MUL NOT AND SWAP1 DUP4 ISZERO ISZERO MUL OR SWAP1 SSTORE POP TIMESTAMP DUP2 PUSH1 0x6 ADD DUP2 SWAP1 SSTORE POP POP POP POP POP POP JUMP JUMPDEST PUSH0 DUP1 PUSH0 DUP1 PUSH1 0x15 PUSH0 DUP7 PUSH20 0xFFFFFFFFFFFFFFFFFFFFFFFFFFFFFFFFFFFFFFFF AND PUSH20 0xFFFFFFFFFFFFFFFFFFFFFFFFFFFFFFFFFFFFFFFF AND DUP2 MSTORE PUSH1 0x20 ADD SWAP1 DUP2 MSTORE PUSH1 0x20 ADD PUSH0 KECCAK256 SWAP1 POP DUP1 PUSH1 0x1 ADD SLOAD DUP2 PUSH1 0x3 ADD PUSH0 SWAP1 SLOAD SWAP1 PUSH2 0x100 EXP SWAP1 DIV PUSH1 0xFF AND DUP3 PUSH1 0x3 ADD PUSH1 0x1 SWAP1 SLOAD SWAP1 PUSH2 0x100 EXP SWAP1 DIV PUSH1 0xFF AND SWAP4 POP SWAP4 POP SWAP4 POP POP SWAP2 SWAP4 SWAP1 SWAP3 POP JUMP JUMPDEST PUSH1 0x8 PUSH1 0x20 MSTORE DUP1 PUSH0 MSTORE PUSH1 0x40 PUSH0 KECCAK256 PUSH0 SWAP2 POP SLOAD SWAP1 PUSH2 0x100 EXP SWAP1 DIV PUSH1 0xFF AND DUP2 JUMP JUMPDEST PUSH1 0xA PUSH1 0x20 MSTORE DUP2 PUSH0 MSTORE PUSH1 0x40 PUSH0 KECCAK256 PUSH1 0x20 MSTORE DUP1 PUSH0 MSTORE PUSH1 0x40 PUSH0 KECCAK256 PUSH0 SWAP2 POP SWAP2 POP POP SLOAD DUP2 JUMP JUMPDEST PUSH1 0x60 PUSH1 0x40 MLOAD DUP1 PUSH1 0x40 ADD PUSH1 0x40 MSTORE DUP1 PUSH1 0x5 DUP2 MSTORE PUSH1 0x20 ADD PUSH32 0x312E302E30000000000000000000000000000000000000000000000000000000 DUP2 MSTORE POP SWAP1 POP SWAP1 JUMP JUMPDEST PUSH1 0x2 PUSH0 SWAP1 SLOAD SWAP1 PUSH2 0x100 EXP SWAP1 DIV PUSH20 0xFFFFFFFFFFFFFFFFFFFFFFFFFFFFFFFFFFFFFFFF AND DUP2 JUMP JUMPDEST PUSH1 0x15 PUSH1 0x20 MSTORE DUP1 PUSH0 MSTORE PUSH1 0x40 PUSH0 KECCAK256 PUSH0 SWAP2 POP SWAP1 POP DUP1 PUSH1 0x1 ADD SLOAD SWAP1 DUP1 PUSH1 0x2 ADD SLOAD SWAP1 DUP1 PUSH1 0x3 ADD PUSH0 SWAP1 SLOAD SWAP1 PUSH2 0x100 EXP SWAP1 DIV PUSH1 0xFF AND SWAP1 DUP1 PUSH1 0x3 ADD PUSH1 0x1 SWAP1 SLOAD SWAP1 PUSH2 0x100 EXP SWAP1 DIV PUSH1 0xFF AND SWAP1 POP DUP5 JUMP JUMPDEST PUSH1 0x11 SLOAD DUP2 JUMP JUMPDEST PUSH1 0x13 SLOAD DUP2 JUMP JUMPDEST PUSH2 0x1FE2 PUSH2 0x35FD JUMP JUMPDEST PUSH1 0x8 PUSH0 CALLER PUSH20 0xFFFFFFFFFFFFFFFFFFFFFFFFFFFFFFFFFFFFFFFF AND PUSH20 0xFFFFFFFFFFFFFFFFFFFFFFFFFFFFFFFFFFFFFFFF AND DUP2 MSTORE PUSH1 0x20 ADD SWAP1 DUP2 MSTORE PUSH1 0x20 ADD PUSH0 KECCAK256 PUSH0 SWAP1 SLOAD SWAP1 PUSH2 0x100 EXP SWAP1 DIV PUSH1 0xFF AND PUSH2 0x206B JUMPI PUSH1 0x40 MLOAD PUSH32 0x8C379A000000000000000000000000000000000000000000000000000000000 DUP2 MSTORE PUSH1 0x4 ADD PUSH2 0x2062 SWAP1 PUSH2 0x50F7 JUMP JUMPDEST PUSH1 0x40 MLOAD DUP1 SWAP2 SUB SWAP1 REVERT JUMPDEST PUSH0 PUSH1 0x3 PUSH0 DUP6 DUP2 MSTORE PUSH1 0x20 ADD SWAP1 DUP2 MSTORE PUSH1 0x20 ADD PUSH0 KECCAK256 SWAP1 POP DUP1 PUSH1 0x7 ADD PUSH1 0x2 SWAP1 SLOAD SWAP1 PUSH2 0x100 EXP SWAP1 DIV PUSH1 0xFF AND ISZERO PUSH2 0x20D1 JUMPI PUSH1 0x40 MLOAD PUSH32 0x8C379A000000000000000000000000000000000000000000000000000000000 DUP2 MSTORE PUSH1 0x4 ADD PUSH2 0x20C8 SWAP1 PUSH2 0x477B JUMP JUMPDEST PUSH1 0x40 MLOAD DUP1 SWAP2 SUB SWAP1 REVERT JUMPDEST PUSH1 0x4 PUSH0 DUP6 DUP2 MSTORE PUSH1 0x20 ADD SWAP1 DUP2 MSTORE PUSH1 0x20 ADD PUSH0 KECCAK256 PUSH0 SWAP1 SLOAD SWAP1 PUSH2 0x100 EXP SWAP1 DIV PUSH1 0xFF AND ISZERO PUSH2 0x212F JUMPI PUSH1 0x40 MLOAD PUSH32 0x8C379A000000000000000000000000000000000000000000000000000000000 DUP2 MSTORE PUSH1 0x4 ADD PUSH2 0x2126 SWAP1 PUSH2 0x47E3 JUMP JUMPDEST PUSH1 0x40 MLOAD DUP1 SWAP2 SUB SWAP1 REVERT JUMPDEST DUP1 PUSH1 0x2 ADD SLOAD PUSH1 0x10 SLOAD LT ISZERO DUP1 ISZERO PUSH2 0x214B JUMPI POP DUP1 PUSH1 0x3 ADD SLOAD PUSH1 0x10 SLOAD GT ISZERO JUMPDEST PUSH2 0x218A JUMPI PUSH1 0x40 MLOAD PUSH32 0x8C379A000000000000000000000000000000000000000000000000000000000 DUP2 MSTORE PUSH1 0x4 ADD PUSH2 0x2181 SWAP1 PUSH2 0x515F JUMP JUMPDEST PUSH1 0x40 MLOAD DUP1 SWAP2 SUB SWAP1 REVERT JUMPDEST DUP1 PUSH1 0x9 ADD PUSH0 CALLER PUSH20 0xFFFFFFFFFFFFFFFFFFFFFFFFFFFFFFFFFFFFFFFF AND PUSH20 0xFFFFFFFFFFFFFFFFFFFFFFFFFFFFFFFFFFFFFFFF AND DUP2 MSTORE PUSH1 0x20 ADD SWAP1 DUP2 MSTORE PUSH1 0x20 ADD PUSH0 KECCAK256 PUSH0 ADD PUSH0 SWAP1 SLOAD SWAP1 PUSH2 0x100 EXP SWAP1 DIV PUSH1 0xFF AND ISZERO PUSH2 0x2218 JUMPI PUSH1 0x40 MLOAD PUSH32 0x8C379A000000000000000000000000000000000000000000000000000000000 DUP2 MSTORE PUSH1 0x4 ADD PUSH2 0x220F SWAP1 PUSH2 0x51C7 JUMP JUMPDEST PUSH1 0x40 MLOAD DUP1 SWAP2 SUB SWAP1 REVERT JUMPDEST PUSH0 DUP2 PUSH1 0x9 ADD PUSH0 CALLER PUSH20 0xFFFFFFFFFFFFFFFFFFFFFFFFFFFFFFFFFFFFFFFF AND PUSH20 0xFFFFFFFFFFFFFFFFFFFFFFFFFFFFFFFFFFFFFFFF AND DUP2 MSTORE PUSH1 0x20 ADD SWAP1 DUP2 MSTORE PUSH1 0x20 ADD PUSH0 KECCAK256 PUSH0 ADD PUSH0 SWAP1 SLOAD SWAP1 PUSH2 0x100 EXP SWAP1 DIV PUSH1 0xFF AND PUSH2 0x2281 JUMPI PUSH1 0x1 DUP3 PUSH1 0x6 ADD SLOAD PUSH2 0x227C SWAP2 SWAP1 PUSH2 0x4F36 JUMP JUMPDEST PUSH2 0x2287 JUMP JUMPDEST DUP2 PUSH1 0x6 ADD SLOAD JUMPDEST SWAP1 POP PUSH0 PUSH1 0x2 PUSH0 SWAP1 SLOAD SWAP1 PUSH2 0x100 EXP SWAP1 DIV PUSH20 0xFFFFFFFFFFFFFFFFFFFFFFFFFFFFFFFFFFFFFFFF AND PUSH20 0xFFFFFFFFFFFFFFFFFFFFFFFFFFFFFFFFFFFFFFFF AND PUSH4 0xE7F83ED3 DUP6 DUP6 PUSH1 0x5 ADD SLOAD DUP7 PUSH1 0x4 ADD SLOAD PUSH2 0x22DC SWAP2 SWAP1 PUSH2 0x4F36 JUMP JUMPDEST PUSH2 0x22E6 SWAP2 SWAP1 PUSH2 0x4F36 JUMP JUMPDEST DUP8 PUSH2 0x22F5 JUMPI DUP6 PUSH1 0x4 ADD SLOAD PUSH2 0x2306 JUMP JUMPDEST DUP7 DUP7 PUSH1 0x4 ADD SLOAD PUSH2 0x2305 SWAP2 SWAP1 PUSH2 0x4F36 JUMP JUMPDEST JUMPDEST DUP9 PUSH2 0x2320 JUMPI DUP8 DUP8 PUSH1 0x5 ADD SLOAD PUSH2 0x231B SWAP2 SWAP1 PUSH2 0x4F36 JUMP JUMPDEST PUSH2 0x2326 JUMP JUMPDEST DUP7 PUSH1 0x5 ADD SLOAD JUMPDEST DUP7 PUSH1 0x13 SLOAD PUSH1 0x11 SLOAD PUSH1 0x40 MLOAD DUP8 PUSH4 0xFFFFFFFF AND PUSH1 0xE0 SHL DUP2 MSTORE PUSH1 0x4 ADD PUSH2 0x234E SWAP7 SWAP6 SWAP5 SWAP4 SWAP3 SWAP2 SWAP1 PUSH2 0x51E5 JUMP JUMPDEST PUSH1 0x20 PUSH1 0x40 MLOAD DUP1 DUP4 SUB DUP2 DUP7 GAS STATICCALL ISZERO DUP1 ISZERO PUSH2 0x2369 JUMPI RETURNDATASIZE PUSH0 DUP1 RETURNDATACOPY RETURNDATASIZE PUSH0 REVERT JUMPDEST POP POP POP POP PUSH1 0x40 MLOAD RETURNDATASIZE PUSH1 0x1F NOT PUSH1 0x1F DUP3 ADD AND DUP3 ADD DUP1 PUSH1 0x40 MSTORE POP DUP2 ADD SWAP1 PUSH2 0x238D SWAP2 SWAP1 PUSH2 0x5258 JUMP JUMPDEST SWAP1 POP DUP1 PUSH2 0x23CF JUMPI PUSH1 0x40 MLOAD PUSH32 0x8C379A000000000000000000000000000000000000000000000000000000000 DUP2 MSTORE PUSH1 0x4 ADD PUSH2 0x23C6 SWAP1 PUSH2 0x52CD JUMP JUMPDEST PUSH1 0x40 MLOAD DUP1 SWAP2 SUB SWAP1 REVERT JUMPDEST DUP5 ISZERO PUSH2 0x23F4 JUMPI DUP4 DUP4 PUSH1 0x4 ADD PUSH0 DUP3 DUP3 SLOAD PUSH2 0x23E8 SWAP2 SWAP1 PUSH2 0x4F36 JUMP JUMPDEST SWAP3 POP POP DUP2 SWAP1 SSTORE POP PUSH2 0x240F JUMP JUMPDEST DUP4 DUP4 PUSH1 0x5 ADD PUSH0 DUP3 DUP3 SLOAD PUSH2 0x2407 SWAP2 SWAP1 PUSH2 0x4F36 JUMP JUMPDEST SWAP3 POP POP DUP2 SWAP1 SSTORE POP JUMPDEST PUSH1 0x1 DUP4 PUSH1 0x9 ADD PUSH0 CALLER PUSH20 0xFFFFFFFFFFFFFFFFFFFFFFFFFFFFFFFFFFFFFFFF AND PUSH20 0xFFFFFFFFFFFFFFFFFFFFFFFFFFFFFFFFFFFFFFFF AND DUP2 MSTORE PUSH1 0x20 ADD SWAP1 DUP2 MSTORE PUSH1 0x20 ADD PUSH0 KECCAK256 PUSH0 ADD PUSH0 PUSH2 0x100 EXP DUP2 SLOAD DUP2 PUSH1 0xFF MUL NOT AND SWAP1 DUP4 ISZERO ISZERO MUL OR SWAP1 SSTORE POP DUP5 DUP4 PUSH1 0x9 ADD PUSH0 CALLER PUSH20 0xFFFFFFFFFFFFFFFFFFFFFFFFFFFFFFFFFFFFFFFF AND PUSH20 0xFFFFFFFFFFFFFFFFFFFFFFFFFFFFFFFFFFFFFFFF AND DUP2 MSTORE PUSH1 0x20 ADD SWAP1 DUP2 MSTORE PUSH1 0x20 ADD PUSH0 KECCAK256 PUSH0 ADD PUSH1 0x1 PUSH2 0x100 EXP DUP2 SLOAD DUP2 PUSH1 0xFF MUL NOT AND SWAP1 DUP4 ISZERO ISZERO MUL OR SWAP1 SSTORE POP DUP4 DUP4 PUSH1 0x9 ADD PUSH0 CALLER PUSH20 0xFFFFFFFFFFFFFFFFFFFFFFFFFFFFFFFFFFFFFFFF AND PUSH20 0xFFFFFFFFFFFFFFFFFFFFFFFFFFFFFFFFFFFFFFFF AND DUP2 MSTORE PUSH1 0x20 ADD SWAP1 DUP2 MSTORE PUSH1 0x20 ADD PUSH0 KECCAK256 PUSH1 0x1 ADD DUP2 SWAP1 SSTORE POP DUP3 PUSH1 0x9 ADD PUSH0 CALLER PUSH20 0xFFFFFFFFFFFFFFFFFFFFFFFFFFFFFFFFFFFFFFFF AND PUSH20 0xFFFFFFFFFFFFFFFFFFFFFFFFFFFFFFFFFFFFFFFF AND DUP2 MSTORE PUSH1 0x20 ADD SWAP1 DUP2 MSTORE PUSH1 0x20 ADD PUSH0 KECCAK256 PUSH0 ADD PUSH0 SWAP1 SLOAD SWAP1 PUSH2 0x100 EXP SWAP1 DIV PUSH1 0xFF AND PUSH2 0x2574 JUMPI DUP3 PUSH1 0x6 ADD PUSH0 DUP2 SLOAD DUP1 SWAP3 SWAP2 SWAP1 PUSH2 0x256E SWAP1 PUSH2 0x4BA3 JUMP JUMPDEST SWAP2 SWAP1 POP SSTORE POP JUMPDEST CALLER PUSH20 0xFFFFFFFFFFFFFFFFFFFFFFFFFFFFFFFFFFFFFFFF AND DUP7 PUSH32 0xCBDF6214089CBA887ECBF35A0B6A734589959C9763342C756BB2A80CA2BC9F6E DUP8 DUP8 PUSH1 0x40 MLOAD PUSH2 0x25BD SWAP3 SWAP2 SWAP1 PUSH2 0x52EB JUMP JUMPDEST PUSH1 0x40 MLOAD DUP1 SWAP2 SUB SWAP1 LOG3 POP POP POP PUSH2 0x25D0 PUSH2 0x364C JUMP JUMPDEST POP POP POP JUMP JUMPDEST PUSH1 0x7 PUSH1 0x20 MSTORE DUP1 PUSH0 MSTORE PUSH1 0x40 PUSH0 KECCAK256 PUSH0 SWAP2 POP SWAP1 POP DUP1 PUSH0 ADD PUSH0 SWAP1 SLOAD SWAP1 PUSH2 0x100 EXP SWAP1 DIV PUSH1 0xFF AND SWAP1 DUP1 PUSH1 0x1 ADD SLOAD SWAP1 DUP1 PUSH1 0x2 ADD SLOAD SWAP1 DUP1 PUSH1 0x3 ADD SLOAD SWAP1 DUP1 PUSH1 0x4 ADD SLOAD SWAP1 DUP1 PUSH1 0x5 ADD PUSH0 SWAP1 SLOAD SWAP1 PUSH2 0x100 EXP SWAP1 DIV PUSH1 0xFF AND SWAP1 POP DUP7 JUMP JUMPDEST PUSH0 DUP1 SHL PUSH2 0x2631 DUP2 PUSH2 0x3655 JUMP JUMPDEST PUSH0 PUSH20 0xFFFFFFFFFFFFFFFFFFFFFFFFFFFFFFFFFFFFFFFF AND DUP3 PUSH20 0xFFFFFFFFFFFFFFFFFFFFFFFFFFFFFFFFFFFFFFFF AND SUB PUSH2 0x269F JUMPI PUSH1 0x40 MLOAD PUSH32 0x8C379A000000000000000000000000000000000000000000000000000000000 DUP2 MSTORE PUSH1 0x4 ADD PUSH2 0x2696 SWAP1 PUSH2 0x535C JUMP JUMPDEST PUSH1 0x40 MLOAD DUP1 SWAP2 SUB SWAP1 REVERT JUMPDEST DUP2 PUSH1 0x2 PUSH0 PUSH2 0x100 EXP DUP2 SLOAD DUP2 PUSH20 0xFFFFFFFFFFFFFFFFFFFFFFFFFFFFFFFFFFFFFFFF MUL NOT AND SWAP1 DUP4 PUSH20 0xFFFFFFFFFFFFFFFFFFFFFFFFFFFFFFFFFFFFFFFF AND MUL OR SWAP1 SSTORE POP POP POP JUMP JUMPDEST PUSH0 DUP1 PUSH0 DUP1 PUSH1 0xE PUSH0 DUP8 DUP2 MSTORE PUSH1 0x20 ADD SWAP1 DUP2 MSTORE PUSH1 0x20 ADD PUSH0 KECCAK256 PUSH0 DUP7 DUP2 MSTORE PUSH1 0x20 ADD SWAP1 DUP2 MSTORE PUSH1 0x20 ADD PUSH0 KECCAK256 SWAP1 POP DUP1 PUSH1 0x1 ADD SLOAD DUP2 PUSH1 0x2 ADD SLOAD DUP3 PUSH1 0x3 ADD PUSH0 SWAP1 SLOAD SWAP1 PUSH2 0x100 EXP SWAP1 DIV PUSH1 0xFF AND SWAP4 POP SWAP4 POP SWAP4 POP POP SWAP3 POP SWAP3 POP SWAP3 JUMP JUMPDEST PUSH2 0x273A PUSH2 0x391A JUMP JUMPDEST PUSH0 PUSH1 0x3 PUSH0 DUP5 DUP2 MSTORE PUSH1 0x20 ADD SWAP1 DUP2 MSTORE PUSH1 0x20 ADD PUSH0 KECCAK256 SWAP1 POP PUSH1 0x40 MLOAD DUP1 PUSH2 0x100 ADD PUSH1 0x40 MSTORE DUP1 DUP3 PUSH1 0x2 ADD SLOAD DUP2 MSTORE PUSH1 0x20 ADD DUP3 PUSH1 0x3 ADD SLOAD DUP2 MSTORE PUSH1 0x20 ADD PUSH1 0x4 PUSH0 DUP7 DUP2 MSTORE PUSH1 0x20 ADD SWAP1 DUP2 MSTORE PUSH1 0x20 ADD PUSH0 KECCAK256 PUSH0 SWAP1 SLOAD SWAP1 PUSH2 0x100 EXP SWAP1 DIV PUSH1 0xFF AND ISZERO ISZERO DUP2 MSTORE PUSH1 0x20 ADD DUP3 PUSH1 0x7 ADD PUSH1 0x2 SWAP1 SLOAD SWAP1 PUSH2 0x100 EXP SWAP1 DIV PUSH1 0xFF AND ISZERO ISZERO DUP2 MSTORE PUSH1 0x20 ADD DUP3 PUSH1 0x4 ADD SLOAD DUP2 MSTORE PUSH1 0x20 ADD DUP3 PUSH1 0x5 ADD SLOAD DUP2 MSTORE PUSH1 0x20 ADD PUSH1 0x19 PUSH0 DUP7 DUP2 MSTORE PUSH1 0x20 ADD SWAP1 DUP2 MSTORE PUSH1 0x20 ADD PUSH0 KECCAK256 PUSH0 SWAP1 SLOAD SWAP1 PUSH2 0x100 EXP SWAP1 DIV PUSH1 0xFF AND PUSH1 0xFF AND DUP2 MSTORE PUSH1 0x20 ADD DUP3 PUSH1 0x8 ADD SLOAD DUP2 MSTORE POP SWAP2 POP POP SWAP2 SWAP1 POP JUMP JUMPDEST PUSH1 0xE PUSH1 0x20 MSTORE DUP2 PUSH0 MSTORE PUSH1 0x40 PUSH0 KECCAK256 PUSH1 0x20 MSTORE DUP1 PUSH0 MSTORE PUSH1 0x40 PUSH0 KECCAK256 PUSH0 SWAP2 POP SWAP2 POP POP DUP1 PUSH0 ADD SLOAD SWAP1 DUP1 PUSH1 0x1 ADD SLOAD SWAP1 DUP1 PUSH1 0x2 ADD SLOAD SWAP1 DUP1 PUSH1 0x3 ADD PUSH0 SWAP1 SLOAD SWAP1 PUSH2 0x100 EXP SWAP1 DIV PUSH1 0xFF AND SWAP1 DUP1 PUSH1 0x4 ADD SLOAD SWAP1 DUP1 PUSH1 0x5 ADD SLOAD SWAP1 DUP1 PUSH1 0x6 ADD SLOAD SWAP1 POP DUP8 JUMP JUMPDEST PUSH1 0x10 SLOAD DUP2 JUMP JUMPDEST PUSH1 0x8 PUSH0 CALLER PUSH20 0xFFFFFFFFFFFFFFFFFFFFFFFFFFFFFFFFFFFFFFFF AND PUSH20 0xFFFFFFFFFFFFFFFFFFFFFFFFFFFFFFFFFFFFFFFF AND DUP2 MSTORE PUSH1 0x20 ADD SWAP1 DUP2 MSTORE PUSH1 0x20 ADD PUSH0 KECCAK256 PUSH0 SWAP1 SLOAD SWAP1 PUSH2 0x100 EXP SWAP1 DIV PUSH1 0xFF AND PUSH2 0x28DA JUMPI PUSH1 0x40 MLOAD PUSH32 0x8C379A000000000000000000000000000000000000000000000000000000000 DUP2 MSTORE PUSH1 0x4 ADD PUSH2 0x28D1 SWAP1 PUSH2 0x50F7 JUMP JUMPDEST PUSH1 0x40 MLOAD DUP1 SWAP2 SUB SWAP1 REVERT JUMPDEST PUSH1 0x8 PUSH0 DUP6 PUSH20 0xFFFFFFFFFFFFFFFFFFFFFFFFFFFFFFFFFFFFFFFF AND PUSH20 0xFFFFFFFFFFFFFFFFFFFFFFFFFFFFFFFFFFFFFFFF AND DUP2 MSTORE PUSH1 0x20 ADD SWAP1 DUP2 MSTORE PUSH1 0x20 ADD PUSH0 KECCAK256 PUSH0 SWAP1 SLOAD SWAP1 PUSH2 0x100 EXP SWAP1 DIV PUSH1 0xFF AND PUSH2 0x2963 JUMPI PUSH1 0x40 MLOAD PUSH32 0x8C379A000000000000000000000000000000000000000000000000000000000 DUP2 MSTORE PUSH1 0x4 ADD PUSH2 0x295A SWAP1 PUSH2 0x53C4 JUMP JUMPDEST PUSH1 0x40 MLOAD DUP1 SWAP2 SUB SWAP1 REVERT JUMPDEST DUP4 PUSH20 0xFFFFFFFFFFFFFFFFFFFFFFFFFFFFFFFFFFFFFFFF AND CALLER PUSH20 0xFFFFFFFFFFFFFFFFFFFFFFFFFFFFFFFFFFFFFFFF AND SUB PUSH2 0x29D1 JUMPI PUSH1 0x40 MLOAD PUSH32 0x8C379A000000000000000000000000000000000000000000000000000000000 DUP2 MSTORE PUSH1 0x4 ADD PUSH2 0x29C8 SWAP1 PUSH2 0x542C JUMP JUMPDEST PUSH1 0x40 MLOAD DUP1 SWAP2 SUB SWAP1 REVERT JUMPDEST PUSH0 PUSH1 0x40 MLOAD DUP1 PUSH1 0x80 ADD PUSH1 0x40 MSTORE DUP1 DUP7 PUSH20 0xFFFFFFFFFFFFFFFFFFFFFFFFFFFFFFFFFFFFFFFF AND DUP2 MSTORE PUSH1 0x20 ADD DUP6 DUP2 MSTORE PUSH1 0x20 ADD DUP5 ISZERO ISZERO DUP2 MSTORE PUSH1 0x20 ADD DUP4 ISZERO ISZERO DUP2 MSTORE POP SWAP1 POP PUSH1 0x6 PUSH0 CALLER PUSH20 0xFFFFFFFFFFFFFFFFFFFFFFFFFFFFFFFFFFFFFFFF AND PUSH20 0xFFFFFFFFFFFFFFFFFFFFFFFFFFFFFFFFFFFFFFFF AND DUP2 MSTORE PUSH1 0x20 ADD SWAP1 DUP2 MSTORE PUSH1 0x20 ADD PUSH0 KECCAK256 DUP2 SWAP1 DUP1 PUSH1 0x1 DUP2 SLOAD ADD DUP1 DUP3 SSTORE DUP1 SWAP2 POP POP PUSH1 0x1 SWAP1 SUB SWAP1 PUSH0 MSTORE PUSH1 0x20 PUSH0 KECCAK256 SWAP1 PUSH1 0x3 MUL ADD PUSH0 SWAP1 SWAP2 SWAP1 SWAP2 SWAP1 SWAP2 POP PUSH0 DUP3 ADD MLOAD DUP2 PUSH0 ADD PUSH0 PUSH2 0x100 EXP DUP2 SLOAD DUP2 PUSH20 0xFFFFFFFFFFFFFFFFFFFFFFFFFFFFFFFFFFFFFFFF MUL NOT AND SWAP1 DUP4 PUSH20 0xFFFFFFFFFFFFFFFFFFFFFFFFFFFFFFFFFFFFFFFF AND MUL OR SWAP1 SSTORE POP PUSH1 0x20 DUP3 ADD MLOAD DUP2 PUSH1 0x1 ADD SSTORE PUSH1 0x40 DUP3 ADD MLOAD DUP2 PUSH1 0x2 ADD PUSH0 PUSH2 0x100 EXP DUP2 SLOAD DUP2 PUSH1 0xFF MUL NOT AND SWAP1 DUP4 ISZERO ISZERO MUL OR SWAP1 SSTORE POP PUSH1 0x60 DUP3 ADD MLOAD DUP2 PUSH1 0x2 ADD PUSH1 0x1 PUSH2 0x100 EXP DUP2 SLOAD DUP2 PUSH1 0xFF MUL NOT AND SWAP1 DUP4 ISZERO ISZERO MUL OR SWAP1 SSTORE POP POP POP PUSH1 0x7 PUSH0 CALLER PUSH20 0xFFFFFFFFFFFFFFFFFFFFFFFFFFFFFFFFFFFFFFFF AND PUSH20 0xFFFFFFFFFFFFFFFFFFFFFFFFFFFFFFFFFFFFFFFF AND DUP2 MSTORE PUSH1 0x20 ADD SWAP1 DUP2 MSTORE PUSH1 0x20 ADD PUSH0 KECCAK256 PUSH1 0x3 ADD PUSH0 DUP2 SLOAD DUP1 SWAP3 SWAP2 SWAP1 PUSH2 0x2B52 SWAP1 PUSH2 0x4BA3 JUMP JUMPDEST SWAP2 SWAP1 POP SSTORE POP POP POP POP POP POP JUMP JUMPDEST PUSH1 0x4 PUSH1 0x20 MSTORE DUP1 PUSH0 MSTORE PUSH1 0x40 PUSH0 KECCAK256 PUSH0 SWAP2 POP SLOAD SWAP1 PUSH2 0x100 EXP SWAP1 DIV PUSH1 0xFF AND DUP2 JUMP JUMPDEST PUSH1 0x6 PUSH1 0x20 MSTORE DUP2 PUSH0 MSTORE PUSH1 0x40 PUSH0 KECCAK256 DUP2 DUP2 SLOAD DUP2 LT PUSH2 0x2B94 JUMPI PUSH0 DUP1 REVERT JUMPDEST SWAP1 PUSH0 MSTORE PUSH1 0x20 PUSH0 KECCAK256 SWAP1 PUSH1 0x3 MUL ADD PUSH0 SWAP2 POP SWAP2 POP POP DUP1 PUSH0 ADD PUSH0 SWAP1 SLOAD SWAP1 PUSH2 0x100 EXP SWAP1 DIV PUSH20 0xFFFFFFFFFFFFFFFFFFFFFFFFFFFFFFFFFFFFFFFF AND SWAP1 DUP1 PUSH1 0x1 ADD SLOAD SWAP1 DUP1 PUSH1 0x2 ADD PUSH0 SWAP1 SLOAD SWAP1 PUSH2 0x100 EXP SWAP1 DIV PUSH1 0xFF AND SWAP1 DUP1 PUSH1 0x2 ADD PUSH1 0x1 SWAP1 SLOAD SWAP1 PUSH2 0x100 EXP SWAP1 DIV PUSH1 0xFF AND SWAP1 POP DUP5 JUMP JUMPDEST PUSH1 0x14 DUP1 PUSH0 ADD SLOAD SWAP1 POP DUP2 JUMP JUMPDEST PUSH1 0xB PUSH1 0x20 MSTORE DUP1 PUSH0 MSTORE PUSH1 0x40 PUSH0 KECCAK256 PUSH0 SWAP2 POP SWAP1 POP SLOAD DUP2 JUMP JUMPDEST PUSH1 0x12 SLOAD DUP2 JUMP JUMPDEST PUSH0 DUP1 PUSH0 DUP5 DUP2 MSTORE PUSH1 0x20 ADD SWAP1 DUP2 MSTORE PUSH1 0x20 ADD PUSH0 KECCAK256 PUSH0 ADD PUSH0 DUP4 PUSH20 0xFFFFFFFFFFFFFFFFFFFFFFFFFFFFFFFFFFFFFFFF AND PUSH20 0xFFFFFFFFFFFFFFFFFFFFFFFFFFFFFFFFFFFFFFFF AND DUP2 MSTORE PUSH1 0x20 ADD SWAP1 DUP2 MSTORE PUSH1 0x20 ADD PUSH0 KECCAK256 PUSH0 SWAP1 SLOAD SWAP1 PUSH2 0x100 EXP SWAP1 DIV PUSH1 0xFF AND SWAP1 POP SWAP3 SWAP2 POP POP JUMP JUMPDEST PUSH0 DUP1 PUSH0 SHL PUSH2 0x2C8F DUP2 PUSH2 0x3655 JUMP JUMPDEST PUSH0 PUSH20 0xFFFFFFFFFFFFFFFFFFFFFFFFFFFFFFFFFFFFFFFF AND DUP6 PUSH20 0xFFFFFFFFFFFFFFFFFFFFFFFFFFFFFFFFFFFFFFFF AND SUB PUSH2 0x2CFD JUMPI PUSH1 0x40 MLOAD PUSH32 0x8C379A000000000000000000000000000000000000000000000000000000000 DUP2 MSTORE PUSH1 0x4 ADD PUSH2 0x2CF4 SWAP1 PUSH2 0x5494 JUMP JUMPDEST PUSH1 0x40 MLOAD DUP1 SWAP2 SUB SWAP1 REVERT JUMPDEST PUSH0 DUP5 GT DUP1 ISZERO PUSH2 0x2D0D JUMPI POP PUSH1 0xC DUP5 GT ISZERO JUMPDEST PUSH2 0x2D4C JUMPI PUSH1 0x40 MLOAD PUSH32 0x8C379A000000000000000000000000000000000000000000000000000000000 DUP2 MSTORE PUSH1 0x4 ADD PUSH2 0x2D43 SWAP1 PUSH2 0x54FC JUMP JUMPDEST PUSH1 0x40 MLOAD DUP1 SWAP2 SUB SWAP1 REVERT JUMPDEST PUSH0 PUSH1 0x1 DUP6 EQ DUP1 ISZERO PUSH2 0x2E18 JUMPI POP PUSH1 0x2 PUSH0 SWAP1 SLOAD SWAP1 PUSH2 0x100 EXP SWAP1 DIV PUSH20 0xFFFFFFFFFFFFFFFFFFFFFFFFFFFFFFFFFFFFFFFF AND PUSH20 0xFFFFFFFFFFFFFFFFFFFFFFFFFFFFFFFFFFFFFFFF AND PUSH4 0x2B722668 PUSH1 0xB PUSH0 DUP9 DUP2 MSTORE PUSH1 0x20 ADD SWAP1 DUP2 MSTORE PUSH1 0x20 ADD PUSH0 KECCAK256 SLOAD DUP8 PUSH1 0xB PUSH0 DUP11 DUP2 MSTORE PUSH1 0x20 ADD SWAP1 DUP2 MSTORE PUSH1 0x20 ADD PUSH0 KECCAK256 SLOAD PUSH1 0x40 MLOAD DUP5 PUSH4 0xFFFFFFFF AND PUSH1 0xE0 SHL DUP2 MSTORE PUSH1 0x4 ADD PUSH2 0x2DD8 SWAP4 SWAP3 SWAP2 SWAP1 PUSH2 0x4869 JUMP JUMPDEST PUSH1 0x20 PUSH1 0x40 MLOAD DUP1 DUP4 SUB DUP2 DUP7 GAS STATICCALL ISZERO DUP1 ISZERO PUSH2 0x2DF3 JUMPI RETURNDATASIZE PUSH0 DUP1 RETURNDATACOPY RETURNDATASIZE PUSH0 REVERT JUMPDEST POP POP POP POP PUSH1 0x40 MLOAD RETURNDATASIZE PUSH1 0x1F NOT PUSH1 0x1F DUP3 ADD AND DUP3 ADD DUP1 PUSH1 0x40 MSTORE POP DUP2 ADD SWAP1 PUSH2 0x2E17 SWAP2 SWAP1 PUSH2 0x5258 JUMP JUMPDEST JUMPDEST SWAP1 POP DUP1 DUP1 PUSH2 0x2E26 JUMPI POP PUSH1 0x1 DUP6 GT JUMPDEST PUSH2 0x2E65 JUMPI PUSH1 0x40 MLOAD PUSH32 0x8C379A000000000000000000000000000000000000000000000000000000000 DUP2 MSTORE PUSH1 0x4 ADD PUSH2 0x2E5C SWAP1 PUSH2 0x5564 JUMP JUMPDEST PUSH1 0x40 MLOAD DUP1 SWAP2 SUB SWAP1 REVERT JUMPDEST PUSH1 0xC PUSH0 DUP2 SLOAD DUP1 SWAP3 SWAP2 SWAP1 PUSH2 0x2E77 SWAP1 PUSH2 0x4BA3 JUMP JUMPDEST SWAP2 SWAP1 POP SSTORE POP PUSH0 PUSH1 0x1 PUSH1 0xB PUSH0 DUP9 DUP2 MSTORE PUSH1 0x20 ADD SWAP1 DUP2 MSTORE PUSH1 0x20 ADD PUSH0 KECCAK256 SLOAD PUSH2 0x2E9B SWAP2 SWAP1 PUSH2 0x4F36 JUMP JUMPDEST SWAP1 POP PUSH0 PUSH1 0x9 PUSH0 PUSH1 0xC SLOAD DUP2 MSTORE PUSH1 0x20 ADD SWAP1 DUP2 MSTORE PUSH1 0x20 ADD PUSH0 KECCAK256 SWAP1 POP DUP2 DUP2 PUSH0 ADD DUP2 SWAP1 SSTORE POP PUSH1 0xC SLOAD DUP2 PUSH1 0x1 ADD DUP2 SWAP1 SSTORE POP DUP7 DUP2 PUSH1 0x4 ADD DUP2 SWAP1 SSTORE POP DUP6 DUP2 PUSH1 0x5 ADD SWAP1 PUSH1 0x3 PUSH2 0x2EE2 SWAP3 SWAP2 SWAP1 PUSH2 0x395E JUMP JUMPDEST POP DUP8 DUP2 PUSH1 0x8 ADD PUSH0 PUSH2 0x100 EXP DUP2 SLOAD DUP2 PUSH20 0xFFFFFFFFFFFFFFFFFFFFFFFFFFFFFFFFFFFFFFFF MUL NOT AND SWAP1 DUP4 PUSH20 0xFFFFFFFFFFFFFFFFFFFFFFFFFFFFFFFFFFFFFFFF AND MUL OR SWAP1 SSTORE POP PUSH1 0x1 DUP2 PUSH1 0xA ADD PUSH0 PUSH2 0x100 EXP DUP2 SLOAD DUP2 PUSH1 0xFF MUL NOT AND SWAP1 DUP4 ISZERO ISZERO MUL OR SWAP1 SSTORE POP PUSH1 0xC SLOAD PUSH1 0xA PUSH0 DUP10 DUP2 MSTORE PUSH1 0x20 ADD SWAP1 DUP2 MSTORE PUSH1 0x20 ADD PUSH0 KECCAK256 PUSH0 DUP5 DUP2 MSTORE PUSH1 0x20 ADD SWAP1 DUP2 MSTORE PUSH1 0x20 ADD PUSH0 KECCAK256 DUP2 SWAP1 SSTORE POP PUSH1 0xB PUSH0 DUP9 DUP2 MSTORE PUSH1 0x20 ADD SWAP1 DUP2 MSTORE PUSH1 0x20 ADD PUSH0 KECCAK256 PUSH0 DUP2 SLOAD DUP1 SWAP3 SWAP2 SWAP1 PUSH2 0x2F89 SWAP1 PUSH2 0x4BA3 JUMP JUMPDEST SWAP2 SWAP1 POP SSTORE POP DUP8 PUSH20 0xFFFFFFFFFFFFFFFFFFFFFFFFFFFFFFFFFFFFFFFF AND PUSH1 0xC SLOAD PUSH32 0x30A9FD27D721361C991859BB305B103CE4B31EBADD084FC67DFF1A08EE2897DF DUP10 PUSH1 0x40 MLOAD PUSH2 0x2FD7 SWAP2 SWAP1 PUSH2 0x3C59 JUMP JUMPDEST PUSH1 0x40 MLOAD DUP1 SWAP2 SUB SWAP1 LOG3 PUSH1 0xC SLOAD SWAP5 POP POP POP POP POP SWAP4 SWAP3 POP POP POP JUMP JUMPDEST PUSH0 DUP1 SHL PUSH2 0x2FFB DUP2 PUSH2 0x3655 JUMP JUMPDEST PUSH1 0x10 PUSH0 DUP2 SLOAD DUP1 SWAP3 SWAP2 SWAP1 PUSH2 0x300D SWAP1 PUSH2 0x4BA3 JUMP JUMPDEST SWAP2 SWAP1 POP SSTORE POP PUSH0 PUSH1 0x9 PUSH1 0x10 SLOAD PUSH2 0x3022 SWAP2 SWAP1 PUSH2 0x55AF JUMP JUMPDEST SUB PUSH2 0x303F JUMPI PUSH1 0x11 PUSH0 DUP2 SLOAD DUP1 SWAP3 SWAP2 SWAP1 PUSH2 0x3039 SWAP1 PUSH2 0x4BA3 JUMP JUMPDEST SWAP2 SWAP1 POP SSTORE POP JUMPDEST TIMESTAMP PUSH1 0x12 DUP2 SWAP1 SSTORE POP POP JUMP JUMPDEST PUSH0 DUP1 SHL DUP2 JUMP JUMPDEST PUSH1 0x16 PUSH1 0x20 MSTORE DUP2 PUSH0 MSTORE PUSH1 0x40 PUSH0 KECCAK256 PUSH1 0x20 MSTORE DUP1 PUSH0 MSTORE PUSH1 0x40 PUSH0 KECCAK256 PUSH0 SWAP2 POP SWAP2 POP SWAP1 SLOAD SWAP1 PUSH2 0x100 EXP SWAP1 DIV PUSH1 0xFF AND DUP2 JUMP JUMPDEST PUSH1 0x18 PUSH1 0x20 MSTORE DUP1 PUSH0 MSTORE PUSH1 0x40 PUSH0 KECCAK256 PUSH0 SWAP2 POP SWAP1 POP DUP1 PUSH0 ADD SLOAD SWAP1 DUP1 PUSH1 0x1 ADD SLOAD SWAP1 DUP1 PUSH1 0x2 ADD SLOAD SWAP1 DUP1 PUSH1 0x3 ADD SLOAD SWAP1 POP DUP5 JUMP JUMPDEST PUSH1 0xC SLOAD DUP2 JUMP JUMPDEST PUSH2 0x30B7 PUSH0 DUP1 SHL CALLER PUSH2 0x2C1F JUMP JUMPDEST PUSH2 0x30F6 JUMPI PUSH1 0x40 MLOAD PUSH32 0x8C379A000000000000000000000000000000000000000000000000000000000 DUP2 MSTORE PUSH1 0x4 ADD PUSH2 0x30ED SWAP1 PUSH2 0x508F JUMP JUMPDEST PUSH1 0x40 MLOAD DUP1 SWAP2 SUB SWAP1 REVERT JUMPDEST PUSH0 PUSH1 0xE PUSH0 DUP8 DUP2 MSTORE PUSH1 0x20 ADD SWAP1 DUP2 MSTORE PUSH1 0x20 ADD PUSH0 KECCAK256 PUSH0 DUP7 DUP2 MSTORE PUSH1 0x20 ADD SWAP1 DUP2 MSTORE PUSH1 0x20 ADD PUSH0 KECCAK256 SWAP1 POP DUP4 DUP2 PUSH1 0x1 ADD DUP2 SWAP1 SSTORE POP DUP3 DUP2 PUSH1 0x2 ADD DUP2 SWAP1 SSTORE POP DUP2 DUP2 PUSH1 0x3 ADD PUSH0 PUSH2 0x100 EXP DUP2 SLOAD DUP2 PUSH1 0xFF MUL NOT AND SWAP1 DUP4 ISZERO ISZERO MUL OR SWAP1 SSTORE POP TIMESTAMP DUP2 PUSH1 0x6 ADD DUP2 SWAP1 SSTORE POP POP POP POP POP POP POP JUMP JUMPDEST PUSH1 0x9 PUSH1 0x20 MSTORE DUP1 PUSH0 MSTORE PUSH1 0x40 PUSH0 KECCAK256 PUSH0 SWAP2 POP SWAP1 POP DUP1 PUSH0 ADD SLOAD SWAP1 DUP1 PUSH1 0x1 ADD SLOAD SWAP1 DUP1 PUSH1 0x2 ADD SLOAD SWAP1 DUP1 PUSH1 0x3 ADD SLOAD SWAP1 DUP1 PUSH1 0x4 ADD SLOAD SWAP1 DUP1 PUSH1 0x8 ADD PUSH0 SWAP1 SLOAD SWAP1 PUSH2 0x100 EXP SWAP1 DIV PUSH20 0xFFFFFFFFFFFFFFFFFFFFFFFFFFFFFFFFFFFFFFFF AND SWAP1 DUP1 PUSH1 0xA ADD PUSH0 SWAP1 SLOAD SWAP1 PUSH2 0x100 EXP SWAP1 DIV PUSH1 0xFF AND SWAP1 POP DUP8 JUMP JUMPDEST PUSH0 DUP1 SHL PUSH2 0x31CC DUP2 PUSH2 0x3655 JUMP JUMPDEST PUSH1 0xF SLOAD DUP4 GT ISZERO PUSH2 0x3211 JUMPI PUSH1 0x40 MLOAD PUSH32 0x8C379A000000000000000000000000000000000000000000000000000000000 DUP2 MSTORE PUSH1 0x4 ADD PUSH2 0x3208 SWAP1 PUSH2 0x4713 JUMP JUMPDEST PUSH1 0x40 MLOAD DUP1 SWAP2 SUB SWAP1 REVERT JUMPDEST PUSH0 DUP3 PUSH1 0xFF AND GT PUSH2 0x3256 JUMPI PUSH1 0x40 MLOAD PUSH32 0x8C379A000000000000000000000000000000000000000000000000000000000 DUP2 MSTORE PUSH1 0x4 ADD PUSH2 0x324D SWAP1 PUSH2 0x5629 JUMP JUMPDEST PUSH1 0x40 MLOAD DUP1 SWAP2 SUB SWAP1 REVERT JUMPDEST PUSH0 PUSH1 0x19 PUSH0 DUP6 DUP2 MSTORE PUSH1 0x20 ADD SWAP1 DUP2 MSTORE PUSH1 0x20 ADD PUSH0 KECCAK256 PUSH0 SWAP1 SLOAD SWAP1 PUSH2 0x100 EXP SWAP1 DIV PUSH1 0xFF AND SWAP1 POP DUP3 PUSH1 0xFF AND DUP2 PUSH1 0xFF AND SUB PUSH2 0x32BF JUMPI PUSH1 0x40 MLOAD PUSH32 0x8C379A000000000000000000000000000000000000000000000000000000000 DUP2 MSTORE PUSH1 0x4 ADD PUSH2 0x32B6 SWAP1 PUSH2 0x5691 JUMP JUMPDEST PUSH1 0x40 MLOAD DUP1 SWAP2 SUB SWAP1 REVERT JUMPDEST DUP3 PUSH1 0x19 PUSH0 DUP7 DUP2 MSTORE PUSH1 0x20 ADD SWAP1 DUP2 MSTORE PUSH1 0x20 ADD PUSH0 KECCAK256 PUSH0 PUSH2 0x100 EXP DUP2 SLOAD DUP2 PUSH1 0xFF MUL NOT AND SWAP1 DUP4 PUSH1 0xFF AND MUL OR SWAP1 SSTORE POP PUSH1 0x1 NUMBER PUSH2 0x32F5 SWAP2 SWAP1 PUSH2 0x4D8A JUMP JUMPDEST BLOCKHASH DUP5 PUSH32 0xA27742976EFC6CBA3C391A1286F4C2989AB827DBBB2F347C38835319D617D054 DUP4 DUP7 TIMESTAMP PUSH1 0x40 MLOAD PUSH2 0x332A SWAP4 SWAP3 SWAP2 SWAP1 PUSH2 0x56AF JUMP JUMPDEST PUSH1 0x40 MLOAD DUP1 SWAP2 SUB SWAP1 LOG3 POP POP POP POP JUMP JUMPDEST PUSH2 0x3341 DUP3 PUSH2 0xF5F JUMP JUMPDEST PUSH2 0x334A DUP2 PUSH2 0x3655 JUMP JUMPDEST PUSH2 0x3354 DUP4 DUP4 PUSH2 0x3759 JUMP JUMPDEST POP POP POP POP JUMP JUMPDEST PUSH1 0xF SLOAD DUP2 JUMP JUMPDEST PUSH1 0x17 PUSH1 0x20 MSTORE DUP1 PUSH0 MSTORE PUSH1 0x40 PUSH0 KECCAK256 PUSH0 SWAP2 POP SWAP1 POP SLOAD DUP2 JUMP JUMPDEST PUSH1 0x19 PUSH1 0x20 MSTORE DUP1 PUSH0 MSTORE PUSH1 0x40 PUSH0 KECCAK256 PUSH0 SWAP2 POP SLOAD SWAP1 PUSH2 0x100 EXP SWAP1 DIV PUSH1 0xFF AND DUP2 JUMP JUMPDEST DUP1 PUSH1 0x5 PUSH0 DUP5 PUSH20 0xFFFFFFFFFFFFFFFFFFFFFFFFFFFFFFFFFFFFFFFF AND PUSH20 0xFFFFFFFFFFFFFFFFFFFFFFFFFFFFFFFFFFFFFFFF AND DUP2 MSTORE PUSH1 0x20 ADD SWAP1 DUP2 MSTORE PUSH1 0x20 ADD PUSH0 KECCAK256 DUP2 SWAP1 SSTORE POP POP POP JUMP JUMPDEST PUSH32 0x0 DUP2 JUMP JUMPDEST PUSH0 PUSH1 0xF PUSH0 DUP2 SLOAD DUP1 SWAP3 SWAP2 SWAP1 PUSH2 0x340F SWAP1 PUSH2 0x4BA3 JUMP JUMPDEST SWAP2 SWAP1 POP SSTORE POP PUSH0 PUSH1 0x3 PUSH0 PUSH1 0xF SLOAD DUP2 MSTORE PUSH1 0x20 ADD SWAP1 DUP2 MSTORE PUSH1 0x20 ADD PUSH0 KECCAK256 SWAP1 POP PUSH1 0xF SLOAD DUP2 PUSH0 ADD DUP2 SWAP1 SSTORE POP DUP6 DUP2 PUSH1 0x1 ADD PUSH0 PUSH2 0x100 EXP DUP2 SLOAD DUP2 PUSH20 0xFFFFFFFFFFFFFFFFFFFFFFFFFFFFFFFFFFFFFFFF MUL NOT AND SWAP1 DUP4 PUSH20 0xFFFFFFFFFFFFFFFFFFFFFFFFFFFFFFFFFFFFFFFF AND MUL OR SWAP1 SSTORE POP DUP4 DUP2 PUSH1 0x2 ADD DUP2 SWAP1 SSTORE POP DUP3 DUP2 PUSH1 0x3 ADD DUP2 SWAP1 SSTORE POP DUP5 DUP2 PUSH1 0x7 ADD PUSH0 PUSH2 0x100 EXP DUP2 SLOAD DUP2 PUSH1 0xFF MUL NOT AND SWAP1 DUP4 PUSH1 0xFF AND MUL OR SWAP1 SSTORE POP PUSH1 0x5 PUSH0 DUP8 PUSH20 0xFFFFFFFFFFFFFFFFFFFFFFFFFFFFFFFFFFFFFFFF AND PUSH20 0xFFFFFFFFFFFFFFFFFFFFFFFFFFFFFFFFFFFFFFFF AND DUP2 MSTORE PUSH1 0x20 ADD SWAP1 DUP2 MSTORE PUSH1 0x20 ADD PUSH0 KECCAK256 SLOAD DUP2 PUSH1 0x8 ADD DUP2 SWAP1 SSTORE POP PUSH1 0x1 PUSH1 0x19 PUSH0 PUSH1 0xF SLOAD DUP2 MSTORE PUSH1 0x20 ADD SWAP1 DUP2 MSTORE PUSH1 0x20 ADD PUSH0 KECCAK256 PUSH0 PUSH2 0x100 EXP DUP2 SLOAD DUP2 PUSH1 0xFF MUL NOT AND SWAP1 DUP4 PUSH1 0xFF AND MUL OR SWAP1 SSTORE POP DUP6 PUSH20 0xFFFFFFFFFFFFFFFFFFFFFFFFFFFFFFFFFFFFFFFF AND PUSH1 0xF SLOAD PUSH32 0xB9CEB5092B075C6E5838B80D6E1B0DBD84B2C12AB787AE5349C6B565A5C8BA67 DUP8 DUP8 DUP8 DUP7 PUSH1 0x8 ADD SLOAD PUSH1 0x40 MLOAD PUSH2 0x3569 SWAP5 SWAP4 SWAP3 SWAP2 SWAP1 PUSH2 0x56E4 JUMP JUMPDEST PUSH1 0x40 MLOAD DUP1 SWAP2 SUB SWAP1 LOG3 PUSH1 0xF SLOAD SWAP2 POP POP SWAP5 SWAP4 POP POP POP POP JUMP JUMPDEST PUSH1 0x5 PUSH1 0x20 MSTORE DUP1 PUSH0 MSTORE PUSH1 0x40 PUSH0 KECCAK256 PUSH0 SWAP2 POP SWAP1 POP SLOAD DUP2 JUMP JUMPDEST PUSH0 PUSH32 0x1FFC9A700000000000000000000000000000000000000000000000000000000 PUSH28 0xFFFFFFFFFFFFFFFFFFFFFFFFFFFFFFFFFFFFFFFFFFFFFFFFFFFFFFFF NOT AND DUP3 PUSH28 0xFFFFFFFFFFFFFFFFFFFFFFFFFFFFFFFFFFFFFFFFFFFFFFFFFFFFFFFF NOT AND EQ SWAP1 POP SWAP2 SWAP1 POP JUMP JUMPDEST PUSH1 0x2 PUSH1 0x1 SLOAD SUB PUSH2 0x3642 JUMPI PUSH1 0x40 MLOAD PUSH32 0x8C379A000000000000000000000000000000000000000000000000000000000 DUP2 MSTORE PUSH1 0x4 ADD PUSH2 0x3639 SWAP1 PUSH2 0x5771 JUMP JUMPDEST PUSH1 0x40 MLOAD DUP1 SWAP2 SUB SWAP1 REVERT JUMPDEST PUSH1 0x2 PUSH1 0x1 DUP2 SWAP1 SSTORE POP JUMP JUMPDEST PUSH1 0x1 DUP1 DUP2 SWAP1 SSTORE POP JUMP JUMPDEST PUSH2 0x3666 DUP2 PUSH2 0x3661 PUSH2 0x3752 JUMP JUMPDEST PUSH2 0x3842 JUMP JUMPDEST POP JUMP JUMPDEST PUSH0 PUSH2 0x3674 DUP4 DUP4 PUSH2 0x2C1F JUMP JUMPDEST PUSH2 0x3748 JUMPI PUSH1 0x1 PUSH0 DUP1 DUP6 DUP2 MSTORE PUSH1 0x20 ADD SWAP1 DUP2 MSTORE PUSH1 0x20 ADD PUSH0 KECCAK256 PUSH0 ADD PUSH0 DUP5 PUSH20 0xFFFFFFFFFFFFFFFFFFFFFFFFFFFFFFFFFFFFFFFF AND PUSH20 0xFFFFFFFFFFFFFFFFFFFFFFFFFFFFFFFFFFFFFFFF AND DUP2 MSTORE PUSH1 0x20 ADD SWAP1 DUP2 MSTORE PUSH1 0x20 ADD PUSH0 KECCAK256 PUSH0 PUSH2 0x100 EXP DUP2 SLOAD DUP2 PUSH1 0xFF MUL NOT AND SWAP1 DUP4 ISZERO ISZERO MUL OR SWAP1 SSTORE POP PUSH2 0x36E5 PUSH2 0x3752 JUMP JUMPDEST PUSH20 0xFFFFFFFFFFFFFFFFFFFFFFFFFFFFFFFFFFFFFFFF AND DUP3 PUSH20 0xFFFFFFFFFFFFFFFFFFFFFFFFFFFFFFFFFFFFFFFF AND DUP5 PUSH32 0x2F8788117E7EFF1D82E926EC794901D17C78024A50270940304540A733656F0D PUSH1 0x40 MLOAD PUSH1 0x40 MLOAD DUP1 SWAP2 SUB SWAP1 LOG4 PUSH1 0x1 SWAP1 POP PUSH2 0x374C JUMP JUMPDEST PUSH0 SWAP1 POP JUMPDEST SWAP3 SWAP2 POP POP JUMP JUMPDEST PUSH0 CALLER SWAP1 POP SWAP1 JUMP JUMPDEST PUSH0 PUSH2 0x3764 DUP4 DUP4 PUSH2 0x2C1F JUMP JUMPDEST ISZERO PUSH2 0x3838 JUMPI PUSH0 DUP1 PUSH0 DUP6 DUP2 MSTORE PUSH1 0x20 ADD SWAP1 DUP2 MSTORE PUSH1 0x20 ADD PUSH0 KECCAK256 PUSH0 ADD PUSH0 DUP5 PUSH20 0xFFFFFFFFFFFFFFFFFFFFFFFFFFFFFFFFFFFFFFFF AND PUSH20 0xFFFFFFFFFFFFFFFFFFFFFFFFFFFFFFFFFFFFFFFF AND DUP2 MSTORE PUSH1 0x20 ADD SWAP1 DUP2 MSTORE PUSH1 0x20 ADD PUSH0 KECCAK256 PUSH0 PUSH2 0x100 EXP DUP2 SLOAD DUP2 PUSH1 0xFF MUL NOT AND SWAP1 DUP4 ISZERO ISZERO MUL OR SWAP1 SSTORE POP PUSH2 0x37D5 PUSH2 0x3752 JUMP JUMPDEST PUSH20 0xFFFFFFFFFFFFFFFFFFFFFFFFFFFFFFFFFFFFFFFF AND DUP3 PUSH20 0xFFFFFFFFFFFFFFFFFFFFFFFFFFFFFFFFFFFFFFFF AND DUP5 PUSH32 0xF6391F5C32D9C69D2A47EA670B442974B53935D1EDC7FD64EB21E047A839171B PUSH1 0x40 MLOAD PUSH1 0x40 MLOAD DUP1 SWAP2 SUB SWAP1 LOG4 PUSH1 0x1 SWAP1 POP PUSH2 0x383C JUMP JUMPDEST PUSH0 SWAP1 POP JUMPDEST SWAP3 SWAP2 POP POP JUMP JUMPDEST PUSH2 0x384C DUP3 DUP3 PUSH2 0x2C1F JUMP JUMPDEST PUSH2 0x388F JUMPI DUP1 DUP3 PUSH1 0x40 MLOAD PUSH32 0xE2517D3F00000000000000000000000000000000000000000000000000000000 DUP2 MSTORE PUSH1 0x4 ADD PUSH2 0x3886 SWAP3 SWAP2 SWAP1 PUSH2 0x578F JUMP JUMPDEST PUSH1 0x40 MLOAD DUP1 SWAP2 SUB SWAP1 REVERT JUMPDEST POP POP JUMP JUMPDEST DUP3 DUP1 SLOAD DUP3 DUP3 SSTORE SWAP1 PUSH0 MSTORE PUSH1 0x20 PUSH0 KECCAK256 SWAP1 DUP2 ADD SWAP3 DUP3 ISZERO PUSH2 0x3909 JUMPI SWAP2 PUSH1 0x20 MUL DUP3 ADD JUMPDEST DUP3 DUP2 GT ISZERO PUSH2 0x3908 JUMPI DUP3 MLOAD DUP3 PUSH0 PUSH2 0x100 EXP DUP2 SLOAD DUP2 PUSH20 0xFFFFFFFFFFFFFFFFFFFFFFFFFFFFFFFFFFFFFFFF MUL NOT AND SWAP1 DUP4 PUSH20 0xFFFFFFFFFFFFFFFFFFFFFFFFFFFFFFFFFFFFFFFF AND MUL OR SWAP1 SSTORE POP SWAP2 PUSH1 0x20 ADD SWAP2 SWAP1 PUSH1 0x1 ADD SWAP1 PUSH2 0x38B1 JUMP JUMPDEST JUMPDEST POP SWAP1 POP PUSH2 0x3916 SWAP2 SWAP1 PUSH2 0x399E JUMP JUMPDEST POP SWAP1 JUMP JUMPDEST PUSH1 0x40 MLOAD DUP1 PUSH2 0x100 ADD PUSH1 0x40 MSTORE DUP1 PUSH0 DUP2 MSTORE PUSH1 0x20 ADD PUSH0 DUP2 MSTORE PUSH1 0x20 ADD PUSH0 ISZERO ISZERO DUP2 MSTORE PUSH1 0x20 ADD PUSH0 ISZERO ISZERO DUP2 MSTORE PUSH1 0x20 ADD PUSH0 DUP2 MSTORE PUSH1 0x20 ADD PUSH0 DUP2 MSTORE PUSH1 0x20 ADD PUSH0 PUSH1 0xFF AND DUP2 MSTORE PUSH1 0x20 ADD PUSH0 DUP2 MSTORE POP SWAP1 JUMP JUMPDEST DUP3 PUSH1 0x3 DUP2 ADD SWAP3 DUP3 ISZERO PUSH2 0x398D JUMPI SWAP2 PUSH1 0x20 MUL DUP3 ADD JUMPDEST DUP3 DUP2 GT ISZERO PUSH2 0x398C JUMPI DUP3 MLOAD DUP3 SSTORE SWAP2 PUSH1 0x20 ADD SWAP2 SWAP1 PUSH1 0x1 ADD SWAP1 PUSH2 0x3971 JUMP JUMPDEST JUMPDEST POP SWAP1 POP PUSH2 0x399A SWAP2 SWAP1 PUSH2 0x39B9 JUMP JUMPDEST POP SWAP1 JUMP JUMPDEST JUMPDEST DUP1 DUP3 GT ISZERO PUSH2 0x39B5 JUMPI PUSH0 DUP2 PUSH0 SWAP1 SSTORE POP PUSH1 0x1 ADD PUSH2 0x399F JUMP JUMPDEST POP SWAP1 JUMP JUMPDEST JUMPDEST DUP1 DUP3 GT ISZERO PUSH2 0x39D0 JUMPI PUSH0 DUP2 PUSH0 SWAP1 SSTORE POP PUSH1 0x1 ADD PUSH2 0x39BA JUMP JUMPDEST POP SWAP1 JUMP JUMPDEST PUSH0 PUSH1 0x40 MLOAD SWAP1 POP SWAP1 JUMP JUMPDEST PUSH0 DUP1 REVERT JUMPDEST PUSH0 DUP2 SWAP1 POP SWAP2 SWAP1 POP JUMP JUMPDEST PUSH2 0x39F3 DUP2 PUSH2 0x39E1 JUMP JUMPDEST DUP2 EQ PUSH2 0x39FD JUMPI PUSH0 DUP1 REVERT JUMPDEST POP JUMP JUMPDEST PUSH0 DUP2 CALLDATALOAD SWAP1 POP PUSH2 0x3A0E DUP2 PUSH2 0x39EA JUMP JUMPDEST SWAP3 SWAP2 POP POP JUMP JUMPDEST PUSH0 PUSH1 0x20 DUP3 DUP5 SUB SLT ISZERO PUSH2 0x3A29 JUMPI PUSH2 0x3A28 PUSH2 0x39DD JUMP JUMPDEST JUMPDEST PUSH0 PUSH2 0x3A36 DUP5 DUP3 DUP6 ADD PUSH2 0x3A00 JUMP JUMPDEST SWAP2 POP POP SWAP3 SWAP2 POP POP JUMP JUMPDEST PUSH2 0x3A48 DUP2 PUSH2 0x39E1 JUMP JUMPDEST DUP3 MSTORE POP POP JUMP JUMPDEST PUSH0 PUSH20 0xFFFFFFFFFFFFFFFFFFFFFFFFFFFFFFFFFFFFFFFF DUP3 AND SWAP1 POP SWAP2 SWAP1 POP JUMP JUMPDEST PUSH0 PUSH2 0x3A77 DUP3 PUSH2 0x3A4E JUMP JUMPDEST SWAP1 POP SWAP2 SWAP1 POP JUMP JUMPDEST PUSH2 0x3A87 DUP2 PUSH2 0x3A6D JUMP JUMPDEST DUP3 MSTORE POP POP JUMP JUMPDEST PUSH0 PUSH1 0xFF DUP3 AND SWAP1 POP SWAP2 SWAP1 POP JUMP JUMPDEST PUSH2 0x3AA2 DUP2 PUSH2 0x3A8D JUMP JUMPDEST DUP3 MSTORE POP POP JUMP JUMPDEST PUSH0 DUP2 ISZERO ISZERO SWAP1 POP SWAP2 SWAP1 POP JUMP JUMPDEST PUSH2 0x3ABC DUP2 PUSH2 0x3AA8 JUMP JUMPDEST DUP3 MSTORE POP POP JUMP JUMPDEST PUSH0 PUSH2 0x160 DUP3 ADD SWAP1 POP PUSH2 0x3AD6 PUSH0 DUP4 ADD DUP15 PUSH2 0x3A3F JUMP JUMPDEST PUSH2 0x3AE3 PUSH1 0x20 DUP4 ADD DUP14 PUSH2 0x3A7E JUMP JUMPDEST PUSH2 0x3AF0 PUSH1 0x40 DUP4 ADD DUP13 PUSH2 0x3A3F JUMP JUMPDEST PUSH2 0x3AFD PUSH1 0x60 DUP4 ADD DUP12 PUSH2 0x3A3F JUMP JUMPDEST PUSH2 0x3B0A PUSH1 0x80 DUP4 ADD DUP11 PUSH2 0x3A3F JUMP JUMPDEST PUSH2 0x3B17 PUSH1 0xA0 DUP4 ADD DUP10 PUSH2 0x3A3F JUMP JUMPDEST PUSH2 0x3B24 PUSH1 0xC0 DUP4 ADD DUP9 PUSH2 0x3A3F JUMP JUMPDEST PUSH2 0x3B31 PUSH1 0xE0 DUP4 ADD DUP8 PUSH2 0x3A99 JUMP JUMPDEST PUSH2 0x3B3F PUSH2 0x100 DUP4 ADD DUP7 PUSH2 0x3AB3 JUMP JUMPDEST PUSH2 0x3B4D PUSH2 0x120 DUP4 ADD DUP6 PUSH2 0x3AB3 JUMP JUMPDEST PUSH2 0x3B5B PUSH2 0x140 DUP4 ADD DUP5 PUSH2 0x3A3F JUMP JUMPDEST SWAP13 SWAP12 POP POP POP POP POP POP POP POP POP POP POP POP JUMP JUMPDEST PUSH0 PUSH32 0xFFFFFFFF00000000000000000000000000000000000000000000000000000000 DUP3 AND SWAP1 POP SWAP2 SWAP1 POP JUMP JUMPDEST PUSH2 0x3B9F DUP2 PUSH2 0x3B6B JUMP JUMPDEST DUP2 EQ PUSH2 0x3BA9 JUMPI PUSH0 DUP1 REVERT JUMPDEST POP JUMP JUMPDEST PUSH0 DUP2 CALLDATALOAD SWAP1 POP PUSH2 0x3BBA DUP2 PUSH2 0x3B96 JUMP JUMPDEST SWAP3 SWAP2 POP POP JUMP JUMPDEST PUSH0 PUSH1 0x20 DUP3 DUP5 SUB SLT ISZERO PUSH2 0x3BD5 JUMPI PUSH2 0x3BD4 PUSH2 0x39DD JUMP JUMPDEST JUMPDEST PUSH0 PUSH2 0x3BE2 DUP5 DUP3 DUP6 ADD PUSH2 0x3BAC JUMP JUMPDEST SWAP2 POP POP SWAP3 SWAP2 POP POP JUMP JUMPDEST PUSH0 PUSH1 0x20 DUP3 ADD SWAP1 POP PUSH2 0x3BFE PUSH0 DUP4 ADD DUP5 PUSH2 0x3AB3 JUMP JUMPDEST SWAP3 SWAP2 POP POP JUMP JUMPDEST PUSH2 0x3C0D DUP2 PUSH2 0x3A6D JUMP JUMPDEST DUP2 EQ PUSH2 0x3C17 JUMPI PUSH0 DUP1 REVERT JUMPDEST POP JUMP JUMPDEST PUSH0 DUP2 CALLDATALOAD SWAP1 POP PUSH2 0x3C28 DUP2 PUSH2 0x3C04 JUMP JUMPDEST SWAP3 SWAP2 POP POP JUMP JUMPDEST PUSH0 PUSH1 0x20 DUP3 DUP5 SUB SLT ISZERO PUSH2 0x3C43 JUMPI PUSH2 0x3C42 PUSH2 0x39DD JUMP JUMPDEST JUMPDEST PUSH0 PUSH2 0x3C50 DUP5 DUP3 DUP6 ADD PUSH2 0x3C1A JUMP JUMPDEST SWAP2 POP POP SWAP3 SWAP2 POP POP JUMP JUMPDEST PUSH0 PUSH1 0x20 DUP3 ADD SWAP1 POP PUSH2 0x3C6C PUSH0 DUP4 ADD DUP5 PUSH2 0x3A3F JUMP JUMPDEST SWAP3 SWAP2 POP POP JUMP JUMPDEST PUSH0 DUP2 SWAP1 POP SWAP2 SWAP1 POP JUMP JUMPDEST PUSH2 0x3C84 DUP2 PUSH2 0x3C72 JUMP JUMPDEST DUP2 EQ PUSH2 0x3C8E JUMPI PUSH0 DUP1 REVERT JUMPDEST POP JUMP JUMPDEST PUSH0 DUP2 CALLDATALOAD SWAP1 POP PUSH2 0x3C9F DUP2 PUSH2 0x3C7B JUMP JUMPDEST SWAP3 SWAP2 POP POP JUMP JUMPDEST PUSH0 PUSH1 0x20 DUP3 DUP5 SUB SLT ISZERO PUSH2 0x3CBA JUMPI PUSH2 0x3CB9 PUSH2 0x39DD JUMP JUMPDEST JUMPDEST PUSH0 PUSH2 0x3CC7 DUP5 DUP3 DUP6 ADD PUSH2 0x3C91 JUMP JUMPDEST SWAP2 POP POP SWAP3 SWAP2 POP POP JUMP JUMPDEST PUSH2 0x3CD9 DUP2 PUSH2 0x3C72 JUMP JUMPDEST DUP3 MSTORE POP POP JUMP JUMPDEST PUSH0 PUSH1 0x20 DUP3 ADD SWAP1 POP PUSH2 0x3CF2 PUSH0 DUP4 ADD DUP5 PUSH2 0x3CD0 JUMP JUMPDEST SWAP3 SWAP2 POP POP JUMP JUMPDEST PUSH0 DUP1 PUSH1 0x40 DUP4 DUP6 SUB SLT ISZERO PUSH2 0x3D0E JUMPI PUSH2 0x3D0D PUSH2 0x39DD JUMP JUMPDEST JUMPDEST PUSH0 PUSH2 0x3D1B DUP6 DUP3 DUP7 ADD PUSH2 0x3C91 JUMP JUMPDEST SWAP3 POP POP PUSH1 0x20 PUSH2 0x3D2C DUP6 DUP3 DUP7 ADD PUSH2 0x3C1A JUMP JUMPDEST SWAP2 POP POP SWAP3 POP SWAP3 SWAP1 POP JUMP JUMPDEST PUSH0 DUP1 PUSH0 DUP1 PUSH1 0x80 DUP6 DUP8 SUB SLT ISZERO PUSH2 0x3D4E JUMPI PUSH2 0x3D4D PUSH2 0x39DD JUMP JUMPDEST JUMPDEST PUSH0 PUSH2 0x3D5B DUP8 DUP3 DUP9 ADD PUSH2 0x3A00 JUMP JUMPDEST SWAP5 POP POP PUSH1 0x20 PUSH2 0x3D6C DUP8 DUP3 DUP9 ADD PUSH2 0x3A00 JUMP JUMPDEST SWAP4 POP POP PUSH1 0x40 PUSH2 0x3D7D DUP8 DUP3 DUP9 ADD PUSH2 0x3A00 JUMP JUMPDEST SWAP3 POP POP PUSH1 0x60 PUSH2 0x3D8E DUP8 DUP3 DUP9 ADD PUSH2 0x3A00 JUMP JUMPDEST SWAP2 POP POP SWAP3 SWAP6 SWAP2 SWAP5 POP SWAP3 POP JUMP JUMPDEST PUSH0 PUSH1 0x60 DUP3 ADD SWAP1 POP PUSH2 0x3DAD PUSH0 DUP4 ADD DUP7 PUSH2 0x3A3F JUMP JUMPDEST PUSH2 0x3DBA PUSH1 0x20 DUP4 ADD DUP6 PUSH2 0x3AB3 JUMP JUMPDEST PUSH2 0x3DC7 PUSH1 0x40 DUP4 ADD DUP5 PUSH2 0x3AB3 JUMP JUMPDEST SWAP5 SWAP4 POP POP POP POP JUMP JUMPDEST PUSH0 DUP1 PUSH1 0x40 DUP4 DUP6 SUB SLT ISZERO PUSH2 0x3DE5 JUMPI PUSH2 0x3DE4 PUSH2 0x39DD JUMP JUMPDEST JUMPDEST PUSH0 PUSH2 0x3DF2 DUP6 DUP3 DUP7 ADD PUSH2 0x3A00 JUMP JUMPDEST SWAP3 POP POP PUSH1 0x20 PUSH2 0x3E03 DUP6 DUP3 DUP7 ADD PUSH2 0x3A00 JUMP JUMPDEST SWAP2 POP POP SWAP3 POP SWAP3 SWAP1 POP JUMP JUMPDEST PUSH0 DUP2 MLOAD SWAP1 POP SWAP2 SWAP1 POP JUMP JUMPDEST PUSH0 DUP3 DUP3 MSTORE PUSH1 0x20 DUP3 ADD SWAP1 POP SWAP3 SWAP2 POP POP JUMP JUMPDEST PUSH0 JUMPDEST DUP4 DUP2 LT ISZERO PUSH2 0x3E44 JUMPI DUP1 DUP3 ADD MLOAD DUP2 DUP5 ADD MSTORE PUSH1 0x20 DUP2 ADD SWAP1 POP PUSH2 0x3E29 JUMP JUMPDEST PUSH0 DUP5 DUP5 ADD MSTORE POP POP POP POP JUMP JUMPDEST PUSH0 PUSH1 0x1F NOT PUSH1 0x1F DUP4 ADD AND SWAP1 POP SWAP2 SWAP1 POP JUMP JUMPDEST PUSH0 PUSH2 0x3E69 DUP3 PUSH2 0x3E0D JUMP JUMPDEST PUSH2 0x3E73 DUP2 DUP6 PUSH2 0x3E17 JUMP JUMPDEST SWAP4 POP PUSH2 0x3E83 DUP2 DUP6 PUSH1 0x20 DUP7 ADD PUSH2 0x3E27 JUMP JUMPDEST PUSH2 0x3E8C DUP2 PUSH2 0x3E4F JUMP JUMPDEST DUP5 ADD SWAP2 POP POP SWAP3 SWAP2 POP POP JUMP JUMPDEST PUSH0 PUSH1 0x20 DUP3 ADD SWAP1 POP DUP2 DUP2 SUB PUSH0 DUP4 ADD MSTORE PUSH2 0x3EAF DUP2 DUP5 PUSH2 0x3E5F JUMP JUMPDEST SWAP1 POP SWAP3 SWAP2 POP POP JUMP JUMPDEST PUSH0 PUSH1 0x20 DUP3 ADD SWAP1 POP PUSH2 0x3ECA PUSH0 DUP4 ADD DUP5 PUSH2 0x3A7E JUMP JUMPDEST SWAP3 SWAP2 POP POP JUMP JUMPDEST PUSH0 PUSH1 0x80 DUP3 ADD SWAP1 POP PUSH2 0x3EE3 PUSH0 DUP4 ADD DUP8 PUSH2 0x3A3F JUMP JUMPDEST PUSH2 0x3EF0 PUSH1 0x20 DUP4 ADD DUP7 PUSH2 0x3A3F JUMP JUMPDEST PUSH2 0x3EFD PUSH1 0x40 DUP4 ADD DUP6 PUSH2 0x3AB3 JUMP JUMPDEST PUSH2 0x3F0A PUSH1 0x60 DUP4 ADD DUP5 PUSH2 0x3AB3 JUMP JUMPDEST SWAP6 SWAP5 POP POP POP POP POP JUMP JUMPDEST PUSH2 0x3F1C DUP2 PUSH2 0x3AA8 JUMP JUMPDEST DUP2 EQ PUSH2 0x3F26 JUMPI PUSH0 DUP1 REVERT JUMPDEST POP JUMP JUMPDEST PUSH0 DUP2 CALLDATALOAD SWAP1 POP PUSH2 0x3F37 DUP2 PUSH2 0x3F13 JUMP JUMPDEST SWAP3 SWAP2 POP POP JUMP JUMPDEST PUSH0 DUP1 PUSH0 PUSH1 0x60 DUP5 DUP7 SUB SLT ISZERO PUSH2 0x3F54 JUMPI PUSH2 0x3F53 PUSH2 0x39DD JUMP JUMPDEST JUMPDEST PUSH0 PUSH2 0x3F61 DUP7 DUP3 DUP8 ADD PUSH2 0x3A00 JUMP JUMPDEST SWAP4 POP POP PUSH1 0x20 PUSH2 0x3F72 DUP7 DUP3 DUP8 ADD PUSH2 0x3F29 JUMP JUMPDEST SWAP3 POP POP PUSH1 0x40 PUSH2 0x3F83 DUP7 DUP3 DUP8 ADD PUSH2 0x3A00 JUMP JUMPDEST SWAP2 POP POP SWAP3 POP SWAP3 POP SWAP3 JUMP JUMPDEST PUSH0 PUSH1 0xC0 DUP3 ADD SWAP1 POP PUSH2 0x3FA0 PUSH0 DUP4 ADD DUP10 PUSH2 0x3AB3 JUMP JUMPDEST PUSH2 0x3FAD PUSH1 0x20 DUP4 ADD DUP9 PUSH2 0x3A3F JUMP JUMPDEST PUSH2 0x3FBA PUSH1 0x40 DUP4 ADD DUP8 PUSH2 0x3A3F JUMP JUMPDEST PUSH2 0x3FC7 PUSH1 0x60 DUP4 ADD DUP7 PUSH2 0x3A3F JUMP JUMPDEST PUSH2 0x3FD4 PUSH1 0x80 DUP4 ADD DUP6 PUSH2 0x3A3F JUMP JUMPDEST PUSH2 0x3FE1 PUSH1 0xA0 DUP4 ADD DUP5 PUSH2 0x3AB3 JUMP JUMPDEST SWAP8 SWAP7 POP POP POP POP POP POP POP JUMP JUMPDEST PUSH0 PUSH1 0x60 DUP3 ADD SWAP1 POP PUSH2 0x3FFF PUSH0 DUP4 ADD DUP7 PUSH2 0x3A3F JUMP JUMPDEST PUSH2 0x400C PUSH1 0x20 DUP4 ADD DUP6 PUSH2 0x3A3F JUMP JUMPDEST PUSH2 0x4019 PUSH1 0x40 DUP4 ADD DUP5 PUSH2 0x3AB3 JUMP JUMPDEST SWAP5 SWAP4 POP POP POP POP JUMP JUMPDEST PUSH2 0x402A DUP2 PUSH2 0x39E1 JUMP JUMPDEST DUP3 MSTORE POP POP JUMP JUMPDEST PUSH2 0x4039 DUP2 PUSH2 0x3AA8 JUMP JUMPDEST DUP3 MSTORE POP POP JUMP JUMPDEST PUSH2 0x4048 DUP2 PUSH2 0x3A8D JUMP JUMPDEST DUP3 MSTORE POP POP JUMP JUMPDEST PUSH2 0x100 DUP3 ADD PUSH0 DUP3 ADD MLOAD PUSH2 0x4063 PUSH0 DUP6 ADD DUP3 PUSH2 0x4021 JUMP JUMPDEST POP PUSH1 0x20 DUP3 ADD MLOAD PUSH2 0x4076 PUSH1 0x20 DUP6 ADD DUP3 PUSH2 0x4021 JUMP JUMPDEST POP PUSH1 0x40 DUP3 ADD MLOAD PUSH2 0x4089 PUSH1 0x40 DUP6 ADD DUP3 PUSH2 0x4030 JUMP JUMPDEST POP PUSH1 0x60 DUP3 ADD MLOAD PUSH2 0x409C PUSH1 0x60 DUP6 ADD DUP3 PUSH2 0x4030 JUMP JUMPDEST POP PUSH1 0x80 DUP3 ADD MLOAD PUSH2 0x40AF PUSH1 0x80 DUP6 ADD DUP3 PUSH2 0x4021 JUMP JUMPDEST POP PUSH1 0xA0 DUP3 ADD MLOAD PUSH2 0x40C2 PUSH1 0xA0 DUP6 ADD DUP3 PUSH2 0x4021 JUMP JUMPDEST POP PUSH1 0xC0 DUP3 ADD MLOAD PUSH2 0x40D5 PUSH1 0xC0 DUP6 ADD DUP3 PUSH2 0x403F JUMP JUMPDEST POP PUSH1 0xE0 DUP3 ADD MLOAD PUSH2 0x40E8 PUSH1 0xE0 DUP6 ADD DUP3 PUSH2 0x4021 JUMP JUMPDEST POP POP POP POP JUMP JUMPDEST PUSH0 PUSH2 0x100 DUP3 ADD SWAP1 POP PUSH2 0x4102 PUSH0 DUP4 ADD DUP5 PUSH2 0x404E JUMP JUMPDEST SWAP3 SWAP2 POP POP JUMP JUMPDEST PUSH0 PUSH1 0xE0 DUP3 ADD SWAP1 POP PUSH2 0x411B PUSH0 DUP4 ADD DUP11 PUSH2 0x3A3F JUMP JUMPDEST PUSH2 0x4128 PUSH1 0x20 DUP4 ADD DUP10 PUSH2 0x3A3F JUMP JUMPDEST PUSH2 0x4135 PUSH1 0x40 DUP4 ADD DUP9 PUSH2 0x3A3F JUMP JUMPDEST PUSH2 0x4142 PUSH1 0x60 DUP4 ADD DUP8 PUSH2 0x3AB3 JUMP JUMPDEST PUSH2 0x414F PUSH1 0x80 DUP4 ADD DUP7 PUSH2 0x3CD0 JUMP JUMPDEST PUSH2 0x415C PUSH1 0xA0 DUP4 ADD DUP6 PUSH2 0x3CD0 JUMP JUMPDEST PUSH2 0x4169 PUSH1 0xC0 DUP4 ADD DUP5 PUSH2 0x3A3F JUMP JUMPDEST SWAP9 SWAP8 POP POP POP POP POP POP POP POP JUMP JUMPDEST PUSH0 DUP1 PUSH0 DUP1 PUSH1 0x80 DUP6 DUP8 SUB SLT ISZERO PUSH2 0x418D JUMPI PUSH2 0x418C PUSH2 0x39DD JUMP JUMPDEST JUMPDEST PUSH0 PUSH2 0x419A DUP8 DUP3 DUP9 ADD PUSH2 0x3C1A JUMP JUMPDEST SWAP5 POP POP PUSH1 0x20 PUSH2 0x41AB DUP8 DUP3 DUP9 ADD PUSH2 0x3A00 JUMP JUMPDEST SWAP4 POP POP PUSH1 0x40 PUSH2 0x41BC DUP8 DUP3 DUP9 ADD PUSH2 0x3F29 JUMP JUMPDEST SWAP3 POP POP PUSH1 0x60 PUSH2 0x41CD DUP8 DUP3 DUP9 ADD PUSH2 0x3F29 JUMP JUMPDEST SWAP2 POP POP SWAP3 SWAP6 SWAP2 SWAP5 POP SWAP3 POP JUMP JUMPDEST PUSH0 DUP1 PUSH1 0x40 DUP4 DUP6 SUB SLT ISZERO PUSH2 0x41EF JUMPI PUSH2 0x41EE PUSH2 0x39DD JUMP JUMPDEST JUMPDEST PUSH0 PUSH2 0x41FC DUP6 DUP3 DUP7 ADD PUSH2 0x3C1A JUMP JUMPDEST SWAP3 POP POP PUSH1 0x20 PUSH2 0x420D DUP6 DUP3 DUP7 ADD PUSH2 0x3A00 JUMP JUMPDEST SWAP2 POP POP SWAP3 POP SWAP3 SWAP1 POP JUMP JUMPDEST PUSH0 PUSH1 0x80 DUP3 ADD SWAP1 POP PUSH2 0x422A PUSH0 DUP4 ADD DUP8 PUSH2 0x3A7E JUMP JUMPDEST PUSH2 0x4237 PUSH1 0x20 DUP4 ADD DUP7 PUSH2 0x3A3F JUMP JUMPDEST PUSH2 0x4244 PUSH1 0x40 DUP4 ADD DUP6 PUSH2 0x3AB3 JUMP JUMPDEST PUSH2 0x4251 PUSH1 0x60 DUP4 ADD DUP5 PUSH2 0x3AB3 JUMP JUMPDEST SWAP6 SWAP5 POP POP POP POP POP JUMP JUMPDEST PUSH0 DUP1 REVERT JUMPDEST PUSH32 0x4E487B7100000000000000000000000000000000000000000000000000000000 PUSH0 MSTORE PUSH1 0x41 PUSH1 0x4 MSTORE PUSH1 0x24 PUSH0 REVERT JUMPDEST PUSH2 0x4294 DUP3 PUSH2 0x3E4F JUMP JUMPDEST DUP2 ADD DUP2 DUP2 LT PUSH8 0xFFFFFFFFFFFFFFFF DUP3 GT OR ISZERO PUSH2 0x42B3 JUMPI PUSH2 0x42B2 PUSH2 0x425E JUMP JUMPDEST JUMPDEST DUP1 PUSH1 0x40 MSTORE POP POP POP JUMP JUMPDEST PUSH0 PUSH2 0x42C5 PUSH2 0x39D4 JUMP JUMPDEST SWAP1 POP PUSH2 0x42D1 DUP3 DUP3 PUSH2 0x428B JUMP JUMPDEST SWAP2 SWAP1 POP JUMP JUMPDEST PUSH0 PUSH8 0xFFFFFFFFFFFFFFFF DUP3 GT ISZERO PUSH2 0x42F0 JUMPI PUSH2 0x42EF PUSH2 0x425E JUMP JUMPDEST JUMPDEST PUSH1 0x20 DUP3 MUL SWAP1 POP SWAP2 SWAP1 POP JUMP JUMPDEST PUSH0 DUP1 REVERT JUMPDEST PUSH0 DUP2 SWAP1 POP SWAP2 SWAP1 POP JUMP JUMPDEST PUSH2 0x4311 DUP2 PUSH2 0x42FF JUMP JUMPDEST DUP2 EQ PUSH2 0x431B JUMPI PUSH0 DUP1 REVERT JUMPDEST POP JUMP JUMPDEST PUSH0 DUP2 CALLDATALOAD SWAP1 POP PUSH2 0x432C DUP2 PUSH2 0x4308 JUMP JUMPDEST SWAP3 SWAP2 POP POP JUMP JUMPDEST PUSH0 PUSH2 0x4344 PUSH2 0x433F DUP5 PUSH2 0x42D6 JUMP JUMPDEST PUSH2 0x42BC JUMP JUMPDEST SWAP1 POP DUP1 PUSH1 0x20 DUP5 MUL DUP4 ADD DUP6 DUP2 GT ISZERO PUSH2 0x435E JUMPI PUSH2 0x435D PUSH2 0x42FB JUMP JUMPDEST JUMPDEST DUP4 JUMPDEST DUP2 DUP2 LT ISZERO PUSH2 0x4387 JUMPI DUP1 PUSH2 0x4373 DUP9 DUP3 PUSH2 0x431E JUMP JUMPDEST DUP5 MSTORE PUSH1 0x20 DUP5 ADD SWAP4 POP POP PUSH1 0x20 DUP2 ADD SWAP1 POP PUSH2 0x4360 JUMP JUMPDEST POP POP POP SWAP4 SWAP3 POP POP POP JUMP JUMPDEST PUSH0 DUP3 PUSH1 0x1F DUP4 ADD SLT PUSH2 0x43A5 JUMPI PUSH2 0x43A4 PUSH2 0x425A JUMP JUMPDEST JUMPDEST PUSH1 0x3 PUSH2 0x43B2 DUP5 DUP3 DUP6 PUSH2 0x4332 JUMP JUMPDEST SWAP2 POP POP SWAP3 SWAP2 POP POP JUMP JUMPDEST PUSH0 DUP1 PUSH0 PUSH1 0xA0 DUP5 DUP7 SUB SLT ISZERO PUSH2 0x43D2 JUMPI PUSH2 0x43D1 PUSH2 0x39DD JUMP JUMPDEST JUMPDEST PUSH0 PUSH2 0x43DF DUP7 DUP3 DUP8 ADD PUSH2 0x3C1A JUMP JUMPDEST SWAP4 POP POP PUSH1 0x20 PUSH2 0x43F0 DUP7 DUP3 DUP8 ADD PUSH2 0x3A00 JUMP JUMPDEST SWAP3 POP POP PUSH1 0x40 PUSH2 0x4401 DUP7 DUP3 DUP8 ADD PUSH2 0x4391 JUMP JUMPDEST SWAP2 POP POP SWAP3 POP SWAP3 POP SWAP3 JUMP JUMPDEST PUSH0 DUP1 PUSH1 0x40 DUP4 DUP6 SUB SLT ISZERO PUSH2 0x4421 JUMPI PUSH2 0x4420 PUSH2 0x39DD JUMP JUMPDEST JUMPDEST PUSH0 PUSH2 0x442E DUP6 DUP3 DUP7 ADD PUSH2 0x3C1A JUMP JUMPDEST SWAP3 POP POP PUSH1 0x20 PUSH2 0x443F DUP6 DUP3 DUP7 ADD PUSH2 0x3C1A JUMP JUMPDEST SWAP2 POP POP SWAP3 POP SWAP3 SWAP1 POP JUMP JUMPDEST PUSH0 PUSH1 0x80 DUP3 ADD SWAP1 POP PUSH2 0x445C PUSH0 DUP4 ADD DUP8 PUSH2 0x3A3F JUMP JUMPDEST PUSH2 0x4469 PUSH1 0x20 DUP4 ADD DUP7 PUSH2 0x3CD0 JUMP JUMPDEST PUSH2 0x4476 PUSH1 0x40 DUP4 ADD DUP6 PUSH2 0x3A3F JUMP JUMPDEST PUSH2 0x4483 PUSH1 0x60 DUP4 ADD DUP5 PUSH2 0x3A3F JUMP JUMPDEST SWAP6 SWAP5 POP POP POP POP POP JUMP JUMPDEST PUSH0 DUP1 PUSH0 DUP1 PUSH0 PUSH1 0xA0 DUP7 DUP9 SUB SLT ISZERO PUSH2 0x44A5 JUMPI PUSH2 0x44A4 PUSH2 0x39DD JUMP JUMPDEST JUMPDEST PUSH0 PUSH2 0x44B2 DUP9 DUP3 DUP10 ADD PUSH2 0x3A00 JUMP JUMPDEST SWAP6 POP POP PUSH1 0x20 PUSH2 0x44C3 DUP9 DUP3 DUP10 ADD PUSH2 0x3A00 JUMP JUMPDEST SWAP5 POP POP PUSH1 0x40 PUSH2 0x44D4 DUP9 DUP3 DUP10 ADD PUSH2 0x3A00 JUMP JUMPDEST SWAP4 POP POP PUSH1 0x60 PUSH2 0x44E5 DUP9 DUP3 DUP10 ADD PUSH2 0x3A00 JUMP JUMPDEST SWAP3 POP POP PUSH1 0x80 PUSH2 0x44F6 DUP9 DUP3 DUP10 ADD PUSH2 0x3F29 JUMP JUMPDEST SWAP2 POP POP SWAP3 SWAP6 POP SWAP3 SWAP6 SWAP1 SWAP4 POP JUMP JUMPDEST PUSH0 PUSH1 0xE0 DUP3 ADD SWAP1 POP PUSH2 0x4516 PUSH0 DUP4 ADD DUP11 PUSH2 0x3A3F JUMP JUMPDEST PUSH2 0x4523 PUSH1 0x20 DUP4 ADD DUP10 PUSH2 0x3A3F JUMP JUMPDEST PUSH2 0x4530 PUSH1 0x40 DUP4 ADD DUP9 PUSH2 0x3A3F JUMP JUMPDEST PUSH2 0x453D PUSH1 0x60 DUP4 ADD DUP8 PUSH2 0x3A3F JUMP JUMPDEST PUSH2 0x454A PUSH1 0x80 DUP4 ADD DUP7 PUSH2 0x3A3F JUMP JUMPDEST PUSH2 0x4557 PUSH1 0xA0 DUP4 ADD DUP6 PUSH2 0x3A7E JUMP JUMPDEST PUSH2 0x4564 PUSH1 0xC0 DUP4 ADD DUP5 PUSH2 0x3AB3 JUMP JUMPDEST SWAP9 SWAP8 POP POP POP POP POP POP POP POP JUMP JUMPDEST PUSH2 0x4579 DUP2 PUSH2 0x3A8D JUMP JUMPDEST DUP2 EQ PUSH2 0x4583 JUMPI PUSH0 DUP1 REVERT JUMPDEST POP JUMP JUMPDEST PUSH0 DUP2 CALLDATALOAD SWAP1 POP PUSH2 0x4594 DUP2 PUSH2 0x4570 JUMP JUMPDEST SWAP3 SWAP2 POP POP JUMP JUMPDEST PUSH0 DUP1 PUSH1 0x40 DUP4 DUP6 SUB SLT ISZERO PUSH2 0x45B0 JUMPI PUSH2 0x45AF PUSH2 0x39DD JUMP JUMPDEST JUMPDEST PUSH0 PUSH2 0x45BD DUP6 DUP3 DUP7 ADD PUSH2 0x3A00 JUMP JUMPDEST SWAP3 POP POP PUSH1 0x20 PUSH2 0x45CE DUP6 DUP3 DUP7 ADD PUSH2 0x4586 JUMP JUMPDEST SWAP2 POP POP SWAP3 POP SWAP3 SWAP1 POP JUMP JUMPDEST PUSH0 PUSH1 0x20 DUP3 ADD SWAP1 POP PUSH2 0x45EB PUSH0 DUP4 ADD DUP5 PUSH2 0x3A99 JUMP JUMPDEST SWAP3 SWAP2 POP POP JUMP JUMPDEST PUSH0 DUP2 SWAP1 POP SWAP2 SWAP1 POP JUMP JUMPDEST PUSH0 PUSH2 0x4614 PUSH2 0x460F PUSH2 0x460A DUP5 PUSH2 0x3A4E JUMP JUMPDEST PUSH2 0x45F1 JUMP JUMPDEST PUSH2 0x3A4E JUMP JUMPDEST SWAP1 POP SWAP2 SWAP1 POP JUMP JUMPDEST PUSH0 PUSH2 0x4625 DUP3 PUSH2 0x45FA JUMP JUMPDEST SWAP1 POP SWAP2 SWAP1 POP JUMP JUMPDEST PUSH0 PUSH2 0x4636 DUP3 PUSH2 0x461B JUMP JUMPDEST SWAP1 POP SWAP2 SWAP1 POP JUMP JUMPDEST PUSH2 0x4646 DUP2 PUSH2 0x462C JUMP JUMPDEST DUP3 MSTORE POP POP JUMP JUMPDEST PUSH0 PUSH1 0x20 DUP3 ADD SWAP1 POP PUSH2 0x465F PUSH0 DUP4 ADD DUP5 PUSH2 0x463D JUMP JUMPDEST SWAP3 SWAP2 POP POP JUMP JUMPDEST PUSH0 DUP1 PUSH0 DUP1 PUSH1 0x80 DUP6 DUP8 SUB SLT ISZERO PUSH2 0x467D JUMPI PUSH2 0x467C PUSH2 0x39DD JUMP JUMPDEST JUMPDEST PUSH0 PUSH2 0x468A DUP8 DUP3 DUP9 ADD PUSH2 0x3C1A JUMP JUMPDEST SWAP5 POP POP PUSH1 0x20 PUSH2 0x469B DUP8 DUP3 DUP9 ADD PUSH2 0x4586 JUMP JUMPDEST SWAP4 POP POP PUSH1 0x40 PUSH2 0x46AC DUP8 DUP3 DUP9 ADD PUSH2 0x3A00 JUMP JUMPDEST SWAP3 POP POP PUSH1 0x60 PUSH2 0x46BD DUP8 DUP3 DUP9 ADD PUSH2 0x3A00 JUMP JUMPDEST SWAP2 POP POP SWAP3 SWAP6 SWAP2 SWAP5 POP SWAP3 POP JUMP JUMPDEST PUSH32 0x496E76616C69642070726F706F73616C20494400000000000000000000000000 PUSH0 DUP3 ADD MSTORE POP JUMP JUMPDEST PUSH0 PUSH2 0x46FD PUSH1 0x13 DUP4 PUSH2 0x3E17 JUMP JUMPDEST SWAP2 POP PUSH2 0x4708 DUP3 PUSH2 0x46C9 JUMP JUMPDEST PUSH1 0x20 DUP3 ADD SWAP1 POP SWAP2 SWAP1 POP JUMP JUMPDEST PUSH0 PUSH1 0x20 DUP3 ADD SWAP1 POP DUP2 DUP2 SUB PUSH0 DUP4 ADD MSTORE PUSH2 0x472A DUP2 PUSH2 0x46F1 JUMP JUMPDEST SWAP1 POP SWAP2 SWAP1 POP JUMP JUMPDEST PUSH32 0x416C726561647920657865637574656400000000000000000000000000000000 PUSH0 DUP3 ADD MSTORE POP JUMP JUMPDEST PUSH0 PUSH2 0x4765 PUSH1 0x10 DUP4 PUSH2 0x3E17 JUMP JUMPDEST SWAP2 POP PUSH2 0x4770 DUP3 PUSH2 0x4731 JUMP JUMPDEST PUSH1 0x20 DUP3 ADD SWAP1 POP SWAP2 SWAP1 POP JUMP JUMPDEST PUSH0 PUSH1 0x20 DUP3 ADD SWAP1 POP DUP2 DUP2 SUB PUSH0 DUP4 ADD MSTORE PUSH2 0x4792 DUP2 PUSH2 0x4759 JUMP JUMPDEST SWAP1 POP SWAP2 SWAP1 POP JUMP JUMPDEST PUSH32 0x50726F706F73616C2063616E63656C6564000000000000000000000000000000 PUSH0 DUP3 ADD MSTORE POP JUMP JUMPDEST PUSH0 PUSH2 0x47CD PUSH1 0x11 DUP4 PUSH2 0x3E17 JUMP JUMPDEST SWAP2 POP PUSH2 0x47D8 DUP3 PUSH2 0x4799 JUMP JUMPDEST PUSH1 0x20 DUP3 ADD SWAP1 POP SWAP2 SWAP1 POP JUMP JUMPDEST PUSH0 PUSH1 0x20 DUP3 ADD SWAP1 POP DUP2 DUP2 SUB PUSH0 DUP4 ADD MSTORE PUSH2 0x47FA DUP2 PUSH2 0x47C1 JUMP JUMPDEST SWAP1 POP SWAP2 SWAP1 POP JUMP JUMPDEST PUSH32 0x566F74696E6720706572696F64206E6F7420656E646564000000000000000000 PUSH0 DUP3 ADD MSTORE POP JUMP JUMPDEST PUSH0 PUSH2 0x4835 PUSH1 0x17 DUP4 PUSH2 0x3E17 JUMP JUMPDEST SWAP2 POP PUSH2 0x4840 DUP3 PUSH2 0x4801 JUMP JUMPDEST PUSH1 0x20 DUP3 ADD SWAP1 POP SWAP2 SWAP1 POP JUMP JUMPDEST PUSH0 PUSH1 0x20 DUP3 ADD SWAP1 POP DUP2 DUP2 SUB PUSH0 DUP4 ADD MSTORE PUSH2 0x4862 DUP2 PUSH2 0x4829 JUMP JUMPDEST SWAP1 POP SWAP2 SWAP1 POP JUMP JUMPDEST PUSH0 PUSH1 0x60 DUP3 ADD SWAP1 POP PUSH2 0x487C PUSH0 DUP4 ADD DUP7 PUSH2 0x3A3F JUMP JUMPDEST PUSH2 0x4889 PUSH1 0x20 DUP4 ADD DUP6 PUSH2 0x3A3F JUMP JUMPDEST PUSH2 0x4896 PUSH1 0x40 DUP4 ADD DUP5 PUSH2 0x3A3F JUMP JUMPDEST SWAP5 SWAP4 POP POP POP POP JUMP JUMPDEST PUSH32 0x4E6F7420612044414F206D656D62657200000000000000000000000000000000 PUSH0 DUP3 ADD MSTORE POP JUMP JUMPDEST PUSH0 PUSH2 0x48D2 PUSH1 0x10 DUP4 PUSH2 0x3E17 JUMP JUMPDEST SWAP2 POP PUSH2 0x48DD DUP3 PUSH2 0x489E JUMP JUMPDEST PUSH1 0x20 DUP3 ADD SWAP1 POP SWAP2 SWAP1 POP JUMP JUMPDEST PUSH0 PUSH1 0x20 DUP3 ADD SWAP1 POP DUP2 DUP2 SUB PUSH0 DUP4 ADD MSTORE PUSH2 0x48FF DUP2 PUSH2 0x48C6 JUMP JUMPDEST SWAP1 POP SWAP2 SWAP1 POP JUMP JUMPDEST PUSH32 0x546172676574206973206E6F742061206D656D62657200000000000000000000 PUSH0 DUP3 ADD MSTORE POP JUMP JUMPDEST PUSH0 PUSH2 0x493A PUSH1 0x16 DUP4 PUSH2 0x3E17 JUMP JUMPDEST SWAP2 POP PUSH2 0x4945 DUP3 PUSH2 0x4906 JUMP JUMPDEST PUSH1 0x20 DUP3 ADD SWAP1 POP SWAP2 SWAP1 POP JUMP JUMPDEST PUSH0 PUSH1 0x20 DUP3 ADD SWAP1 POP DUP2 DUP2 SUB PUSH0 DUP4 ADD MSTORE PUSH2 0x4967 DUP2 PUSH2 0x492E JUMP JUMPDEST SWAP1 POP SWAP2 SWAP1 POP JUMP JUMPDEST PUSH32 0x416C726561647920766F75636865640000000000000000000000000000000000 PUSH0 DUP3 ADD MSTORE POP JUMP JUMPDEST PUSH0 PUSH2 0x49A2 PUSH1 0xF DUP4 PUSH2 0x3E17 JUMP JUMPDEST SWAP2 POP PUSH2 0x49AD DUP3 PUSH2 0x496E JUMP JUMPDEST PUSH1 0x20 DUP3 ADD SWAP1 POP SWAP2 SWAP1 POP JUMP JUMPDEST PUSH0 PUSH1 0x20 DUP3 ADD SWAP1 POP DUP2 DUP2 SUB PUSH0 DUP4 ADD MSTORE PUSH2 0x49CF DUP2 PUSH2 0x4996 JUMP JUMPDEST SWAP1 POP SWAP2 SWAP1 POP JUMP JUMPDEST PUSH32 0x43616E6E6F7420766F75636820666F722073656C660000000000000000000000 PUSH0 DUP3 ADD MSTORE POP JUMP JUMPDEST PUSH0 PUSH2 0x4A0A PUSH1 0x15 DUP4 PUSH2 0x3E17 JUMP JUMPDEST SWAP2 POP PUSH2 0x4A15 DUP3 PUSH2 0x49D6 JUMP JUMPDEST PUSH1 0x20 DUP3 ADD SWAP1 POP SWAP2 SWAP1 POP JUMP JUMPDEST PUSH0 PUSH1 0x20 DUP3 ADD SWAP1 POP DUP2 DUP2 SUB PUSH0 DUP4 ADD MSTORE PUSH2 0x4A37 DUP2 PUSH2 0x49FE JUMP JUMPDEST SWAP1 POP SWAP2 SWAP1 POP JUMP JUMPDEST PUSH32 0x43616E6E6F7420766F75636820666F722067656E65736973206163636F756E74 PUSH0 DUP3 ADD MSTORE POP JUMP JUMPDEST PUSH0 PUSH2 0x4A72 PUSH1 0x20 DUP4 PUSH2 0x3E17 JUMP JUMPDEST SWAP2 POP PUSH2 0x4A7D DUP3 PUSH2 0x4A3E JUMP JUMPDEST PUSH1 0x20 DUP3 ADD SWAP1 POP SWAP2 SWAP1 POP JUMP JUMPDEST PUSH0 PUSH1 0x20 DUP3 ADD SWAP1 POP DUP2 DUP2 SUB PUSH0 DUP4 ADD MSTORE PUSH2 0x4A9F DUP2 PUSH2 0x4A66 JUMP JUMPDEST SWAP1 POP SWAP2 SWAP1 POP JUMP JUMPDEST PUSH32 0x416C7265616479206861732066756C6C20616C6C6F636174696F6E0000000000 PUSH0 DUP3 ADD MSTORE POP JUMP JUMPDEST PUSH0 PUSH2 0x4ADA PUSH1 0x1B DUP4 PUSH2 0x3E17 JUMP JUMPDEST SWAP2 POP PUSH2 0x4AE5 DUP3 PUSH2 0x4AA6 JUMP JUMPDEST PUSH1 0x20 DUP3 ADD SWAP1 POP SWAP2 SWAP1 POP JUMP JUMPDEST PUSH0 PUSH1 0x20 DUP3 ADD SWAP1 POP DUP2 DUP2 SUB PUSH0 DUP4 ADD MSTORE PUSH2 0x4B07 DUP2 PUSH2 0x4ACE JUMP JUMPDEST SWAP1 POP SWAP2 SWAP1 POP JUMP JUMPDEST PUSH32 0x416C726561647920686173206D6178696D756D20766F75636865730000000000 PUSH0 DUP3 ADD MSTORE POP JUMP JUMPDEST PUSH0 PUSH2 0x4B42 PUSH1 0x1B DUP4 PUSH2 0x3E17 JUMP JUMPDEST SWAP2 POP PUSH2 0x4B4D DUP3 PUSH2 0x4B0E JUMP JUMPDEST PUSH1 0x20 DUP3 ADD SWAP1 POP SWAP2 SWAP1 POP JUMP JUMPDEST PUSH0 PUSH1 0x20 DUP3 ADD SWAP1 POP DUP2 DUP2 SUB PUSH0 DUP4 ADD MSTORE PUSH2 0x4B6F DUP2 PUSH2 0x4B36 JUMP JUMPDEST SWAP1 POP SWAP2 SWAP1 POP JUMP JUMPDEST PUSH32 0x4E487B7100000000000000000000000000000000000000000000000000000000 PUSH0 MSTORE PUSH1 0x11 PUSH1 0x4 MSTORE PUSH1 0x24 PUSH0 REVERT JUMPDEST PUSH0 PUSH2 0x4BAD DUP3 PUSH2 0x39E1 JUMP JUMPDEST SWAP2 POP PUSH32 0xFFFFFFFFFFFFFFFFFFFFFFFFFFFFFFFFFFFFFFFFFFFFFFFFFFFFFFFFFFFFFFFF DUP3 SUB PUSH2 0x4BDF JUMPI PUSH2 0x4BDE PUSH2 0x4B76 JUMP JUMPDEST JUMPDEST PUSH1 0x1 DUP3 ADD SWAP1 POP SWAP2 SWAP1 POP JUMP JUMPDEST PUSH32 0x44414F206973206E6F7420616374697665000000000000000000000000000000 PUSH0 DUP3 ADD MSTORE POP JUMP JUMPDEST PUSH0 PUSH2 0x4C1E PUSH1 0x11 DUP4 PUSH2 0x3E17 JUMP JUMPDEST SWAP2 POP PUSH2 0x4C29 DUP3 PUSH2 0x4BEA JUMP JUMPDEST PUSH1 0x20 DUP3 ADD SWAP1 POP SWAP2 SWAP1 POP JUMP JUMPDEST PUSH0 PUSH1 0x20 DUP3 ADD SWAP1 POP DUP2 DUP2 SUB PUSH0 DUP4 ADD MSTORE PUSH2 0x4C4B DUP2 PUSH2 0x4C12 JUMP JUMPDEST SWAP1 POP SWAP2 SWAP1 POP JUMP JUMPDEST PUSH32 0x44414F206E6F742070726F7065726C7920696E697469616C697A656400000000 PUSH0 DUP3 ADD MSTORE POP JUMP JUMPDEST PUSH0 PUSH2 0x4C86 PUSH1 0x1C DUP4 PUSH2 0x3E17 JUMP JUMPDEST SWAP2 POP PUSH2 0x4C91 DUP3 PUSH2 0x4C52 JUMP JUMPDEST PUSH1 0x20 DUP3 ADD SWAP1 POP SWAP2 SWAP1 POP JUMP JUMPDEST PUSH0 PUSH1 0x20 DUP3 ADD SWAP1 POP DUP2 DUP2 SUB PUSH0 DUP4 ADD MSTORE PUSH2 0x4CB3 DUP2 PUSH2 0x4C7A JUMP JUMPDEST SWAP1 POP SWAP2 SWAP1 POP JUMP JUMPDEST PUSH32 0x416C726561647920612044414F206D656D626572000000000000000000000000 PUSH0 DUP3 ADD MSTORE POP JUMP JUMPDEST PUSH0 PUSH2 0x4CEE PUSH1 0x14 DUP4 PUSH2 0x3E17 JUMP JUMPDEST SWAP2 POP PUSH2 0x4CF9 DUP3 PUSH2 0x4CBA JUMP JUMPDEST PUSH1 0x20 DUP3 ADD SWAP1 POP SWAP2 SWAP1 POP JUMP JUMPDEST PUSH0 PUSH1 0x20 DUP3 ADD SWAP1 POP DUP2 DUP2 SUB PUSH0 DUP4 ADD MSTORE PUSH2 0x4D1B DUP2 PUSH2 0x4CE2 JUMP JUMPDEST SWAP1 POP SWAP2 SWAP1 POP JUMP JUMPDEST PUSH32 0x496E73756666696369656E7420504C532073656E740000000000000000000000 PUSH0 DUP3 ADD MSTORE POP JUMP JUMPDEST PUSH0 PUSH2 0x4D56 PUSH1 0x15 DUP4 PUSH2 0x3E17 JUMP JUMPDEST SWAP2 POP PUSH2 0x4D61 DUP3 PUSH2 0x4D22 JUMP JUMPDEST PUSH1 0x20 DUP3 ADD SWAP1 POP SWAP2 SWAP1 POP JUMP JUMPDEST PUSH0 PUSH1 0x20 DUP3 ADD SWAP1 POP DUP2 DUP2 SUB PUSH0 DUP4 ADD MSTORE PUSH2 0x4D83 DUP2 PUSH2 0x4D4A JUMP JUMPDEST SWAP1 POP SWAP2 SWAP1 POP JUMP JUMPDEST PUSH0 PUSH2 0x4D94 DUP3 PUSH2 0x39E1 JUMP JUMPDEST SWAP2 POP PUSH2 0x4D9F DUP4 PUSH2 0x39E1 JUMP JUMPDEST SWAP3 POP DUP3 DUP3 SUB SWAP1 POP DUP2 DUP2 GT ISZERO PUSH2 0x4DB7 JUMPI PUSH2 0x4DB6 PUSH2 0x4B76 JUMP JUMPDEST JUMPDEST SWAP3 SWAP2 POP POP JUMP JUMPDEST PUSH0 DUP2 SWAP1 POP SWAP3 SWAP2 POP POP JUMP JUMPDEST POP JUMP JUMPDEST PUSH0 PUSH2 0x4DD5 PUSH0 DUP4 PUSH2 0x4DBD JUMP JUMPDEST SWAP2 POP PUSH2 0x4DE0 DUP3 PUSH2 0x4DC7 JUMP JUMPDEST PUSH0 DUP3 ADD SWAP1 POP SWAP2 SWAP1 POP JUMP JUMPDEST PUSH0 PUSH2 0x4DF4 DUP3 PUSH2 0x4DCA JUMP JUMPDEST SWAP2 POP DUP2 SWAP1 POP SWAP2 SWAP1 POP JUMP JUMPDEST PUSH32 0x4661696C656420746F2072657475726E2065786365737320504C530000000000 PUSH0 DUP3 ADD MSTORE POP JUMP JUMPDEST PUSH0 PUSH2 0x4E32 PUSH1 0x1B DUP4 PUSH2 0x3E17 JUMP JUMPDEST SWAP2 POP PUSH2 0x4E3D DUP3 PUSH2 0x4DFE JUMP JUMPDEST PUSH1 0x20 DUP3 ADD SWAP1 POP SWAP2 SWAP1 POP JUMP JUMPDEST PUSH0 PUSH1 0x20 DUP3 ADD SWAP1 POP DUP2 DUP2 SUB PUSH0 DUP4 ADD MSTORE PUSH2 0x4E5F DUP2 PUSH2 0x4E26 JUMP JUMPDEST SWAP1 POP SWAP2 SWAP1 POP JUMP JUMPDEST PUSH32 0x4661696C656420746F207472616E73666572207374616B6520746F2044414F00 PUSH0 DUP3 ADD MSTORE POP JUMP JUMPDEST PUSH0 PUSH2 0x4E9A PUSH1 0x1F DUP4 PUSH2 0x3E17 JUMP JUMPDEST SWAP2 POP PUSH2 0x4EA5 DUP3 PUSH2 0x4E66 JUMP JUMPDEST PUSH1 0x20 DUP3 ADD SWAP1 POP SWAP2 SWAP1 POP JUMP JUMPDEST PUSH0 PUSH1 0x20 DUP3 ADD SWAP1 POP DUP2 DUP2 SUB PUSH0 DUP4 ADD MSTORE PUSH2 0x4EC7 DUP2 PUSH2 0x4E8E JUMP JUMPDEST SWAP1 POP SWAP2 SWAP1 POP JUMP JUMPDEST PUSH32 0x566F75636820696E666F20616C726561647920696E697469616C697A65640000 PUSH0 DUP3 ADD MSTORE POP JUMP JUMPDEST PUSH0 PUSH2 0x4F02 PUSH1 0x1E DUP4 PUSH2 0x3E17 JUMP JUMPDEST SWAP2 POP PUSH2 0x4F0D DUP3 PUSH2 0x4ECE JUMP JUMPDEST PUSH1 0x20 DUP3 ADD SWAP1 POP SWAP2 SWAP1 POP JUMP JUMPDEST PUSH0 PUSH1 0x20 DUP3 ADD SWAP1 POP DUP2 DUP2 SUB PUSH0 DUP4 ADD MSTORE PUSH2 0x4F2F DUP2 PUSH2 0x4EF6 JUMP JUMPDEST SWAP1 POP SWAP2 SWAP1 POP JUMP JUMPDEST PUSH0 PUSH2 0x4F40 DUP3 PUSH2 0x39E1 JUMP JUMPDEST SWAP2 POP PUSH2 0x4F4B DUP4 PUSH2 0x39E1 JUMP JUMPDEST SWAP3 POP DUP3 DUP3 ADD SWAP1 POP DUP1 DUP3 GT ISZERO PUSH2 0x4F63 JUMPI PUSH2 0x4F62 PUSH2 0x4B76 JUMP JUMPDEST JUMPDEST SWAP3 SWAP2 POP POP JUMP JUMPDEST PUSH0 PUSH1 0x40 DUP3 ADD SWAP1 POP PUSH2 0x4F7C PUSH0 DUP4 ADD DUP6 PUSH2 0x3A7E JUMP JUMPDEST PUSH2 0x4F89 PUSH1 0x20 DUP4 ADD DUP5 PUSH2 0x3AB3 JUMP JUMPDEST SWAP4 SWAP3 POP POP POP JUMP JUMPDEST PUSH32 0x4661696C656420746F20726567697374657220696E20746F6B656E20636F6E74 PUSH0 DUP3 ADD MSTORE PUSH32 0x7261637400000000000000000000000000000000000000000000000000000000 PUSH1 0x20 DUP3 ADD MSTORE POP JUMP JUMPDEST PUSH0 PUSH2 0x4FEA PUSH1 0x24 DUP4 PUSH2 0x3E17 JUMP JUMPDEST SWAP2 POP PUSH2 0x4FF5 DUP3 PUSH2 0x4F90 JUMP JUMPDEST PUSH1 0x40 DUP3 ADD SWAP1 POP SWAP2 SWAP1 POP JUMP JUMPDEST PUSH0 PUSH1 0x20 DUP3 ADD SWAP1 POP DUP2 DUP2 SUB PUSH0 DUP4 ADD MSTORE PUSH2 0x5017 DUP2 PUSH2 0x4FDE JUMP JUMPDEST SWAP1 POP SWAP2 SWAP1 POP JUMP JUMPDEST PUSH0 PUSH1 0x40 DUP3 ADD SWAP1 POP PUSH2 0x5031 PUSH0 DUP4 ADD DUP6 PUSH2 0x3A3F JUMP JUMPDEST PUSH2 0x503E PUSH1 0x20 DUP4 ADD DUP5 PUSH2 0x3A3F JUMP JUMPDEST SWAP4 SWAP3 POP POP POP JUMP JUMPDEST PUSH32 0x4E6F7420617574686F72697A6564000000000000000000000000000000000000 PUSH0 DUP3 ADD MSTORE POP JUMP JUMPDEST PUSH0 PUSH2 0x5079 PUSH1 0xE DUP4 PUSH2 0x3E17 JUMP JUMPDEST SWAP2 POP PUSH2 0x5084 DUP3 PUSH2 0x5045 JUMP JUMPDEST PUSH1 0x20 DUP3 ADD SWAP1 POP SWAP2 SWAP1 POP JUMP JUMPDEST PUSH0 PUSH1 0x20 DUP3 ADD SWAP1 POP DUP2 DUP2 SUB PUSH0 DUP4 ADD MSTORE PUSH2 0x50A6 DUP2 PUSH2 0x506D JUMP JUMPDEST SWAP1 POP SWAP2 SWAP1 POP JUMP JUMPDEST PUSH32 0x4E6F742061206D656D6265720000000000000000000000000000000000000000 PUSH0 DUP3 ADD MSTORE POP JUMP JUMPDEST PUSH0 PUSH2 0x50E1 PUSH1 0xC DUP4 PUSH2 0x3E17 JUMP JUMPDEST SWAP2 POP PUSH2 0x50EC DUP3 PUSH2 0x50AD JUMP JUMPDEST PUSH1 0x20 DUP3 ADD SWAP1 POP SWAP2 SWAP1 POP JUMP JUMPDEST PUSH0 PUSH1 0x20 DUP3 ADD SWAP1 POP DUP2 DUP2 SUB PUSH0 DUP4 ADD MSTORE PUSH2 0x510E DUP2 PUSH2 0x50D5 JUMP JUMPDEST SWAP1 POP SWAP2 SWAP1 POP JUMP JUMPDEST PUSH32 0x566F74696E6720636C6F73656400000000000000000000000000000000000000 PUSH0 DUP3 ADD MSTORE POP JUMP JUMPDEST PUSH0 PUSH2 0x5149 PUSH1 0xD DUP4 PUSH2 0x3E17 JUMP JUMPDEST SWAP2 POP PUSH2 0x5154 DUP3 PUSH2 0x5115 JUMP JUMPDEST PUSH1 0x20 DUP3 ADD SWAP1 POP SWAP2 SWAP1 POP JUMP JUMPDEST PUSH0 PUSH1 0x20 DUP3 ADD SWAP1 POP DUP2 DUP2 SUB PUSH0 DUP4 ADD MSTORE PUSH2 0x5176 DUP2 PUSH2 0x513D JUMP JUMPDEST SWAP1 POP SWAP2 SWAP1 POP JUMP JUMPDEST PUSH32 0x416C726561647920766F74656400000000000000000000000000000000000000 PUSH0 DUP3 ADD MSTORE POP JUMP JUMPDEST PUSH0 PUSH2 0x51B1 PUSH1 0xD DUP4 PUSH2 0x3E17 JUMP JUMPDEST SWAP2 POP PUSH2 0x51BC DUP3 PUSH2 0x517D JUMP JUMPDEST PUSH1 0x20 DUP3 ADD SWAP1 POP SWAP2 SWAP1 POP JUMP JUMPDEST PUSH0 PUSH1 0x20 DUP3 ADD SWAP1 POP DUP2 DUP2 SUB PUSH0 DUP4 ADD MSTORE PUSH2 0x51DE DUP2 PUSH2 0x51A5 JUMP JUMPDEST SWAP1 POP SWAP2 SWAP1 POP JUMP JUMPDEST PUSH0 PUSH1 0xC0 DUP3 ADD SWAP1 POP PUSH2 0x51F8 PUSH0 DUP4 ADD DUP10 PUSH2 0x3A3F JUMP JUMPDEST PUSH2 0x5205 PUSH1 0x20 DUP4 ADD DUP9 PUSH2 0x3A3F JUMP JUMPDEST PUSH2 0x5212 PUSH1 0x40 DUP4 ADD DUP8 PUSH2 0x3A3F JUMP JUMPDEST PUSH2 0x521F PUSH1 0x60 DUP4 ADD DUP7 PUSH2 0x3A3F JUMP JUMPDEST PUSH2 0x522C PUSH1 0x80 DUP4 ADD DUP6 PUSH2 0x3A3F JUMP JUMPDEST PUSH2 0x5239 PUSH1 0xA0 DUP4 ADD DUP5 PUSH2 0x3A3F JUMP JUMPDEST SWAP8 SWAP7 POP POP POP POP POP POP POP JUMP JUMPDEST PUSH0 DUP2 MLOAD SWAP1 POP PUSH2 0x5252 DUP2 PUSH2 0x3F13 JUMP JUMPDEST SWAP3 SWAP2 POP POP JUMP JUMPDEST PUSH0 PUSH1 0x20 DUP3 DUP5 SUB SLT ISZERO PUSH2 0x526D JUMPI PUSH2 0x526C PUSH2 0x39DD JUMP JUMPDEST JUMPDEST PUSH0 PUSH2 0x527A DUP5 DUP3 DUP6 ADD PUSH2 0x5244 JUMP JUMPDEST SWAP2 POP POP SWAP3 SWAP2 POP POP JUMP JUMPDEST PUSH32 0x496E76616C696420766F74650000000000000000000000000000000000000000 PUSH0 DUP3 ADD MSTORE POP JUMP JUMPDEST PUSH0 PUSH2 0x52B7 PUSH1 0xC DUP4 PUSH2 0x3E17 JUMP JUMPDEST SWAP2 POP PUSH2 0x52C2 DUP3 PUSH2 0x5283 JUMP JUMPDEST PUSH1 0x20 DUP3 ADD SWAP1 POP SWAP2 SWAP1 POP JUMP JUMPDEST PUSH0 PUSH1 0x20 DUP3 ADD SWAP1 POP DUP2 DUP2 SUB PUSH0 DUP4 ADD MSTORE PUSH2 0x52E4 DUP2 PUSH2 0x52AB JUMP JUMPDEST SWAP1 POP SWAP2 SWAP1 POP JUMP JUMPDEST PUSH0 PUSH1 0x40 DUP3 ADD SWAP1 POP PUSH2 0x52FE PUSH0 DUP4 ADD DUP6 PUSH2 0x3AB3 JUMP JUMPDEST PUSH2 0x530B PUSH1 0x20 DUP4 ADD DUP5 PUSH2 0x3A3F JUMP JUMPDEST SWAP4 SWAP3 POP POP POP JUMP JUMPDEST PUSH32 0x496E76616C6964206C6F67696320636F6E7374697475656E7400000000000000 PUSH0 DUP3 ADD MSTORE POP JUMP JUMPDEST PUSH0 PUSH2 0x5346 PUSH1 0x19 DUP4 PUSH2 0x3E17 JUMP JUMPDEST SWAP2 POP PUSH2 0x5351 DUP3 PUSH2 0x5312 JUMP JUMPDEST PUSH1 0x20 DUP3 ADD SWAP1 POP SWAP2 SWAP1 POP JUMP JUMPDEST PUSH0 PUSH1 0x20 DUP3 ADD SWAP1 POP DUP2 DUP2 SUB PUSH0 DUP4 ADD MSTORE PUSH2 0x5373 DUP2 PUSH2 0x533A JUMP JUMPDEST SWAP1 POP SWAP2 SWAP1 POP JUMP JUMPDEST PUSH32 0x546172676574206E6F742061206D656D62657200000000000000000000000000 PUSH0 DUP3 ADD MSTORE POP JUMP JUMPDEST PUSH0 PUSH2 0x53AE PUSH1 0x13 DUP4 PUSH2 0x3E17 JUMP JUMPDEST SWAP2 POP PUSH2 0x53B9 DUP3 PUSH2 0x537A JUMP JUMPDEST PUSH1 0x20 DUP3 ADD SWAP1 POP SWAP2 SWAP1 POP JUMP JUMPDEST PUSH0 PUSH1 0x20 DUP3 ADD SWAP1 POP DUP2 DUP2 SUB PUSH0 DUP4 ADD MSTORE PUSH2 0x53DB DUP2 PUSH2 0x53A2 JUMP JUMPDEST SWAP1 POP SWAP2 SWAP1 POP JUMP JUMPDEST PUSH32 0x43616E6E6F7420636F6E6E65637420746F2073656C6600000000000000000000 PUSH0 DUP3 ADD MSTORE POP JUMP JUMPDEST PUSH0 PUSH2 0x5416 PUSH1 0x16 DUP4 PUSH2 0x3E17 JUMP JUMPDEST SWAP2 POP PUSH2 0x5421 DUP3 PUSH2 0x53E2 JUMP JUMPDEST PUSH1 0x20 DUP3 ADD SWAP1 POP SWAP2 SWAP1 POP JUMP JUMPDEST PUSH0 PUSH1 0x20 DUP3 ADD SWAP1 POP DUP2 DUP2 SUB PUSH0 DUP4 ADD MSTORE PUSH2 0x5443 DUP2 PUSH2 0x540A JUMP JUMPDEST SWAP1 POP SWAP2 SWAP1 POP JUMP JUMPDEST PUSH32 0x496E76616C69642044414F206164647265737300000000000000000000000000 PUSH0 DUP3 ADD MSTORE POP JUMP JUMPDEST PUSH0 PUSH2 0x547E PUSH1 0x13 DUP4 PUSH2 0x3E17 JUMP JUMPDEST SWAP2 POP PUSH2 0x5489 DUP3 PUSH2 0x544A JUMP JUMPDEST PUSH1 0x20 DUP3 ADD SWAP1 POP SWAP2 SWAP1 POP JUMP JUMPDEST PUSH0 PUSH1 0x20 DUP3 ADD SWAP1 POP DUP2 DUP2 SUB PUSH0 DUP4 ADD MSTORE PUSH2 0x54AB DUP2 PUSH2 0x5472 JUMP JUMPDEST SWAP1 POP SWAP2 SWAP1 POP JUMP JUMPDEST PUSH32 0x496E76616C6964206C6576656C00000000000000000000000000000000000000 PUSH0 DUP3 ADD MSTORE POP JUMP JUMPDEST PUSH0 PUSH2 0x54E6 PUSH1 0xD DUP4 PUSH2 0x3E17 JUMP JUMPDEST SWAP2 POP PUSH2 0x54F1 DUP3 PUSH2 0x54B2 JUMP JUMPDEST PUSH1 0x20 DUP3 ADD SWAP1 POP SWAP2 SWAP1 POP JUMP JUMPDEST PUSH0 PUSH1 0x20 DUP3 ADD SWAP1 POP DUP2 DUP2 SUB PUSH0 DUP4 ADD MSTORE PUSH2 0x5513 DUP2 PUSH2 0x54DA JUMP JUMPDEST SWAP1 POP SWAP2 SWAP1 POP JUMP JUMPDEST PUSH32 0x496E76616C696420726F6F742044414F00000000000000000000000000000000 PUSH0 DUP3 ADD MSTORE POP JUMP JUMPDEST PUSH0 PUSH2 0x554E PUSH1 0x10 DUP4 PUSH2 0x3E17 JUMP JUMPDEST SWAP2 POP PUSH2 0x5559 DUP3 PUSH2 0x551A JUMP JUMPDEST PUSH1 0x20 DUP3 ADD SWAP1 POP SWAP2 SWAP1 POP JUMP JUMPDEST PUSH0 PUSH1 0x20 DUP3 ADD SWAP1 POP DUP2 DUP2 SUB PUSH0 DUP4 ADD MSTORE PUSH2 0x557B DUP2 PUSH2 0x5542 JUMP JUMPDEST SWAP1 POP SWAP2 SWAP1 POP JUMP JUMPDEST PUSH32 0x4E487B7100000000000000000000000000000000000000000000000000000000 PUSH0 MSTORE PUSH1 0x12 PUSH1 0x4 MSTORE PUSH1 0x24 PUSH0 REVERT JUMPDEST PUSH0 PUSH2 0x55B9 DUP3 PUSH2 0x39E1 JUMP JUMPDEST SWAP2 POP PUSH2 0x55C4 DUP4 PUSH2 0x39E1 JUMP JUMPDEST SWAP3 POP DUP3 PUSH2 0x55D4 JUMPI PUSH2 0x55D3 PUSH2 0x5582 JUMP JUMPDEST JUMPDEST DUP3 DUP3 MOD SWAP1 POP SWAP3 SWAP2 POP POP JUMP JUMPDEST PUSH32 0x496E76616C696420737461746500000000000000000000000000000000000000 PUSH0 DUP3 ADD MSTORE POP JUMP JUMPDEST PUSH0 PUSH2 0x5613 PUSH1 0xD DUP4 PUSH2 0x3E17 JUMP JUMPDEST SWAP2 POP PUSH2 0x561E DUP3 PUSH2 0x55DF JUMP JUMPDEST PUSH1 0x20 DUP3 ADD SWAP1 POP SWAP2 SWAP1 POP JUMP JUMPDEST PUSH0 PUSH1 0x20 DUP3 ADD SWAP1 POP DUP2 DUP2 SUB PUSH0 DUP4 ADD MSTORE PUSH2 0x5640 DUP2 PUSH2 0x5607 JUMP JUMPDEST SWAP1 POP SWAP2 SWAP1 POP JUMP JUMPDEST PUSH32 0x537461746520756E6368616E6765640000000000000000000000000000000000 PUSH0 DUP3 ADD MSTORE POP JUMP JUMPDEST PUSH0 PUSH2 0x567B PUSH1 0xF DUP4 PUSH2 0x3E17 JUMP JUMPDEST SWAP2 POP PUSH2 0x5686 DUP3 PUSH2 0x5647 JUMP JUMPDEST PUSH1 0x20 DUP3 ADD SWAP1 POP SWAP2 SWAP1 POP JUMP JUMPDEST PUSH0 PUSH1 0x20 DUP3 ADD SWAP1 POP DUP2 DUP2 SUB PUSH0 DUP4 ADD MSTORE PUSH2 0x56A8 DUP2 PUSH2 0x566F JUMP JUMPDEST SWAP1 POP SWAP2 SWAP1 POP JUMP JUMPDEST PUSH0 PUSH1 0x60 DUP3 ADD SWAP1 POP PUSH2 0x56C2 PUSH0 DUP4 ADD DUP7 PUSH2 0x3A99 JUMP JUMPDEST PUSH2 0x56CF PUSH1 0x20 DUP4 ADD DUP6 PUSH2 0x3A99 JUMP JUMPDEST PUSH2 0x56DC PUSH1 0x40 DUP4 ADD DUP5 PUSH2 0x3A3F JUMP JUMPDEST SWAP5 SWAP4 POP POP POP POP JUMP JUMPDEST PUSH0 PUSH1 0x80 DUP3 ADD SWAP1 POP PUSH2 0x56F7 PUSH0 DUP4 ADD DUP8 PUSH2 0x3A99 JUMP JUMPDEST PUSH2 0x5704 PUSH1 0x20 DUP4 ADD DUP7 PUSH2 0x3A3F JUMP JUMPDEST PUSH2 0x5711 PUSH1 0x40 DUP4 ADD DUP6 PUSH2 0x3A3F JUMP JUMPDEST PUSH2 0x571E PUSH1 0x60 DUP4 ADD DUP5 PUSH2 0x3A3F JUMP JUMPDEST SWAP6 SWAP5 POP POP POP POP POP JUMP JUMPDEST PUSH32 0x5265656E7472616E637947756172643A207265656E7472616E742063616C6C00 PUSH0 DUP3 ADD MSTORE POP JUMP JUMPDEST PUSH0 PUSH2 0x575B PUSH1 0x1F DUP4 PUSH2 0x3E17 JUMP JUMPDEST SWAP2 POP PUSH2 0x5766 DUP3 PUSH2 0x5727 JUMP JUMPDEST PUSH1 0x20 DUP3 ADD SWAP1 POP SWAP2 SWAP1 POP JUMP JUMPDEST PUSH0 PUSH1 0x20 DUP3 ADD SWAP1 POP DUP2 DUP2 SUB PUSH0 DUP4 ADD MSTORE PUSH2 0x5788 DUP2 PUSH2 0x574F JUMP JUMPDEST SWAP1 POP SWAP2 SWAP1 POP JUMP JUMPDEST PUSH0 PUSH1 0x40 DUP3 ADD SWAP1 POP PUSH2 0x57A2 PUSH0 DUP4 ADD DUP6 PUSH2 0x3A7E JUMP JUMPDEST PUSH2 0x57AF PUSH1 0x20 DUP4 ADD DUP5 PUSH2 0x3CD0 JUMP JUMPDEST SWAP4 SWAP3 POP POP POP JUMP INVALID LOG2 PUSH5 0x6970667358 0x22 SLT KECCAK256 PUSH30 0x3F82D3F682CC0BB5C0BD056EE0EA4F85A6F4129DE3EF9F04B243B2FA21C6 0xE1 PUSH5 0x736F6C6343 STOP ADDMOD EQ STOP CALLER "
		},
		"gasEstimates": {
			"creation": {
				"codeDepositCost": "4501600",
				"executionCost": "infinite",
				"totalCost": "infinite"
			},
			"external": {
				"DEFAULT_ADMIN_ROLE()": "463",
				"activeMemberCount()": "2581",
				"addConnection(address,uint256,bool,bool)": "infinite",
				"canceled(uint256)": "2875",
				"castVote(uint256,bool,uint256)": "infinite",
				"chironSlots(uint256,uint256)": "infinite",
				"connectionRewards(address)": "infinite",
				"connections(address,uint256)": "infinite",
				"createProposal(address,uint8,uint256,uint256)": "infinite",
				"currentEpoch()": "2471",
				"currentStage()": "2559",
				"daoAnalytics()": "2572",
				"daoCountAtLevel(uint256)": "infinite",
				"daos(uint256)": "infinite",
				"daosByLevel(uint256,uint256)": "infinite",
				"executeProposal(uint256)": "infinite",
				"getChironSlotInfo(uint256,uint256)": "infinite",
				"getMemberVouchInfo(address)": "infinite",
				"getProposalBasicInfo(uint256)": "infinite",
				"getRoleAdmin(bytes32)": "infinite",
				"globalDaoCount()": "2492",
				"grantRole(bytes32,address)": "infinite",
				"hasRole(bytes32,address)": "3189",
				"hasVouched(address,address)": "infinite",
				"incrementEpoch()": "infinite",
				"initializeChironSlot(uint256,uint256,uint256,uint256)": "infinite",
				"isActiveMember(address)": "2989",
				"joinDAO(uint256)": "infinite",
				"lastActivityTimestamp(address)": "2891",
				"lastEpochUpdate()": "2470",
				"locations(uint256)": "infinite",
				"logicConstituent()": "2598",
				"memberVouches(address)": "infinite",
				"proposalCount()": "2492",
				"proposalStage(uint256)": "2896",
				"proposals(uint256)": "infinite",
				"registerDAO(address,uint256,int256[3])": "infinite",
				"renounceRole(bytes32,address)": "infinite",
				"reputationScores(address)": "2934",
				"revokeRole(bytes32,address)": "infinite",
				"setLogicConstituent(address)": "infinite",
				"stakes(address)": "2915",
				"supportsInterface(bytes4)": "786",
				"token()": "infinite",
				"updateChironSlot(uint256,uint256,uint256,uint256,bool)": "infinite",
				"updateProposalState(uint256,uint8)": "infinite",
				"updateReputation(address,uint256)": "22888",
				"version()": "infinite",
				"vouchForMember(address)": "infinite"
			}
		},
		"methodIdentifiers": {
			"DEFAULT_ADMIN_ROLE()": "a217fddf",
			"activeMemberCount()": "5fb6c6ed",
			"addConnection(address,uint256,bool,bool)": "784cd42d",
			"canceled(uint256)": "78db0c14",
			"castVote(uint256,bool,uint256)": "6036e9e0",
			"chironSlots(uint256,uint256)": "73b88691",
			"connectionRewards(address)": "62653533",
			"connections(address,uint256)": "7a65b551",
			"createProposal(address,uint8,uint256,uint256)": "fc41f0a9",
			"currentEpoch()": "76671808",
			"currentStage()": "5bf5d54c",
			"daoAnalytics()": "7cd17834",
			"daoCountAtLevel(uint256)": "7d4782d0",
			"daos(uint256)": "ccbbd260",
			"daosByLevel(uint256,uint256)": "50eb4ff1",
			"executeProposal(uint256)": "0d61b519",
			"getChironSlotInfo(uint256,uint256)": "691314b0",
			"getMemberVouchInfo(address)": "43fd652a",
			"getProposalBasicInfo(uint256)": "70a394c2",
			"getRoleAdmin(bytes32)": "248a9ca3",
			"globalDaoCount()": "bc4d3286",
			"grantRole(bytes32,address)": "2f2ff15d",
			"hasRole(bytes32,address)": "91d14854",
			"hasVouched(address,address)": "a3769800",
			"incrementEpoch()": "958efd7a",
			"initializeChironSlot(uint256,uint256,uint256,uint256)": "4250816c",
			"isActiveMember(address)": "45ecd02f",
			"joinDAO(uint256)": "3fbdf32c",
			"lastActivityTimestamp(address)": "da65b540",
			"lastEpochUpdate()": "8676950f",
			"locations(uint256)": "b9e0db35",
			"logicConstituent()": "594426e1",
			"memberVouches(address)": "59fa2a07",
			"proposalCount()": "da35c664",
			"proposalStage(uint256)": "f207f3b6",
			"proposals(uint256)": "013cf08b",
			"registerDAO(address,uint256,int256[3])": "93f73200",
			"renounceRole(bytes32,address)": "36568abe",
			"reputationScores(address)": "fe0438b2",
			"revokeRole(bytes32,address)": "d547741f",
			"setLogicConstituent(address)": "66caea15",
			"stakes(address)": "16934fc4",
			"supportsInterface(bytes4)": "01ffc9a7",
			"token()": "fc0c546a",
			"updateChironSlot(uint256,uint256,uint256,uint256,bool)": "cabaeeb3",
			"updateProposalState(uint256,uint8)": "cdade360",
			"updateReputation(address,uint256)": "f5c91a08",
			"version()": "54fd4d50",
			"vouchForMember(address)": "2a106c9b"
		}
	},
	"abi": [
		{
			"inputs": [
				{
					"internalType": "address",
					"name": "_token",
					"type": "address"
				}
			],
			"stateMutability": "nonpayable",
			"type": "constructor"
		},
		{
			"inputs": [],
			"name": "AccessControlBadConfirmation",
			"type": "error"
		},
		{
			"inputs": [
				{
					"internalType": "address",
					"name": "account",
					"type": "address"
				},
				{
					"internalType": "bytes32",
					"name": "neededRole",
					"type": "bytes32"
				}
			],
			"name": "AccessControlUnauthorizedAccount",
			"type": "error"
		},
		{
			"anonymous": false,
			"inputs": [
				{
					"indexed": true,
					"internalType": "uint256",
					"name": "globalId",
					"type": "uint256"
				},
				{
					"indexed": true,
					"internalType": "address",
					"name": "daoAddress",
					"type": "address"
				},
				{
					"indexed": false,
					"internalType": "uint256",
					"name": "level",
					"type": "uint256"
				}
			],
			"name": "DAORegistered",
			"type": "event"
		},
		{
			"anonymous": false,
			"inputs": [
				{
					"indexed": true,
					"internalType": "address",
					"name": "member",
					"type": "address"
				},
				{
					"indexed": true,
					"internalType": "uint256",
					"name": "daoId",
					"type": "uint256"
				},
				{
					"indexed": false,
					"internalType": "uint256",
					"name": "timestamp",
					"type": "uint256"
				},
				{
					"indexed": false,
					"internalType": "uint256",
					"name": "stakeAmount",
					"type": "uint256"
				}
			],
			"name": "MemberJoined",
			"type": "event"
		},
		{
			"anonymous": false,
			"inputs": [
				{
					"indexed": true,
					"internalType": "address",
					"name": "voucher",
					"type": "address"
				},
				{
					"indexed": true,
					"internalType": "address",
					"name": "member",
					"type": "address"
				},
				{
					"indexed": false,
					"internalType": "uint256",
					"name": "totalVouches",
					"type": "uint256"
				}
			],
			"name": "NewVouch",
			"type": "event"
		},
		{
			"anonymous": false,
			"inputs": [
				{
					"indexed": true,
					"internalType": "uint256",
					"name": "proposalId",
					"type": "uint256"
				},
				{
					"indexed": true,
					"internalType": "address",
					"name": "proposer",
					"type": "address"
				},
				{
					"indexed": false,
					"internalType": "uint8",
					"name": "category",
					"type": "uint8"
				},
				{
					"indexed": false,
					"internalType": "uint256",
					"name": "startEpoch",
					"type": "uint256"
				},
				{
					"indexed": false,
					"internalType": "uint256",
					"name": "endEpoch",
					"type": "uint256"
				},
				{
					"indexed": false,
					"internalType": "uint256",
					"name": "proposerReputation",
					"type": "uint256"
				}
			],
			"name": "ProposalCreated",
			"type": "event"
		},
		{
			"anonymous": false,
			"inputs": [
				{
					"indexed": true,
					"internalType": "uint256",
					"name": "proposalId",
					"type": "uint256"
				},
				{
					"indexed": true,
					"internalType": "address",
					"name": "executor",
					"type": "address"
				},
				{
					"indexed": false,
					"internalType": "uint256",
					"name": "timestamp",
					"type": "uint256"
				},
				{
					"indexed": false,
					"internalType": "uint256",
					"name": "forVotes",
					"type": "uint256"
				},
				{
					"indexed": false,
					"internalType": "uint256",
					"name": "againstVotes",
					"type": "uint256"
				}
			],
			"name": "ProposalExecuted",
			"type": "event"
		},
		{
			"anonymous": false,
			"inputs": [
				{
					"indexed": true,
					"internalType": "uint256",
					"name": "proposalId",
					"type": "uint256"
				},
				{
					"indexed": false,
					"internalType": "uint8",
					"name": "fromState",
					"type": "uint8"
				},
				{
					"indexed": false,
					"internalType": "uint8",
					"name": "toState",
					"type": "uint8"
				},
				{
					"indexed": false,
					"internalType": "uint256",
					"name": "timestamp",
					"type": "uint256"
				},
				{
					"indexed": true,
					"internalType": "bytes32",
					"name": "txHash",
					"type": "bytes32"
				}
			],
			"name": "ProposalStateChanged",
			"type": "event"
		},
		{
			"anonymous": false,
			"inputs": [
				{
					"indexed": true,
					"internalType": "bytes32",
					"name": "role",
					"type": "bytes32"
				},
				{
					"indexed": true,
					"internalType": "bytes32",
					"name": "previousAdminRole",
					"type": "bytes32"
				},
				{
					"indexed": true,
					"internalType": "bytes32",
					"name": "newAdminRole",
					"type": "bytes32"
				}
			],
			"name": "RoleAdminChanged",
			"type": "event"
		},
		{
			"anonymous": false,
			"inputs": [
				{
					"indexed": true,
					"internalType": "bytes32",
					"name": "role",
					"type": "bytes32"
				},
				{
					"indexed": true,
					"internalType": "address",
					"name": "account",
					"type": "address"
				},
				{
					"indexed": true,
					"internalType": "address",
					"name": "sender",
					"type": "address"
				}
			],
			"name": "RoleGranted",
			"type": "event"
		},
		{
			"anonymous": false,
			"inputs": [
				{
					"indexed": true,
					"internalType": "bytes32",
					"name": "role",
					"type": "bytes32"
				},
				{
					"indexed": true,
					"internalType": "address",
					"name": "account",
					"type": "address"
				},
				{
					"indexed": true,
					"internalType": "address",
					"name": "sender",
					"type": "address"
				}
			],
			"name": "RoleRevoked",
			"type": "event"
		},
		{
			"anonymous": false,
			"inputs": [
				{
					"indexed": true,
					"internalType": "uint256",
					"name": "proposalId",
					"type": "uint256"
				},
				{
					"indexed": true,
					"internalType": "address",
					"name": "voter",
					"type": "address"
				},
				{
					"indexed": false,
					"internalType": "bool",
					"name": "support",
					"type": "bool"
				},
				{
					"indexed": false,
					"internalType": "uint256",
					"name": "votes",
					"type": "uint256"
				}
			],
			"name": "VoteCast",
			"type": "event"
		},
		{
			"inputs": [],
			"name": "DEFAULT_ADMIN_ROLE",
			"outputs": [
				{
					"internalType": "bytes32",
					"name": "",
					"type": "bytes32"
				}
			],
			"stateMutability": "view",
			"type": "function"
		},
		{
			"inputs": [],
			"name": "activeMemberCount",
			"outputs": [
				{
					"internalType": "uint256",
					"name": "",
					"type": "uint256"
				}
			],
			"stateMutability": "view",
			"type": "function"
		},
		{
			"inputs": [
				{
					"internalType": "address",
					"name": "target",
					"type": "address"
				},
				{
					"internalType": "uint256",
					"name": "trustScore",
					"type": "uint256"
				},
				{
					"internalType": "bool",
					"name": "isFamilial",
					"type": "bool"
				},
				{
					"internalType": "bool",
					"name": "isInstitutional",
					"type": "bool"
				}
			],
			"name": "addConnection",
			"outputs": [],
			"stateMutability": "nonpayable",
			"type": "function"
		},
		{
			"inputs": [
				{
					"internalType": "uint256",
					"name": "",
					"type": "uint256"
				}
			],
			"name": "canceled",
			"outputs": [
				{
					"internalType": "bool",
					"name": "",
					"type": "bool"
				}
			],
			"stateMutability": "view",
			"type": "function"
		},
		{
			"inputs": [
				{
					"internalType": "uint256",
					"name": "proposalId",
					"type": "uint256"
				},
				{
					"internalType": "bool",
					"name": "support",
					"type": "bool"
				},
				{
					"internalType": "uint256",
					"name": "voteAmount",
					"type": "uint256"
				}
			],
			"name": "castVote",
			"outputs": [],
			"stateMutability": "nonpayable",
			"type": "function"
		},
		{
			"inputs": [
				{
					"internalType": "uint256",
					"name": "",
					"type": "uint256"
				},
				{
					"internalType": "uint256",
					"name": "",
					"type": "uint256"
				}
			],
			"name": "chironSlots",
			"outputs": [
				{
					"internalType": "uint256",
					"name": "slotId",
					"type": "uint256"
				},
				{
					"internalType": "uint256",
					"name": "durationMs",
					"type": "uint256"
				},
				{
					"internalType": "uint256",
					"name": "patternValue",
					"type": "uint256"
				},
				{
					"internalType": "bool",
					"name": "isActive",
					"type": "bool"
				},
				{
					"internalType": "bytes32",
					"name": "currentNewsId",
					"type": "bytes32"
				},
				{
					"internalType": "bytes32",
					"name": "currentAdId",
					"type": "bytes32"
				},
				{
					"internalType": "uint256",
					"name": "lastUpdateTime",
					"type": "uint256"
				}
			],
			"stateMutability": "view",
			"type": "function"
		},
		{
			"inputs": [
				{
					"internalType": "address",
					"name": "",
					"type": "address"
				}
			],
			"name": "connectionRewards",
			"outputs": [
				{
					"internalType": "bool",
					"name": "claimed",
					"type": "bool"
				},
				{
					"internalType": "uint256",
					"name": "deadline",
					"type": "uint256"
				},
				{
					"internalType": "uint256",
					"name": "connectionTarget",
					"type": "uint256"
				},
				{
					"internalType": "uint256",
					"name": "currentConnections",
					"type": "uint256"
				},
				{
					"internalType": "uint256",
					"name": "rewardAmount",
					"type": "uint256"
				},
				{
					"internalType": "bool",
					"name": "allowPartial",
					"type": "bool"
				}
			],
			"stateMutability": "view",
			"type": "function"
		},
		{
			"inputs": [
				{
					"internalType": "address",
					"name": "",
					"type": "address"
				},
				{
					"internalType": "uint256",
					"name": "",
					"type": "uint256"
				}
			],
			"name": "connections",
			"outputs": [
				{
					"internalType": "address",
					"name": "target",
					"type": "address"
				},
				{
					"internalType": "uint256",
					"name": "trustScore",
					"type": "uint256"
				},
				{
					"internalType": "bool",
					"name": "isFamilial",
					"type": "bool"
				},
				{
					"internalType": "bool",
					"name": "isInstitutional",
					"type": "bool"
				}
			],
			"stateMutability": "view",
			"type": "function"
		},
		{
			"inputs": [
				{
					"internalType": "address",
					"name": "proposer",
					"type": "address"
				},
				{
					"internalType": "uint8",
					"name": "category",
					"type": "uint8"
				},
				{
					"internalType": "uint256",
					"name": "startEpoch",
					"type": "uint256"
				},
				{
					"internalType": "uint256",
					"name": "endEpoch",
					"type": "uint256"
				}
			],
			"name": "createProposal",
			"outputs": [
				{
					"internalType": "uint256",
					"name": "",
					"type": "uint256"
				}
			],
			"stateMutability": "nonpayable",
			"type": "function"
		},
		{
			"inputs": [],
			"name": "currentEpoch",
			"outputs": [
				{
					"internalType": "uint256",
					"name": "",
					"type": "uint256"
				}
			],
			"stateMutability": "view",
			"type": "function"
		},
		{
			"inputs": [],
			"name": "currentStage",
			"outputs": [
				{
					"internalType": "uint256",
					"name": "",
					"type": "uint256"
				}
			],
			"stateMutability": "view",
			"type": "function"
		},
		{
			"inputs": [],
			"name": "daoAnalytics",
			"outputs": [
				{
					"internalType": "uint256",
					"name": "activeUsers",
					"type": "uint256"
				}
			],
			"stateMutability": "view",
			"type": "function"
		},
		{
			"inputs": [
				{
					"internalType": "uint256",
					"name": "",
					"type": "uint256"
				}
			],
			"name": "daoCountAtLevel",
			"outputs": [
				{
					"internalType": "uint256",
					"name": "",
					"type": "uint256"
				}
			],
			"stateMutability": "view",
			"type": "function"
		},
		{
			"inputs": [
				{
					"internalType": "uint256",
					"name": "",
					"type": "uint256"
				}
			],
			"name": "daos",
			"outputs": [
				{
					"internalType": "uint256",
					"name": "id",
					"type": "uint256"
				},
				{
					"internalType": "uint256",
					"name": "globalId",
					"type": "uint256"
				},
				{
					"internalType": "uint256",
					"name": "parentId",
					"type": "uint256"
				},
				{
					"internalType": "uint256",
					"name": "rootId",
					"type": "uint256"
				},
				{
					"internalType": "uint256",
					"name": "level",
					"type": "uint256"
				},
				{
					"internalType": "address",
					"name": "daoAddress",
					"type": "address"
				},
				{
					"internalType": "bool",
					"name": "active",
					"type": "bool"
				}
			],
			"stateMutability": "view",
			"type": "function"
		},
		{
			"inputs": [
				{
					"internalType": "uint256",
					"name": "",
					"type": "uint256"
				},
				{
					"internalType": "uint256",
					"name": "",
					"type": "uint256"
				}
			],
			"name": "daosByLevel",
			"outputs": [
				{
					"internalType": "uint256",
					"name": "",
					"type": "uint256"
				}
			],
			"stateMutability": "view",
			"type": "function"
		},
		{
			"inputs": [
				{
					"internalType": "uint256",
					"name": "proposalId",
					"type": "uint256"
				}
			],
			"name": "executeProposal",
			"outputs": [],
			"stateMutability": "nonpayable",
			"type": "function"
		},
		{
			"inputs": [
				{
					"internalType": "uint256",
					"name": "locationId",
					"type": "uint256"
				},
				{
					"internalType": "uint256",
					"name": "slotId",
					"type": "uint256"
				}
			],
			"name": "getChironSlotInfo",
			"outputs": [
				{
					"internalType": "uint256",
					"name": "",
					"type": "uint256"
				},
				{
					"internalType": "uint256",
					"name": "",
					"type": "uint256"
				},
				{
					"internalType": "bool",
					"name": "",
					"type": "bool"
				}
			],
			"stateMutability": "view",
			"type": "function"
		},
		{
			"inputs": [
				{
					"internalType": "address",
					"name": "member",
					"type": "address"
				}
			],
			"name": "getMemberVouchInfo",
			"outputs": [
				{
					"internalType": "uint256",
					"name": "vouchCount",
					"type": "uint256"
				},
				{
					"internalType": "bool",
					"name": "isGenesis",
					"type": "bool"
				},
				{
					"internalType": "bool",
					"name": "hasFullAllocation",
					"type": "bool"
				}
			],
			"stateMutability": "view",
			"type": "function"
		},
		{
			"inputs": [
				{
					"internalType": "uint256",
					"name": "proposalId",
					"type": "uint256"
				}
			],
			"name": "getProposalBasicInfo",
			"outputs": [
				{
					"components": [
						{
							"internalType": "uint256",
							"name": "startEpoch",
							"type": "uint256"
						},
						{
							"internalType": "uint256",
							"name": "endEpoch",
							"type": "uint256"
						},
						{
							"internalType": "bool",
							"name": "isCanceled",
							"type": "bool"
						},
						{
							"internalType": "bool",
							"name": "executed",
							"type": "bool"
						},
						{
							"internalType": "uint256",
							"name": "forVotes",
							"type": "uint256"
						},
						{
							"internalType": "uint256",
							"name": "againstVotes",
							"type": "uint256"
						},
						{
							"internalType": "uint8",
							"name": "stage",
							"type": "uint8"
						},
						{
							"internalType": "uint256",
							"name": "proposerReputation",
							"type": "uint256"
						}
					],
					"internalType": "struct StateConstituent.ProposalBasicInfo",
					"name": "",
					"type": "tuple"
				}
			],
			"stateMutability": "view",
			"type": "function"
		},
		{
			"inputs": [
				{
					"internalType": "bytes32",
					"name": "role",
					"type": "bytes32"
				}
			],
			"name": "getRoleAdmin",
			"outputs": [
				{
					"internalType": "bytes32",
					"name": "",
					"type": "bytes32"
				}
			],
			"stateMutability": "view",
			"type": "function"
		},
		{
			"inputs": [],
			"name": "globalDaoCount",
			"outputs": [
				{
					"internalType": "uint256",
					"name": "",
					"type": "uint256"
				}
			],
			"stateMutability": "view",
			"type": "function"
		},
		{
			"inputs": [
				{
					"internalType": "bytes32",
					"name": "role",
					"type": "bytes32"
				},
				{
					"internalType": "address",
					"name": "account",
					"type": "address"
				}
			],
			"name": "grantRole",
			"outputs": [],
			"stateMutability": "nonpayable",
			"type": "function"
		},
		{
			"inputs": [
				{
					"internalType": "bytes32",
					"name": "role",
					"type": "bytes32"
				},
				{
					"internalType": "address",
					"name": "account",
					"type": "address"
				}
			],
			"name": "hasRole",
			"outputs": [
				{
					"internalType": "bool",
					"name": "",
					"type": "bool"
				}
			],
			"stateMutability": "view",
			"type": "function"
		},
		{
			"inputs": [
				{
					"internalType": "address",
					"name": "",
					"type": "address"
				},
				{
					"internalType": "address",
					"name": "",
					"type": "address"
				}
			],
			"name": "hasVouched",
			"outputs": [
				{
					"internalType": "bool",
					"name": "",
					"type": "bool"
				}
			],
			"stateMutability": "view",
			"type": "function"
		},
		{
			"inputs": [],
			"name": "incrementEpoch",
			"outputs": [],
			"stateMutability": "nonpayable",
			"type": "function"
		},
		{
			"inputs": [
				{
					"internalType": "uint256",
					"name": "locationId",
					"type": "uint256"
				},
				{
					"internalType": "uint256",
					"name": "slotId",
					"type": "uint256"
				},
				{
					"internalType": "uint256",
					"name": "durationMs",
					"type": "uint256"
				},
				{
					"internalType": "uint256",
					"name": "patternValue",
					"type": "uint256"
				}
			],
			"name": "initializeChironSlot",
			"outputs": [],
			"stateMutability": "nonpayable",
			"type": "function"
		},
		{
			"inputs": [
				{
					"internalType": "address",
					"name": "",
					"type": "address"
				}
			],
			"name": "isActiveMember",
			"outputs": [
				{
					"internalType": "bool",
					"name": "",
					"type": "bool"
				}
			],
			"stateMutability": "view",
			"type": "function"
		},
		{
			"inputs": [
				{
					"internalType": "uint256",
					"name": "daoId",
					"type": "uint256"
				}
			],
			"name": "joinDAO",
			"outputs": [],
			"stateMutability": "payable",
			"type": "function"
		},
		{
			"inputs": [
				{
					"internalType": "address",
					"name": "",
					"type": "address"
				}
			],
			"name": "lastActivityTimestamp",
			"outputs": [
				{
					"internalType": "uint256",
					"name": "",
					"type": "uint256"
				}
			],
			"stateMutability": "view",
			"type": "function"
		},
		{
			"inputs": [],
			"name": "lastEpochUpdate",
			"outputs": [
				{
					"internalType": "uint256",
					"name": "",
					"type": "uint256"
				}
			],
			"stateMutability": "view",
			"type": "function"
		},
		{
			"inputs": [
				{
					"internalType": "uint256",
					"name": "",
					"type": "uint256"
				}
			],
			"name": "locations",
			"outputs": [
				{
					"internalType": "uint256",
					"name": "id",
					"type": "uint256"
				},
				{
					"internalType": "bytes32",
					"name": "coordinates",
					"type": "bytes32"
				},
				{
					"internalType": "uint256",
					"name": "memberCount",
					"type": "uint256"
				},
				{
					"internalType": "uint256",
					"name": "reputation",
					"type": "uint256"
				}
			],
			"stateMutability": "view",
			"type": "function"
		},
		{
			"inputs": [],
			"name": "logicConstituent",
			"outputs": [
				{
					"internalType": "address",
					"name": "",
					"type": "address"
				}
			],
			"stateMutability": "view",
			"type": "function"
		},
		{
			"inputs": [
				{
					"internalType": "address",
					"name": "",
					"type": "address"
				}
			],
			"name": "memberVouches",
			"outputs": [
				{
					"internalType": "uint256",
					"name": "vouchCount",
					"type": "uint256"
				},
				{
					"internalType": "uint256",
					"name": "joinTimestamp",
					"type": "uint256"
				},
				{
					"internalType": "bool",
					"name": "isGenesisAccount",
					"type": "bool"
				},
				{
					"internalType": "bool",
					"name": "hasFullAllocation",
					"type": "bool"
				}
			],
			"stateMutability": "view",
			"type": "function"
		},
		{
			"inputs": [],
			"name": "proposalCount",
			"outputs": [
				{
					"internalType": "uint256",
					"name": "",
					"type": "uint256"
				}
			],
			"stateMutability": "view",
			"type": "function"
		},
		{
			"inputs": [
				{
					"internalType": "uint256",
					"name": "",
					"type": "uint256"
				}
			],
			"name": "proposalStage",
			"outputs": [
				{
					"internalType": "uint8",
					"name": "",
					"type": "uint8"
				}
			],
			"stateMutability": "view",
			"type": "function"
		},
		{
			"inputs": [
				{
					"internalType": "uint256",
					"name": "",
					"type": "uint256"
				}
			],
			"name": "proposals",
			"outputs": [
				{
					"internalType": "uint256",
					"name": "id",
					"type": "uint256"
				},
				{
					"internalType": "address",
					"name": "proposer",
					"type": "address"
				},
				{
					"internalType": "uint256",
					"name": "startEpoch",
					"type": "uint256"
				},
				{
					"internalType": "uint256",
					"name": "endEpoch",
					"type": "uint256"
				},
				{
					"internalType": "uint256",
					"name": "forVotes",
					"type": "uint256"
				},
				{
					"internalType": "uint256",
					"name": "againstVotes",
					"type": "uint256"
				},
				{
					"internalType": "uint256",
					"name": "uniqueVoters",
					"type": "uint256"
				},
				{
					"internalType": "uint8",
					"name": "category",
					"type": "uint8"
				},
				{
					"internalType": "bool",
					"name": "canceled",
					"type": "bool"
				},
				{
					"internalType": "bool",
					"name": "executed",
					"type": "bool"
				},
				{
					"internalType": "uint256",
					"name": "proposerReputation",
					"type": "uint256"
				}
			],
			"stateMutability": "view",
			"type": "function"
		},
		{
			"inputs": [
				{
					"internalType": "address",
					"name": "daoAddress",
					"type": "address"
				},
				{
					"internalType": "uint256",
					"name": "level",
					"type": "uint256"
				},
				{
					"internalType": "int256[3]",
					"name": "constituents",
					"type": "int256[3]"
				}
			],
			"name": "registerDAO",
			"outputs": [
				{
					"internalType": "uint256",
					"name": "",
					"type": "uint256"
				}
			],
			"stateMutability": "nonpayable",
			"type": "function"
		},
		{
			"inputs": [
				{
					"internalType": "bytes32",
					"name": "role",
					"type": "bytes32"
				},
				{
					"internalType": "address",
					"name": "callerConfirmation",
					"type": "address"
				}
			],
			"name": "renounceRole",
			"outputs": [],
			"stateMutability": "nonpayable",
			"type": "function"
		},
		{
			"inputs": [
				{
					"internalType": "address",
					"name": "",
					"type": "address"
				}
			],
			"name": "reputationScores",
			"outputs": [
				{
					"internalType": "uint256",
					"name": "",
					"type": "uint256"
				}
			],
			"stateMutability": "view",
			"type": "function"
		},
		{
			"inputs": [
				{
					"internalType": "bytes32",
					"name": "role",
					"type": "bytes32"
				},
				{
					"internalType": "address",
					"name": "account",
					"type": "address"
				}
			],
			"name": "revokeRole",
			"outputs": [],
			"stateMutability": "nonpayable",
			"type": "function"
		},
		{
			"inputs": [
				{
					"internalType": "address",
					"name": "_logicConstituent",
					"type": "address"
				}
			],
			"name": "setLogicConstituent",
			"outputs": [],
			"stateMutability": "nonpayable",
			"type": "function"
		},
		{
			"inputs": [
				{
					"internalType": "address",
					"name": "",
					"type": "address"
				}
			],
			"name": "stakes",
			"outputs": [
				{
					"internalType": "uint256",
					"name": "",
					"type": "uint256"
				}
			],
			"stateMutability": "view",
			"type": "function"
		},
		{
			"inputs": [
				{
					"internalType": "bytes4",
					"name": "interfaceId",
					"type": "bytes4"
				}
			],
			"name": "supportsInterface",
			"outputs": [
				{
					"internalType": "bool",
					"name": "",
					"type": "bool"
				}
			],
			"stateMutability": "view",
			"type": "function"
		},
		{
			"inputs": [],
			"name": "token",
			"outputs": [
				{
					"internalType": "contract IERC20",
					"name": "",
					"type": "address"
				}
			],
			"stateMutability": "view",
			"type": "function"
		},
		{
			"inputs": [
				{
					"internalType": "uint256",
					"name": "locationId",
					"type": "uint256"
				},
				{
					"internalType": "uint256",
					"name": "slotId",
					"type": "uint256"
				},
				{
					"internalType": "uint256",
					"name": "durationMs",
					"type": "uint256"
				},
				{
					"internalType": "uint256",
					"name": "patternValue",
					"type": "uint256"
				},
				{
					"internalType": "bool",
					"name": "isActive",
					"type": "bool"
				}
			],
			"name": "updateChironSlot",
			"outputs": [],
			"stateMutability": "nonpayable",
			"type": "function"
		},
		{
			"inputs": [
				{
					"internalType": "uint256",
					"name": "proposalId",
					"type": "uint256"
				},
				{
					"internalType": "uint8",
					"name": "newState",
					"type": "uint8"
				}
			],
			"name": "updateProposalState",
			"outputs": [],
			"stateMutability": "nonpayable",
			"type": "function"
		},
		{
			"inputs": [
				{
					"internalType": "address",
					"name": "user",
					"type": "address"
				},
				{
					"internalType": "uint256",
					"name": "newScore",
					"type": "uint256"
				}
			],
			"name": "updateReputation",
			"outputs": [],
			"stateMutability": "nonpayable",
			"type": "function"
		},
		{
			"inputs": [],
			"name": "version",
			"outputs": [
				{
					"internalType": "string",
					"name": "",
					"type": "string"
				}
			],
			"stateMutability": "pure",
			"type": "function"
		},
		{
			"inputs": [
				{
					"internalType": "address",
					"name": "newMember",
					"type": "address"
				}
			],
			"name": "vouchForMember",
			"outputs": [],
			"stateMutability": "nonpayable",
			"type": "function"
		}
	]
}