{
	"data": {
		"bytecode": {
			"linkReferences": {
				"contract_info/TripartiteComputations.sol": {
					"TripartiteComputations": [
						{
							"length": 20,
							"start": 3280
						},
						{
							"length": 20,
							"start": 3664
						},
						{
							"length": 20,
							"start": 3923
						},
						{
							"length": 20,
							"start": 5827
						}
					]
				}
			},
			"object": "60a080604052346100e857306080527ff0c57e16840df040f15088dc2f81fe391c3923bec73e23a9662efc9c229c6a005460ff8160401c166100d9576002600160401b03196001600160401b03821601610073575b604051613c7790816100ed8239608051818181610812015261093a0152f35b6001600160401b0319166001600160401b039081177ff0c57e16840df040f15088dc2f81fe391c3923bec73e23a9662efc9c229c6a005581527fc7f505b2f371ae2175ee4913f4499e1f2633a7b5936321eed1cdaeb6115181d290602090a15f80610054565b63f92ee8a960e01b5f5260045ffd5b5f80fdfe60806040526004361015610018575b3661196257611939565b5f3560e01c806301ffc9a7146101b7578063248a9ca3146101b2578063279efeb3146101ad5780632f2ff15d146101a857806336568abe146101a35780633a88179e1461019e5780633ba3705214610199578063403371e11461019457806347b503491461018f5780634f1ef2861461018a57806352d1902d1461018557806391d14854146101805780639e95da2b1461017b578063a18d9f2e14610176578063a217fddf14610171578063a6dcbc351461016c578063ad3cb1cc14610167578063c183e35014610162578063c2eb66f71461015d578063c9da33ec14610158578063cc0e97c914610153578063d547741f1461014e578063db5f30e114610149578063e9737c8d14610144578063f72c0d8b1461013f5763f8c8765e0361000e576110a1565b611067565b610f71565b610f49565b610f15565b610eed565b610e44565b610d38565b610d05565b610cad565b610ba6565b610a8a565b610a62565b6109dd565b61097f565b610928565b6107bf565b610797565b6106ef565b6106c7565b6105f5565b610518565b6104dd565b61031d565b610211565b3461020d57602036600319011261020d5760043563ffffffff60e01b811680910361020d57602090637965db0b60e01b81149081156101fc575b506040519015158152f35b6301ffc9a760e01b1490505f6101f1565b5f80fd5b3461020d57602036600319011261020d57602061022f60043561123b565b604051908152f35b634e487b7160e01b5f52604160045260245ffd5b608081019081106001600160401b0382111761026657604052565b610237565b90601f801991011681019081106001600160401b0382111761026657604052565b6040519061029b60c08361026b565b565b6001600160401b03811161026657601f01601f191660200190565b9291926102c48261029d565b916102d2604051938461026b565b82948184528183011161020d578281602093845f960137010152565b9080601f8301121561020d57816020610309933591016102b8565b90565b6001600160a01b0381160361020d57565b3461020d57604036600319011261020d576004356001600160401b03811161020d5761034d9036906004016102ee565b6024356103598161030c565b6103616119e6565b815160208301207f5942be825425c77e56e4bce97986794ab0f100954e40fc1390ae0e003710a3ac81036103e25750603480546001600160a01b0319166001600160a01b0383161790557f2b51ff7c4cc8e6fe1c72e9d9685b7d2a88a5d82ad3a644afbdceb0272c89c1c3915b6103dd60405192839283611259565b0390a1005b7f51b3916b57265846b709f718da8fc5102fcf61cb3ff4a7d635cb7f3641afec43810361044c5750603580546001600160a01b0319166001600160a01b0383161790557f2b51ff7c4cc8e6fe1c72e9d9685b7d2a88a5d82ad3a644afbdceb0272c89c1c3916103ce565b7f201105a52b842adfbcdcfcac0349cd25c8a3cb322954633dd585b0958aa204f3036104b457603680546001600160a01b0319166001600160a01b0383161790557f2b51ff7c4cc8e6fe1c72e9d9685b7d2a88a5d82ad3a644afbdceb0272c89c1c3916103ce565b60405162461bcd60e51b81526020600482015260016024820152603160f81b6044820152606490fd5b3461020d57604036600319011261020d576105166024356004356105008261030c565b61051161050c8261123b565b611a55565b611c1e565b005b3461020d57604036600319011261020d576004356024356105388161030c565b336001600160a01b038216036105515761051691611cc6565b63334bd91960e11b5f5260045ffd5b6001600160401b0381116102665760051b60200190565b9080601f8301121561020d57813561058e81610560565b9261059c604051948561026b565b81845260208085019260051b8201019183831161020d5760208201905b8382106105c857505050505090565b81356001600160401b03811161020d576020916105ea878480948801016102ee565b8152019101906105b9565b3461020d57606036600319011261020d576004356001600160401b03811161020d573660238201121561020d5780600401359061063182610560565b9161063f604051938461026b565b8083526024602084019160051b8301019136831161020d57602401905b8282106106ad57836024356001600160401b03811161020d57610683903690600401610577565b90604435916001600160401b03831161020d576106a7610516933690600401610577565b916112e4565b813581526020918201910161065c565b5f91031261020d57565b3461020d575f36600319011261020d576033546040516001600160a01b039091168152602090f35b3461020d57602036600319011261020d57603254604051632dedb01d60e01b8152600480359082015290602090829060249082906001600160a01b03165afa8015610792575f90610755575b6040516001600160a01b03919091168152602090f35b0390f35b506020813d60201161078a575b8161076f6020938361026b565b8101031261020d5761075190516107858161030c565b61073b565b3d9150610762565b6112d9565b3461020d575f36600319011261020d576036546040516001600160a01b039091168152602090f35b604036600319011261020d576004356107d78161030c565b6024356001600160401b03811161020d573660238201121561020d576108079036906024816004013591016102b8565b906001600160a01b037f000000000000000000000000000000000000000000000000000000000000000016308114908115610906575b506108f75761084a6119e6565b6040516352d1902d60e01b8152916020836004816001600160a01b0386165afa5f93816108c6575b5061089357634c9c8ce360e01b5f526001600160a01b03821660045260245ffd5b905f80516020613be283398151915283036108b2576105169250611d8b565b632a87526960e21b5f52600483905260245ffd5b6108e991945060203d6020116108f0575b6108e1818361026b565b810190611d66565b925f610872565b503d6108d7565b63703e46dd60e11b5f5260045ffd5b5f80516020613be2833981519152546001600160a01b0316141590505f61083d565b3461020d575f36600319011261020d577f00000000000000000000000000000000000000000000000000000000000000006001600160a01b031630036108f75760206040515f80516020613be28339815191528152f35b3461020d57604036600319011261020d57602060ff6109d16024356004356109a68261030c565b5f525f80516020613c02833981519152845260405f209060018060a01b03165f5260205260405f2090565b54166040519015158152f35b3461020d57604036600319011261020d576024356004356109fd8261030c565b6032546001600160a01b031691823b1561020d5760405163c5b76d8560e01b815260048101929092526001600160a01b03166024820152905f908290604490829084905af1801561079257610a4e57005b80610a5c5f6105169361026b565b806106bd565b3461020d575f36600319011261020d576032546040516001600160a01b039091168152602090f35b3461020d575f36600319011261020d5760206040515f8152f35b805180835260209291819084018484015e5f828201840152601f01601f1916010190565b908151815261010060a0610b02610af060208601516101206020870152610120860190610aa4565b60408601518582036040870152610aa4565b606080860151805186830152602081015160808088019190915260408201518588015291015160c08601528501516001600160a01b031660e085015293015191015290565b602081016020825282518091526040820191602060408360051b8301019401925f915b838310610b7957505050505090565b9091929394602080610b97600193603f198682030187528951610ac8565b97019301930191939290610b6a565b3461020d57602036600319011261020d57610bdf60806004355b604051809381926301f361b560e71b8352600483019190602083019252565b038173__$5279b1b51e3e0c11fd63936518c970faf7$__5af4801561079257610751915f91610c7e575b50610c5e6040610c17611437565b92610c22815161155e565b610c2b85611477565b52610c3584611477565b50610c43602082015161155e565b610c4c85611498565b52610c5684611498565b50015161155e565b610c67826114a8565b52610c71816114a8565b5060405191829182610b47565b610ca0915060803d608011610ca6575b610c98818361026b565b810190611399565b5f610c09565b503d610c8e565b3461020d575f36600319011261020d57610751604051610cce60408261026b565b60058152640352e302e360dc1b6020820152604051918291602083526020830190610aa4565b906020610309928181520190610ac8565b3461020d57602036600319011261020d57610751610d2460043561155e565b604051918291602083526020830190610ac8565b3461020d57602036600319011261020d576040516301f361b560e71b8152600480359082018190529073__$5279b1b51e3e0c11fd63936518c970faf7$__608082602481845af4908115610792576020925f92610e23575b5081518383015160409384015193516336a0dc8d60e21b8152600481019290925260248201526044810192909252606482019390935291829060849082905af4801561079257610751915f91610df4575b5060405190151581529081906020820190565b610e16915060203d602011610e1c575b610e0e818361026b565b810190611678565b5f610de1565b503d610e04565b610e3d91925060803d608011610ca657610c98818361026b565b905f610d90565b3461020d57602036600319011261020d57610e626080600435610bc0565b038173__$5279b1b51e3e0c11fd63936518c970faf7$__5af4801561079257610751915f91610ece575b5080511590811591610ec0575b8115610eb2575060405190151581529081906020820190565b60409150015115155f610de1565b602081015115159150610e99565b610ee7915060803d608011610ca657610c98818361026b565b5f610e8c565b3461020d575f36600319011261020d576034546040516001600160a01b039091168152602090f35b3461020d57604036600319011261020d57610516602435600435610f388261030c565b610f4461050c8261123b565b611cc6565b3461020d575f36600319011261020d576035546040516001600160a01b039091168152602090f35b3461020d57606036600319011261020d576004356024356001600160401b03811161020d57610fa49036906004016102ee565b906044356001600160401b03811161020d57610fc49036906004016102ee565b91610fcd6113d5565b506032546001600160a01b031692833b1561020d57611029936110175f80946040519788958694859363a4eef9f360e01b85528a6004860152606060248601526064850190610aa4565b83810360031901604485015290610aa4565b03925af1908115610792576107519261104792611053575b5061155e565b60405191829182610cf4565b80610a5c5f6110619361026b565b5f611041565b3461020d575f36600319011261020d5760206040517f189ab7a9244df0848122154315af71fe140f3db0fe014031783b0946b8c9d2e38152f35b3461020d57608036600319011261020d576004356110be8161030c565b602435906110cb8261030c565b6044356110d78161030c565b606435906110e48261030c565b5f80516020613c2283398151915254936001600160401b0361111560ff604088901c1615966001600160401b031690565b1680159081611233575b6001149081611229575b159081611220575b5061121157611174938561116b60016001600160401b03195f80516020613c228339815191525416175f80516020613c2283398151915255565b6111d75761179f565b61117a57005b6111a460ff60401b195f80516020613c2283398151915254165f80516020613c2283398151915255565b604051600181527fc7f505b2f371ae2175ee4913f4499e1f2633a7b5936321eed1cdaeb6115181d29080602081016103dd565b61120c6801000000000000000060ff60401b195f80516020613c228339815191525416175f80516020613c2283398151915255565b61179f565b63f92ee8a960e01b5f5260045ffd5b9050155f611131565b303b159150611129565b86915061111f565b5f525f80516020613c02833981519152602052600160405f20015490565b90611271602091949394604084526040840190610aa4565b6001600160a01b03909416910152565b9080602083519182815201916020808360051b8301019401925f915b8383106112ac57505050505090565b90919293946020806112ca600193601f198682030187528951610aa4565b9701930193019193929061129d565b6040513d5f823e3d90fd5b909160018060a01b036032541691823b1561020d579290604051938492635a91aa7960e01b8452606484016060600486015282518091526020608486019301905f5b81811061138057505050836113615f969461134f83958995600319868303016024870152611281565b83810360031901604485015290611281565b03925af18015610792576113725750565b80610a5c5f61029b9361026b565b8251855288965060209485019490920191600101611326565b9081608091031261020d576060604051916113b38361024b565b8051835260208101516020840152604081015160408401520151606082015290565b6040519060c082018281106001600160401b03821117610266576040525f60a08382815260606020820152606060408201526040516114138161024b565b83815283602082015283604082015283606082015260608201528260808201520152565b60405160809190611448838261026b565b6003815291601f1901825f5b82811061146057505050565b60209061146b6113d5565b82828501015201611454565b8051156114845760200190565b634e487b7160e01b5f52603260045260245ffd5b8051600110156114845760400190565b8051600210156114845760600190565b81601f8201121561020d578051906114cf8261029d565b926114dd604051948561026b565b8284526020838301011161020d57815f9260208093018386015e8301015290565b91909160808184031261020d5780516001600160401b03811161020d57836115279183016114b8565b926020820151906001600160401b03821161020d576115479183016114b8565b91606060408301516115588161030c565b92015190565b6115666113d5565b50603254611584906001600160a01b03165b6001600160a01b031690565b60405163f56206e760e01b815260048101839052905f90829060249082905afa908115610792575f905f915f915f94611651575b506040516301f361b560e71b8152600481018690529260808460248173__$5279b1b51e3e0c11fd63936518c970faf7$__5af491821561079257611628945f93611630575b5061160661028c565b9687526020870152604086015260608501526001600160a01b03166080840152565b60a082015290565b61164a91935060803d608011610ca657610c98818361026b565b915f6115fd565b9250505061167191503d805f833e611669818361026b565b8101906114fe565b925f6115b8565b9081602091031261020d5751801515810361020d5790565b1561169757565b60405162461bcd60e51b8152602060048201526015602482015274496e76616c6964206c6f676963206164647265737360581b6044820152606490fd5b156116db57565b60405162461bcd60e51b8152602060048201526015602482015274496e76616c6964207374617465206164647265737360581b6044820152606490fd5b1561171f57565b60405162461bcd60e51b8152602060048201526014602482015273496e76616c69642076696577206164647265737360601b6044820152606490fd5b1561176257565b60405162461bcd60e51b8152602060048201526015602482015274496e76616c69642061646d696e206164647265737360581b6044820152606490fd5b61187f93611862929161184591611827906117c46001600160a01b0384161515611690565b6117d86001600160a01b03861615156116d4565b6117ec6001600160a01b0388161515611718565b6118006001600160a01b038216151561175b565b611808611e2d565b611810611d75565b611818611e2d565b61182181611a9b565b50611b4a565b5060018060a01b03166001600160601b0360a01b6034541617603455565b60018060a01b03166001600160601b0360a01b6035541617603555565b60018060a01b03166001600160601b0360a01b6036541617603655565b604051610d048082018281106001600160401b03821117610266578291612ede833903905ff0801561079257603380546001600160a01b0319166001600160a01b039290921691821790556118d390611578565b60405190610fe7808301918383106001600160401b0384111761026657839261190e92611ef785396001600160a01b03909116815260200190565b03905ff0801561079257603280546001600160a01b0319166001600160a01b03909216919091179055565b60405162461bcd60e51b81526020600482015260016024820152603360f81b6044820152606490fd5b5f80356001600160e01b03191681526037602052604090205460ff90811616600181036119b557506034545f9081906001600160a01b03165b368280378136915af43d5f803e156119b1573d5ff35b3d5ffd5b6002036119d1576035545f9081906001600160a01b031661199b565b6036545f9081906001600160a01b031661199b565b335f9081527fab71e3f32666744d246edff3f96e4bdafee2e9867098cdd118a979a7464786a8602052604090205460ff1615611a1e57565b63e2517d3f60e01b5f52336004527f189ab7a9244df0848122154315af71fe140f3db0fe014031783b0946b8c9d2e360245260445ffd5b5f8181525f80516020613c028339815191526020908152604080832033845290915290205460ff1615611a855750565b63e2517d3f60e01b5f523360045260245260445ffd5b6001600160a01b0381165f9081527fb7db2dd08fcb62d0c9e08c51941cae53c267786a0b75803fb7960902fc8ef97d602052604090205460ff16611b45576001600160a01b03165f8181527fb7db2dd08fcb62d0c9e08c51941cae53c267786a0b75803fb7960902fc8ef97d60205260408120805460ff191660011790553391907f2f8788117e7eff1d82e926ec794901d17c78024a50270940304540a733656f0d8180a4600190565b505f90565b6001600160a01b0381165f9081527fab71e3f32666744d246edff3f96e4bdafee2e9867098cdd118a979a7464786a8602052604090205460ff16611b45576001600160a01b0381165f9081527fab71e3f32666744d246edff3f96e4bdafee2e9867098cdd118a979a7464786a860205260409020805460ff1916600117905533906001600160a01b03167f189ab7a9244df0848122154315af71fe140f3db0fe014031783b0946b8c9d2e37f2f8788117e7eff1d82e926ec794901d17c78024a50270940304540a733656f0d5f80a4600190565b5f8181525f80516020613c02833981519152602090815260408083206001600160a01b038616845290915290205460ff16611cc0575f8181525f80516020613c02833981519152602090815260408083206001600160a01b03861684529091529020805460ff1916600117905533916001600160a01b0316907f2f8788117e7eff1d82e926ec794901d17c78024a50270940304540a733656f0d5f80a4600190565b50505f90565b5f8181525f80516020613c02833981519152602090815260408083206001600160a01b038616845290915290205460ff1615611cc0575f8181525f80516020613c02833981519152602090815260408083206001600160a01b03861684529091529020805460ff1916905533916001600160a01b0316907ff6391f5c32d9c69d2a47ea670b442974b53935d1edc7fd64eb21e047a839171b5f80a4600190565b9081602091031261020d575190565b611d7d611e2d565b611d85611e2d565b60015f55565b90813b15611e0c575f80516020613be283398151915280546001600160a01b0319166001600160a01b0384169081179091557fbc7cd75a20ee27fd9adebab32041f755214dbc6bffa90cc0225b39da2e5c2d3b5f80a2805115611df457611df191611e58565b50565b505034611dfd57565b63b398979f60e01b5f5260045ffd5b50634c9c8ce360e01b5f9081526001600160a01b0391909116600452602490fd5b60ff5f80516020613c228339815191525460401c1615611e4957565b631afcd79f60e31b5f5260045ffd5b5f8061030993602081519101845af43d15611e94573d91611e788361029d565b92611e86604051948561026b565b83523d5f602085013e611e98565b6060915b90611ebc5750805115611ead57805190602001fd5b63d6bda27560e01b5f5260045ffd5b81511580611eed575b611ecd575090565b639996b31560e01b5f9081526001600160a01b0391909116600452602490fd5b50803b15611ec556fe608034606f57601f610fe738819003918201601f19168301916001600160401b03831184841017607357808492602094604052833981010312606f57516001600160a01b03811690819003606f575f80546001600160a01b031916919091179055604051610f5f90816100888239f35b5f80fd5b634e487b7160e01b5f52604160045260245ffdfe6080806040526004361015610012575f80fd5b5f3560e01c9081632dedb01d14610bd8575080635a91aa791461064b578063a4eef9f31461024d578063c5b76d8514610138578063ce3f3f5d146101045763f56206e71461005e575f80fd5b34610100576020366003190112610100576004355f5260016020526100e360405f206040519061008d82610c09565b61009681610e69565b82526100a460018201610e69565b918260208201526100f1600360018060a01b03600285015416938460408501520154918260608201525193604051958695608087526080870190610d2f565b908582036020870152610d2f565b91604084015260608301520390f35b5f80fd5b34610100576020366003190112610100576004355f526001602052602061012e60405f2054610e31565b1515604051908152f35b34610100576040366003190112610100576024356001600160a01b0381169060043590829003610100575f818152600160205260409020600201546001600160a01b031615801561022b575b61018d90610dd7565b81156101e6575f81815260016020526040812060020180546001600160a01b0319811685179091556001600160a01b031691907f1690ffe18d495d7cf7c70d8bf31424a4f9317b14bab2d6814c301bd5f344cd929080a4005b60405162461bcd60e51b815260206004820152601f60248201527f43616e6e6f74207472616e7366657220746f207a65726f2061646472657373006044820152606490fd5b505f818152600160205260409020600201546001600160a01b03163314610184565b34610100576060366003190112610100576004356024356001600160401b03811161010057610280903690600401610c5c565b906044356001600160401b038111610100576102a0903690600401610c5c565b5f828152600160205260409020600201549092906001600160a01b0316158015610629575b6102ce90610dd7565b5f5460405163792ab6cb60e01b81526004810184905290602090829060249082906001600160a01b03165afa801561061e57610311915f916105ef575b50610d93565b60405161031d81610c09565b81815260208101848152604082013381526060830191428352855f52600160205260405f2093518051906001600160401b03821161051d5781906103618754610e31565b601f811161059f575b50602090601f831160011461053c575f92610531575b50508160011b915f199060031b1c19161784555b51805160018501916001600160401b03821161051d576103b48354610e31565b601f81116104d8575b50602090601f831160011461045e5792825f80516020610f0a83398151915298969361043f9896936003965f92610453575b50508160011b915f1990871b1c19161790555b516002840180546001600160a01b0319166001600160a01b0392909216919091179055519101556040805181815292839261044e92840190610d2f565b82810360208401523396610d2f565b0390a3005b015190508c806103ef565b90601f19831691845f52815f20925f5b8181106104c057509361043f98969360039693600193835f80516020610f0a8339815191529d9b98106104a9575b505050811b019055610402565b01515f1983891b60f8161c191690558c808061049c565b9293602060018192878601518155019501930161046e565b835f5260205f20601f840160051c81019160208510610513575b601f0160051c01905b81811061050857506103bd565b5f81556001016104fb565b90915081906104f2565b634e487b7160e01b5f52604160045260245ffd5b015190508980610380565b5f8881528281209350601f198516905b818110610587575090846001959493921061056f575b505050811b018455610394565b01515f1960f88460031b161c19169055898080610562565b9293602060018192878601518155019501930161054c565b909150865f5260205f20601f840160051c810191602085106105e5575b90601f859493920160051c01905b8181106105d7575061036a565b5f81558493506001016105ca565b90915081906105bc565b610611915060203d602011610617575b6106098183610c24565b810190610d7b565b8561030b565b503d6105ff565b6040513d5f823e3d90fd5b505f828152600160205260409020600201546001600160a01b031633146102c5565b34610100576060366003190112610100576004356001600160401b03811161010057366023820112156101005780600401359061068782610c45565b916106956040519384610c24565b8083526024602084019160051b8301019136831161010057602401905b828210610bc857836024356001600160401b038111610100576106d9903690600401610cb1565b6044356001600160401b038111610100576106f8903690600401610cb1565b918051825181149081610bbd575b5015610b78575f5b8151811015610b76575f546001600160a01b031661072c8284610d53565b516040519063792ab6cb60e01b82526004820152602081602481855afa801561061e5761075f915f91610b585750610d93565b6107698284610d53565b515f908152600160205260409020600201546001600160a01b0316158015610b2e575b61079a575b5060010161070e565b6107a48284610d53565b516107af8386610d53565b51602460206107be868a610d53565b515f8581526001835260409020600201549095906001600160a01b0316158015610b0d575b6107ec90610dd7565b6040519283809263792ab6cb60e01b82528760048301525afa801561061e5761081b915f91610aef5750610d93565b60405161082781610c09565b818152602081019084825260408101338152426060830152845f52600160205260405f209282518051906001600160401b03821161051d57819061086b8754610e31565b601f8111610a9f575b50602090601f8311600114610a3c575f92610a31575b50508160011b915f199060031b1c19161784555b518051906001600160401b03821161051d576108bd6001860154610e31565b601f81116109e9575b50602090601f83116001146109635761043f9460019a99989794845f80516020610f0a83398151915298956003956060955f92610958575b50505f1982871b1c1916908d1b17858d01555b516002850180546001600160a01b03191660a08e901b8e90039290921691909117905501519101556040805181815292839261094f92840190610d2f565b0390a390610791565b015190505f806108fe565b90600186015f52805f20915f5b601f19851681106109d157509460019a999897948b8560039560609561043f9a5f80516020610f0a8339815191529c99601f198116106109ba575b505050811b018c860155610911565b01515f1983891b60f8161c191690555f80806109ab565b91926020600181928685015181550194019201610970565b600186015f5260205f20601f840160051c81019160208510610a27575b601f0160051c01905b818110610a1c57506108c6565b5f8155600101610a0f565b9091508190610a06565b015190508d8061088a565b5f8881528281209350601f198516905b818110610a875750908460019594939210610a6f575b505050811b01845561089e565b01515f1960f88460031b161c191690558d8080610a62565b92936020600181928786015181550195019301610a4c565b909150865f5260205f20601f840160051c81019160208510610ae5575b90601f859493920160051c01905b818110610ad75750610874565b5f8155849350600101610aca565b9091508190610abc565b610b07915060203d8111610617576106098183610c24565b8961030b565b505f8581526001835260409020600201546001600160a01b031633146107e3565b50610b398284610d53565b515f52600160205260018060a01b03600260405f20015416331461078c565b610b70915060203d8111610617576106098183610c24565b8761030b565b005b60405162461bcd60e51b815260206004820152601860248201527f4172726179206c656e67746873206d757374206d6174636800000000000000006044820152606490fd5b905083511484610706565b81358152602091820191016106b2565b34610100576020366003190112610100576020906004355f526001825260018060a01b03600260405f200154168152f35b608081019081106001600160401b0382111761051d57604052565b90601f801991011681019081106001600160401b0382111761051d57604052565b6001600160401b03811161051d5760051b60200190565b81601f82011215610100578035906001600160401b03821161051d5760405192610c90601f8401601f191660200185610c24565b8284526020838301011161010057815f926020809301838601378301015290565b9080601f83011215610100578135610cc881610c45565b92610cd66040519485610c24565b81845260208085019260051b820101918383116101005760208201905b838210610d0257505050505090565b81356001600160401b03811161010057602091610d2487848094880101610c5c565b815201910190610cf3565b805180835260209291819084018484015e5f828201840152601f01601f1916010190565b8051821015610d675760209160051b010190565b634e487b7160e01b5f52603260045260245ffd5b90816020910312610100575180151581036101005790565b15610d9a57565b60405162461bcd60e51b8152602060048201526015602482015274496e76616c696420636f6e636570742076616c756560581b6044820152606490fd5b15610dde57565b60405162461bcd60e51b815260206004820152602560248201527f4e6f7420617574686f72697a656420746f206d6f64696679207468697320636f6044820152641b98d95c1d60da1b6064820152608490fd5b90600182811c92168015610e5f575b6020831014610e4b57565b634e487b7160e01b5f52602260045260245ffd5b91607f1691610e40565b9060405191825f825492610e7c84610e31565b8084529360018116908115610ee75750600114610ea3575b50610ea192500383610c24565b565b90505f9291925260205f20905f915b818310610ecb575050906020610ea1928201015f610e94565b6020919350806001915483858901015201910190918492610eb2565b905060209250610ea194915060ff191682840152151560051b8201015f610e9456fee8338a2ea8db69f222f88ef4a657c4c41851ce27f910f88d7fa6cce25f7956fea2646970667358221220259d57ef46fcb9b6738bffcd10e34bda71094c3607392cca11b614aa6c649f5d64736f6c634300081a003360808060405234601557610cea908161001a8239f35b5f80fdfe6080806040526004361015610012575f80fd5b5f3560e01c63792ab6cb14610025575f80fd5b34610cb0576020366003190112610cb05760209060043564139e3e437b198114908115610ca0575b8115610c90575b8115610c80575b8115610c70575b8115610c60575b8115610c50575b8115610c40575b8115610c30575b8115610c20575b8115610c10575b8115610c00575b8115610bf0575b8115610be0575b8115610bd0575b8115610bc0575b8115610bb0575b8115610ba0575b8115610b90575b8115610b80575b8115610b70575b8115610b60575b8115610b50575b8115610b40575b8115610b30575b8115610b20575b8115610b10575b8115610b00575b8115610af0575b8115610ae0575b8115610ad0575b8115610ac0575b8115610ab0575b8115610aa0575b8115610a90575b8115610a80575b8115610a77575b8115610a69575b8115610a5b575b8115610a4d575b8115610a3f575b8115610a30575b8115610a21575b8115610a12575b8115610a03575b81156109f4575b81156109e5575b81156109d6575b81156109c7575b81156109b8575b81156109a9575b811561099a575b811561098b575b811561097c575b811561096d575b811561095e575b811561094f575b8115610940575b8115610931575b8115610922575b8115610913575b8115610904575b81156108f5575b81156108e6575b81156108d7575b81156108c8575b81156108b9575b81156108aa575b811561089b575b811561088c575b811561087d575b811561086e575b811561085f575b8115610850575b8115610841575b8115610832575b8115610823575b8115610814575b8115610805575b81156107f6575b81156107e7575b81156107d8575b81156107c9575b81156107ba575b81156107ab575b811561079c575b811561078d575b811561077e575b811561076f575b8115610760575b8115610751575b8115610742575b8115610733575b8115610724575b8115610715575b8115610706575b81156106f7575b81156106e8575b81156106d9575b81156106ca575b81156106bb575b81156106ac575b811561069d575b811561068e575b811561067f575b8115610670575b8115610661575b8115610652575b8115610643575b8115610634575b8115610625575b8115610616575b8115610607575b81156105f8575b81156105e9575b81156105da575b81156105cb575b81156105bc575b81156105ad575b811561059e575b811561058f575b8115610580575b8115610571575b8115610562575b8115610553575b8115610544575b8115610535575b8115610526575b8115610517575b8115610508575b81156104f9575b81156104ea575b81156104db575b81156104cc575b81156104bd575b81156104ae575b811561049f575b8115610490575b8115610481575b8115610472575b8115610463575b8115610454575b8115610445575b8115610436575b5015158152f35b64174876e8009150145f61042f565b6416da15e3b681149150610428565b6416a2e5618c81149150610421565b64166bb4df6c8114915061041a565b641634845d4281149150610413565b6415fd53db188114915061040c565b6415c62358f881149150610405565b64158ef2d6ce811491506103fe565b641557c254ae811491506103f7565b64152091d284811491506103f0565b6414e961505a811491506103e9565b6414b230ce3a811491506103e2565b64147b004c10811491506103db565b641443cfc9f0811491506103d4565b64140c9f47c6811491506103cd565b6413d56ec5a6811491506103c6565b64139e3e437c811491506103bf565b6413670dc152811491506103b8565b64132fdd3f32811491506103b1565b6412f8acbd08811491506103aa565b6412c17c3ae8811491506103a3565b64128a4bb8be8114915061039c565b6412531b369481149150610395565b64121beab4748114915061038e565b6411e4ba324a81149150610387565b6411ad89b02a81149150610380565b641176592e0081149150610379565b64113f28abd681149150610372565b641107f829b68114915061036b565b6410d0c7a78c81149150610364565b64109997256c8114915061035d565b64106266a34281149150610356565b64102b3621188114915061034f565b640ff4059ef881149150610348565b640fbcd51cce81149150610341565b640f85a49aae8114915061033a565b640f4e74188481149150610333565b640f1743965a8114915061032c565b640ee013143a81149150610325565b640ea8e292108114915061031e565b640e71b20ff081149150610317565b640e3a818dc681149150610310565b640e03510ba681149150610309565b640dcc20897c81149150610302565b640d94f00752811491506102fb565b640d5dbf8532811491506102f4565b640d268f0308811491506102ed565b640cef5e80e8811491506102e6565b640cb82dfebe811491506102df565b640c80fd7c94811491506102d8565b640c49ccfa74811491506102d1565b640c129c784a811491506102ca565b640bdb6bf62a811491506102c3565b640ba43b7400811491506102bc565b640b6d0af1d6811491506102b5565b640b35da6fb6811491506102ae565b640afea9ed8c811491506102a7565b640ac7796b6c811491506102a0565b640a9048e94281149150610299565b640a5918671881149150610292565b640a21e7e4f88114915061028b565b6409eab762ce81149150610284565b6409b386e0ae8114915061027d565b64097c565e8481149150610276565b64094525dc5a8114915061026f565b64090df55a3a81149150610268565b6408d6c4d81081149150610261565b64089f9455f08114915061025a565b64086863d3c681149150610253565b6408313351a68114915061024c565b6407fa02cf7c81149150610245565b6407c2d24d528114915061023e565b64078ba1cb3281149150610237565b64075471490881149150610230565b64071d40c6e881149150610229565b6406e61044be81149150610222565b6406aedfc2948114915061021b565b640677af407481149150610214565b6406407ebe4a8114915061020d565b6406094e3c2a81149150610206565b6405d21dba00811491506101ff565b64059aed37d6811491506101f8565b640563bcb5b6811491506101f1565b64052c8c338c811491506101ea565b6404f55bb16c811491506101e3565b6404be2b2f42811491506101dc565b640486faad18811491506101d5565b64044fca2af8811491506101ce565b64041899a8ce811491506101c7565b6403e16926ae811491506101c0565b6403aa38a484811491506101b9565b64037308225a811491506101b2565b64033bd7a03a811491506101ab565b640304a71e10811491506101a4565b6402cd769bf08114915061019d565b6402964619c681149150610196565b64025f1597a68114915061018f565b640227e5157b81149150610188565b6401f0b4935581149150610181565b6401b984112f8114915061017a565b640182538f0981149150610173565b64014b230ce48114915061016c565b640113f28abe81149150610165565b63dcc208988114915061015e565b63a591867281149150610157565b636e61044c81149150610150565b633730822681149150610149565b80159150610142565b640a59186717198114915061013b565b640a9048e9411981149150610134565b640ac7796b6b198114915061012d565b640afea9ed8b1981149150610126565b640b35da6fb5198114915061011f565b640b6d0af1d51981149150610118565b640ba43b73ff1981149150610111565b640bdb6bf629198114915061010a565b640c129c78491981149150610103565b640c49ccfa7319811491506100fc565b640c80fd7c9319811491506100f5565b640cb82dfebd19811491506100ee565b640cef5e80e719811491506100e7565b640d268f030719811491506100e0565b640d5dbf853119811491506100d9565b640d94f0075119811491506100d2565b640dcc20897b19811491506100cb565b640e03510ba519811491506100c4565b640e3a818dc519811491506100bd565b640ea8e2920f19811491506100b6565b640ee013143919811491506100af565b640f1743965919811491506100a8565b640f4e74188319811491506100a1565b640f85a49aad198114915061009a565b640fbcd51ccd1981149150610093565b640ff4059ef7198114915061008c565b64102b3621171981149150610085565b64106266a341198114915061007e565b64109997256b1981149150610077565b6410d0c7a78b1981149150610070565b641107f829b51981149150610069565b64113f28abd51981149150610062565b6411ad89b029198114915061005b565b6411e4ba32491981149150610054565b64132fdd3f31198114915061004d565b5f80fdfea2646970667358221220441fa004437b596c8b56c8c100d508ab5d17040eae5506e3db5a03a85d8f156564736f6c634300081a0033360894a13ba1a3210667c828492db98dca3e2076cc3735a920a3ca505d382bbc02dd7bc7dec4dceedda775e58dd541e08a116c6c53815c0bd028192f7b626800f0c57e16840df040f15088dc2f81fe391c3923bec73e23a9662efc9c229c6a00a264697066735822122079f30735cfbeb7ecb03259ddabaf94af6c8933b6847840f18215e3778314620c64736f6c634300081a0033",
			"opcodes": "PUSH1 0xA0 DUP1 PUSH1 0x40 MSTORE CALLVALUE PUSH2 0xE8 JUMPI ADDRESS PUSH1 0x80 MSTORE PUSH32 0xF0C57E16840DF040F15088DC2F81FE391C3923BEC73E23A9662EFC9C229C6A00 SLOAD PUSH1 0xFF DUP2 PUSH1 0x40 SHR AND PUSH2 0xD9 JUMPI PUSH1 0x2 PUSH1 0x1 PUSH1 0x40 SHL SUB NOT PUSH1 0x1 PUSH1 0x1 PUSH1 0x40 SHL SUB DUP3 AND ADD PUSH2 0x73 JUMPI JUMPDEST PUSH1 0x40 MLOAD PUSH2 0x3C77 SWAP1 DUP2 PUSH2 0xED DUP3 CODECOPY PUSH1 0x80 MLOAD DUP2 DUP2 DUP2 PUSH2 0x812 ADD MSTORE PUSH2 0x93A ADD MSTORE RETURN JUMPDEST PUSH1 0x1 PUSH1 0x1 PUSH1 0x40 SHL SUB NOT AND PUSH1 0x1 PUSH1 0x1 PUSH1 0x40 SHL SUB SWAP1 DUP2 OR PUSH32 0xF0C57E16840DF040F15088DC2F81FE391C3923BEC73E23A9662EFC9C229C6A00 SSTORE DUP2 MSTORE PUSH32 0xC7F505B2F371AE2175EE4913F4499E1F2633A7B5936321EED1CDAEB6115181D2 SWAP1 PUSH1 0x20 SWAP1 LOG1 PUSH0 DUP1 PUSH2 0x54 JUMP JUMPDEST PUSH4 0xF92EE8A9 PUSH1 0xE0 SHL PUSH0 MSTORE PUSH1 0x4 PUSH0 REVERT JUMPDEST PUSH0 DUP1 REVERT INVALID PUSH1 0x80 PUSH1 0x40 MSTORE PUSH1 0x4 CALLDATASIZE LT ISZERO PUSH2 0x18 JUMPI JUMPDEST CALLDATASIZE PUSH2 0x1962 JUMPI PUSH2 0x1939 JUMP JUMPDEST PUSH0 CALLDATALOAD PUSH1 0xE0 SHR DUP1 PUSH4 0x1FFC9A7 EQ PUSH2 0x1B7 JUMPI DUP1 PUSH4 0x248A9CA3 EQ PUSH2 0x1B2 JUMPI DUP1 PUSH4 0x279EFEB3 EQ PUSH2 0x1AD JUMPI DUP1 PUSH4 0x2F2FF15D EQ PUSH2 0x1A8 JUMPI DUP1 PUSH4 0x36568ABE EQ PUSH2 0x1A3 JUMPI DUP1 PUSH4 0x3A88179E EQ PUSH2 0x19E JUMPI DUP1 PUSH4 0x3BA37052 EQ PUSH2 0x199 JUMPI DUP1 PUSH4 0x403371E1 EQ PUSH2 0x194 JUMPI DUP1 PUSH4 0x47B50349 EQ PUSH2 0x18F JUMPI DUP1 PUSH4 0x4F1EF286 EQ PUSH2 0x18A JUMPI DUP1 PUSH4 0x52D1902D EQ PUSH2 0x185 JUMPI DUP1 PUSH4 0x91D14854 EQ PUSH2 0x180 JUMPI DUP1 PUSH4 0x9E95DA2B EQ PUSH2 0x17B JUMPI DUP1 PUSH4 0xA18D9F2E EQ PUSH2 0x176 JUMPI DUP1 PUSH4 0xA217FDDF EQ PUSH2 0x171 JUMPI DUP1 PUSH4 0xA6DCBC35 EQ PUSH2 0x16C JUMPI DUP1 PUSH4 0xAD3CB1CC EQ PUSH2 0x167 JUMPI DUP1 PUSH4 0xC183E350 EQ PUSH2 0x162 JUMPI DUP1 PUSH4 0xC2EB66F7 EQ PUSH2 0x15D JUMPI DUP1 PUSH4 0xC9DA33EC EQ PUSH2 0x158 JUMPI DUP1 PUSH4 0xCC0E97C9 EQ PUSH2 0x153 JUMPI DUP1 PUSH4 0xD547741F EQ PUSH2 0x14E JUMPI DUP1 PUSH4 0xDB5F30E1 EQ PUSH2 0x149 JUMPI DUP1 PUSH4 0xE9737C8D EQ PUSH2 0x144 JUMPI DUP1 PUSH4 0xF72C0D8B EQ PUSH2 0x13F JUMPI PUSH4 0xF8C8765E SUB PUSH2 0xE JUMPI PUSH2 0x10A1 JUMP JUMPDEST PUSH2 0x1067 JUMP JUMPDEST PUSH2 0xF71 JUMP JUMPDEST PUSH2 0xF49 JUMP JUMPDEST PUSH2 0xF15 JUMP JUMPDEST PUSH2 0xEED JUMP JUMPDEST PUSH2 0xE44 JUMP JUMPDEST PUSH2 0xD38 JUMP JUMPDEST PUSH2 0xD05 JUMP JUMPDEST PUSH2 0xCAD JUMP JUMPDEST PUSH2 0xBA6 JUMP JUMPDEST PUSH2 0xA8A JUMP JUMPDEST PUSH2 0xA62 JUMP JUMPDEST PUSH2 0x9DD JUMP JUMPDEST PUSH2 0x97F JUMP JUMPDEST PUSH2 0x928 JUMP JUMPDEST PUSH2 0x7BF JUMP JUMPDEST PUSH2 0x797 JUMP JUMPDEST PUSH2 0x6EF JUMP JUMPDEST PUSH2 0x6C7 JUMP JUMPDEST PUSH2 0x5F5 JUMP JUMPDEST PUSH2 0x518 JUMP JUMPDEST PUSH2 0x4DD JUMP JUMPDEST PUSH2 0x31D JUMP JUMPDEST PUSH2 0x211 JUMP JUMPDEST CALLVALUE PUSH2 0x20D JUMPI PUSH1 0x20 CALLDATASIZE PUSH1 0x3 NOT ADD SLT PUSH2 0x20D JUMPI PUSH1 0x4 CALLDATALOAD PUSH4 0xFFFFFFFF PUSH1 0xE0 SHL DUP2 AND DUP1 SWAP2 SUB PUSH2 0x20D JUMPI PUSH1 0x20 SWAP1 PUSH4 0x7965DB0B PUSH1 0xE0 SHL DUP2 EQ SWAP1 DUP2 ISZERO PUSH2 0x1FC JUMPI JUMPDEST POP PUSH1 0x40 MLOAD SWAP1 ISZERO ISZERO DUP2 MSTORE RETURN JUMPDEST PUSH4 0x1FFC9A7 PUSH1 0xE0 SHL EQ SWAP1 POP PUSH0 PUSH2 0x1F1 JUMP JUMPDEST PUSH0 DUP1 REVERT JUMPDEST CALLVALUE PUSH2 0x20D JUMPI PUSH1 0x20 CALLDATASIZE PUSH1 0x3 NOT ADD SLT PUSH2 0x20D JUMPI PUSH1 0x20 PUSH2 0x22F PUSH1 0x4 CALLDATALOAD PUSH2 0x123B JUMP JUMPDEST PUSH1 0x40 MLOAD SWAP1 DUP2 MSTORE RETURN JUMPDEST PUSH4 0x4E487B71 PUSH1 0xE0 SHL PUSH0 MSTORE PUSH1 0x41 PUSH1 0x4 MSTORE PUSH1 0x24 PUSH0 REVERT JUMPDEST PUSH1 0x80 DUP2 ADD SWAP1 DUP2 LT PUSH1 0x1 PUSH1 0x1 PUSH1 0x40 SHL SUB DUP3 GT OR PUSH2 0x266 JUMPI PUSH1 0x40 MSTORE JUMP JUMPDEST PUSH2 0x237 JUMP JUMPDEST SWAP1 PUSH1 0x1F DUP1 NOT SWAP2 ADD AND DUP2 ADD SWAP1 DUP2 LT PUSH1 0x1 PUSH1 0x1 PUSH1 0x40 SHL SUB DUP3 GT OR PUSH2 0x266 JUMPI PUSH1 0x40 MSTORE JUMP JUMPDEST PUSH1 0x40 MLOAD SWAP1 PUSH2 0x29B PUSH1 0xC0 DUP4 PUSH2 0x26B JUMP JUMPDEST JUMP JUMPDEST PUSH1 0x1 PUSH1 0x1 PUSH1 0x40 SHL SUB DUP2 GT PUSH2 0x266 JUMPI PUSH1 0x1F ADD PUSH1 0x1F NOT AND PUSH1 0x20 ADD SWAP1 JUMP JUMPDEST SWAP3 SWAP2 SWAP3 PUSH2 0x2C4 DUP3 PUSH2 0x29D JUMP JUMPDEST SWAP2 PUSH2 0x2D2 PUSH1 0x40 MLOAD SWAP4 DUP5 PUSH2 0x26B JUMP JUMPDEST DUP3 SWAP5 DUP2 DUP5 MSTORE DUP2 DUP4 ADD GT PUSH2 0x20D JUMPI DUP3 DUP2 PUSH1 0x20 SWAP4 DUP5 PUSH0 SWAP7 ADD CALLDATACOPY ADD ADD MSTORE JUMP JUMPDEST SWAP1 DUP1 PUSH1 0x1F DUP4 ADD SLT ISZERO PUSH2 0x20D JUMPI DUP2 PUSH1 0x20 PUSH2 0x309 SWAP4 CALLDATALOAD SWAP2 ADD PUSH2 0x2B8 JUMP JUMPDEST SWAP1 JUMP JUMPDEST PUSH1 0x1 PUSH1 0x1 PUSH1 0xA0 SHL SUB DUP2 AND SUB PUSH2 0x20D JUMPI JUMP JUMPDEST CALLVALUE PUSH2 0x20D JUMPI PUSH1 0x40 CALLDATASIZE PUSH1 0x3 NOT ADD SLT PUSH2 0x20D JUMPI PUSH1 0x4 CALLDATALOAD PUSH1 0x1 PUSH1 0x1 PUSH1 0x40 SHL SUB DUP2 GT PUSH2 0x20D JUMPI PUSH2 0x34D SWAP1 CALLDATASIZE SWAP1 PUSH1 0x4 ADD PUSH2 0x2EE JUMP JUMPDEST PUSH1 0x24 CALLDATALOAD PUSH2 0x359 DUP2 PUSH2 0x30C JUMP JUMPDEST PUSH2 0x361 PUSH2 0x19E6 JUMP JUMPDEST DUP2 MLOAD PUSH1 0x20 DUP4 ADD KECCAK256 PUSH32 0x5942BE825425C77E56E4BCE97986794AB0F100954E40FC1390AE0E003710A3AC DUP2 SUB PUSH2 0x3E2 JUMPI POP PUSH1 0x34 DUP1 SLOAD PUSH1 0x1 PUSH1 0x1 PUSH1 0xA0 SHL SUB NOT AND PUSH1 0x1 PUSH1 0x1 PUSH1 0xA0 SHL SUB DUP4 AND OR SWAP1 SSTORE PUSH32 0x2B51FF7C4CC8E6FE1C72E9D9685B7D2A88A5D82AD3A644AFBDCEB0272C89C1C3 SWAP2 JUMPDEST PUSH2 0x3DD PUSH1 0x40 MLOAD SWAP3 DUP4 SWAP3 DUP4 PUSH2 0x1259 JUMP JUMPDEST SUB SWAP1 LOG1 STOP JUMPDEST PUSH32 0x51B3916B57265846B709F718DA8FC5102FCF61CB3FF4A7D635CB7F3641AFEC43 DUP2 SUB PUSH2 0x44C JUMPI POP PUSH1 0x35 DUP1 SLOAD PUSH1 0x1 PUSH1 0x1 PUSH1 0xA0 SHL SUB NOT AND PUSH1 0x1 PUSH1 0x1 PUSH1 0xA0 SHL SUB DUP4 AND OR SWAP1 SSTORE PUSH32 0x2B51FF7C4CC8E6FE1C72E9D9685B7D2A88A5D82AD3A644AFBDCEB0272C89C1C3 SWAP2 PUSH2 0x3CE JUMP JUMPDEST PUSH32 0x201105A52B842ADFBCDCFCAC0349CD25C8A3CB322954633DD585B0958AA204F3 SUB PUSH2 0x4B4 JUMPI PUSH1 0x36 DUP1 SLOAD PUSH1 0x1 PUSH1 0x1 PUSH1 0xA0 SHL SUB NOT AND PUSH1 0x1 PUSH1 0x1 PUSH1 0xA0 SHL SUB DUP4 AND OR SWAP1 SSTORE PUSH32 0x2B51FF7C4CC8E6FE1C72E9D9685B7D2A88A5D82AD3A644AFBDCEB0272C89C1C3 SWAP2 PUSH2 0x3CE JUMP JUMPDEST PUSH1 0x40 MLOAD PUSH3 0x461BCD PUSH1 0xE5 SHL DUP2 MSTORE PUSH1 0x20 PUSH1 0x4 DUP3 ADD MSTORE PUSH1 0x1 PUSH1 0x24 DUP3 ADD MSTORE PUSH1 0x31 PUSH1 0xF8 SHL PUSH1 0x44 DUP3 ADD MSTORE PUSH1 0x64 SWAP1 REVERT JUMPDEST CALLVALUE PUSH2 0x20D JUMPI PUSH1 0x40 CALLDATASIZE PUSH1 0x3 NOT ADD SLT PUSH2 0x20D JUMPI PUSH2 0x516 PUSH1 0x24 CALLDATALOAD PUSH1 0x4 CALLDATALOAD PUSH2 0x500 DUP3 PUSH2 0x30C JUMP JUMPDEST PUSH2 0x511 PUSH2 0x50C DUP3 PUSH2 0x123B JUMP JUMPDEST PUSH2 0x1A55 JUMP JUMPDEST PUSH2 0x1C1E JUMP JUMPDEST STOP JUMPDEST CALLVALUE PUSH2 0x20D JUMPI PUSH1 0x40 CALLDATASIZE PUSH1 0x3 NOT ADD SLT PUSH2 0x20D JUMPI PUSH1 0x4 CALLDATALOAD PUSH1 0x24 CALLDATALOAD PUSH2 0x538 DUP2 PUSH2 0x30C JUMP JUMPDEST CALLER PUSH1 0x1 PUSH1 0x1 PUSH1 0xA0 SHL SUB DUP3 AND SUB PUSH2 0x551 JUMPI PUSH2 0x516 SWAP2 PUSH2 0x1CC6 JUMP JUMPDEST PUSH4 0x334BD919 PUSH1 0xE1 SHL PUSH0 MSTORE PUSH1 0x4 PUSH0 REVERT JUMPDEST PUSH1 0x1 PUSH1 0x1 PUSH1 0x40 SHL SUB DUP2 GT PUSH2 0x266 JUMPI PUSH1 0x5 SHL PUSH1 0x20 ADD SWAP1 JUMP JUMPDEST SWAP1 DUP1 PUSH1 0x1F DUP4 ADD SLT ISZERO PUSH2 0x20D JUMPI DUP2 CALLDATALOAD PUSH2 0x58E DUP2 PUSH2 0x560 JUMP JUMPDEST SWAP3 PUSH2 0x59C PUSH1 0x40 MLOAD SWAP5 DUP6 PUSH2 0x26B JUMP JUMPDEST DUP2 DUP5 MSTORE PUSH1 0x20 DUP1 DUP6 ADD SWAP3 PUSH1 0x5 SHL DUP3 ADD ADD SWAP2 DUP4 DUP4 GT PUSH2 0x20D JUMPI PUSH1 0x20 DUP3 ADD SWAP1 JUMPDEST DUP4 DUP3 LT PUSH2 0x5C8 JUMPI POP POP POP POP POP SWAP1 JUMP JUMPDEST DUP2 CALLDATALOAD PUSH1 0x1 PUSH1 0x1 PUSH1 0x40 SHL SUB DUP2 GT PUSH2 0x20D JUMPI PUSH1 0x20 SWAP2 PUSH2 0x5EA DUP8 DUP5 DUP1 SWAP5 DUP9 ADD ADD PUSH2 0x2EE JUMP JUMPDEST DUP2 MSTORE ADD SWAP2 ADD SWAP1 PUSH2 0x5B9 JUMP JUMPDEST CALLVALUE PUSH2 0x20D JUMPI PUSH1 0x60 CALLDATASIZE PUSH1 0x3 NOT ADD SLT PUSH2 0x20D JUMPI PUSH1 0x4 CALLDATALOAD PUSH1 0x1 PUSH1 0x1 PUSH1 0x40 SHL SUB DUP2 GT PUSH2 0x20D JUMPI CALLDATASIZE PUSH1 0x23 DUP3 ADD SLT ISZERO PUSH2 0x20D JUMPI DUP1 PUSH1 0x4 ADD CALLDATALOAD SWAP1 PUSH2 0x631 DUP3 PUSH2 0x560 JUMP JUMPDEST SWAP2 PUSH2 0x63F PUSH1 0x40 MLOAD SWAP4 DUP5 PUSH2 0x26B JUMP JUMPDEST DUP1 DUP4 MSTORE PUSH1 0x24 PUSH1 0x20 DUP5 ADD SWAP2 PUSH1 0x5 SHL DUP4 ADD ADD SWAP2 CALLDATASIZE DUP4 GT PUSH2 0x20D JUMPI PUSH1 0x24 ADD SWAP1 JUMPDEST DUP3 DUP3 LT PUSH2 0x6AD JUMPI DUP4 PUSH1 0x24 CALLDATALOAD PUSH1 0x1 PUSH1 0x1 PUSH1 0x40 SHL SUB DUP2 GT PUSH2 0x20D JUMPI PUSH2 0x683 SWAP1 CALLDATASIZE SWAP1 PUSH1 0x4 ADD PUSH2 0x577 JUMP JUMPDEST SWAP1 PUSH1 0x44 CALLDATALOAD SWAP2 PUSH1 0x1 PUSH1 0x1 PUSH1 0x40 SHL SUB DUP4 GT PUSH2 0x20D JUMPI PUSH2 0x6A7 PUSH2 0x516 SWAP4 CALLDATASIZE SWAP1 PUSH1 0x4 ADD PUSH2 0x577 JUMP JUMPDEST SWAP2 PUSH2 0x12E4 JUMP JUMPDEST DUP2 CALLDATALOAD DUP2 MSTORE PUSH1 0x20 SWAP2 DUP3 ADD SWAP2 ADD PUSH2 0x65C JUMP JUMPDEST PUSH0 SWAP2 SUB SLT PUSH2 0x20D JUMPI JUMP JUMPDEST CALLVALUE PUSH2 0x20D JUMPI PUSH0 CALLDATASIZE PUSH1 0x3 NOT ADD SLT PUSH2 0x20D JUMPI PUSH1 0x33 SLOAD PUSH1 0x40 MLOAD PUSH1 0x1 PUSH1 0x1 PUSH1 0xA0 SHL SUB SWAP1 SWAP2 AND DUP2 MSTORE PUSH1 0x20 SWAP1 RETURN JUMPDEST CALLVALUE PUSH2 0x20D JUMPI PUSH1 0x20 CALLDATASIZE PUSH1 0x3 NOT ADD SLT PUSH2 0x20D JUMPI PUSH1 0x32 SLOAD PUSH1 0x40 MLOAD PUSH4 0x2DEDB01D PUSH1 0xE0 SHL DUP2 MSTORE PUSH1 0x4 DUP1 CALLDATALOAD SWAP1 DUP3 ADD MSTORE SWAP1 PUSH1 0x20 SWAP1 DUP3 SWAP1 PUSH1 0x24 SWAP1 DUP3 SWAP1 PUSH1 0x1 PUSH1 0x1 PUSH1 0xA0 SHL SUB AND GAS STATICCALL DUP1 ISZERO PUSH2 0x792 JUMPI PUSH0 SWAP1 PUSH2 0x755 JUMPI JUMPDEST PUSH1 0x40 MLOAD PUSH1 0x1 PUSH1 0x1 PUSH1 0xA0 SHL SUB SWAP2 SWAP1 SWAP2 AND DUP2 MSTORE PUSH1 0x20 SWAP1 RETURN JUMPDEST SUB SWAP1 RETURN JUMPDEST POP PUSH1 0x20 DUP2 RETURNDATASIZE PUSH1 0x20 GT PUSH2 0x78A JUMPI JUMPDEST DUP2 PUSH2 0x76F PUSH1 0x20 SWAP4 DUP4 PUSH2 0x26B JUMP JUMPDEST DUP2 ADD SUB SLT PUSH2 0x20D JUMPI PUSH2 0x751 SWAP1 MLOAD PUSH2 0x785 DUP2 PUSH2 0x30C JUMP JUMPDEST PUSH2 0x73B JUMP JUMPDEST RETURNDATASIZE SWAP2 POP PUSH2 0x762 JUMP JUMPDEST PUSH2 0x12D9 JUMP JUMPDEST CALLVALUE PUSH2 0x20D JUMPI PUSH0 CALLDATASIZE PUSH1 0x3 NOT ADD SLT PUSH2 0x20D JUMPI PUSH1 0x36 SLOAD PUSH1 0x40 MLOAD PUSH1 0x1 PUSH1 0x1 PUSH1 0xA0 SHL SUB SWAP1 SWAP2 AND DUP2 MSTORE PUSH1 0x20 SWAP1 RETURN JUMPDEST PUSH1 0x40 CALLDATASIZE PUSH1 0x3 NOT ADD SLT PUSH2 0x20D JUMPI PUSH1 0x4 CALLDATALOAD PUSH2 0x7D7 DUP2 PUSH2 0x30C JUMP JUMPDEST PUSH1 0x24 CALLDATALOAD PUSH1 0x1 PUSH1 0x1 PUSH1 0x40 SHL SUB DUP2 GT PUSH2 0x20D JUMPI CALLDATASIZE PUSH1 0x23 DUP3 ADD SLT ISZERO PUSH2 0x20D JUMPI PUSH2 0x807 SWAP1 CALLDATASIZE SWAP1 PUSH1 0x24 DUP2 PUSH1 0x4 ADD CALLDATALOAD SWAP2 ADD PUSH2 0x2B8 JUMP JUMPDEST SWAP1 PUSH1 0x1 PUSH1 0x1 PUSH1 0xA0 SHL SUB PUSH32 0x0 AND ADDRESS DUP2 EQ SWAP1 DUP2 ISZERO PUSH2 0x906 JUMPI JUMPDEST POP PUSH2 0x8F7 JUMPI PUSH2 0x84A PUSH2 0x19E6 JUMP JUMPDEST PUSH1 0x40 MLOAD PUSH4 0x52D1902D PUSH1 0xE0 SHL DUP2 MSTORE SWAP2 PUSH1 0x20 DUP4 PUSH1 0x4 DUP2 PUSH1 0x1 PUSH1 0x1 PUSH1 0xA0 SHL SUB DUP7 AND GAS STATICCALL PUSH0 SWAP4 DUP2 PUSH2 0x8C6 JUMPI JUMPDEST POP PUSH2 0x893 JUMPI PUSH4 0x4C9C8CE3 PUSH1 0xE0 SHL PUSH0 MSTORE PUSH1 0x1 PUSH1 0x1 PUSH1 0xA0 SHL SUB DUP3 AND PUSH1 0x4 MSTORE PUSH1 0x24 PUSH0 REVERT JUMPDEST SWAP1 PUSH0 DUP1 MLOAD PUSH1 0x20 PUSH2 0x3BE2 DUP4 CODECOPY DUP2 MLOAD SWAP2 MSTORE DUP4 SUB PUSH2 0x8B2 JUMPI PUSH2 0x516 SWAP3 POP PUSH2 0x1D8B JUMP JUMPDEST PUSH4 0x2A875269 PUSH1 0xE2 SHL PUSH0 MSTORE PUSH1 0x4 DUP4 SWAP1 MSTORE PUSH1 0x24 PUSH0 REVERT JUMPDEST PUSH2 0x8E9 SWAP2 SWAP5 POP PUSH1 0x20 RETURNDATASIZE PUSH1 0x20 GT PUSH2 0x8F0 JUMPI JUMPDEST PUSH2 0x8E1 DUP2 DUP4 PUSH2 0x26B JUMP JUMPDEST DUP2 ADD SWAP1 PUSH2 0x1D66 JUMP JUMPDEST SWAP3 PUSH0 PUSH2 0x872 JUMP JUMPDEST POP RETURNDATASIZE PUSH2 0x8D7 JUMP JUMPDEST PUSH4 0x703E46DD PUSH1 0xE1 SHL PUSH0 MSTORE PUSH1 0x4 PUSH0 REVERT JUMPDEST PUSH0 DUP1 MLOAD PUSH1 0x20 PUSH2 0x3BE2 DUP4 CODECOPY DUP2 MLOAD SWAP2 MSTORE SLOAD PUSH1 0x1 PUSH1 0x1 PUSH1 0xA0 SHL SUB AND EQ ISZERO SWAP1 POP PUSH0 PUSH2 0x83D JUMP JUMPDEST CALLVALUE PUSH2 0x20D JUMPI PUSH0 CALLDATASIZE PUSH1 0x3 NOT ADD SLT PUSH2 0x20D JUMPI PUSH32 0x0 PUSH1 0x1 PUSH1 0x1 PUSH1 0xA0 SHL SUB AND ADDRESS SUB PUSH2 0x8F7 JUMPI PUSH1 0x20 PUSH1 0x40 MLOAD PUSH0 DUP1 MLOAD PUSH1 0x20 PUSH2 0x3BE2 DUP4 CODECOPY DUP2 MLOAD SWAP2 MSTORE DUP2 MSTORE RETURN JUMPDEST CALLVALUE PUSH2 0x20D JUMPI PUSH1 0x40 CALLDATASIZE PUSH1 0x3 NOT ADD SLT PUSH2 0x20D JUMPI PUSH1 0x20 PUSH1 0xFF PUSH2 0x9D1 PUSH1 0x24 CALLDATALOAD PUSH1 0x4 CALLDATALOAD PUSH2 0x9A6 DUP3 PUSH2 0x30C JUMP JUMPDEST PUSH0 MSTORE PUSH0 DUP1 MLOAD PUSH1 0x20 PUSH2 0x3C02 DUP4 CODECOPY DUP2 MLOAD SWAP2 MSTORE DUP5 MSTORE PUSH1 0x40 PUSH0 KECCAK256 SWAP1 PUSH1 0x1 DUP1 PUSH1 0xA0 SHL SUB AND PUSH0 MSTORE PUSH1 0x20 MSTORE PUSH1 0x40 PUSH0 KECCAK256 SWAP1 JUMP JUMPDEST SLOAD AND PUSH1 0x40 MLOAD SWAP1 ISZERO ISZERO DUP2 MSTORE RETURN JUMPDEST CALLVALUE PUSH2 0x20D JUMPI PUSH1 0x40 CALLDATASIZE PUSH1 0x3 NOT ADD SLT PUSH2 0x20D JUMPI PUSH1 0x24 CALLDATALOAD PUSH1 0x4 CALLDATALOAD PUSH2 0x9FD DUP3 PUSH2 0x30C JUMP JUMPDEST PUSH1 0x32 SLOAD PUSH1 0x1 PUSH1 0x1 PUSH1 0xA0 SHL SUB AND SWAP2 DUP3 EXTCODESIZE ISZERO PUSH2 0x20D JUMPI PUSH1 0x40 MLOAD PUSH4 0xC5B76D85 PUSH1 0xE0 SHL DUP2 MSTORE PUSH1 0x4 DUP2 ADD SWAP3 SWAP1 SWAP3 MSTORE PUSH1 0x1 PUSH1 0x1 PUSH1 0xA0 SHL SUB AND PUSH1 0x24 DUP3 ADD MSTORE SWAP1 PUSH0 SWAP1 DUP3 SWAP1 PUSH1 0x44 SWAP1 DUP3 SWAP1 DUP5 SWAP1 GAS CALL DUP1 ISZERO PUSH2 0x792 JUMPI PUSH2 0xA4E JUMPI STOP JUMPDEST DUP1 PUSH2 0xA5C PUSH0 PUSH2 0x516 SWAP4 PUSH2 0x26B JUMP JUMPDEST DUP1 PUSH2 0x6BD JUMP JUMPDEST CALLVALUE PUSH2 0x20D JUMPI PUSH0 CALLDATASIZE PUSH1 0x3 NOT ADD SLT PUSH2 0x20D JUMPI PUSH1 0x32 SLOAD PUSH1 0x40 MLOAD PUSH1 0x1 PUSH1 0x1 PUSH1 0xA0 SHL SUB SWAP1 SWAP2 AND DUP2 MSTORE PUSH1 0x20 SWAP1 RETURN JUMPDEST CALLVALUE PUSH2 0x20D JUMPI PUSH0 CALLDATASIZE PUSH1 0x3 NOT ADD SLT PUSH2 0x20D JUMPI PUSH1 0x20 PUSH1 0x40 MLOAD PUSH0 DUP2 MSTORE RETURN JUMPDEST DUP1 MLOAD DUP1 DUP4 MSTORE PUSH1 0x20 SWAP3 SWAP2 DUP2 SWAP1 DUP5 ADD DUP5 DUP5 ADD MCOPY PUSH0 DUP3 DUP3 ADD DUP5 ADD MSTORE PUSH1 0x1F ADD PUSH1 0x1F NOT AND ADD ADD SWAP1 JUMP JUMPDEST SWAP1 DUP2 MLOAD DUP2 MSTORE PUSH2 0x100 PUSH1 0xA0 PUSH2 0xB02 PUSH2 0xAF0 PUSH1 0x20 DUP7 ADD MLOAD PUSH2 0x120 PUSH1 0x20 DUP8 ADD MSTORE PUSH2 0x120 DUP7 ADD SWAP1 PUSH2 0xAA4 JUMP JUMPDEST PUSH1 0x40 DUP7 ADD MLOAD DUP6 DUP3 SUB PUSH1 0x40 DUP8 ADD MSTORE PUSH2 0xAA4 JUMP JUMPDEST PUSH1 0x60 DUP1 DUP7 ADD MLOAD DUP1 MLOAD DUP7 DUP4 ADD MSTORE PUSH1 0x20 DUP2 ADD MLOAD PUSH1 0x80 DUP1 DUP9 ADD SWAP2 SWAP1 SWAP2 MSTORE PUSH1 0x40 DUP3 ADD MLOAD DUP6 DUP9 ADD MSTORE SWAP2 ADD MLOAD PUSH1 0xC0 DUP7 ADD MSTORE DUP6 ADD MLOAD PUSH1 0x1 PUSH1 0x1 PUSH1 0xA0 SHL SUB AND PUSH1 0xE0 DUP6 ADD MSTORE SWAP4 ADD MLOAD SWAP2 ADD MSTORE SWAP1 JUMP JUMPDEST PUSH1 0x20 DUP2 ADD PUSH1 0x20 DUP3 MSTORE DUP3 MLOAD DUP1 SWAP2 MSTORE PUSH1 0x40 DUP3 ADD SWAP2 PUSH1 0x20 PUSH1 0x40 DUP4 PUSH1 0x5 SHL DUP4 ADD ADD SWAP5 ADD SWAP3 PUSH0 SWAP2 JUMPDEST DUP4 DUP4 LT PUSH2 0xB79 JUMPI POP POP POP POP POP SWAP1 JUMP JUMPDEST SWAP1 SWAP2 SWAP3 SWAP4 SWAP5 PUSH1 0x20 DUP1 PUSH2 0xB97 PUSH1 0x1 SWAP4 PUSH1 0x3F NOT DUP7 DUP3 SUB ADD DUP8 MSTORE DUP10 MLOAD PUSH2 0xAC8 JUMP JUMPDEST SWAP8 ADD SWAP4 ADD SWAP4 ADD SWAP2 SWAP4 SWAP3 SWAP1 PUSH2 0xB6A JUMP JUMPDEST CALLVALUE PUSH2 0x20D JUMPI PUSH1 0x20 CALLDATASIZE PUSH1 0x3 NOT ADD SLT PUSH2 0x20D JUMPI PUSH2 0xBDF PUSH1 0x80 PUSH1 0x4 CALLDATALOAD JUMPDEST PUSH1 0x40 MLOAD DUP1 SWAP4 DUP2 SWAP3 PUSH4 0x1F361B5 PUSH1 0xE7 SHL DUP4 MSTORE PUSH1 0x4 DUP4 ADD SWAP2 SWAP1 PUSH1 0x20 DUP4 ADD SWAP3 MSTORE JUMP JUMPDEST SUB DUP2 PUSH20 0x0 GAS DELEGATECALL DUP1 ISZERO PUSH2 0x792 JUMPI PUSH2 0x751 SWAP2 PUSH0 SWAP2 PUSH2 0xC7E JUMPI JUMPDEST POP PUSH2 0xC5E PUSH1 0x40 PUSH2 0xC17 PUSH2 0x1437 JUMP JUMPDEST SWAP3 PUSH2 0xC22 DUP2 MLOAD PUSH2 0x155E JUMP JUMPDEST PUSH2 0xC2B DUP6 PUSH2 0x1477 JUMP JUMPDEST MSTORE PUSH2 0xC35 DUP5 PUSH2 0x1477 JUMP JUMPDEST POP PUSH2 0xC43 PUSH1 0x20 DUP3 ADD MLOAD PUSH2 0x155E JUMP JUMPDEST PUSH2 0xC4C DUP6 PUSH2 0x1498 JUMP JUMPDEST MSTORE PUSH2 0xC56 DUP5 PUSH2 0x1498 JUMP JUMPDEST POP ADD MLOAD PUSH2 0x155E JUMP JUMPDEST PUSH2 0xC67 DUP3 PUSH2 0x14A8 JUMP JUMPDEST MSTORE PUSH2 0xC71 DUP2 PUSH2 0x14A8 JUMP JUMPDEST POP PUSH1 0x40 MLOAD SWAP2 DUP3 SWAP2 DUP3 PUSH2 0xB47 JUMP JUMPDEST PUSH2 0xCA0 SWAP2 POP PUSH1 0x80 RETURNDATASIZE PUSH1 0x80 GT PUSH2 0xCA6 JUMPI JUMPDEST PUSH2 0xC98 DUP2 DUP4 PUSH2 0x26B JUMP JUMPDEST DUP2 ADD SWAP1 PUSH2 0x1399 JUMP JUMPDEST PUSH0 PUSH2 0xC09 JUMP JUMPDEST POP RETURNDATASIZE PUSH2 0xC8E JUMP JUMPDEST CALLVALUE PUSH2 0x20D JUMPI PUSH0 CALLDATASIZE PUSH1 0x3 NOT ADD SLT PUSH2 0x20D JUMPI PUSH2 0x751 PUSH1 0x40 MLOAD PUSH2 0xCCE PUSH1 0x40 DUP3 PUSH2 0x26B JUMP JUMPDEST PUSH1 0x5 DUP2 MSTORE PUSH5 0x352E302E3 PUSH1 0xDC SHL PUSH1 0x20 DUP3 ADD MSTORE PUSH1 0x40 MLOAD SWAP2 DUP3 SWAP2 PUSH1 0x20 DUP4 MSTORE PUSH1 0x20 DUP4 ADD SWAP1 PUSH2 0xAA4 JUMP JUMPDEST SWAP1 PUSH1 0x20 PUSH2 0x309 SWAP3 DUP2 DUP2 MSTORE ADD SWAP1 PUSH2 0xAC8 JUMP JUMPDEST CALLVALUE PUSH2 0x20D JUMPI PUSH1 0x20 CALLDATASIZE PUSH1 0x3 NOT ADD SLT PUSH2 0x20D JUMPI PUSH2 0x751 PUSH2 0xD24 PUSH1 0x4 CALLDATALOAD PUSH2 0x155E JUMP JUMPDEST PUSH1 0x40 MLOAD SWAP2 DUP3 SWAP2 PUSH1 0x20 DUP4 MSTORE PUSH1 0x20 DUP4 ADD SWAP1 PUSH2 0xAC8 JUMP JUMPDEST CALLVALUE PUSH2 0x20D JUMPI PUSH1 0x20 CALLDATASIZE PUSH1 0x3 NOT ADD SLT PUSH2 0x20D JUMPI PUSH1 0x40 MLOAD PUSH4 0x1F361B5 PUSH1 0xE7 SHL DUP2 MSTORE PUSH1 0x4 DUP1 CALLDATALOAD SWAP1 DUP3 ADD DUP2 SWAP1 MSTORE SWAP1 PUSH20 0x0 PUSH1 0x80 DUP3 PUSH1 0x24 DUP2 DUP5 GAS DELEGATECALL SWAP1 DUP2 ISZERO PUSH2 0x792 JUMPI PUSH1 0x20 SWAP3 PUSH0 SWAP3 PUSH2 0xE23 JUMPI JUMPDEST POP DUP2 MLOAD DUP4 DUP4 ADD MLOAD PUSH1 0x40 SWAP4 DUP5 ADD MLOAD SWAP4 MLOAD PUSH4 0x36A0DC8D PUSH1 0xE2 SHL DUP2 MSTORE PUSH1 0x4 DUP2 ADD SWAP3 SWAP1 SWAP3 MSTORE PUSH1 0x24 DUP3 ADD MSTORE PUSH1 0x44 DUP2 ADD SWAP3 SWAP1 SWAP3 MSTORE PUSH1 0x64 DUP3 ADD SWAP4 SWAP1 SWAP4 MSTORE SWAP2 DUP3 SWAP1 PUSH1 0x84 SWAP1 DUP3 SWAP1 GAS DELEGATECALL DUP1 ISZERO PUSH2 0x792 JUMPI PUSH2 0x751 SWAP2 PUSH0 SWAP2 PUSH2 0xDF4 JUMPI JUMPDEST POP PUSH1 0x40 MLOAD SWAP1 ISZERO ISZERO DUP2 MSTORE SWAP1 DUP2 SWAP1 PUSH1 0x20 DUP3 ADD SWAP1 JUMP JUMPDEST PUSH2 0xE16 SWAP2 POP PUSH1 0x20 RETURNDATASIZE PUSH1 0x20 GT PUSH2 0xE1C JUMPI JUMPDEST PUSH2 0xE0E DUP2 DUP4 PUSH2 0x26B JUMP JUMPDEST DUP2 ADD SWAP1 PUSH2 0x1678 JUMP JUMPDEST PUSH0 PUSH2 0xDE1 JUMP JUMPDEST POP RETURNDATASIZE PUSH2 0xE04 JUMP JUMPDEST PUSH2 0xE3D SWAP2 SWAP3 POP PUSH1 0x80 RETURNDATASIZE PUSH1 0x80 GT PUSH2 0xCA6 JUMPI PUSH2 0xC98 DUP2 DUP4 PUSH2 0x26B JUMP JUMPDEST SWAP1 PUSH0 PUSH2 0xD90 JUMP JUMPDEST CALLVALUE PUSH2 0x20D JUMPI PUSH1 0x20 CALLDATASIZE PUSH1 0x3 NOT ADD SLT PUSH2 0x20D JUMPI PUSH2 0xE62 PUSH1 0x80 PUSH1 0x4 CALLDATALOAD PUSH2 0xBC0 JUMP JUMPDEST SUB DUP2 PUSH20 0x0 GAS DELEGATECALL DUP1 ISZERO PUSH2 0x792 JUMPI PUSH2 0x751 SWAP2 PUSH0 SWAP2 PUSH2 0xECE JUMPI JUMPDEST POP DUP1 MLOAD ISZERO SWAP1 DUP2 ISZERO SWAP2 PUSH2 0xEC0 JUMPI JUMPDEST DUP2 ISZERO PUSH2 0xEB2 JUMPI POP PUSH1 0x40 MLOAD SWAP1 ISZERO ISZERO DUP2 MSTORE SWAP1 DUP2 SWAP1 PUSH1 0x20 DUP3 ADD SWAP1 JUMP JUMPDEST PUSH1 0x40 SWAP2 POP ADD MLOAD ISZERO ISZERO PUSH0 PUSH2 0xDE1 JUMP JUMPDEST PUSH1 0x20 DUP2 ADD MLOAD ISZERO ISZERO SWAP2 POP PUSH2 0xE99 JUMP JUMPDEST PUSH2 0xEE7 SWAP2 POP PUSH1 0x80 RETURNDATASIZE PUSH1 0x80 GT PUSH2 0xCA6 JUMPI PUSH2 0xC98 DUP2 DUP4 PUSH2 0x26B JUMP JUMPDEST PUSH0 PUSH2 0xE8C JUMP JUMPDEST CALLVALUE PUSH2 0x20D JUMPI PUSH0 CALLDATASIZE PUSH1 0x3 NOT ADD SLT PUSH2 0x20D JUMPI PUSH1 0x34 SLOAD PUSH1 0x40 MLOAD PUSH1 0x1 PUSH1 0x1 PUSH1 0xA0 SHL SUB SWAP1 SWAP2 AND DUP2 MSTORE PUSH1 0x20 SWAP1 RETURN JUMPDEST CALLVALUE PUSH2 0x20D JUMPI PUSH1 0x40 CALLDATASIZE PUSH1 0x3 NOT ADD SLT PUSH2 0x20D JUMPI PUSH2 0x516 PUSH1 0x24 CALLDATALOAD PUSH1 0x4 CALLDATALOAD PUSH2 0xF38 DUP3 PUSH2 0x30C JUMP JUMPDEST PUSH2 0xF44 PUSH2 0x50C DUP3 PUSH2 0x123B JUMP JUMPDEST PUSH2 0x1CC6 JUMP JUMPDEST CALLVALUE PUSH2 0x20D JUMPI PUSH0 CALLDATASIZE PUSH1 0x3 NOT ADD SLT PUSH2 0x20D JUMPI PUSH1 0x35 SLOAD PUSH1 0x40 MLOAD PUSH1 0x1 PUSH1 0x1 PUSH1 0xA0 SHL SUB SWAP1 SWAP2 AND DUP2 MSTORE PUSH1 0x20 SWAP1 RETURN JUMPDEST CALLVALUE PUSH2 0x20D JUMPI PUSH1 0x60 CALLDATASIZE PUSH1 0x3 NOT ADD SLT PUSH2 0x20D JUMPI PUSH1 0x4 CALLDATALOAD PUSH1 0x24 CALLDATALOAD PUSH1 0x1 PUSH1 0x1 PUSH1 0x40 SHL SUB DUP2 GT PUSH2 0x20D JUMPI PUSH2 0xFA4 SWAP1 CALLDATASIZE SWAP1 PUSH1 0x4 ADD PUSH2 0x2EE JUMP JUMPDEST SWAP1 PUSH1 0x44 CALLDATALOAD PUSH1 0x1 PUSH1 0x1 PUSH1 0x40 SHL SUB DUP2 GT PUSH2 0x20D JUMPI PUSH2 0xFC4 SWAP1 CALLDATASIZE SWAP1 PUSH1 0x4 ADD PUSH2 0x2EE JUMP JUMPDEST SWAP2 PUSH2 0xFCD PUSH2 0x13D5 JUMP JUMPDEST POP PUSH1 0x32 SLOAD PUSH1 0x1 PUSH1 0x1 PUSH1 0xA0 SHL SUB AND SWAP3 DUP4 EXTCODESIZE ISZERO PUSH2 0x20D JUMPI PUSH2 0x1029 SWAP4 PUSH2 0x1017 PUSH0 DUP1 SWAP5 PUSH1 0x40 MLOAD SWAP8 DUP9 SWAP6 DUP7 SWAP5 DUP6 SWAP4 PUSH4 0xA4EEF9F3 PUSH1 0xE0 SHL DUP6 MSTORE DUP11 PUSH1 0x4 DUP7 ADD MSTORE PUSH1 0x60 PUSH1 0x24 DUP7 ADD MSTORE PUSH1 0x64 DUP6 ADD SWAP1 PUSH2 0xAA4 JUMP JUMPDEST DUP4 DUP2 SUB PUSH1 0x3 NOT ADD PUSH1 0x44 DUP6 ADD MSTORE SWAP1 PUSH2 0xAA4 JUMP JUMPDEST SUB SWAP3 GAS CALL SWAP1 DUP2 ISZERO PUSH2 0x792 JUMPI PUSH2 0x751 SWAP3 PUSH2 0x1047 SWAP3 PUSH2 0x1053 JUMPI JUMPDEST POP PUSH2 0x155E JUMP JUMPDEST PUSH1 0x40 MLOAD SWAP2 DUP3 SWAP2 DUP3 PUSH2 0xCF4 JUMP JUMPDEST DUP1 PUSH2 0xA5C PUSH0 PUSH2 0x1061 SWAP4 PUSH2 0x26B JUMP JUMPDEST PUSH0 PUSH2 0x1041 JUMP JUMPDEST CALLVALUE PUSH2 0x20D JUMPI PUSH0 CALLDATASIZE PUSH1 0x3 NOT ADD SLT PUSH2 0x20D JUMPI PUSH1 0x20 PUSH1 0x40 MLOAD PUSH32 0x189AB7A9244DF0848122154315AF71FE140F3DB0FE014031783B0946B8C9D2E3 DUP2 MSTORE RETURN JUMPDEST CALLVALUE PUSH2 0x20D JUMPI PUSH1 0x80 CALLDATASIZE PUSH1 0x3 NOT ADD SLT PUSH2 0x20D JUMPI PUSH1 0x4 CALLDATALOAD PUSH2 0x10BE DUP2 PUSH2 0x30C JUMP JUMPDEST PUSH1 0x24 CALLDATALOAD SWAP1 PUSH2 0x10CB DUP3 PUSH2 0x30C JUMP JUMPDEST PUSH1 0x44 CALLDATALOAD PUSH2 0x10D7 DUP2 PUSH2 0x30C JUMP JUMPDEST PUSH1 0x64 CALLDATALOAD SWAP1 PUSH2 0x10E4 DUP3 PUSH2 0x30C JUMP JUMPDEST PUSH0 DUP1 MLOAD PUSH1 0x20 PUSH2 0x3C22 DUP4 CODECOPY DUP2 MLOAD SWAP2 MSTORE SLOAD SWAP4 PUSH1 0x1 PUSH1 0x1 PUSH1 0x40 SHL SUB PUSH2 0x1115 PUSH1 0xFF PUSH1 0x40 DUP9 SWAP1 SHR AND ISZERO SWAP7 PUSH1 0x1 PUSH1 0x1 PUSH1 0x40 SHL SUB AND SWAP1 JUMP JUMPDEST AND DUP1 ISZERO SWAP1 DUP2 PUSH2 0x1233 JUMPI JUMPDEST PUSH1 0x1 EQ SWAP1 DUP2 PUSH2 0x1229 JUMPI JUMPDEST ISZERO SWAP1 DUP2 PUSH2 0x1220 JUMPI JUMPDEST POP PUSH2 0x1211 JUMPI PUSH2 0x1174 SWAP4 DUP6 PUSH2 0x116B PUSH1 0x1 PUSH1 0x1 PUSH1 0x1 PUSH1 0x40 SHL SUB NOT PUSH0 DUP1 MLOAD PUSH1 0x20 PUSH2 0x3C22 DUP4 CODECOPY DUP2 MLOAD SWAP2 MSTORE SLOAD AND OR PUSH0 DUP1 MLOAD PUSH1 0x20 PUSH2 0x3C22 DUP4 CODECOPY DUP2 MLOAD SWAP2 MSTORE SSTORE JUMP JUMPDEST PUSH2 0x11D7 JUMPI PUSH2 0x179F JUMP JUMPDEST PUSH2 0x117A JUMPI STOP JUMPDEST PUSH2 0x11A4 PUSH1 0xFF PUSH1 0x40 SHL NOT PUSH0 DUP1 MLOAD PUSH1 0x20 PUSH2 0x3C22 DUP4 CODECOPY DUP2 MLOAD SWAP2 MSTORE SLOAD AND PUSH0 DUP1 MLOAD PUSH1 0x20 PUSH2 0x3C22 DUP4 CODECOPY DUP2 MLOAD SWAP2 MSTORE SSTORE JUMP JUMPDEST PUSH1 0x40 MLOAD PUSH1 0x1 DUP2 MSTORE PUSH32 0xC7F505B2F371AE2175EE4913F4499E1F2633A7B5936321EED1CDAEB6115181D2 SWAP1 DUP1 PUSH1 0x20 DUP2 ADD PUSH2 0x3DD JUMP JUMPDEST PUSH2 0x120C PUSH9 0x10000000000000000 PUSH1 0xFF PUSH1 0x40 SHL NOT PUSH0 DUP1 MLOAD PUSH1 0x20 PUSH2 0x3C22 DUP4 CODECOPY DUP2 MLOAD SWAP2 MSTORE SLOAD AND OR PUSH0 DUP1 MLOAD PUSH1 0x20 PUSH2 0x3C22 DUP4 CODECOPY DUP2 MLOAD SWAP2 MSTORE SSTORE JUMP JUMPDEST PUSH2 0x179F JUMP JUMPDEST PUSH4 0xF92EE8A9 PUSH1 0xE0 SHL PUSH0 MSTORE PUSH1 0x4 PUSH0 REVERT JUMPDEST SWAP1 POP ISZERO PUSH0 PUSH2 0x1131 JUMP JUMPDEST ADDRESS EXTCODESIZE ISZERO SWAP2 POP PUSH2 0x1129 JUMP JUMPDEST DUP7 SWAP2 POP PUSH2 0x111F JUMP JUMPDEST PUSH0 MSTORE PUSH0 DUP1 MLOAD PUSH1 0x20 PUSH2 0x3C02 DUP4 CODECOPY DUP2 MLOAD SWAP2 MSTORE PUSH1 0x20 MSTORE PUSH1 0x1 PUSH1 0x40 PUSH0 KECCAK256 ADD SLOAD SWAP1 JUMP JUMPDEST SWAP1 PUSH2 0x1271 PUSH1 0x20 SWAP2 SWAP5 SWAP4 SWAP5 PUSH1 0x40 DUP5 MSTORE PUSH1 0x40 DUP5 ADD SWAP1 PUSH2 0xAA4 JUMP JUMPDEST PUSH1 0x1 PUSH1 0x1 PUSH1 0xA0 SHL SUB SWAP1 SWAP5 AND SWAP2 ADD MSTORE JUMP JUMPDEST SWAP1 DUP1 PUSH1 0x20 DUP4 MLOAD SWAP2 DUP3 DUP2 MSTORE ADD SWAP2 PUSH1 0x20 DUP1 DUP4 PUSH1 0x5 SHL DUP4 ADD ADD SWAP5 ADD SWAP3 PUSH0 SWAP2 JUMPDEST DUP4 DUP4 LT PUSH2 0x12AC JUMPI POP POP POP POP POP SWAP1 JUMP JUMPDEST SWAP1 SWAP2 SWAP3 SWAP4 SWAP5 PUSH1 0x20 DUP1 PUSH2 0x12CA PUSH1 0x1 SWAP4 PUSH1 0x1F NOT DUP7 DUP3 SUB ADD DUP8 MSTORE DUP10 MLOAD PUSH2 0xAA4 JUMP JUMPDEST SWAP8 ADD SWAP4 ADD SWAP4 ADD SWAP2 SWAP4 SWAP3 SWAP1 PUSH2 0x129D JUMP JUMPDEST PUSH1 0x40 MLOAD RETURNDATASIZE PUSH0 DUP3 RETURNDATACOPY RETURNDATASIZE SWAP1 REVERT JUMPDEST SWAP1 SWAP2 PUSH1 0x1 DUP1 PUSH1 0xA0 SHL SUB PUSH1 0x32 SLOAD AND SWAP2 DUP3 EXTCODESIZE ISZERO PUSH2 0x20D JUMPI SWAP3 SWAP1 PUSH1 0x40 MLOAD SWAP4 DUP5 SWAP3 PUSH4 0x5A91AA79 PUSH1 0xE0 SHL DUP5 MSTORE PUSH1 0x64 DUP5 ADD PUSH1 0x60 PUSH1 0x4 DUP7 ADD MSTORE DUP3 MLOAD DUP1 SWAP2 MSTORE PUSH1 0x20 PUSH1 0x84 DUP7 ADD SWAP4 ADD SWAP1 PUSH0 JUMPDEST DUP2 DUP2 LT PUSH2 0x1380 JUMPI POP POP POP DUP4 PUSH2 0x1361 PUSH0 SWAP7 SWAP5 PUSH2 0x134F DUP4 SWAP6 DUP10 SWAP6 PUSH1 0x3 NOT DUP7 DUP4 SUB ADD PUSH1 0x24 DUP8 ADD MSTORE PUSH2 0x1281 JUMP JUMPDEST DUP4 DUP2 SUB PUSH1 0x3 NOT ADD PUSH1 0x44 DUP6 ADD MSTORE SWAP1 PUSH2 0x1281 JUMP JUMPDEST SUB SWAP3 GAS CALL DUP1 ISZERO PUSH2 0x792 JUMPI PUSH2 0x1372 JUMPI POP JUMP JUMPDEST DUP1 PUSH2 0xA5C PUSH0 PUSH2 0x29B SWAP4 PUSH2 0x26B JUMP JUMPDEST DUP3 MLOAD DUP6 MSTORE DUP9 SWAP7 POP PUSH1 0x20 SWAP5 DUP6 ADD SWAP5 SWAP1 SWAP3 ADD SWAP2 PUSH1 0x1 ADD PUSH2 0x1326 JUMP JUMPDEST SWAP1 DUP2 PUSH1 0x80 SWAP2 SUB SLT PUSH2 0x20D JUMPI PUSH1 0x60 PUSH1 0x40 MLOAD SWAP2 PUSH2 0x13B3 DUP4 PUSH2 0x24B JUMP JUMPDEST DUP1 MLOAD DUP4 MSTORE PUSH1 0x20 DUP2 ADD MLOAD PUSH1 0x20 DUP5 ADD MSTORE PUSH1 0x40 DUP2 ADD MLOAD PUSH1 0x40 DUP5 ADD MSTORE ADD MLOAD PUSH1 0x60 DUP3 ADD MSTORE SWAP1 JUMP JUMPDEST PUSH1 0x40 MLOAD SWAP1 PUSH1 0xC0 DUP3 ADD DUP3 DUP2 LT PUSH1 0x1 PUSH1 0x1 PUSH1 0x40 SHL SUB DUP3 GT OR PUSH2 0x266 JUMPI PUSH1 0x40 MSTORE PUSH0 PUSH1 0xA0 DUP4 DUP3 DUP2 MSTORE PUSH1 0x60 PUSH1 0x20 DUP3 ADD MSTORE PUSH1 0x60 PUSH1 0x40 DUP3 ADD MSTORE PUSH1 0x40 MLOAD PUSH2 0x1413 DUP2 PUSH2 0x24B JUMP JUMPDEST DUP4 DUP2 MSTORE DUP4 PUSH1 0x20 DUP3 ADD MSTORE DUP4 PUSH1 0x40 DUP3 ADD MSTORE DUP4 PUSH1 0x60 DUP3 ADD MSTORE PUSH1 0x60 DUP3 ADD MSTORE DUP3 PUSH1 0x80 DUP3 ADD MSTORE ADD MSTORE JUMP JUMPDEST PUSH1 0x40 MLOAD PUSH1 0x80 SWAP2 SWAP1 PUSH2 0x1448 DUP4 DUP3 PUSH2 0x26B JUMP JUMPDEST PUSH1 0x3 DUP2 MSTORE SWAP2 PUSH1 0x1F NOT ADD DUP3 PUSH0 JUMPDEST DUP3 DUP2 LT PUSH2 0x1460 JUMPI POP POP POP JUMP JUMPDEST PUSH1 0x20 SWAP1 PUSH2 0x146B PUSH2 0x13D5 JUMP JUMPDEST DUP3 DUP3 DUP6 ADD ADD MSTORE ADD PUSH2 0x1454 JUMP JUMPDEST DUP1 MLOAD ISZERO PUSH2 0x1484 JUMPI PUSH1 0x20 ADD SWAP1 JUMP JUMPDEST PUSH4 0x4E487B71 PUSH1 0xE0 SHL PUSH0 MSTORE PUSH1 0x32 PUSH1 0x4 MSTORE PUSH1 0x24 PUSH0 REVERT JUMPDEST DUP1 MLOAD PUSH1 0x1 LT ISZERO PUSH2 0x1484 JUMPI PUSH1 0x40 ADD SWAP1 JUMP JUMPDEST DUP1 MLOAD PUSH1 0x2 LT ISZERO PUSH2 0x1484 JUMPI PUSH1 0x60 ADD SWAP1 JUMP JUMPDEST DUP2 PUSH1 0x1F DUP3 ADD SLT ISZERO PUSH2 0x20D JUMPI DUP1 MLOAD SWAP1 PUSH2 0x14CF DUP3 PUSH2 0x29D JUMP JUMPDEST SWAP3 PUSH2 0x14DD PUSH1 0x40 MLOAD SWAP5 DUP6 PUSH2 0x26B JUMP JUMPDEST DUP3 DUP5 MSTORE PUSH1 0x20 DUP4 DUP4 ADD ADD GT PUSH2 0x20D JUMPI DUP2 PUSH0 SWAP3 PUSH1 0x20 DUP1 SWAP4 ADD DUP4 DUP7 ADD MCOPY DUP4 ADD ADD MSTORE SWAP1 JUMP JUMPDEST SWAP2 SWAP1 SWAP2 PUSH1 0x80 DUP2 DUP5 SUB SLT PUSH2 0x20D JUMPI DUP1 MLOAD PUSH1 0x1 PUSH1 0x1 PUSH1 0x40 SHL SUB DUP2 GT PUSH2 0x20D JUMPI DUP4 PUSH2 0x1527 SWAP2 DUP4 ADD PUSH2 0x14B8 JUMP JUMPDEST SWAP3 PUSH1 0x20 DUP3 ADD MLOAD SWAP1 PUSH1 0x1 PUSH1 0x1 PUSH1 0x40 SHL SUB DUP3 GT PUSH2 0x20D JUMPI PUSH2 0x1547 SWAP2 DUP4 ADD PUSH2 0x14B8 JUMP JUMPDEST SWAP2 PUSH1 0x60 PUSH1 0x40 DUP4 ADD MLOAD PUSH2 0x1558 DUP2 PUSH2 0x30C JUMP JUMPDEST SWAP3 ADD MLOAD SWAP1 JUMP JUMPDEST PUSH2 0x1566 PUSH2 0x13D5 JUMP JUMPDEST POP PUSH1 0x32 SLOAD PUSH2 0x1584 SWAP1 PUSH1 0x1 PUSH1 0x1 PUSH1 0xA0 SHL SUB AND JUMPDEST PUSH1 0x1 PUSH1 0x1 PUSH1 0xA0 SHL SUB AND SWAP1 JUMP JUMPDEST PUSH1 0x40 MLOAD PUSH4 0xF56206E7 PUSH1 0xE0 SHL DUP2 MSTORE PUSH1 0x4 DUP2 ADD DUP4 SWAP1 MSTORE SWAP1 PUSH0 SWAP1 DUP3 SWAP1 PUSH1 0x24 SWAP1 DUP3 SWAP1 GAS STATICCALL SWAP1 DUP2 ISZERO PUSH2 0x792 JUMPI PUSH0 SWAP1 PUSH0 SWAP2 PUSH0 SWAP2 PUSH0 SWAP5 PUSH2 0x1651 JUMPI JUMPDEST POP PUSH1 0x40 MLOAD PUSH4 0x1F361B5 PUSH1 0xE7 SHL DUP2 MSTORE PUSH1 0x4 DUP2 ADD DUP7 SWAP1 MSTORE SWAP3 PUSH1 0x80 DUP5 PUSH1 0x24 DUP2 PUSH20 0x0 GAS DELEGATECALL SWAP2 DUP3 ISZERO PUSH2 0x792 JUMPI PUSH2 0x1628 SWAP5 PUSH0 SWAP4 PUSH2 0x1630 JUMPI JUMPDEST POP PUSH2 0x1606 PUSH2 0x28C JUMP JUMPDEST SWAP7 DUP8 MSTORE PUSH1 0x20 DUP8 ADD MSTORE PUSH1 0x40 DUP7 ADD MSTORE PUSH1 0x60 DUP6 ADD MSTORE PUSH1 0x1 PUSH1 0x1 PUSH1 0xA0 SHL SUB AND PUSH1 0x80 DUP5 ADD MSTORE JUMP JUMPDEST PUSH1 0xA0 DUP3 ADD MSTORE SWAP1 JUMP JUMPDEST PUSH2 0x164A SWAP2 SWAP4 POP PUSH1 0x80 RETURNDATASIZE PUSH1 0x80 GT PUSH2 0xCA6 JUMPI PUSH2 0xC98 DUP2 DUP4 PUSH2 0x26B JUMP JUMPDEST SWAP2 PUSH0 PUSH2 0x15FD JUMP JUMPDEST SWAP3 POP POP POP PUSH2 0x1671 SWAP2 POP RETURNDATASIZE DUP1 PUSH0 DUP4 RETURNDATACOPY PUSH2 0x1669 DUP2 DUP4 PUSH2 0x26B JUMP JUMPDEST DUP2 ADD SWAP1 PUSH2 0x14FE JUMP JUMPDEST SWAP3 PUSH0 PUSH2 0x15B8 JUMP JUMPDEST SWAP1 DUP2 PUSH1 0x20 SWAP2 SUB SLT PUSH2 0x20D JUMPI MLOAD DUP1 ISZERO ISZERO DUP2 SUB PUSH2 0x20D JUMPI SWAP1 JUMP JUMPDEST ISZERO PUSH2 0x1697 JUMPI JUMP JUMPDEST PUSH1 0x40 MLOAD PUSH3 0x461BCD PUSH1 0xE5 SHL DUP2 MSTORE PUSH1 0x20 PUSH1 0x4 DUP3 ADD MSTORE PUSH1 0x15 PUSH1 0x24 DUP3 ADD MSTORE PUSH21 0x496E76616C6964206C6F6769632061646472657373 PUSH1 0x58 SHL PUSH1 0x44 DUP3 ADD MSTORE PUSH1 0x64 SWAP1 REVERT JUMPDEST ISZERO PUSH2 0x16DB JUMPI JUMP JUMPDEST PUSH1 0x40 MLOAD PUSH3 0x461BCD PUSH1 0xE5 SHL DUP2 MSTORE PUSH1 0x20 PUSH1 0x4 DUP3 ADD MSTORE PUSH1 0x15 PUSH1 0x24 DUP3 ADD MSTORE PUSH21 0x496E76616C69642073746174652061646472657373 PUSH1 0x58 SHL PUSH1 0x44 DUP3 ADD MSTORE PUSH1 0x64 SWAP1 REVERT JUMPDEST ISZERO PUSH2 0x171F JUMPI JUMP JUMPDEST PUSH1 0x40 MLOAD PUSH3 0x461BCD PUSH1 0xE5 SHL DUP2 MSTORE PUSH1 0x20 PUSH1 0x4 DUP3 ADD MSTORE PUSH1 0x14 PUSH1 0x24 DUP3 ADD MSTORE PUSH20 0x496E76616C696420766965772061646472657373 PUSH1 0x60 SHL PUSH1 0x44 DUP3 ADD MSTORE PUSH1 0x64 SWAP1 REVERT JUMPDEST ISZERO PUSH2 0x1762 JUMPI JUMP JUMPDEST PUSH1 0x40 MLOAD PUSH3 0x461BCD PUSH1 0xE5 SHL DUP2 MSTORE PUSH1 0x20 PUSH1 0x4 DUP3 ADD MSTORE PUSH1 0x15 PUSH1 0x24 DUP3 ADD MSTORE PUSH21 0x496E76616C69642061646D696E2061646472657373 PUSH1 0x58 SHL PUSH1 0x44 DUP3 ADD MSTORE PUSH1 0x64 SWAP1 REVERT JUMPDEST PUSH2 0x187F SWAP4 PUSH2 0x1862 SWAP3 SWAP2 PUSH2 0x1845 SWAP2 PUSH2 0x1827 SWAP1 PUSH2 0x17C4 PUSH1 0x1 PUSH1 0x1 PUSH1 0xA0 SHL SUB DUP5 AND ISZERO ISZERO PUSH2 0x1690 JUMP JUMPDEST PUSH2 0x17D8 PUSH1 0x1 PUSH1 0x1 PUSH1 0xA0 SHL SUB DUP7 AND ISZERO ISZERO PUSH2 0x16D4 JUMP JUMPDEST PUSH2 0x17EC PUSH1 0x1 PUSH1 0x1 PUSH1 0xA0 SHL SUB DUP9 AND ISZERO ISZERO PUSH2 0x1718 JUMP JUMPDEST PUSH2 0x1800 PUSH1 0x1 PUSH1 0x1 PUSH1 0xA0 SHL SUB DUP3 AND ISZERO ISZERO PUSH2 0x175B JUMP JUMPDEST PUSH2 0x1808 PUSH2 0x1E2D JUMP JUMPDEST PUSH2 0x1810 PUSH2 0x1D75 JUMP JUMPDEST PUSH2 0x1818 PUSH2 0x1E2D JUMP JUMPDEST PUSH2 0x1821 DUP2 PUSH2 0x1A9B JUMP JUMPDEST POP PUSH2 0x1B4A JUMP JUMPDEST POP PUSH1 0x1 DUP1 PUSH1 0xA0 SHL SUB AND PUSH1 0x1 PUSH1 0x1 PUSH1 0x60 SHL SUB PUSH1 0xA0 SHL PUSH1 0x34 SLOAD AND OR PUSH1 0x34 SSTORE JUMP JUMPDEST PUSH1 0x1 DUP1 PUSH1 0xA0 SHL SUB AND PUSH1 0x1 PUSH1 0x1 PUSH1 0x60 SHL SUB PUSH1 0xA0 SHL PUSH1 0x35 SLOAD AND OR PUSH1 0x35 SSTORE JUMP JUMPDEST PUSH1 0x1 DUP1 PUSH1 0xA0 SHL SUB AND PUSH1 0x1 PUSH1 0x1 PUSH1 0x60 SHL SUB PUSH1 0xA0 SHL PUSH1 0x36 SLOAD AND OR PUSH1 0x36 SSTORE JUMP JUMPDEST PUSH1 0x40 MLOAD PUSH2 0xD04 DUP1 DUP3 ADD DUP3 DUP2 LT PUSH1 0x1 PUSH1 0x1 PUSH1 0x40 SHL SUB DUP3 GT OR PUSH2 0x266 JUMPI DUP3 SWAP2 PUSH2 0x2EDE DUP4 CODECOPY SUB SWAP1 PUSH0 CREATE DUP1 ISZERO PUSH2 0x792 JUMPI PUSH1 0x33 DUP1 SLOAD PUSH1 0x1 PUSH1 0x1 PUSH1 0xA0 SHL SUB NOT AND PUSH1 0x1 PUSH1 0x1 PUSH1 0xA0 SHL SUB SWAP3 SWAP1 SWAP3 AND SWAP2 DUP3 OR SWAP1 SSTORE PUSH2 0x18D3 SWAP1 PUSH2 0x1578 JUMP JUMPDEST PUSH1 0x40 MLOAD SWAP1 PUSH2 0xFE7 DUP1 DUP4 ADD SWAP2 DUP4 DUP4 LT PUSH1 0x1 PUSH1 0x1 PUSH1 0x40 SHL SUB DUP5 GT OR PUSH2 0x266 JUMPI DUP4 SWAP3 PUSH2 0x190E SWAP3 PUSH2 0x1EF7 DUP6 CODECOPY PUSH1 0x1 PUSH1 0x1 PUSH1 0xA0 SHL SUB SWAP1 SWAP2 AND DUP2 MSTORE PUSH1 0x20 ADD SWAP1 JUMP JUMPDEST SUB SWAP1 PUSH0 CREATE DUP1 ISZERO PUSH2 0x792 JUMPI PUSH1 0x32 DUP1 SLOAD PUSH1 0x1 PUSH1 0x1 PUSH1 0xA0 SHL SUB NOT AND PUSH1 0x1 PUSH1 0x1 PUSH1 0xA0 SHL SUB SWAP1 SWAP3 AND SWAP2 SWAP1 SWAP2 OR SWAP1 SSTORE JUMP JUMPDEST PUSH1 0x40 MLOAD PUSH3 0x461BCD PUSH1 0xE5 SHL DUP2 MSTORE PUSH1 0x20 PUSH1 0x4 DUP3 ADD MSTORE PUSH1 0x1 PUSH1 0x24 DUP3 ADD MSTORE PUSH1 0x33 PUSH1 0xF8 SHL PUSH1 0x44 DUP3 ADD MSTORE PUSH1 0x64 SWAP1 REVERT JUMPDEST PUSH0 DUP1 CALLDATALOAD PUSH1 0x1 PUSH1 0x1 PUSH1 0xE0 SHL SUB NOT AND DUP2 MSTORE PUSH1 0x37 PUSH1 0x20 MSTORE PUSH1 0x40 SWAP1 KECCAK256 SLOAD PUSH1 0xFF SWAP1 DUP2 AND AND PUSH1 0x1 DUP2 SUB PUSH2 0x19B5 JUMPI POP PUSH1 0x34 SLOAD PUSH0 SWAP1 DUP2 SWAP1 PUSH1 0x1 PUSH1 0x1 PUSH1 0xA0 SHL SUB AND JUMPDEST CALLDATASIZE DUP3 DUP1 CALLDATACOPY DUP2 CALLDATASIZE SWAP2 GAS DELEGATECALL RETURNDATASIZE PUSH0 DUP1 RETURNDATACOPY ISZERO PUSH2 0x19B1 JUMPI RETURNDATASIZE PUSH0 RETURN JUMPDEST RETURNDATASIZE PUSH0 REVERT JUMPDEST PUSH1 0x2 SUB PUSH2 0x19D1 JUMPI PUSH1 0x35 SLOAD PUSH0 SWAP1 DUP2 SWAP1 PUSH1 0x1 PUSH1 0x1 PUSH1 0xA0 SHL SUB AND PUSH2 0x199B JUMP JUMPDEST PUSH1 0x36 SLOAD PUSH0 SWAP1 DUP2 SWAP1 PUSH1 0x1 PUSH1 0x1 PUSH1 0xA0 SHL SUB AND PUSH2 0x199B JUMP JUMPDEST CALLER PUSH0 SWAP1 DUP2 MSTORE PUSH32 0xAB71E3F32666744D246EDFF3F96E4BDAFEE2E9867098CDD118A979A7464786A8 PUSH1 0x20 MSTORE PUSH1 0x40 SWAP1 KECCAK256 SLOAD PUSH1 0xFF AND ISZERO PUSH2 0x1A1E JUMPI JUMP JUMPDEST PUSH4 0xE2517D3F PUSH1 0xE0 SHL PUSH0 MSTORE CALLER PUSH1 0x4 MSTORE PUSH32 0x189AB7A9244DF0848122154315AF71FE140F3DB0FE014031783B0946B8C9D2E3 PUSH1 0x24 MSTORE PUSH1 0x44 PUSH0 REVERT JUMPDEST PUSH0 DUP2 DUP2 MSTORE PUSH0 DUP1 MLOAD PUSH1 0x20 PUSH2 0x3C02 DUP4 CODECOPY DUP2 MLOAD SWAP2 MSTORE PUSH1 0x20 SWAP1 DUP2 MSTORE PUSH1 0x40 DUP1 DUP4 KECCAK256 CALLER DUP5 MSTORE SWAP1 SWAP2 MSTORE SWAP1 KECCAK256 SLOAD PUSH1 0xFF AND ISZERO PUSH2 0x1A85 JUMPI POP JUMP JUMPDEST PUSH4 0xE2517D3F PUSH1 0xE0 SHL PUSH0 MSTORE CALLER PUSH1 0x4 MSTORE PUSH1 0x24 MSTORE PUSH1 0x44 PUSH0 REVERT JUMPDEST PUSH1 0x1 PUSH1 0x1 PUSH1 0xA0 SHL SUB DUP2 AND PUSH0 SWAP1 DUP2 MSTORE PUSH32 0xB7DB2DD08FCB62D0C9E08C51941CAE53C267786A0B75803FB7960902FC8EF97D PUSH1 0x20 MSTORE PUSH1 0x40 SWAP1 KECCAK256 SLOAD PUSH1 0xFF AND PUSH2 0x1B45 JUMPI PUSH1 0x1 PUSH1 0x1 PUSH1 0xA0 SHL SUB AND PUSH0 DUP2 DUP2 MSTORE PUSH32 0xB7DB2DD08FCB62D0C9E08C51941CAE53C267786A0B75803FB7960902FC8EF97D PUSH1 0x20 MSTORE PUSH1 0x40 DUP2 KECCAK256 DUP1 SLOAD PUSH1 0xFF NOT AND PUSH1 0x1 OR SWAP1 SSTORE CALLER SWAP2 SWAP1 PUSH32 0x2F8788117E7EFF1D82E926EC794901D17C78024A50270940304540A733656F0D DUP2 DUP1 LOG4 PUSH1 0x1 SWAP1 JUMP JUMPDEST POP PUSH0 SWAP1 JUMP JUMPDEST PUSH1 0x1 PUSH1 0x1 PUSH1 0xA0 SHL SUB DUP2 AND PUSH0 SWAP1 DUP2 MSTORE PUSH32 0xAB71E3F32666744D246EDFF3F96E4BDAFEE2E9867098CDD118A979A7464786A8 PUSH1 0x20 MSTORE PUSH1 0x40 SWAP1 KECCAK256 SLOAD PUSH1 0xFF AND PUSH2 0x1B45 JUMPI PUSH1 0x1 PUSH1 0x1 PUSH1 0xA0 SHL SUB DUP2 AND PUSH0 SWAP1 DUP2 MSTORE PUSH32 0xAB71E3F32666744D246EDFF3F96E4BDAFEE2E9867098CDD118A979A7464786A8 PUSH1 0x20 MSTORE PUSH1 0x40 SWAP1 KECCAK256 DUP1 SLOAD PUSH1 0xFF NOT AND PUSH1 0x1 OR SWAP1 SSTORE CALLER SWAP1 PUSH1 0x1 PUSH1 0x1 PUSH1 0xA0 SHL SUB AND PUSH32 0x189AB7A9244DF0848122154315AF71FE140F3DB0FE014031783B0946B8C9D2E3 PUSH32 0x2F8788117E7EFF1D82E926EC794901D17C78024A50270940304540A733656F0D PUSH0 DUP1 LOG4 PUSH1 0x1 SWAP1 JUMP JUMPDEST PUSH0 DUP2 DUP2 MSTORE PUSH0 DUP1 MLOAD PUSH1 0x20 PUSH2 0x3C02 DUP4 CODECOPY DUP2 MLOAD SWAP2 MSTORE PUSH1 0x20 SWAP1 DUP2 MSTORE PUSH1 0x40 DUP1 DUP4 KECCAK256 PUSH1 0x1 PUSH1 0x1 PUSH1 0xA0 SHL SUB DUP7 AND DUP5 MSTORE SWAP1 SWAP2 MSTORE SWAP1 KECCAK256 SLOAD PUSH1 0xFF AND PUSH2 0x1CC0 JUMPI PUSH0 DUP2 DUP2 MSTORE PUSH0 DUP1 MLOAD PUSH1 0x20 PUSH2 0x3C02 DUP4 CODECOPY DUP2 MLOAD SWAP2 MSTORE PUSH1 0x20 SWAP1 DUP2 MSTORE PUSH1 0x40 DUP1 DUP4 KECCAK256 PUSH1 0x1 PUSH1 0x1 PUSH1 0xA0 SHL SUB DUP7 AND DUP5 MSTORE SWAP1 SWAP2 MSTORE SWAP1 KECCAK256 DUP1 SLOAD PUSH1 0xFF NOT AND PUSH1 0x1 OR SWAP1 SSTORE CALLER SWAP2 PUSH1 0x1 PUSH1 0x1 PUSH1 0xA0 SHL SUB AND SWAP1 PUSH32 0x2F8788117E7EFF1D82E926EC794901D17C78024A50270940304540A733656F0D PUSH0 DUP1 LOG4 PUSH1 0x1 SWAP1 JUMP JUMPDEST POP POP PUSH0 SWAP1 JUMP JUMPDEST PUSH0 DUP2 DUP2 MSTORE PUSH0 DUP1 MLOAD PUSH1 0x20 PUSH2 0x3C02 DUP4 CODECOPY DUP2 MLOAD SWAP2 MSTORE PUSH1 0x20 SWAP1 DUP2 MSTORE PUSH1 0x40 DUP1 DUP4 KECCAK256 PUSH1 0x1 PUSH1 0x1 PUSH1 0xA0 SHL SUB DUP7 AND DUP5 MSTORE SWAP1 SWAP2 MSTORE SWAP1 KECCAK256 SLOAD PUSH1 0xFF AND ISZERO PUSH2 0x1CC0 JUMPI PUSH0 DUP2 DUP2 MSTORE PUSH0 DUP1 MLOAD PUSH1 0x20 PUSH2 0x3C02 DUP4 CODECOPY DUP2 MLOAD SWAP2 MSTORE PUSH1 0x20 SWAP1 DUP2 MSTORE PUSH1 0x40 DUP1 DUP4 KECCAK256 PUSH1 0x1 PUSH1 0x1 PUSH1 0xA0 SHL SUB DUP7 AND DUP5 MSTORE SWAP1 SWAP2 MSTORE SWAP1 KECCAK256 DUP1 SLOAD PUSH1 0xFF NOT AND SWAP1 SSTORE CALLER SWAP2 PUSH1 0x1 PUSH1 0x1 PUSH1 0xA0 SHL SUB AND SWAP1 PUSH32 0xF6391F5C32D9C69D2A47EA670B442974B53935D1EDC7FD64EB21E047A839171B PUSH0 DUP1 LOG4 PUSH1 0x1 SWAP1 JUMP JUMPDEST SWAP1 DUP2 PUSH1 0x20 SWAP2 SUB SLT PUSH2 0x20D JUMPI MLOAD SWAP1 JUMP JUMPDEST PUSH2 0x1D7D PUSH2 0x1E2D JUMP JUMPDEST PUSH2 0x1D85 PUSH2 0x1E2D JUMP JUMPDEST PUSH1 0x1 PUSH0 SSTORE JUMP JUMPDEST SWAP1 DUP2 EXTCODESIZE ISZERO PUSH2 0x1E0C JUMPI PUSH0 DUP1 MLOAD PUSH1 0x20 PUSH2 0x3BE2 DUP4 CODECOPY DUP2 MLOAD SWAP2 MSTORE DUP1 SLOAD PUSH1 0x1 PUSH1 0x1 PUSH1 0xA0 SHL SUB NOT AND PUSH1 0x1 PUSH1 0x1 PUSH1 0xA0 SHL SUB DUP5 AND SWAP1 DUP2 OR SWAP1 SWAP2 SSTORE PUSH32 0xBC7CD75A20EE27FD9ADEBAB32041F755214DBC6BFFA90CC0225B39DA2E5C2D3B PUSH0 DUP1 LOG2 DUP1 MLOAD ISZERO PUSH2 0x1DF4 JUMPI PUSH2 0x1DF1 SWAP2 PUSH2 0x1E58 JUMP JUMPDEST POP JUMP JUMPDEST POP POP CALLVALUE PUSH2 0x1DFD JUMPI JUMP JUMPDEST PUSH4 0xB398979F PUSH1 0xE0 SHL PUSH0 MSTORE PUSH1 0x4 PUSH0 REVERT JUMPDEST POP PUSH4 0x4C9C8CE3 PUSH1 0xE0 SHL PUSH0 SWAP1 DUP2 MSTORE PUSH1 0x1 PUSH1 0x1 PUSH1 0xA0 SHL SUB SWAP2 SWAP1 SWAP2 AND PUSH1 0x4 MSTORE PUSH1 0x24 SWAP1 REVERT JUMPDEST PUSH1 0xFF PUSH0 DUP1 MLOAD PUSH1 0x20 PUSH2 0x3C22 DUP4 CODECOPY DUP2 MLOAD SWAP2 MSTORE SLOAD PUSH1 0x40 SHR AND ISZERO PUSH2 0x1E49 JUMPI JUMP JUMPDEST PUSH4 0x1AFCD79F PUSH1 0xE3 SHL PUSH0 MSTORE PUSH1 0x4 PUSH0 REVERT JUMPDEST PUSH0 DUP1 PUSH2 0x309 SWAP4 PUSH1 0x20 DUP2 MLOAD SWAP2 ADD DUP5 GAS DELEGATECALL RETURNDATASIZE ISZERO PUSH2 0x1E94 JUMPI RETURNDATASIZE SWAP2 PUSH2 0x1E78 DUP4 PUSH2 0x29D JUMP JUMPDEST SWAP3 PUSH2 0x1E86 PUSH1 0x40 MLOAD SWAP5 DUP6 PUSH2 0x26B JUMP JUMPDEST DUP4 MSTORE RETURNDATASIZE PUSH0 PUSH1 0x20 DUP6 ADD RETURNDATACOPY PUSH2 0x1E98 JUMP JUMPDEST PUSH1 0x60 SWAP2 JUMPDEST SWAP1 PUSH2 0x1EBC JUMPI POP DUP1 MLOAD ISZERO PUSH2 0x1EAD JUMPI DUP1 MLOAD SWAP1 PUSH1 0x20 ADD REVERT JUMPDEST PUSH4 0xD6BDA275 PUSH1 0xE0 SHL PUSH0 MSTORE PUSH1 0x4 PUSH0 REVERT JUMPDEST DUP2 MLOAD ISZERO DUP1 PUSH2 0x1EED JUMPI JUMPDEST PUSH2 0x1ECD JUMPI POP SWAP1 JUMP JUMPDEST PUSH4 0x9996B315 PUSH1 0xE0 SHL PUSH0 SWAP1 DUP2 MSTORE PUSH1 0x1 PUSH1 0x1 PUSH1 0xA0 SHL SUB SWAP2 SWAP1 SWAP2 AND PUSH1 0x4 MSTORE PUSH1 0x24 SWAP1 REVERT JUMPDEST POP DUP1 EXTCODESIZE ISZERO PUSH2 0x1EC5 JUMP INVALID PUSH1 0x80 CALLVALUE PUSH1 0x6F JUMPI PUSH1 0x1F PUSH2 0xFE7 CODESIZE DUP2 SWAP1 SUB SWAP2 DUP3 ADD PUSH1 0x1F NOT AND DUP4 ADD SWAP2 PUSH1 0x1 PUSH1 0x1 PUSH1 0x40 SHL SUB DUP4 GT DUP5 DUP5 LT OR PUSH1 0x73 JUMPI DUP1 DUP5 SWAP3 PUSH1 0x20 SWAP5 PUSH1 0x40 MSTORE DUP4 CODECOPY DUP2 ADD SUB SLT PUSH1 0x6F JUMPI MLOAD PUSH1 0x1 PUSH1 0x1 PUSH1 0xA0 SHL SUB DUP2 AND SWAP1 DUP2 SWAP1 SUB PUSH1 0x6F JUMPI PUSH0 DUP1 SLOAD PUSH1 0x1 PUSH1 0x1 PUSH1 0xA0 SHL SUB NOT AND SWAP2 SWAP1 SWAP2 OR SWAP1 SSTORE PUSH1 0x40 MLOAD PUSH2 0xF5F SWAP1 DUP2 PUSH2 0x88 DUP3 CODECOPY RETURN JUMPDEST PUSH0 DUP1 REVERT JUMPDEST PUSH4 0x4E487B71 PUSH1 0xE0 SHL PUSH0 MSTORE PUSH1 0x41 PUSH1 0x4 MSTORE PUSH1 0x24 PUSH0 REVERT INVALID PUSH1 0x80 DUP1 PUSH1 0x40 MSTORE PUSH1 0x4 CALLDATASIZE LT ISZERO PUSH2 0x12 JUMPI PUSH0 DUP1 REVERT JUMPDEST PUSH0 CALLDATALOAD PUSH1 0xE0 SHR SWAP1 DUP2 PUSH4 0x2DEDB01D EQ PUSH2 0xBD8 JUMPI POP DUP1 PUSH4 0x5A91AA79 EQ PUSH2 0x64B JUMPI DUP1 PUSH4 0xA4EEF9F3 EQ PUSH2 0x24D JUMPI DUP1 PUSH4 0xC5B76D85 EQ PUSH2 0x138 JUMPI DUP1 PUSH4 0xCE3F3F5D EQ PUSH2 0x104 JUMPI PUSH4 0xF56206E7 EQ PUSH2 0x5E JUMPI PUSH0 DUP1 REVERT JUMPDEST CALLVALUE PUSH2 0x100 JUMPI PUSH1 0x20 CALLDATASIZE PUSH1 0x3 NOT ADD SLT PUSH2 0x100 JUMPI PUSH1 0x4 CALLDATALOAD PUSH0 MSTORE PUSH1 0x1 PUSH1 0x20 MSTORE PUSH2 0xE3 PUSH1 0x40 PUSH0 KECCAK256 PUSH1 0x40 MLOAD SWAP1 PUSH2 0x8D DUP3 PUSH2 0xC09 JUMP JUMPDEST PUSH2 0x96 DUP2 PUSH2 0xE69 JUMP JUMPDEST DUP3 MSTORE PUSH2 0xA4 PUSH1 0x1 DUP3 ADD PUSH2 0xE69 JUMP JUMPDEST SWAP2 DUP3 PUSH1 0x20 DUP3 ADD MSTORE PUSH2 0xF1 PUSH1 0x3 PUSH1 0x1 DUP1 PUSH1 0xA0 SHL SUB PUSH1 0x2 DUP6 ADD SLOAD AND SWAP4 DUP5 PUSH1 0x40 DUP6 ADD MSTORE ADD SLOAD SWAP2 DUP3 PUSH1 0x60 DUP3 ADD MSTORE MLOAD SWAP4 PUSH1 0x40 MLOAD SWAP6 DUP7 SWAP6 PUSH1 0x80 DUP8 MSTORE PUSH1 0x80 DUP8 ADD SWAP1 PUSH2 0xD2F JUMP JUMPDEST SWAP1 DUP6 DUP3 SUB PUSH1 0x20 DUP8 ADD MSTORE PUSH2 0xD2F JUMP JUMPDEST SWAP2 PUSH1 0x40 DUP5 ADD MSTORE PUSH1 0x60 DUP4 ADD MSTORE SUB SWAP1 RETURN JUMPDEST PUSH0 DUP1 REVERT JUMPDEST CALLVALUE PUSH2 0x100 JUMPI PUSH1 0x20 CALLDATASIZE PUSH1 0x3 NOT ADD SLT PUSH2 0x100 JUMPI PUSH1 0x4 CALLDATALOAD PUSH0 MSTORE PUSH1 0x1 PUSH1 0x20 MSTORE PUSH1 0x20 PUSH2 0x12E PUSH1 0x40 PUSH0 KECCAK256 SLOAD PUSH2 0xE31 JUMP JUMPDEST ISZERO ISZERO PUSH1 0x40 MLOAD SWAP1 DUP2 MSTORE RETURN JUMPDEST CALLVALUE PUSH2 0x100 JUMPI PUSH1 0x40 CALLDATASIZE PUSH1 0x3 NOT ADD SLT PUSH2 0x100 JUMPI PUSH1 0x24 CALLDATALOAD PUSH1 0x1 PUSH1 0x1 PUSH1 0xA0 SHL SUB DUP2 AND SWAP1 PUSH1 0x4 CALLDATALOAD SWAP1 DUP3 SWAP1 SUB PUSH2 0x100 JUMPI PUSH0 DUP2 DUP2 MSTORE PUSH1 0x1 PUSH1 0x20 MSTORE PUSH1 0x40 SWAP1 KECCAK256 PUSH1 0x2 ADD SLOAD PUSH1 0x1 PUSH1 0x1 PUSH1 0xA0 SHL SUB AND ISZERO DUP1 ISZERO PUSH2 0x22B JUMPI JUMPDEST PUSH2 0x18D SWAP1 PUSH2 0xDD7 JUMP JUMPDEST DUP2 ISZERO PUSH2 0x1E6 JUMPI PUSH0 DUP2 DUP2 MSTORE PUSH1 0x1 PUSH1 0x20 MSTORE PUSH1 0x40 DUP2 KECCAK256 PUSH1 0x2 ADD DUP1 SLOAD PUSH1 0x1 PUSH1 0x1 PUSH1 0xA0 SHL SUB NOT DUP2 AND DUP6 OR SWAP1 SWAP2 SSTORE PUSH1 0x1 PUSH1 0x1 PUSH1 0xA0 SHL SUB AND SWAP2 SWAP1 PUSH32 0x1690FFE18D495D7CF7C70D8BF31424A4F9317B14BAB2D6814C301BD5F344CD92 SWAP1 DUP1 LOG4 STOP JUMPDEST PUSH1 0x40 MLOAD PUSH3 0x461BCD PUSH1 0xE5 SHL DUP2 MSTORE PUSH1 0x20 PUSH1 0x4 DUP3 ADD MSTORE PUSH1 0x1F PUSH1 0x24 DUP3 ADD MSTORE PUSH32 0x43616E6E6F74207472616E7366657220746F207A65726F206164647265737300 PUSH1 0x44 DUP3 ADD MSTORE PUSH1 0x64 SWAP1 REVERT JUMPDEST POP PUSH0 DUP2 DUP2 MSTORE PUSH1 0x1 PUSH1 0x20 MSTORE PUSH1 0x40 SWAP1 KECCAK256 PUSH1 0x2 ADD SLOAD PUSH1 0x1 PUSH1 0x1 PUSH1 0xA0 SHL SUB AND CALLER EQ PUSH2 0x184 JUMP JUMPDEST CALLVALUE PUSH2 0x100 JUMPI PUSH1 0x60 CALLDATASIZE PUSH1 0x3 NOT ADD SLT PUSH2 0x100 JUMPI PUSH1 0x4 CALLDATALOAD PUSH1 0x24 CALLDATALOAD PUSH1 0x1 PUSH1 0x1 PUSH1 0x40 SHL SUB DUP2 GT PUSH2 0x100 JUMPI PUSH2 0x280 SWAP1 CALLDATASIZE SWAP1 PUSH1 0x4 ADD PUSH2 0xC5C JUMP JUMPDEST SWAP1 PUSH1 0x44 CALLDATALOAD PUSH1 0x1 PUSH1 0x1 PUSH1 0x40 SHL SUB DUP2 GT PUSH2 0x100 JUMPI PUSH2 0x2A0 SWAP1 CALLDATASIZE SWAP1 PUSH1 0x4 ADD PUSH2 0xC5C JUMP JUMPDEST PUSH0 DUP3 DUP2 MSTORE PUSH1 0x1 PUSH1 0x20 MSTORE PUSH1 0x40 SWAP1 KECCAK256 PUSH1 0x2 ADD SLOAD SWAP1 SWAP3 SWAP1 PUSH1 0x1 PUSH1 0x1 PUSH1 0xA0 SHL SUB AND ISZERO DUP1 ISZERO PUSH2 0x629 JUMPI JUMPDEST PUSH2 0x2CE SWAP1 PUSH2 0xDD7 JUMP JUMPDEST PUSH0 SLOAD PUSH1 0x40 MLOAD PUSH4 0x792AB6CB PUSH1 0xE0 SHL DUP2 MSTORE PUSH1 0x4 DUP2 ADD DUP5 SWAP1 MSTORE SWAP1 PUSH1 0x20 SWAP1 DUP3 SWAP1 PUSH1 0x24 SWAP1 DUP3 SWAP1 PUSH1 0x1 PUSH1 0x1 PUSH1 0xA0 SHL SUB AND GAS STATICCALL DUP1 ISZERO PUSH2 0x61E JUMPI PUSH2 0x311 SWAP2 PUSH0 SWAP2 PUSH2 0x5EF JUMPI JUMPDEST POP PUSH2 0xD93 JUMP JUMPDEST PUSH1 0x40 MLOAD PUSH2 0x31D DUP2 PUSH2 0xC09 JUMP JUMPDEST DUP2 DUP2 MSTORE PUSH1 0x20 DUP2 ADD DUP5 DUP2 MSTORE PUSH1 0x40 DUP3 ADD CALLER DUP2 MSTORE PUSH1 0x60 DUP4 ADD SWAP2 TIMESTAMP DUP4 MSTORE DUP6 PUSH0 MSTORE PUSH1 0x1 PUSH1 0x20 MSTORE PUSH1 0x40 PUSH0 KECCAK256 SWAP4 MLOAD DUP1 MLOAD SWAP1 PUSH1 0x1 PUSH1 0x1 PUSH1 0x40 SHL SUB DUP3 GT PUSH2 0x51D JUMPI DUP2 SWAP1 PUSH2 0x361 DUP8 SLOAD PUSH2 0xE31 JUMP JUMPDEST PUSH1 0x1F DUP2 GT PUSH2 0x59F JUMPI JUMPDEST POP PUSH1 0x20 SWAP1 PUSH1 0x1F DUP4 GT PUSH1 0x1 EQ PUSH2 0x53C JUMPI PUSH0 SWAP3 PUSH2 0x531 JUMPI JUMPDEST POP POP DUP2 PUSH1 0x1 SHL SWAP2 PUSH0 NOT SWAP1 PUSH1 0x3 SHL SHR NOT AND OR DUP5 SSTORE JUMPDEST MLOAD DUP1 MLOAD PUSH1 0x1 DUP6 ADD SWAP2 PUSH1 0x1 PUSH1 0x1 PUSH1 0x40 SHL SUB DUP3 GT PUSH2 0x51D JUMPI PUSH2 0x3B4 DUP4 SLOAD PUSH2 0xE31 JUMP JUMPDEST PUSH1 0x1F DUP2 GT PUSH2 0x4D8 JUMPI JUMPDEST POP PUSH1 0x20 SWAP1 PUSH1 0x1F DUP4 GT PUSH1 0x1 EQ PUSH2 0x45E JUMPI SWAP3 DUP3 PUSH0 DUP1 MLOAD PUSH1 0x20 PUSH2 0xF0A DUP4 CODECOPY DUP2 MLOAD SWAP2 MSTORE SWAP9 SWAP7 SWAP4 PUSH2 0x43F SWAP9 SWAP7 SWAP4 PUSH1 0x3 SWAP7 PUSH0 SWAP3 PUSH2 0x453 JUMPI JUMPDEST POP POP DUP2 PUSH1 0x1 SHL SWAP2 PUSH0 NOT SWAP1 DUP8 SHL SHR NOT AND OR SWAP1 SSTORE JUMPDEST MLOAD PUSH1 0x2 DUP5 ADD DUP1 SLOAD PUSH1 0x1 PUSH1 0x1 PUSH1 0xA0 SHL SUB NOT AND PUSH1 0x1 PUSH1 0x1 PUSH1 0xA0 SHL SUB SWAP3 SWAP1 SWAP3 AND SWAP2 SWAP1 SWAP2 OR SWAP1 SSTORE MLOAD SWAP2 ADD SSTORE PUSH1 0x40 DUP1 MLOAD DUP2 DUP2 MSTORE SWAP3 DUP4 SWAP3 PUSH2 0x44E SWAP3 DUP5 ADD SWAP1 PUSH2 0xD2F JUMP JUMPDEST DUP3 DUP2 SUB PUSH1 0x20 DUP5 ADD MSTORE CALLER SWAP7 PUSH2 0xD2F JUMP JUMPDEST SUB SWAP1 LOG3 STOP JUMPDEST ADD MLOAD SWAP1 POP DUP13 DUP1 PUSH2 0x3EF JUMP JUMPDEST SWAP1 PUSH1 0x1F NOT DUP4 AND SWAP2 DUP5 PUSH0 MSTORE DUP2 PUSH0 KECCAK256 SWAP3 PUSH0 JUMPDEST DUP2 DUP2 LT PUSH2 0x4C0 JUMPI POP SWAP4 PUSH2 0x43F SWAP9 SWAP7 SWAP4 PUSH1 0x3 SWAP7 SWAP4 PUSH1 0x1 SWAP4 DUP4 PUSH0 DUP1 MLOAD PUSH1 0x20 PUSH2 0xF0A DUP4 CODECOPY DUP2 MLOAD SWAP2 MSTORE SWAP14 SWAP12 SWAP9 LT PUSH2 0x4A9 JUMPI JUMPDEST POP POP POP DUP2 SHL ADD SWAP1 SSTORE PUSH2 0x402 JUMP JUMPDEST ADD MLOAD PUSH0 NOT DUP4 DUP10 SHL PUSH1 0xF8 AND SHR NOT AND SWAP1 SSTORE DUP13 DUP1 DUP1 PUSH2 0x49C JUMP JUMPDEST SWAP3 SWAP4 PUSH1 0x20 PUSH1 0x1 DUP2 SWAP3 DUP8 DUP7 ADD MLOAD DUP2 SSTORE ADD SWAP6 ADD SWAP4 ADD PUSH2 0x46E JUMP JUMPDEST DUP4 PUSH0 MSTORE PUSH1 0x20 PUSH0 KECCAK256 PUSH1 0x1F DUP5 ADD PUSH1 0x5 SHR DUP2 ADD SWAP2 PUSH1 0x20 DUP6 LT PUSH2 0x513 JUMPI JUMPDEST PUSH1 0x1F ADD PUSH1 0x5 SHR ADD SWAP1 JUMPDEST DUP2 DUP2 LT PUSH2 0x508 JUMPI POP PUSH2 0x3BD JUMP JUMPDEST PUSH0 DUP2 SSTORE PUSH1 0x1 ADD PUSH2 0x4FB JUMP JUMPDEST SWAP1 SWAP2 POP DUP2 SWAP1 PUSH2 0x4F2 JUMP JUMPDEST PUSH4 0x4E487B71 PUSH1 0xE0 SHL PUSH0 MSTORE PUSH1 0x41 PUSH1 0x4 MSTORE PUSH1 0x24 PUSH0 REVERT JUMPDEST ADD MLOAD SWAP1 POP DUP10 DUP1 PUSH2 0x380 JUMP JUMPDEST PUSH0 DUP9 DUP2 MSTORE DUP3 DUP2 KECCAK256 SWAP4 POP PUSH1 0x1F NOT DUP6 AND SWAP1 JUMPDEST DUP2 DUP2 LT PUSH2 0x587 JUMPI POP SWAP1 DUP5 PUSH1 0x1 SWAP6 SWAP5 SWAP4 SWAP3 LT PUSH2 0x56F JUMPI JUMPDEST POP POP POP DUP2 SHL ADD DUP5 SSTORE PUSH2 0x394 JUMP JUMPDEST ADD MLOAD PUSH0 NOT PUSH1 0xF8 DUP5 PUSH1 0x3 SHL AND SHR NOT AND SWAP1 SSTORE DUP10 DUP1 DUP1 PUSH2 0x562 JUMP JUMPDEST SWAP3 SWAP4 PUSH1 0x20 PUSH1 0x1 DUP2 SWAP3 DUP8 DUP7 ADD MLOAD DUP2 SSTORE ADD SWAP6 ADD SWAP4 ADD PUSH2 0x54C JUMP JUMPDEST SWAP1 SWAP2 POP DUP7 PUSH0 MSTORE PUSH1 0x20 PUSH0 KECCAK256 PUSH1 0x1F DUP5 ADD PUSH1 0x5 SHR DUP2 ADD SWAP2 PUSH1 0x20 DUP6 LT PUSH2 0x5E5 JUMPI JUMPDEST SWAP1 PUSH1 0x1F DUP6 SWAP5 SWAP4 SWAP3 ADD PUSH1 0x5 SHR ADD SWAP1 JUMPDEST DUP2 DUP2 LT PUSH2 0x5D7 JUMPI POP PUSH2 0x36A JUMP JUMPDEST PUSH0 DUP2 SSTORE DUP5 SWAP4 POP PUSH1 0x1 ADD PUSH2 0x5CA JUMP JUMPDEST SWAP1 SWAP2 POP DUP2 SWAP1 PUSH2 0x5BC JUMP JUMPDEST PUSH2 0x611 SWAP2 POP PUSH1 0x20 RETURNDATASIZE PUSH1 0x20 GT PUSH2 0x617 JUMPI JUMPDEST PUSH2 0x609 DUP2 DUP4 PUSH2 0xC24 JUMP JUMPDEST DUP2 ADD SWAP1 PUSH2 0xD7B JUMP JUMPDEST DUP6 PUSH2 0x30B JUMP JUMPDEST POP RETURNDATASIZE PUSH2 0x5FF JUMP JUMPDEST PUSH1 0x40 MLOAD RETURNDATASIZE PUSH0 DUP3 RETURNDATACOPY RETURNDATASIZE SWAP1 REVERT JUMPDEST POP PUSH0 DUP3 DUP2 MSTORE PUSH1 0x1 PUSH1 0x20 MSTORE PUSH1 0x40 SWAP1 KECCAK256 PUSH1 0x2 ADD SLOAD PUSH1 0x1 PUSH1 0x1 PUSH1 0xA0 SHL SUB AND CALLER EQ PUSH2 0x2C5 JUMP JUMPDEST CALLVALUE PUSH2 0x100 JUMPI PUSH1 0x60 CALLDATASIZE PUSH1 0x3 NOT ADD SLT PUSH2 0x100 JUMPI PUSH1 0x4 CALLDATALOAD PUSH1 0x1 PUSH1 0x1 PUSH1 0x40 SHL SUB DUP2 GT PUSH2 0x100 JUMPI CALLDATASIZE PUSH1 0x23 DUP3 ADD SLT ISZERO PUSH2 0x100 JUMPI DUP1 PUSH1 0x4 ADD CALLDATALOAD SWAP1 PUSH2 0x687 DUP3 PUSH2 0xC45 JUMP JUMPDEST SWAP2 PUSH2 0x695 PUSH1 0x40 MLOAD SWAP4 DUP5 PUSH2 0xC24 JUMP JUMPDEST DUP1 DUP4 MSTORE PUSH1 0x24 PUSH1 0x20 DUP5 ADD SWAP2 PUSH1 0x5 SHL DUP4 ADD ADD SWAP2 CALLDATASIZE DUP4 GT PUSH2 0x100 JUMPI PUSH1 0x24 ADD SWAP1 JUMPDEST DUP3 DUP3 LT PUSH2 0xBC8 JUMPI DUP4 PUSH1 0x24 CALLDATALOAD PUSH1 0x1 PUSH1 0x1 PUSH1 0x40 SHL SUB DUP2 GT PUSH2 0x100 JUMPI PUSH2 0x6D9 SWAP1 CALLDATASIZE SWAP1 PUSH1 0x4 ADD PUSH2 0xCB1 JUMP JUMPDEST PUSH1 0x44 CALLDATALOAD PUSH1 0x1 PUSH1 0x1 PUSH1 0x40 SHL SUB DUP2 GT PUSH2 0x100 JUMPI PUSH2 0x6F8 SWAP1 CALLDATASIZE SWAP1 PUSH1 0x4 ADD PUSH2 0xCB1 JUMP JUMPDEST SWAP2 DUP1 MLOAD DUP3 MLOAD DUP2 EQ SWAP1 DUP2 PUSH2 0xBBD JUMPI JUMPDEST POP ISZERO PUSH2 0xB78 JUMPI PUSH0 JUMPDEST DUP2 MLOAD DUP2 LT ISZERO PUSH2 0xB76 JUMPI PUSH0 SLOAD PUSH1 0x1 PUSH1 0x1 PUSH1 0xA0 SHL SUB AND PUSH2 0x72C DUP3 DUP5 PUSH2 0xD53 JUMP JUMPDEST MLOAD PUSH1 0x40 MLOAD SWAP1 PUSH4 0x792AB6CB PUSH1 0xE0 SHL DUP3 MSTORE PUSH1 0x4 DUP3 ADD MSTORE PUSH1 0x20 DUP2 PUSH1 0x24 DUP2 DUP6 GAS STATICCALL DUP1 ISZERO PUSH2 0x61E JUMPI PUSH2 0x75F SWAP2 PUSH0 SWAP2 PUSH2 0xB58 JUMPI POP PUSH2 0xD93 JUMP JUMPDEST PUSH2 0x769 DUP3 DUP5 PUSH2 0xD53 JUMP JUMPDEST MLOAD PUSH0 SWAP1 DUP2 MSTORE PUSH1 0x1 PUSH1 0x20 MSTORE PUSH1 0x40 SWAP1 KECCAK256 PUSH1 0x2 ADD SLOAD PUSH1 0x1 PUSH1 0x1 PUSH1 0xA0 SHL SUB AND ISZERO DUP1 ISZERO PUSH2 0xB2E JUMPI JUMPDEST PUSH2 0x79A JUMPI JUMPDEST POP PUSH1 0x1 ADD PUSH2 0x70E JUMP JUMPDEST PUSH2 0x7A4 DUP3 DUP5 PUSH2 0xD53 JUMP JUMPDEST MLOAD PUSH2 0x7AF DUP4 DUP7 PUSH2 0xD53 JUMP JUMPDEST MLOAD PUSH1 0x24 PUSH1 0x20 PUSH2 0x7BE DUP7 DUP11 PUSH2 0xD53 JUMP JUMPDEST MLOAD PUSH0 DUP6 DUP2 MSTORE PUSH1 0x1 DUP4 MSTORE PUSH1 0x40 SWAP1 KECCAK256 PUSH1 0x2 ADD SLOAD SWAP1 SWAP6 SWAP1 PUSH1 0x1 PUSH1 0x1 PUSH1 0xA0 SHL SUB AND ISZERO DUP1 ISZERO PUSH2 0xB0D JUMPI JUMPDEST PUSH2 0x7EC SWAP1 PUSH2 0xDD7 JUMP JUMPDEST PUSH1 0x40 MLOAD SWAP3 DUP4 DUP1 SWAP3 PUSH4 0x792AB6CB PUSH1 0xE0 SHL DUP3 MSTORE DUP8 PUSH1 0x4 DUP4 ADD MSTORE GAS STATICCALL DUP1 ISZERO PUSH2 0x61E JUMPI PUSH2 0x81B SWAP2 PUSH0 SWAP2 PUSH2 0xAEF JUMPI POP PUSH2 0xD93 JUMP JUMPDEST PUSH1 0x40 MLOAD PUSH2 0x827 DUP2 PUSH2 0xC09 JUMP JUMPDEST DUP2 DUP2 MSTORE PUSH1 0x20 DUP2 ADD SWAP1 DUP5 DUP3 MSTORE PUSH1 0x40 DUP2 ADD CALLER DUP2 MSTORE TIMESTAMP PUSH1 0x60 DUP4 ADD MSTORE DUP5 PUSH0 MSTORE PUSH1 0x1 PUSH1 0x20 MSTORE PUSH1 0x40 PUSH0 KECCAK256 SWAP3 DUP3 MLOAD DUP1 MLOAD SWAP1 PUSH1 0x1 PUSH1 0x1 PUSH1 0x40 SHL SUB DUP3 GT PUSH2 0x51D JUMPI DUP2 SWAP1 PUSH2 0x86B DUP8 SLOAD PUSH2 0xE31 JUMP JUMPDEST PUSH1 0x1F DUP2 GT PUSH2 0xA9F JUMPI JUMPDEST POP PUSH1 0x20 SWAP1 PUSH1 0x1F DUP4 GT PUSH1 0x1 EQ PUSH2 0xA3C JUMPI PUSH0 SWAP3 PUSH2 0xA31 JUMPI JUMPDEST POP POP DUP2 PUSH1 0x1 SHL SWAP2 PUSH0 NOT SWAP1 PUSH1 0x3 SHL SHR NOT AND OR DUP5 SSTORE JUMPDEST MLOAD DUP1 MLOAD SWAP1 PUSH1 0x1 PUSH1 0x1 PUSH1 0x40 SHL SUB DUP3 GT PUSH2 0x51D JUMPI PUSH2 0x8BD PUSH1 0x1 DUP7 ADD SLOAD PUSH2 0xE31 JUMP JUMPDEST PUSH1 0x1F DUP2 GT PUSH2 0x9E9 JUMPI JUMPDEST POP PUSH1 0x20 SWAP1 PUSH1 0x1F DUP4 GT PUSH1 0x1 EQ PUSH2 0x963 JUMPI PUSH2 0x43F SWAP5 PUSH1 0x1 SWAP11 SWAP10 SWAP9 SWAP8 SWAP5 DUP5 PUSH0 DUP1 MLOAD PUSH1 0x20 PUSH2 0xF0A DUP4 CODECOPY DUP2 MLOAD SWAP2 MSTORE SWAP9 SWAP6 PUSH1 0x3 SWAP6 PUSH1 0x60 SWAP6 PUSH0 SWAP3 PUSH2 0x958 JUMPI JUMPDEST POP POP PUSH0 NOT DUP3 DUP8 SHL SHR NOT AND SWAP1 DUP14 SHL OR DUP6 DUP14 ADD SSTORE JUMPDEST MLOAD PUSH1 0x2 DUP6 ADD DUP1 SLOAD PUSH1 0x1 PUSH1 0x1 PUSH1 0xA0 SHL SUB NOT AND PUSH1 0xA0 DUP15 SWAP1 SHL DUP15 SWAP1 SUB SWAP3 SWAP1 SWAP3 AND SWAP2 SWAP1 SWAP2 OR SWAP1 SSTORE ADD MLOAD SWAP2 ADD SSTORE PUSH1 0x40 DUP1 MLOAD DUP2 DUP2 MSTORE SWAP3 DUP4 SWAP3 PUSH2 0x94F SWAP3 DUP5 ADD SWAP1 PUSH2 0xD2F JUMP JUMPDEST SUB SWAP1 LOG3 SWAP1 PUSH2 0x791 JUMP JUMPDEST ADD MLOAD SWAP1 POP PUSH0 DUP1 PUSH2 0x8FE JUMP JUMPDEST SWAP1 PUSH1 0x1 DUP7 ADD PUSH0 MSTORE DUP1 PUSH0 KECCAK256 SWAP2 PUSH0 JUMPDEST PUSH1 0x1F NOT DUP6 AND DUP2 LT PUSH2 0x9D1 JUMPI POP SWAP5 PUSH1 0x1 SWAP11 SWAP10 SWAP9 SWAP8 SWAP5 DUP12 DUP6 PUSH1 0x3 SWAP6 PUSH1 0x60 SWAP6 PUSH2 0x43F SWAP11 PUSH0 DUP1 MLOAD PUSH1 0x20 PUSH2 0xF0A DUP4 CODECOPY DUP2 MLOAD SWAP2 MSTORE SWAP13 SWAP10 PUSH1 0x1F NOT DUP2 AND LT PUSH2 0x9BA JUMPI JUMPDEST POP POP POP DUP2 SHL ADD DUP13 DUP7 ADD SSTORE PUSH2 0x911 JUMP JUMPDEST ADD MLOAD PUSH0 NOT DUP4 DUP10 SHL PUSH1 0xF8 AND SHR NOT AND SWAP1 SSTORE PUSH0 DUP1 DUP1 PUSH2 0x9AB JUMP JUMPDEST SWAP2 SWAP3 PUSH1 0x20 PUSH1 0x1 DUP2 SWAP3 DUP7 DUP6 ADD MLOAD DUP2 SSTORE ADD SWAP5 ADD SWAP3 ADD PUSH2 0x970 JUMP JUMPDEST PUSH1 0x1 DUP7 ADD PUSH0 MSTORE PUSH1 0x20 PUSH0 KECCAK256 PUSH1 0x1F DUP5 ADD PUSH1 0x5 SHR DUP2 ADD SWAP2 PUSH1 0x20 DUP6 LT PUSH2 0xA27 JUMPI JUMPDEST PUSH1 0x1F ADD PUSH1 0x5 SHR ADD SWAP1 JUMPDEST DUP2 DUP2 LT PUSH2 0xA1C JUMPI POP PUSH2 0x8C6 JUMP JUMPDEST PUSH0 DUP2 SSTORE PUSH1 0x1 ADD PUSH2 0xA0F JUMP JUMPDEST SWAP1 SWAP2 POP DUP2 SWAP1 PUSH2 0xA06 JUMP JUMPDEST ADD MLOAD SWAP1 POP DUP14 DUP1 PUSH2 0x88A JUMP JUMPDEST PUSH0 DUP9 DUP2 MSTORE DUP3 DUP2 KECCAK256 SWAP4 POP PUSH1 0x1F NOT DUP6 AND SWAP1 JUMPDEST DUP2 DUP2 LT PUSH2 0xA87 JUMPI POP SWAP1 DUP5 PUSH1 0x1 SWAP6 SWAP5 SWAP4 SWAP3 LT PUSH2 0xA6F JUMPI JUMPDEST POP POP POP DUP2 SHL ADD DUP5 SSTORE PUSH2 0x89E JUMP JUMPDEST ADD MLOAD PUSH0 NOT PUSH1 0xF8 DUP5 PUSH1 0x3 SHL AND SHR NOT AND SWAP1 SSTORE DUP14 DUP1 DUP1 PUSH2 0xA62 JUMP JUMPDEST SWAP3 SWAP4 PUSH1 0x20 PUSH1 0x1 DUP2 SWAP3 DUP8 DUP7 ADD MLOAD DUP2 SSTORE ADD SWAP6 ADD SWAP4 ADD PUSH2 0xA4C JUMP JUMPDEST SWAP1 SWAP2 POP DUP7 PUSH0 MSTORE PUSH1 0x20 PUSH0 KECCAK256 PUSH1 0x1F DUP5 ADD PUSH1 0x5 SHR DUP2 ADD SWAP2 PUSH1 0x20 DUP6 LT PUSH2 0xAE5 JUMPI JUMPDEST SWAP1 PUSH1 0x1F DUP6 SWAP5 SWAP4 SWAP3 ADD PUSH1 0x5 SHR ADD SWAP1 JUMPDEST DUP2 DUP2 LT PUSH2 0xAD7 JUMPI POP PUSH2 0x874 JUMP JUMPDEST PUSH0 DUP2 SSTORE DUP5 SWAP4 POP PUSH1 0x1 ADD PUSH2 0xACA JUMP JUMPDEST SWAP1 SWAP2 POP DUP2 SWAP1 PUSH2 0xABC JUMP JUMPDEST PUSH2 0xB07 SWAP2 POP PUSH1 0x20 RETURNDATASIZE DUP2 GT PUSH2 0x617 JUMPI PUSH2 0x609 DUP2 DUP4 PUSH2 0xC24 JUMP JUMPDEST DUP10 PUSH2 0x30B JUMP JUMPDEST POP PUSH0 DUP6 DUP2 MSTORE PUSH1 0x1 DUP4 MSTORE PUSH1 0x40 SWAP1 KECCAK256 PUSH1 0x2 ADD SLOAD PUSH1 0x1 PUSH1 0x1 PUSH1 0xA0 SHL SUB AND CALLER EQ PUSH2 0x7E3 JUMP JUMPDEST POP PUSH2 0xB39 DUP3 DUP5 PUSH2 0xD53 JUMP JUMPDEST MLOAD PUSH0 MSTORE PUSH1 0x1 PUSH1 0x20 MSTORE PUSH1 0x1 DUP1 PUSH1 0xA0 SHL SUB PUSH1 0x2 PUSH1 0x40 PUSH0 KECCAK256 ADD SLOAD AND CALLER EQ PUSH2 0x78C JUMP JUMPDEST PUSH2 0xB70 SWAP2 POP PUSH1 0x20 RETURNDATASIZE DUP2 GT PUSH2 0x617 JUMPI PUSH2 0x609 DUP2 DUP4 PUSH2 0xC24 JUMP JUMPDEST DUP8 PUSH2 0x30B JUMP JUMPDEST STOP JUMPDEST PUSH1 0x40 MLOAD PUSH3 0x461BCD PUSH1 0xE5 SHL DUP2 MSTORE PUSH1 0x20 PUSH1 0x4 DUP3 ADD MSTORE PUSH1 0x18 PUSH1 0x24 DUP3 ADD MSTORE PUSH32 0x4172726179206C656E67746873206D757374206D617463680000000000000000 PUSH1 0x44 DUP3 ADD MSTORE PUSH1 0x64 SWAP1 REVERT JUMPDEST SWAP1 POP DUP4 MLOAD EQ DUP5 PUSH2 0x706 JUMP JUMPDEST DUP2 CALLDATALOAD DUP2 MSTORE PUSH1 0x20 SWAP2 DUP3 ADD SWAP2 ADD PUSH2 0x6B2 JUMP JUMPDEST CALLVALUE PUSH2 0x100 JUMPI PUSH1 0x20 CALLDATASIZE PUSH1 0x3 NOT ADD SLT PUSH2 0x100 JUMPI PUSH1 0x20 SWAP1 PUSH1 0x4 CALLDATALOAD PUSH0 MSTORE PUSH1 0x1 DUP3 MSTORE PUSH1 0x1 DUP1 PUSH1 0xA0 SHL SUB PUSH1 0x2 PUSH1 0x40 PUSH0 KECCAK256 ADD SLOAD AND DUP2 MSTORE RETURN JUMPDEST PUSH1 0x80 DUP2 ADD SWAP1 DUP2 LT PUSH1 0x1 PUSH1 0x1 PUSH1 0x40 SHL SUB DUP3 GT OR PUSH2 0x51D JUMPI PUSH1 0x40 MSTORE JUMP JUMPDEST SWAP1 PUSH1 0x1F DUP1 NOT SWAP2 ADD AND DUP2 ADD SWAP1 DUP2 LT PUSH1 0x1 PUSH1 0x1 PUSH1 0x40 SHL SUB DUP3 GT OR PUSH2 0x51D JUMPI PUSH1 0x40 MSTORE JUMP JUMPDEST PUSH1 0x1 PUSH1 0x1 PUSH1 0x40 SHL SUB DUP2 GT PUSH2 0x51D JUMPI PUSH1 0x5 SHL PUSH1 0x20 ADD SWAP1 JUMP JUMPDEST DUP2 PUSH1 0x1F DUP3 ADD SLT ISZERO PUSH2 0x100 JUMPI DUP1 CALLDATALOAD SWAP1 PUSH1 0x1 PUSH1 0x1 PUSH1 0x40 SHL SUB DUP3 GT PUSH2 0x51D JUMPI PUSH1 0x40 MLOAD SWAP3 PUSH2 0xC90 PUSH1 0x1F DUP5 ADD PUSH1 0x1F NOT AND PUSH1 0x20 ADD DUP6 PUSH2 0xC24 JUMP JUMPDEST DUP3 DUP5 MSTORE PUSH1 0x20 DUP4 DUP4 ADD ADD GT PUSH2 0x100 JUMPI DUP2 PUSH0 SWAP3 PUSH1 0x20 DUP1 SWAP4 ADD DUP4 DUP7 ADD CALLDATACOPY DUP4 ADD ADD MSTORE SWAP1 JUMP JUMPDEST SWAP1 DUP1 PUSH1 0x1F DUP4 ADD SLT ISZERO PUSH2 0x100 JUMPI DUP2 CALLDATALOAD PUSH2 0xCC8 DUP2 PUSH2 0xC45 JUMP JUMPDEST SWAP3 PUSH2 0xCD6 PUSH1 0x40 MLOAD SWAP5 DUP6 PUSH2 0xC24 JUMP JUMPDEST DUP2 DUP5 MSTORE PUSH1 0x20 DUP1 DUP6 ADD SWAP3 PUSH1 0x5 SHL DUP3 ADD ADD SWAP2 DUP4 DUP4 GT PUSH2 0x100 JUMPI PUSH1 0x20 DUP3 ADD SWAP1 JUMPDEST DUP4 DUP3 LT PUSH2 0xD02 JUMPI POP POP POP POP POP SWAP1 JUMP JUMPDEST DUP2 CALLDATALOAD PUSH1 0x1 PUSH1 0x1 PUSH1 0x40 SHL SUB DUP2 GT PUSH2 0x100 JUMPI PUSH1 0x20 SWAP2 PUSH2 0xD24 DUP8 DUP5 DUP1 SWAP5 DUP9 ADD ADD PUSH2 0xC5C JUMP JUMPDEST DUP2 MSTORE ADD SWAP2 ADD SWAP1 PUSH2 0xCF3 JUMP JUMPDEST DUP1 MLOAD DUP1 DUP4 MSTORE PUSH1 0x20 SWAP3 SWAP2 DUP2 SWAP1 DUP5 ADD DUP5 DUP5 ADD MCOPY PUSH0 DUP3 DUP3 ADD DUP5 ADD MSTORE PUSH1 0x1F ADD PUSH1 0x1F NOT AND ADD ADD SWAP1 JUMP JUMPDEST DUP1 MLOAD DUP3 LT ISZERO PUSH2 0xD67 JUMPI PUSH1 0x20 SWAP2 PUSH1 0x5 SHL ADD ADD SWAP1 JUMP JUMPDEST PUSH4 0x4E487B71 PUSH1 0xE0 SHL PUSH0 MSTORE PUSH1 0x32 PUSH1 0x4 MSTORE PUSH1 0x24 PUSH0 REVERT JUMPDEST SWAP1 DUP2 PUSH1 0x20 SWAP2 SUB SLT PUSH2 0x100 JUMPI MLOAD DUP1 ISZERO ISZERO DUP2 SUB PUSH2 0x100 JUMPI SWAP1 JUMP JUMPDEST ISZERO PUSH2 0xD9A JUMPI JUMP JUMPDEST PUSH1 0x40 MLOAD PUSH3 0x461BCD PUSH1 0xE5 SHL DUP2 MSTORE PUSH1 0x20 PUSH1 0x4 DUP3 ADD MSTORE PUSH1 0x15 PUSH1 0x24 DUP3 ADD MSTORE PUSH21 0x496E76616C696420636F6E636570742076616C7565 PUSH1 0x58 SHL PUSH1 0x44 DUP3 ADD MSTORE PUSH1 0x64 SWAP1 REVERT JUMPDEST ISZERO PUSH2 0xDDE JUMPI JUMP JUMPDEST PUSH1 0x40 MLOAD PUSH3 0x461BCD PUSH1 0xE5 SHL DUP2 MSTORE PUSH1 0x20 PUSH1 0x4 DUP3 ADD MSTORE PUSH1 0x25 PUSH1 0x24 DUP3 ADD MSTORE PUSH32 0x4E6F7420617574686F72697A656420746F206D6F64696679207468697320636F PUSH1 0x44 DUP3 ADD MSTORE PUSH5 0x1B98D95C1D PUSH1 0xDA SHL PUSH1 0x64 DUP3 ADD MSTORE PUSH1 0x84 SWAP1 REVERT JUMPDEST SWAP1 PUSH1 0x1 DUP3 DUP2 SHR SWAP3 AND DUP1 ISZERO PUSH2 0xE5F JUMPI JUMPDEST PUSH1 0x20 DUP4 LT EQ PUSH2 0xE4B JUMPI JUMP JUMPDEST PUSH4 0x4E487B71 PUSH1 0xE0 SHL PUSH0 MSTORE PUSH1 0x22 PUSH1 0x4 MSTORE PUSH1 0x24 PUSH0 REVERT JUMPDEST SWAP2 PUSH1 0x7F AND SWAP2 PUSH2 0xE40 JUMP JUMPDEST SWAP1 PUSH1 0x40 MLOAD SWAP2 DUP3 PUSH0 DUP3 SLOAD SWAP3 PUSH2 0xE7C DUP5 PUSH2 0xE31 JUMP JUMPDEST DUP1 DUP5 MSTORE SWAP4 PUSH1 0x1 DUP2 AND SWAP1 DUP2 ISZERO PUSH2 0xEE7 JUMPI POP PUSH1 0x1 EQ PUSH2 0xEA3 JUMPI JUMPDEST POP PUSH2 0xEA1 SWAP3 POP SUB DUP4 PUSH2 0xC24 JUMP JUMPDEST JUMP JUMPDEST SWAP1 POP PUSH0 SWAP3 SWAP2 SWAP3 MSTORE PUSH1 0x20 PUSH0 KECCAK256 SWAP1 PUSH0 SWAP2 JUMPDEST DUP2 DUP4 LT PUSH2 0xECB JUMPI POP POP SWAP1 PUSH1 0x20 PUSH2 0xEA1 SWAP3 DUP3 ADD ADD PUSH0 PUSH2 0xE94 JUMP JUMPDEST PUSH1 0x20 SWAP2 SWAP4 POP DUP1 PUSH1 0x1 SWAP2 SLOAD DUP4 DUP6 DUP10 ADD ADD MSTORE ADD SWAP2 ADD SWAP1 SWAP2 DUP5 SWAP3 PUSH2 0xEB2 JUMP JUMPDEST SWAP1 POP PUSH1 0x20 SWAP3 POP PUSH2 0xEA1 SWAP5 SWAP2 POP PUSH1 0xFF NOT AND DUP3 DUP5 ADD MSTORE ISZERO ISZERO PUSH1 0x5 SHL DUP3 ADD ADD PUSH0 PUSH2 0xE94 JUMP INVALID 0xE8 CALLER DUP11 0x2E 0xA8 0xDB PUSH10 0xF222F88EF4A657C4C418 MLOAD 0xCE 0x27 0xF9 LT 0xF8 DUP14 PUSH32 0xA6CCE25F7956FEA2646970667358221220259D57EF46FCB9B6738BFFCD10E34B 0xDA PUSH18 0x94C3607392CCA11B614AA6C649F5D64736F PUSH13 0x634300081A0033608080604052 CALLVALUE PUSH1 0x15 JUMPI PUSH2 0xCEA SWAP1 DUP2 PUSH2 0x1A DUP3 CODECOPY RETURN JUMPDEST PUSH0 DUP1 REVERT INVALID PUSH1 0x80 DUP1 PUSH1 0x40 MSTORE PUSH1 0x4 CALLDATASIZE LT ISZERO PUSH2 0x12 JUMPI PUSH0 DUP1 REVERT JUMPDEST PUSH0 CALLDATALOAD PUSH1 0xE0 SHR PUSH4 0x792AB6CB EQ PUSH2 0x25 JUMPI PUSH0 DUP1 REVERT JUMPDEST CALLVALUE PUSH2 0xCB0 JUMPI PUSH1 0x20 CALLDATASIZE PUSH1 0x3 NOT ADD SLT PUSH2 0xCB0 JUMPI PUSH1 0x20 SWAP1 PUSH1 0x4 CALLDATALOAD PUSH5 0x139E3E437B NOT DUP2 EQ SWAP1 DUP2 ISZERO PUSH2 0xCA0 JUMPI JUMPDEST DUP2 ISZERO PUSH2 0xC90 JUMPI JUMPDEST DUP2 ISZERO PUSH2 0xC80 JUMPI JUMPDEST DUP2 ISZERO PUSH2 0xC70 JUMPI JUMPDEST DUP2 ISZERO PUSH2 0xC60 JUMPI JUMPDEST DUP2 ISZERO PUSH2 0xC50 JUMPI JUMPDEST DUP2 ISZERO PUSH2 0xC40 JUMPI JUMPDEST DUP2 ISZERO PUSH2 0xC30 JUMPI JUMPDEST DUP2 ISZERO PUSH2 0xC20 JUMPI JUMPDEST DUP2 ISZERO PUSH2 0xC10 JUMPI JUMPDEST DUP2 ISZERO PUSH2 0xC00 JUMPI JUMPDEST DUP2 ISZERO PUSH2 0xBF0 JUMPI JUMPDEST DUP2 ISZERO PUSH2 0xBE0 JUMPI JUMPDEST DUP2 ISZERO PUSH2 0xBD0 JUMPI JUMPDEST DUP2 ISZERO PUSH2 0xBC0 JUMPI JUMPDEST DUP2 ISZERO PUSH2 0xBB0 JUMPI JUMPDEST DUP2 ISZERO PUSH2 0xBA0 JUMPI JUMPDEST DUP2 ISZERO PUSH2 0xB90 JUMPI JUMPDEST DUP2 ISZERO PUSH2 0xB80 JUMPI JUMPDEST DUP2 ISZERO PUSH2 0xB70 JUMPI JUMPDEST DUP2 ISZERO PUSH2 0xB60 JUMPI JUMPDEST DUP2 ISZERO PUSH2 0xB50 JUMPI JUMPDEST DUP2 ISZERO PUSH2 0xB40 JUMPI JUMPDEST DUP2 ISZERO PUSH2 0xB30 JUMPI JUMPDEST DUP2 ISZERO PUSH2 0xB20 JUMPI JUMPDEST DUP2 ISZERO PUSH2 0xB10 JUMPI JUMPDEST DUP2 ISZERO PUSH2 0xB00 JUMPI JUMPDEST DUP2 ISZERO PUSH2 0xAF0 JUMPI JUMPDEST DUP2 ISZERO PUSH2 0xAE0 JUMPI JUMPDEST DUP2 ISZERO PUSH2 0xAD0 JUMPI JUMPDEST DUP2 ISZERO PUSH2 0xAC0 JUMPI JUMPDEST DUP2 ISZERO PUSH2 0xAB0 JUMPI JUMPDEST DUP2 ISZERO PUSH2 0xAA0 JUMPI JUMPDEST DUP2 ISZERO PUSH2 0xA90 JUMPI JUMPDEST DUP2 ISZERO PUSH2 0xA80 JUMPI JUMPDEST DUP2 ISZERO PUSH2 0xA77 JUMPI JUMPDEST DUP2 ISZERO PUSH2 0xA69 JUMPI JUMPDEST DUP2 ISZERO PUSH2 0xA5B JUMPI JUMPDEST DUP2 ISZERO PUSH2 0xA4D JUMPI JUMPDEST DUP2 ISZERO PUSH2 0xA3F JUMPI JUMPDEST DUP2 ISZERO PUSH2 0xA30 JUMPI JUMPDEST DUP2 ISZERO PUSH2 0xA21 JUMPI JUMPDEST DUP2 ISZERO PUSH2 0xA12 JUMPI JUMPDEST DUP2 ISZERO PUSH2 0xA03 JUMPI JUMPDEST DUP2 ISZERO PUSH2 0x9F4 JUMPI JUMPDEST DUP2 ISZERO PUSH2 0x9E5 JUMPI JUMPDEST DUP2 ISZERO PUSH2 0x9D6 JUMPI JUMPDEST DUP2 ISZERO PUSH2 0x9C7 JUMPI JUMPDEST DUP2 ISZERO PUSH2 0x9B8 JUMPI JUMPDEST DUP2 ISZERO PUSH2 0x9A9 JUMPI JUMPDEST DUP2 ISZERO PUSH2 0x99A JUMPI JUMPDEST DUP2 ISZERO PUSH2 0x98B JUMPI JUMPDEST DUP2 ISZERO PUSH2 0x97C JUMPI JUMPDEST DUP2 ISZERO PUSH2 0x96D JUMPI JUMPDEST DUP2 ISZERO PUSH2 0x95E JUMPI JUMPDEST DUP2 ISZERO PUSH2 0x94F JUMPI JUMPDEST DUP2 ISZERO PUSH2 0x940 JUMPI JUMPDEST DUP2 ISZERO PUSH2 0x931 JUMPI JUMPDEST DUP2 ISZERO PUSH2 0x922 JUMPI JUMPDEST DUP2 ISZERO PUSH2 0x913 JUMPI JUMPDEST DUP2 ISZERO PUSH2 0x904 JUMPI JUMPDEST DUP2 ISZERO PUSH2 0x8F5 JUMPI JUMPDEST DUP2 ISZERO PUSH2 0x8E6 JUMPI JUMPDEST DUP2 ISZERO PUSH2 0x8D7 JUMPI JUMPDEST DUP2 ISZERO PUSH2 0x8C8 JUMPI JUMPDEST DUP2 ISZERO PUSH2 0x8B9 JUMPI JUMPDEST DUP2 ISZERO PUSH2 0x8AA JUMPI JUMPDEST DUP2 ISZERO PUSH2 0x89B JUMPI JUMPDEST DUP2 ISZERO PUSH2 0x88C JUMPI JUMPDEST DUP2 ISZERO PUSH2 0x87D JUMPI JUMPDEST DUP2 ISZERO PUSH2 0x86E JUMPI JUMPDEST DUP2 ISZERO PUSH2 0x85F JUMPI JUMPDEST DUP2 ISZERO PUSH2 0x850 JUMPI JUMPDEST DUP2 ISZERO PUSH2 0x841 JUMPI JUMPDEST DUP2 ISZERO PUSH2 0x832 JUMPI JUMPDEST DUP2 ISZERO PUSH2 0x823 JUMPI JUMPDEST DUP2 ISZERO PUSH2 0x814 JUMPI JUMPDEST DUP2 ISZERO PUSH2 0x805 JUMPI JUMPDEST DUP2 ISZERO PUSH2 0x7F6 JUMPI JUMPDEST DUP2 ISZERO PUSH2 0x7E7 JUMPI JUMPDEST DUP2 ISZERO PUSH2 0x7D8 JUMPI JUMPDEST DUP2 ISZERO PUSH2 0x7C9 JUMPI JUMPDEST DUP2 ISZERO PUSH2 0x7BA JUMPI JUMPDEST DUP2 ISZERO PUSH2 0x7AB JUMPI JUMPDEST DUP2 ISZERO PUSH2 0x79C JUMPI JUMPDEST DUP2 ISZERO PUSH2 0x78D JUMPI JUMPDEST DUP2 ISZERO PUSH2 0x77E JUMPI JUMPDEST DUP2 ISZERO PUSH2 0x76F JUMPI JUMPDEST DUP2 ISZERO PUSH2 0x760 JUMPI JUMPDEST DUP2 ISZERO PUSH2 0x751 JUMPI JUMPDEST DUP2 ISZERO PUSH2 0x742 JUMPI JUMPDEST DUP2 ISZERO PUSH2 0x733 JUMPI JUMPDEST DUP2 ISZERO PUSH2 0x724 JUMPI JUMPDEST DUP2 ISZERO PUSH2 0x715 JUMPI JUMPDEST DUP2 ISZERO PUSH2 0x706 JUMPI JUMPDEST DUP2 ISZERO PUSH2 0x6F7 JUMPI JUMPDEST DUP2 ISZERO PUSH2 0x6E8 JUMPI JUMPDEST DUP2 ISZERO PUSH2 0x6D9 JUMPI JUMPDEST DUP2 ISZERO PUSH2 0x6CA JUMPI JUMPDEST DUP2 ISZERO PUSH2 0x6BB JUMPI JUMPDEST DUP2 ISZERO PUSH2 0x6AC JUMPI JUMPDEST DUP2 ISZERO PUSH2 0x69D JUMPI JUMPDEST DUP2 ISZERO PUSH2 0x68E JUMPI JUMPDEST DUP2 ISZERO PUSH2 0x67F JUMPI JUMPDEST DUP2 ISZERO PUSH2 0x670 JUMPI JUMPDEST DUP2 ISZERO PUSH2 0x661 JUMPI JUMPDEST DUP2 ISZERO PUSH2 0x652 JUMPI JUMPDEST DUP2 ISZERO PUSH2 0x643 JUMPI JUMPDEST DUP2 ISZERO PUSH2 0x634 JUMPI JUMPDEST DUP2 ISZERO PUSH2 0x625 JUMPI JUMPDEST DUP2 ISZERO PUSH2 0x616 JUMPI JUMPDEST DUP2 ISZERO PUSH2 0x607 JUMPI JUMPDEST DUP2 ISZERO PUSH2 0x5F8 JUMPI JUMPDEST DUP2 ISZERO PUSH2 0x5E9 JUMPI JUMPDEST DUP2 ISZERO PUSH2 0x5DA JUMPI JUMPDEST DUP2 ISZERO PUSH2 0x5CB JUMPI JUMPDEST DUP2 ISZERO PUSH2 0x5BC JUMPI JUMPDEST DUP2 ISZERO PUSH2 0x5AD JUMPI JUMPDEST DUP2 ISZERO PUSH2 0x59E JUMPI JUMPDEST DUP2 ISZERO PUSH2 0x58F JUMPI JUMPDEST DUP2 ISZERO PUSH2 0x580 JUMPI JUMPDEST DUP2 ISZERO PUSH2 0x571 JUMPI JUMPDEST DUP2 ISZERO PUSH2 0x562 JUMPI JUMPDEST DUP2 ISZERO PUSH2 0x553 JUMPI JUMPDEST DUP2 ISZERO PUSH2 0x544 JUMPI JUMPDEST DUP2 ISZERO PUSH2 0x535 JUMPI JUMPDEST DUP2 ISZERO PUSH2 0x526 JUMPI JUMPDEST DUP2 ISZERO PUSH2 0x517 JUMPI JUMPDEST DUP2 ISZERO PUSH2 0x508 JUMPI JUMPDEST DUP2 ISZERO PUSH2 0x4F9 JUMPI JUMPDEST DUP2 ISZERO PUSH2 0x4EA JUMPI JUMPDEST DUP2 ISZERO PUSH2 0x4DB JUMPI JUMPDEST DUP2 ISZERO PUSH2 0x4CC JUMPI JUMPDEST DUP2 ISZERO PUSH2 0x4BD JUMPI JUMPDEST DUP2 ISZERO PUSH2 0x4AE JUMPI JUMPDEST DUP2 ISZERO PUSH2 0x49F JUMPI JUMPDEST DUP2 ISZERO PUSH2 0x490 JUMPI JUMPDEST DUP2 ISZERO PUSH2 0x481 JUMPI JUMPDEST DUP2 ISZERO PUSH2 0x472 JUMPI JUMPDEST DUP2 ISZERO PUSH2 0x463 JUMPI JUMPDEST DUP2 ISZERO PUSH2 0x454 JUMPI JUMPDEST DUP2 ISZERO PUSH2 0x445 JUMPI JUMPDEST DUP2 ISZERO PUSH2 0x436 JUMPI JUMPDEST POP ISZERO ISZERO DUP2 MSTORE RETURN JUMPDEST PUSH5 0x174876E800 SWAP2 POP EQ PUSH0 PUSH2 0x42F JUMP JUMPDEST PUSH5 0x16DA15E3B6 DUP2 EQ SWAP2 POP PUSH2 0x428 JUMP JUMPDEST PUSH5 0x16A2E5618C DUP2 EQ SWAP2 POP PUSH2 0x421 JUMP JUMPDEST PUSH5 0x166BB4DF6C DUP2 EQ SWAP2 POP PUSH2 0x41A JUMP JUMPDEST PUSH5 0x1634845D42 DUP2 EQ SWAP2 POP PUSH2 0x413 JUMP JUMPDEST PUSH5 0x15FD53DB18 DUP2 EQ SWAP2 POP PUSH2 0x40C JUMP JUMPDEST PUSH5 0x15C62358F8 DUP2 EQ SWAP2 POP PUSH2 0x405 JUMP JUMPDEST PUSH5 0x158EF2D6CE DUP2 EQ SWAP2 POP PUSH2 0x3FE JUMP JUMPDEST PUSH5 0x1557C254AE DUP2 EQ SWAP2 POP PUSH2 0x3F7 JUMP JUMPDEST PUSH5 0x152091D284 DUP2 EQ SWAP2 POP PUSH2 0x3F0 JUMP JUMPDEST PUSH5 0x14E961505A DUP2 EQ SWAP2 POP PUSH2 0x3E9 JUMP JUMPDEST PUSH5 0x14B230CE3A DUP2 EQ SWAP2 POP PUSH2 0x3E2 JUMP JUMPDEST PUSH5 0x147B004C10 DUP2 EQ SWAP2 POP PUSH2 0x3DB JUMP JUMPDEST PUSH5 0x1443CFC9F0 DUP2 EQ SWAP2 POP PUSH2 0x3D4 JUMP JUMPDEST PUSH5 0x140C9F47C6 DUP2 EQ SWAP2 POP PUSH2 0x3CD JUMP JUMPDEST PUSH5 0x13D56EC5A6 DUP2 EQ SWAP2 POP PUSH2 0x3C6 JUMP JUMPDEST PUSH5 0x139E3E437C DUP2 EQ SWAP2 POP PUSH2 0x3BF JUMP JUMPDEST PUSH5 0x13670DC152 DUP2 EQ SWAP2 POP PUSH2 0x3B8 JUMP JUMPDEST PUSH5 0x132FDD3F32 DUP2 EQ SWAP2 POP PUSH2 0x3B1 JUMP JUMPDEST PUSH5 0x12F8ACBD08 DUP2 EQ SWAP2 POP PUSH2 0x3AA JUMP JUMPDEST PUSH5 0x12C17C3AE8 DUP2 EQ SWAP2 POP PUSH2 0x3A3 JUMP JUMPDEST PUSH5 0x128A4BB8BE DUP2 EQ SWAP2 POP PUSH2 0x39C JUMP JUMPDEST PUSH5 0x12531B3694 DUP2 EQ SWAP2 POP PUSH2 0x395 JUMP JUMPDEST PUSH5 0x121BEAB474 DUP2 EQ SWAP2 POP PUSH2 0x38E JUMP JUMPDEST PUSH5 0x11E4BA324A DUP2 EQ SWAP2 POP PUSH2 0x387 JUMP JUMPDEST PUSH5 0x11AD89B02A DUP2 EQ SWAP2 POP PUSH2 0x380 JUMP JUMPDEST PUSH5 0x1176592E00 DUP2 EQ SWAP2 POP PUSH2 0x379 JUMP JUMPDEST PUSH5 0x113F28ABD6 DUP2 EQ SWAP2 POP PUSH2 0x372 JUMP JUMPDEST PUSH5 0x1107F829B6 DUP2 EQ SWAP2 POP PUSH2 0x36B JUMP JUMPDEST PUSH5 0x10D0C7A78C DUP2 EQ SWAP2 POP PUSH2 0x364 JUMP JUMPDEST PUSH5 0x109997256C DUP2 EQ SWAP2 POP PUSH2 0x35D JUMP JUMPDEST PUSH5 0x106266A342 DUP2 EQ SWAP2 POP PUSH2 0x356 JUMP JUMPDEST PUSH5 0x102B362118 DUP2 EQ SWAP2 POP PUSH2 0x34F JUMP JUMPDEST PUSH5 0xFF4059EF8 DUP2 EQ SWAP2 POP PUSH2 0x348 JUMP JUMPDEST PUSH5 0xFBCD51CCE DUP2 EQ SWAP2 POP PUSH2 0x341 JUMP JUMPDEST PUSH5 0xF85A49AAE DUP2 EQ SWAP2 POP PUSH2 0x33A JUMP JUMPDEST PUSH5 0xF4E741884 DUP2 EQ SWAP2 POP PUSH2 0x333 JUMP JUMPDEST PUSH5 0xF1743965A DUP2 EQ SWAP2 POP PUSH2 0x32C JUMP JUMPDEST PUSH5 0xEE013143A DUP2 EQ SWAP2 POP PUSH2 0x325 JUMP JUMPDEST PUSH5 0xEA8E29210 DUP2 EQ SWAP2 POP PUSH2 0x31E JUMP JUMPDEST PUSH5 0xE71B20FF0 DUP2 EQ SWAP2 POP PUSH2 0x317 JUMP JUMPDEST PUSH5 0xE3A818DC6 DUP2 EQ SWAP2 POP PUSH2 0x310 JUMP JUMPDEST PUSH5 0xE03510BA6 DUP2 EQ SWAP2 POP PUSH2 0x309 JUMP JUMPDEST PUSH5 0xDCC20897C DUP2 EQ SWAP2 POP PUSH2 0x302 JUMP JUMPDEST PUSH5 0xD94F00752 DUP2 EQ SWAP2 POP PUSH2 0x2FB JUMP JUMPDEST PUSH5 0xD5DBF8532 DUP2 EQ SWAP2 POP PUSH2 0x2F4 JUMP JUMPDEST PUSH5 0xD268F0308 DUP2 EQ SWAP2 POP PUSH2 0x2ED JUMP JUMPDEST PUSH5 0xCEF5E80E8 DUP2 EQ SWAP2 POP PUSH2 0x2E6 JUMP JUMPDEST PUSH5 0xCB82DFEBE DUP2 EQ SWAP2 POP PUSH2 0x2DF JUMP JUMPDEST PUSH5 0xC80FD7C94 DUP2 EQ SWAP2 POP PUSH2 0x2D8 JUMP JUMPDEST PUSH5 0xC49CCFA74 DUP2 EQ SWAP2 POP PUSH2 0x2D1 JUMP JUMPDEST PUSH5 0xC129C784A DUP2 EQ SWAP2 POP PUSH2 0x2CA JUMP JUMPDEST PUSH5 0xBDB6BF62A DUP2 EQ SWAP2 POP PUSH2 0x2C3 JUMP JUMPDEST PUSH5 0xBA43B7400 DUP2 EQ SWAP2 POP PUSH2 0x2BC JUMP JUMPDEST PUSH5 0xB6D0AF1D6 DUP2 EQ SWAP2 POP PUSH2 0x2B5 JUMP JUMPDEST PUSH5 0xB35DA6FB6 DUP2 EQ SWAP2 POP PUSH2 0x2AE JUMP JUMPDEST PUSH5 0xAFEA9ED8C DUP2 EQ SWAP2 POP PUSH2 0x2A7 JUMP JUMPDEST PUSH5 0xAC7796B6C DUP2 EQ SWAP2 POP PUSH2 0x2A0 JUMP JUMPDEST PUSH5 0xA9048E942 DUP2 EQ SWAP2 POP PUSH2 0x299 JUMP JUMPDEST PUSH5 0xA59186718 DUP2 EQ SWAP2 POP PUSH2 0x292 JUMP JUMPDEST PUSH5 0xA21E7E4F8 DUP2 EQ SWAP2 POP PUSH2 0x28B JUMP JUMPDEST PUSH5 0x9EAB762CE DUP2 EQ SWAP2 POP PUSH2 0x284 JUMP JUMPDEST PUSH5 0x9B386E0AE DUP2 EQ SWAP2 POP PUSH2 0x27D JUMP JUMPDEST PUSH5 0x97C565E84 DUP2 EQ SWAP2 POP PUSH2 0x276 JUMP JUMPDEST PUSH5 0x94525DC5A DUP2 EQ SWAP2 POP PUSH2 0x26F JUMP JUMPDEST PUSH5 0x90DF55A3A DUP2 EQ SWAP2 POP PUSH2 0x268 JUMP JUMPDEST PUSH5 0x8D6C4D810 DUP2 EQ SWAP2 POP PUSH2 0x261 JUMP JUMPDEST PUSH5 0x89F9455F0 DUP2 EQ SWAP2 POP PUSH2 0x25A JUMP JUMPDEST PUSH5 0x86863D3C6 DUP2 EQ SWAP2 POP PUSH2 0x253 JUMP JUMPDEST PUSH5 0x8313351A6 DUP2 EQ SWAP2 POP PUSH2 0x24C JUMP JUMPDEST PUSH5 0x7FA02CF7C DUP2 EQ SWAP2 POP PUSH2 0x245 JUMP JUMPDEST PUSH5 0x7C2D24D52 DUP2 EQ SWAP2 POP PUSH2 0x23E JUMP JUMPDEST PUSH5 0x78BA1CB32 DUP2 EQ SWAP2 POP PUSH2 0x237 JUMP JUMPDEST PUSH5 0x754714908 DUP2 EQ SWAP2 POP PUSH2 0x230 JUMP JUMPDEST PUSH5 0x71D40C6E8 DUP2 EQ SWAP2 POP PUSH2 0x229 JUMP JUMPDEST PUSH5 0x6E61044BE DUP2 EQ SWAP2 POP PUSH2 0x222 JUMP JUMPDEST PUSH5 0x6AEDFC294 DUP2 EQ SWAP2 POP PUSH2 0x21B JUMP JUMPDEST PUSH5 0x677AF4074 DUP2 EQ SWAP2 POP PUSH2 0x214 JUMP JUMPDEST PUSH5 0x6407EBE4A DUP2 EQ SWAP2 POP PUSH2 0x20D JUMP JUMPDEST PUSH5 0x6094E3C2A DUP2 EQ SWAP2 POP PUSH2 0x206 JUMP JUMPDEST PUSH5 0x5D21DBA00 DUP2 EQ SWAP2 POP PUSH2 0x1FF JUMP JUMPDEST PUSH5 0x59AED37D6 DUP2 EQ SWAP2 POP PUSH2 0x1F8 JUMP JUMPDEST PUSH5 0x563BCB5B6 DUP2 EQ SWAP2 POP PUSH2 0x1F1 JUMP JUMPDEST PUSH5 0x52C8C338C DUP2 EQ SWAP2 POP PUSH2 0x1EA JUMP JUMPDEST PUSH5 0x4F55BB16C DUP2 EQ SWAP2 POP PUSH2 0x1E3 JUMP JUMPDEST PUSH5 0x4BE2B2F42 DUP2 EQ SWAP2 POP PUSH2 0x1DC JUMP JUMPDEST PUSH5 0x486FAAD18 DUP2 EQ SWAP2 POP PUSH2 0x1D5 JUMP JUMPDEST PUSH5 0x44FCA2AF8 DUP2 EQ SWAP2 POP PUSH2 0x1CE JUMP JUMPDEST PUSH5 0x41899A8CE DUP2 EQ SWAP2 POP PUSH2 0x1C7 JUMP JUMPDEST PUSH5 0x3E16926AE DUP2 EQ SWAP2 POP PUSH2 0x1C0 JUMP JUMPDEST PUSH5 0x3AA38A484 DUP2 EQ SWAP2 POP PUSH2 0x1B9 JUMP JUMPDEST PUSH5 0x37308225A DUP2 EQ SWAP2 POP PUSH2 0x1B2 JUMP JUMPDEST PUSH5 0x33BD7A03A DUP2 EQ SWAP2 POP PUSH2 0x1AB JUMP JUMPDEST PUSH5 0x304A71E10 DUP2 EQ SWAP2 POP PUSH2 0x1A4 JUMP JUMPDEST PUSH5 0x2CD769BF0 DUP2 EQ SWAP2 POP PUSH2 0x19D JUMP JUMPDEST PUSH5 0x2964619C6 DUP2 EQ SWAP2 POP PUSH2 0x196 JUMP JUMPDEST PUSH5 0x25F1597A6 DUP2 EQ SWAP2 POP PUSH2 0x18F JUMP JUMPDEST PUSH5 0x227E5157B DUP2 EQ SWAP2 POP PUSH2 0x188 JUMP JUMPDEST PUSH5 0x1F0B49355 DUP2 EQ SWAP2 POP PUSH2 0x181 JUMP JUMPDEST PUSH5 0x1B984112F DUP2 EQ SWAP2 POP PUSH2 0x17A JUMP JUMPDEST PUSH5 0x182538F09 DUP2 EQ SWAP2 POP PUSH2 0x173 JUMP JUMPDEST PUSH5 0x14B230CE4 DUP2 EQ SWAP2 POP PUSH2 0x16C JUMP JUMPDEST PUSH5 0x113F28ABE DUP2 EQ SWAP2 POP PUSH2 0x165 JUMP JUMPDEST PUSH4 0xDCC20898 DUP2 EQ SWAP2 POP PUSH2 0x15E JUMP JUMPDEST PUSH4 0xA5918672 DUP2 EQ SWAP2 POP PUSH2 0x157 JUMP JUMPDEST PUSH4 0x6E61044C DUP2 EQ SWAP2 POP PUSH2 0x150 JUMP JUMPDEST PUSH4 0x37308226 DUP2 EQ SWAP2 POP PUSH2 0x149 JUMP JUMPDEST DUP1 ISZERO SWAP2 POP PUSH2 0x142 JUMP JUMPDEST PUSH5 0xA59186717 NOT DUP2 EQ SWAP2 POP PUSH2 0x13B JUMP JUMPDEST PUSH5 0xA9048E941 NOT DUP2 EQ SWAP2 POP PUSH2 0x134 JUMP JUMPDEST PUSH5 0xAC7796B6B NOT DUP2 EQ SWAP2 POP PUSH2 0x12D JUMP JUMPDEST PUSH5 0xAFEA9ED8B NOT DUP2 EQ SWAP2 POP PUSH2 0x126 JUMP JUMPDEST PUSH5 0xB35DA6FB5 NOT DUP2 EQ SWAP2 POP PUSH2 0x11F JUMP JUMPDEST PUSH5 0xB6D0AF1D5 NOT DUP2 EQ SWAP2 POP PUSH2 0x118 JUMP JUMPDEST PUSH5 0xBA43B73FF NOT DUP2 EQ SWAP2 POP PUSH2 0x111 JUMP JUMPDEST PUSH5 0xBDB6BF629 NOT DUP2 EQ SWAP2 POP PUSH2 0x10A JUMP JUMPDEST PUSH5 0xC129C7849 NOT DUP2 EQ SWAP2 POP PUSH2 0x103 JUMP JUMPDEST PUSH5 0xC49CCFA73 NOT DUP2 EQ SWAP2 POP PUSH2 0xFC JUMP JUMPDEST PUSH5 0xC80FD7C93 NOT DUP2 EQ SWAP2 POP PUSH2 0xF5 JUMP JUMPDEST PUSH5 0xCB82DFEBD NOT DUP2 EQ SWAP2 POP PUSH2 0xEE JUMP JUMPDEST PUSH5 0xCEF5E80E7 NOT DUP2 EQ SWAP2 POP PUSH2 0xE7 JUMP JUMPDEST PUSH5 0xD268F0307 NOT DUP2 EQ SWAP2 POP PUSH2 0xE0 JUMP JUMPDEST PUSH5 0xD5DBF8531 NOT DUP2 EQ SWAP2 POP PUSH2 0xD9 JUMP JUMPDEST PUSH5 0xD94F00751 NOT DUP2 EQ SWAP2 POP PUSH2 0xD2 JUMP JUMPDEST PUSH5 0xDCC20897B NOT DUP2 EQ SWAP2 POP PUSH2 0xCB JUMP JUMPDEST PUSH5 0xE03510BA5 NOT DUP2 EQ SWAP2 POP PUSH2 0xC4 JUMP JUMPDEST PUSH5 0xE3A818DC5 NOT DUP2 EQ SWAP2 POP PUSH2 0xBD JUMP JUMPDEST PUSH5 0xEA8E2920F NOT DUP2 EQ SWAP2 POP PUSH2 0xB6 JUMP JUMPDEST PUSH5 0xEE0131439 NOT DUP2 EQ SWAP2 POP PUSH2 0xAF JUMP JUMPDEST PUSH5 0xF17439659 NOT DUP2 EQ SWAP2 POP PUSH2 0xA8 JUMP JUMPDEST PUSH5 0xF4E741883 NOT DUP2 EQ SWAP2 POP PUSH2 0xA1 JUMP JUMPDEST PUSH5 0xF85A49AAD NOT DUP2 EQ SWAP2 POP PUSH2 0x9A JUMP JUMPDEST PUSH5 0xFBCD51CCD NOT DUP2 EQ SWAP2 POP PUSH2 0x93 JUMP JUMPDEST PUSH5 0xFF4059EF7 NOT DUP2 EQ SWAP2 POP PUSH2 0x8C JUMP JUMPDEST PUSH5 0x102B362117 NOT DUP2 EQ SWAP2 POP PUSH2 0x85 JUMP JUMPDEST PUSH5 0x106266A341 NOT DUP2 EQ SWAP2 POP PUSH2 0x7E JUMP JUMPDEST PUSH5 0x109997256B NOT DUP2 EQ SWAP2 POP PUSH2 0x77 JUMP JUMPDEST PUSH5 0x10D0C7A78B NOT DUP2 EQ SWAP2 POP PUSH2 0x70 JUMP JUMPDEST PUSH5 0x1107F829B5 NOT DUP2 EQ SWAP2 POP PUSH2 0x69 JUMP JUMPDEST PUSH5 0x113F28ABD5 NOT DUP2 EQ SWAP2 POP PUSH2 0x62 JUMP JUMPDEST PUSH5 0x11AD89B029 NOT DUP2 EQ SWAP2 POP PUSH2 0x5B JUMP JUMPDEST PUSH5 0x11E4BA3249 NOT DUP2 EQ SWAP2 POP PUSH2 0x54 JUMP JUMPDEST PUSH5 0x132FDD3F31 NOT DUP2 EQ SWAP2 POP PUSH2 0x4D JUMP JUMPDEST PUSH0 DUP1 REVERT INVALID LOG2 PUSH5 0x6970667358 0x22 SLT KECCAK256 PREVRANDAO 0x1F LOG0 DIV NUMBER PUSH28 0x596C8B56C8C100D508AB5D17040EAE5506E3DB5A03A85D8F15656473 PUSH16 0x6C634300081A0033360894A13BA1A321 MOD PUSH8 0xC828492DB98DCA3E KECCAK256 PUSH23 0xCC3735A920A3CA505D382BBC02DD7BC7DEC4DCEEDDA775 0xE5 DUP14 0xD5 COINBASE 0xE0 DUP11 GT PUSH13 0x6C53815C0BD028192F7B626800 CREATE 0xC5 PUSH31 0x16840DF040F15088DC2F81FE391C3923BEC73E23A9662EFC9C229C6A00A264 PUSH10 0x7066735822122079F307 CALLDATALOAD 0xCF 0xBE 0xB7 0xEC 0xB0 ORIGIN MSIZE 0xDD 0xAB 0xAF SWAP5 0xAF PUSH13 0x8933B6847840F18215E3778314 PUSH3 0xC6473 PUSH16 0x6C634300081A00330000000000000000 "
		},
		"gasEstimates": {
			"creation": {
				"codeDepositCost": "3095800",
				"executionCost": "infinite",
				"totalCost": "infinite"
			},
			"external": {
				"": "infinite",
				"DEFAULT_ADMIN_ROLE()": "464",
				"UPGRADER_ROLE()": "685",
				"UPGRADE_INTERFACE_VERSION()": "812",
				"conceptMapping()": "2570",
				"conceptValues()": "2416",
				"defineBulkValues(int256[],string[],string[])": "infinite",
				"defineValue(int256,string,string)": "infinite",
				"executeUpgrade(string,address)": "infinite",
				"getComponentsWithMeanings(int256)": "infinite",
				"getRoleAdmin(bytes32)": "infinite",
				"getValueOwner(int256)": "infinite",
				"getValueWithMeaning(int256)": "infinite",
				"grantRole(bytes32,address)": "33483",
				"hasRole(bytes32,address)": "infinite",
				"initialize(address,address,address,address)": "infinite",
				"isOriginalConcept(int256)": "infinite",
				"logicContract()": "2724",
				"proxiableUUID()": "infinite",
				"renounceRole(bytes32,address)": "28996",
				"revokeRole(bytes32,address)": "33876",
				"stateContract()": "2768",
				"supportsInterface(bytes4)": "269",
				"transferValueOwnership(int256,address)": "infinite",
				"upgradeToAndCall(address,bytes)": "infinite",
				"validateComponents(int256)": "infinite",
				"viewContract()": "2460"
			},
			"internal": {
				"_authorizeUpgrade(address)": "infinite",
				"_initializeSelectors()": "infinite"
			}
		},
		"methodIdentifiers": {
			"DEFAULT_ADMIN_ROLE()": "a217fddf",
			"UPGRADER_ROLE()": "f72c0d8b",
			"UPGRADE_INTERFACE_VERSION()": "ad3cb1cc",
			"conceptMapping()": "a18d9f2e",
			"conceptValues()": "3ba37052",
			"defineBulkValues(int256[],string[],string[])": "3a88179e",
			"defineValue(int256,string,string)": "e9737c8d",
			"executeUpgrade(string,address)": "279efeb3",
			"getComponentsWithMeanings(int256)": "a6dcbc35",
			"getRoleAdmin(bytes32)": "248a9ca3",
			"getValueOwner(int256)": "403371e1",
			"getValueWithMeaning(int256)": "c183e350",
			"grantRole(bytes32,address)": "2f2ff15d",
			"hasRole(bytes32,address)": "91d14854",
			"initialize(address,address,address,address)": "f8c8765e",
			"isOriginalConcept(int256)": "c9da33ec",
			"logicContract()": "cc0e97c9",
			"proxiableUUID()": "52d1902d",
			"renounceRole(bytes32,address)": "36568abe",
			"revokeRole(bytes32,address)": "d547741f",
			"stateContract()": "db5f30e1",
			"supportsInterface(bytes4)": "01ffc9a7",
			"transferValueOwnership(int256,address)": "9e95da2b",
			"upgradeToAndCall(address,bytes)": "4f1ef286",
			"validateComponents(int256)": "c2eb66f7",
			"viewContract()": "47b50349"
		}
	},
	"abi": [
		{
			"inputs": [],
			"stateMutability": "nonpayable",
			"type": "constructor"
		},
		{
			"inputs": [],
			"name": "AccessControlBadConfirmation",
			"type": "error"
		},
		{
			"inputs": [
				{
					"internalType": "address",
					"name": "account",
					"type": "address"
				},
				{
					"internalType": "bytes32",
					"name": "neededRole",
					"type": "bytes32"
				}
			],
			"name": "AccessControlUnauthorizedAccount",
			"type": "error"
		},
		{
			"inputs": [
				{
					"internalType": "address",
					"name": "target",
					"type": "address"
				}
			],
			"name": "AddressEmptyCode",
			"type": "error"
		},
		{
			"inputs": [
				{
					"internalType": "address",
					"name": "implementation",
					"type": "address"
				}
			],
			"name": "ERC1967InvalidImplementation",
			"type": "error"
		},
		{
			"inputs": [],
			"name": "ERC1967NonPayable",
			"type": "error"
		},
		{
			"inputs": [],
			"name": "FailedCall",
			"type": "error"
		},
		{
			"inputs": [],
			"name": "InvalidInitialization",
			"type": "error"
		},
		{
			"inputs": [],
			"name": "NotInitializing",
			"type": "error"
		},
		{
			"inputs": [],
			"name": "UUPSUnauthorizedCallContext",
			"type": "error"
		},
		{
			"inputs": [
				{
					"internalType": "bytes32",
					"name": "slot",
					"type": "bytes32"
				}
			],
			"name": "UUPSUnsupportedProxiableUUID",
			"type": "error"
		},
		{
			"anonymous": false,
			"inputs": [
				{
					"indexed": false,
					"internalType": "string",
					"name": "constituent",
					"type": "string"
				},
				{
					"indexed": false,
					"internalType": "address",
					"name": "impl",
					"type": "address"
				}
			],
			"name": "ContractUpgraded",
			"type": "event"
		},
		{
			"anonymous": false,
			"inputs": [
				{
					"indexed": false,
					"internalType": "uint64",
					"name": "version",
					"type": "uint64"
				}
			],
			"name": "Initialized",
			"type": "event"
		},
		{
			"anonymous": false,
			"inputs": [
				{
					"indexed": true,
					"internalType": "bytes32",
					"name": "role",
					"type": "bytes32"
				},
				{
					"indexed": true,
					"internalType": "bytes32",
					"name": "previousAdminRole",
					"type": "bytes32"
				},
				{
					"indexed": true,
					"internalType": "bytes32",
					"name": "newAdminRole",
					"type": "bytes32"
				}
			],
			"name": "RoleAdminChanged",
			"type": "event"
		},
		{
			"anonymous": false,
			"inputs": [
				{
					"indexed": true,
					"internalType": "bytes32",
					"name": "role",
					"type": "bytes32"
				},
				{
					"indexed": true,
					"internalType": "address",
					"name": "account",
					"type": "address"
				},
				{
					"indexed": true,
					"internalType": "address",
					"name": "sender",
					"type": "address"
				}
			],
			"name": "RoleGranted",
			"type": "event"
		},
		{
			"anonymous": false,
			"inputs": [
				{
					"indexed": true,
					"internalType": "bytes32",
					"name": "role",
					"type": "bytes32"
				},
				{
					"indexed": true,
					"internalType": "address",
					"name": "account",
					"type": "address"
				},
				{
					"indexed": true,
					"internalType": "address",
					"name": "sender",
					"type": "address"
				}
			],
			"name": "RoleRevoked",
			"type": "event"
		},
		{
			"anonymous": false,
			"inputs": [
				{
					"indexed": true,
					"internalType": "address",
					"name": "implementation",
					"type": "address"
				}
			],
			"name": "Upgraded",
			"type": "event"
		},
		{
			"stateMutability": "payable",
			"type": "fallback"
		},
		{
			"inputs": [],
			"name": "DEFAULT_ADMIN_ROLE",
			"outputs": [
				{
					"internalType": "bytes32",
					"name": "",
					"type": "bytes32"
				}
			],
			"stateMutability": "view",
			"type": "function"
		},
		{
			"inputs": [],
			"name": "UPGRADER_ROLE",
			"outputs": [
				{
					"internalType": "bytes32",
					"name": "",
					"type": "bytes32"
				}
			],
			"stateMutability": "view",
			"type": "function"
		},
		{
			"inputs": [],
			"name": "UPGRADE_INTERFACE_VERSION",
			"outputs": [
				{
					"internalType": "string",
					"name": "",
					"type": "string"
				}
			],
			"stateMutability": "view",
			"type": "function"
		},
		{
			"inputs": [],
			"name": "conceptMapping",
			"outputs": [
				{
					"internalType": "contract ConceptMapping",
					"name": "",
					"type": "address"
				}
			],
			"stateMutability": "view",
			"type": "function"
		},
		{
			"inputs": [],
			"name": "conceptValues",
			"outputs": [
				{
					"internalType": "contract ConceptValues",
					"name": "",
					"type": "address"
				}
			],
			"stateMutability": "view",
			"type": "function"
		},
		{
			"inputs": [
				{
					"internalType": "int256[]",
					"name": "values",
					"type": "int256[]"
				},
				{
					"internalType": "string[]",
					"name": "labels",
					"type": "string[]"
				},
				{
					"internalType": "string[]",
					"name": "descriptions",
					"type": "string[]"
				}
			],
			"name": "defineBulkValues",
			"outputs": [],
			"stateMutability": "nonpayable",
			"type": "function"
		},
		{
			"inputs": [
				{
					"internalType": "int256",
					"name": "value",
					"type": "int256"
				},
				{
					"internalType": "string",
					"name": "label",
					"type": "string"
				},
				{
					"internalType": "string",
					"name": "description",
					"type": "string"
				}
			],
			"name": "defineValue",
			"outputs": [
				{
					"components": [
						{
							"internalType": "int256",
							"name": "value",
							"type": "int256"
						},
						{
							"internalType": "string",
							"name": "label",
							"type": "string"
						},
						{
							"internalType": "string",
							"name": "description",
							"type": "string"
						},
						{
							"components": [
								{
									"internalType": "int256",
									"name": "first",
									"type": "int256"
								},
								{
									"internalType": "int256",
									"name": "second",
									"type": "int256"
								},
								{
									"internalType": "int256",
									"name": "third",
									"type": "int256"
								},
								{
									"internalType": "int256",
									"name": "result",
									"type": "int256"
								}
							],
							"internalType": "struct TripartiteComputations.TripartiteResult",
							"name": "components",
							"type": "tuple"
						},
						{
							"internalType": "address",
							"name": "owner",
							"type": "address"
						},
						{
							"internalType": "uint256",
							"name": "lastUpdated",
							"type": "uint256"
						}
					],
					"internalType": "struct TripartiteProxy.ValueWithMeaning",
					"name": "",
					"type": "tuple"
				}
			],
			"stateMutability": "nonpayable",
			"type": "function"
		},
		{
			"inputs": [
				{
					"internalType": "string",
					"name": "constituent",
					"type": "string"
				},
				{
					"internalType": "address",
					"name": "impl",
					"type": "address"
				}
			],
			"name": "executeUpgrade",
			"outputs": [],
			"stateMutability": "nonpayable",
			"type": "function"
		},
		{
			"inputs": [
				{
					"internalType": "int256",
					"name": "value",
					"type": "int256"
				}
			],
			"name": "getComponentsWithMeanings",
			"outputs": [
				{
					"components": [
						{
							"internalType": "int256",
							"name": "value",
							"type": "int256"
						},
						{
							"internalType": "string",
							"name": "label",
							"type": "string"
						},
						{
							"internalType": "string",
							"name": "description",
							"type": "string"
						},
						{
							"components": [
								{
									"internalType": "int256",
									"name": "first",
									"type": "int256"
								},
								{
									"internalType": "int256",
									"name": "second",
									"type": "int256"
								},
								{
									"internalType": "int256",
									"name": "third",
									"type": "int256"
								},
								{
									"internalType": "int256",
									"name": "result",
									"type": "int256"
								}
							],
							"internalType": "struct TripartiteComputations.TripartiteResult",
							"name": "components",
							"type": "tuple"
						},
						{
							"internalType": "address",
							"name": "owner",
							"type": "address"
						},
						{
							"internalType": "uint256",
							"name": "lastUpdated",
							"type": "uint256"
						}
					],
					"internalType": "struct TripartiteProxy.ValueWithMeaning[]",
					"name": "",
					"type": "tuple[]"
				}
			],
			"stateMutability": "view",
			"type": "function"
		},
		{
			"inputs": [
				{
					"internalType": "bytes32",
					"name": "role",
					"type": "bytes32"
				}
			],
			"name": "getRoleAdmin",
			"outputs": [
				{
					"internalType": "bytes32",
					"name": "",
					"type": "bytes32"
				}
			],
			"stateMutability": "view",
			"type": "function"
		},
		{
			"inputs": [
				{
					"internalType": "int256",
					"name": "value",
					"type": "int256"
				}
			],
			"name": "getValueOwner",
			"outputs": [
				{
					"internalType": "address",
					"name": "",
					"type": "address"
				}
			],
			"stateMutability": "view",
			"type": "function"
		},
		{
			"inputs": [
				{
					"internalType": "int256",
					"name": "value",
					"type": "int256"
				}
			],
			"name": "getValueWithMeaning",
			"outputs": [
				{
					"components": [
						{
							"internalType": "int256",
							"name": "value",
							"type": "int256"
						},
						{
							"internalType": "string",
							"name": "label",
							"type": "string"
						},
						{
							"internalType": "string",
							"name": "description",
							"type": "string"
						},
						{
							"components": [
								{
									"internalType": "int256",
									"name": "first",
									"type": "int256"
								},
								{
									"internalType": "int256",
									"name": "second",
									"type": "int256"
								},
								{
									"internalType": "int256",
									"name": "third",
									"type": "int256"
								},
								{
									"internalType": "int256",
									"name": "result",
									"type": "int256"
								}
							],
							"internalType": "struct TripartiteComputations.TripartiteResult",
							"name": "components",
							"type": "tuple"
						},
						{
							"internalType": "address",
							"name": "owner",
							"type": "address"
						},
						{
							"internalType": "uint256",
							"name": "lastUpdated",
							"type": "uint256"
						}
					],
					"internalType": "struct TripartiteProxy.ValueWithMeaning",
					"name": "",
					"type": "tuple"
				}
			],
			"stateMutability": "view",
			"type": "function"
		},
		{
			"inputs": [
				{
					"internalType": "bytes32",
					"name": "role",
					"type": "bytes32"
				},
				{
					"internalType": "address",
					"name": "account",
					"type": "address"
				}
			],
			"name": "grantRole",
			"outputs": [],
			"stateMutability": "nonpayable",
			"type": "function"
		},
		{
			"inputs": [
				{
					"internalType": "bytes32",
					"name": "role",
					"type": "bytes32"
				},
				{
					"internalType": "address",
					"name": "account",
					"type": "address"
				}
			],
			"name": "hasRole",
			"outputs": [
				{
					"internalType": "bool",
					"name": "",
					"type": "bool"
				}
			],
			"stateMutability": "view",
			"type": "function"
		},
		{
			"inputs": [
				{
					"internalType": "address",
					"name": "_logicContract",
					"type": "address"
				},
				{
					"internalType": "address",
					"name": "_stateContract",
					"type": "address"
				},
				{
					"internalType": "address",
					"name": "_viewContract",
					"type": "address"
				},
				{
					"internalType": "address",
					"name": "admin",
					"type": "address"
				}
			],
			"name": "initialize",
			"outputs": [],
			"stateMutability": "nonpayable",
			"type": "function"
		},
		{
			"inputs": [
				{
					"internalType": "int256",
					"name": "value",
					"type": "int256"
				}
			],
			"name": "isOriginalConcept",
			"outputs": [
				{
					"internalType": "bool",
					"name": "",
					"type": "bool"
				}
			],
			"stateMutability": "pure",
			"type": "function"
		},
		{
			"inputs": [],
			"name": "logicContract",
			"outputs": [
				{
					"internalType": "address",
					"name": "",
					"type": "address"
				}
			],
			"stateMutability": "view",
			"type": "function"
		},
		{
			"inputs": [],
			"name": "proxiableUUID",
			"outputs": [
				{
					"internalType": "bytes32",
					"name": "",
					"type": "bytes32"
				}
			],
			"stateMutability": "view",
			"type": "function"
		},
		{
			"inputs": [
				{
					"internalType": "bytes32",
					"name": "role",
					"type": "bytes32"
				},
				{
					"internalType": "address",
					"name": "callerConfirmation",
					"type": "address"
				}
			],
			"name": "renounceRole",
			"outputs": [],
			"stateMutability": "nonpayable",
			"type": "function"
		},
		{
			"inputs": [
				{
					"internalType": "bytes32",
					"name": "role",
					"type": "bytes32"
				},
				{
					"internalType": "address",
					"name": "account",
					"type": "address"
				}
			],
			"name": "revokeRole",
			"outputs": [],
			"stateMutability": "nonpayable",
			"type": "function"
		},
		{
			"inputs": [],
			"name": "stateContract",
			"outputs": [
				{
					"internalType": "address",
					"name": "",
					"type": "address"
				}
			],
			"stateMutability": "view",
			"type": "function"
		},
		{
			"inputs": [
				{
					"internalType": "bytes4",
					"name": "interfaceId",
					"type": "bytes4"
				}
			],
			"name": "supportsInterface",
			"outputs": [
				{
					"internalType": "bool",
					"name": "",
					"type": "bool"
				}
			],
			"stateMutability": "view",
			"type": "function"
		},
		{
			"inputs": [
				{
					"internalType": "int256",
					"name": "value",
					"type": "int256"
				},
				{
					"internalType": "address",
					"name": "newOwner",
					"type": "address"
				}
			],
			"name": "transferValueOwnership",
			"outputs": [],
			"stateMutability": "nonpayable",
			"type": "function"
		},
		{
			"inputs": [
				{
					"internalType": "address",
					"name": "newImplementation",
					"type": "address"
				},
				{
					"internalType": "bytes",
					"name": "data",
					"type": "bytes"
				}
			],
			"name": "upgradeToAndCall",
			"outputs": [],
			"stateMutability": "payable",
			"type": "function"
		},
		{
			"inputs": [
				{
					"internalType": "int256",
					"name": "value",
					"type": "int256"
				}
			],
			"name": "validateComponents",
			"outputs": [
				{
					"internalType": "bool",
					"name": "",
					"type": "bool"
				}
			],
			"stateMutability": "pure",
			"type": "function"
		},
		{
			"inputs": [],
			"name": "viewContract",
			"outputs": [
				{
					"internalType": "address",
					"name": "",
					"type": "address"
				}
			],
			"stateMutability": "view",
			"type": "function"
		},
		{
			"stateMutability": "payable",
			"type": "receive"
		}
	]
}