{
	"data": {
		"bytecode": {
			"linkReferences": {},
			"object": "61290461004e600b8282823980515f1a607314610042577f4e487b71000000000000000000000000000000000000000000000000000000005f525f60045260245ffd5b305f52607381538281f3fe730000000000000000000000000000000000000000301460806040526004361061004a575f3560e01c806378c9c4371461004e578063da83723414610080578063f9b0da80146100b0575b5f80fd5b610068600480360381019061006391906126df565b6100e0565b60405161007793929190612719565b60405180910390f35b61009a6004803603810190610095919061274e565b61010b565b6040516100a791906127cc565b60405180910390f35b6100ca60048036038101906100c591906126df565b61012f565b6040516100d79190612847565b60405180910390f35b5f805f806100ed8561012f565b9050805f015181602001518260400151935093509350509193909250565b5f8183858761011a919061288d565b610124919061288d565b149050949350505050565b610137612684565b61013f612684565b82816060018181525050633730822683036101bb576403e16926ae815f0181815250507ffffffffffffffffffffffffffffffffffffffffffffffffffffffffe0f4b6cab8160200181815250507ffffffffffffffffffffffffffffffffffffffffffffffffffffffffe467beed181604001818152505061267b565b636e61044c830361022d577ffffffffffffffffffffffffffffffffffffffffffffffffffffffffe7dac70f7815f0181815250507ffffffffffffffffffffffffffffffffffffffffffffffffffffffffeb4dcf31c81602001818152505064033bd7a03a81604001818152505061267a565b63a5918672830361029f5764037308225a815f0181815250507ffffffffffffffffffffffffffffffffffffffffffffffffffffffffe7dac70f78160200181815250507ffffffffffffffffffffffffffffffffffffffffffffffffffffffffeb4dcf31c816040018181525050612679565b63dcc208988303610311577ffffffffffffffffffffffffffffffffffffffffffffffffffffffffeec0d7542815f0181815250507fffffffffffffffffffffffffffffffffffffffffffffffffffffffff233df7688160200181815250506402cd769bf0816040018181525050612678565b640113f28abe830361038457640304a71e10815f0181815250507ffffffffffffffffffffffffffffffffffffffffffffffffffffffffeec0d75428160200181815250507fffffffffffffffffffffffffffffffffffffffffffffffffffffffff233df768816040018181525050612677565b64014b230ce483036103f7577fffffffffffffffffffffffffffffffffffffffffffffffffffffffff5a6e798e815f0181815250507fffffffffffffffffffffffffffffffffffffffffffffffffffffffff919efbb481602001818152505064025f1597a6816040018181525050612676565b640182538f09830361046a576402964619c6815f0181815250507fffffffffffffffffffffffffffffffffffffffffffffffffffffffff5a6e798e8160200181815250507fffffffffffffffffffffffffffffffffffffffffffffffffffffffff919efbb4816040018181525050612675565b6401b984112f83036104bd577fffffffffffffffffffffffffffffffffffffffffffffffffffffffffc8cf7dda815f0181815250505f8160200181815250506401f0b49355816040018181525050612674565b6401f0b49355830361051057640227e5157b815f0181815250507fffffffffffffffffffffffffffffffffffffffffffffffffffffffffc8cf7dda8160200181815250505f816040018181525050612673565b640227e5157b830361054b576337308226815f018181525050636e61044c816020018181525050640182538f09816040018181525050612672565b64025f1597a68303610586576401b984112f815f0181815250506337308226816020018181525050636e61044c816040018181525050612671565b6402964619c683036105c15763a5918672815f01818152505063dcc20898816020018181525050640113f28abe816040018181525050612670565b6402cd769bf083036105fc5764014b230ce4815f01818152505063a591867281602001818152505063dcc2089881604001818152505061266f565b640304a71e10830361063857640113f28abe815f01818152505064014b230ce481602001818152505063a591867281604001818152505061266e565b64033bd7a03a83036106745763dcc20898815f018181525050640113f28abe81602001818152505064014b230ce481604001818152505061266d565b64037308225a83036106b057640182538f09815f0181815250506401b984112f816020018181525050633730822681604001818152505061266c565b6403aa38a48483036106ec57636e61044c815f018181525050640182538f098160200181815250506401b984112f81604001818152505061266b565b6403e16926ae8303610744576401f0b49355815f018181525050640227e5157b8160200181815250507fffffffffffffffffffffffffffffffffffffffffffffffffffffffffc8cf7dda81604001818152505061266a565b64041899a8ce830361077c575f815f0181815250506401f0b49355816020018181525050640227e5157b816040018181525050612669565b64044fca2af883036107d45764025f1597a6815f0181815250506402964619c68160200181815250507fffffffffffffffffffffffffffffffffffffffffffffffffffffffff5a6e798e816040018181525050612668565b640486faad18830361082c577fffffffffffffffffffffffffffffffffffffffffffffffffffffffff919efbb4815f01818152505064025f1597a68160200181815250506402964619c6816040018181525050612667565b6404be2b2f428303610884576402cd769bf0815f018181525050640304a71e108160200181815250507ffffffffffffffffffffffffffffffffffffffffffffffffffffffffeec0d7542816040018181525050612666565b6404f55bb16c83036108dc577fffffffffffffffffffffffffffffffffffffffffffffffffffffffff233df768815f0181815250506402cd769bf0816020018181525050640304a71e10816040018181525050612665565b64052c8c338c83036109345764033bd7a03a815f01818152505064037308225a8160200181815250507ffffffffffffffffffffffffffffffffffffffffffffffffffffffffe7dac70f7816040018181525050612664565b640563bcb5b6830361098c577ffffffffffffffffffffffffffffffffffffffffffffffffffffffffeb4dcf31c815f01818152505064033bd7a03a81602001818152505064037308225a816040018181525050612663565b64059aed37d683036109e4576403aa38a484815f0181815250506403e16926ae8160200181815250507ffffffffffffffffffffffffffffffffffffffffffffffffffffffffe0f4b6cab816040018181525050612662565b6405d21dba008303610a3c577ffffffffffffffffffffffffffffffffffffffffffffffffffffffffe467beed1815f0181815250506403aa38a4848160200181815250506403e16926ae816040018181525050612661565b6406094e3c2a8303610a945764041899a8ce815f01818152505064044fca2af88160200181815250507ffffffffffffffffffffffffffffffffffffffffffffffffffffffffda0ea685a816040018181525050612660565b6406407ebe4a8303610aec577ffffffffffffffffffffffffffffffffffffffffffffffffffffffffdd81aea85815f01818152505064041899a8ce81602001818152505064044fca2af881604001818152505061265f565b640677af40748303610b4457640486faad18815f0181815250506404be2b2f428160200181815250507ffffffffffffffffffffffffffffffffffffffffffffffffffffffffd3289641081604001818152505061265e565b6406aedfc2948303610b9c577ffffffffffffffffffffffffffffffffffffffffffffffffffffffffd69b9e63a815f018181525050640486faad188160200181815250506404be2b2f4281604001818152505061265d565b6406e61044be8303610bf4576404f55bb16c815f01818152505064052c8c338c8160200181815250507ffffffffffffffffffffffffffffffffffffffffffffffffffffffffcc4285fc681604001818152505061265c565b64071d40c6e88303610c4c577ffffffffffffffffffffffffffffffffffffffffffffffffffffffffcfb58e1f0815f0181815250506404f55bb16c81602001818152505064052c8c338c81604001818152505061265b565b6407547149088303610ca457640563bcb5b6815f01818152505064059aed37d68160200181815250507ffffffffffffffffffffffffffffffffffffffffffffffffffffffffc55c75b7c81604001818152505061265a565b64078ba1cb328303610cfc577ffffffffffffffffffffffffffffffffffffffffffffffffffffffffc8cf7dda6815f018181525050640563bcb5b681602001818152505064059aed37d6816040018181525050612659565b6407c2d24d528303610d54576405d21dba00815f0181815250506406094e3c2a8160200181815250507ffffffffffffffffffffffffffffffffffffffffffffffffffffffffbe7665732816040018181525050612658565b6407fa02cf7c8303610dac577ffffffffffffffffffffffffffffffffffffffffffffffffffffffffc1e96d952815f0181815250506405d21dba008160200181815250506406094e3c2a816040018181525050612657565b6408313351a68303610e04576406407ebe4a815f018181525050640677af40748160200181815250507ffffffffffffffffffffffffffffffffffffffffffffffffffffffffb790552e8816040018181525050612656565b64086863d3c68303610e5c577ffffffffffffffffffffffffffffffffffffffffffffffffffffffffbb035d508815f0181815250506406407ebe4a816020018181525050640677af4074816040018181525050612655565b64089f9455f08303610eb4576406aedfc294815f0181815250506406e61044be8160200181815250507ffffffffffffffffffffffffffffffffffffffffffffffffffffffffb0aa44e94816040018181525050612654565b6408d6c4d8108303610f0c577ffffffffffffffffffffffffffffffffffffffffffffffffffffffffb41d4d0be815f0181815250506406aedfc2948160200181815250506406e61044be816040018181525050612653565b64090df55a3a8303610f645764071d40c6e8815f0181815250506407547149088160200181815250507ffffffffffffffffffffffffffffffffffffffffffffffffffffffffa9c434a4a816040018181525050612652565b64094525dc5a8303610fbc577ffffffffffffffffffffffffffffffffffffffffffffffffffffffffad373cc74815f01818152505064071d40c6e8816020018181525050640754714908816040018181525050612651565b64097c565e8483036110145764078ba1cb32815f0181815250506407c2d24d528160200181815250507ffffffffffffffffffffffffffffffffffffffffffffffffffffffffa2de24600816040018181525050612650565b6409b386e0ae830361106c577ffffffffffffffffffffffffffffffffffffffffffffffffffffffffa6512c82a815f01818152505064078ba1cb328160200181815250506407c2d24d5281604001818152505061264f565b6409eab762ce83036110c4576407fa02cf7c815f0181815250506408313351a68160200181815250507ffffffffffffffffffffffffffffffffffffffffffffffffffffffff9bf8141b681604001818152505061264e565b640a21e7e4f8830361111c577ffffffffffffffffffffffffffffffffffffffffffffffffffffffff9f6b1c3d6815f0181815250506407fa02cf7c8160200181815250506408313351a681604001818152505061264d565b640a5918671883036111745764086863d3c6815f01818152505064089f9455f08160200181815250507ffffffffffffffffffffffffffffffffffffffffffffffffffffffff951203d6c81604001818152505061264c565b640a9048e94283036111cc577ffffffffffffffffffffffffffffffffffffffffffffffffffffffff98850bf8c815f01818152505064086863d3c681602001818152505064089f9455f081604001818152505061264b565b640ac7796b6c8303611224576408d6c4d810815f01818152505064090df55a3a8160200181815250507ffffffffffffffffffffffffffffffffffffffffffffffffffffffff8e2bf391881604001818152505061264a565b640afea9ed8c830361127c577ffffffffffffffffffffffffffffffffffffffffffffffffffffffff919efbb42815f0181815250506408d6c4d81081602001818152505064090df55a3a816040018181525050612649565b640b35da6fb683036112d45764094525dc5a815f01818152505064097c565e848160200181815250507ffffffffffffffffffffffffffffffffffffffffffffffffffffffff8745e34ce816040018181525050612648565b640b6d0af1d6830361132c577ffffffffffffffffffffffffffffffffffffffffffffffffffffffff8ab8eb6f8815f01818152505064094525dc5a81602001818152505064097c565e84816040018181525050612647565b640ba43b74008303611384576409b386e0ae815f0181815250506409eab762ce8160200181815250507ffffffffffffffffffffffffffffffffffffffffffffffffffffffff805fd3084816040018181525050612646565b640bdb6bf62a83036113dc577ffffffffffffffffffffffffffffffffffffffffffffffffffffffff83d2db2ae815f0181815250506409b386e0ae8160200181815250506409eab762ce816040018181525050612645565b640c129c784a830361143457640a21e7e4f8815f018181525050640a591867188160200181815250507ffffffffffffffffffffffffffffffffffffffffffffffffffffffff7979c2c3a816040018181525050612644565b640c49ccfa74830361148c577ffffffffffffffffffffffffffffffffffffffffffffffffffffffff7ceccae5a815f018181525050640a21e7e4f8816020018181525050640a59186718816040018181525050612643565b640c80fd7c9483036114e457640a9048e942815f018181525050640ac7796b6c8160200181815250507ffffffffffffffffffffffffffffffffffffffffffffffffffffffff7293b27f0816040018181525050612642565b640cb82dfebe830361153c577ffffffffffffffffffffffffffffffffffffffffffffffffffffffff7606baa10815f018181525050640a9048e942816020018181525050640ac7796b6c816040018181525050612641565b640cef5e80e8830361159457640afea9ed8c815f018181525050640b35da6fb68160200181815250507ffffffffffffffffffffffffffffffffffffffffffffffffffffffff6bada23a6816040018181525050612640565b640d268f030883036115ec577ffffffffffffffffffffffffffffffffffffffffffffffffffffffff6f20aa5c6815f018181525050640afea9ed8c816020018181525050640b35da6fb681604001818152505061263f565b640d5dbf8532830361164457640b6d0af1d6815f018181525050640ba43b74008160200181815250507ffffffffffffffffffffffffffffffffffffffffffffffffffffffff64c791f5281604001818152505061263e565b640d94f00752830361169c577ffffffffffffffffffffffffffffffffffffffffffffffffffffffff683a9a17c815f018181525050640b6d0af1d6816020018181525050640ba43b740081604001818152505061263d565b640dcc20897c83036116f457640bdb6bf62a815f018181525050640c129c784a8160200181815250507ffffffffffffffffffffffffffffffffffffffffffffffffffffffff5de181b0881604001818152505061263c565b640e03510ba6830361174c577ffffffffffffffffffffffffffffffffffffffffffffffffffffffff615489d32815f018181525050640bdb6bf62a816020018181525050640c129c784a81604001818152505061263b565b640e3a818dc683036117a457640c49ccfa74815f018181525050640c80fd7c948160200181815250507ffffffffffffffffffffffffffffffffffffffffffffffffffffffff56fb716be81604001818152505061263a565b640e71b20ff083036117fc577ffffffffffffffffffffffffffffffffffffffffffffffffffffffff5a6e798e8815f018181525050640c49ccfa74816020018181525050640c80fd7c94816040018181525050612639565b640ea8e29210830361185457640cb82dfebe815f018181525050640cef5e80e88160200181815250507ffffffffffffffffffffffffffffffffffffffffffffffffffffffff501561274816040018181525050612638565b640ee013143a83036118ac577ffffffffffffffffffffffffffffffffffffffffffffffffffffffff538869494815f018181525050640cb82dfebe816020018181525050640cef5e80e8816040018181525050612637565b640f1743965a830361190457640d268f0308815f018181525050640d5dbf85328160200181815250507ffffffffffffffffffffffffffffffffffffffffffffffffffffffff492f50e2a816040018181525050612636565b640f4e741884830361195c577ffffffffffffffffffffffffffffffffffffffffffffffffffffffff4ca25904a815f018181525050640d268f0308816020018181525050640d5dbf8532816040018181525050612635565b640f85a49aae83036119b457640d94f00752815f018181525050640dcc20897c8160200181815250507ffffffffffffffffffffffffffffffffffffffffffffffffffffffff4249409d6816040018181525050612634565b640fbcd51cce8303611a0c577ffffffffffffffffffffffffffffffffffffffffffffffffffffffff45bc48c00815f018181525050640d94f00752816020018181525050640dcc20897c816040018181525050612633565b640ff4059ef88303611a6457640e03510ba6815f018181525050640e3a818dc68160200181815250507ffffffffffffffffffffffffffffffffffffffffffffffffffffffff3b633058c816040018181525050612632565b64102b3621188303611abc577ffffffffffffffffffffffffffffffffffffffffffffffffffffffff3ed6387b6815f018181525050640e03510ba6816020018181525050640e3a818dc6816040018181525050612631565b64106266a3428303611b1457640e71b20ff0815f018181525050640ea8e292108160200181815250507ffffffffffffffffffffffffffffffffffffffffffffffffffffffff347d20142816040018181525050612630565b64109997256c8303611b6c577ffffffffffffffffffffffffffffffffffffffffffffffffffffffff37f02836c815f018181525050640e71b20ff0816020018181525050640ea8e2921081604001818152505061262f565b6410d0c7a78c8303611bc457640ee013143a815f018181525050640f1743965a8160200181815250507ffffffffffffffffffffffffffffffffffffffffffffffffffffffff2d970fcf881604001818152505061262e565b641107f829b68303611c1c577ffffffffffffffffffffffffffffffffffffffffffffffffffffffff310a17f18815f018181525050640ee013143a816020018181525050640f1743965a81604001818152505061262d565b64113f28abd68303611c7457640f4e741884815f018181525050640f85a49aae8160200181815250507ffffffffffffffffffffffffffffffffffffffffffffffffffffffff26b0ff8ae81604001818152505061262c565b641176592e008303611ccc577ffffffffffffffffffffffffffffffffffffffffffffffffffffffff2a2407ace815f018181525050640f4e741884816020018181525050640f85a49aae81604001818152505061262b565b6411ad89b02a8303611d2457640fbcd51cce815f018181525050640ff4059ef88160200181815250507ffffffffffffffffffffffffffffffffffffffffffffffffffffffff1fcaef45a81604001818152505061262a565b6411e4ba324a8303611d7c577ffffffffffffffffffffffffffffffffffffffffffffffffffffffff233df7684815f018181525050640fbcd51cce816020018181525050640ff4059ef8816040018181525050612629565b64121beab4748303611dd45764102b362118815f01818152505064106266a3428160200181815250507ffffffffffffffffffffffffffffffffffffffffffffffffffffffff18e4df010816040018181525050612628565b6412531b36948303611e2c577ffffffffffffffffffffffffffffffffffffffffffffffffffffffff1c57e723a815f01818152505064102b36211881602001818152505064106266a342816040018181525050612627565b64128a4bb8be8303611e845764109997256c815f0181815250506410d0c7a78c8160200181815250507ffffffffffffffffffffffffffffffffffffffffffffffffffffffff11fecebc6816040018181525050612626565b6412c17c3ae88303611edc577ffffffffffffffffffffffffffffffffffffffffffffffffffffffff1571d6df0815f01818152505064109997256c8160200181815250506410d0c7a78c816040018181525050612625565b6412f8acbd088303611f3457641107f829b6815f01818152505064113f28abd68160200181815250507ffffffffffffffffffffffffffffffffffffffffffffffffffffffff0b18be77c816040018181525050612624565b64132fdd3f328303611f8c577ffffffffffffffffffffffffffffffffffffffffffffffffffffffff0e8bc69a6815f018181525050641107f829b681602001818152505064113f28abd6816040018181525050612623565b6413670dc1528303611fe457641176592e00815f0181815250506411ad89b02a8160200181815250507ffffffffffffffffffffffffffffffffffffffffffffffffffffffff0432ae332816040018181525050612622565b64139e3e437c830361203c577ffffffffffffffffffffffffffffffffffffffffffffffffffffffff07a5b6552815f018181525050641176592e008160200181815250506411ad89b02a816040018181525050612621565b6413d56ec5a68303612094576411e4ba324a815f01818152505064121beab4748160200181815250507fffffffffffffffffffffffffffffffffffffffffffffffffffffffefd4c9dee8816040018181525050612620565b64140c9f47c683036120ec577ffffffffffffffffffffffffffffffffffffffffffffffffffffffff00bfa6108815f0181815250506411e4ba324a81602001818152505064121beab47481604001818152505061261f565b641443cfc9f08303612144576412531b3694815f01818152505064128a4bb8be8160200181815250507fffffffffffffffffffffffffffffffffffffffffffffffffffffffef6668da9481604001818152505061261e565b64147b004c10830361219c577fffffffffffffffffffffffffffffffffffffffffffffffffffffffef9d995cbe815f0181815250506412531b369481602001818152505064128a4bb8be81604001818152505061261d565b6414b230ce3a83036121f4576412c17c3ae8815f0181815250506412f8acbd088160200181815250507fffffffffffffffffffffffffffffffffffffffffffffffffffffffeef807d64a81604001818152505061261c565b6414e961505a830361224c577fffffffffffffffffffffffffffffffffffffffffffffffffffffffef2f385874815f0181815250506412c17c3ae88160200181815250506412f8acbd0881604001818152505061261b565b64152091d28483036122a45764132fdd3f32815f0181815250506413670dc1528160200181815250507fffffffffffffffffffffffffffffffffffffffffffffffffffffffee89a6d20081604001818152505061261a565b641557c254ae83036122fc577fffffffffffffffffffffffffffffffffffffffffffffffffffffffeec0d7542a815f01818152505064132fdd3f328160200181815250506413670dc152816040018181525050612619565b64158ef2d6ce83036123545764139e3e437c815f0181815250506413d56ec5a68160200181815250507fffffffffffffffffffffffffffffffffffffffffffffffffffffffee1b45cdb6816040018181525050612618565b6415c62358f883036123ac577fffffffffffffffffffffffffffffffffffffffffffffffffffffffee52764fd6815f01818152505064139e3e437c8160200181815250506413d56ec5a6816040018181525050612617565b6415fd53db1883036124045764140c9f47c6815f018181525050641443cfc9f08160200181815250507fffffffffffffffffffffffffffffffffffffffffffffffffffffffedace4c96c816040018181525050612616565b641634845d42830361245c577fffffffffffffffffffffffffffffffffffffffffffffffffffffffede4154b8c815f01818152505064140c9f47c6816020018181525050641443cfc9f0816040018181525050612615565b64166bb4df6c83036124b45764147b004c10815f0181815250506414b230ce3a8160200181815250507fffffffffffffffffffffffffffffffffffffffffffffffffffffffed3e83c518816040018181525050612614565b6416a2e5618c830361250c577fffffffffffffffffffffffffffffffffffffffffffffffffffffffed75b44742815f01818152505064147b004c108160200181815250506414b230ce3a816040018181525050612613565b6416da15e3b68303612564576414e961505a815f01818152505064152091d2848160200181815250507fffffffffffffffffffffffffffffffffffffffffffffffffffffffecd022c0ce816040018181525050612612565b6417114665d683036125bc577fffffffffffffffffffffffffffffffffffffffffffffffffffffffed075342f8815f0181815250506414e961505a81602001818152505064152091d284816040018181525050612611565b64174876e800830361261057641557c254ae815f01818152505064158ef2d6ce8160200181815250507fffffffffffffffffffffffffffffffffffffffffffffffffffffffec61c1bc848160400181815250505b5b5b5b5b5b5b5b5b5b5b5b5b5b5b5b5b5b5b5b5b5b5b5b5b5b5b5b5b5b5b5b5b5b5b5b5b5b5b5b5b5b5b5b5b5b5b5b5b5b5b5b5b5b5b5b5b5b5b5b5b5b5b5b5b5b5b5b5b5b5b5b5b5b5b5b5b5b5b5b5b5b5b5b5b5b5b5b5b5b5b5b5b5b5b5b5b5b5b5b5b5b5b5b5b5b5b5b80915050919050565b60405180608001604052805f81526020015f81526020015f81526020015f81525090565b5f80fd5b5f819050919050565b6126be816126ac565b81146126c8575f80fd5b50565b5f813590506126d9816126b5565b92915050565b5f602082840312156126f4576126f36126a8565b5b5f612701848285016126cb565b91505092915050565b612713816126ac565b82525050565b5f60608201905061272c5f83018661270a565b612739602083018561270a565b612746604083018461270a565b949350505050565b5f805f8060808587031215612766576127656126a8565b5b5f612773878288016126cb565b9450506020612784878288016126cb565b9350506040612795878288016126cb565b92505060606127a6878288016126cb565b91505092959194509250565b5f8115159050919050565b6127c6816127b2565b82525050565b5f6020820190506127df5f8301846127bd565b92915050565b6127ee816126ac565b82525050565b608082015f8201516128085f8501826127e5565b50602082015161281b60208501826127e5565b50604082015161282e60408501826127e5565b50606082015161284160608501826127e5565b50505050565b5f60808201905061285a5f8301846127f4565b92915050565b7f4e487b71000000000000000000000000000000000000000000000000000000005f52601160045260245ffd5b5f612897826126ac565b91506128a2836126ac565b92508282019050828112155f8312168382125f8412151617156128c8576128c7612860565b5b9291505056fea26469706673582212206cf66971e03e17ec5479ccfec29293daa04ec9bb4bc0dd8f918f0f80308aab3064736f6c63430008140033",
			"opcodes": "PUSH2 0x2904 PUSH2 0x4E PUSH1 0xB DUP3 DUP3 DUP3 CODECOPY DUP1 MLOAD PUSH0 BYTE PUSH1 0x73 EQ PUSH2 0x42 JUMPI PUSH32 0x4E487B7100000000000000000000000000000000000000000000000000000000 PUSH0 MSTORE PUSH0 PUSH1 0x4 MSTORE PUSH1 0x24 PUSH0 REVERT JUMPDEST ADDRESS PUSH0 MSTORE PUSH1 0x73 DUP2 MSTORE8 DUP3 DUP2 RETURN INVALID PUSH20 0x0 ADDRESS EQ PUSH1 0x80 PUSH1 0x40 MSTORE PUSH1 0x4 CALLDATASIZE LT PUSH2 0x4A JUMPI PUSH0 CALLDATALOAD PUSH1 0xE0 SHR DUP1 PUSH4 0x78C9C437 EQ PUSH2 0x4E JUMPI DUP1 PUSH4 0xDA837234 EQ PUSH2 0x80 JUMPI DUP1 PUSH4 0xF9B0DA80 EQ PUSH2 0xB0 JUMPI JUMPDEST PUSH0 DUP1 REVERT JUMPDEST PUSH2 0x68 PUSH1 0x4 DUP1 CALLDATASIZE SUB DUP2 ADD SWAP1 PUSH2 0x63 SWAP2 SWAP1 PUSH2 0x26DF JUMP JUMPDEST PUSH2 0xE0 JUMP JUMPDEST PUSH1 0x40 MLOAD PUSH2 0x77 SWAP4 SWAP3 SWAP2 SWAP1 PUSH2 0x2719 JUMP JUMPDEST PUSH1 0x40 MLOAD DUP1 SWAP2 SUB SWAP1 RETURN JUMPDEST PUSH2 0x9A PUSH1 0x4 DUP1 CALLDATASIZE SUB DUP2 ADD SWAP1 PUSH2 0x95 SWAP2 SWAP1 PUSH2 0x274E JUMP JUMPDEST PUSH2 0x10B JUMP JUMPDEST PUSH1 0x40 MLOAD PUSH2 0xA7 SWAP2 SWAP1 PUSH2 0x27CC JUMP JUMPDEST PUSH1 0x40 MLOAD DUP1 SWAP2 SUB SWAP1 RETURN JUMPDEST PUSH2 0xCA PUSH1 0x4 DUP1 CALLDATASIZE SUB DUP2 ADD SWAP1 PUSH2 0xC5 SWAP2 SWAP1 PUSH2 0x26DF JUMP JUMPDEST PUSH2 0x12F JUMP JUMPDEST PUSH1 0x40 MLOAD PUSH2 0xD7 SWAP2 SWAP1 PUSH2 0x2847 JUMP JUMPDEST PUSH1 0x40 MLOAD DUP1 SWAP2 SUB SWAP1 RETURN JUMPDEST PUSH0 DUP1 PUSH0 DUP1 PUSH2 0xED DUP6 PUSH2 0x12F JUMP JUMPDEST SWAP1 POP DUP1 PUSH0 ADD MLOAD DUP2 PUSH1 0x20 ADD MLOAD DUP3 PUSH1 0x40 ADD MLOAD SWAP4 POP SWAP4 POP SWAP4 POP POP SWAP2 SWAP4 SWAP1 SWAP3 POP JUMP JUMPDEST PUSH0 DUP2 DUP4 DUP6 DUP8 PUSH2 0x11A SWAP2 SWAP1 PUSH2 0x288D JUMP JUMPDEST PUSH2 0x124 SWAP2 SWAP1 PUSH2 0x288D JUMP JUMPDEST EQ SWAP1 POP SWAP5 SWAP4 POP POP POP POP JUMP JUMPDEST PUSH2 0x137 PUSH2 0x2684 JUMP JUMPDEST PUSH2 0x13F PUSH2 0x2684 JUMP JUMPDEST DUP3 DUP2 PUSH1 0x60 ADD DUP2 DUP2 MSTORE POP POP PUSH4 0x37308226 DUP4 SUB PUSH2 0x1BB JUMPI PUSH5 0x3E16926AE DUP2 PUSH0 ADD DUP2 DUP2 MSTORE POP POP PUSH32 0xFFFFFFFFFFFFFFFFFFFFFFFFFFFFFFFFFFFFFFFFFFFFFFFFFFFFFFFE0F4B6CAB DUP2 PUSH1 0x20 ADD DUP2 DUP2 MSTORE POP POP PUSH32 0xFFFFFFFFFFFFFFFFFFFFFFFFFFFFFFFFFFFFFFFFFFFFFFFFFFFFFFFE467BEED1 DUP2 PUSH1 0x40 ADD DUP2 DUP2 MSTORE POP POP PUSH2 0x267B JUMP JUMPDEST PUSH4 0x6E61044C DUP4 SUB PUSH2 0x22D JUMPI PUSH32 0xFFFFFFFFFFFFFFFFFFFFFFFFFFFFFFFFFFFFFFFFFFFFFFFFFFFFFFFE7DAC70F7 DUP2 PUSH0 ADD DUP2 DUP2 MSTORE POP POP PUSH32 0xFFFFFFFFFFFFFFFFFFFFFFFFFFFFFFFFFFFFFFFFFFFFFFFFFFFFFFFEB4DCF31C DUP2 PUSH1 0x20 ADD DUP2 DUP2 MSTORE POP POP PUSH5 0x33BD7A03A DUP2 PUSH1 0x40 ADD DUP2 DUP2 MSTORE POP POP PUSH2 0x267A JUMP JUMPDEST PUSH4 0xA5918672 DUP4 SUB PUSH2 0x29F JUMPI PUSH5 0x37308225A DUP2 PUSH0 ADD DUP2 DUP2 MSTORE POP POP PUSH32 0xFFFFFFFFFFFFFFFFFFFFFFFFFFFFFFFFFFFFFFFFFFFFFFFFFFFFFFFE7DAC70F7 DUP2 PUSH1 0x20 ADD DUP2 DUP2 MSTORE POP POP PUSH32 0xFFFFFFFFFFFFFFFFFFFFFFFFFFFFFFFFFFFFFFFFFFFFFFFFFFFFFFFEB4DCF31C DUP2 PUSH1 0x40 ADD DUP2 DUP2 MSTORE POP POP PUSH2 0x2679 JUMP JUMPDEST PUSH4 0xDCC20898 DUP4 SUB PUSH2 0x311 JUMPI PUSH32 0xFFFFFFFFFFFFFFFFFFFFFFFFFFFFFFFFFFFFFFFFFFFFFFFFFFFFFFFEEC0D7542 DUP2 PUSH0 ADD DUP2 DUP2 MSTORE POP POP PUSH32 0xFFFFFFFFFFFFFFFFFFFFFFFFFFFFFFFFFFFFFFFFFFFFFFFFFFFFFFFF233DF768 DUP2 PUSH1 0x20 ADD DUP2 DUP2 MSTORE POP POP PUSH5 0x2CD769BF0 DUP2 PUSH1 0x40 ADD DUP2 DUP2 MSTORE POP POP PUSH2 0x2678 JUMP JUMPDEST PUSH5 0x113F28ABE DUP4 SUB PUSH2 0x384 JUMPI PUSH5 0x304A71E10 DUP2 PUSH0 ADD DUP2 DUP2 MSTORE POP POP PUSH32 0xFFFFFFFFFFFFFFFFFFFFFFFFFFFFFFFFFFFFFFFFFFFFFFFFFFFFFFFEEC0D7542 DUP2 PUSH1 0x20 ADD DUP2 DUP2 MSTORE POP POP PUSH32 0xFFFFFFFFFFFFFFFFFFFFFFFFFFFFFFFFFFFFFFFFFFFFFFFFFFFFFFFF233DF768 DUP2 PUSH1 0x40 ADD DUP2 DUP2 MSTORE POP POP PUSH2 0x2677 JUMP JUMPDEST PUSH5 0x14B230CE4 DUP4 SUB PUSH2 0x3F7 JUMPI PUSH32 0xFFFFFFFFFFFFFFFFFFFFFFFFFFFFFFFFFFFFFFFFFFFFFFFFFFFFFFFF5A6E798E DUP2 PUSH0 ADD DUP2 DUP2 MSTORE POP POP PUSH32 0xFFFFFFFFFFFFFFFFFFFFFFFFFFFFFFFFFFFFFFFFFFFFFFFFFFFFFFFF919EFBB4 DUP2 PUSH1 0x20 ADD DUP2 DUP2 MSTORE POP POP PUSH5 0x25F1597A6 DUP2 PUSH1 0x40 ADD DUP2 DUP2 MSTORE POP POP PUSH2 0x2676 JUMP JUMPDEST PUSH5 0x182538F09 DUP4 SUB PUSH2 0x46A JUMPI PUSH5 0x2964619C6 DUP2 PUSH0 ADD DUP2 DUP2 MSTORE POP POP PUSH32 0xFFFFFFFFFFFFFFFFFFFFFFFFFFFFFFFFFFFFFFFFFFFFFFFFFFFFFFFF5A6E798E DUP2 PUSH1 0x20 ADD DUP2 DUP2 MSTORE POP POP PUSH32 0xFFFFFFFFFFFFFFFFFFFFFFFFFFFFFFFFFFFFFFFFFFFFFFFFFFFFFFFF919EFBB4 DUP2 PUSH1 0x40 ADD DUP2 DUP2 MSTORE POP POP PUSH2 0x2675 JUMP JUMPDEST PUSH5 0x1B984112F DUP4 SUB PUSH2 0x4BD JUMPI PUSH32 0xFFFFFFFFFFFFFFFFFFFFFFFFFFFFFFFFFFFFFFFFFFFFFFFFFFFFFFFFC8CF7DDA DUP2 PUSH0 ADD DUP2 DUP2 MSTORE POP POP PUSH0 DUP2 PUSH1 0x20 ADD DUP2 DUP2 MSTORE POP POP PUSH5 0x1F0B49355 DUP2 PUSH1 0x40 ADD DUP2 DUP2 MSTORE POP POP PUSH2 0x2674 JUMP JUMPDEST PUSH5 0x1F0B49355 DUP4 SUB PUSH2 0x510 JUMPI PUSH5 0x227E5157B DUP2 PUSH0 ADD DUP2 DUP2 MSTORE POP POP PUSH32 0xFFFFFFFFFFFFFFFFFFFFFFFFFFFFFFFFFFFFFFFFFFFFFFFFFFFFFFFFC8CF7DDA DUP2 PUSH1 0x20 ADD DUP2 DUP2 MSTORE POP POP PUSH0 DUP2 PUSH1 0x40 ADD DUP2 DUP2 MSTORE POP POP PUSH2 0x2673 JUMP JUMPDEST PUSH5 0x227E5157B DUP4 SUB PUSH2 0x54B JUMPI PUSH4 0x37308226 DUP2 PUSH0 ADD DUP2 DUP2 MSTORE POP POP PUSH4 0x6E61044C DUP2 PUSH1 0x20 ADD DUP2 DUP2 MSTORE POP POP PUSH5 0x182538F09 DUP2 PUSH1 0x40 ADD DUP2 DUP2 MSTORE POP POP PUSH2 0x2672 JUMP JUMPDEST PUSH5 0x25F1597A6 DUP4 SUB PUSH2 0x586 JUMPI PUSH5 0x1B984112F DUP2 PUSH0 ADD DUP2 DUP2 MSTORE POP POP PUSH4 0x37308226 DUP2 PUSH1 0x20 ADD DUP2 DUP2 MSTORE POP POP PUSH4 0x6E61044C DUP2 PUSH1 0x40 ADD DUP2 DUP2 MSTORE POP POP PUSH2 0x2671 JUMP JUMPDEST PUSH5 0x2964619C6 DUP4 SUB PUSH2 0x5C1 JUMPI PUSH4 0xA5918672 DUP2 PUSH0 ADD DUP2 DUP2 MSTORE POP POP PUSH4 0xDCC20898 DUP2 PUSH1 0x20 ADD DUP2 DUP2 MSTORE POP POP PUSH5 0x113F28ABE DUP2 PUSH1 0x40 ADD DUP2 DUP2 MSTORE POP POP PUSH2 0x2670 JUMP JUMPDEST PUSH5 0x2CD769BF0 DUP4 SUB PUSH2 0x5FC JUMPI PUSH5 0x14B230CE4 DUP2 PUSH0 ADD DUP2 DUP2 MSTORE POP POP PUSH4 0xA5918672 DUP2 PUSH1 0x20 ADD DUP2 DUP2 MSTORE POP POP PUSH4 0xDCC20898 DUP2 PUSH1 0x40 ADD DUP2 DUP2 MSTORE POP POP PUSH2 0x266F JUMP JUMPDEST PUSH5 0x304A71E10 DUP4 SUB PUSH2 0x638 JUMPI PUSH5 0x113F28ABE DUP2 PUSH0 ADD DUP2 DUP2 MSTORE POP POP PUSH5 0x14B230CE4 DUP2 PUSH1 0x20 ADD DUP2 DUP2 MSTORE POP POP PUSH4 0xA5918672 DUP2 PUSH1 0x40 ADD DUP2 DUP2 MSTORE POP POP PUSH2 0x266E JUMP JUMPDEST PUSH5 0x33BD7A03A DUP4 SUB PUSH2 0x674 JUMPI PUSH4 0xDCC20898 DUP2 PUSH0 ADD DUP2 DUP2 MSTORE POP POP PUSH5 0x113F28ABE DUP2 PUSH1 0x20 ADD DUP2 DUP2 MSTORE POP POP PUSH5 0x14B230CE4 DUP2 PUSH1 0x40 ADD DUP2 DUP2 MSTORE POP POP PUSH2 0x266D JUMP JUMPDEST PUSH5 0x37308225A DUP4 SUB PUSH2 0x6B0 JUMPI PUSH5 0x182538F09 DUP2 PUSH0 ADD DUP2 DUP2 MSTORE POP POP PUSH5 0x1B984112F DUP2 PUSH1 0x20 ADD DUP2 DUP2 MSTORE POP POP PUSH4 0x37308226 DUP2 PUSH1 0x40 ADD DUP2 DUP2 MSTORE POP POP PUSH2 0x266C JUMP JUMPDEST PUSH5 0x3AA38A484 DUP4 SUB PUSH2 0x6EC JUMPI PUSH4 0x6E61044C DUP2 PUSH0 ADD DUP2 DUP2 MSTORE POP POP PUSH5 0x182538F09 DUP2 PUSH1 0x20 ADD DUP2 DUP2 MSTORE POP POP PUSH5 0x1B984112F DUP2 PUSH1 0x40 ADD DUP2 DUP2 MSTORE POP POP PUSH2 0x266B JUMP JUMPDEST PUSH5 0x3E16926AE DUP4 SUB PUSH2 0x744 JUMPI PUSH5 0x1F0B49355 DUP2 PUSH0 ADD DUP2 DUP2 MSTORE POP POP PUSH5 0x227E5157B DUP2 PUSH1 0x20 ADD DUP2 DUP2 MSTORE POP POP PUSH32 0xFFFFFFFFFFFFFFFFFFFFFFFFFFFFFFFFFFFFFFFFFFFFFFFFFFFFFFFFC8CF7DDA DUP2 PUSH1 0x40 ADD DUP2 DUP2 MSTORE POP POP PUSH2 0x266A JUMP JUMPDEST PUSH5 0x41899A8CE DUP4 SUB PUSH2 0x77C JUMPI PUSH0 DUP2 PUSH0 ADD DUP2 DUP2 MSTORE POP POP PUSH5 0x1F0B49355 DUP2 PUSH1 0x20 ADD DUP2 DUP2 MSTORE POP POP PUSH5 0x227E5157B DUP2 PUSH1 0x40 ADD DUP2 DUP2 MSTORE POP POP PUSH2 0x2669 JUMP JUMPDEST PUSH5 0x44FCA2AF8 DUP4 SUB PUSH2 0x7D4 JUMPI PUSH5 0x25F1597A6 DUP2 PUSH0 ADD DUP2 DUP2 MSTORE POP POP PUSH5 0x2964619C6 DUP2 PUSH1 0x20 ADD DUP2 DUP2 MSTORE POP POP PUSH32 0xFFFFFFFFFFFFFFFFFFFFFFFFFFFFFFFFFFFFFFFFFFFFFFFFFFFFFFFF5A6E798E DUP2 PUSH1 0x40 ADD DUP2 DUP2 MSTORE POP POP PUSH2 0x2668 JUMP JUMPDEST PUSH5 0x486FAAD18 DUP4 SUB PUSH2 0x82C JUMPI PUSH32 0xFFFFFFFFFFFFFFFFFFFFFFFFFFFFFFFFFFFFFFFFFFFFFFFFFFFFFFFF919EFBB4 DUP2 PUSH0 ADD DUP2 DUP2 MSTORE POP POP PUSH5 0x25F1597A6 DUP2 PUSH1 0x20 ADD DUP2 DUP2 MSTORE POP POP PUSH5 0x2964619C6 DUP2 PUSH1 0x40 ADD DUP2 DUP2 MSTORE POP POP PUSH2 0x2667 JUMP JUMPDEST PUSH5 0x4BE2B2F42 DUP4 SUB PUSH2 0x884 JUMPI PUSH5 0x2CD769BF0 DUP2 PUSH0 ADD DUP2 DUP2 MSTORE POP POP PUSH5 0x304A71E10 DUP2 PUSH1 0x20 ADD DUP2 DUP2 MSTORE POP POP PUSH32 0xFFFFFFFFFFFFFFFFFFFFFFFFFFFFFFFFFFFFFFFFFFFFFFFFFFFFFFFEEC0D7542 DUP2 PUSH1 0x40 ADD DUP2 DUP2 MSTORE POP POP PUSH2 0x2666 JUMP JUMPDEST PUSH5 0x4F55BB16C DUP4 SUB PUSH2 0x8DC JUMPI PUSH32 0xFFFFFFFFFFFFFFFFFFFFFFFFFFFFFFFFFFFFFFFFFFFFFFFFFFFFFFFF233DF768 DUP2 PUSH0 ADD DUP2 DUP2 MSTORE POP POP PUSH5 0x2CD769BF0 DUP2 PUSH1 0x20 ADD DUP2 DUP2 MSTORE POP POP PUSH5 0x304A71E10 DUP2 PUSH1 0x40 ADD DUP2 DUP2 MSTORE POP POP PUSH2 0x2665 JUMP JUMPDEST PUSH5 0x52C8C338C DUP4 SUB PUSH2 0x934 JUMPI PUSH5 0x33BD7A03A DUP2 PUSH0 ADD DUP2 DUP2 MSTORE POP POP PUSH5 0x37308225A DUP2 PUSH1 0x20 ADD DUP2 DUP2 MSTORE POP POP PUSH32 0xFFFFFFFFFFFFFFFFFFFFFFFFFFFFFFFFFFFFFFFFFFFFFFFFFFFFFFFE7DAC70F7 DUP2 PUSH1 0x40 ADD DUP2 DUP2 MSTORE POP POP PUSH2 0x2664 JUMP JUMPDEST PUSH5 0x563BCB5B6 DUP4 SUB PUSH2 0x98C JUMPI PUSH32 0xFFFFFFFFFFFFFFFFFFFFFFFFFFFFFFFFFFFFFFFFFFFFFFFFFFFFFFFEB4DCF31C DUP2 PUSH0 ADD DUP2 DUP2 MSTORE POP POP PUSH5 0x33BD7A03A DUP2 PUSH1 0x20 ADD DUP2 DUP2 MSTORE POP POP PUSH5 0x37308225A DUP2 PUSH1 0x40 ADD DUP2 DUP2 MSTORE POP POP PUSH2 0x2663 JUMP JUMPDEST PUSH5 0x59AED37D6 DUP4 SUB PUSH2 0x9E4 JUMPI PUSH5 0x3AA38A484 DUP2 PUSH0 ADD DUP2 DUP2 MSTORE POP POP PUSH5 0x3E16926AE DUP2 PUSH1 0x20 ADD DUP2 DUP2 MSTORE POP POP PUSH32 0xFFFFFFFFFFFFFFFFFFFFFFFFFFFFFFFFFFFFFFFFFFFFFFFFFFFFFFFE0F4B6CAB DUP2 PUSH1 0x40 ADD DUP2 DUP2 MSTORE POP POP PUSH2 0x2662 JUMP JUMPDEST PUSH5 0x5D21DBA00 DUP4 SUB PUSH2 0xA3C JUMPI PUSH32 0xFFFFFFFFFFFFFFFFFFFFFFFFFFFFFFFFFFFFFFFFFFFFFFFFFFFFFFFE467BEED1 DUP2 PUSH0 ADD DUP2 DUP2 MSTORE POP POP PUSH5 0x3AA38A484 DUP2 PUSH1 0x20 ADD DUP2 DUP2 MSTORE POP POP PUSH5 0x3E16926AE DUP2 PUSH1 0x40 ADD DUP2 DUP2 MSTORE POP POP PUSH2 0x2661 JUMP JUMPDEST PUSH5 0x6094E3C2A DUP4 SUB PUSH2 0xA94 JUMPI PUSH5 0x41899A8CE DUP2 PUSH0 ADD DUP2 DUP2 MSTORE POP POP PUSH5 0x44FCA2AF8 DUP2 PUSH1 0x20 ADD DUP2 DUP2 MSTORE POP POP PUSH32 0xFFFFFFFFFFFFFFFFFFFFFFFFFFFFFFFFFFFFFFFFFFFFFFFFFFFFFFFDA0EA685A DUP2 PUSH1 0x40 ADD DUP2 DUP2 MSTORE POP POP PUSH2 0x2660 JUMP JUMPDEST PUSH5 0x6407EBE4A DUP4 SUB PUSH2 0xAEC JUMPI PUSH32 0xFFFFFFFFFFFFFFFFFFFFFFFFFFFFFFFFFFFFFFFFFFFFFFFFFFFFFFFDD81AEA85 DUP2 PUSH0 ADD DUP2 DUP2 MSTORE POP POP PUSH5 0x41899A8CE DUP2 PUSH1 0x20 ADD DUP2 DUP2 MSTORE POP POP PUSH5 0x44FCA2AF8 DUP2 PUSH1 0x40 ADD DUP2 DUP2 MSTORE POP POP PUSH2 0x265F JUMP JUMPDEST PUSH5 0x677AF4074 DUP4 SUB PUSH2 0xB44 JUMPI PUSH5 0x486FAAD18 DUP2 PUSH0 ADD DUP2 DUP2 MSTORE POP POP PUSH5 0x4BE2B2F42 DUP2 PUSH1 0x20 ADD DUP2 DUP2 MSTORE POP POP PUSH32 0xFFFFFFFFFFFFFFFFFFFFFFFFFFFFFFFFFFFFFFFFFFFFFFFFFFFFFFFD32896410 DUP2 PUSH1 0x40 ADD DUP2 DUP2 MSTORE POP POP PUSH2 0x265E JUMP JUMPDEST PUSH5 0x6AEDFC294 DUP4 SUB PUSH2 0xB9C JUMPI PUSH32 0xFFFFFFFFFFFFFFFFFFFFFFFFFFFFFFFFFFFFFFFFFFFFFFFFFFFFFFFD69B9E63A DUP2 PUSH0 ADD DUP2 DUP2 MSTORE POP POP PUSH5 0x486FAAD18 DUP2 PUSH1 0x20 ADD DUP2 DUP2 MSTORE POP POP PUSH5 0x4BE2B2F42 DUP2 PUSH1 0x40 ADD DUP2 DUP2 MSTORE POP POP PUSH2 0x265D JUMP JUMPDEST PUSH5 0x6E61044BE DUP4 SUB PUSH2 0xBF4 JUMPI PUSH5 0x4F55BB16C DUP2 PUSH0 ADD DUP2 DUP2 MSTORE POP POP PUSH5 0x52C8C338C DUP2 PUSH1 0x20 ADD DUP2 DUP2 MSTORE POP POP PUSH32 0xFFFFFFFFFFFFFFFFFFFFFFFFFFFFFFFFFFFFFFFFFFFFFFFFFFFFFFFCC4285FC6 DUP2 PUSH1 0x40 ADD DUP2 DUP2 MSTORE POP POP PUSH2 0x265C JUMP JUMPDEST PUSH5 0x71D40C6E8 DUP4 SUB PUSH2 0xC4C JUMPI PUSH32 0xFFFFFFFFFFFFFFFFFFFFFFFFFFFFFFFFFFFFFFFFFFFFFFFFFFFFFFFCFB58E1F0 DUP2 PUSH0 ADD DUP2 DUP2 MSTORE POP POP PUSH5 0x4F55BB16C DUP2 PUSH1 0x20 ADD DUP2 DUP2 MSTORE POP POP PUSH5 0x52C8C338C DUP2 PUSH1 0x40 ADD DUP2 DUP2 MSTORE POP POP PUSH2 0x265B JUMP JUMPDEST PUSH5 0x754714908 DUP4 SUB PUSH2 0xCA4 JUMPI PUSH5 0x563BCB5B6 DUP2 PUSH0 ADD DUP2 DUP2 MSTORE POP POP PUSH5 0x59AED37D6 DUP2 PUSH1 0x20 ADD DUP2 DUP2 MSTORE POP POP PUSH32 0xFFFFFFFFFFFFFFFFFFFFFFFFFFFFFFFFFFFFFFFFFFFFFFFFFFFFFFFC55C75B7C DUP2 PUSH1 0x40 ADD DUP2 DUP2 MSTORE POP POP PUSH2 0x265A JUMP JUMPDEST PUSH5 0x78BA1CB32 DUP4 SUB PUSH2 0xCFC JUMPI PUSH32 0xFFFFFFFFFFFFFFFFFFFFFFFFFFFFFFFFFFFFFFFFFFFFFFFFFFFFFFFC8CF7DDA6 DUP2 PUSH0 ADD DUP2 DUP2 MSTORE POP POP PUSH5 0x563BCB5B6 DUP2 PUSH1 0x20 ADD DUP2 DUP2 MSTORE POP POP PUSH5 0x59AED37D6 DUP2 PUSH1 0x40 ADD DUP2 DUP2 MSTORE POP POP PUSH2 0x2659 JUMP JUMPDEST PUSH5 0x7C2D24D52 DUP4 SUB PUSH2 0xD54 JUMPI PUSH5 0x5D21DBA00 DUP2 PUSH0 ADD DUP2 DUP2 MSTORE POP POP PUSH5 0x6094E3C2A DUP2 PUSH1 0x20 ADD DUP2 DUP2 MSTORE POP POP PUSH32 0xFFFFFFFFFFFFFFFFFFFFFFFFFFFFFFFFFFFFFFFFFFFFFFFFFFFFFFFBE7665732 DUP2 PUSH1 0x40 ADD DUP2 DUP2 MSTORE POP POP PUSH2 0x2658 JUMP JUMPDEST PUSH5 0x7FA02CF7C DUP4 SUB PUSH2 0xDAC JUMPI PUSH32 0xFFFFFFFFFFFFFFFFFFFFFFFFFFFFFFFFFFFFFFFFFFFFFFFFFFFFFFFC1E96D952 DUP2 PUSH0 ADD DUP2 DUP2 MSTORE POP POP PUSH5 0x5D21DBA00 DUP2 PUSH1 0x20 ADD DUP2 DUP2 MSTORE POP POP PUSH5 0x6094E3C2A DUP2 PUSH1 0x40 ADD DUP2 DUP2 MSTORE POP POP PUSH2 0x2657 JUMP JUMPDEST PUSH5 0x8313351A6 DUP4 SUB PUSH2 0xE04 JUMPI PUSH5 0x6407EBE4A DUP2 PUSH0 ADD DUP2 DUP2 MSTORE POP POP PUSH5 0x677AF4074 DUP2 PUSH1 0x20 ADD DUP2 DUP2 MSTORE POP POP PUSH32 0xFFFFFFFFFFFFFFFFFFFFFFFFFFFFFFFFFFFFFFFFFFFFFFFFFFFFFFFB790552E8 DUP2 PUSH1 0x40 ADD DUP2 DUP2 MSTORE POP POP PUSH2 0x2656 JUMP JUMPDEST PUSH5 0x86863D3C6 DUP4 SUB PUSH2 0xE5C JUMPI PUSH32 0xFFFFFFFFFFFFFFFFFFFFFFFFFFFFFFFFFFFFFFFFFFFFFFFFFFFFFFFBB035D508 DUP2 PUSH0 ADD DUP2 DUP2 MSTORE POP POP PUSH5 0x6407EBE4A DUP2 PUSH1 0x20 ADD DUP2 DUP2 MSTORE POP POP PUSH5 0x677AF4074 DUP2 PUSH1 0x40 ADD DUP2 DUP2 MSTORE POP POP PUSH2 0x2655 JUMP JUMPDEST PUSH5 0x89F9455F0 DUP4 SUB PUSH2 0xEB4 JUMPI PUSH5 0x6AEDFC294 DUP2 PUSH0 ADD DUP2 DUP2 MSTORE POP POP PUSH5 0x6E61044BE DUP2 PUSH1 0x20 ADD DUP2 DUP2 MSTORE POP POP PUSH32 0xFFFFFFFFFFFFFFFFFFFFFFFFFFFFFFFFFFFFFFFFFFFFFFFFFFFFFFFB0AA44E94 DUP2 PUSH1 0x40 ADD DUP2 DUP2 MSTORE POP POP PUSH2 0x2654 JUMP JUMPDEST PUSH5 0x8D6C4D810 DUP4 SUB PUSH2 0xF0C JUMPI PUSH32 0xFFFFFFFFFFFFFFFFFFFFFFFFFFFFFFFFFFFFFFFFFFFFFFFFFFFFFFFB41D4D0BE DUP2 PUSH0 ADD DUP2 DUP2 MSTORE POP POP PUSH5 0x6AEDFC294 DUP2 PUSH1 0x20 ADD DUP2 DUP2 MSTORE POP POP PUSH5 0x6E61044BE DUP2 PUSH1 0x40 ADD DUP2 DUP2 MSTORE POP POP PUSH2 0x2653 JUMP JUMPDEST PUSH5 0x90DF55A3A DUP4 SUB PUSH2 0xF64 JUMPI PUSH5 0x71D40C6E8 DUP2 PUSH0 ADD DUP2 DUP2 MSTORE POP POP PUSH5 0x754714908 DUP2 PUSH1 0x20 ADD DUP2 DUP2 MSTORE POP POP PUSH32 0xFFFFFFFFFFFFFFFFFFFFFFFFFFFFFFFFFFFFFFFFFFFFFFFFFFFFFFFA9C434A4A DUP2 PUSH1 0x40 ADD DUP2 DUP2 MSTORE POP POP PUSH2 0x2652 JUMP JUMPDEST PUSH5 0x94525DC5A DUP4 SUB PUSH2 0xFBC JUMPI PUSH32 0xFFFFFFFFFFFFFFFFFFFFFFFFFFFFFFFFFFFFFFFFFFFFFFFFFFFFFFFAD373CC74 DUP2 PUSH0 ADD DUP2 DUP2 MSTORE POP POP PUSH5 0x71D40C6E8 DUP2 PUSH1 0x20 ADD DUP2 DUP2 MSTORE POP POP PUSH5 0x754714908 DUP2 PUSH1 0x40 ADD DUP2 DUP2 MSTORE POP POP PUSH2 0x2651 JUMP JUMPDEST PUSH5 0x97C565E84 DUP4 SUB PUSH2 0x1014 JUMPI PUSH5 0x78BA1CB32 DUP2 PUSH0 ADD DUP2 DUP2 MSTORE POP POP PUSH5 0x7C2D24D52 DUP2 PUSH1 0x20 ADD DUP2 DUP2 MSTORE POP POP PUSH32 0xFFFFFFFFFFFFFFFFFFFFFFFFFFFFFFFFFFFFFFFFFFFFFFFFFFFFFFFA2DE24600 DUP2 PUSH1 0x40 ADD DUP2 DUP2 MSTORE POP POP PUSH2 0x2650 JUMP JUMPDEST PUSH5 0x9B386E0AE DUP4 SUB PUSH2 0x106C JUMPI PUSH32 0xFFFFFFFFFFFFFFFFFFFFFFFFFFFFFFFFFFFFFFFFFFFFFFFFFFFFFFFA6512C82A DUP2 PUSH0 ADD DUP2 DUP2 MSTORE POP POP PUSH5 0x78BA1CB32 DUP2 PUSH1 0x20 ADD DUP2 DUP2 MSTORE POP POP PUSH5 0x7C2D24D52 DUP2 PUSH1 0x40 ADD DUP2 DUP2 MSTORE POP POP PUSH2 0x264F JUMP JUMPDEST PUSH5 0x9EAB762CE DUP4 SUB PUSH2 0x10C4 JUMPI PUSH5 0x7FA02CF7C DUP2 PUSH0 ADD DUP2 DUP2 MSTORE POP POP PUSH5 0x8313351A6 DUP2 PUSH1 0x20 ADD DUP2 DUP2 MSTORE POP POP PUSH32 0xFFFFFFFFFFFFFFFFFFFFFFFFFFFFFFFFFFFFFFFFFFFFFFFFFFFFFFF9BF8141B6 DUP2 PUSH1 0x40 ADD DUP2 DUP2 MSTORE POP POP PUSH2 0x264E JUMP JUMPDEST PUSH5 0xA21E7E4F8 DUP4 SUB PUSH2 0x111C JUMPI PUSH32 0xFFFFFFFFFFFFFFFFFFFFFFFFFFFFFFFFFFFFFFFFFFFFFFFFFFFFFFF9F6B1C3D6 DUP2 PUSH0 ADD DUP2 DUP2 MSTORE POP POP PUSH5 0x7FA02CF7C DUP2 PUSH1 0x20 ADD DUP2 DUP2 MSTORE POP POP PUSH5 0x8313351A6 DUP2 PUSH1 0x40 ADD DUP2 DUP2 MSTORE POP POP PUSH2 0x264D JUMP JUMPDEST PUSH5 0xA59186718 DUP4 SUB PUSH2 0x1174 JUMPI PUSH5 0x86863D3C6 DUP2 PUSH0 ADD DUP2 DUP2 MSTORE POP POP PUSH5 0x89F9455F0 DUP2 PUSH1 0x20 ADD DUP2 DUP2 MSTORE POP POP PUSH32 0xFFFFFFFFFFFFFFFFFFFFFFFFFFFFFFFFFFFFFFFFFFFFFFFFFFFFFFF951203D6C DUP2 PUSH1 0x40 ADD DUP2 DUP2 MSTORE POP POP PUSH2 0x264C JUMP JUMPDEST PUSH5 0xA9048E942 DUP4 SUB PUSH2 0x11CC JUMPI PUSH32 0xFFFFFFFFFFFFFFFFFFFFFFFFFFFFFFFFFFFFFFFFFFFFFFFFFFFFFFF98850BF8C DUP2 PUSH0 ADD DUP2 DUP2 MSTORE POP POP PUSH5 0x86863D3C6 DUP2 PUSH1 0x20 ADD DUP2 DUP2 MSTORE POP POP PUSH5 0x89F9455F0 DUP2 PUSH1 0x40 ADD DUP2 DUP2 MSTORE POP POP PUSH2 0x264B JUMP JUMPDEST PUSH5 0xAC7796B6C DUP4 SUB PUSH2 0x1224 JUMPI PUSH5 0x8D6C4D810 DUP2 PUSH0 ADD DUP2 DUP2 MSTORE POP POP PUSH5 0x90DF55A3A DUP2 PUSH1 0x20 ADD DUP2 DUP2 MSTORE POP POP PUSH32 0xFFFFFFFFFFFFFFFFFFFFFFFFFFFFFFFFFFFFFFFFFFFFFFFFFFFFFFF8E2BF3918 DUP2 PUSH1 0x40 ADD DUP2 DUP2 MSTORE POP POP PUSH2 0x264A JUMP JUMPDEST PUSH5 0xAFEA9ED8C DUP4 SUB PUSH2 0x127C JUMPI PUSH32 0xFFFFFFFFFFFFFFFFFFFFFFFFFFFFFFFFFFFFFFFFFFFFFFFFFFFFFFF919EFBB42 DUP2 PUSH0 ADD DUP2 DUP2 MSTORE POP POP PUSH5 0x8D6C4D810 DUP2 PUSH1 0x20 ADD DUP2 DUP2 MSTORE POP POP PUSH5 0x90DF55A3A DUP2 PUSH1 0x40 ADD DUP2 DUP2 MSTORE POP POP PUSH2 0x2649 JUMP JUMPDEST PUSH5 0xB35DA6FB6 DUP4 SUB PUSH2 0x12D4 JUMPI PUSH5 0x94525DC5A DUP2 PUSH0 ADD DUP2 DUP2 MSTORE POP POP PUSH5 0x97C565E84 DUP2 PUSH1 0x20 ADD DUP2 DUP2 MSTORE POP POP PUSH32 0xFFFFFFFFFFFFFFFFFFFFFFFFFFFFFFFFFFFFFFFFFFFFFFFFFFFFFFF8745E34CE DUP2 PUSH1 0x40 ADD DUP2 DUP2 MSTORE POP POP PUSH2 0x2648 JUMP JUMPDEST PUSH5 0xB6D0AF1D6 DUP4 SUB PUSH2 0x132C JUMPI PUSH32 0xFFFFFFFFFFFFFFFFFFFFFFFFFFFFFFFFFFFFFFFFFFFFFFFFFFFFFFF8AB8EB6F8 DUP2 PUSH0 ADD DUP2 DUP2 MSTORE POP POP PUSH5 0x94525DC5A DUP2 PUSH1 0x20 ADD DUP2 DUP2 MSTORE POP POP PUSH5 0x97C565E84 DUP2 PUSH1 0x40 ADD DUP2 DUP2 MSTORE POP POP PUSH2 0x2647 JUMP JUMPDEST PUSH5 0xBA43B7400 DUP4 SUB PUSH2 0x1384 JUMPI PUSH5 0x9B386E0AE DUP2 PUSH0 ADD DUP2 DUP2 MSTORE POP POP PUSH5 0x9EAB762CE DUP2 PUSH1 0x20 ADD DUP2 DUP2 MSTORE POP POP PUSH32 0xFFFFFFFFFFFFFFFFFFFFFFFFFFFFFFFFFFFFFFFFFFFFFFFFFFFFFFF805FD3084 DUP2 PUSH1 0x40 ADD DUP2 DUP2 MSTORE POP POP PUSH2 0x2646 JUMP JUMPDEST PUSH5 0xBDB6BF62A DUP4 SUB PUSH2 0x13DC JUMPI PUSH32 0xFFFFFFFFFFFFFFFFFFFFFFFFFFFFFFFFFFFFFFFFFFFFFFFFFFFFFFF83D2DB2AE DUP2 PUSH0 ADD DUP2 DUP2 MSTORE POP POP PUSH5 0x9B386E0AE DUP2 PUSH1 0x20 ADD DUP2 DUP2 MSTORE POP POP PUSH5 0x9EAB762CE DUP2 PUSH1 0x40 ADD DUP2 DUP2 MSTORE POP POP PUSH2 0x2645 JUMP JUMPDEST PUSH5 0xC129C784A DUP4 SUB PUSH2 0x1434 JUMPI PUSH5 0xA21E7E4F8 DUP2 PUSH0 ADD DUP2 DUP2 MSTORE POP POP PUSH5 0xA59186718 DUP2 PUSH1 0x20 ADD DUP2 DUP2 MSTORE POP POP PUSH32 0xFFFFFFFFFFFFFFFFFFFFFFFFFFFFFFFFFFFFFFFFFFFFFFFFFFFFFFF7979C2C3A DUP2 PUSH1 0x40 ADD DUP2 DUP2 MSTORE POP POP PUSH2 0x2644 JUMP JUMPDEST PUSH5 0xC49CCFA74 DUP4 SUB PUSH2 0x148C JUMPI PUSH32 0xFFFFFFFFFFFFFFFFFFFFFFFFFFFFFFFFFFFFFFFFFFFFFFFFFFFFFFF7CECCAE5A DUP2 PUSH0 ADD DUP2 DUP2 MSTORE POP POP PUSH5 0xA21E7E4F8 DUP2 PUSH1 0x20 ADD DUP2 DUP2 MSTORE POP POP PUSH5 0xA59186718 DUP2 PUSH1 0x40 ADD DUP2 DUP2 MSTORE POP POP PUSH2 0x2643 JUMP JUMPDEST PUSH5 0xC80FD7C94 DUP4 SUB PUSH2 0x14E4 JUMPI PUSH5 0xA9048E942 DUP2 PUSH0 ADD DUP2 DUP2 MSTORE POP POP PUSH5 0xAC7796B6C DUP2 PUSH1 0x20 ADD DUP2 DUP2 MSTORE POP POP PUSH32 0xFFFFFFFFFFFFFFFFFFFFFFFFFFFFFFFFFFFFFFFFFFFFFFFFFFFFFFF7293B27F0 DUP2 PUSH1 0x40 ADD DUP2 DUP2 MSTORE POP POP PUSH2 0x2642 JUMP JUMPDEST PUSH5 0xCB82DFEBE DUP4 SUB PUSH2 0x153C JUMPI PUSH32 0xFFFFFFFFFFFFFFFFFFFFFFFFFFFFFFFFFFFFFFFFFFFFFFFFFFFFFFF7606BAA10 DUP2 PUSH0 ADD DUP2 DUP2 MSTORE POP POP PUSH5 0xA9048E942 DUP2 PUSH1 0x20 ADD DUP2 DUP2 MSTORE POP POP PUSH5 0xAC7796B6C DUP2 PUSH1 0x40 ADD DUP2 DUP2 MSTORE POP POP PUSH2 0x2641 JUMP JUMPDEST PUSH5 0xCEF5E80E8 DUP4 SUB PUSH2 0x1594 JUMPI PUSH5 0xAFEA9ED8C DUP2 PUSH0 ADD DUP2 DUP2 MSTORE POP POP PUSH5 0xB35DA6FB6 DUP2 PUSH1 0x20 ADD DUP2 DUP2 MSTORE POP POP PUSH32 0xFFFFFFFFFFFFFFFFFFFFFFFFFFFFFFFFFFFFFFFFFFFFFFFFFFFFFFF6BADA23A6 DUP2 PUSH1 0x40 ADD DUP2 DUP2 MSTORE POP POP PUSH2 0x2640 JUMP JUMPDEST PUSH5 0xD268F0308 DUP4 SUB PUSH2 0x15EC JUMPI PUSH32 0xFFFFFFFFFFFFFFFFFFFFFFFFFFFFFFFFFFFFFFFFFFFFFFFFFFFFFFF6F20AA5C6 DUP2 PUSH0 ADD DUP2 DUP2 MSTORE POP POP PUSH5 0xAFEA9ED8C DUP2 PUSH1 0x20 ADD DUP2 DUP2 MSTORE POP POP PUSH5 0xB35DA6FB6 DUP2 PUSH1 0x40 ADD DUP2 DUP2 MSTORE POP POP PUSH2 0x263F JUMP JUMPDEST PUSH5 0xD5DBF8532 DUP4 SUB PUSH2 0x1644 JUMPI PUSH5 0xB6D0AF1D6 DUP2 PUSH0 ADD DUP2 DUP2 MSTORE POP POP PUSH5 0xBA43B7400 DUP2 PUSH1 0x20 ADD DUP2 DUP2 MSTORE POP POP PUSH32 0xFFFFFFFFFFFFFFFFFFFFFFFFFFFFFFFFFFFFFFFFFFFFFFFFFFFFFFF64C791F52 DUP2 PUSH1 0x40 ADD DUP2 DUP2 MSTORE POP POP PUSH2 0x263E JUMP JUMPDEST PUSH5 0xD94F00752 DUP4 SUB PUSH2 0x169C JUMPI PUSH32 0xFFFFFFFFFFFFFFFFFFFFFFFFFFFFFFFFFFFFFFFFFFFFFFFFFFFFFFF683A9A17C DUP2 PUSH0 ADD DUP2 DUP2 MSTORE POP POP PUSH5 0xB6D0AF1D6 DUP2 PUSH1 0x20 ADD DUP2 DUP2 MSTORE POP POP PUSH5 0xBA43B7400 DUP2 PUSH1 0x40 ADD DUP2 DUP2 MSTORE POP POP PUSH2 0x263D JUMP JUMPDEST PUSH5 0xDCC20897C DUP4 SUB PUSH2 0x16F4 JUMPI PUSH5 0xBDB6BF62A DUP2 PUSH0 ADD DUP2 DUP2 MSTORE POP POP PUSH5 0xC129C784A DUP2 PUSH1 0x20 ADD DUP2 DUP2 MSTORE POP POP PUSH32 0xFFFFFFFFFFFFFFFFFFFFFFFFFFFFFFFFFFFFFFFFFFFFFFFFFFFFFFF5DE181B08 DUP2 PUSH1 0x40 ADD DUP2 DUP2 MSTORE POP POP PUSH2 0x263C JUMP JUMPDEST PUSH5 0xE03510BA6 DUP4 SUB PUSH2 0x174C JUMPI PUSH32 0xFFFFFFFFFFFFFFFFFFFFFFFFFFFFFFFFFFFFFFFFFFFFFFFFFFFFFFF615489D32 DUP2 PUSH0 ADD DUP2 DUP2 MSTORE POP POP PUSH5 0xBDB6BF62A DUP2 PUSH1 0x20 ADD DUP2 DUP2 MSTORE POP POP PUSH5 0xC129C784A DUP2 PUSH1 0x40 ADD DUP2 DUP2 MSTORE POP POP PUSH2 0x263B JUMP JUMPDEST PUSH5 0xE3A818DC6 DUP4 SUB PUSH2 0x17A4 JUMPI PUSH5 0xC49CCFA74 DUP2 PUSH0 ADD DUP2 DUP2 MSTORE POP POP PUSH5 0xC80FD7C94 DUP2 PUSH1 0x20 ADD DUP2 DUP2 MSTORE POP POP PUSH32 0xFFFFFFFFFFFFFFFFFFFFFFFFFFFFFFFFFFFFFFFFFFFFFFFFFFFFFFF56FB716BE DUP2 PUSH1 0x40 ADD DUP2 DUP2 MSTORE POP POP PUSH2 0x263A JUMP JUMPDEST PUSH5 0xE71B20FF0 DUP4 SUB PUSH2 0x17FC JUMPI PUSH32 0xFFFFFFFFFFFFFFFFFFFFFFFFFFFFFFFFFFFFFFFFFFFFFFFFFFFFFFF5A6E798E8 DUP2 PUSH0 ADD DUP2 DUP2 MSTORE POP POP PUSH5 0xC49CCFA74 DUP2 PUSH1 0x20 ADD DUP2 DUP2 MSTORE POP POP PUSH5 0xC80FD7C94 DUP2 PUSH1 0x40 ADD DUP2 DUP2 MSTORE POP POP PUSH2 0x2639 JUMP JUMPDEST PUSH5 0xEA8E29210 DUP4 SUB PUSH2 0x1854 JUMPI PUSH5 0xCB82DFEBE DUP2 PUSH0 ADD DUP2 DUP2 MSTORE POP POP PUSH5 0xCEF5E80E8 DUP2 PUSH1 0x20 ADD DUP2 DUP2 MSTORE POP POP PUSH32 0xFFFFFFFFFFFFFFFFFFFFFFFFFFFFFFFFFFFFFFFFFFFFFFFFFFFFFFF501561274 DUP2 PUSH1 0x40 ADD DUP2 DUP2 MSTORE POP POP PUSH2 0x2638 JUMP JUMPDEST PUSH5 0xEE013143A DUP4 SUB PUSH2 0x18AC JUMPI PUSH32 0xFFFFFFFFFFFFFFFFFFFFFFFFFFFFFFFFFFFFFFFFFFFFFFFFFFFFFFF538869494 DUP2 PUSH0 ADD DUP2 DUP2 MSTORE POP POP PUSH5 0xCB82DFEBE DUP2 PUSH1 0x20 ADD DUP2 DUP2 MSTORE POP POP PUSH5 0xCEF5E80E8 DUP2 PUSH1 0x40 ADD DUP2 DUP2 MSTORE POP POP PUSH2 0x2637 JUMP JUMPDEST PUSH5 0xF1743965A DUP4 SUB PUSH2 0x1904 JUMPI PUSH5 0xD268F0308 DUP2 PUSH0 ADD DUP2 DUP2 MSTORE POP POP PUSH5 0xD5DBF8532 DUP2 PUSH1 0x20 ADD DUP2 DUP2 MSTORE POP POP PUSH32 0xFFFFFFFFFFFFFFFFFFFFFFFFFFFFFFFFFFFFFFFFFFFFFFFFFFFFFFF492F50E2A DUP2 PUSH1 0x40 ADD DUP2 DUP2 MSTORE POP POP PUSH2 0x2636 JUMP JUMPDEST PUSH5 0xF4E741884 DUP4 SUB PUSH2 0x195C JUMPI PUSH32 0xFFFFFFFFFFFFFFFFFFFFFFFFFFFFFFFFFFFFFFFFFFFFFFFFFFFFFFF4CA25904A DUP2 PUSH0 ADD DUP2 DUP2 MSTORE POP POP PUSH5 0xD268F0308 DUP2 PUSH1 0x20 ADD DUP2 DUP2 MSTORE POP POP PUSH5 0xD5DBF8532 DUP2 PUSH1 0x40 ADD DUP2 DUP2 MSTORE POP POP PUSH2 0x2635 JUMP JUMPDEST PUSH5 0xF85A49AAE DUP4 SUB PUSH2 0x19B4 JUMPI PUSH5 0xD94F00752 DUP2 PUSH0 ADD DUP2 DUP2 MSTORE POP POP PUSH5 0xDCC20897C DUP2 PUSH1 0x20 ADD DUP2 DUP2 MSTORE POP POP PUSH32 0xFFFFFFFFFFFFFFFFFFFFFFFFFFFFFFFFFFFFFFFFFFFFFFFFFFFFFFF4249409D6 DUP2 PUSH1 0x40 ADD DUP2 DUP2 MSTORE POP POP PUSH2 0x2634 JUMP JUMPDEST PUSH5 0xFBCD51CCE DUP4 SUB PUSH2 0x1A0C JUMPI PUSH32 0xFFFFFFFFFFFFFFFFFFFFFFFFFFFFFFFFFFFFFFFFFFFFFFFFFFFFFFF45BC48C00 DUP2 PUSH0 ADD DUP2 DUP2 MSTORE POP POP PUSH5 0xD94F00752 DUP2 PUSH1 0x20 ADD DUP2 DUP2 MSTORE POP POP PUSH5 0xDCC20897C DUP2 PUSH1 0x40 ADD DUP2 DUP2 MSTORE POP POP PUSH2 0x2633 JUMP JUMPDEST PUSH5 0xFF4059EF8 DUP4 SUB PUSH2 0x1A64 JUMPI PUSH5 0xE03510BA6 DUP2 PUSH0 ADD DUP2 DUP2 MSTORE POP POP PUSH5 0xE3A818DC6 DUP2 PUSH1 0x20 ADD DUP2 DUP2 MSTORE POP POP PUSH32 0xFFFFFFFFFFFFFFFFFFFFFFFFFFFFFFFFFFFFFFFFFFFFFFFFFFFFFFF3B633058C DUP2 PUSH1 0x40 ADD DUP2 DUP2 MSTORE POP POP PUSH2 0x2632 JUMP JUMPDEST PUSH5 0x102B362118 DUP4 SUB PUSH2 0x1ABC JUMPI PUSH32 0xFFFFFFFFFFFFFFFFFFFFFFFFFFFFFFFFFFFFFFFFFFFFFFFFFFFFFFF3ED6387B6 DUP2 PUSH0 ADD DUP2 DUP2 MSTORE POP POP PUSH5 0xE03510BA6 DUP2 PUSH1 0x20 ADD DUP2 DUP2 MSTORE POP POP PUSH5 0xE3A818DC6 DUP2 PUSH1 0x40 ADD DUP2 DUP2 MSTORE POP POP PUSH2 0x2631 JUMP JUMPDEST PUSH5 0x106266A342 DUP4 SUB PUSH2 0x1B14 JUMPI PUSH5 0xE71B20FF0 DUP2 PUSH0 ADD DUP2 DUP2 MSTORE POP POP PUSH5 0xEA8E29210 DUP2 PUSH1 0x20 ADD DUP2 DUP2 MSTORE POP POP PUSH32 0xFFFFFFFFFFFFFFFFFFFFFFFFFFFFFFFFFFFFFFFFFFFFFFFFFFFFFFF347D20142 DUP2 PUSH1 0x40 ADD DUP2 DUP2 MSTORE POP POP PUSH2 0x2630 JUMP JUMPDEST PUSH5 0x109997256C DUP4 SUB PUSH2 0x1B6C JUMPI PUSH32 0xFFFFFFFFFFFFFFFFFFFFFFFFFFFFFFFFFFFFFFFFFFFFFFFFFFFFFFF37F02836C DUP2 PUSH0 ADD DUP2 DUP2 MSTORE POP POP PUSH5 0xE71B20FF0 DUP2 PUSH1 0x20 ADD DUP2 DUP2 MSTORE POP POP PUSH5 0xEA8E29210 DUP2 PUSH1 0x40 ADD DUP2 DUP2 MSTORE POP POP PUSH2 0x262F JUMP JUMPDEST PUSH5 0x10D0C7A78C DUP4 SUB PUSH2 0x1BC4 JUMPI PUSH5 0xEE013143A DUP2 PUSH0 ADD DUP2 DUP2 MSTORE POP POP PUSH5 0xF1743965A DUP2 PUSH1 0x20 ADD DUP2 DUP2 MSTORE POP POP PUSH32 0xFFFFFFFFFFFFFFFFFFFFFFFFFFFFFFFFFFFFFFFFFFFFFFFFFFFFFFF2D970FCF8 DUP2 PUSH1 0x40 ADD DUP2 DUP2 MSTORE POP POP PUSH2 0x262E JUMP JUMPDEST PUSH5 0x1107F829B6 DUP4 SUB PUSH2 0x1C1C JUMPI PUSH32 0xFFFFFFFFFFFFFFFFFFFFFFFFFFFFFFFFFFFFFFFFFFFFFFFFFFFFFFF310A17F18 DUP2 PUSH0 ADD DUP2 DUP2 MSTORE POP POP PUSH5 0xEE013143A DUP2 PUSH1 0x20 ADD DUP2 DUP2 MSTORE POP POP PUSH5 0xF1743965A DUP2 PUSH1 0x40 ADD DUP2 DUP2 MSTORE POP POP PUSH2 0x262D JUMP JUMPDEST PUSH5 0x113F28ABD6 DUP4 SUB PUSH2 0x1C74 JUMPI PUSH5 0xF4E741884 DUP2 PUSH0 ADD DUP2 DUP2 MSTORE POP POP PUSH5 0xF85A49AAE DUP2 PUSH1 0x20 ADD DUP2 DUP2 MSTORE POP POP PUSH32 0xFFFFFFFFFFFFFFFFFFFFFFFFFFFFFFFFFFFFFFFFFFFFFFFFFFFFFFF26B0FF8AE DUP2 PUSH1 0x40 ADD DUP2 DUP2 MSTORE POP POP PUSH2 0x262C JUMP JUMPDEST PUSH5 0x1176592E00 DUP4 SUB PUSH2 0x1CCC JUMPI PUSH32 0xFFFFFFFFFFFFFFFFFFFFFFFFFFFFFFFFFFFFFFFFFFFFFFFFFFFFFFF2A2407ACE DUP2 PUSH0 ADD DUP2 DUP2 MSTORE POP POP PUSH5 0xF4E741884 DUP2 PUSH1 0x20 ADD DUP2 DUP2 MSTORE POP POP PUSH5 0xF85A49AAE DUP2 PUSH1 0x40 ADD DUP2 DUP2 MSTORE POP POP PUSH2 0x262B JUMP JUMPDEST PUSH5 0x11AD89B02A DUP4 SUB PUSH2 0x1D24 JUMPI PUSH5 0xFBCD51CCE DUP2 PUSH0 ADD DUP2 DUP2 MSTORE POP POP PUSH5 0xFF4059EF8 DUP2 PUSH1 0x20 ADD DUP2 DUP2 MSTORE POP POP PUSH32 0xFFFFFFFFFFFFFFFFFFFFFFFFFFFFFFFFFFFFFFFFFFFFFFFFFFFFFFF1FCAEF45A DUP2 PUSH1 0x40 ADD DUP2 DUP2 MSTORE POP POP PUSH2 0x262A JUMP JUMPDEST PUSH5 0x11E4BA324A DUP4 SUB PUSH2 0x1D7C JUMPI PUSH32 0xFFFFFFFFFFFFFFFFFFFFFFFFFFFFFFFFFFFFFFFFFFFFFFFFFFFFFFF233DF7684 DUP2 PUSH0 ADD DUP2 DUP2 MSTORE POP POP PUSH5 0xFBCD51CCE DUP2 PUSH1 0x20 ADD DUP2 DUP2 MSTORE POP POP PUSH5 0xFF4059EF8 DUP2 PUSH1 0x40 ADD DUP2 DUP2 MSTORE POP POP PUSH2 0x2629 JUMP JUMPDEST PUSH5 0x121BEAB474 DUP4 SUB PUSH2 0x1DD4 JUMPI PUSH5 0x102B362118 DUP2 PUSH0 ADD DUP2 DUP2 MSTORE POP POP PUSH5 0x106266A342 DUP2 PUSH1 0x20 ADD DUP2 DUP2 MSTORE POP POP PUSH32 0xFFFFFFFFFFFFFFFFFFFFFFFFFFFFFFFFFFFFFFFFFFFFFFFFFFFFFFF18E4DF010 DUP2 PUSH1 0x40 ADD DUP2 DUP2 MSTORE POP POP PUSH2 0x2628 JUMP JUMPDEST PUSH5 0x12531B3694 DUP4 SUB PUSH2 0x1E2C JUMPI PUSH32 0xFFFFFFFFFFFFFFFFFFFFFFFFFFFFFFFFFFFFFFFFFFFFFFFFFFFFFFF1C57E723A DUP2 PUSH0 ADD DUP2 DUP2 MSTORE POP POP PUSH5 0x102B362118 DUP2 PUSH1 0x20 ADD DUP2 DUP2 MSTORE POP POP PUSH5 0x106266A342 DUP2 PUSH1 0x40 ADD DUP2 DUP2 MSTORE POP POP PUSH2 0x2627 JUMP JUMPDEST PUSH5 0x128A4BB8BE DUP4 SUB PUSH2 0x1E84 JUMPI PUSH5 0x109997256C DUP2 PUSH0 ADD DUP2 DUP2 MSTORE POP POP PUSH5 0x10D0C7A78C DUP2 PUSH1 0x20 ADD DUP2 DUP2 MSTORE POP POP PUSH32 0xFFFFFFFFFFFFFFFFFFFFFFFFFFFFFFFFFFFFFFFFFFFFFFFFFFFFFFF11FECEBC6 DUP2 PUSH1 0x40 ADD DUP2 DUP2 MSTORE POP POP PUSH2 0x2626 JUMP JUMPDEST PUSH5 0x12C17C3AE8 DUP4 SUB PUSH2 0x1EDC JUMPI PUSH32 0xFFFFFFFFFFFFFFFFFFFFFFFFFFFFFFFFFFFFFFFFFFFFFFFFFFFFFFF1571D6DF0 DUP2 PUSH0 ADD DUP2 DUP2 MSTORE POP POP PUSH5 0x109997256C DUP2 PUSH1 0x20 ADD DUP2 DUP2 MSTORE POP POP PUSH5 0x10D0C7A78C DUP2 PUSH1 0x40 ADD DUP2 DUP2 MSTORE POP POP PUSH2 0x2625 JUMP JUMPDEST PUSH5 0x12F8ACBD08 DUP4 SUB PUSH2 0x1F34 JUMPI PUSH5 0x1107F829B6 DUP2 PUSH0 ADD DUP2 DUP2 MSTORE POP POP PUSH5 0x113F28ABD6 DUP2 PUSH1 0x20 ADD DUP2 DUP2 MSTORE POP POP PUSH32 0xFFFFFFFFFFFFFFFFFFFFFFFFFFFFFFFFFFFFFFFFFFFFFFFFFFFFFFF0B18BE77C DUP2 PUSH1 0x40 ADD DUP2 DUP2 MSTORE POP POP PUSH2 0x2624 JUMP JUMPDEST PUSH5 0x132FDD3F32 DUP4 SUB PUSH2 0x1F8C JUMPI PUSH32 0xFFFFFFFFFFFFFFFFFFFFFFFFFFFFFFFFFFFFFFFFFFFFFFFFFFFFFFF0E8BC69A6 DUP2 PUSH0 ADD DUP2 DUP2 MSTORE POP POP PUSH5 0x1107F829B6 DUP2 PUSH1 0x20 ADD DUP2 DUP2 MSTORE POP POP PUSH5 0x113F28ABD6 DUP2 PUSH1 0x40 ADD DUP2 DUP2 MSTORE POP POP PUSH2 0x2623 JUMP JUMPDEST PUSH5 0x13670DC152 DUP4 SUB PUSH2 0x1FE4 JUMPI PUSH5 0x1176592E00 DUP2 PUSH0 ADD DUP2 DUP2 MSTORE POP POP PUSH5 0x11AD89B02A DUP2 PUSH1 0x20 ADD DUP2 DUP2 MSTORE POP POP PUSH32 0xFFFFFFFFFFFFFFFFFFFFFFFFFFFFFFFFFFFFFFFFFFFFFFFFFFFFFFF0432AE332 DUP2 PUSH1 0x40 ADD DUP2 DUP2 MSTORE POP POP PUSH2 0x2622 JUMP JUMPDEST PUSH5 0x139E3E437C DUP4 SUB PUSH2 0x203C JUMPI PUSH32 0xFFFFFFFFFFFFFFFFFFFFFFFFFFFFFFFFFFFFFFFFFFFFFFFFFFFFFFF07A5B6552 DUP2 PUSH0 ADD DUP2 DUP2 MSTORE POP POP PUSH5 0x1176592E00 DUP2 PUSH1 0x20 ADD DUP2 DUP2 MSTORE POP POP PUSH5 0x11AD89B02A DUP2 PUSH1 0x40 ADD DUP2 DUP2 MSTORE POP POP PUSH2 0x2621 JUMP JUMPDEST PUSH5 0x13D56EC5A6 DUP4 SUB PUSH2 0x2094 JUMPI PUSH5 0x11E4BA324A DUP2 PUSH0 ADD DUP2 DUP2 MSTORE POP POP PUSH5 0x121BEAB474 DUP2 PUSH1 0x20 ADD DUP2 DUP2 MSTORE POP POP PUSH32 0xFFFFFFFFFFFFFFFFFFFFFFFFFFFFFFFFFFFFFFFFFFFFFFFFFFFFFFEFD4C9DEE8 DUP2 PUSH1 0x40 ADD DUP2 DUP2 MSTORE POP POP PUSH2 0x2620 JUMP JUMPDEST PUSH5 0x140C9F47C6 DUP4 SUB PUSH2 0x20EC JUMPI PUSH32 0xFFFFFFFFFFFFFFFFFFFFFFFFFFFFFFFFFFFFFFFFFFFFFFFFFFFFFFF00BFA6108 DUP2 PUSH0 ADD DUP2 DUP2 MSTORE POP POP PUSH5 0x11E4BA324A DUP2 PUSH1 0x20 ADD DUP2 DUP2 MSTORE POP POP PUSH5 0x121BEAB474 DUP2 PUSH1 0x40 ADD DUP2 DUP2 MSTORE POP POP PUSH2 0x261F JUMP JUMPDEST PUSH5 0x1443CFC9F0 DUP4 SUB PUSH2 0x2144 JUMPI PUSH5 0x12531B3694 DUP2 PUSH0 ADD DUP2 DUP2 MSTORE POP POP PUSH5 0x128A4BB8BE DUP2 PUSH1 0x20 ADD DUP2 DUP2 MSTORE POP POP PUSH32 0xFFFFFFFFFFFFFFFFFFFFFFFFFFFFFFFFFFFFFFFFFFFFFFFFFFFFFFEF6668DA94 DUP2 PUSH1 0x40 ADD DUP2 DUP2 MSTORE POP POP PUSH2 0x261E JUMP JUMPDEST PUSH5 0x147B004C10 DUP4 SUB PUSH2 0x219C JUMPI PUSH32 0xFFFFFFFFFFFFFFFFFFFFFFFFFFFFFFFFFFFFFFFFFFFFFFFFFFFFFFEF9D995CBE DUP2 PUSH0 ADD DUP2 DUP2 MSTORE POP POP PUSH5 0x12531B3694 DUP2 PUSH1 0x20 ADD DUP2 DUP2 MSTORE POP POP PUSH5 0x128A4BB8BE DUP2 PUSH1 0x40 ADD DUP2 DUP2 MSTORE POP POP PUSH2 0x261D JUMP JUMPDEST PUSH5 0x14B230CE3A DUP4 SUB PUSH2 0x21F4 JUMPI PUSH5 0x12C17C3AE8 DUP2 PUSH0 ADD DUP2 DUP2 MSTORE POP POP PUSH5 0x12F8ACBD08 DUP2 PUSH1 0x20 ADD DUP2 DUP2 MSTORE POP POP PUSH32 0xFFFFFFFFFFFFFFFFFFFFFFFFFFFFFFFFFFFFFFFFFFFFFFFFFFFFFFEEF807D64A DUP2 PUSH1 0x40 ADD DUP2 DUP2 MSTORE POP POP PUSH2 0x261C JUMP JUMPDEST PUSH5 0x14E961505A DUP4 SUB PUSH2 0x224C JUMPI PUSH32 0xFFFFFFFFFFFFFFFFFFFFFFFFFFFFFFFFFFFFFFFFFFFFFFFFFFFFFFEF2F385874 DUP2 PUSH0 ADD DUP2 DUP2 MSTORE POP POP PUSH5 0x12C17C3AE8 DUP2 PUSH1 0x20 ADD DUP2 DUP2 MSTORE POP POP PUSH5 0x12F8ACBD08 DUP2 PUSH1 0x40 ADD DUP2 DUP2 MSTORE POP POP PUSH2 0x261B JUMP JUMPDEST PUSH5 0x152091D284 DUP4 SUB PUSH2 0x22A4 JUMPI PUSH5 0x132FDD3F32 DUP2 PUSH0 ADD DUP2 DUP2 MSTORE POP POP PUSH5 0x13670DC152 DUP2 PUSH1 0x20 ADD DUP2 DUP2 MSTORE POP POP PUSH32 0xFFFFFFFFFFFFFFFFFFFFFFFFFFFFFFFFFFFFFFFFFFFFFFFFFFFFFFEE89A6D200 DUP2 PUSH1 0x40 ADD DUP2 DUP2 MSTORE POP POP PUSH2 0x261A JUMP JUMPDEST PUSH5 0x1557C254AE DUP4 SUB PUSH2 0x22FC JUMPI PUSH32 0xFFFFFFFFFFFFFFFFFFFFFFFFFFFFFFFFFFFFFFFFFFFFFFFFFFFFFFEEC0D7542A DUP2 PUSH0 ADD DUP2 DUP2 MSTORE POP POP PUSH5 0x132FDD3F32 DUP2 PUSH1 0x20 ADD DUP2 DUP2 MSTORE POP POP PUSH5 0x13670DC152 DUP2 PUSH1 0x40 ADD DUP2 DUP2 MSTORE POP POP PUSH2 0x2619 JUMP JUMPDEST PUSH5 0x158EF2D6CE DUP4 SUB PUSH2 0x2354 JUMPI PUSH5 0x139E3E437C DUP2 PUSH0 ADD DUP2 DUP2 MSTORE POP POP PUSH5 0x13D56EC5A6 DUP2 PUSH1 0x20 ADD DUP2 DUP2 MSTORE POP POP PUSH32 0xFFFFFFFFFFFFFFFFFFFFFFFFFFFFFFFFFFFFFFFFFFFFFFFFFFFFFFEE1B45CDB6 DUP2 PUSH1 0x40 ADD DUP2 DUP2 MSTORE POP POP PUSH2 0x2618 JUMP JUMPDEST PUSH5 0x15C62358F8 DUP4 SUB PUSH2 0x23AC JUMPI PUSH32 0xFFFFFFFFFFFFFFFFFFFFFFFFFFFFFFFFFFFFFFFFFFFFFFFFFFFFFFEE52764FD6 DUP2 PUSH0 ADD DUP2 DUP2 MSTORE POP POP PUSH5 0x139E3E437C DUP2 PUSH1 0x20 ADD DUP2 DUP2 MSTORE POP POP PUSH5 0x13D56EC5A6 DUP2 PUSH1 0x40 ADD DUP2 DUP2 MSTORE POP POP PUSH2 0x2617 JUMP JUMPDEST PUSH5 0x15FD53DB18 DUP4 SUB PUSH2 0x2404 JUMPI PUSH5 0x140C9F47C6 DUP2 PUSH0 ADD DUP2 DUP2 MSTORE POP POP PUSH5 0x1443CFC9F0 DUP2 PUSH1 0x20 ADD DUP2 DUP2 MSTORE POP POP PUSH32 0xFFFFFFFFFFFFFFFFFFFFFFFFFFFFFFFFFFFFFFFFFFFFFFFFFFFFFFEDACE4C96C DUP2 PUSH1 0x40 ADD DUP2 DUP2 MSTORE POP POP PUSH2 0x2616 JUMP JUMPDEST PUSH5 0x1634845D42 DUP4 SUB PUSH2 0x245C JUMPI PUSH32 0xFFFFFFFFFFFFFFFFFFFFFFFFFFFFFFFFFFFFFFFFFFFFFFFFFFFFFFEDE4154B8C DUP2 PUSH0 ADD DUP2 DUP2 MSTORE POP POP PUSH5 0x140C9F47C6 DUP2 PUSH1 0x20 ADD DUP2 DUP2 MSTORE POP POP PUSH5 0x1443CFC9F0 DUP2 PUSH1 0x40 ADD DUP2 DUP2 MSTORE POP POP PUSH2 0x2615 JUMP JUMPDEST PUSH5 0x166BB4DF6C DUP4 SUB PUSH2 0x24B4 JUMPI PUSH5 0x147B004C10 DUP2 PUSH0 ADD DUP2 DUP2 MSTORE POP POP PUSH5 0x14B230CE3A DUP2 PUSH1 0x20 ADD DUP2 DUP2 MSTORE POP POP PUSH32 0xFFFFFFFFFFFFFFFFFFFFFFFFFFFFFFFFFFFFFFFFFFFFFFFFFFFFFFED3E83C518 DUP2 PUSH1 0x40 ADD DUP2 DUP2 MSTORE POP POP PUSH2 0x2614 JUMP JUMPDEST PUSH5 0x16A2E5618C DUP4 SUB PUSH2 0x250C JUMPI PUSH32 0xFFFFFFFFFFFFFFFFFFFFFFFFFFFFFFFFFFFFFFFFFFFFFFFFFFFFFFED75B44742 DUP2 PUSH0 ADD DUP2 DUP2 MSTORE POP POP PUSH5 0x147B004C10 DUP2 PUSH1 0x20 ADD DUP2 DUP2 MSTORE POP POP PUSH5 0x14B230CE3A DUP2 PUSH1 0x40 ADD DUP2 DUP2 MSTORE POP POP PUSH2 0x2613 JUMP JUMPDEST PUSH5 0x16DA15E3B6 DUP4 SUB PUSH2 0x2564 JUMPI PUSH5 0x14E961505A DUP2 PUSH0 ADD DUP2 DUP2 MSTORE POP POP PUSH5 0x152091D284 DUP2 PUSH1 0x20 ADD DUP2 DUP2 MSTORE POP POP PUSH32 0xFFFFFFFFFFFFFFFFFFFFFFFFFFFFFFFFFFFFFFFFFFFFFFFFFFFFFFECD022C0CE DUP2 PUSH1 0x40 ADD DUP2 DUP2 MSTORE POP POP PUSH2 0x2612 JUMP JUMPDEST PUSH5 0x17114665D6 DUP4 SUB PUSH2 0x25BC JUMPI PUSH32 0xFFFFFFFFFFFFFFFFFFFFFFFFFFFFFFFFFFFFFFFFFFFFFFFFFFFFFFED075342F8 DUP2 PUSH0 ADD DUP2 DUP2 MSTORE POP POP PUSH5 0x14E961505A DUP2 PUSH1 0x20 ADD DUP2 DUP2 MSTORE POP POP PUSH5 0x152091D284 DUP2 PUSH1 0x40 ADD DUP2 DUP2 MSTORE POP POP PUSH2 0x2611 JUMP JUMPDEST PUSH5 0x174876E800 DUP4 SUB PUSH2 0x2610 JUMPI PUSH5 0x1557C254AE DUP2 PUSH0 ADD DUP2 DUP2 MSTORE POP POP PUSH5 0x158EF2D6CE DUP2 PUSH1 0x20 ADD DUP2 DUP2 MSTORE POP POP PUSH32 0xFFFFFFFFFFFFFFFFFFFFFFFFFFFFFFFFFFFFFFFFFFFFFFFFFFFFFFEC61C1BC84 DUP2 PUSH1 0x40 ADD DUP2 DUP2 MSTORE POP POP JUMPDEST JUMPDEST JUMPDEST JUMPDEST JUMPDEST JUMPDEST JUMPDEST JUMPDEST JUMPDEST JUMPDEST JUMPDEST JUMPDEST JUMPDEST JUMPDEST JUMPDEST JUMPDEST JUMPDEST JUMPDEST JUMPDEST JUMPDEST JUMPDEST JUMPDEST JUMPDEST JUMPDEST JUMPDEST JUMPDEST JUMPDEST JUMPDEST JUMPDEST JUMPDEST JUMPDEST JUMPDEST JUMPDEST JUMPDEST JUMPDEST JUMPDEST JUMPDEST JUMPDEST JUMPDEST JUMPDEST JUMPDEST JUMPDEST JUMPDEST JUMPDEST JUMPDEST JUMPDEST JUMPDEST JUMPDEST JUMPDEST JUMPDEST JUMPDEST JUMPDEST JUMPDEST JUMPDEST JUMPDEST JUMPDEST JUMPDEST JUMPDEST JUMPDEST JUMPDEST JUMPDEST JUMPDEST JUMPDEST JUMPDEST JUMPDEST JUMPDEST JUMPDEST JUMPDEST JUMPDEST JUMPDEST JUMPDEST JUMPDEST JUMPDEST JUMPDEST JUMPDEST JUMPDEST JUMPDEST JUMPDEST JUMPDEST JUMPDEST JUMPDEST JUMPDEST JUMPDEST JUMPDEST JUMPDEST JUMPDEST JUMPDEST JUMPDEST JUMPDEST JUMPDEST JUMPDEST JUMPDEST JUMPDEST JUMPDEST JUMPDEST JUMPDEST JUMPDEST JUMPDEST JUMPDEST JUMPDEST JUMPDEST JUMPDEST JUMPDEST JUMPDEST JUMPDEST JUMPDEST JUMPDEST JUMPDEST DUP1 SWAP2 POP POP SWAP2 SWAP1 POP JUMP JUMPDEST PUSH1 0x40 MLOAD DUP1 PUSH1 0x80 ADD PUSH1 0x40 MSTORE DUP1 PUSH0 DUP2 MSTORE PUSH1 0x20 ADD PUSH0 DUP2 MSTORE PUSH1 0x20 ADD PUSH0 DUP2 MSTORE PUSH1 0x20 ADD PUSH0 DUP2 MSTORE POP SWAP1 JUMP JUMPDEST PUSH0 DUP1 REVERT JUMPDEST PUSH0 DUP2 SWAP1 POP SWAP2 SWAP1 POP JUMP JUMPDEST PUSH2 0x26BE DUP2 PUSH2 0x26AC JUMP JUMPDEST DUP2 EQ PUSH2 0x26C8 JUMPI PUSH0 DUP1 REVERT JUMPDEST POP JUMP JUMPDEST PUSH0 DUP2 CALLDATALOAD SWAP1 POP PUSH2 0x26D9 DUP2 PUSH2 0x26B5 JUMP JUMPDEST SWAP3 SWAP2 POP POP JUMP JUMPDEST PUSH0 PUSH1 0x20 DUP3 DUP5 SUB SLT ISZERO PUSH2 0x26F4 JUMPI PUSH2 0x26F3 PUSH2 0x26A8 JUMP JUMPDEST JUMPDEST PUSH0 PUSH2 0x2701 DUP5 DUP3 DUP6 ADD PUSH2 0x26CB JUMP JUMPDEST SWAP2 POP POP SWAP3 SWAP2 POP POP JUMP JUMPDEST PUSH2 0x2713 DUP2 PUSH2 0x26AC JUMP JUMPDEST DUP3 MSTORE POP POP JUMP JUMPDEST PUSH0 PUSH1 0x60 DUP3 ADD SWAP1 POP PUSH2 0x272C PUSH0 DUP4 ADD DUP7 PUSH2 0x270A JUMP JUMPDEST PUSH2 0x2739 PUSH1 0x20 DUP4 ADD DUP6 PUSH2 0x270A JUMP JUMPDEST PUSH2 0x2746 PUSH1 0x40 DUP4 ADD DUP5 PUSH2 0x270A JUMP JUMPDEST SWAP5 SWAP4 POP POP POP POP JUMP JUMPDEST PUSH0 DUP1 PUSH0 DUP1 PUSH1 0x80 DUP6 DUP8 SUB SLT ISZERO PUSH2 0x2766 JUMPI PUSH2 0x2765 PUSH2 0x26A8 JUMP JUMPDEST JUMPDEST PUSH0 PUSH2 0x2773 DUP8 DUP3 DUP9 ADD PUSH2 0x26CB JUMP JUMPDEST SWAP5 POP POP PUSH1 0x20 PUSH2 0x2784 DUP8 DUP3 DUP9 ADD PUSH2 0x26CB JUMP JUMPDEST SWAP4 POP POP PUSH1 0x40 PUSH2 0x2795 DUP8 DUP3 DUP9 ADD PUSH2 0x26CB JUMP JUMPDEST SWAP3 POP POP PUSH1 0x60 PUSH2 0x27A6 DUP8 DUP3 DUP9 ADD PUSH2 0x26CB JUMP JUMPDEST SWAP2 POP POP SWAP3 SWAP6 SWAP2 SWAP5 POP SWAP3 POP JUMP JUMPDEST PUSH0 DUP2 ISZERO ISZERO SWAP1 POP SWAP2 SWAP1 POP JUMP JUMPDEST PUSH2 0x27C6 DUP2 PUSH2 0x27B2 JUMP JUMPDEST DUP3 MSTORE POP POP JUMP JUMPDEST PUSH0 PUSH1 0x20 DUP3 ADD SWAP1 POP PUSH2 0x27DF PUSH0 DUP4 ADD DUP5 PUSH2 0x27BD JUMP JUMPDEST SWAP3 SWAP2 POP POP JUMP JUMPDEST PUSH2 0x27EE DUP2 PUSH2 0x26AC JUMP JUMPDEST DUP3 MSTORE POP POP JUMP JUMPDEST PUSH1 0x80 DUP3 ADD PUSH0 DUP3 ADD MLOAD PUSH2 0x2808 PUSH0 DUP6 ADD DUP3 PUSH2 0x27E5 JUMP JUMPDEST POP PUSH1 0x20 DUP3 ADD MLOAD PUSH2 0x281B PUSH1 0x20 DUP6 ADD DUP3 PUSH2 0x27E5 JUMP JUMPDEST POP PUSH1 0x40 DUP3 ADD MLOAD PUSH2 0x282E PUSH1 0x40 DUP6 ADD DUP3 PUSH2 0x27E5 JUMP JUMPDEST POP PUSH1 0x60 DUP3 ADD MLOAD PUSH2 0x2841 PUSH1 0x60 DUP6 ADD DUP3 PUSH2 0x27E5 JUMP JUMPDEST POP POP POP POP JUMP JUMPDEST PUSH0 PUSH1 0x80 DUP3 ADD SWAP1 POP PUSH2 0x285A PUSH0 DUP4 ADD DUP5 PUSH2 0x27F4 JUMP JUMPDEST SWAP3 SWAP2 POP POP JUMP JUMPDEST PUSH32 0x4E487B7100000000000000000000000000000000000000000000000000000000 PUSH0 MSTORE PUSH1 0x11 PUSH1 0x4 MSTORE PUSH1 0x24 PUSH0 REVERT JUMPDEST PUSH0 PUSH2 0x2897 DUP3 PUSH2 0x26AC JUMP JUMPDEST SWAP2 POP PUSH2 0x28A2 DUP4 PUSH2 0x26AC JUMP JUMPDEST SWAP3 POP DUP3 DUP3 ADD SWAP1 POP DUP3 DUP2 SLT ISZERO PUSH0 DUP4 SLT AND DUP4 DUP3 SLT PUSH0 DUP5 SLT ISZERO AND OR ISZERO PUSH2 0x28C8 JUMPI PUSH2 0x28C7 PUSH2 0x2860 JUMP JUMPDEST JUMPDEST SWAP3 SWAP2 POP POP JUMP INVALID LOG2 PUSH5 0x6970667358 0x22 SLT KECCAK256 PUSH13 0xF66971E03E17EC5479CCFEC292 SWAP4 0xDA LOG0 0x4E 0xC9 0xBB 0x4B 0xC0 0xDD DUP16 SWAP2 DUP16 0xF DUP1 ADDRESS DUP11 0xAB ADDRESS PUSH5 0x736F6C6343 STOP ADDMOD EQ STOP CALLER "
		},
		"gasEstimates": {
			"creation": {
				"codeDepositCost": "2100000",
				"executionCost": "2259",
				"totalCost": "2102259"
			},
			"external": {
				"computeTripartiteValue(int256)": "infinite",
				"getTripartiteComponents(int256)": "infinite",
				"validateTripartiteSum(int256,int256,int256,int256)": "infinite"
			}
		},
		"methodIdentifiers": {
			"computeTripartiteValue(int256)": "f9b0da80",
			"getTripartiteComponents(int256)": "78c9c437",
			"validateTripartiteSum(int256,int256,int256,int256)": "da837234"
		}
	},
	"abi": [
		{
			"inputs": [
				{
					"internalType": "int256",
					"name": "value",
					"type": "int256"
				}
			],
			"name": "computeTripartiteValue",
			"outputs": [
				{
					"components": [
						{
							"internalType": "int256",
							"name": "first",
							"type": "int256"
						},
						{
							"internalType": "int256",
							"name": "second",
							"type": "int256"
						},
						{
							"internalType": "int256",
							"name": "third",
							"type": "int256"
						},
						{
							"internalType": "int256",
							"name": "result",
							"type": "int256"
						}
					],
					"internalType": "struct TripartiteComputations.TripartiteResult",
					"name": "",
					"type": "tuple"
				}
			],
			"stateMutability": "pure",
			"type": "function"
		},
		{
			"inputs": [
				{
					"internalType": "int256",
					"name": "value",
					"type": "int256"
				}
			],
			"name": "getTripartiteComponents",
			"outputs": [
				{
					"internalType": "int256",
					"name": "",
					"type": "int256"
				},
				{
					"internalType": "int256",
					"name": "",
					"type": "int256"
				},
				{
					"internalType": "int256",
					"name": "",
					"type": "int256"
				}
			],
			"stateMutability": "pure",
			"type": "function"
		},
		{
			"inputs": [
				{
					"internalType": "int256",
					"name": "first",
					"type": "int256"
				},
				{
					"internalType": "int256",
					"name": "second",
					"type": "int256"
				},
				{
					"internalType": "int256",
					"name": "third",
					"type": "int256"
				},
				{
					"internalType": "int256",
					"name": "expected",
					"type": "int256"
				}
			],
			"name": "validateTripartiteSum",
			"outputs": [
				{
					"internalType": "bool",
					"name": "",
					"type": "bool"
				}
			],
			"stateMutability": "pure",
			"type": "function"
		}
	]
}